:020000040800F2
:10000000408F0220C9020008AB3F00087F3500087E
:10001000A73F0008ED050008C962000800000000C5
:100020000000000000000000000000000D020008B9
:100030004907000800000000610200083945000877
:10004000E3020008E3020008E3020008E3020008FC
:10005000E3020008E30200084D070008F507000866
:10006000110800082D08000849080008E3020008EC
:10007000F105000801060008110600082106000825
:100080003106000841060008E3020008E302000808
:10009000E3020008E3020008E30200086508000824
:1000A000E3020008E3020008E3020008E30200089C
:1000B000E3020008E3020008E3020008E30200088C
:1000C000E3020008E3020008E3020008E30200087C
:1000D000E30200080D620008396200086962000846
:1000E00069070008E3020008E3020008E3020008D1
:1000F000E3020008E3020008E302000851060008DA
:10010000E3020008E3020008E3020008E30200083B
:100110004D5C0008E3020008E3020008E302000867
:10012000710600088106000891060008A106000873
:10013000B1060008E3020008E3020008E302000839
:10014000E3020008E3020008E3020008E3020008FB
:10015000C1060008D1060008E106000899620008FF
:10016000E3020008E3020008E3020008E3020008DB
:10017000E3020008E3020008E302000800000000B8
:10018000E3020008E30200087D5C0008AD5C0008A3
:10019000E3020008E3020008E3020008E3020008AB
:1001A000253D0008153D000861060008E30200082F
:1001B000E3020008E3020008E3020008E30200088B
:1001C000E3020008E302000839070008E302000820
:1001D000E3020008E3020008E3020008E30200086B
:1001E000E3020008E3020008E3020008E30200085B
:1001F000E3020008E3020008DFF80CD000F0F6F894
:100200000048004785120108408F02202B4B1968D7
:100210000868B0E8F04F80F30988BFF36F8F4FF0A4
:10022000000080F311887047000000000648006855
:10023000006880F3088862B661B6BFF34F8FBFF3E2
:100240006F8F00DF00BF00BF08ED00E0DFF80C009B
:10025000016841F470010160704700BF88ED00E063
:10026000EFF30980BFF36F8F144B1A681EF0100F65
:1002700008BF20ED108A20E9F04F106008B44FF05D
:10028000E00080F31188BFF34F8FBFF36F8F13F03F
:100290008FFA4FF0000080F3118808BC19680868D5
:1002A000B0E8F04F1EF0100F08BFB0EC108A80F3DA
:1002B0000988BFF36F8F704700BF00BFCC010220D9
:1002C000EFF3058070470000064880470648004766
:1002D000FEE7FEE7FEE7FEE7FEE7FEE7FEE7FEE7F6
:1002E000FEE7FEE741450008F901000840EA010386
:1002F0009B0703D009E008C9121F08C0042AFAD2DC
:1003000003E011F8013B00F8013B521EF9D270479F
:10031000D2B201E000F8012B491EFBD27047002247
:10032000F6E710B513460A4604461946FFF7F0FFF4
:10033000204610BD10B5044604E00B7800F8013BE0
:1003400003B1491C521EF8D2204610BD421C10F8C1
:10035000011B0029FBD1801A704710B5002200E074
:10036000521C835C8C5CA34201D1002BF8D1D8B223
:10037000E1B2401A10BD034611F8012B00F8012B21
:10038000002AF9D1184670472DE9F05F0546002094
:1003900092469B4688460646814640241BE02846F6
:1003A00041464746224600F042F853465A46C01A94
:1003B000914110D311461846224600F029F82D1A13
:1003C00067EB01084F4622460120002100F020F88B
:1003D00017EB00094E41201EA4F10104DFDC484662
:1003E00031462A464346BDE8F09F0000064C074DC3
:1003F00006E0E06840F0010394E8070098471034F5
:10040000AC42F6D3FFF7FCFEC45F0108E45F0108CD
:10041000202A04DB203A00FA02F1002070479140C4
:10042000C2F1200320FA03F3194390407047202AB9
:1004300004DB203A21FA02F00021704721FA02F38E
:10044000D040C2F12002914008431946704770B570
:100450008C1810F8015B15F0070301D110F8013B6F
:100460002A1106D110F8012B03E010F8016B01F8F6
:10047000016B5B1EF9D12B0705D40023521E0DD44E
:1004800001F8013BFAE710F8013BCB1A921C03E09C
:1004900013F8015B01F8015B521EF9D5A142D8D3D4
:1004A000002070BD08B500BF3548006840F080608E
:1004B000334908600846006800F08060009000BF83
:1004C00000BF2F482038006840F080602C49203958
:1004D00008600846006820F08060086000BF284877
:1004E0001438006840F400002549143908600846B3
:1004F000006800F40000009000BF00BF20483438BE
:10050000006840F400001E4934390860084600685D
:1005100020F40000086000BF1948006840F0006047
:10052000174908600846006800F00060009000BFAE
:1005300000BF13482038006840F00060104920399F
:1005400008600846006820F000600860002203216F
:10055000582001F022FE582001F012FE0022032153
:100560005A2001F01AFE5A2001F00AFE002203214F
:10057000622001F012FE622001F002FE08BD0000C0
:100580004438024000B587B000BF1648006840F408
:100590000070144908600846006800F4007001907B
:1005A00000BF00BF4FF40040029001200390049070
:1005B0000320059002A90C4800F09AFF00224FF496
:1005C0000041094801F0A0F8142000F076FF012254
:1005D000D103054801F098F80A2000F06EFF07B03B
:1005E00000BD0000303802400024024000BFFEE79A
:1005F00010B5024804F0BFF810BD000028600240AA
:1006000010B5024804F0B7F810BD00004060024089
:1006100010B5024804F0AFF810BD00005860024069
:1006200010B5024804F0A7F810BD00007060024049
:1006300010B5024804F09FF810BD00008860024029
:1006400010B5024804F097F810BD0000A060024009
:1006500010B5024804F08FF810BD0000B8600240E9
:1006600010B5024800F018FA10BD00009C89022065
:1006700010B5024804F07FF810BD0000106402407D
:1006800010B5024804F077F810BD0000286402405D
:1006900010B5024804F06FF810BD0000406402403D
:1006A00010B5024804F067F810BD0000586402401D
:1006B00010B5024804F05FF810BD000070640240FD
:1006C00010B5024804F057F810BD000088640240DD
:1006D00010B5024804F04FF810BD0000A0640240BD
:1006E00010B5024804F047F810BD0000B86402409D
:1006F00030B5039C42EA811545EA032545EA0445E5
:10070000C56630BD7CB505460C46012D08D860781D
:100710000090237815220021064800F076FE08E0BC
:10072000605D2B4639220021CDE90004014800F02C
:10073000F3FD7CBD1887022010B5024800F09DFC37
:1007400010BD0000188702207047000010B5054852
:10075000006800F0010020B101200249086004F0A7
:1007600049F910BD143C014010B52148006800F45F
:10077000806028B14FF480601D49086004F03AF9A8
:100780001B48006800F4006028B14FF4006018496D
:10079000086004F02FF91648006800F4805028B172
:1007A0004FF480501249086004F024F910480068A2
:1007B00000F4005028B14FF400500D49086004F0D7
:1007C00019F90B48006800F4804028B14FF48040CC
:1007D0000749086004F00EF90548006800F400407D
:1007E00028B14FF400400249086004F003F910BD3D
:1007F000143C014010B50548006800F0020020B12B
:1008000002200249086004F0F5F810BD143C0140D4
:1008100010B50548006800F0040020B1042002492A
:10082000086004F0E7F810BD143C014010B505481D
:10083000006800F0080020B108200249086004F0B8
:10084000D9F810BD143C014010B50548006800F00F
:10085000100020B110200249086004F0CBF810BD50
:10086000143C014010B51A48006800F0200020B187
:1008700020201749086004F0BDF81548006800F012
:10088000400020B140201249086004F0B3F810483D
:10089000006800F0800020B180200D49086004F05D
:1008A000A9F80B48006800F4807028B14FF48070FC
:1008B0000749086004F09EF80548006800F40070DD
:1008C00028B14FF400700249086004F093F810BD9D
:1008D000143C014010B513F0F5FA09490968884243
:1008E0000CD113F00BFB07490968401A0649086050
:1008F00006480068096808440449086010BD000003
:100900002C02022034020220380202203C02022083
:1009100030B50246002300240868012816D0136869
:100920006FF30E03D1E901052843CD6828430D6913
:1009300028434D6928438D692843CD6928430D6AB2
:1009400028434D6A28430343136019E0136823F4D6
:10095000F843D1E9070528434D6A28430343546807
:100960006FF30E04D1E901052843CD6828430D69D2
:1009700028434D6928438D6928430443136054601C
:10098000002030BD0246506940EA4100506100201D
:100990007047F8B506460C46154600200090002723
:1009A000D4E900010843A168491E40EA4110E1680A
:1009B00040EA412000900098306100F0ABFE07460D
:1009C00009E0681C38B125B100F0A4FEC01BA842A4
:1009D00001D90320F8BDB06900F020000028F0D153
:1009E00000BFF7E770B50346154600220024012D2D
:1009F0001FD09A6802F070420868401E4E68761E4A
:100A000040EA06168868401E46EA0026C868401E6E
:100A100046EA0036088A401E46EA0046888A401E9A
:100A200046EA0056087E401E46EA006002439A608D
:100A300022E09A6811480240C868401E0603888A6E
:100A4000401E46EA00500243DC6804F07044086827
:100A5000401E4E68761E40EA06168868401E46EA2A
:100A60000026088A401E46EA0046087E401E46EAE6
:100A7000006004439A60DC60002070BDFF0F0FFF30
:100A800001B500BF0098411E00910028FAD108BDB1
:100A9000014600207047704770B5044620684568DD
:100AA0002068066805F00100E0B106F48070C8B166
:100AB0002068006820F4807021680860606D40F054
:100AC00001006065012021688860042084F85100DD
:100AD00000BF002084F8500000BFE06910B120463C
:100AE000E169884705F02000E0B106F40050C8B184
:100AF0002068006820F400502168086020202168E8
:100B00008860606D40F002006065042084F8510048
:100B100000BF002084F8500000BFE06910B12046FB
:100B2000E169884705F00800E0B106F40060C8B14B
:100B30002068006820F400602168086008202168AF
:100B40008860606D40F004006065042084F8510006
:100B500000BF002084F8500000BFE06910B12046BB
:100B6000E169884705F0040070B106F4806058B16F
:100B70002068006820F480602168086004202168F3
:100B80008860204600F03BF805F00200D0B106F482
:100B90000070B8B12068006820F400702168086017
:100BA000022021688860606D6065012084F8510032
:100BB00000BF002084F8500000BFA06910B120469B
:100BC000A169884705F01000C0B106F48050A8B1B3
:100BD0002068006820F48050216808601020216897
:100BE0008860606D6065012084F8510000BF0020BE
:100BF00084F8500000BF2046FFF74DFF70BD7047DE
:100C0000024600BF107C012801D10220704701205C
:100C1000107400BF1068406B40F001001368586307
:100C20001068D0F8000420F001001368C3F8000435
:100C30001068D0F8000440F001001368C3F8000405
:100C40001068C06820F003001368D8601068C0689E
:100C50000B6818431368D8601068406920F00700DB
:100C600013685861D1E9063018434B69184313687B
:100C70005B691843136858611068006920F00F0021
:100C800013681861106800694B681843136818618D
:100C90001068D0F8000420F00E001368C3F80004B8
:100CA0001068D0F800044B6840EA43001368C3F8AA
:100CB00000041068406E6FF30F00136858661068E8
:100CC000406E8B681843136858661068D0F80004AB
:100CD00020F0F0001368C3F80004D1E903031843BF
:100CE0004B6A18430B6A18431368D3F8003418434F
:100CF0001368C3F800041068806E20F001001368C8
:100D000098661068806E8B6A18431368986610683E
:100D1000D0F8080440F001001368C3F80804106814
:100D2000D0F8080440F002001368C3F8080400BFBC
:100D30000020107400BF00BF68E70000024600BF3B
:100D4000107C012801D1022070470120107400BFDF
:100D50001068806E184B184013689866D1E900033C
:100D600018438B681843CB6818430B6918434B69C9
:100D700018438B691843CB6918430B6A18434B6AB5
:100D800018438B6A1843CB6A184313689B6E184349
:100D9000136898661068806E20F0020013689866E9
:100DA0001068806E0B6B18431368986600BF0020B4
:100DB000107400BF00BFC7E7FF80F0FE024600BF0F
:100DC000107C012801D1022070470120107400BF5F
:100DD0001068C06A20F01F001368D8621068C06AEB
:100DE00008431368D86200BF0020107400BF00BF22
:100DF000EAE710B5024600BF107C012801D10220AD
:100E000010BD0120107400BFD1E90040A04201D9FB
:100E1000486800E0086803461068D0F8980000F0C1
:100E2000FC201468C4F898001068D0F8980043EAD1
:100E3000034420431468C4F898001068D0F89C005C
:100E400000F400401468C4F89C008C89086940EAEA
:100E500004400C7A40EA04601468D4F89C402043B3
:100E60001468C4F89C001068D0F8A40020F47F40F7
:100E70001468C4F8A4001068D0F8A4004C6940EAD3
:100E800004201468C4F8A40000BF0020107400BF40
:100E900000BFB5E710B504460CB9012010BD032012
:100EA00060742068D0F8040420F008002168C1F8BC
:100EB00004042068406820F0010021684860206830
:100EC000D0F8A00020F006002168C1F8A00020683A
:100ED000D0F8300420F001002168C1F83004206807
:100EE000D0F8300420F080702168C1F8300420462A
:100EF00000F071FA00206061607400BF207400BFD0
:100F000000BFCBE77CB50446534890F900000028A9
:100F100039DB52480068012836D1002034231522DD
:100F200001460090204600F070FA2068D0F80404D2
:100F300020F008002168C1F80404494800684168AD
:100F400001F5C86147480068C0F8AC104548006822
:100F5000406A40F001004349096848622068D0F8BF
:100F6000040440F008002168C1F804043E482A2126
:100F700004233922CDE900100021204600F0CCF9ED
:100F8000204600F02AFA5DE034480068022859D172
:100F9000002500BF19E0C5EBC500344901EB800016
:100FA000007A80B1C5EBC50001EB80002C490860D8
:100FB0000020C5EBC5012D4A02EB810108722846CD
:100FC0000AF0CCFA03E0681CC5B2022DE3DB00BFD7
:100FD0002068D0F8040420F008002168C1F8040457
:100FE0001F48006818B11E480068406801E01F48AB
:100FF00040681C490968C1F8AC001A480068406A9A
:1010000040F001001749096848622068D0F80404DC
:1010100040F008002168C1F8040415482A2104237F
:101020003922CDE900100021204600F075F9114861
:10103000442102233922CDE900100021204600F08E
:101040006BF900BF05480068012801D1022000E0CB
:101050000120024908607CBD640202206002022077
:101060006802022070860220540202206489022055
:10107000500202205C020220704770B504462068CE
:10108000D0F80C0400F0010060B12068D0F80C0426
:1010900000F0010030B101202168C1F810042046A1
:1010A00000F00AFA2068D0F80C0400F0020060B1E9
:1010B0002068D0F80C0400F0020030B10220216852
:1010C000C1F810042046FFF71DFFA069002857D083
:1010D0002068D0F8BC602068D0F8C40006402068C2
:1010E000D0F8C0502068D0F8C8000540B0B218B1A0
:1010F000606940F00100606106F4F81018B16069A1
:1011000040F00200606105F0010018B1606940F034
:101110000400606105F0020018B1606940F0080049
:10112000606105F00C0018B1606940F0100060616A
:1011300005F0100018B1606940F02000606105F012
:10114000200018B1606940F04000606105F0400087
:1011500018B1606940F08000606105F0800018B14E
:10116000606940F48070606105F4F85018B16069FE
:1011700040F400706061606910B12046FFF77CFFA9
:1011800070BD00002DE9F04104460D460026002701
:10119000B04614B90120BDE8F081607C10B920464A
:1011A00000F01AF9032060742068D0F8300440F091
:1011B00080702168C1F8300400F0ACFA064607E000
:1011C00000F0A8FA801BB0F57A7F01D90320E2E78E
:1011D0002068D0F80C0400F480500028F0D020687B
:1011E000D0F830044A4908402168C1F83004286822
:1011F0008000696840EAC120298940EA01402168ED
:10120000D1F8301408432168C1F830042068D0F8C0
:10121000300440F001002168C1F8300400F07AFA8F
:10122000064607E000F076FA801BB0F57A7F01D918
:101230000320B0E72068D0F80C0400F48070002888
:10124000F0D02068D0F8A00040F006002168C1F876
:10125000A0002068D0F8940020F003002168C1F8B5
:1012600094002068D0F89400616841F001010843BF
:101270002168C1F894002068D0F8A40020F0030091
:101280002168C1F8A4002068D0F8A400E1680843F0
:101290002168C1F8A4002068806820F0FF00216860
:1012A000886020688068A168084321688860686851
:1012B00008B1686800E001208046164808FB00F08D
:1012C0002A7A01219140484346F2A81229685143E5
:1012D000B0FBF1F72068D0F8180420F03F00216837
:1012E000C1F818042068D0F8180438432168C1F800
:1012F000180400202168C1F8C40000212068C0F84B
:10130000C8100020A061606101206074002042E7E5
:101310000386FCFF00093D002DE9F84F054688468D
:1013200091461F46DDE90AA60024A34600BF287C9B
:10133000012802D10220BDE8F88F0120287400BFE7
:1013400000F0E8F983460CE000F0E4F9A0EB0B00B4
:10135000B0F57A7F05D900BF0020287400BF0320B4
:10136000E9E72868406F00F001000028ECD01FE09A
:1013700074B9305D4AEA00203119497840EA0140E9
:101380003119897840EA016029680867E41C0FE098
:10139000305D3119497840EA01203119897840EAF5
:1013A00001403119C97840EA016029680867241DA5
:1013B000BC42DDD3781CC0F30720791CCBB200906F
:1013C0004A4641462868FFF793F900BF0020287479
:1013D00000BF00BFAFE770477047014600BF087C01
:1013E000012801D1022070470120087400BF08685D
:1013F000D0F8040440F004000A68C2F8040400BFF6
:101400000020087400BF00BFEDE72DE9F843044653
:101410000D4616461F46DDF820804FF0000900BF3C
:10142000207C012802D10220BDE8F883012020742D
:1014300000BF00F06FF981460CE000F06BF9A0EB03
:101440000900B0F57A7F05D900BF0020207400BFE5
:101450000320E9E72068406F00F001000028ECD08D
:10146000CDF800803B46324629462068FFF740F918
:1014700000BF0020207400BF00BFD5E7014600BFB9
:10148000087C012801D1022070470120087400BFA8
:101490000868406840F001000A6850600868D0F8A9
:1014A000040440F008000A68C2F8040400BF0020E9
:1014B000087400BF00BFE7E7704700B5014600BFF2
:1014C000EFF3058048B900F025F9024600BF00F0AF
:1014D00021F9801A8842FAD309E006E04FF0E020B3
:1014E000006900F4803000B1491E0029F6D100BD2A
:1014F000F8B502460B46002100250024002000BF5D
:10150000E4E0012606FA01F51E6806EA0504AC428D
:1015100071D15E68022E02D05E68122E13D1CF0800
:1015200002F1200656F827004E07F70E0F26BE40A0
:10153000B0434F07FF0E1E69BE403043CF0802F193
:10154000200646F8270010684F000326BE40B0432F
:101550001E7906F003064F00BE40304310605E68FF
:10156000012E08D05E68022E05D05E68112E02D0D2
:101570005E68122E13D190684F000326BE40B04320
:101580004F00DE68BE4030439060506801268E40B8
:10159000B0431E79C6F300168E4030435060D068C9
:1015A0004F000326BE40B0434F009E68BE4030430C
:1015B000D0605E6806F08056B6F1805FA8D100BFAB
:1015C000444E366846F48046424F3E603E4636689A
:1015D00006F48046009600BF00BF3F4E8F0856F8C5
:1015E00027008E07370F0F26BE40B0433B4EB24256
:1015F00002D100262EE068E0394EB24201D1012628
:1016000028E0384EB24201D1022623E0364EB242E3
:1016100001D103261EE0354EB24201D1042619E065
:10162000334EB24201D1052614E0324EB24201D10E
:1016300006260FE0304EB24201D107260AE02F4EB7
:10164000B24201D1082605E02D4EB24201D1092651
:1016500000E00A268F073F0FBE4030431E4E8F0822
:1016600046F82700274E3068A0435E6806F48036AF
:10167000B6F5803F00D12043224E3060361D3068E1
:10168000A0435E6806F40036B6F5003F00D1204363
:101690001C4E361D3060361D3068A0435E6806F46F
:1016A0008016B6F5801F00D12043164E08363060F4
:1016B000361D3068A0435E6806F40016B6F5001FBC
:1016C00000D120430F4E0C363060491C1029FFF426
:1016D00018AFF8BD4438024008380140000002400D
:1016E0000004024000080240000C024000100240CA
:1016F0000014024000180240001C0240002002407A
:1017000000240240003C01400AB1816101E00B0469
:1017100083617047014800687047000004000220A0
:10172000024692F8410020282DD100BF92F84000D7
:10173000012801D102207047012082F8400000BF3B
:10174000242082F841001068006820F0010013682E
:1017500018601068006820F48050136818601068E2
:1017600000680843136818601068006840F00100C2
:1017700013681860202082F8410000BF002082F822
:10178000400000BFD7E70220D5E70146486C70470C
:1017900010B504460CB9012010BD94F8410028B9D9
:1017A000002084F84000204600F078FA242084F8D5
:1017B00041002068006820F001002168086060682E
:1017C00020F07060216808612068806820F4004083
:1017D00021688860E068012805D1A06840F40040D5
:1017E0002168886004E0A06840F4044021688860B3
:1017F000E068022802D180022168486020684068C1
:1018000013490843216848602068C06820F40040FC
:101810002168C860D4E904010843A16940EA0120B5
:101820002168C860D4E9070108432168086020687E
:10183000006840F0010021680860002060642020FA
:1018400084F841000020206384F8420000BFA3E731
:10185000008000022DE9FC4104460F4690461D46DB
:1018600000260020019094F84100202870D12068C3
:101870008069C0F3C03010B10220BDE8FC8100BF18
:1018800094F84000012801D10220F6E7012084F8F5
:10189000400000BF242084F841000020606400BFA5
:1018A000E068012806D1C7F3090040F4005040F079
:1018B000007003E0C7F3090040F42050216848603D
:1018C000FFF728FF064611E0681C78B125B1FFF745
:1018D00021FF801BA84209D9202084F8410000BFC5
:1018E000002084F8400000BF0320C6E7206880691C
:1018F000C0F3401040B920688069C0F3001018B9E7
:1019000094F84100A028DFD120688069C0F300105E
:10191000A0B92B46002220212046009601F0A4FE0B
:1019200008B10320A9E720202168C86184F841009C
:1019300000BF002084F8400000BF9EE72B46002235
:1019400020212046009601F08FFE10B1032094E77D
:101950002AE010202168C86120202168C861019810
:10196000411C0191404512D12068406840F48040FC
:10197000216848602B46002220212046009601F075
:1019800073FE08B1032078E720202168C861019820
:10199000404585D3202084F8410000BF002084F812
:1019A000400000BF032068E7022066E72DE9F84306
:1019B0000446894616461F46DDF82080002594F827
:1019C000410020287AD100BF94F84000012802D1BC
:1019D0000220BDE8F883012084F8400000BFFFF733
:1019E00099FE054619230122D1032046009501F0F6
:1019F0003BFE08B10320ECE7222084F841001020D0
:101A000084F8420000206064666267856063608DD0
:101A1000FF280DD9FF2020854FF41050009094F836
:101A200028204FF080734946204601F005FE0CE067
:101A3000608D20854FF41050009094F828204FF0CE
:101A400000734946204601F0F7FD44E02A4641462E
:101A5000204601F035FE30B1606C042801D1012030
:101A6000B7E70320B5E72068406AC1B2626A501C3C
:101A700060621170208D401E2085608D401E608543
:101A8000208D40BB608D30B343460022802120462C
:101A9000009501F0E9FD08B103209AE7608DFF2869
:101AA0000DD9FF2020850020009094F828204FF0C9
:101AB00080734946204601F0BFFD0CE02FE0608DA9
:101AC00020850020009094F828204FF000734946AC
:101AD000204601F0B1FD608D0028B7D12A4641466D
:101AE000204601F035FE30B1606C042801D10120A0
:101AF0006FE703206DE720202168C86120684068F7
:101B00000849084021684860202084F841000020EE
:101B100084F8420000BF84F8400000BF59E702206B
:101B200057E7000000E800FE2DE9F8430446894627
:101B300016461F46DDF82080002594F84100202835
:101B400077D100BF94F84000012802D10220BDE8FF
:101B5000F883012084F8400000BFFFF7DBFD054655
:101B600019230122D1032046009501F07DFD08B123
:101B70000320ECE7212084F84100102084F8420083
:101B800000206064666267856063608DFF280CD901
:101B9000FF2020854FF40050009094F82820C302C5
:101BA0004946204601F048FD0BE0608D20854FF44A
:101BB0000050009094F8282003034946204601F085
:101BC0003BFD43E02A464146204601F0ECFD30B1A2
:101BD000606C042801D10120B9E70320B7E7616AEE
:101BE000481C6062087821688862608D401E6085AC
:101BF000208D401E2085208D40BB608D30B3434634
:101C0000002280212046009501F02EFD08B103201E
:101C10009DE7608DFF280DD9FF20208500200090D2
:101C200094F828204FF080734946204601F004FDC7
:101C30000CE02FE0608D20850020009094F8282093
:101C40004FF000734946204601F0F6FC608D0028F5
:101C5000B8D12A464146204601F07AFD30B1606C89
:101C6000042801D1012072E7032070E720202168B9
:101C7000C861206840680849084021684860202001
:101C800084F84100002084F8420000BF84F840003E
:101C900000BF5CE702205AE700E800FE7047000042
:101CA00010B52E480068401C2C4908602C4800687C
:101CB00020B12B480068401E29490860002444E0F8
:101CC000284850F8240000283DD0264850F8240029
:101CD0000078C0F34000B0B3224850F82400806878
:101CE00040B1204850F824008068401E1D4951F83A
:101CF000241088601B4850F82400806818BB194BDA
:101D000053F824301969174B53F8240053F8243042
:101D1000DA689047134850F824004168114850F899
:101D2000240081600F4850F82400007800F0010082
:101D300048B90C4850F82400007820F00201094806
:101D400050F824000170601CC4B20648001F0078DF
:101D5000A042B5DC02F057FC10BD000004000220D8
:101D600000000220AC03022010B50848006840F4CF
:101D7000007006490860032000F04EFA0F2000F0C2
:101D800007F800F0DFF9002010BD0000003C024021
:101D900070B50446074800684FF47A71B0FBF1F55E
:101DA000284601F095FB00222146501E00F0F5F96F
:101DB000002070BD9C03022070B504460E461546F7
:101DC00000BF94F8A000012801D1022070BD0120BD
:101DD00084F8A00000BF022084F8A10005EB850173
:101DE00001EBC50204F1380101EB820034223146D7
:101DF000FEF77CFA2A463146204601F0CBFF01204F
:101E00002168486284F8A10000BF002084F8A00087
:101E100000BF00BFDAE710B50446204600F027F9FE
:101E20000020C4F8A40084F8A10000BF84F8A0003A
:101E300000BF10BD704710B504462068806B00F0ED
:101E40000400F0B12068806B00F00400C8B1206885
:101E5000406B20F004002168486304202168C863B7
:101E6000D4F8A40040F00100C4F8A400042084F8D1
:101E7000A10000BF002084F8A00000BF2046FFF7AB
:101E8000D9FF2068806B00F00200F0B12068806B01
:101E900000F00200C8B12068406B20F00200216809
:101EA000486302202168C863D4F8A40040F002000F
:101EB000C4F8A400042084F8A10000BF002084F826
:101EC000A00000BF2046FFF7B5FF2068806B00F040
:101ED0000100B8B12068806B00F0010090B120686B
:101EE000406B20F001002168486301202168C8632D
:101EF00084F8A10000BF002084F8A00000BF2046A5
:101F000000F0B4F82068806B00F00800C0B12068D1
:101F1000806B00F0080098B12068406B20F008004A
:101F20002168486308202168C863012084F8A10063
:101F300000BF002084F8A00000BF204600F099F800
:101F400010BD000070B50446002500260CB9012024
:101F500070BD94F8A10028B9002084F8A0002046A4
:101F600000F086F8022084F8A1002068806920F043
:101F7000704021688861D4E901010843E1680843A1
:101F800021690843216889690843216888612068BC
:101F900080683549084021688860A08A0504206867
:101FA0008068A16929430843216888602068C06867
:101FB0002D4908402168C860A08B05042068C068CE
:101FC000216A294308432168C860206800692649BE
:101FD000084021680861A08C050420680069A16A96
:101FE0002943084321680861206840691E49084068
:101FF00021684861A08D050420684069216B294350
:1020000008432168486194F83500050294F83600C9
:1020100006042068C06A00F07F402168C86246EA72
:10202000050094F8341008432168C96A0843216800
:10203000C8622068406B40F0040021684863206853
:10204000406B40F00200216848632068806940F0DE
:102050000100216888610020C4F8A400012084F8F0
:10206000A100002074E7000000F800F070477047FE
:1020700070477047F0B503460C4600250026002146
:1020800000BF93F8A000012801D10220F0BD01207B
:1020900083F8A00000BF022083F8A10002EB8200B9
:1020A00000EBC20703F1380000EB8700016909B9B2
:1020B00004250EE0012901D103250AE0042905D0F9
:1020C000022903D0032901D0072901D1022500E00C
:1020D000012504FB05F0060418688430802707FBFF
:1020E0000200C06A154F38401F6884374FF0800CDB
:1020F0000CFB0277F8621248006840F00100104FB4
:10210000386018688430802707FB0200C06A3043BB
:102110001F6884370CFB0277F8620948006840F0BA
:102120000100074F3860012083F8A10000BF0020A4
:1021300083F8A00000BF00BFA8E70000FFFF00E099
:10214000246801407047000000BF00F01F02012119
:102150009140034A430942F8231000BF7047000032
:1021600080E200E000BF00F01F0201219140034A1D
:10217000430942F8231000BF7047000080E100E0EF
:1021800000BF00F01F02012191404209920002F1BC
:10219000E022C2F8001100BF70472DE9F05F8046D1
:1021A0000D461646002701F001FF074639462A462C
:1021B000334601F00700C0F1070ABAF1040F02D953
:1021C0004FF0040A01E0C0F1070AD14600F1040A09
:1021D000BAF1070F02D24FF0000A01E0A0F1030AA2
:1021E000D4464FF0010A0AFA09FAAAF1010A0AEAEA
:1021F000020A0AFA0CFA4FF0010B0BFA0CFBABF1D6
:10220000010B0BEA030B4AEA0B042146404601F09E
:10221000D5FEBDE8F09F000000BF00F00702064BAE
:1022200019684FF6FF031940044B0B4343EA0221A0
:10223000014B196000BF70470CED00E00000FA058B
:1022400038B5002400BF2048006840F080501E4987
:1022500008600846006800F08050009000BF00BF92
:102260001A48006840F4803018490860FFF752FAB5
:10227000044607E0FFF74EFA001BB0F57A7F01D95C
:10228000032038BD1148406800F48030B0F5803F2D
:10229000F0D10E48006840F400300C490860FFF7A8
:1022A00039FA044607E0FFF735FA001BB0F57A7FEC
:1022B00001D90320E5E70548406800F40030B0F597
:1022C000003FF0D10020DCE74038024000700040C1
:1022D0002DE9F8430446002600250027A846A94614
:1022E000207800F0010088B100BFFE48006820F4AB
:1022F0000000FC49086008460068616B0843F94922
:10230000086000BF606B08B94FF00108206800F456
:102310000020B0F5002F13D1F2488430006820F47B
:102320004010E16B0843EF4984310860E06BB0F581
:10233000801F01D14FF00108E06B08B94FF001098F
:10234000206800F48010B0F5801F13D1E548843078
:10235000006820F44000216C0843E24984310860A1
:10236000206CB0F5800F01D14FF00108206C08B946
:102370004FF00109206800F08070B0F1807F01D13A
:102380004FF00108207800F02000202870D100BF15
:10239000D4483830006840F08050D2493831086065
:1023A0000846006800F08050009000BF00BFCE4893
:1023B000006840F48070CC490860FFF7ABF906462E
:1023C00007E0FFF7A7F9801B642802D90320BDE8C6
:1023D000F883C548006800F480700028F1D0C14837
:1023E0006830006800F4407585B3208E00F44070BA
:1023F000A8422BD0BB486830006820F44075B9482B
:102400006830006840F48030B6496831086008469A
:10241000006820F48030086008460560006800F01D
:10242000010098B1FFF776F9064608E0FFF772F968
:10243000801B41F28831884201D90320C7E7A948AF
:1024400068300068C0F340000028EFD000BF208E45
:1024500000F44070B0F5407F0BD1A248006820F432
:10246000F810A24A216B114008439E49086006E01B
:1024700010E09C48006820F4F8109A4908609948D8
:1024800068300068218EC1F30B010843954968311B
:10249000086000BF207800F01000102810D100BFA5
:1024A00090488430006820F080708E498431086044
:1024B00008460068A16B08438A498431086000BF60
:1024C000208800F48040B0F5804F09D185488830DD
:1024D000006820F44030616E08438249883108600A
:1024E000208800F40040B0F5004F09D17D488830C5
:1024F000006820F44020A16E08437A4988310860C2
:10250000206800F48030B0F5803F09D175488830EC
:10251000006820F44010E16E084372498831086079
:10252000206800F40030B0F5003F09D16D488830D4
:10253000006820F44000216F08436A498831086030
:10254000207800F04000402809D1664888300068B3
:1025500020F00300616C08436249883108602078EC
:1025600000F08000802809D15E488830006820F0A3
:102570000C00A16C08435B4988310860208800F496
:102580008070B0F5807F09D156488830006820F00F
:102590003000E16C0843534988310860208800F41A
:1025A0000070B0F5007F09D14E488830006820F0F7
:1025B000C000216D08434B4988310860208800F431
:1025C0008060B0F5806F09D146488830006820F4FB
:1025D0004070616D0843434988310860208800F4E9
:1025E0000060B0F5006F09D13E488830006820F4E3
:1025F0004060A16D08433B4988310860208800F4A1
:102600008050B0F5805F09D136488830006820F4EA
:102610004050E16D0843334988310860208800F458
:102620000050B0F5005F09D12E488830006820F4D2
:102630004040216E08432B4988310860206800F42F
:102640008000B0F5800F09D126488830006820F05E
:102650008060A16F0843234988310860206800F436
:102660000010B0F5001F0FD11E488830006820F020
:102670000060E16F08431B4988310860E06FB0F1EA
:10268000006F01D14FF00109207800F00800082800
:1026900001D14FF00109206800F48020B0F5802FAF
:1026A00009D110488830006820F04070616F0843FD
:1026B0000C4988310860206800F40000B0F5000F74
:1026C0000AD108488830006820F08050D4F8801083
:1026D0000843044988310860206800F08060B0F148
:1026E000806F05E00838024000700040FFFCFF0FDB
:1026F00008D1FE48006820F00050D4F88410084348
:10270000FA490860206800F00060B0F1006F0AD15B
:10271000F648001F006820F00070D4F888100843C5
:10272000F249091F0860206800F08050B0F1805F16
:102730000AD1EE48001F006820F08060D4F88C10A9
:102740000843EA49091F0860B8F1010F03D0206867
:10275000B0F1007F7DD1E5489038006820F08060BE
:10276000E24990390860FEF7D5FF064606E0FEF71D
:10277000D1FF801B642801D9032028E6DB4890386C
:102780000068C0F3C0600028F1D1207800F001009B
:10279000F0B3606BE0BBD5480C38006800F4403003
:1027A0004FF4403191FAA1F1B1FA81F120FA01F52B
:1027B000CE480C38006800F070604FF0706191FAFC
:1027C000A1F1B1FA81F120FA01F747F6C07191FA4F
:1027D000A1F1B1FA81F1606888404FF4403191FA7B
:1027E000A1F1B1FA81F105FA01F108434FF07061EE
:1027F00091FAA1F1B1FA81F107FA01F108434FF022
:10280000E04292FAA2F2B2FA82F2A168914000E0AC
:1028100003E00843B5490C390860206800F4002043
:10282000B0F5002F03D1E06BB0F5801F09D0206810
:1028300000F48010B0F5801F50D1206CB0F5800FEF
:102840004CD1AA480C38006800F440304FF44031B5
:1028500000E0CFE091FAA1F1B1FA81F120FA01F59F
:10286000A2480C38006800F0E0404FF0E04191FAD7
:10287000A1F1B1FA81F120FA01F747F6C07191FA9E
:10288000A1F1B1FA81F1606888404FF4403191FACA
:10289000A1F1B1FA81F105FA01F108434FF070623C
:1028A00092FAA2F2B2FA82F2E168914008434FF044
:1028B000E04191FAA1F1B1FA81F107FA01F108437F
:1028C0008A490C3908608948001F006820F01F0001
:1028D000616A491E08438549091F0860206800F0A5
:1028E0008070B0F1807F3FD180480C38006800F0E4
:1028F00070604FF0706191FAA1F1B1FA81F120FAA4
:1029000001F57A480C38006800F0E0404FF0E041F3
:1029100091FAA1F1B1FA81F120FA01F747F6C071FD
:1029200091FAA1F1B1FA81F1606888404FF4403228
:1029300092FAA2F2B2FA82F22169914008434FF072
:10294000706191FAA1F1B1FA81F105FA01F1084340
:102950004FF0E04191FAA1F1B1FA81F107FA01F1EA
:10296000084362490C390860206800F00070B0F13B
:10297000007F25D147F6C07191FAA1F1B1FA81F13A
:10298000606888404FF4403292FAA2F2B2FA82F2C2
:102990002169914008434FF0706292FAA2F2B2FAB4
:1029A00082F2E168914008434FF0E04292FAA2F2CD
:1029B000B2FA82F2A168914008434C490C39086090
:1029C0004A489038006840F0806048499039086073
:1029D000FEF7A0FE064606E0FEF79CFE801B64287C
:1029E00001D90320F3E4414890380068C0F3C06087
:1029F0000028F1D0B9F1010F69D13C489038006846
:102A000020F08050394990390860FEF783FE064671
:102A100006E0FEF77FFE801B642801D90320D6E480
:102A2000324890380068C0F340700028F1D1206827
:102A300000F40020B0F5002F01D1E06B38B1206820
:102A400000F48010B0F5801F4FD1206CF0BB2748F8
:102A50000838006800F440304FF4403191FAA1F199
:102A6000B1FA81F120FA01F520480838006800F039
:102A7000E0404FF0E04191FAA1F1B1FA81F120FA82
:102A800001F747F6C07191FAA1F1B1FA81F16069DD
:102A900088404FF4403191FAA1F1B1FA81F105FA81
:102AA00001F108434FF0706292FAA2F2B2FA82F298
:102AB000A169914008434FF0E04191FAA1F1B1FAC8
:102AC00081F107FA01F10843084901E00DE0BBE09C
:102AD00008390860081D006820F4F851A06A401EFB
:102AE00041EA00200149091F086001E090380240D6
:102AF000206800F40010B0F5001F40D1E06FB0F185
:102B0000006F3CD15148006800F070604FF0706178
:102B100091FAA1F1B1FA81F120FA01F54B48006870
:102B200000F0E0404FF0E04191FAA1F1B1FA81F1FB
:102B300020FA01F747F6C07191FAA1F1B1FA81F1DB
:102B4000606988404FF4403292FAA2F2B2FA82F2FF
:102B5000216A914008434FF0706191FAA1F1B1FAF6
:102B600081F105FA01F108434FF0E04191FAA1F13A
:102B7000B1FA81F107FA01F108433449086020787D
:102B800000F00800082845D13048006800F0706067
:102B90004FF0706191FAA1F1B1FA81F120FA01F5DB
:102BA0002A48006800F440304FF4403191FAA1F116
:102BB000B1FA81F120FA01F747F6C07191FAA1F15B
:102BC000B1FA81F1606988404FF4403191FAA1F186
:102BD000B1FA81F107FA01F108434FF0706191FAFF
:102BE000A1F1B1FA81F105FA01F108434FF0E04299
:102BF00092FAA2F2B2FA82F2E169914008431349D3
:102C00000860081D006820F44030E16A08430F495D
:102C1000091D08600D488838006840F080500B4955
:102C200088390860FEF776FD064606E0FEF772FD7D
:102C3000801B642801D903209FE504488838006878
:102C4000C0F340700028F1D0002096E5883802409B
:102C500070B504460D4600266648006800F00F0077
:102C6000A8420ED26348006820F00F002843614953
:102C700008600846006800F00F00A84201D001205B
:102C800070BD207800F00200022807D15A48006881
:102C900020F0F000A168084357490860207800F050
:102CA0000100002860D06068012807D15248083828
:102CB0000068C0F34040A0B90120E1E76068022845
:102CC00007D14D4808380068C0F3406048B901207A
:102CD000D6E7494808380068C0F3400008B9012029
:102CE000CEE74548006820F0030061680843424988
:102CF0000860FEF70FFD06466068012810D108E065
:102D0000FEF708FD801B41F28831884201D903207B
:102D1000B6E73948006800F00C000428F0D123E041
:102D20006068022810D108E0FEF7F4FC801B41F235
:102D30008831884201D90320A2E72F48006800F0BB
:102D40000C000828F0D10FE008E0FEF7E3FC801B40
:102D500041F28831884201D9032091E72648006872
:102D600000F00C000028F0D12248006800F00F00AD
:102D7000A8420ED91F48006820F00F0028431D49C3
:102D800008600846006800F00F00A84201D001204A
:102D900076E7207800F00400042807D11648006880
:102DA00020F4E050E168084313490860207800F0FF
:102DB0000800082808D11048006820F46040216904
:102DC00040EAC1000C49086000F05AF80A49096855
:102DD00001F0F001F02292FAA2F2B2FA82F2D140AE
:102DE000064A515CC840064908600F20FEF7D0FF34
:102DF000002045E7003C024008380240985E010888
:102E00009C03022001480068704700009C030220D8
:102E10000CB50AA103C9CDE90001FFF7F3FF094989
:102E2000096801F4E0514FF4E05292FAA2F2B2FACA
:102E300082F2D1401DF80110C8400CBD0000000016
:102E400001020304083802400CB50AA103C9CDE908
:102E50000001FFF7D7FF0949096801F460414FF409
:102E6000604292FAA2F2B2FA82F2D1401DF8011049
:102E7000C8400CBD000000000102030408380240F5
:102E800070B50021002200230020274C246804F0A4
:102E90000C0424B1042C04D0082C41D103E02348B5
:102EA00040E023483EE0204C241F246804F03F010A
:102EB0001D4C241F246804F4800484B11C4CB4FB12
:102EC000F1F5194C241F246847F6C076344096FA71
:102ED000A6F6B6FA86F6F44005FB04F20FE0134CB2
:102EE000B4FBF1F5104C241F246847F6C07634403B
:102EF00096FAA6F6B6FA86F6F44005FB04F20A4CFA
:102F0000241F246804F440344FF4403595FAA5F5A5
:102F1000B5FA85F5EC40641C6300B2FBF3F001E008
:102F2000024800BF00BF70BD083802400024F40012
:102F300040787D01F8B5044600250026207800F091
:102F40000100002871D0FD48006800F00C00042842
:102F50000DD0FA48006800F00C00082813D1F7489B
:102F6000001F006800F48000B0F5800F0BD1F3481B
:102F700008380068C0F34040002869D06068002825
:102F800066D10120F8BD00BF6068B0F5803F08D170
:102F9000EA480838006840F48030E8490839086099
:102FA0002EE0606868B9E5480838006820F4803091
:102FB000E249083908600846006820F4802008606B
:102FC0001EE06068B0F5A02F0DD1DC48083800681D
:102FD00040F48020D949083908600846006840F468
:102FE000803008600CE0D5480838006820F4803054
:102FF000D249083908600846006820F4802008603B
:1030000000BF606890B1FEF785FB054606E0FEF75D
:1030100081FB401B642801D90320B3E7C748083867
:103020000068C0F340400028F1D011E0FEF772FBC9
:10303000054606E0FEF76EFB401B642801D903201D
:10304000A0E7BE4808380068C0F340400028F1D12E
:10305000207800F00200022873D1B848006800F020
:103060000C0058B1B548006800F00C00082821D1C8
:10307000B248001F006800F48000D8B9AF48083893
:103080000068C0F3400020B1E068012801D00120B1
:1030900078E7AA480838006820F0F800F82292FA89
:1030A000A2F2B2FA82F2216991400843A349083999
:1030B000086046E0E06850B3A0480838006840F077
:1030C00001009E4908390860FEF724FB054606E02A
:1030D000FEF720FB401B022801D9032052E7974846
:1030E00008380068C0F340000028F1D09348083841
:1030F000006820F0F800F82292FAA2F2B2FA82F206
:103100002169914008438D490839086019E08B48CE
:103110000838006820F00100884908390860FEF787
:10312000F9FA054606E0FEF7F5FA401B022801D938
:10313000032027E7814808380068C0F340000028D2
:10314000F1D1207800F00800082836D16069D0B1AC
:103150007A486C30006840F0010078496C310860B2
:10316000FEF7D8FA054606E0FEF7D4FA401B02281F
:1031700001D9032006E771486C300068C0F34000B5
:103180000028F1D019E06D486C30006820F0010093
:103190006A496C310860FEF7BDFA054606E0FEF7A5
:1031A000B9FA401B022801D90320EBE663486C30D2
:1031B0000068C0F340000028F1D1207800F004003E
:1031C000042874D15D483830006800F0805080B920
:1031D00000BF5A483830006840F0805057493831B5
:1031E00008600846006800F08050009000BF00BFF3
:1031F00001265348006800F48070B0B95048006858
:1032000040F480704E490860FEF784FA054606E0F7
:10321000FEF780FA401B642801D90320B2E6484833
:10322000006800F480700028F2D000BFA068012878
:1032300008D142486830006840F001003F496831D9
:1032400008602DE0A06868B93C486830006820F04C
:1032500001003A49683108600846006820F004001F
:1032600008601DE0A06805280DD13448683000686A
:1032700040F004003149683108600846006840F0B9
:10328000010008600CE02D486830006820F0010063
:103290002A49683108600846006820F00400086088
:1032A00000BFA068A8B1FEF735FA054609E02EE098
:1032B000FEF730FA401B41F28831884201D90320E1
:1032C00060E61E4868300068C0F340000028EFD078
:1032D00013E0FEF71FFA054608E0FEF71BFA401B55
:1032E00041F28831884201D903204BE61348683007
:1032F0000068C0F340000028EFD1012E07D10F482D
:103300003830006820F080500C4938310860A069DE
:10331000F0B30A48006800F00C0008287FD0A069CC
:10332000022863D105480838006820F080700349FE
:1033300008390860FEF7EEF905460AE00838024051
:1033400000700040FEF7E6F9401B022801D9032077
:1033500018E635480068C0F340600028F2D1D4E98F
:103360000701084347F6C07292FAA2F2B2FA82F25B
:10337000616A914008430122A16AC2EB51014FF4F6
:10338000403292FAA2F2B2FA82F29140084300E08F
:1033900047E04FF0706292FAA2F2B2FA82F2E16A6A
:1033A000914008434FF0E04292FAA2F2B2FA82F260
:1033B000216B914008431C49091D0860081F0068E3
:1033C00040F08070091F0860FEF7A4F9054606E08A
:1033D000FEF7A0F9401B022801D90320D2E51248CC
:1033E0000068C0F340600028F2D01AE00E48006880
:1033F00020F080700C490860FEF78CF9054607E064
:103400000DE0FEF787F9401B022801D90320B9E53A
:1034100005480068C0F340600028F2D101E00120B7
:10342000B0E50020AEE500000038024070B504466B
:103430000D460CB9012070BD94F82C0028B900206D
:1034400084F82D00204600F011F8022084F82C00AA
:10345000211D2068FDF75CFA2946D4E90002FDF73A
:10346000C1FA012084F82C000020E4E7704770B511
:1034700004460D4694F82C00022800D170BD0220AD
:1034800084F82C0029462068FDF77CFA012084F896
:103490002C000020F2E770B504460D46164694F85D
:1034A0002C00022800D170BD022084F82C00324686
:1034B00029462068FDF76DFA2868022803D1052007
:1034C00084F82C0002E0012084F82C000020EAE7B8
:1034D00070B504462546681EB0F1807F01D30120F7
:1034E0000FE0681E4FF0E02148610F214FF0FF30E0
:1034F00000F064FD00204FF0E021886107200861A2
:10350000002070BD10B504460CB9012010BDA069A3
:1035100000B100E000BF94F8690028B9002084F8E9
:103520006800204600F02AF8242084F8690020680A
:10353000006820F0010021680860204602F06AFC63
:10354000012800D1E2E7606A10B1204602F0C6FB14
:103550002068406820F490402168486020688068B6
:1035600020F02A00216888602068006840F001008F
:1035700021680860204602F026FCC7E7704700BFBC
:10358000FEE701688969C1F3400111B100210268B9
:1035900091620168896901F0010129B901688969AD
:1035A00041F00101026891617047000070B5044666
:1035B0000D46164620688069C0F30010002837D0F9
:1035C00013E0681C88B125B1FEF7A4F8801BA8425F
:1035D0000BD9202084F84100002084F8420000BF6D
:1035E00084F8400000BF032070BD20688069C0F3EC
:1035F00040100028E5D010202168C86120202168F3
:10360000C8612046FFF7BDFF2068406809490840AF
:103610002168486004206064202084F84100002074
:1036200084F8420000BF84F8400000BF0120DBE7BF
:103630000020D9E700E800FEF0B50C46059D00210A
:1036400006687168074E3140C4F309064FF47F07DE
:1036500007EA02473E431E432E433143066871602A
:10366000F0BD0000009800FC2DE9F04104460E4634
:1036700017461D46DDF8188015E0681C98B12DB17D
:10368000FEF748F8A0EB0800A8420CD9202084F8E7
:103690004100002084F8420000BF84F8400000BFD1
:1036A0000320BDE8F081206880693040B04201D13C
:1036B000012000E00020B842DFD00020F1E7000048
:1036C00070B504460D46164637E032462946204678
:1036D000FFF76CFF08B1012070BD20688069C0F35E
:1036E0004010B0B120202168C861206840681749A7
:1036F00008402168486000206064202084F8410070
:10370000002084F8420000BF84F8400000BF012080
:10371000E2E725B1FDF7FEFF801BA8420DD9606CE2
:1037200040F020006064202084F8410000BF0020A9
:1037300084F8400000BF0320CEE720688069C0F312
:1037400080000028C1D00020C6E7000000E800FE8D
:1037500070B504460D4616461DE032462946204601
:10376000FFF724FF08B1012070BD25B1FDF7D2FF9E
:10377000801BA8420FD9606C40F0200060642020BC
:1037800084F84100002084F8420000BF84F8400023
:1037900000BF0320E8E720688069C0F340100028DC
:1037A000DBD00020E0E770B504460D4616461FE06A
:1037B000324629462046FFF7F9FE08B1012070BDC8
:1037C000681CA8B125B1FDF7A5FF801BA8420FD941
:1037D000606C40F020006064202084F841000020EC
:1037E00084F8420000BF84F8400000BF0320E6E7F1
:1037F00020688069C0F340000028D9D00020DEE7AF
:103800002DE9F05F0E4614461F46DDE90CABDDE9FD
:103810000A893046FDF73CF90546B8F1000F02D0A1
:10382000B9F1000F01D1BDE8F09F00BF1248006858
:1038300000F001000028F9D10F48C7604461C4635B
:10384000C0F810B0C0F818A0C0F840A0C56145622B
:103850004563484668F31F400749486400BF00209D
:1038600008600846006808600846006840F00100EB
:10387000086000BF00BFD6E700B002402DE9F05F4E
:103880000E4614461F46DDE90BABDDF82890DDF847
:1038900038803046FDF7FCF8054600BF1A4800683E
:1038A00000F001000028F9D11748C7604461C463E3
:1038B00015490F9808610846C0F81880C0F8408084
:1038C000C56145624563C0694FF4803141EA0961D1
:1038D00008430D49C8610846406A40EA0A604862E8
:1038E0000D986BF31F40486400BF4FF40030086030
:1038F0000846006808600846006840F0010008605B
:1039000000BFBDE8F09F000000B002402DE9F05F6D
:103910000D4614461E460AAF97E8800B2846FDF771
:10392000B7F8824617B1B8F1000F01D1BDE8F09F9A
:1039300000BF1748006800F001000028F9D11448C2
:10394000C6604461C463C0F810B0C0F81890C0F8F5
:1039500040900E9820F07F400D4908620920C86110
:103960000846C0F824A0C0F834A0404667F31F40C2
:10397000486400BF4FF400300860084600680860E3
:103980000846006840F00100086000BF00BFCDE7B6
:1039900000B002402DE9FE4F05460C4616461F4674
:1039A000DDE90C8A2979B4F9122002FB076260680C
:1039B00001FB0209608AA0EB080000B20121434626
:1039C0004A46CDE9010A00912146284600F0E2F876
:1039D000BDE8FE8F2DE9F05F0D461C460BAE96E864
:1039E000C009DDF828A02846FDF752F8814606B147
:1039F0000FB9BDE8F09F00BF1748006800F0010054
:103A00000028F9D11448C0F80CA04461C463C0F880
:103A100010B0C0F81880C0F8408002200E49C8617C
:103A20000846C0F82490C0F83490C06940F40010F3
:103A3000C861384666F31F40486400BF4FF4003049
:103A400008600846006808600846006840F0010009
:103A5000086000BF00BFCCE700B002402DE9F05F76
:103A60000D461C46DDE90D6BDDE90B9ADDF828807B
:103A70002846FDF70DF8074600BF1648006800F01D
:103A800001000028F9D11348C0F80C804461C463D8
:103A9000C0F810B08661066401200E49C86108466E
:103AA00047624763C06940F40010C861504669F33B
:103AB0001F40486400BF4FF40030086008460068AB
:103AC00008600846006840F00100086000BFBDE8DB
:103AD000F09F000000B002402DE9F05F0D461C464B
:103AE000DDE90D6BDDE90B9ADDF828802846FCF74F
:103AF000CFFF074600BF1648006800F0010000280D
:103B0000F9D11348C0F80C804461C463C0F810B008
:103B10008661066400200E49C86108464762476313
:103B2000C06940F44010C861504669F31F404864C2
:103B300000BF4FF40030086008460068086008467F
:103B4000006840F00100086000BFBDE8F09F000081
:103B500000B002402DE9FE4F05460C4616461F46B2
:103B6000DDE90C8A2979B4F9122002FB076260684A
:103B700001FB0209608A401E00B201234A46214629
:103B8000CDE9010ACDF80080284600F003F8BDE831
:103B9000FE8F00002DE9F04782460D4616461C4672
:103BA000DDE90989089F04B10FB9BDE8F08700BFBE
:103BB0001148006800F001000028F9D10E48C0F853
:103BC0003890C663C0F840802846FCF761FF0A4978
:103BD0004863384664F31F40486400BF4FF44030E8
:103BE00008600846006808600846006840F0010068
:103BF000086000BF00BFD8E700B002402DE9FE4FCB
:103C000005460C4616461F46DDE90D9ADDF8308064
:103C10002979B4F9122002FB0762606801FB020BEC
:103C2000608AA0EB080000B243465A462146CDE91F
:103C3000010ACDF800902846FFF7ACFFBDE8FE8FE3
:103C400030B5044604480079B1F9125005FB03254C
:103C500068434D68285830BD0C88022010B50446D2
:103C600001F0C2FA02480349086002F02FFB10BDC0
:103C700000B002409C89022030B58DB004460D464C
:103C8000002000904FF4C8700190002002904FF483
:103C9000F0700390002004900995FF20059000200B
:103CA00006908DF8300000218DF831108DF832101B
:103CB0004FF4C0600790072008904FF4C8700A9036
:103CC0004FF4F0700B90224669460248FEF774F8F4
:103CD0000DB030BD7086022001460348006800F038
:103CE000010080F00100704700B002402DE9FC4166
:103CF00004460D4616461F46DDF8208001203B464F
:103D000032462946CDE900082046FFF743FEBDE8CC
:103D1000FC81000010B50248FEF78DF810BD0000D0
:103D20007086022010B50248FEF785F810BD00002D
:103D30007086022010B51548154908600846FEF740
:103D40006AF801211248416181610221C161016269
:103D50004FF4F17181624FF4C971416240F2E31195
:103D6000016340F29311C162002180F8341080F8A1
:103D7000351080F8361000200549486000210448BD
:103D80008160C1600161FEF7DDF810BD006801408F
:103D900070860220F0B50023002400258E88076875
:103DA000FF68C7F30B473E44330406688436802718
:103DB00007FB0266766806F47047066884364FF0A3
:103DC000800C0CFB026677600E680768FF68C7F31B
:103DD0000B473E44761C1E43076884370CFB027772
:103DE0007E608E890768FF68C7F30A073E44330484
:103DF00006688436802707FB0266B66806F47047BB
:103E0000066884360CFB0266B7608E680768FF6838
:103E1000C7F30A073E44761C1E43076884370CFB31
:103E20000277BE6006688436802707FB0266366923
:103E300026F00707066884360CFB026637610F69B7
:103E4000066884360CFB026637613126765C3302E5
:103E50003226765C34040E7E35060668843680276A
:103E600007FB0266B6690027066884360CFB02660B
:103E7000B76191F830601E4326432E4307688437AC
:103E80000CFB0277BE6106688436802707FB02665A
:103E9000766926F0FF07066884360CFB02667761B8
:103EA0004F69066884360CFB0266776106688436C3
:103EB000802707FB0266F76940F20776B74306687A
:103EC00084360CFB0266F761D1E907673E43076859
:103ED00084370CFB0277FE6106688436802707FB77
:103EE0000266B66A0027066884360CFB0266B76273
:103EF0004F6A066884360CFB0266B7620E690EB91B
:103F0000042313E00E69012E01D103230EE00E6994
:103F1000042E08D00E69022E05D00E69032E02D0A1
:103F20000E69072E01D1022300E0012306688436C2
:103F3000802707FB0266F66A06F0E02706688436EB
:103F40004FF0800C0CFB0266F762D1E90076F61B9D
:103F50005E43F71C0E8D5E4347EA064706688436CB
:103F60000CFB0266F76206688436802707FB026650
:103F7000366BF70AFF02066884360CFB026637636D
:103F8000CF6A066884360CFB02663763066884369F
:103F9000D701F65946F00107066884364FEAC21C7D
:103FA00046F80C70F0BD00BFFEE77047024800689D
:103FB000C0F30220704700000CED00E010B50028AF
:103FC00007DA0A07140E054A00F00F031B1FD4542A
:103FD00003E00A07130E024A135410BD18ED00E067
:103FE00000E400E070B505460C46D6490020FCF719
:103FF00089FBD5490320FCF785FBD4490020FCF759
:1040000081FBD3490220FCF77DFBD0490020FCF75F
:1040100079FBD0490020FCF775FB0A20FDF74DFA2B
:10402000CD490020FCF76EFBCC490020FCF76AFB71
:104030000A20FDF742FACA490020FCF763FBC94990
:104040000020FCF75FFBC8490020FCF75BFBC74979
:104050000020FCF757FBC6490020FCF753FBC5497D
:104060000020FCF74FFBB7490020FCF74BFBC2498F
:104070000020FCF747FBC1490020FCF743FBC04987
:104080000020FCF73FFBBF490020FCF73BFBBE498B
:104090000020FCF737FBBD490020FCF733FBBC498F
:1040A0000020FCF72FFBBB490020FCF72BFBAF499E
:1040B0000020FCF727FBA3490020FCF723FBB649AF
:1040C0000220FCF71FFBB5490020FCF71BFBB4499D
:1040D0000020FCF717FBB3490020FCF713FBB249A3
:1040E0000020FCF70FFBB1490020FCF70BFBB049A7
:1040F0000020FCF707FBA1490020FCF703FBAD49BA
:104100000020FCF7FFFA9F490020FCF7FBFAAA49C0
:104110000020FCF7F7FAA9490020FCF7F3FAA849B8
:104120000220FCF7EFFA89490020FCF7EBFAA549D9
:104130000620FCF7E7FAA4490020FCF7E3FAA349BC
:104140000E20FCF7DFFAA2490020FCF7DBFAA149B8
:104150000E20FCF7D7FAA0490020FCF7D3FA9F49BC
:104160000A20FCF7CFFA9E490020FCF7CBFA9D49C4
:104170000020FCF7C7FA75490020FCF7C3FA9A49FA
:104180000A20FCF7BFFA99490020FCF7BBFA9849CE
:104190000F20FCF7B7FA8C490020FCF7B3FA9549D9
:1041A0000F20FCF7AFFA8A490020FCF7ABFA9249DE
:1041B0000A20FCF7A7FA88490020FCF7A3FA8F49E8
:1041C0000F20FCF79FFA86490020FCF79BFA8C49E8
:1041D0000F20FCF797FA8B490020FCF793FA8A49E5
:1041E0000A20FCF78FFA89490020FCF78BFA8849EE
:1041F0000A20FCF787FA55490020FCF783FA854925
:104200000A20FCF77FFA79490020FCF77BFA824903
:104210000F20FCF777FA6C490020FCF773FA7F490E
:104220000F20FCF76FFA6A490020FCF76BFA7C4913
:104230000A20FCF767FA68490020FCF763FA79491D
:104240000F20FCF75FFA66490020FCF75BFA76491D
:104250000F20FCF757FA49490020FCF753FA73493D
:104260000020FCF74FFA72490020FCF74BFA714925
:104270000020FCF747FA70490020FCF743FA6F4929
:104280000020FCF73FFA2F490020FCF73BFA6C496D
:104290000320FCF737FA2B490020FCF733FA2949B1
:1042A0000020FCF72FFA67491020FCF72BFA25496C
:1042B0000020FCF727FA64491020FCF723FA634931
:1042C0000020FCF71FFA7820FDF7F7F835B1022D32
:1042D00009D15F490020FCF715FA05E05D4900208F
:1042E000FCF710FA00E000BF00BF012C0BD15A49C7
:1042F0000020FCF707FA59490420FCF703FA584953
:104300000420FCF7FFF957490020FCF7FBF9564958
:104310000020FCF7F7F955490020FCF7F3F9544960
:104320000020FCF7EFF953490020FCF7EBF90549B1
:104330000020FCF7E7F950490020FCF7E3F90020E2
:1043400070BD00007B4301084C4201087D43010819
:10435000504201087F43010881430108834301085B
:104360008543010887430108894301088B430108FD
:104370008D4301088F4301089143010893430108CD
:104380009543010897430108994301089B4301089D
:104390009D4301089F43010875420108A14301089C
:1043A000A3430108A5430108A7430108A943010845
:1043B000AB430108AD430108AF430108B143010815
:1043C000784201087B420108B34301088242010898
:1043D000B543010891420108B7430108A042010812
:1043E000B9430108D5430108AB420108BB430108AA
:1043F000B6420108C6420108D6420108E14201085E
:10440000F1420108BD43010801430108BF4301080F
:104410000C430108174301082243010832430108F5
:10442000424301084D4301085D430108D743010899
:10443000D9430108DB430108DD430108DF430108DC
:104440006D4301085342010864420108C143010859
:10445000C3430108C5430108C7430108714301086C
:1044600076430108C9430108CB430108CD43010845
:10447000CF430108D1430108D343010810B50023FD
:10448000234C236000BF00BF00BFBFF34F8F00BFAE
:1044900000BF00BF231F1868C0F34E3100BFC0F338
:1044A000C90200BF43F6E07303EA41134FF04044F2
:1044B00004EA82742343174C236000BF00BF131E1D
:1044C000A2F10102EED10B1EA1F10101E7D100BF63
:1044D00000BF00BFBFF34F8F00BF00BF00BF0C4B3A
:1044E000703B1B6843F48033094C703C236000BF71
:1044F00000BF00BFBFF34F8F00BF00BF00BF00BFB2
:1045000000BF00BFBFF36F8F00BF00BF00BF10BD73
:1045100084ED00E060EF00E010B50FF0D3FC04493B
:104520000968884203D10FF0E9FC0249086010BD18
:104530002C0202203402022010B5FDF7B1FB10BDA1
:104540001448006840F4700012490860124800687E
:1045500040F001001049086000200F490831086050
:104560000D4800680D4908400B4908600C48091DBA
:104570000860081F006820F48020091F08600020E0
:1045800005490C3108604FF000600249803908602D
:104590007047000088ED00E000380240FFFFF6FEA3
:1045A0001030002470B5034600240BB9002070BD04
:1045B00058881D88A84201DB002058801BE05D88D8
:1045C0009888401E854206D0988828B95D8818884A
:1045D000401E854200D113E011F8015B5E88701C1B
:1045E000588098688555601CC4B258881D88A842B8
:1045F00001DB00205880101EA2F10105AAB2DED115
:1046000000BF2046D3E710B50DF0CCF810BD000078
:104610000F48006820F080700D4A10601046006856
:1046200040F0807010600B48006820F00100094ADB
:1046300010601046006840F00100106000205060DB
:104640001046416800BF00BF02484068401A7047EA
:10465000FCED00E0001000E01CB500200221034644
:104660000246CDE900100121014800F0A1FA1CBD6D
:10467000000002400948006900F0010080F00100DC
:1046800030B90748007830B90120054908707047F3
:104690000020034908700020F9E7000000000240F4
:1046A000080002201CB5032000210B460122CDE9A1
:1046B000001042F22001044800F07AFA034802494F
:1046C000183108601CBD00000024024000002020BA
:1046D00030B502460B460E4CA24207D20D490D4C96
:1046E0000834141B1825B4FBF5F006E00849083916
:1046F000074C141B1825B4FBF5F0042801D3091D41
:10470000001F03F03D04044D2D5CAC400C6030BD37
:10471000106402400860024024420108704770475C
:1047200070B502460C460021002300200E4DAA421F
:1047300007D20E4B0D4D1035551B1826B5FBF6F163
:1047400006E0094B103B084D551B1826B5FBF6F14A
:10475000042901D31B1D091F1868054D6D5CE84035
:1047600000F03D0070BD0000106402400060024097
:1047700024420108704770B504463D212046FFF7EA
:10478000CFFF85B23D212046FFF7A2FF05F02000B4
:1047900030B1206800F0100010B1204600F029F878
:1047A00005F0100030B1206800F0080010B120467C
:1047B000FFF7E0FF05F0080030B1206800F00400CA
:1047C00010B1204600F016F805F0040030B1206862
:1047D00000F0020010B12046FFF7A0FF05F0010035
:1047E00030B1606900F0800010B12046FFF797FFFC
:1047F00070BD7047704700002DE9FC5F83460C4692
:10480000174614B1601E2040E0B14FF0000914E0DB
:10481000012000FA09F0204058B1012000FA09F007
:1048200081B23A465846FFF7E7FF10B10120BDE8D4
:10483000FC9F09F1010000F0FF09B9F1100FE7DB5F
:104840000020F4E768480068204020B96648001D51
:104850000068204008B10120E9E7B4F5807F38D036
:1048600012DC102C30D008DC012C25D0022C25D0F5
:10487000042C25D0082C36D124E0202C26D0402C26
:1048800025D0802C2FD123E0B4F5805F26D009DC21
:10489000B4F5007F1ED0B4F5806F1DD0B4F5006F65
:1048A00021D11AE0B4F5005F19D0B4F5804F17D0CC
:1048B000B4F5004F17D114E0062616E0072614E0E1
:1048C000082612E0092610E00A260EE000BF00BF0D
:1048D00000BF00BF172608E000BF00BF00BF00BF39
:1048E00000BF282601E00120A1E700BF012F01D170
:1048F000B84605E017B94FF0020801E04FF0000894
:104900000020034602462146CDE90080584600F0CB
:104910004FF9204600F0D4F8C5B2584600F0D9F857
:1049200000F0FF0A3148006840F480402F490860D9
:104930002F48A91050F82100A9070A0F0F21914014
:1049400088432B49AA1041F822000846A91050F8C4
:104950002100A907090F0AFA01F108432449AA1006
:1049600041F8220020480068A0431F490860081D44
:104970000068A043091D0860081F00682043091F44
:10498000086019480C300068A04317490C310860D2
:10499000081F0068A043091F0860012F05D1081DEA
:1049A00000682043091D086014E03FB90E48083034
:1049B000006820430C49083108600BE00A480C30BD
:1049C0000068204308490C310860081F0068204334
:1049D000091F08602A4603213046FDF7DEFB3046FA
:1049E000FDF7CEFB002022E7003C014044380240A6
:1049F0000838014010B50446B4F5005F02D10DF04F
:104A0000ABFC00E000BF10BD10B51648008838B9F7
:104A1000022000F02FF81449B0FBF1F01149088092
:104A20001248006820F0807010490860084600684D
:104A300040F0807008600E48006820F001000C49CA
:104A400008600846006840F00100086000204860E7
:104A50000846446800BF00BF05484068001BC0B25C
:104A600010BD00000A00022040420F00FCED00E0F3
:104A7000001000E070B504460025062C18D2DFE8CF
:104A800004F00305130B0F070B4D12E00B4D10E064
:104A9000FEF7B8F905460CE0FEF7BAF9054608E05E
:104AA000FEF7D2F9054604E0FEF7EAF9054600E014
:104AB00000BF00BF284670BD0024F40040787D018F
:104AC0000146002002E0421C90B249100129FADCA4
:104AD000704701464FF40030081AC0F38F2070472A
:104AE00000B502461046FFF7F4FF012101FA00F07D
:104AF0000249096808430149086000BD3038024096
:104B00002DE9F04304460E461546DDE907892046A7
:104B1000FFF7DFFFC7B2002243E0012090403040A2
:104B200000B93CE0214830F81700012191400843CA
:104B30001E4921F81700E0684FEA420C032101FAF0
:104B40000CF18843510008FA01F10843E060206845
:104B50004FEA420C032101FA0CF18843510005FA97
:104B600001F108432060012D01D0022D16D16168AA
:104B70000120904080B221EA000003FA02F189B2DC
:104B800008436060A0684FEA420C032101FA0CF16F
:104B90008843510009FA01F10843A06000BF501C8E
:104BA000C2B2102AB9DBBDE8F0830000C0030220C6
:104BB0002DE9FC4305460C4616461F46DDE90989EA
:104BC0000CB9BDE8FC832846FFF78AFF3B46324616
:104BD00021462846CDE90089FFF792FF00BFF0E7A4
:104BE0002DE9FC4705460E4617469846DDE90A9A28
:104BF0000EB9BDE8FC872846FFF772FF00241AE0D3
:104C00000120A040304000B914E0E10805F1200087
:104C100050F821006107CA0E0F21914088436107B7
:104C2000C90E0AFA01F10843E20805F1200141F832
:104C3000220000BF641C102CE2D33B460222314606
:104C40002846CDE90089FFF75BFF00BFD1E70000F0
:104C50001CB504464CB9042001210B460A46CDE997
:104C60000010C0211148FFF7BBFF012C0AD104201E
:104C700001210B460A46CDE900104FF440710B4864
:104C8000FFF7AEFF022C0AD1042001210B460A4691
:104C9000CDE900104FF410710448FFF7A1FF052C77
:104CA00003D10421024800F087F91CBD0004024032
:104CB000005400401CB5044654B9042001210B46A1
:104CC0000A46CDE900104FF440611148FFF788FF14
:104CD000012C09D1042001210B460A46CDE9001020
:104CE00003210C48FFF77CFF022C09D1042001218D
:104CF0000B460A46CDE9001030210748FFF770FF48
:104D0000052C03D10421054800F056F91CBD000014
:104D10000004024000140240001C02400058004001
:104D20001CB504469CB9042001210B460A46CDE976
:104D3000001081011048FFF753FF042001210B46AA
:104D40000A46CDE90010C1010C48FFF749FF012CCC
:104D50000AD1042001210B460A46CDE900104FF488
:104D6000C0710748FFF73CFF052C03D1042105481B
:104D700000F022F91CBD00000000024000080240C3
:104D8000001C0240005C00401CB5044654B90420DD
:104D900001210B460A46CDE900104FF4405122484C
:104DA000FFF71EFF012C09D1042001210B460A4602
:104DB000CDE9001003211D48FFF712FF022C0AD194
:104DC000042001210B460A46CDE900104FF4404172
:104DD0001648FFF705FF032C09D1042001210B46DB
:104DE0000A46CDE90010E1021148FFF7F9FE042C54
:104DF00013D10B2001210B460A46CDE9001080217A
:104E00000C48FFF7EDFE042001210B460A46CDE9D0
:104E1000001081020448FFF7E3FE052C03D10421B2
:104E2000054800F0C9F81CBD000C02400014024007
:104E3000001C024000040240005C004010B50A461D
:104E40000D4B9A4201D30D490AE00D4B9A4201D312
:104E50000A4905E00B4B9A4201D3084900E0074993
:104E60000024446184600124C46000240461C4619E
:104E70000462416010BD000040E1330032279140E0
:104E800040420F00801A060001460B48814201D1C2
:104E90000A4870470A48814201D10A48F9E70A489E
:104EA000814201D10948F4E70948814201D109480A
:104EB000EFE70020EDE70000005400401000022062
:104EC000005800405C000220005C0040A800022066
:104ED00000600040F4000220F8B504460D46164676
:104EE0002046FFF7D1FF07463C602E48844210D190
:104EF00000BF2D48006840F400102B4908600846A8
:104F0000006800F40010009000BF00BF2846FFF7C3
:104F10009FFE2648844210D100BF2348006840F419
:104F20008000214908600846006800F48000009075
:104F300000BF00BF2846FFF7BDFE1D48844210D1C8
:104F400000BF1948006840F400001749086008468F
:104F5000006800F40000009000BF00BF2846FFF783
:104F6000DFFE1448844210D100BF0F48006840F0B3
:104F700080700D4908600846006800F0807000905D
:104F800000BF00BF2846FFF7FFFE31463846FFF757
:104F900055FF3846FCF7FCFB00213846FCF7C0FB08
:104FA0000020F8BD00540040403802400058004046
:104FB000005C004000600040704770B504460D463C
:104FC0002046FFF761FF06460523022229463046A8
:104FD000FCF740FC08B1012070BD0020FCE7FFB5E4
:104FE00081B005460E461C462846FFF74DFF074692
:104FF0004FF47A70012303AA314600903846FCF73B
:1050000093FD28B13846FCF7C0FB012005B0F0BD88
:105010004FF47A7001232246314600903846FCF75F
:10502000C5FC20B13846FCF7B0FB0120EEE70020BC
:10503000ECE72DE9FF4182B005460E461C460C9F69
:105040002846FFF721FF80464FF47A70012304AA17
:10505000314600904046FCF767FD30B14046FCF712
:1050600094FB012006B0BDE8F0814FF47A703B4616
:105070002246314600904046FCF798FC20B140465D
:10508000FCF783FB0120EDE70020EBE72DE9FC4175
:1050900006460F4614461D463046FFF7F5FE80468D
:1050A0008DF804408DF805504FF47A70022301AA60
:1050B000394600904046FCF737FD28B14046FCF7E2
:1050C00064FB0120BDE8FC810020FBE700B593B044
:1050D00000BF00BF00BF00BF00BFBFF34F8F00BFC6
:1050E00000BF00BF00BF00BF00BFBFF36F8F00BF96
:1050F00000BF00BF0020384908603848006840F40D
:1051000000303649086000BF00BF00BFBFF34F8FBB
:1051100000BF00BF00BF00BF00BF00BFBFF36F8F65
:1051200000BF00BF00BF00BFFFF7A8F900BF2C48B9
:10513000006840F080502A4908600846006800F086
:105140008050009000BF00BF00BF2648006840F4B8
:105150004040244908600846006800F44040009040
:1051600000BF00BF012001900004029000200490C5
:105170004FF480010891022007901921099109013B
:105180000A9102210B9107210C9106210D9101A892
:10519000FDF7D0FE10B1012013B000BDFDF750F8AF
:1051A00008B10120F8E702200F900020109007209E
:1051B0000E900E9840F008000E904FF4A050119001
:1051C0004FF48050129006210EA8FDF741FD08B162
:1051D0000120E1E70020DFE750EF00E014ED00E000
:1051E000403802400070004000B59BB04FF6FF70A1
:1051F00002904D48007810B101201BB000BD4B4813
:105200000E9000F09FF800BF4948006840F0010090
:10521000474908600846006800F00100019000BF9F
:1052200000BF022007900720089004200990072063
:105230000A9002200B900C900D9000200F900021FE
:1052400010910421119120211291402113914FF4CA
:10525000C0711491002115914FF40061169149001D
:1052600017910021189107A90EA8FEF7DFF8012079
:1052700003901020049001200590002006904FF626
:10528000FF7203A90EA8FEF706F90220FCF715F934
:105290000220039010200490012005900020069029
:1052A0004FF6FF7203A90EA8FEF7F5F8032003904E
:1052B0001020049008200590002006904FF6FF7201
:1052C00003A90EA8FEF7E7F804200390102004902D
:1052D000012005904FF40C70069006904FF6FF7277
:1052E00003A90EA8FEF7D7F840F203610EA8FEF757
:1052F000BEF81048029000BF0298411E029100289B
:10530000FAD145200C4908704FF0404090F8500009
:10531000452803D10120044908706EE700200249A6
:10532000087000BF69E7000044020220400100A0AD
:1053300038380240F1FF0E00500000C00146002046
:10534000704700001CB50C20FFF7F8FF00B11CBD32
:105350000C20032100231A46CDE900104CF2037102
:105360001D48FFF73DFC0C20032100231A46CDE920
:1053700000104FF683711948FFF732FC0C2003210F
:1053800000231A46CDE900104FF63F011448FFF7FD
:1053900027FC0C20032100231A46CDE9001048F217
:1053A00037111048FFF71CFC0C20032100231A467C
:1053B000CDE900104FF62C710B48FFF711FC0C20C3
:1053C000032100231A46CDE9001040F2FF6107488F
:1053D000FFF706FC00BFBAE7000C024000100240D5
:1053E0000014024000180240001C0240002002404D
:1053F00038B5044640F21F30A08540F2DF10E0854A
:10540000114A04211148FFF767FD1148FBF738FBEB
:1054100054210E48FFF7D1FD08B1012038BD6B467D
:10542000A82254210948FFF7DAFD9DF80000112851
:1054300001D00220F2E70123A42254210348FFF700
:1054400025FE0020EAE70000A08601000060004081
:10545000FFFF0F003EB504460020207002AB022281
:1054600054212348FFF7BBFD9DF8080000F00F0012
:1054700002909DF80800052801DD01203EBD9DF841
:1054800008002070002521E0042000901948425DAA
:1054900001AB54211648FFF7CCFD9DF805009DF89F
:1054A000041001F00F0140EA012104F1160020F878
:1054B00015109DF807009DF8061001F00F0140EA55
:1054C0000121A01C20F81510681CC5B22078A84244
:1054D000DADC04F13003012254210548FFF77FFD97
:1054E00018B994F8300084F830000020C6E70000B6
:1054F000006000406C02022070B504460D460C4866
:105500000021016041602CB1094920680860606891
:10551000486004E0074806490860074848600448B6
:1055200001682846884708B9002070BD0120FCE7C3
:1055300048020220F1530008555400082DE9F041BB
:1055400004462448406810B90120BDE8F081214894
:1055500041682046884706460EB13046F5E794F884
:105560002B00A8B3002530E094F82B0000F00100D8
:1055700040B1A18DA01C30F81500081A81B2A01C02
:1055800020F8151094F82B0000F0020050B1E18DC6
:1055900004F1160030F81500081A81B204F1160063
:1055A00020F8151094F82B0000F0040058B1A01C4E
:1055B00030F81570143030F81510A01C20F81510B4
:1055C000143020F81570681CC5B22078A842CBDCD6
:1055D0000020BAE7480202201CB5044644B908205E
:1055E000032101230022CDE900100B48FFF7F8FA50
:1055F000012C09D10820032101230022CDE900104C
:1056000089020648FFF7ECFA032C03D1082104486D
:1056100000F01AFB1CBD0000000002400008024020
:10562000004C00401CB504464CB90820032101235E
:105630000022CDE90010C9010A48FFF7D1FA012C78
:1056400009D10820032101230022CDE90010C02147
:105650000548FFF7C5FA032C03D10821034800F0E1
:10566000F3FA1CBD00100240001402400078004014
:105670001CB5044644B90820032101230022CDE9CA
:1056800000100548FFF7ACFA032C03D108210348AA
:1056900000F0DAFA1CBD000000100240007C00405F
:1056A0001CB504464CB90720032101230022CDE993
:1056B000001049021548FFF793FA012C09D1072081
:1056C000032101230022CDE90010C0211048FFF77B
:1056D00087FA022C13D10720032101230022CDE9F0
:1056E000001059020948FFF77BFA07200321012324
:1056F0000022CDE9001080210548FFF771FA032C44
:1057000003D10721034800F09FFA1CBD00000240AE
:1057100000040240001001401CB504464CB90720AB
:10572000032101230022CDE900100C210A48FFF7D4
:1057300057FA012C09D10720032101230022CDE9CA
:10574000001060210548FFF74BFA032C03D1072115
:10575000034800F079FA1CBD00000240000C024032
:10576000004400401CB504464CB907200321012326
:105770000022CDE9001089021048FFF731FA012C10
:1057800009D10720032101230022CDE9001089025D
:105790000B48FFF725FA022C09D10720032101232A
:1057A0000022CDE9001009020648FFF719FA032C80
:1057B00003D10721044800F047FA1CBD0004024051
:1057C00000080240000C0240004800401CB504469E
:1057D0004CB90820032101230022CDE90010C0218B
:1057E0000B48FFF7FDF9012C0AD108200321012302
:1057F0000022CDE900104FF484410648FFF7F0F98C
:10580000032C03D10821044800F01EFA1CBD00003F
:1058100000080240001802400014014070B505461F
:105820000C460D48056001200B49096808620220FA
:1058300009490968086204200749096808620820C4
:105840000549096808621020034909680862204672
:10585000FCF77AFC70BD0000BC04022001460E4A31
:10586000914200D100200D4A914200D101200C4A02
:10587000914200D102200B4A914200D104200A4AF1
:10588000914200D10620094A914200D10720084ADE
:10589000914200D1082070470010014000440040B0
:1058A00000480040004C00400014014000780040D7
:1058B000007C00402DE9F04F9DB004460D46164691
:1058C0001F46DDE927ABDDF89890954884421FD14B
:1058D00000BF9448006840F01000924908600846F4
:1058E000006800F01000009000BF00BF8D48203815
:1058F000006840F010008B492039086008460068B5
:1059000020F0100008602846FFF7CAFE4FF0250877
:105910008548844221D100BF8248001F006840F4BE
:1059200000308049091F08600846006800F4003014
:10593000009000BF00BF7B482438006840F400306E
:105940007849243908600846006820F4003008606F
:105950002846FFF7E1FE4FF026087448844221D123
:1059600000BF7048001F006840F480206D49091F87
:1059700008600846006800F48020009000BF00BF67
:1059800068482438006840F480206649243908605B
:105990000846006820F4802008602846FFF7E2FEF1
:1059A0004FF027086248844221D100BF5D48001FA4
:1059B000006840F400205B49091F08600846006841
:1059C00000F40020009000BF00BF56482438006853
:1059D00040F400205349243908600846006820F448
:1059E000002008602846FFF7F7FD4FF034085148C3
:1059F00084421FD100BF4B48006840F02000494955
:105A000008600846006800F02000009000BF00BF5A
:105A100044482038006840F020004249203908609E
:105A20000846006820F0200008602846FFF7CEFEF8
:105A30004FF047084048844221D100BF3948001F39
:105A4000006840F080403749091F08600846006838
:105A500000F08040009000BF00BF3248243800684A
:105A600040F080402F49243908600846006820F043
:105A7000804008602846FFF7D5FD4FF052082F48B8
:105A8000844221D100BF2748001F006840F0004039
:105A90002449091F08600846006800F00040009093
:105AA00000BF00BF1F482438006840F000401D4977
:105AB000243908600846006820F000400860284645
:105AC000FFF7D6FD4FF05308019402960797CDF8E3
:105AD0001890CDF814A0CDF810B0299803900021AB
