:020000040800F2
:1000000030940320C902000883540008E33F00082D
:100010007F540008390C00088579000800000000B2
:100020000000000000000000000000000D020008B9
:10003000CD0D000800000000610200089D5B000873
:10004000E3020008E3020008E3020008E3020008FC
:10005000E3020008E3020008D10D0008790E000851
:10006000950E0008B10E0008CD0E00083D0C0008EA
:10007000750C0008850C0008950C0008A50C0008FC
:10008000B50C0008C50C0008E3020008E3020008F4
:10009000E3020008E3020008E3020008E90E00089A
:1000A000E3020008E3020008E3020008E30200089C
:1000B000E3020008E3020008E3020008E30200088C
:1000C000E3020008E3020008E3020008E30200087C
:1000D000E3020008C9780008F578000825790008CF
:1000E000ED0D0008E3020008E3020008E302000847
:1000F000E3020008E3020008E3020008D50C000850
:10010000E3020008E3020008E3020008E30200083B
:10011000B1720008E1720008E3020008E30200087F
:10012000F50C0008050D0008150D0008250D000848
:10013000350D0008E3020008E3020008E3020008AE
:10014000E3020008E3020008E3020008E3020008FB
:10015000450D0008550D0008650D0008557900088B
:10016000E3020008E3020008E3020008E3020008DB
:10017000E3020008E3020008E302000800000000B8
:10018000E3020008E30200083973000869730008FD
:10019000E3020008E3020008E3020008E3020008AB
:1001A000FD510008ED510008E50C0008E3020008CD
:1001B000E3020008E3020008E3020008E30200088B
:1001C000E3020008E3020008BD0D0008E302000896
:1001D000E3020008E3020008E3020008E30200086B
:1001E000E3020008E3020008E3020008E30200085B
:1001F000E3020008E3020008DFF80CD000F0F0FA98
:100200000048004751770108309403202B4B1968B0
:100210000868B0E8F04F80F30988BFF36F8F4FF0A4
:10022000000080F311887047000000000648006855
:10023000006880F3088862B661B6BFF34F8FBFF3E2
:100240006F8F00DF00BF00BF08ED00E0DFF80C009B
:10025000016841F470010160704700BF88ED00E063
:10026000EFF30980BFF36F8F144B1A681EF0100F65
:1002700008BF20ED108A20E9F04F106008B44FF05D
:10028000E00080F31188BFF34F8FBFF36F8F1BF037
:10029000F3FA4FF0000080F3118808BC1968086871
:1002A000B0E8F04F1EF0100F08BFB0EC108A80F3DA
:1002B0000988BFF36F8F704700BF00BFE0010220C5
:1002C000EFF3058070470000064880470648004766
:1002D000FEE7FEE7FEE7FEE7FEE7FEE7FEE7FEE7F6
:1002E000FEE7FEE7A55B0008F901000840EA01030C
:1002F0009B0703D009E008C9121F08C0042AFAD2DC
:1003000003E011F8013B00F8013B521EF9D270479F
:10031000D2B201E000F8012B491EFBD27047002247
:10032000F6E710B513460A4604461946FFF7F0FFF4
:10033000204610BD421E12F8013F002BFBD111F8E0
:10034000013B02F8013B002BF9D1704730B505465F
:100350002A460B4612F8010B13F8014B08B1A042D4
:10036000F8D01CB1002802D06D1CF1E7284630BD42
:1003700010B5044604E00B7800F8013B03B1491CBA
:10038000521EF8D2204610BD421C10F8011B002955
:10039000FBD1801A704710B5002200E0521C835C2C
:1003A0008C5CA34201D1002BF8D1D8B2E1B2401A43
:1003B00010BD034611F8012B00F8012B002AF9D1DA
:1003C0001846704730B505460020034600E05B1C28
:1003D000934205D2EC5CC85C201A01D1002CF6D106
:1003E00030BD30B50B46014600202022012409E033
:1003F00021FA02F59D4205D303FA02F5491B04FADE
:1004000002F52844151EA2F10102F1DC30BD2DE9F0
:10041000F05F0546002092469B4688460646814688
:1004200040241BE0284641464746224600F0F9F9A1
:1004300053465A46C01A914110D3114618462246D7
:1004400000F0E0F92D1A67EB01084F462246012023
:10045000002100F0D7F917EB00094E41201EA4F14E
:100460000104DFDC484631462A464346BDE8F09F9A
:100470002DE9FE4F804681EA0300C00F0C46009034
:1004800021F0004123F00045B8EB0200A94105D25C
:100490004046214690461C460B46024623F000404B
:1004A000104347D0270DC7F30A00C3F30A51029047
:1004B000401A019040286BDAC3F3130040F4801B0C
:1004C0000098924620B10023D2EB030A63EB0B0B9A
:1004D00001985946C0F14002504600F093F9064693
:1004E0000D4650465946019A00F0ABF910EB080052
:1004F0006141002487EA115284EAE7731A4340D02D
:10050000009A62B3019A012A4FEA075215DC001BD8
:1005100061EB02014FF0004202EA0752CDE90042CE
:10052000001C41F5801132462B4600F0ABF903B0B8
:10053000BDE8F08F40462146F9E7001B61EB020160
:10054000001C41F5801300185B412018A2F500172C
:1005500047EB030140EAD570B6196D4111E06D0813
:100560004FEA360645EAC0754FEA0752001B61EBB9
:100570000201001C41F5801149084FEA30000019C2
:10058000514132462B4603B0BDE8F04F00F06BB945
:100590000098012240000023D0EB020263EBE073DD
:1005A000009821464FEAE074B8EB000061EB0401CB
:1005B000E9E783F000435BE781F0004158E72DE96C
:1005C000FE4F81EA030404F0004421F0004100944E
:1005D0004FF0000B23F0004350EA01045ED052EAD2
:1005E00003045BD0C3F30A54C1F30A552C44A4F2AC
:1005F000F3340194A0FB0254C1F3130141F48011C0
:10060000C3F3130343F4801301FB024400FB034EC6
:10061000840A970A44EA815447EA8357A4FB07688F
:1006200002958D0A05FB07854FEA932C04FB0C54B9
:100630002705029D4FEA065847EA1637B5EB08052D
:100640006EEB070C870E920E47EA811742EA83127F
:10065000A7FB0201B6EB0B0164EB00042B0D43EA90
:100660000C335E1844EB1C50DA465146E7FB02019E
:10067000C5F313044FEA0B3343EA14534FEA043231
:10068000019C43EA0603A4F10C040294009CCDE90A
:1006900000B400F0F7F803B0BDE8F08F0020014689
:1006A000F9E72DE9F04D81EA030404F0004B21F055
:1006B000004514464FF0000A23F0004150EA0502BD
:1006C00020D054EA01021DD0C5F30A570246C5F3F3
:1006D0001303C1F31300C1F30A5640F4801543F429
:1006E0008013A7EB0608101BD64608F2FD3873EB03
:1006F000050002D308F1010801E092185B41B8F14E
:10070000000F03DA00200146BDE8F08D00204FF411
:100710008011064684460EE0171B73EB050705D3D0
:10072000121B63EB050306434CEA010C49084FEA30
:10073000300092185B4150EA0107EDD152EA030004
:1007400012D082EA040083EA0501084305D0101B99
:10075000AB4106D20122002306E000224FF0004305
:1007600002E06FF0010253101AEB06004CEB085147
:1007700010EB0A0041EB0B01BDE8F04D00F073B83F
:10078000C1F30A52C1F3130140F2FF3341F4801167
:100790009A4202DA00200146704740F233439A42FF
:1007A000A2F2334202DC524200F03BB800F02AB819
:1007B00030B5041E71F1000404DB4FF000444042E8
:1007C00064EB0101141E73F1000405DB1C464FF0BD
:1007D0000043524263EB0403994208BF904230BD8C
:1007E000064C074D06E0E06840F0010394E807007E
:1007F00098471034AC42F6D3FFF702FD5449030882
:1008000074490308202A04DB203A00FA02F1002090
:1008100070479140C2F1200320FA03F3194390403E
:100820007047202A04DB203A21FA02F000217047A9
:1008300021FA02F3D040C2F1200291400843194648
:100840007047202A06DBCB17203A41FA02F043EA30
:10085000E07306E041FA02F3D040C2F12002914079
:1008600008431946704710B5141E73F1000408DAE6
:10087000401C41F1000192185B411A4301D120F064
:10088000010010BD2DE9F04D92469B4611B1B1FA21
:1008900081F202E0B0FA80F220329046FFF7B2FF18
:1008A00004460F4640EA0A0041EA0B0153465A4605
:1008B000084313D0114653EA010019D0C8F1400291
:1008C0005046FFF7AEFF05460E4650465946424693
:1008D000FFF798FF084305D0012004E02046394681
:1008E000BDE8F08D0020054346EAE0762C4337430F
:1008F0000A986305E40AA0EB08000022FD0A44EA16
:1009000047540A3002D500200146E9E701051019D5
:100910006941DDE9084500196941BDE8F04DA2E7EC
:1009200070B58C1810F8015B15F0070301D110F8B1
:10093000013B2A1106D110F8012B03E010F8016BDE
:1009400001F8016B5B1EF9D12B0705D40023521E61
:100950000DD401F8013BFAE710F8013BCB1A921CC9
:1009600003E013F8015B01F8015B521EF9D5A142C7
:10097000D8D3002070BD00005A49096821F44031E5
:10098000594AC2F804131146D1F8041342681143BE
:10099000544A11600168496821F48071026851600D
:1009A00001684A68016942EA0121026851600168F0
:1009B000496821F0407102685160016849688268A5
:1009C0001143026851600168896821F4006102687E
:1009D000916001688968C268114302689160434A66
:1009E000816A914218D00168896821F070610268BB
:1009F000916001688968826A1143026891600168A8
:100A0000896821F040510268916001688968C26A72
:100A10001143026891600BE00168896821F0706100
:100A2000026891600168896821F040510268916014
:100A30000168896821F002010268916001688A6892
:100A4000816942EA410102689160016AD1B101689D
:100A5000496841F40061026851600168496821F405
:100A600060410268516001684A68416A491E4FF45A
:100A7000604393FAA3F3B3FA83F399400A430168FE
:100A80004A6005E00168496821F40061026851602C
:100A90000168C96A21F470010268D1620168CA6AFA
:100AA000818B491E42EA01510268D162016889685E
:100AB00021F400710268916001688A68016B42EA62
:100AC0004121026891600168896821F480610268AF
:100AD000916001688A68416942EA812102689160F7
:100AE0007047000004230140002001400100000F76
:100AF00008B500BF3548006840F0806033490860A1
:100B00000846006800F08060009000BF00BF2F48DA
:100B10002038006840F080602C4920390860084681
:100B2000006820F08060086000BF28481438006822
:100B300040F400002549143908600846006800F4B4
:100B40000000009000BF00BF20483438006840F427
:100B500000001E49343908600846006820F400008F
:100B6000086000BF1948006840F00060174908603D
:100B70000846006800F00060009000BF00BF134806
:100B80002038006840F000601049203908600846AD
:100B9000006820F00060086000220321582002F065
:100BA0002EF8582002F01EF8002203215A2002F0ED
:100BB00026F85A2002F016F800220321622002F0E3
:100BC0001EF8622002F00EF808BD00004438024012
:100BD00000B587B000BF1648006840F400701449A3
:100BE00008600846006800F40070019000BF00BF74
:100BF0004FF40040029001200390049003200590E0
:100C000002A90C4801F0A6F900224FF4004109485E
:100C100001F0ACFA142001F082F90122D103054859
:100C200001F0A4FA0A2001F07AF907B000BD000033
:100C3000303802400024024000BFFEE710B500BF7C
:100C40000A48806840F020000849886000BF00BF63
:100C50000846806840F01000886000BF00221146FE
:100C60000348006818F054F810BD0000006002400E
:100C70005803022010B5024805F0AFF810BD00007F
:100C80002860024010B5024805F0A7F810BD00002A
:100C90004060024010B5024805F09FF810BD00000A
:100CA0005860024010B5024805F097F810BD0000EA
:100CB0007060024010B5024805F08FF810BD0000CA
:100CC0008860024010B5024805F087F810BD0000AA
:100CD000A060024010B5024805F07FF810BD00008A
:100CE000B860024010B5024800F009FC10BD0000D9
:100CF000188C022010B5024805F06FF810BD0000F6
:100D00001064024010B5024805F067F810BD0000FD
:100D10002864024010B5024805F05FF810BD0000DD
:100D20004064024010B5024805F057F810BD0000BD
:100D30005864024010B5024805F04FF810BD00009D
:100D40007064024010B5024805F047F810BD00007D
:100D50008864024010B5024805F03FF810BD00005D
:100D6000A064024010B5024805F037F810BD00003D
:100D7000B864024030B5039C42EA811545EA032578
:100D800045EA0445C56630BD7CB505460C46012DD7
:100D900008D860780090237815220021064801F0D9
:100DA00066F808E0605D2B4639220021CDE9000499
:100DB000014800F0E3FF7CBD9489022010B5024891
:100DC00000F08DFE10BD00009489022070470000E5
:100DD00010B50548006800F0010020B1012002496B
:100DE000086005F039F910BD143C014010B52148E8
:100DF000006800F4806028B14FF480601D490860ED
:100E000005F02AF91B48006800F4006028B14FF48F
:100E100000601849086005F01FF91648006800F4E2
:100E2000805028B14FF480501249086005F014F941
:100E30001048006800F4005028B14FF400500D49EC
:100E4000086005F009F90B48006800F4804028B1FB
:100E50004FF480400749086005F0FEF80548006837
:100E600000F4004028B14FF400400249086005F04A
:100E7000F3F810BD143C014010B50548006800F0BF
:100E8000020020B102200249086005F0E5F810BD1B
:100E9000143C014010B50548006800F0040020B182
:100EA00004200249086005F0D7F810BD143C014049
:100EB00010B50548006800F0080020B1082002497C
:100EC000086005F0C9F810BD143C014010B5054894
:100ED000006800F0100020B110200249086005F001
:100EE000BBF810BD143C014010B51A48006800F072
:100EF000200020B120201749086005F0ADF8154802
:100F0000006800F0400020B140201249086005F060
:100F1000A3F81048006800F0800020B180200D493F
:100F2000086005F099F80B48006800F4807028B15B
:100F30004FF480700749086005F08EF80548006896
:100F400000F4007028B14FF400700249086005F009
:100F500083F810BD143C014010B51BF0D9F80949C5
:100F6000096888420CD11BF0EFF807490968401A5C
:100F70000649086006480068096808440449086092
:100F800010BD000040020220480202204C02022054
:100F90005002022030B502460023002408680128D0
:100FA00016D013686FF30E03D1E901052843CD680D
:100FB00028430D6928434D6928438D692843CD692D
:100FC00028430D6A28434D6A28430343136019E000
:100FD000136823F4F843D1E9070528434D6A2843F1
:100FE000034354686FF30E04D1E901052843CD682B
:100FF00028430D6928434D6928438D6928430443DC
:1010000013605460002030BD0246506940EA410040
:10101000506100207047F8B506460C461546002082
:1010200000900027D4E900010843A168491E40EA66
:101030004110E16840EA412000900098306101F0E1
:101040009BF8074609E0681C38B125B101F094F817
:10105000C01BA84201D90320F8BDB06900F02000F0
:101060000028F0D100BFF7E770B50346154600220F
:101070000024012D1FD09A6802F070420868401EBB
:101080004E68761E40EA06168868401E46EA00262C
:10109000C868401E46EA0036088A401E46EA0046F6
:1010A000888A401E46EA0056087E401E46EA0060D6
:1010B00002439A6022E09A6811480240C868401EC4
:1010C0000603888A401E46EA00500243DC6804F0AA
:1010D00070440868401E4E68761E40EA061688680E
:1010E000401E46EA0026088A401E46EA0046087E60
:1010F000401E46EA006004439A60DC60002070BD38
:10110000FF0F0FFF01B500BF0098411E009100289E
:10111000FAD108BD014600207047000018B502460C
:101120000020009000BF92F83C00012801D102206D
:1011300018BD012082F83C0000BF0868092822D9A8
:101140001068C0680B780A3B03EB43040723A340F5
:1011500098431368D860594B0868984207D11068C3
:10116000C0680B7A40EA03601368D8601FE00B7810
:101170000A3B03EB4303886898401368DB68184315
:101180001368D86013E0106800690B7803EB430420
:101190000723A3409843136818610B7803EB4303BC
:1011A0008868984013681B69184313681861486879
:1011B000072817D21068406B0B795B1E03EB830482
:1011C0001F23A340984313685863088880B20B79A3
:1011D0005B1E03EB8303984013685B6B1843136833
:1011E000586331E048680D2817D21068006B0B79FE
:1011F000DB1F03EB83041F23A3409843136818638A
:10120000088880B20B79DB1F03EB830398401368D7
:101210001B6B18431368186316E01068C06A0B79DB
:101220000D3B03EB83041F23A34098431368D8624C
:10123000088880B20B790D3B03EB83039840136859
:10124000DB6A18431368D8621D4B1068984208D1B6
:101250000868122805D11B48006840F48000C3F8D4
:101260000403174B1068984220D1144B0868984229
:1012700002D00868112819D11248006840F4000013
:10128000104B18600D4B086898420FD10E4800684B
:101290000E4BB0FBF3F000EB80004000009002E04A
:1012A0000098401E009000980028F9D100BF00204F
:1012B00082F83C0000BF00BF3AE7000012000010B7
:1012C00000200140042301406003022040420F003F
:1012D00001460868C06C704770B5044600250CB91B
:1012E000012070BD1549A06A884200D000BF206C63
:1012F00030B90020606484F83C00204600F020F8FB
:10130000206C00F0100088B9206C20F4885040F068
:10131000020020642046FFF72FFB00206064206C51
:1013200020F0020040F00100206400E0012500BF31
:10133000002084F83C0000BF2846D2E70100000FDF
:10134000704770B504460D4600262068806800F49A
:10135000806078B12068806800F4807050B1206CA3
:1013600040F02000206400BF002084F83C0000BF53
:10137000012070BD00F000FF064612E0681C80B13D
:1013800025B100F0F9FE801BA8420AD9206C40F07C
:101390000400206400BF002084F83C0000BF03204C
:1013A000E7E72068006800F002000228E6D16FF04D
:1013B000120021680860206C40F4007020642068EE
:1013C000806800F04050B8B9A069A8B92068C06A28
:1013D00000F4700020B12068806800F4806058B983
:1013E000206C20F480702064206C00F4805018B9C8
:1013F000206C40F0010020640020BAE708B50146E7
:101400000020009000BF91F83C00012801D102208B
:1014100008BD012081F83C0000BF0868806800F02A
:101420000100A0B90868806840F001000A68906077
:101430002E4800682E4AB0FBF2F000EB400000900E
:1014400002E00098401E009000980028F9D108683A
:10145000806800F00100002845D0086C40F201626D
:10146000904340F4807008640868406800F480602D
:1014700028B1086C20F4005040F480500864086CD7
:1014800000F4805020B1486C20F00600486401E070
:101490000020486400BF002081F83C0000BF6FF0CE
:1014A00022000A6810601348006800F01F0058B955
:1014B0000868806800F04050A8B90868806840F06B
:1014C00080400A6890600EE00B4A086890420AD19A
:1014D0000868806800F0405028B90868806840F0CB
:1014E00080400A689060002092E7000060030220BC
:1014F00040420F000423014000200140704770B5B6
:101500000446206845682068066805F00100E0B1DF
:1015100006F48070C8B12068006820F480702168EB
:101520000860606D40F001006065012021688860FE
:10153000042084F8510000BF002084F8500000BF50
:10154000E06910B12046E169884705F02000E0B16C
:1015500006F40050C8B12068006820F400502168EB
:101560000860202021688860606D40F0020060659E
:10157000042084F8510000BF002084F8500000BF10
:10158000E06910B12046E169884705F00800E0B144
:1015900006F40060C8B12068006820F4006021688B
:1015A0000860082021688860606D40F00400606574
:1015B000042084F8510000BF002084F8500000BFD0
:1015C000E06910B12046E169884705F0040070B178
:1015D00006F4806058B12068006820F480602168BB
:1015E0000860042021688860204600F03BF805F080
:1015F0000200D0B106F40070B8B12068006820F491
:10160000007021680860022021688860606D606554
:10161000012084F8510000BF002084F8500000BF72
:10162000A06910B12046A169884705F01000C0B13B
:1016300006F48050A8B12068006820F4805021682A
:101640000860102021688860606D6065012084F862
:10165000510000BF002084F8500000BF2046FFF773
:101660004DFF70BD7047024600BF107C012801D1BC
:10167000022070470120107400BF1068406B40F0DA
:101680000100136858631068D0F8000420F00100CE
:101690001368C3F800041068D0F8000440F001009B
:1016A0001368C3F800041068C06820F003001368D2
:1016B000D8601068C0680B6818431368D860106859
:1016C000406920F0070013685861D1E906301843DB
:1016D0004B69184313685B691843136858611068B5
:1016E000006920F00F0013681861106800694B68EA
:1016F0001843136818611068D0F8000420F00E0039
:101700001368C3F800041068D0F800044B6840EA7E
:1017100043001368C3F800041068406E6FF30F00B5
:10172000136858661068406E8B68184313685866D3
:101730001068D0F8000420F0F0001368C3F800042B
:10174000D1E9030318434B6A18430B6A1843136823
:10175000D3F8003418431368C3F800041068806E8F
:1017600020F00100136898661068806E8B6A184339
:10177000136898661068D0F8080440F001001368F8
:10178000C3F808041068D0F8080440F00200136899
:10179000C3F8080400BF0020107400BF00BF68E752
:1017A000024600BF107C012801D1022070470120B1
:1017B000107400BF1068806E184B1840136898664C
:1017C000D1E9000318438B681843CB6818430B69B1
:1017D00018434B6918438B691843CB6918430B6A4C
:1017E00018434B6A18438B6A1843CB6A1843136833
:1017F0009B6E1843136898661068806E20F0020094
:10180000136898661068806E0B6B184313689866AF
:1018100000BF0020107400BF00BFC7E7FF80F0FECC
:10182000024600BF107C012801D102207047012030
:10183000107400BF1068C06A20F01F001368D862DF
:101840001068C06A08431368D86200BF0020107493
:1018500000BF00BFEAE710B5024600BF107C0128B8
:1018600001D1022010BD0120107400BFD1E9004059
:10187000A04201D9486800E0086803461068D0F823
:10188000980000F0FC201468C4F898001068D0F8A4
:10189000980043EA034420431468C4F89800106891
:1018A000D0F89C0000F400401468C4F89C008C89B7
:1018B000086940EA04400C7A40EA04601468D4F8ED
:1018C0009C4020431468C4F89C001068D0F8A40021
:1018D00020F47F401468C4F8A4001068D0F8A40075
:1018E0004C6940EA04201468C4F8A40000BF00203A
:1018F000107400BF00BFB5E710B504460CB9012055
:1019000010BD032060742068D0F8040420F00800A3
:101910002168C1F804042068406820F001002168B3
:1019200048602068D0F8A00020F006002168C1F8C7
:10193000A0002068D0F8300420F001002168C1F830
:1019400030042068D0F8300420F080702168C1F89D
:101950003004204600F071FA00206061607400BF1E
:10196000207400BF00BFCBE77CB50446534890F914
:101970000000002839DB52480068012836D10020D9
:101980003423152201460090204600F070FA2068AA
:10199000D0F8040420F008002168C1F80404494884
:1019A0000068416801F5C86147480068C0F8AC109C
:1019B00045480068406A40F00100434909684862B0
:1019C0002068D0F8040440F008002168C1F804043D
:1019D0003E482A2104233922CDE900100021204667
:1019E00000F0CCF9204600F02AFA5DE034480068A7
:1019F000022859D1002500BF19E0C5EBC5003449C4
:101A000001EB8000007A80B1C5EBC50001EB8000DE
:101A10002C4908600020C5EBC5012D4A02EB81016D
:101A2000087228460FF0D0FD03E0681CC5B2022DF5
:101A3000E3DB00BF2068D0F8040420F00800216830
:101A4000C1F804041F48006818B11E4800684068C7
:101A500001E01F4840681C490968C1F8AC001A48F9
:101A60000068406A40F00100174909684862206830
:101A7000D0F8040440F008002168C1F804041548B7
:101A80002A2104233922CDE900100021204600F04C
:101A900075F91148442102233922CDE900100021B3
:101AA000204600F06BF900BF05480068012801D10D
:101AB000022000E00120024908607CBD780202207B
:101AC000740202207C020220EC88022068020220BC
:101AD000E08B02206402022070020220704770B581
:101AE00004462068D0F80C0400F0010060B12068C2
:101AF000D0F80C0400F0010030B101202168C1F8D9
:101B00001004204600F00AFA2068D0F80C0400F017
:101B1000020060B12068D0F80C0400F0020030B17F
:101B200002202168C1F810042046FFF71DFFA069BC
:101B3000002857D02068D0F8BC602068D0F8C400D6
:101B400006402068D0F8C0502068D0F8C800054092
:101B5000B0B218B1606940F00100606106F4F8109D
:101B600018B1606940F00200606105F0010018B131
:101B7000606940F00400606105F0020018B160691E
:101B800040F00800606105F00C0018B1606940F099
:101B90001000606105F0100018B1606940F020008D
:101BA000606105F0200018B1606940F0400060619C
:101BB00005F0400018B1606940F08000606105F0F8
:101BC000800018B1606940F48070606105F4F850DD
:101BD00018B1606940F400706061606910B120461E
:101BE000FFF77CFF70BD00002DE9F04104460D4673
:101BF00000260027B04614B90120BDE8F081607CC2
:101C000010B9204600F01AF9032060742068D0F85B
:101C1000300440F080702168C1F8300400F0ACFA64
:101C2000064607E000F0A8FA801BB0F57A7F01D9DC
:101C30000320E2E72068D0F80C0400F4805000286C
:101C4000F0D02068D0F830044A4908402168C1F833
:101C5000300428688000696840EAC120298940EA88
:101C600001402168D1F8301408432168C1F83004DC
:101C70002068D0F8300440F001002168C1F8300439
:101C800000F07AFA064607E000F076FA801BB0F51D
:101C90007A7F01D90320B0E72068D0F80C0400F463
:101CA00080700028F0D02068D0F8A00040F0060036
:101CB0002168C1F8A0002068D0F8940020F003004B
:101CC0002168C1F894002068D0F89400616841F060
:101CD000010108432168C1F894002068D0F8A400ED
:101CE00020F003002168C1F8A4002068D0F8A40007
:101CF000E16808432168C1F8A4002068806820F0EA
:101D0000FF002168886020688068A1680843216816
:101D10008860686808B1686800E00120804616485D
:101D200008FB00F02A7A01219140484346F2A812AC
:101D300029685143B0FBF1F72068D0F8180420F06F
:101D40003F002168C1F818042068D0F8180438430F
:101D50002168C1F8180400202168C1F8C4000021DE
:101D60002068C0F8C8100020A06160610120607484
:101D7000002042E70386FCFF00093D002DE9F84FF3
:101D80000546884691461F46DDE90AA60024A3467B
:101D900000BF287C012802D10220BDE8F88F012075
:101DA000287400BF00F0E8F983460CE000F0E4F985
:101DB000A0EB0B00B0F57A7F05D900BF0020287496
:101DC00000BF0320E9E72868406F00F00100002809
:101DD000ECD01FE074B9305D4AEA0020311949782F
:101DE00040EA01403119897840EA016029680867B2
:101DF000E41C0FE0305D3119497840EA01203119C7
:101E0000897840EA01403119C97840EA01602968BF
:101E10000867241DBC42DDD3781CC0F30720791C61
:101E2000CBB200904A4641462868FEF7A3FF00BFA8
:101E30000020287400BF00BFAFE77047704701461D
:101E400000BF087C012801D10220704701200874DE
:101E500000BF0868D0F8040440F004000A68C2F823
:101E6000040400BF0020087400BF00BFEDE72DE9A7
:101E7000F84304460D4616461F46DDF820804FF015
:101E8000000900BF207C012802D10220BDE8F883B0
:101E90000120207400BF00F06FF981460CE000F0D3
:101EA0006BF9A0EB0900B0F57A7F05D900BF0020DF
:101EB000207400BF0320E9E72068406F00F00100B4
:101EC0000028ECD0CDF800803B46324629462068F9
:101ED000FEF750FF00BF0020207400BF00BFD5E711
:101EE000014600BF087C012801D102207047012073
:101EF000087400BF0868406840F001000A6850603C
:101F00000868D0F8040440F008000A68C2F8040425
:101F100000BF0020087400BF00BFE7E7704700B5AE
:101F2000014600BFEFF3058048B900F025F90246ED
:101F300000BF00F021F9801A8842FAD309E006E0D8
:101F40004FF0E020006900F4803000B1491E002904
:101F5000F6D100BDF8B502460B460021002500244D
:101F6000002000BFE4E0012606FA01F51E6806EA3B
:101F70000504AC4271D15E68022E02D05E68122E5A
:101F800013D1CF0802F1200656F827004E07F70EAE
:101F90000F26BE40B0434F07FF0E1E69BE403043C0
:101FA000CF0802F1200646F8270010684F000326EC
:101FB000BE40B0431E7906F003064F00BE403043DA
:101FC00010605E68012E08D05E68022E05D05E6843
:101FD000112E02D05E68122E13D190684F00032696
:101FE000BE40B0434F00DE68BE4030439060506852
:101FF00001268E40B0431E79C6F300168E40304352
:102000005060D0684F000326BE40B0434F009E682A
:10201000BE403043D0605E6806F08056B6F1805F07
:10202000A8D100BF444E366846F48046424F3E6019
:102030003E46366806F48046009600BF00BF3F4E1D
:102040008F0856F827008E07370F0F26BE40B04383
:102050003B4EB24202D100262EE068E0394EB24239
:1020600001D1012628E0384EB24201D1022623E0F8
:10207000364EB24201D103261EE0354EB24201D1A6
:10208000042619E0334EB24201D1052614E0324E47
:10209000B24201D106260FE0304EB24201D10726EE
:1020A0000AE02F4EB24201D1082605E02D4EB24281
:1020B00001D1092600E00A268F073F0FBE403043BA
:1020C0001E4E8F0846F82700274E3068A0435E68F2
:1020D00006F48036B6F5803F00D12043224E3060B2
:1020E000361D3068A0435E6806F40036B6F5003F42
:1020F00000D120431C4E361D3060361D3068A04391
:102100005E6806F48016B6F5801F00D12043164E97
:1021100008363060361D3068A0435E6806F400164D
:10212000B6F5001F00D120430F4E0C363060491C1D
:102130001029FFF418AFF8BD4438024008380140B8
:10214000000002400004024000080240000C02406F
:10215000001002400014024000180240001C02401F
:102160000020024000240240003C01400AB181618D
:1021700001E00B048361704701480068704700006C
:1021800004000220024692F8410020282DD100BF11
:1021900092F84000012801D102207047012082F806
:1021A000400000BF242082F841001068006820F041
:1021B0000100136818601068006820F480501368EC
:1021C0001860106800680843136818601068006899
:1021D00040F0010013681860202082F8410000BF21
:1021E000002082F8400000BFD7E70220D5E7014673
:1021F000486C704710B504460CB9012010BD94F826
:10220000410028B9002084F84000204600F078FA08
:10221000242084F841002068006820F00100216833
:102220000860606820F0706021680861206880683C
:1022300020F4004021688860E068012805D1A0688A
:1022400040F400402168886004E0A06840F4044045
:1022500021688860E068022802D180022168486015
:102260002068406813490843216848602068C068B6
:1022700020F400402168C860D4E904010843A16942
:1022800040EA01202168C860D4E9070108432168B9
:1022900008602068006840F00100216808600020A4
:1022A0006064202084F841000020206384F842000C
:1022B00000BFA3E7008000022DE9FC4104460F4661
:1022C00090461D4600260020019094F841002028E9
:1022D00070D120688069C0F3C03010B10220BDE821
:1022E000FC8100BF94F84000012801D10220F6E7EC
:1022F000012084F8400000BF242084F84100002021
:10230000606400BFE068012806D1C7F3090040F40B
:10231000005040F0007003E0C7F3090040F4205083
:1023200021684860FFF728FF064611E0681C78B175
:1023300025B1FFF721FF801BA84209D9202084F88E
:10234000410000BF002084F8400000BF0320C6E722
:1023500020688069C0F3401040B920688069C0F3EC
:10236000001018B994F84100A028DFD120688069D6
:10237000C0F30010A0B92B46002220212046009671
:1023800001F0A4FE08B10320A9E720202168C8615C
:1023900084F8410000BF002084F8400000BF9EE7A1
:1023A0002B46002220212046009601F08FFE10B11E
:1023B000032094E72AE010202168C86120202168CA
:1023C000C8610198411C0191404512D120684068C4
:1023D00040F48040216848602B460022202120469E
:1023E000009601F073FE08B1032078E720202168F1
:1023F000C8610198404585D3202084F8410000BF82
:10240000002084F8400000BF032068E7022066E750
:102410002DE9F8430446894616461F46DDF820801C
:10242000002594F8410020287AD100BF94F840009C
:10243000012802D10220BDE8F883012084F8400081
:1024400000BFFFF799FE054619230122D10320465C
:10245000009501F03BFE08B10320ECE7222084F850
:102460004100102084F842000020606466626785A5
:102470006063608DFF280DD9FF2020854FF4105038
:10248000009094F828204FF080734946204601F0D0
:1024900005FE0CE0608D20854FF41050009094F8FC
:1024A00028204FF000734946204601F0F7FD44E034
:1024B0002A464146204601F035FE30B1606C0428C2
:1024C00001D10120B7E70320B5E72068406AC1B217
:1024D000626A501C60621170208D401E2085608DE4
:1024E000401E6085208D40BB608D30B34346002286
:1024F00080212046009501F0E9FD08B103209AE70C
:10250000608DFF280DD9FF2020850020009094F8D1
:1025100028204FF080734946204601F0BFFD0CE0B3
:102520002FE0608D20850020009094F828204FF047
:1025300000734946204601F0B1FD608D0028B7D1F7
:102540002A464146204601F035FE30B1606C042831
:1025500001D101206FE703206DE720202168C861C9
:10256000206840680849084021684860202084F8B5
:102570004100002084F8420000BF84F8400000BF02
:1025800059E7022057E7000000E800FE2DE9F84374
:102590000446894616461F46DDF82080002594F83B
:1025A0004100202877D100BF94F84000012802D1D3
:1025B0000220BDE8F883012084F8400000BFFFF747
:1025C000DBFD054619230122D1032046009501F0C9
:1025D0007DFD08B10320ECE7212084F841001020A4
:1025E00084F8420000206064666267856063608DE5
:1025F000FF280CD9FF2020854FF40050009094F85C
:102600002820C3024946204601F048FD0BE0608DBA
:1026100020854FF40050009094F828200303494689
:10262000204601F03BFD43E02A464146204601F0AA
:10263000ECFD30B1606C042801D10120B9E7032022
:10264000B7E7616A481C6062087821688862608D1B
:10265000401E6085208D401E2085208D40BB608DF2
:1026600030B34346002280212046009501F02EFD24
:1026700008B103209DE7608DFF280DD9FF2020853C
:102680000020009094F828204FF08073494620469F
:1026900001F004FD0CE02FE0608D2085002000900B
:1026A00094F828204FF000734946204601F0F6FCCC
:1026B000608D0028B8D12A464146204601F07AFDB7
:1026C00030B1606C042801D1012072E7032070E76B
:1026D00020202168C86120684068084908402168B6
:1026E0004860202084F84100002084F8420000BFA8
:1026F00084F8400000BF5CE702205AE700E800FED3
:102700007047000010B52E480068401C2C49086036
:102710002C48006820B12B480068401E29490860F9
:10272000002444E0284850F8240000283DD02648E2
:1027300050F824000078C0F34000B0B3224850F8AD
:102740002400806840B1204850F824008068401E72
:102750001D4951F8241088601B4850F824008068F7
:1027600018BB194B53F824301969174B53F8240040
:1027700053F82430DA689047134850F82400416831
:10278000114850F8240081600F4850F82400007868
:1027900000F0010048B90C4850F82400007820F0FF
:1027A0000201094850F824000170601CC4B20648B8
:1027B000001F0078A042B5DC03F057FA10BD0000FE
:1027C00004000220000002207003022010B5084817
:1027D000006840F4007006490860032000F04EFADB
:1027E0000F2000F007F800F0DFF9002010BD000016
:1027F000003C024070B50446074800684FF47A7107
:10280000B0FBF1F5284601F095FB00222146501E51
:1028100000F0F5F9002070BD6003022070B5044699
:102820000E46154600BF94F8A000012801D10220F1
:1028300070BD012084F8A00000BF022084F8A10030
:1028400005EB850101EBC50204F1380101EB8200C3
:1028500034223146FDF74AFD2A463146204602F031
:1028600005FD01202168486284F8A10000BF002016
:1028700084F8A00000BF00BFDAE710B50446204688
:1028800000F027F90020C4F8A40084F8A10000BFDC
:1028900084F8A00000BF10BD704710B50446206842
:1028A000806B00F00400F0B12068806B00F0040041
:1028B000C8B12068406B20F0040021684863042000
:1028C0002168C863D4F8A40040F00100C4F8A40053
:1028D000042084F8A10000BF002084F8A00000BFFD
:1028E0002046FFF7D9FF2068806B00F00200F0B1AE
:1028F0002068806B00F00200C8B12068406B20F0B7
:1029000002002168486302202168C863D4F8A4004B
:1029100040F00200C4F8A400042084F8A10000BF25
:10292000002084F8A00000BF2046FFF7B5FF206814
:10293000806B00F00100B8B12068806B00F00100EE
:1029400090B12068406B20F00100216848630120AD
:102950002168C86384F8A10000BF002084F8A000AB
:1029600000BF204600F0B4F82068806B00F008003B
:10297000C0B12068806B00F0080098B12068406BFF
:1029800020F008002168486308202168C8630120FE
:1029900084F8A10000BF002084F8A00000BF2046FA
:1029A00000F099F810BD000070B50446002500261F
:1029B0000CB9012070BD94F8A10028B9002084F85A
:1029C000A000204600F086F8022084F8A1002068CC
:1029D000806920F0704021688861D4E901010843D2
:1029E000E16808432169084321688969084321682F
:1029F0008861206880683549084021688860A08A1D
:102A0000050420688068A16929430843216888601B
:102A10002068C0682D4908402168C860A08B050463
:102A20002068C068216A294308432168C86020687B
:102A300000692649084021680861A08C05042068C7
:102A40000069A16A29430843216808612068406938
:102A50001E49084021684861A08D0504206840692E
:102A6000216B294308432168486194F83500050229
:102A700094F8360006042068C06A00F07F402168A0
:102A8000C86246EA050094F8341008432168C96A10
:102A900008432168C8622068406B40F00400216848
:102AA00048632068406B40F002002168486320685A
:102AB000806940F00100216888610020C4F8A4000A
:102AC000012084F8A100002074E7000000F800F065
:102AD0007047704770477047F0B503460C460025B5
:102AE0000026002100BF93F8A000012801D1022098
:102AF000F0BD012083F8A00000BF022083F8A100F0
:102B000002EB820000EBC20703F1380000EB870004
:102B1000016909B904250EE0012901D103250AE064
:102B2000042905D0022903D0032901D0072901D1A6
:102B3000022500E0012504FB05F006041868843036
:102B4000802707FB0200C06A154F38401F68843792
:102B50004FF0800C0CFB0277F8621248006840F0DE
:102B60000100104F386018688430802707FB02008E
:102B7000C06A30431F6884370CFB0277F86209484B
:102B8000006840F00100074F3860012083F8A10081
:102B900000BF002083F8A00000BF00BFA8E700002E
:102BA000FFFF00E0246801407047000000BF00F014
:102BB0001F0201219140034A430942F8231000BF3C
:102BC0007047000080E200E000BF00F01F0201211A
:102BD0009140034A430942F8231000BF70470000A8
:102BE00080E100E000BF00F01F0201219140420996
:102BF000920002F1E022C2F8001100BF70472DE9F7
:102C0000F05F80460D461646002702F067FC074637
:102C100039462A46334601F00700C0F1070ABAF1E7
:102C2000040F02D94FF0040A01E0C0F1070AD146AF
:102C300000F1040ABAF1070F02D24FF0000A01E0D6
:102C4000A0F1030AD4464FF0010A0AFA09FAAAF1E0
:102C5000010A0AEA020A0AFA0CFA4FF0010B0BFA0F
:102C60000CFBABF1010B0BEA030B4AEA0B04214608
:102C7000404602F043FCBDE8F09F000000BF00F0BA
:102C80000702064B19684FF6FF031940044B0B432C
:102C900043EA0221014B196000BF70470CED00E0D0
:102CA0000000FA0538B5002400BF2048006840F055
:102CB00080501E4908600846006800F0805000906F
:102CC00000BF00BF1A48006840F48030184908600F
:102CD000FFF752FA044607E0FFF74EFA001BB0F583
:102CE0007A7F01D9032038BD1148406800F4803054
:102CF000B0F5803FF0D10E48006840F400300C4938
:102D00000860FFF739FA044607E0FFF735FA001BC1
:102D1000B0F57A7F01D90320E5E70548406800F463
:102D20000030B0F5003FF0D10020DCE74038024031
:102D3000007000402DE9F8430446002600250027D6
:102D4000A846A946207800F0010088B100BFFE48DF
:102D5000006820F40000FC49086008460068616BC8
:102D60000843F949086000BF606B08B94FF00108DB
:102D7000206800F40020B0F5002F13D1F248843011
:102D8000006820F44010E16B0843EF49843108608B
:102D9000E06BB0F5801F01D14FF00108E06B08B97E
:102DA0004FF00109206800F48010B0F5801F13D1A6
:102DB000E5488430006820F44000216C0843E24973
:102DC00084310860206CB0F5800F01D14FF001080C
:102DD000206C08B94FF00109206800F08070B0F154
:102DE000807F01D14FF00108207800F020002028DA
:102DF00070D100BFD4483830006840F08050D249CC
:102E0000383108600846006800F08050009000BF2C
:102E100000BFCE48006840F48070CC490860FFF7DE
:102E2000ABF9064607E0FFF7A7F9801B642802D933
:102E30000320BDE8F883C548006800F480700028CE
:102E4000F1D0C1486830006800F4407585B3208E29
:102E500000F44070A8422BD0BB486830006820F4D2
:102E60004075B9486830006840F48030B649683130
:102E700008600846006820F4803008600846056055
:102E8000006800F0010098B1FFF776F9064608E007
:102E9000FFF772F9801B41F28831884201D9032083
:102EA000C7E7A94868300068C0F340000028EFD0A9
:102EB00000BF208E00F44070B0F5407F0BD1A248D7
:102EC000006820F4F810A24A216B114008439E4983
:102ED000086006E010E09C48006820F4F8109A4969
:102EE0000860994868300068218EC1F30B010843DF
:102EF00095496831086000BF207800F01000102864
:102F000010D100BF90488430006820F080708E4956
:102F10008431086008460068A16B08438A498431FF
:102F2000086000BF208800F48040B0F5804F09D1D0
:102F300085488830006820F44030616E084382493B
:102F400088310860208800F40040B0F5004F09D1B6
:102F50007D488830006820F44020A16E08437A49FB
:102F600088310860206800F48030B0F5803F09D1D6
:102F700075488830006820F44010E16E08437249BB
:102F800088310860206800F40030B0F5003F09D1B6
:102F90006D488830006820F44000216F08436A497A
:102FA00088310860207800F04000402809D1664848
:102FB0008830006820F00300616C08436249883162
:102FC0000860207800F08000802809D15E488830B1
:102FD000006820F00C00A16C08435B498831086050
:102FE000208800F48070B0F5807F09D15648883081
:102FF000006820F03000E16C0843534988310860D4
:10300000208800F40070B0F5007F09D14E48883068
:10301000006820F0C000216D08434B4988310860EA
:10302000208800F48060B0F5806F09D14648883070
:10303000006820F44070616D08434349883108609E
:10304000208800F40060B0F5006F09D13E48883058
:10305000006820F44060A16D08433B498831086056
:10306000208800F48050B0F5805F09D13648883060
:10307000006820F44050E16D08433349883108600E
:10308000208800F40050B0F5005F09D12E48883048
:10309000006820F44040216E08432B4988310860C5
:1030A000206800F48000B0F5800F09D126488830F0
:1030B000006820F08060A16F0843234988310860D0
:1030C000206800F40010B0F5001F0FD11E488830B2
:1030D000006820F00060E16F08431B4988310860F8
:1030E000E06FB0F1006F01D14FF00109207800F0DE
:1030F0000800082801D14FF00109206800F4802061
:10310000B0F5802F09D110488830006820F0407059
:10311000616F08430C4988310860206800F40000A2
:10312000B0F5000F0AD108488830006820F08050C0
:10313000D4F880100843044988310860206800F002
:103140008060B0F1806F05E00838024000700040F8
:10315000FFFCFF0F08D1FE48006820F00050D4F8B3
:1031600084100843FA490860206800F00060B0F15C
:10317000006F0AD1F648001F006820F00070D4F8F4
:1031800088100843F249091F0860206800F0805049
:10319000B0F1805F0AD1EE48001F006820F0806027
:1031A000D4F88C100843EA49091F0860B8F1010FF0
:1031B00003D02068B0F1007F7DD1E54890380068E9
:1031C00020F08060E24990390860FEF7D5FF06469E
:1031D00006E0FEF7D1FF801B642801D9032028E612
:1031E000DB4890380068C0F3C0600028F1D1207837
:1031F00000F00100F0B3606BE0BBD5480C3800680C
:1032000000F440304FF4403191FAA1F1B1FA81F16C
:1032100020FA01F5CE480C38006800F070604FF0DD
:10322000706191FAA1F1B1FA81F120FA01F747F644
:10323000C07191FAA1F1B1FA81F1606888404FF450
:10324000403191FAA1F1B1FA81F105FA01F1084397
:103250004FF0706191FAA1F1B1FA81F107FA01F131
:1032600008434FF0E04292FAA2F2B2FA82F2A16869
:10327000914000E003E00843B5490C39086020683C
:1032800000F40020B0F5002F03D1E06BB0F5801FF3
:1032900009D0206800F48010B0F5801F50D1206C58
:1032A000B0F5800F4CD1AA480C38006800F44030CB
:1032B0004FF4403100E0CFE091FAA1F1B1FA81F191
:1032C00020FA01F5A2480C38006800F0E0404FF009
:1032D000E04191FAA1F1B1FA81F120FA01F747F644
:1032E000C07191FAA1F1B1FA81F1606888404FF4A0
:1032F000403191FAA1F1B1FA81F105FA01F10843E7
:103300004FF0706292FAA2F2B2FA82F2E168914052
:1033100008434FF0E04191FAA1F1B1FA81F107FAC7
:1033200001F108438A490C3908608948001F006888
:1033300020F01F00616A491E08438549091F086083
:10334000206800F08070B0F1807F3FD180480C3859
:10335000006800F070604FF0706191FAA1F1B1FA6D
:1033600081F120FA01F57A480C38006800F0E0405D
:103370004FF0E04191FAA1F1B1FA81F120FA01F7A1
:1033800047F6C07191FAA1F1B1FA81F16068884005
:103390004FF4403292FAA2F2B2FA82F221699140DD
:1033A00008434FF0706191FAA1F1B1FA81F105FA89
:1033B00001F108434FF0E04191FAA1F1B1FA81F136
:1033C00007FA01F1084362490C390860206800F0EF
:1033D0000070B0F1007F25D147F6C07191FAA1F1DC
:1033E000B1FA81F1606888404FF4403292FAA2F25B
:1033F000B2FA82F22169914008434FF0706292FA6A
:10340000A2F2B2FA82F2E168914008434FF0E04242
:1034100092FAA2F2B2FA82F2A168914008434C49B2
:103420000C3908604A489038006840F0806048498C
:1034300090390860FEF7A0FE064606E0FEF79CFE07
:10344000801B642801D90320F3E4414890380068C8
:10345000C0F3C0600028F1D0B9F1010F69D13C4838
:103460009038006820F08050394990390860FEF7A4
:1034700083FE064606E0FEF77FFE801B642801D926
:103480000320D6E4324890380068C0F3407000282A
:10349000F1D1206800F40020B0F5002F01D1E06BDD
:1034A00038B1206800F48010B0F5801F4FD1206C37
:1034B000F0BB27480838006800F440304FF4403132
:1034C00091FAA1F1B1FA81F120FA01F5204808380A
:1034D000006800F0E0404FF0E04191FAA1F1B1FA4C
:1034E00081F120FA01F747F6C07191FAA1F1B1FA22
:1034F00081F1606988404FF4403191FAA1F1B1FA4D
:1035000081F105FA01F108434FF0706292FAA2F2DC
:10351000B2FA82F2A169914008434FF0E04191FA7A
:10352000A1F1B1FA81F107FA01F10843084901E07C
:103530000DE0BBE008390860081D006820F4F85170
:10354000A06A401E41EA00200149091F086001E00D
:1035500090380240206800F40010B0F5001F40D100
:10356000E06FB0F1006F3CD15148006800F070602E
:103570004FF0706191FAA1F1B1FA81F120FA01F5F1
:103580004B48006800F0E0404FF0E04191FAA1F1B3
:10359000B1FA81F120FA01F747F6C07191FAA1F171
:1035A000B1FA81F1606988404FF4403292FAA2F298
:1035B000B2FA82F2216A914008434FF0706191FAA9
:1035C000A1F1B1FA81F105FA01F108434FF0E041B0
:1035D00091FAA1F1B1FA81F107FA01F108433449F6
:1035E0000860207800F00800082845D130480068BD
:1035F00000F070604FF0706191FAA1F1B1FA81F1C1
:1036000020FA01F52A48006800F440304FF44031B8
:1036100091FAA1F1B1FA81F120FA01F747F6C071F0
:1036200091FAA1F1B1FA81F1606988404FF440311B
:1036300091FAA1F1B1FA81F107FA01F108434FF0D3
:10364000706191FAA1F1B1FA81F105FA01F1084333
:103650004FF0E04292FAA2F2B2FA82F2E1699140AE
:10366000084313490860081D006820F44030E16AEF
:1036700008430F49091D08600D488838006840F06C
:1036800080500B4988390860FEF776FD064606E053
:10369000FEF772FD801B642801D903209FE50448D2
:1036A00088380068C0F340700028F1D0002096E50B
:1036B0008838024070B504460D460026664800680A
:1036C00000F00F00A8420ED26348006820F00F00FF
:1036D0002843614908600846006800F00F00A842CE
:1036E00001D0012070BD207800F00200022807D12F
:1036F0005A48006820F0F000A16808435749086064
:10370000207800F00100002860D06068012807D10F
:10371000524808380068C0F34040A0B90120E1E7F2
:103720006068022807D14D4808380068C0F340603F
:1037300048B90120D6E7494808380068C0F340007E
:1037400008B90120CEE74548006820F00300616811
:10375000084342490860FEF70FFD064660680128ED
:1037600010D108E0FEF708FD801B41F28831884245
:1037700001D90320B6E73948006800F00C0004289E
:10378000F0D123E06068022810D108E0FEF7F4FCD5
:10379000801B41F28831884201D90320A2E72F48DB
:1037A000006800F00C000828F0D10FE008E0FEF7F8
:1037B000E3FC801B41F28831884201D9032091E764
:1037C0002648006800F00C000028F0D1224800686C
:1037D00000F00F00A8420ED91F48006820F00F002B
:1037E00028431D4908600846006800F00F00A84201
:1037F00001D0012076E7207800F00400042807D1EA
:103800001648006820F4E050E16808431349086056
:10381000207800F00800082808D11048006820F43B
:103820006040216940EAC1000C49086000F05AF884
:103830000A49096801F0F001F02292FAA2F2B2FA04
:1038400082F2D140064A515CC840064908600F2008
:10385000FEF7D0FF002045E7003C02400838024058
:1038600034480308600302200148006870470000E4
:10387000600302200CB50AA103C9CDE90001FFF7DE
:10388000F3FF0949096801F4E0514FF4E05292FA5C
:10389000A2F2B2FA82F2D1401DF80110C8400CBD6C
:1038A0000000000001020304083802400CB50AA120
:1038B00003C9CDE90001FFF7D7FF0949096801F401
:1038C00060414FF4604292FAA2F2B2FA82F2D14021
:1038D0001DF80110C8400CBD0000000001020304E7
:1038E0000838024070B50021002200230020274C38
:1038F000246804F00C0424B1042C04D0082C41D119
:1039000003E0234840E023483EE0204C241F246885
:1039100004F03F011D4C241F246804F4800484B18A
:103920001C4CB4FBF1F5194C241F246847F6C076F3
:10393000344096FAA6F6B6FA86F6F44005FB04F291
:103940000FE0134CB4FBF1F5104C241F246847F62C
:10395000C076344096FAA6F6B6FA86F6F44005FB31
:1039600004F20A4C241F246804F440344FF4403518
:1039700095FAA5F5B5FA85F5EC40641C6300B2FB39
:10398000F3F001E0024800BF00BF70BD08380240FC
:103990000024F40040787D01F8B504460025002697
:1039A000207800F00100002871D0FD48006800F088
:1039B0000C0004280DD0FA48006800F00C0008281C
:1039C00013D1F748001F006800F48000B0F5800FA5
:1039D0000BD1F34808380068C0F34040002869D094
:1039E0006068002866D10120F8BD00BF6068B0F5AE
:1039F000803F08D1EA480838006840F48030E84940
:103A0000083908602EE0606868B9E5480838006841
:103A100020F48030E249083908600846006820F444
:103A2000802008601EE06068B0F5A02F0DD1DC4852
:103A30000838006840F48020D949083908600846F1
:103A4000006840F4803008600CE0D5480838006811
:103A500020F48030D249083908600846006820F414
:103A60008020086000BF606890B1FEF785FB0546C6
:103A700006E0FEF781FB401B642801D90320B3E771
:103A8000C74808380068C0F340400028F1D011E072
:103A9000FEF772FB054606E0FEF76EFB401B64284E
:103AA00001D90320A0E7BE4808380068C0F34040B1
:103AB0000028F1D1207800F00200022873D1B84824
:103AC000006800F00C0058B1B548006800F00C0028
:103AD000082821D1B248001F006800F48000D8B93E
:103AE000AF4808380068C0F3400020B1E068012802
:103AF00001D0012078E7AA480838006820F0F800D3
:103B0000F82292FAA2F2B2FA82F2216991400843B5
:103B1000A3490839086046E0E06850B3A048083877
:103B2000006840F001009E4908390860FEF724FB58
:103B3000054606E0FEF720FB401B022801D90320C2
:103B400052E7974808380068C0F340000028F1D0D9
:103B500093480838006820F0F800F82292FAA2F2A0
:103B6000B2FA82F22169914008438D490839086010
:103B700019E08B480838006820F0010088490839AE
:103B80000860FEF7F9FA054606E0FEF7F5FA401B75
:103B9000022801D9032027E7814808380068C0F3CC
:103BA00040000028F1D1207800F00800082836D124
:103BB0006069D0B17A486C30006840F00100784903
:103BC0006C310860FEF7D8FA054606E0FEF7D4FA35
:103BD000401B022801D9032006E771486C300068B9
:103BE000C0F340000028F1D019E06D486C30006847
:103BF00020F001006A496C310860FEF7BDFA054605
:103C000006E0FEF7B9FA401B022801D90320EBE6D3
:103C100063486C300068C0F340000028F1D1207880
:103C200000F00400042874D15D483830006800F0CA
:103C3000805080B900BF5A483830006840F080504A
:103C40005749383108600846006800F080500090FD
:103C500000BF00BF01265348006800F48070B0B96F
:103C60005048006840F480704E490860FEF784FABE
:103C7000054606E0FEF780FA401B642801D90320C0
:103C8000B2E64848006800F480700028F2D000BF17
:103C9000A068012808D142486830006840F001005F
:103CA0003F49683108602DE0A06868B93C48683039
:103CB000006820F001003A49683108600846006851
:103CC00020F0040008601DE0A06805280DD13448EC
:103CD0006830006840F004003149683108600846E7
:103CE000006840F0010008600CE02D486830006872
:103CF00020F001002A49683108600846006820F079
:103D00000400086000BFA068A8B1FEF735FA0546B8
:103D100009E02EE0FEF730FA401B41F2883188427C
:103D200001D9032060E61E4868300068C0F34000F7
:103D30000028EFD013E0FEF71FFA054608E0FEF773
:103D40001BFA401B41F28831884201D903204BE61F
:103D5000134868300068C0F340000028EFD1012EFE
:103D600007D10F483830006820F080500C493831B6
:103D70000860A069F0B30A48006800F00C00082849
:103D80007FD0A069022863D105480838006820F078
:103D90008070034908390860FEF7EEF905460AE02D
:103DA0000838024000700040FEF7E6F9401B022888
:103DB00001D9032018E635480068C0F340600028A8
:103DC000F2D1D4E90701084347F6C07292FAA2F291
:103DD000B2FA82F2616A914008430122A16AC2EB01
:103DE00051014FF4403292FAA2F2B2FA82F29140BB
:103DF000084300E047E04FF0706292FAA2F2B2FA94
:103E000082F2E16A914008434FF0E04292FAA2F256
:103E1000B2FA82F2216B914008431C49091D0860E7
:103E2000081F006840F08070091F0860FEF7A4F9C1
:103E3000054606E0FEF7A0F9401B022801D9032041
:103E4000D2E512480068C0F340600028F2D01AE0C2
:103E50000E48006820F080700C490860FEF78CF96D
:103E6000054607E00DE0FEF787F9401B022801D95F
:103E70000320B9E505480068C0F340600028F2D18E
:103E800001E00120B0E50020AEE50000003802406E
:103E900070B504460D460CB9012070BD94F82C0095
:103EA00028B9002084F82D00204600F011F80220E7
:103EB00084F82C00211D2068FDF76CF82946D4E910
:103EC0000002FDF7D1F8012084F82C000020E4E77F
:103ED000704770B504460D4694F82C00022800D1B6
:103EE00070BD022084F82C0029462068FDF78CF86C
:103EF000012084F82C000020F2E770B504460D463E
:103F0000164694F82C00022800D170BD022084F8D7
:103F10002C00324629462068FDF77DF828680228E3
:103F200003D1052084F82C0002E0012084F82C0045
:103F30000020EAE770B504462546681EB0F1807F90
:103F400001D301200FE0681E4FF0E02148610F21EE
:103F50004FF0FF3001F0D2FA00204FF0E0218861ED
:103F600007200861002070BD10B504460CB901207F
:103F700010BDA06900B100E000BF94F8690028B945
:103F8000002084F86800204600F02AF8242084F8F5
:103F900069002068006820F0010021680860204660
:103FA00003F096FA012800D1E2E7606A10B12046DA
:103FB00003F0F2F92068406820F4904021684860DE
:103FC0002068806820F02A002168886020680068E6
:103FD00040F0010021680860204603F052FAC7E76C
:103FE000704700BFFEE701688969C1F3400111B164
:103FF0000021026891620168896901F0010129B913
:104000000168896941F0010102689161704700000F
:1040100070B504460D46164620688069C0F300104E
:10402000002837D013E0681C88B125B1FEF7A4F84A
:10403000801BA8420BD9202084F84100002084F87E
:10404000420000BF84F8400000BF032070BD20681C
:104050008069C0F340100028E5D010202168C861B5
:1040600020202168C8612046FFF7BDFF2068406816
:10407000094908402168486004206064202084F8D1
:104080004100002084F8420000BF84F8400000BFD7
:104090000120DBE70020D9E700E800FEF0B50C4680
:1040A000059D002106687168074E3140C4F309067A
:1040B0004FF47F0707EA02473E431E432E43314336
:1040C00006687160F0BD0000009800FC2DE9F04129
:1040D00004460E4617461D46DDF8188015E0681C9C
:1040E00098B12DB1FEF748F8A0EB0800A8420CD912
:1040F000202084F84100002084F8420000BF84F8AA
:10410000400000BF0320BDE8F08120688069304096
:10411000B04201D1012000E00020B842DFD00020F1
:10412000F1E7000070B504460D46164637E032460A
:1041300029462046FFF76CFF08B1012070BD2068BA
:104140008069C0F34010B0B120202168C8612068A8
:1041500040681749084021684860002060642020BA
:1041600084F84100002084F8420000BF84F8400039
:1041700000BF0120E2E725B1FDF7FEFF801BA8424A
:104180000DD9606C40F020006064202084F841006C
:1041900000BF002084F8400000BF0320CEE7206865
:1041A0008069C0F380000028C1D00020C6E700006D
:1041B00000E800FE70B504460D4616461DE0324686
:1041C00029462046FFF724FF08B1012070BD25B124
:1041D000FDF7D2FF801BA8420FD9606C40F0200091
:1041E0006064202084F84100002084F8420000BF71
:1041F00084F8400000BF0320E8E720688069C0F32E
:1042000040100028DBD00020E0E770B504460D46E2
:1042100016461FE0324629462046FFF7F9FE08B150
:10422000012070BD681CA8B125B1FDF7A5FF801B5A
:10423000A8420FD9606C40F020006064202084F810
:104240004100002084F8420000BF84F8400000BF15
:104250000320E6E720688069C0F340000028D9D039
:104260000020DEE72DE9F05F0E4617461C46DDE92B
:104270000CBADDE90A893046FCF74CFF0546B8F177
:10428000000F02D0B9F1000F01D1BDE8F09F00BFCF
:104290001248006800F001000028F9D10F48C760FB
:1042A0004461C463C0F810B0C0F818A0C0F840A0C2
:1042B000C56145624563484668F31F400749486445
:1042C00000BF0020086008460068086008460068D3
:1042D00040F00100086000BF00BFD6E700B0024018
:1042E0002DE9F05F0E4617461C46DDE90BABDDF805
:1042F0002890DDF83C803046FCF70CFF054600BFF7
:104300001A48006800F001000028F9D11748C7607A
:104310004461C46315490E9808610846C0F81880C6
:10432000C0F84080C56145624563C0694FF4803183
:1043300041EA096108430D49C8610846406A40EAFC
:104340000A6048620D986BF31F40486400BF4FF449
:10435000003008600846006808600846006840F0C1
:104360000100086000BFBDE8F09F000000B00240FF
:104370002DE9F05F0D4616461C46DDE90CB9DDE976
:104380000A782846FCF7C6FE824617B1B8F1000F3E
:1043900001D1BDE8F09F00BF1748006800F00100A0
:1043A0000028F9D11448C6604461C463C0F810B055
:1043B000C0F81890C0F840900E9820F07F400E4949
:1043C00008620920C8610846C0F824A0C0F834A0DB
:1043D000404667F31F40486400BF4FF40030086058
:1043E0000846006808600846006840F00100086060
:1043F00000BF00BFCDE7000000B002402DE9FE4F36
:1044000005460C4616461F46DDE90C8A2979B4F9A3
:10441000122002FB0762606801FB0209608AA0EBC0
:10442000080000B2012143464A46CDE9010A009145
:104430002146284600F0E0F8BDE8FE8F2DE9F05F48
:104440000C461D460AAE96E8C009DDF838902046B5
:10445000FCF760FE824617B1B8F1000F01D1BDE84C
:10446000F09F00BF1748006800F001000028F9D154
:104470001448C5604661C663C0F810B0C0F8189013
:10448000C0F8409002200F49C8610846C0F824A037
:10449000C0F834A0C06940F40010C861404667F31A
:1044A0001F40486400BF4FF40030086008460068B1
:1044B00008600846006840F00100086000BF00BFC7
:1044C000CDE7000000B002402DE9F05F0C461D462C
:1044D0000AAE96E8400E0E9F2046FCF71BFE804673
:1044E00000BF1648006800F001000028F9D1134809
:1044F000C5604661C663C0F810B0876107640120DB
:104500000E49C8610846C0F82480C0F83480C069EC
:1045100040F40010C861504669F31F40486400BF72
:104520004FF40030086008460068086008460068DC
:1045300040F00100086000BFBDE8F09F00B00240FD
:104540002DE9F05F0C461D460AAE96E8400E0E9F20
:104550002046FCF7DFFD804600BF1648006800F0EB
:1045600001000028F9D11348C5604661C663C0F850
:1045700010B08761076400200E49C8610846C0F882
:104580002480C0F83480C06940F44010C8615046AF
:1045900069F31F40486400BF4FF4003008600846CC
:1045A000006808600846006840F00100086000BF2D
:1045B000BDE8F09F00B002402DE9FE4F05460C46D5
:1045C00016461F46DDE90C8A2979B4F9122002FB50
:1045D0000762606801FB0209608A401E00B2012385
:1045E0004A462146CDE9010ACDF80080284600F070
:1045F00003F8BDE8FE8F00002DE9F04782460D4626
:1046000016461C46DDE90989089F04B10FB9BDE8CB
:10461000F08700BF1148006800F001000028F9D1C0
:104620000E48C0F83890C663C0F840802846FCF7B2
:1046300071FD0A494863384664F31F40486400BF6F
:104640004FF440300860084600680860084600687B
:1046500040F00100086000BF00BFD8E700B0024092
:104660002DE9FE4F05460C4616461F46DDE90D9A1C
:10467000DDF830802979B4F9122002FB0762606806
:1046800001FB020B608AA0EB080000B243465A46C9
:104690002146CDE9010ACDF800902846FFF7ACFF8E
:1046A000BDE8FE8F30B5044604480079B1F91250D8
:1046B00005FB032568434D68285830BD888A0220D1
:1046C00010B5044602F0C2F802480349086003F03E
:1046D0005BF910BD00B00240188C022030B58DB0DF
:1046E00004460D46002000904FF4C8700190002051
:1046F00002904FF4F0700390002004900995FF2081
:104700000590002006908DF8300000218DF83110C2
:104710008DF832104FF4C0600790072008904FF4D6
:10472000C8700A904FF4F0700B9022466946024818
:10473000FEF774F80DB030BDEC8802200146034846
:10474000006800F0010080F00100704700B00240F6
:104750002DE9FC4104460D4616461F46DDF8208033
:1047600001203B4632462946CDE900082046FFF7A6
:1047700045FEBDE8FC81000008B505490968014314
:10478000034A1160114609680140009100BF08BD4D
:1047900030380240024909680143014A11607047FC
:1047A00010380240024909688143014A116070478C
:1047B00010380240024909680143014A11607047FC
:1047C00020380240024909688143014A116070475C
:1047D00020380240024909680143014A11607047CC
:1047E00024380240024909688143014A1160704738
:1047F000243802402DE9F04104460D46724E01274F
:1048000015F5803F18D170481038844206D17805DC
:10481000FFF7C0FF7805FFF7C5FFD2E06B48844281
:1048200008D14FF48000FFF7B5FF4FF48000FFF789
:10483000B9FFC6E00027C4E000BF6548405D2058CE
:1048400020F001006249495D605000BF5E481038A9
:10485000844202D10DB95C4877E05C48844203D1C0
:1048600015B95A48103070E057481038844204D1C6
:10487000012D02D15448183067E05448844204D1D5
:10488000012D02D1514828305FE04F481038844252
:1048900004D1022D02D14C48303056E04B488442BE
:1048A00004D1022D02D1494840304EE0464810382C
:1048B000844204D1032D02D14348483045E04348A7
:1048C000844204D1032D02D1404858303DE03E4897
:1048D0001038844204D1042D02D13B48603034E0CA
:1048E0003A48844204D1042D02D1384870302CE07B
:1048F00035481038844204D1052D02D13248783031
:1049000023E03248844204D1052D02D12F4888305B
:104910001BE02D481038844204D1062D02D12A48CC
:10492000903012E02948844204D1062D02D1274854
:10493000A0300AE024481038844204D1072D02D167
:104940002148A83001E02148B830064600203060F8
:104950007060B060F06030612120706100222946F3
:10496000204600F0A3F815B93F20A06029E0012DF2
:1049700003D14FF47460A06023E0022D03D14FF403
:104980007C10A0601DE0032D03D14FF07460A06087
:1049900017E0042D02D13F20E06012E0052D03D185
:1049A0004FF47460E0600CE0062D03D14FF47C10EE
:1049B000E06006E0072D03D14FF07460E06000E096
:1049C00000273846BDE8F0811060024000640240D4
:1049D00070C4010870B504460D461646F06A00B171
:1049E00000BFD6E9021211433269114372691143C3
:1049F000B2691143F2691143B26A41EA02002949DE
:104A0000495D6158284A11400143264A525DA15030
:104A100000BFF06A30B3D6E90B01224A525D22444E
:104A2000526922F0070240EA01031A431D4B5B5D05
:104A300023445A6100BF706B1A49495D615821F0E7
:104A4000C0710143174A525DA15000BFB06B1549B8
:104A5000495D615821F4C0010143124A525DA150E1
:104A600000BF00BF70680F49495D2144C86000BFA6
:104A700030680C49495D2144886000BF306A0949AB
:104A8000495D214449686FF30F010143054A525DB6
:104A90002244516000BF29462046726A00F006F8A1
:104AA000012070BD70C401081F80FCFF10B5054BCC
:104AB0005B5CC35823F0F0531343024C645C035116
:104AC00010BD000070C40108F0B503460A4600247A
:104AD0000021106890FAA0F0B0FA80F47FE0012580
:104AE000A540106800EA0501002977D050681D68CC
:104AF00091FAA1F6B6FA86F677000326BE40B543D2
:104B000091FAA1F6B6FA86F6760000FA06F6354373
:104B10001D6000BF5068012802D05068022814D1DF
:104B200090689D6891FAA1F6B6FA86F6770003269A
:104B3000BE40B54391FAA1F6B6FA86F6760000FAC1
:104B400006F635439D6000BF00BF1069DD6891FA2D
:104B5000A1F6B6FA86F677000326BE40B54391FA71
:104B6000A1F6B6FA86F6760000FA06F63543DD6061
:104B700000BF5068022831D191FAA1F0B0FA80F05C
:104B8000082814D250691D6A91FAA1F6B6FA86F681
:104B9000B7000F26BE40B54391FAA1F6B6FA86F6E5
:104BA000B60000FA06F635431D6200BF16E05069F4
:104BB0005D6A0E0A96FAA6F6B6FA86F6B7000F26D2
:104BC000BE40B5430E0A96FAA6F6B6FA86F6B600C9
:104BD00000FA06F635435D6200BF00BF641C106832
:104BE000E04000287FF47BAF5068012802D0506875
:104BF000022809D1D56810685E68864300FB05F776
:104C00003E435E6000BF00BF0120F0BD2DE9F041D2
:104C100004460025C02C29D1204600F0BDF8B0F58F
:104C2000400F18D0A0F54000403820B1402806D0F1
:104C300080280FD108E000F009FF054615E000F0DC
:104C40007DF900B1504D10E000F080F908B14FF44B
:104C500000450AE000BF00F0F9FE074600F0C2FE82
:104C6000064600F0CFFE054600BF89E0B4F5407F60
:104C70002AD1204600F090F8B0F1407F19D0434986
:104C8000084430B1B0F5807F07D0B0F5007F0FD178
:104C900008E000F0DBFE054615E000F04FF900B13A
:104CA000394D10E000F052F908B14FF400450AE028
:104CB00000BF00F0CBFE074600F094FE064600F071
:104CC000A1FE054600BF5BE0B4F5405F2AD1204657
:104CD00000F062F8B0F1405F19D02D49084430B1BE
:104CE000B0F5805F07D0B0F5005F0FD108E000F0AD
:104CF000ADFE054615E000F021F900B1224D10E0AF
:104D000000F024F908B14FF400450AE000BF00F0BC
:104D10009DFE074600F066FE064600F073FE05465F
:104D200000BF2DE0B4F5404F2AD1204600F034F802
:104D3000B0F1404F19D01749084430B1B0F5804F59
:104D400007D0B0F5004F0FD108E000F07FFE054618
:104D500015E000F0F3F800B10B4D10E000F0F6F8AC
:104D600008B14FF400450AE000BF00F06FFE0746AF
:104D700000F038FE064600F045FE054600BF00BFC5
:104D80002846BDE8F08100000024F40000FFFFFC8D
:104D900000F0FFCF00C0FF3F014603480068084015
:104DA00040EA014070470000903802402DE9F04190
:104DB00004460025032C29D1204600F0B5F8B0F5B3
:104DC000403F18D06FF44031084420B1012806D08C
:104DD00002280FD108E000F039FE054615E000F08A
:104DE000ADF800B14E4D10E000F0B0F808B14FF44E
:104DF00000450AE000BF00F029FE074600F0F2FD82
:104E0000064600F011FE054600BF85E00C2C29D1B6
:104E1000204600F089F8B0F5402F18D0A0F54020CA
:104E2000001F20B1042806D008280FD108E000F0A8
:104E30000DFE054615E000F081F800B1384D10E098
:104E400000F084F808B14FF400450AE000BF00F01C
:104E5000FDFD074600F0C6FD064600F0D3FD054601
:104E600000BF59E0B4F5406F2AD1204600F05CF84D
:104E7000B0F1406F19D02B49084430B1B0F5806FC4
:104E800007D0B0F5006F0FD108E000F0DFFD054658
:104E900015E000F053F800B1214D10E000F056F895
:104EA00008B14FF400450AE000BF00F0CFFD07460F
:104EB00000F098FD064600F0B7FD054600BF2BE068
:104EC000302C29D1204600F02FF8B0F5401F18D023
:104ED000A0F54010103820B1102806D020280FD19E
:104EE00008E000F0B3FD054615E000F027F800B13A
:104EF0000B4D10E000F02AF808B14FF400450AE02D
:104F000000BF00F0A3FD074600F06CFD064600F070
:104F100079FD054600BF00BF2846BDE8F0810000CE
:104F20000024F40000FCFFF3014603480068084039
:104F300040EA014070470000903802400248006893
:104F4000C0F340007047000000380240024800688B
:104F5000C0F340007047000070380240024800680B
:104F600000F03F007047000004380240024800682B
:104F700000F48000704700000438024002480068D6
:104F8000C0F38810704700000438024070B5044632
:104F900001252E48844206D11020FFF71BFC10206B
:104FA000FFF720FC50E02A48844208D14FF400303B
:104FB000FFF700FC4FF40030FFF704FC44E0254805
:104FC000844208D14FF48020FFF7F4FB4FF4802097
:104FD000FFF7F8FB38E02048844206D12020FFF795
:104FE000F9FB2020FFF7FEFB2EE01C48844208D18D
:104FF0004FF40020FFF7DEFB4FF40020FFF7E2FB49
:1050000022E01748844208D14FF48010FFF7D2FB0A
:105010004FF48010FFF7D6FB16E01248844208D107
:105020004FF08040FFF7C6FB4FF08040FFF7CAFB10
:105030000AE00D48844206D14005FFF7BBFB60053E
:10504000FFF7C0FB00E00025284670BD00100140BE
:10505000004400400048004000140140004C004063
:105060000050004000780040007C0040016841F0A2
:1050700001010160704700002DE9F04104460D4632
:1050800000270026204600F09FF800287BD1E96821
:105090006868084329690843A96908432168414AA7
:1050A000114008432060A868616821F44051014321
:1050B000616000BF6869A16821F440710143A1608B
:1050C00000BF3948844204D10320FFF76FFE064633
:1050D0003AE03648844204D10C20FFF767FE0646CA
:1050E00032E03348844204D13020FFF75FFE0646A9
:1050F0002AE03048844205D14FF44060FFF756FE65
:10510000064621E02C48844204D1C020FFF77EFDF2
:10511000064619E02948844205D14FF44070FFF754
:1051200075FD064610E02648844205D14FF44050F4
:10513000FFF76CFD064607E02248844204D14FF495
:105140004040FFF763FD0646EEB12868D8B101275D
:105150003146AA6928684FF0000C0023B2F5004FD1
:1051600012D14FEA410808EB5008B8FBF0F81FFADB
:1051700088FC4FF6F0780CEA0803CCF3420843EAC7
:105180000803E36008E009E001EB5008B8FBF0F821
:105190001FFA88F8C4F80C8000BF00BF3846BDE88D
:1051A000F0810000F369FFEF00100140004400406F
:1051B0000048004000140140004C004000500040F6
:1051C00000780040007C00400146086800F00100C3
:1051D00070474FF416510160002141608160C16049
:1051E0000C210161002141618161704710B50248C5
:1051F000FDF753FB10BD0000EC88022010B50248FB
:10520000FDF74BFB10BD0000EC88022010B51548DF
:10521000154908600846FDF730FB0121124841613D
:1052200081610221C16101624FF4F17181624FF429
:10523000C971416240F2E311016340F29311C1620E
:10524000002180F8341080F8351080F836100020E6
:1052500005494860002104488160C1600161FDF793
:10526000A3FB10BD00680140EC880220F0B50023CC
:10527000002400258E880768FF68C7F30B473E446B
:10528000330406688436802707FB0266766806F4D6
:105290007047066884364FF0800C0CFB026677601E
:1052A0000E680768FF68C7F30B473E44761C1E4331
:1052B000076884370CFB02777E608E890768FF6879
:1052C000C7F30A073E44330406688436802707FB89
:1052D0000266B66806F47047066884360CFB026600
:1052E000B7608E680768FF68C7F30A073E44761CFC
:1052F0001E43076884370CFB0277BE60066884365D
:10530000802707FB0266366926F0070706688436A1
:105310000CFB026637610F69066884360CFB026677
:1053200037613126765C33023226765C34040E7E99
:10533000350606688436802707FB0266B6690027B3
:10534000066884360CFB0266B76191F830601E4334
:1053500026432E43076884370CFB0277BE6106683C
:105360008436802707FB0266766926F0FF07066809
:1053700084360CFB026677614F69066884360CFB45
:105380000266776106688436802707FB0266F76944
:1053900040F20776B743066884360CFB0266F76175
:1053A000D1E907673E43076884370CFB0277FE614B
:1053B00006688436802707FB0266B66A00270668FF
:1053C00084360CFB0266B7624F6A066884360CFBB3
:1053D0000266B7620E690EB9042313E00E69012E4E
:1053E00001D103230EE00E69042E08D00E69022EAF
:1053F00005D00E69032E02D00E69072E01D10223BB
:1054000000E0012306688436802707FB0266F66AFF
:1054100006F0E027066884364FF0800C0CFB02662D
:10542000F762D1E90076F61B5E43F71C0E8D5E43F2
:1054300047EA0647066884360CFB0266F762066890
:105440008436802707FB0266366BF70AFF02066880
:1054500084360CFB02663763CF6A066884360CFB21
:105460000266376306688436D701F65946F00107AD
:10547000066884364FEAC21C46F80C70F0BD00BFC7
:10548000FEE7704700F01F0201219140420992009F
:1054900002F1E022C2F800117047F0B503460C4655
:1054A00003F00701C1F10700042801D9042001E03D
:1054B000C1F107000646081D072801D2002000E0C0
:1054C000C81E05460120B040401E2040A8400127CC
:1054D000AF407F1E17403843F0BD0000024800680F
:1054E000C0F30220704700000CED00E002480068A5
:1054F000C0F30220704700000CED00E010B500285A
:1055000007DA0A07140E054A00F00F031B1FD454D4
:1055100003E00A07130E024A135410BD18ED00E011
:1055200000E400E010B5002807DA0A07140E054A67
:1055300000F00F031B1FD45403E00A07130E024AA6
:10554000135410BD18ED00E000E400E070B505460E
:105550000C46D6490020FBF717FCD5490320FBF782
:1055600013FCD4490020FBF70FFCD3490220FBF7C2
:105570000BFCD0490020FBF707FCD0490020FBF7CB
:1055800003FC0A20FCF7CBFCCD490020FBF7FCFB19
:10559000CC490020FBF7F8FB0A20FCF7C0FCCA4905
:1055A0000020FBF7F1FBC9490020FBF7EDFBC849E0
:1055B0000020FBF7E9FBC7490020FBF7E5FBC649E4
:1055C0000020FBF7E1FBC5490020FBF7DDFBB749F5
:1055D0000020FBF7D9FBC2490020FBF7D5FBC149EE
:1055E0000020FBF7D1FBC0490020FBF7CDFBBF49F2
:1055F0000020FBF7C9FBBE490020FBF7C5FBBD49F6
:105600000020FBF7C1FBBC490020FBF7BDFBBB49F9
:105610000020FBF7B9FBAF490020FBF7B5FBA3491E
:105620000020FBF7B1FBB6490220FBF7ADFBB54903
:105630000020FBF7A9FBB4490020FBF7A5FBB34909
:105640000020FBF7A1FBB2490020FBF79DFBB1490D
:105650000020FBF799FBB0490020FBF795FBA1491F
:105660000020FBF791FBAD490020FBF78DFB9F4924
:105670000020FBF789FBAA490020FBF785FBA9491D
:105680000020FBF781FBA8490220FBF77DFB89493D
:105690000020FBF779FBA5490620FBF775FBA44921
:1056A0000020FBF771FBA3490E20FBF76DFBA2491D
:1056B0000020FBF769FBA1490E20FBF765FBA04921
:1056C0000020FBF761FB9F490A20FBF75DFB9E4929
:1056D0000020FBF759FB9D490020FBF755FB75495E
:1056E0000020FBF751FB9A490A20FBF74DFB994933
:1056F0000020FBF749FB98490F20FBF745FB8C493D
:105700000020FBF741FB95490F20FBF73DFB8A4941
:105710000020FBF739FB92490A20FBF735FB88494B
:105720000020FBF731FB8F490F20FBF72DFB86494B
:105730000020FBF729FB8C490F20FBF725FB8B4949
:105740000020FBF721FB8A490A20FBF71DFB894952
:105750000020FBF719FB88490A20FBF715FB554988
:105760000020FBF711FB85490A20FBF70DFB794967
:105770000020FBF709FB82490F20FBF705FB6C4972
:105780000020FBF701FB7F490F20FBF7FDFA6A4978
:105790000020FBF7F9FA7C490A20FBF7F5FA684983
:1057A0000020FBF7F1FA79490F20FBF7EDFA664983
:1057B0000020FBF7E9FA76490F20FBF7E5FA4949A3
:1057C0000020FBF7E1FA73490020FBF7DDFA72498C
:1057D0000020FBF7D9FA71490020FBF7D5FA704990
:1057E0000020FBF7D1FA6F490020FBF7CDFA2F49D3
:1057F0000020FBF7C9FA6C490320FBF7C5FA2B49D7
:105800000020FBF7C1FA29490020FBF7BDFA6749E0
:105810001020FBF7B9FA25490020FBF7B5FA6449D7
:105820001020FBF7B1FA63490020FBF7ADFA7820AE
:10583000FCF775FB35B1022D09D15F490020FBF75C
:10584000A3FA05E05D490020FBF79EFA00E000BFE7
:1058500000BF012C0BD15A490020FBF795FA59499A
:105860000420FBF791FA58490420FBF78DFA5749B9
:105870000020FBF789FA56490020FBF785FA5549C5
:105880000020FBF781FA54490020FBF77DFA5349C9
:105890000020FBF779FA05490020FBF775FA50491B
:1058A0000020FBF771FA002070BD000063C80108FA
:1058B00034C7010865C8010838C7010867C801086E
:1058C00069C801086BC801086DC801086FC80108E4
:1058D00071C8010873C8010875C8010877C80108B4
:1058E00079C801087BC801087DC801087FC8010884
:1058F00081C8010883C8010885C8010887C8010854
:105900005DC7010889C801088BC801088DC8010856
:105910008FC8010891C8010893C8010895C80108FB
:1059200097C8010899C8010860C7010863C7010842
:105930009BC801086AC701089DC8010879C701080A
:105940009FC8010888C70108A1C80108BDC801088F
:1059500093C70108A3C801089EC70108AEC7010884
:10596000BEC70108C9C70108D9C70108A5C80108F1
:10597000E9C70108A7C80108F4C70108FFC7010863
:105980000AC801081AC801082AC8010835C8010850
:1059900045C80108BFC80108C1C80108C3C801083B
:1059A000C5C80108C7C8010855C801083BC7010898
:1059B0004CC70108A9C80108ABC80108ADC8010857
:1059C000AFC8010859C801085EC80108B1C801087C
:1059D000B3C80108B5C80108B7C80108B9C80108AB
:1059E000BBC80108014600BF0448006800F0F00091
:1059F0000009034A125C21FA02F07047083802409D
:105A000034480308014600BF0548006800F4E05030
:105A1000044A02EB9020027821FA02F0704700005D
:105A20000838024044480308014600BF05480068A2
:105A300000F46040044A02EB5030027821FA02F090
:105A400070470000083802404448030810B500249D
:105A500000BF0B48006800F00C0020B1042804D0FF
:105A6000082808D103E0074C07E0074C05E000F0E8
:105A70000DF8044601E0034C00BF00BF204610BDF6
:105A8000083802400024F40040787D0170B50024FD
:105A90000025FFF76BFA05461DB1B5F5800F04D15F
:105AA00001E00C4C03E00C4C01E00A4C00BF00BFCD
:105AB000FFF754FAB4FBF0F6FFF760FA46430748E5
:105AC000006800F44030012101EB10404000B6FBBB
:105AD000F0F070BD0024F40040787D0104380240ED
