:020000040800F2
:10000000702000207D0200083BB0000829A30008F2
:1000100037B000082D0A00087DCC00080000000061
:10002000000000000000000000000000C101000806
:100030004D0C0008000000001502000875B0000813
:10004000970200089702000897020008970200082C
:100050009702000897020008510C0008F90C0008EC
:10006000150D0008310D00084D0D0008CD0A0008DF
:10007000DD0A0008ED0A0008FD0A00080D0B000863
:100080001D0B00082D0B00089702000897020008BE
:10009000970200089702000897020008690D0008FF
:1000A00097020008970200089702000897020008CC
:1000B00097020008970200089702000897020008BC
:1000C00097020008970200089702000897020008AC
:1000D00097020008D5CB0008F9CB000825CC000812
:1000E0006D0C0008970200089702000897020008AC
:1000F0009702000897020008970200083D0B0008CD
:10010000970200089702000897020008970200086B
:10011000BDC70008E9C70008970200089702000859
:10012000CD0B0008DD0B0008ED0B0008FD0B0008EF
:100130000D0C0008970200089702000897020008BB
:10014000970200089702000897020008970200082B
:100150001D0C00082D0C00083D0C000851CC0008B7
:10016000970200089702000897020008970200080B
:1001700097020008970200089702000897020008FB
:10018000970200089702000815C8000841C8000837
:1001900097020008970200089702000897020008DB
:1001A00015AE0008970200084D0B0008DFF80CD0D0
:1001B00000F034FB004800470519010870200020BA
:1001C0002B4B19680868B0E8F04F80F30988BFF33B
:1001D0006F8F4FF0000080F311887047000000001F
:1001E00006480068006880F3088862B661B6BFF30D
:1001F0004F8FBFF36F8F00DF00BF00BF08ED00E03F
:10020000DFF80C00016841F470010160704700BF25
:1002100088ED00E0EFF30980BFF36F8F144B1A688D
:100220001EF0100F08BF20ED108A20E9F04F10607B
:1002300008B44FF0500080F31188BFF34F8FBFF325
:100240006F8F11F035FF4FF0000080F3118808BC6C
:1002500019680868B0E8F04F1EF0100F08BFB0EC46
:10026000108A80F30988BFF36F8F704700BF00BF0B
:1002700018030020EFF30580704700000648804710
:1002800006480047FEE7FEE7FEE7FEE7FEE7FEE77B
:10029000FEE7FEE7FEE7FEE77DB00008AD010008DF
:1002A00040EA01039B0703D009E008C9121F08C0F8
:1002B000042AFAD203E011F8013B00F8013B521E78
:1002C000F9D27047D2B201E000F8012B491EFBD2EF
:1002D00070470022F6E710B513460A460446194651
:1002E000FFF7F0FF204610BD10B5044604E00B7880
:1002F00000F8013B03B1491C521EF8D2204610BD44
:10030000421C10F8011B0029FBD1801A704710B560
:10031000002200E0521C835C8C5CA34201D1002BC4
:10032000F8D1D8B2E1B2401A10BD034611F8012B42
:1003300000F8012B002AF9D11846704700F000425E
:1003400030F000400AD0C10D01F56071C0F3160015
:1003500042EA0151C208400711437047002001469C
:10036000704701F0004330B421F0004150EA01022F
:1003700006D00A0DA2F56072C1F31301002A02DC57
:1003800030BC00207047440F44EAC104C100E018AB
:1003900030BC00EBC25000F031B82DE9F05F0546EB
:1003A000002092469B4688460646814640241BE034
:1003B000284641464746224600F051FA53465A46DF
:1003C000C01A914110D311461846224600F038FA5F
:1003D0002D1A67EB01084F4622460120002100F04C
:1003E0002FFA17EB00094E41201EA4F10104DFDCB7
:1003F000484631462A464346BDE8F09F0029A8BF3B
:100400007047401C490008BF20F00100704710B43D
:10041000B0FA80FC00FA0CF050EA010404BF10BCF2
:10042000704749B1CCF1200421FA04F411FA0CF11F
:1004300018BF012121430843A3EB0C01CB1D4FEA58
:1004400000614FEA102042BF002010BC704700EB53
:10045000C35010440029A4BF10BC7047401C490081
:1004600008BF20F0010010BC70472DE9FE4F804608
:1004700081EA0300C00F0C46009021F0004123F0F8
:100480000045B8EB0200A94105D2404621469046FE
:100490001C460B46024623F00040104347D0270D70
:1004A000C7F30A00C3F30A510290401A0190402892
:1004B0006BDAC3F3130040F4801B0098924620B11E
:1004C0000023D2EB030A63EB0B0B01985946C0F1F2
:1004D0004002504600F0B4F906460D4650465946D3
:1004E000019A00F0CCF910EB08006141002487EA82
:1004F000115284EAE7731A4340D0009A62B3019A1A
:10050000012A4FEA075215DC001B61EB02014FF094
:10051000004202EA0752CDE90042001C41F5801179
:1005200032462B4600F0CCF903B0BDE8F08F4046D0
:100530002146F9E7001B61EB0201001C41F5801325
:1005400000185B412018A2F5001747EB030140EAB1
:10055000D570B6196D4111E06D084FEA360645EACF
:10056000C0754FEA0752001B61EB0201001C41F508
:10057000801149084FEA30000019514132462B469C
:1005800003B0BDE8F04F00F08CB9009801224000A4
:100590000023D0EB020263EBE073009821464FEAA0
:1005A000E074B8EB000061EB0401E9E783F000437D
:1005B0005BE781F0004158E72DE9FE4F81EA030433
:1005C00004F0004421F0004100944FF0000B23F0B0
:1005D000004350EA01045ED052EA03045BD0C3F347
:1005E0000A54C1F30A552C44A4F2F3340194A0FB3D
:1005F0000254C1F3130141F48011C3F3130343F414
:10060000801301FB024400FB034E840A970A44EA6C
:10061000815447EA8357A4FB076802958D0A05FBBE
:1006200007854FEA932C04FB0C542705029D4FEAE3
:10063000065847EA1637B5EB08056EEB070C870E30
:10064000920E47EA811742EA8312A7FB0201B6EB3A
:100650000B0164EB00042B0D43EA0C335E1844EBF2
:100660001C50DA465146E7FB0201C5F313044FEA7A
:100670000B3343EA14534FEA0432019C43EA060366
:10068000A4F10C040294009CCDE900B400F018F928
:1006900003B0BDE8F08F00200146F9E72DE9F04DE9
:1006A00081EA030404F0004B21F0004514464FF0AA
:1006B000000A23F0004150EA050220D054EA01026A
:1006C0001DD0C5F30A570246C5F31303C1F3130047
:1006D000C1F30A5640F4801543F48013A7EB0608D3
:1006E000101BD64608F2FD3873EB050002D308F163
:1006F000010801E092185B41B8F1000F03DA002015
:100700000146BDE8F08D00204FF480110646844676
:100710000EE0171B73EB050705D3121B63EB0503F4
:1007200006434CEA010C49084FEA300092185B413D
:1007300050EA0107EDD152EA030012D082EA040028
:1007400083EA0501084305D0101BAB4106D2012204
:10075000002306E000224FF0004302E06FF00102A8
:1007600053101AEB06004CEB085110EB0A0041EB5A
:100770000B01BDE8F04D00F094B82DE9F04D0023D9
:100780001A461B1A8A4103DB00200146BDE8F08DA2
:10079000C1F30A52C1F3130141F480154FF0000B6D
:1007A000D10702D100186D41521E0027044640F2C5
:1007B000FF11384601EB620A3E46804602460020A1
:1007C0004FF4801100F04BF8C2197141BB1846EB91
:1007D0000100B4EB030C75EB000C04D3E41A65EBD9
:1007E000000517460E46241908F101006D418046A8
:1007F0003428E3DDF91946EB0600091BA84103D2B2
:100800004FF0FF32134601E0002213461BEB0700B6
:1008100046EB0A51BDE8F04D00F043B8064C074DD9
:1008200006E0E06840F0010394E8070098471034C0
:10083000AC42F6D3FFF7BEFC002F0308202F0308BD
:10084000202A04DB203A00FA02F100207047914090
:10085000C2F1200320FA03F3194390407047202A85
:1008600004DB203A21FA02F00021704721FA02F35A
:10087000D040C2F120029140084319467047202A17
:1008800006DBCB17203A41FA02F043EAE07306E0B8
:1008900041FA02F3D040C2F12002914008431946C8
:1008A000704710B5141E73F1000408DA401C41F1C2
:1008B000000192185B411A4301D120F0010010BDE4
:1008C0002DE9F04D92469B4611B1B1FA81F202E05A
:1008D000B0FA80F220329046FFF7B2FF04460F468E
:1008E00040EA0A0041EA0B0153465A46084313D036
:1008F000114653EA010019D0C8F140025046FFF7F3
:10090000AEFF05460E46504659464246FFF798FF51
:10091000084305D0012004E020463946BDE8F08DAB
:100920000020054346EAE0762C4337430A986305E6
:10093000E40AA0EB08000022FD0A44EA47540A300A
:1009400002D500200146E9E7010510196941DDE9FA
:10095000084500196941BDE8F04DA2E70EB5C10F89
:1009600080EAE0700844CA07002140F233438DE872
:100970000E000A460B46FFF7A3FF03B000BD0EB5FD
:1009800040F2334102910021CDE900110A460B46A5
:10099000FFF796FF03B000BD70B5C1F30A5201F036
:1009A00000450024C1F3130140F2FF3341F48011EC
:1009B0009A4201DA002070BD40F233439A42A2F21B
:1009C000334203DC5242FFF74AFF00E090402C43E1
:1009D000F1D0404270BD70B58C1810F8015B15F075
:1009E000070301D110F8013B2A1106D110F8012BA1
:1009F00003E010F8016B01F8016B5B1EF9D12B07C6
:100A000005D40023521E0DD401F8013BFAE710F87B
:100A1000013BCB1A921C03E013F8015B01F8015B68
:100A2000521EF9D5A142D8D3002070BD00BFFEE709
:100A30002DE9F04320222023234E4FF48078B8FB89
:100A4000F2F7B8FBF3FC00213AE00FFA81F80FFA55
:100A500083F9B8EB090806D50FFA83F80FFA81F984
:100A6000A8EB090805E00FFA81F80FFA83F9A8EB63
:100A7000090808FB0CF500201FE00FFA80F80FFAB8
:100A800082F9B8EB090806D50FFA82F80FFA80F957
:100A9000A8EB090805E00FFA80F80FFA82F9A8EB35
:100AA00009084FEA880808FB07F404FB05F84FEA39
:100AB000182886F80080761C401C4028DDD3491C8D
:100AC0004029C2D3BDE8F083D205002010B502480A
:100AD0000AF023FC10BD00001060024010B502486F
:100AE0000AF01BFC10BD00002860024010B502484F
:100AF0000AF013FC10BD00004060024010B502482F
:100B00000AF00BFC10BD00005860024010B502480E
:100B10000AF003FC10BD00007060024010B50248EE
:100B20000AF0FBFB10BD00008860024010B50248CF
:100B30000AF0F3FB10BD0000A060024010B50248AF
:100B40000AF0EBFB10BD0000B860024010B502488F
:100B500007F0AAFE10BD0000381800201649C96829
:100B6000486800BF1549096801F001010029F9D161
:100B70004FF40031114A11601149D16011464861AA
:100B8000C863002111610C49B1F9041080399161E9
:100B90000C4911620849B1F90410803911640A2125
:100BA000D1610221516251630749516411460968BC
:100BB00041F00101116070471417002000B002409D
:100BC000D20500200000FF804000800010B50248E0
:100BD0000AF0A3FB10BD00001064024010B50248EB
:100BE0000AF09BFB10BD00002864024010B50248CB
:100BF0000AF093FB10BD00004064024010B50248AB
:100C00000AF08BFB10BD00005864024010B502488A
:100C10000AF083FB10BD00007064024010B502486A
:100C20000AF07BFB10BD00008864024010B502484A
:100C30000AF073FB10BD0000A064024010B502482A
:100C40000AF06BFB10BD0000B86402407047000062
:100C500010B50548006800F0010020B101200249EC
:100C600008600AF099FC10BD143C014010B5214801
:100C7000006800F4806028B14FF480601D4908606E
:100C80000AF08AFC1B48006800F4006028B14FF4A9
:100C90000060184908600AF07FFC1648006800F4FC
:100CA000805028B14FF48050124908600AF074FC5B
:100CB0001048006800F4005028B14FF400500D496E
:100CC00008600AF069FC0B48006800F4804028B115
:100CD0004FF48040074908600AF05EFC0548006850
:100CE00000F4004028B14FF40040024908600AF0C7
:100CF00053FC10BD143C014010B50548006800F0DD
:100D0000020020B10220024908600AF045FC10BD33
:100D1000143C014010B50548006800F0040020B103
:100D20000420024908600AF037FC10BD143C014061
:100D300010B50548006800F0080020B108200249FD
:100D400008600AF029FC10BD143C014010B50548AC
:100D5000006800F0100020B11020024908600AF07D
:100D60001BFC10BD143C014010B51A48006800F08F
:100D7000200020B12020174908600AF00DFC15481A
:100D8000006800F0400020B14020124908600AF0DD
:100D900003FC1048006800F0800020B180200D495D
:100DA00008600AF0F9FB0B48006800F4807028B175
:100DB0004FF48070074908600AF0EEFB05480068B0
:100DC00000F4007028B14FF40070024908600AF086
:100DD000E3FB10BD143C014030B502460023002463
:100DE0000868012816D013686FF30E03D1E90105D6
:100DF0002843CD6828430D6928434D6928438D69F0
:100E00002843CD6928430D6A28434D6A284303438C
:100E1000136019E0136823F4F843D1E90705284368
:100E20004D6A2843034354686FF30E04D1E901056A
:100E30002843CD6828430D6928434D6928438D69AF
:100E40002843044313605460002030BD02465069BB
:100E500040EA4100506100207047F8B506460C4654
:100E60001546002000900027D4E900010843A1683E
:100E7000491E40EA4110E16840EA41200090009894
:100E8000306107F0E1FD074609E0681C38B125B183
:100E900007F0DAFDC01BA84201D90320F8BDB069F4
:100EA00000F020000028F0D100BFF7E770B503463E
:100EB000154600220024012D1FD09A6802F07042CE
:100EC0000868401E4E68761E40EA06168868401E76
:100ED00046EA0026C868401E46EA0036088A401ED8
:100EE00046EA0046888A401E46EA0056087E401EB2
:100EF00046EA006002439A6022E09A681148024084
:100F0000C868401E0603888A401E46EA0050024315
:100F1000DC6804F070440868401E4E68761E40EAA3
:100F200006168868401E46EA0026088A401E46EAE1
:100F30000046087E401E46EA006004439A60DC607A
:100F4000002070BDFF0F0FFF30B50146002409B926
:100F5000002030BD4A688B689A4201D10C6806E0D7
:100F6000934201D99C1A02E0D51A0868441B601EFE
:100F7000EFE730B5014609B9002030BD4A688B68FB
:100F80009A4201D1002406E09A4201D9D41A02E023
:100F90009D1A0868441B2046EFE770B504460D46CD
:100FA00016460CB9012070BD18212046FFF791F9B3
:100FB0002560E6600A206074E06868B9284610F091
:100FC000BFFDE060E06818B9002020600120EAE77A
:100FD000207C40F002002074207C40F0010020744E
:100FE0000020E0E72DE9F0470446894615464FF01A
:100FF0000008CA4604B115B90020BDE8F087216891
:10100000A068884201D30020A0602046FFF7B1FF0E
:101010000746AF4203D20FB90020EEE73D46A16874
:101020002068461AAE4200D92E46D4E90220811823
:1010300032465046FFF734F9B044A0683044A0600F
:10104000AD1B35B10AEB08002A46E168FFF728F925
:10105000A5602168A068884201D30020A06008EB49
:101060000500CAE72DE9F0470446894615464FF0CA
:101070000008CA4604B115B90020BDE8F087D4E9DC
:101080000010884201D3002060602046FFF75CFF1B
:101090000746AF4203D20FB90020EEE73D46D4E940
:1010A0000001461AAE4200D92E466268E1688818EF
:1010B00032465146FFF7F4F8B0446068304460604F
:1010C000AD1B35B10AEB08012A46E068FFF7E8F8E6
:1010D0006560D4E90010884201D30020606008EB0D
:1010E0000500CAE72DE9F04F8BB004468A46164644
:1010F0009B4600BF1CB194492069884208D0492210
:1011000092A19CA00BF09CFE00200BB0BDE8F08FDC
:1011100000BFBAF1090F71D006DCBAF1010F0AD095
:10112000BAF1040F6BD10BE0BAF10A0F68D0BAF133
:10113000110FF7D1E3E020460DF0E4F90120E4E7D8
:101140000A9620460DF0DBFA074620460DF0FCFA21
:10115000804620460DF04AFC814620460DF01AFBE1
:10116000054694F8300000F08000F0B1A06C10B19A
:10117000A06C006808E02069006918B12069006966
:10118000006801E04FF07F400990A06C10B1A06CA6
:10119000406808E02069006918B12069006940686A
:1011A00001E04FF07F40089044E094F8300000F0F8
:1011B0000800F0B1A06C10B1A06C406808E0206994
:1011C000006918B120690069406801E04FF07F4074
:1011D0000990A06C10B1A06C006808E0206900695B
:1011E00018B120690069006801E04FF07F40089065
:1011F00020E0A06C28B1A06C40680BE09BE0A0E070
:101200009AE02069006918B120690069406801E02E
:101210004FF07F400890A06C10B1A06C006808E00F
:101220002069006918B120690069006801E04FF089
:101230007F40099094F8300000F08000E0B1291F51
:1012400009B20998CDE90010A9F1040003B208F130
:10125000020002B2B81C01B20A9800F02EFE94F807
:101260003000C0F3C0004B4642463946CDE900503D
:101270000A9801F00BF817E0B4F9521009984B46A0
:101280004246CDE90051029039460A9800F027FE07
:10129000B4F9521008984B464246CDE900510290ED
:1012A00039460A9801F046F820460DF01FFD20B39C
:1012B00001A800F0BFFC781C00B2ADF8040008F1F2
:1012C000010000B2ADF80600A9F1020000B2ADF8CD
:1012D0000800A81E00B2ADF80A0012208DF80C001C
:1012E000BDF80800ADF812000898059001ABD4E9EC
:1012F0000D120A9801F0C2F900BF012005E735463A
:1013000028780D2802D028780A2812D1606930B1D7
:1013100000231A460E2120466769B84706E0206977
:1013200000231A460E21C7682046B84700208BF8D4
:1013300000000120E9E600BF20460DF0F9FB012086
:10134000E3E60020E1E600005C3101082E2E5C306F
:10135000302D4755495F4C4942524152595C77699B
:1013600064676574735C6775695F627574746F6ECA
:101370002E63000041737365727420706172616D39
:10138000206661696C656420696E2066696C652001
:10139000257320616E64206C696E652025640D0ADA
:1013A000000000002DE9F04F87B004460D461646B8
:1013B0001F46DDE912ABDDE9108933462A46214696
:1013C00004488DE8800F0CF091FF0690069807B056
:1013D000BDE8F08F5C3101082DE9F04F8DB0044677
:1013E000894692469846B9F1040F06D0B9F10B0F21
:1013F0007ED0B9F10E0F7CD178E1CDF830A0204637
:101400000DF07DF90A9020460DF09EF983462046A6
:101410000DF0ECFA099020460DF0BCF90890142567
:101420000A9E0899481B00EBD0710BEB61010FB2CB
:1014300094F8500000F0020078B1A06C10B1A06CDC
:10144000C06808E02069006918B120690069C068B7
:1014500001E04FF07F400B900EE0A06C10B1A06C4B
:10146000006808E02069006918B120690069006817
:1014700001E04FF07F400B90A91E09B20B98CDE917
:101480000010A81E03B2781C02B2701C01B20C98A6
:1014900000F013FD01202B463A463146CDE90050BD
:1014A0000C9800F0F3FE94F8300000F01000D0B17A
:1014B000A06C10B1A06C406808E02069006918B108
:1014C00020690069406801E04FF07F40291F09B2A0
:1014D000CDE90010281F03B2B81C02B2B01C01B243
:1014E0000C9800F0A4FE94F8500000F0010001E018
:1014F000EEE006E1002878D0A06C10B1A06C406846
:1015000008E02069006918B120690069406801E0BD
:101510004FF07F407919491F09B2CDE900107019C9
:10152000801F03B2781D02B2301D01B20C9800F08A
:10153000D3FDA06C10B1A06C406808E02069006980
:1015400018B120690069406801E04FF07F407919C7
:10155000491F09B2CDE900107019401F03B2381DB0
:1015600002B2301D01B20C9800F0B6FDA06C10B1B3
:10157000A06C406808E02069006918B12069006922
:10158000406801E04FF07F407919891F09B2CDE929
:1015900000107019401F03B2381D02B2701D01B255
:1015A0000C9800F099FDA06C10B1A06C406808E0A8
:1015B0002069006918B120690069406801E04FF0B6
:1015C0007F40391D09B2CDE900107019801F03B2A8
:1015D0007819801F02B2301D01B20C9800F07CFD1A
:1015E000A06C18B1A06C406809E034E02069006983
:1015F00018B120690069406801E04FF07F40391D53
:1016000009B2CDE900107019401F03B27819401FCC
:1016100002B2301D01B20C9800F05EFDA06C10B15A
:10162000A06C406808E02069006918B12069006971
:10163000406801E04FF07F40791D09B2CDE900100C
:101640007019401F03B27819401F02B2701D01B219
:101650000C9800F041FD20460DF048FBA0B301A816
:1016600000F0E8FA7019401D00B2ADF804000BF16B
:10167000010000B2ADF806000998401B401F00B2FF
:10168000ADF808000898801E00B2ADF80A001120DD
:101690008DF80C00BDF80800ADF81200A06C10B178
:1016A000A06C006908E02069006918B12069006930
:1016B000006901E04FF07F40059001ABD4E90D12C5
:1016C0000C9800F0DBFF00BF01200DB0BDE8F08FEB
:1016D00094F8500000F0020018B1012088F80000D2
:1016E00002E0002088F800000120EEE794F85000A6
:1016F00000F0010080F0010120460EF07FFA012089
:10170000E3E70020E1E700002DE9F04F87B0044651
:101710000D4616461F46DDE912ABDDE9108933465A
:101720002A46214604488DE8800F0CF0DFFD069024
:10173000069807B0BDE8F08FF831010870B504468F
:1017400000BF1CB108492069884206D0E42207A1E5
:1017500011A00BF075FB002070BD00BF94F8500085
:1017600000F001052846F7E7F83101082E2E5C301D
:10177000302D4755495F4C4942524152595C776977
:1017800064676574735C6775695F636865636B62E2
:101790006F782E63000000004173736572742070CF
:1017A0006172616D206661696C656420696E206696
:1017B000696C6520257320616E64206C696E6520FC
:1017C00025640D0A0000000070B504460D4600BFF8
:1017D0001CB109492069884206D0D82207A112A06D
:1017E0000BF02EFB002070BD00BF294620460EF0F6
:1017F00005FA06463046F6E7F83101082E2E5C3031
:10180000302D4755495F4C4942524152595C7769E6
:1018100064676574735C6775695F636865636B6251
:101820006F782E630000000041737365727420703E
:101830006172616D206661696C656420696E206605
:10184000696C6520257320616E64206C696E65206B
:1018500025640D0A000000002DE9F04104460D4604
:10186000164600BF1CB10A492069884207D0CC2225
:1018700008A113A00BF0E4FA0020BDE8F08100BF3E
:101880003246294620460DF0A3FB07463846F4E7CA
:10189000F83101082E2E5C30302D4755495F4C49F8
:1018A00042524152595C776964676574735C67752D
:1018B000695F636865636B626F782E630000000088
:1018C00041737365727420706172616D2066616925
:1018D0006C656420696E2066696C652025732061E3
:1018E0006E64206C696E652025640D0A000000009E
:1018F0002DE9F04104460D461746984600BF1CB13D
:101900000E492069884207D069220DA116A00BF06C
:1019100097FA0020BDE8F08100BF012D0BD1A66829
:1019200002E030460BF020FF30460BF045FF002868
:10193000F7D10120EEE70020ECE70000B832010803
:101940002E2E5C30302D4755495F4C494252415252
:10195000595C776964676574735C6775695F64690E
:10196000616C6F672E630000417373657274207041
:101970006172616D206661696C656420696E2066C4
:10198000696C6520257320616E64206C696E65202A
:1019900025640D0A000000002DE9F04F87B00446D1
:1019A0000D4616461F46DDE912ABDDE910894BF006
:1019B000010033462A4621468DE8800704900448FA
:1019C0000CF094FC0690069807B0BDE8F08F00007C
:1019D000B83201082DE9F3410446002600BF1CB1CE
:1019E00018492069884207D09F2217A120A00BF038
:1019F00027FA0020BDE8FC8100BF012110200CF077
:101A0000F9F90546DDB1A068A8600198E8602946AB
:101A100023480BF0B7FF606930B1002301AA1621FB
:101A200020466769B84706E02069002301AA16210D
:101A3000C7682046B84720460DF06CFA01263046AC
:101A4000D8E70000B83201082E2E5C30302D475503
:101A5000495F4C4942524152595C776964676574E9
:101A6000735C6775695F6469616C6F672E63000002
:101A700041737365727420706172616D2066616973
:101A80006C656420696E2066696C65202573206131
:101A90006E64206C696E652025640D0A00000000EC
:101AA0008C0300202DE9FC4107460D46164698465A
:101AB000089C0120434632462946CDE900043846B9
:101AC00000F021F80220CDE90004681E01B243466F
:101AD0003246384600F017F80820CDE90004701EA1
:101AE00002B243462946384600F00DF80420CDE9FD
:101AF0000004701E02B2681E01B24346384600F070
:101B000002F8BDE8FC812DE9FC5F81460C461546D4
:101B10009846DDF830A0C8F101000FFA80FB0120E3
:101B200001904FEA4800404200B20090002746462C
:101B3000A4EB0800B9F90410884211DCA5EB0800F9
:101B4000B9F9061088420BDCB9F9000004EB080172
:101B5000884205DCB9F9020005EB0801884201DD85
:101B6000BDE8FC9F62E0BBF1000F09DB701E06B20E
:101B70000098801C00B20090009858440FFA80FB37
:101B8000781C07B20198801C00B20190019858445B
:101B90000FFA80FB0AF0010078B1E81B02B2A01B2B
:101BA00001B248460D9B00F0F9FCA81B02B2E01BF5
:101BB00001B248460D9B00F0F1FC0AF0020078B13A
:101BC000A81B02B2E01901B248460D9B00F0E6FCEA
:101BD000E81B02B2A01901B248460D9B00F0DEFCE2
:101BE0000AF0040078B1A81902B2E01901B248461F
:101BF0000D9B00F0D3FCE81902B2A01901B24846CF
:101C00000D9B00F0CBFC0AF0080078B1A81902B2D5
:101C1000E01B01B248460D9B00F0C0FCE81902B27F
:101C2000A01B01B248460D9B00F0B8FCB7429ADBFE
:101C300000BF95E710B504461C212046FEF749FB7E
:101C400010BD00002DE9FE4304460D4616461F4612
:101C5000DDE90A89B4F90400A8420EDBB4F90600F4
:101C6000B0420ADBB4F90000E919884205DCB4F996
:101C7000020006EB0801884201DDBDE8FE83002F6B
:101C800002DDB8F1000F00DCF7E7B4F90000A8426C
:101C900005DD2088401B381A07B2B4F90050B4F9AA
:101CA0000200B04207DD6088801BA8EB00000FFA3D
:101CB00080F8B4F90260E819B4F90410884202DD32
:101CC000A088401B07B206EB0800B4F90610884252
:101CD00003DDE088801B0FFA80F8002F14DDB8F1D7
:101CE000000F11DD09488DE880030069008B301A70
:101CF00003B206480069C08A281A02B20348016983
:101D0000D0F844C0001DE04700BFB6E7141700201C
:101D10002DE9FC4106460F4615469846089C0120D1
:101D200043462A463946CDE90004304600F01FF804
:101D3000022043462A463946CDE90004304600F0E9
:101D400016F80820CDE90004681E02B24346394661
:101D5000304600F00CF80420CDE90004681E02B201
:101D600043463946304600F002F8BDE8FC812DE9D3
:101D7000FF5F8246894614461F46DDE90EB8C7F16B
:101D8000010000B20390012002907800404200B2AE
:101D9000019000263D46BAF9000009EB0701884290
:101DA0000FDCBAF90200E11988420ADCA9EB07004E
:101DB000BAF90410884204DCE01BBAF90610884224
:101DC00001DDBDE8FF9F74E0039800280ADB681E70
:101DD00005B20198801C00B2019001990398084453
:101DE00000B20390701C06B20298801C00B20290F0
:101DF000DDE90210084400B203900BF00100A8B125
:101E0000601B02B2A9EB060001B233465046CDF882
:101E1000008000F01DF9A01B02B2A9EB050001B281
:101E20002B465046CDF8008000F012F90BF002006E
:101E300088B1601B02B2334649465046CDF8008057
:101E400000F006F9A01B02B22B4649465046CDF8D9
:101E5000008000F0FDF80BF00800A8B1A01902B254
:101E6000A9EB050001B22B465046CDF8008000F0EA
:101E7000EFF8601902B2A9EB060001B233465046F2
:101E8000CDF8008000F0E4F80BF0040088B1A01950
:101E900002B22B4649465046CDF8008000F0D8F8F3
:101EA000601902B2334649465046CDF8008000F032
:101EB000CFF8AE4288DB00BF83E72DE9FC4704463C
:101EC0000D4616461F46DDE90A893B46324629463D
:101ED0002046CDE90089FFF7B5FEBDE8FC872DE976
:101EE000FC478246884691461E46DDE90B470A9D1F
:101EF00005EBD571B4EB610F05DB284605EBD0711E
:101F00004910491E0CB206EBD671B4EB610F05DB2C
:101F1000304606EBD0714910491E0CB2002C75D02A
:101F2000022000FB146000B200280CDD022000FB40
:101F3000146003B208EB040001B24A465046CDE9F2
:101F40000057FFF7BAFF022000FB145000B2002830
:101F50001EDD022000FB145000B2CDE9000709EBA2
:101F6000040002B2234641465046FFF7A6FF022076
:101F700000FB145000B2CDE9000709EB040002B2E7
:101F800008EB0600001B01B223465046FFF795FF01
:101F90000120CDE9000709EB040002B208EB0400C0
:101FA00001B223465046FFF7E2FE0220CDE90007CA
:101FB00009EB040002B208EB0600001B401E01B250
:101FC00023465046FFF7D3FE0820CDE9000709EB72
:101FD0000500001B401E02B208EB040001B22346BC
:101FE0005046FFF7C4FE0420CDE9000709EB0500C9
:101FF000001B401E02B208EB0600001B401E01B28F
:1020000023465046FFF7B3FE08E0FFE733464A4653
:1020100041465046CDE90057FFF74FFFBDE8FC872A
:102020002DE9F04107460C46154608480069008B2B
:10203000281A03B205480069C08A201A02B2034870
:102040000169C66A001DB047BDE8F0811417002081
:102050002DE9FC4104460D4617461E46DDF820805A
:10206000B4F90600B8420CDDB4F90200B84208DC4D
:10207000B4F90400A84204DBA819B4F9001088429E
:1020800001DABDE8FC81B4F90000A84205DD208832
:10209000401B301A06B2B4F90050A819B4F9041064
:1020A000884202DDA088401B06B20A48CDE90068DC
:1020B0000069008B381A03B206480069C08A281AE2
:1020C00002B204480169D0F83CC0001DE04700BFDF
:1020D000D7E70000141700202DE9FF4F8BB00F4603
:1020E00090469946DDF860A000240025A346002014
:1020F0000A90099008900790069000260590049099
:1021000003900290B9EB070002D4A9EB070001E0AD
:10211000A7EB090004B2BAEB080002D4AAEB08004E
:1021200001E0A8EB0A0005B27CB919980090D045EF
:1021300001DA404600E0504602462B4639460B98ED
:1021400000F058FA0FB0BDE8F08F6DB91998009003
:102150004F4501DA384600E04846014623464246EC
:102160000B98FFF775FFEDE7BB46CDF82880B94522
:1021700003DB01200990089003E04FF0FF30099045
:102180000890C24503DB01200790069003E04FF062
:10219000FF3007900690AC420CDB002009900690BF
:1021A0002646204604EBD071491009B205910495EA
:1021B00003940BE00020089007902E46284605EB7C
:1021C000D071491009B20591049403950020029042
:1021D00027E05946199BDDE90A2000F0DFF9DDE927
:1021E0000410084400B205900598B0420CDB059835
:1021F000801B00B20590099858440FFA80FB07999C
:102200000A98084400B20A90089858440FFA80FBD4
:1022100006990A98084400B20A900298401C00B23D
:102220000290DDE902018842D3DD00BF8AE72DE993
:10223000F84381460F4690461D46DDE9086405B126
:102240000EB9BDE8F8832B4642463946484600940D
:10225000FFF7FEFE3346424639464846009400F0FA
:10226000C9F908EB0600401E02B22B463946484623
:102270000094FFF7EDFE7819401E01B23346424646
:102280004846009400F0B6F900BFDAE72DE9FF4FA9
:1022900083B00C4615461E46DDE9107A4FF07F4BA1
:1022A000BAF1000F04D1DFF884804FEAF87903E037
:1022B000DFF87C80DFF8749033462A462146CDE96A
:1022C000007B0398FFF7B3FFB01E03B2681C02B295
:1022D000601C01B2CDF800800398FFF7B9FEF81E2C
:1022E00003B2681C02B2601C01B2CDF800800398F2
:1022F00000F080F9B01E03B2E819801E02B2601C23
:1023000001B2CDF800900398FFF7A2FE381F03B288
:10231000A019801E01B2A81C02B2CDF8009003984B
:1023200000F068F907B0BDE8F08F0000AAAAAAFF84
:10233000555555FF2DE9FC478246884691461D4676
:10234000DDE90B470A9E06EBD671B4EB610F05DBA6
:10235000304606EBD0714910491E0CB205EBD57121
:10236000B4EB610F05DB284605EBD0714910491E1F
:102370000CB2002C73D0022000FB145003B208EB07
:10238000040001B24A4650460097FFF761FE022062
:1023900000FB146003B209EB040002B208EB050075
:1023A000401E01B25046009700F024F9022000FBC5
:1023B000145003B209EB0600401E02B208EB040001
:1023C00001B250460097FFF743FE022000FB146065
:1023D00003B209EB040002B241465046009700F0F8
:1023E00009F90120CDE9000709EB040002B208EB6E
:1023F000040001B223465046FFF785FB0220CDE9D9
:10240000000709EB040002B208EB0500001B401EA8
:1024100001B223465046FFF776FB0820CDE90007BE
:1024200009EB0600001B401E02B208EB040001B2DB
:1024300023465046FFF767FB0420CDE9000709EB70
:102440000600001B401E02B208EB0500001B401EE8
:1024500001B223465046FFF756FB08E0FFE72B4644
:102460004A4641465046CDE90067FFF7E0FEBDE829
:10247000FC8700002DE9FC4781460C464FF0000A1E
:10248000B4F90480B4F904004000032190FBF1F09A
:1024900005B20020CDE90050B4F90220B4F90010D3
:1024A00043464846FFF7F2FE3749281F00B2CDE900
:1024B0000001A8F1040003B26088801C02B22088E9
:1024C000801C01B24846FFF7F8FC0020CDE900501F
:1024D0006088E3881844401B02B2B4F900104346F8
:1024E0004846FFF7D3FE2849281F00B2CDE9000176
:1024F0006088B4F806C06044401B801C02B2A8F19A
:10250000040003B22088801C01B24846FFF7D5FCC6
:10251000B4F90600022101FB150007B21A48CDE903
:102520000070B4F904306088284402B2B4F9001095
:102530004846FFF7C2FCD4E90310884213D2206951
:102540007843E168B0FBF1F006B2062E00DA062609
:10255000B81B61694843D4E90312891AB0FBF1F052
:102560000FFA80FA00E03E460020CDE90060B4F9A1
:10257000043060882844504402B2B4F90010484640
:10258000FFF784FEBDE8FC87848484FF10B5044611
:1025900018212046FDF79DFE10BD0000F8B5044649
:1025A0000D4616461F46B4F90200B0420BDCB4F9E2
:1025B0000600B04207DDB4F90000A84203DCB4F91C
:1025C0000400A84200DCF8BD094800970069008BB0
:1025D000301A03B206480069C08A281A02B20448B9
:1025E0000169D0F828C0001DE04700BFEBE70000FC
:1025F000141700202DE9FC4104460F4615461E46DF
:10260000DDF82080B4F90400B8420CDDB4F9000014
:10261000B84208DCB4F90600A84204DBA819B4F9F2
:102620000210884201DABDE8FC81B4F90200A84238
:1026300005DD6088401B301A06B2B4F90250A819B3
:10264000B4F90610884202DDE088401B06B20A4851
:10265000CDE900680069008B281A03B206480069BA
:10266000C08A381A02B204480169D0F840C0001D7F
:10267000E04700BFD7E70000141700202DE9FF4F07
:1026800087B0804689461C46608910B999F80400D5
:102690006081002005A906AB2246CDE9001048461E
:1026A00009990DF0FAFCB4F90400BDF9181088423C
:1026B0000CDA207B00F0020030B12246484609992E
:1026C0000DF0ADFC099001E0A0880690B4F900601F
:1026D000B4F90250207A00F0100050B1B4F906109D
:1026E000BDF91420881A00EBD07105EB61010DB221
:1026F00009E0207A00F0200028B1E088BDF814102D
:10270000401A284405B2B4F90200A84201DDB4F928
:102710000250208B281A05B260E0B4F90060207ADC
:1027200000F0020050B1B4F90410BDF91820881A65
:1027300000EBD07106EB61010EB209E0207A00F0E7
:10274000040028B1A088BDF81810401A304406B221
:10275000B2462CE00498C0B20D2803D00498C0B251
:102760000A2805D1207B00F0040000B156461EE087
:10277000B8F90600A84200DA27E0B8F90400B04230
:1027800000DA14E0484604990DF010FC071E00D151
:102790000DE03346224649464046CDE900570AF04F
:1027A00035FD387839790844304406B200BFBBF1B2
:1027B0000000ABF101011FFA81FB06D003AA04A9B6
:1027C00009A804F0DBFB0028C4D100BF60892844BD
:1027D00005B2207B00F0040000B90CE001200021CC
:1027E00006AB2246CDE90010484609990DF055FC8C
:1027F000B0F1000B91DC00BF0BB0BDE8F08F000022
:102800002DE9F04104460E46002700BF1CB11449D3
:102810002069884208D040F2172212A11CA00AF0B9
:102820000FFB0020BDE8F08100BF01210C200BF060
:10283000E1FA054695B1AE60294604F15C000BF063
:10284000A1F8B4F85400401C00B2A4F8540020468B
:102850000AF045FC20460CF06BF901273846E1E709
:10286000803201082E2E5C30302D4755495F4C498F
:1028700042524152595C776964676574735C67754D
:10288000695F64726F70646F776E2E630000000082
:1028900041737365727420706172616D2066616945
:1028A0006C656420696E2066696C65202573206103
:1028B0006E64206C696E652025640D0A00000000BE
:1028C0002DE9FF4F91B004461646994612980B2801
:1028D00070D008DC01280FD004281CD006286AD04C
:1028E000082869D18EE20C2867D00E287ED01128E6
:1028F0007DD01528F5D1A3E24FF0FF3024F8560F14
:102900001E20E081207C40F004002074563C012011
:1029100015B0BDE8F08FB04620460BF0F0FE07463C
:1029200020460BF011FF109020460CF05FF8054692
:1029300020460BF02FFF0F9094F8660000F0010086
:10294000002865D00DA80EAB0FAA10A90090204654
:102950000CF0ADFC0120BDF934102B46CDE9001080
:10296000BDF9402039464046FFF790FCA06C10B1FD
:10297000A06C006808E02069006918B1206900694E
:10298000006801E04FF07F40BDF83410091F09B224
:10299000CDE90010281F03B2BDF83800801C02B238
:1029A000B81C01B24046FFF788FAA06C30B1A06CA9
:1029B00000680CE0E7E1D0E14BE2EDE1206900695D
:1029C00018B120690069006801E04FF07F40BDF850
:1029D0003C10091F09B2CDE90010281F03B2BDF851
:1029E0004000801C02B2B81C01B201E0F9E10FE224
:1029F0004046FFF762FA0120BDF93C102B46CDE9B5
:102A00000010BDF9402039464046FFF73FFC30E05A
:102A1000BDF940000E90BDF93C000D900020BDF9BD
:102A20003C102B46CDE90010BDF940203946404608
:102A3000FFF72CFCA06C10B1A06C006808E02069C6
:102A4000006918B120690069006801E04FF07F401B
:102A5000BDF83C10091F09B2CDE90010281F03B2D0
:102A6000BDF84000801C02B2B81C01B24046FFF71E
:102A700024FAB4F9560000284DDB606BC0B306A8F9
:102A8000FFF7D8F8002104F15C000AF08DFF8346BF
:102A90004FF0000A08E0594600200AF085FF8346FF
:102AA0000AF101000FFA80FAB4F956005045F2DC41
:102AB000F81C00B2ADF81800BDF83800C01C00B218
:102AC000ADF81A00A81F00B2ADF81C00BDF8340024
:102AD000801F00B2ADF81E0011208DF82000BDF857
:102AE0001C00ADF82600A06C18B1A06C406809E08D
:102AF00011E02069006918B120690069406801E0AF
:102B00004FF07F400A90DBF8082006AB4046616B2F
:102B1000FFF7B4FD00BF94F8660000F0010088B331
:102B200094F8660000F0020060B35434208A281A3A
:102B300005B207A8FFF72AFD7819401E00B2ADF8CC
:102B40001C00BDF84000401C00B2ADF81E00208AF9
:102B5000ADF82000BDF83C00801E00B2ADF82200A8
:102B600000208DF82400B4F904000C9034F95409C5
:102B70000A9020460CF0EEFC0B9007A94046FFF7A8
:102B800079FC02E0FFE7681E05B294F8660000F0E9
:102B90000100002870D0606B0028FBD0E06D002899
:102BA000F8D00020049005A920460CF08DFC834647
:102BB00006A8FFF73FF8381D00B2ADF81800BDF8C1
:102BC0004000801C00B2ADF81A00A81F00B2ADF89A
:102BD0001C000FFA8BF0ADF81E0011208DF82000BC
:102BE000BDF81C00ADF82600B8F906000390B8F94E
:102BF0000600BDF94010BDF93C201144884207DDB4
:102C0000BDF84000BDF83C10084400B2A8F806002A
:102C100000200490002104F15C000AF0C5FE824609
:102C20008BE0B4F958100498814200DD7CE0B4F9DF
:102C30005610049881425AD194F8300000F01000E8
:102C400070B1A06C10B1A06C006918E02069006937
:102C500018B120690069006911E04FF07F400EE073
:102C6000A06C10B1A06C406909E02069006920B136
:102C700020690069406902E06DE04FF07F40BDF9D6
:102C80001E10594502DABDF91E1000E0594609B27E
:102C9000CDE90010E81E03B2BDF91A20B81C01B23C
:102CA0004046FFF70AF994F8300000F0100070B1C8
:102CB000A06C10B1A06C806817E02069006918B1A1
:102CC00020690069806810E04FF07F400DE0A06C43
:102CD00010B1A06CC06808E02069006918B12069D3
:102CE0000069C06801E04FF07F400A900EE0A06CE0
:102CF00010B1A06C406808E02069006918B1206933
:102D00000069406801E04FF07F400A90DAF808203F
:102D100006AB4046616BFFF7B1FCBDF81A005844A2
:102D200000B2ADF81A0000BF514600200AF03CFE88
:102D300082460498401C80B20490BAF1000F06D07D
:102D4000BDF91A00B8F9061088427FF76AAF0398F8
:102D5000A8F8060000BF0120DAE505E000BF28461C
:102D60000BF050F8002500BF002104F15C000AF0D0
:102D70001BFE0746394604F15C000AF031FF051ED0
:102D8000ECD10120C4E53146888A334A1080002006
:102D900089F800000120BBE53746606BF8B10021DF
:102DA00020460CF091FB0FFA80F8B88A2A4909886E
:102DB000081A05B2002D01DB284600E068424045B4
:102DC0000CDD002D01DD012001E04FF0FF30014658
:102DD00020460DF07BF8B88A1F49088000BF01200B
:102DE00096E5354694F8660000F0010020B901210F
:102DF00020460CF0E6FB03E0294620460CF04AFC96
:102E0000012085E5002120460CF0DBFB01207FE559
:102E100035462878022807D1012120460CF0CBFA4C
:102E2000002089F8000009E02878012806D1811ED9
:102E300020460CF0C0FA002089F80000012067E568
:102E4000B6F9001020460CF0B6FA012089F800000F
:102E50005EE500205CE50000880300202DE9F04FCE
:102E600087B004460D4616461F46DDE912ABDDE984
:102E7000108933462A46214604488DE8800F0BF01E
:102E800035FA0690069807B0BDE8F08F8032010849
:102E900070B504460D46002600BF1CB117492069D5
:102EA000884207D040F22D2215A120A009F0C8FFCA
:102EB000002070BD00BF94F8660000F00100D8B992
:102EC00094F8660000F0080040B13DB994F866003F
:102ED00000F0080084F8660001260DE094F8660012
:102EE00000F0080040B9012D06D194F8660040F0CA
:102EF000080084F8660001263046DAE780320108CF
:102F00002E2E5C30302D4755495F4C49425241527C
:102F1000595C776964676574735C6775695F64722F
:102F20006F70646F776E2E630000000041737365ED
:102F3000727420706172616D206661696C656420D5
:102F4000696E2066696C6520257320616E64206C53
:102F5000696E652025640D0A0000000070B5044606
:102F60000D4600BF1CB117492069884207D04FF4B5
:102F70001D7215A11FA009F063FF002070BD00BFE6
:102F800075B194F8660000F0040048B994F8660042
:102F900040F0040084F8660020460BF0C9FD0EE006
:102FA0006DB994F8660000F0040040B194F8660032
:102FB00020F0040084F8660020460BF0B9FD0120E3
:102FC000DCE70000803201082E2E5C30302D4755A2
:102FD000495F4C4942524152595C77696467657454
:102FE000735C6775695F64726F70646F776E2E6370
:102FF0000000000041737365727420706172616D2E
:10300000206661696C656420696E2066696C652064
:10301000257320616E64206C696E652025640D0A3D
:103020000000000070B504460D46002600BF1CB12C
:103030001A492069884207D040F2862218A123A0AD
:1030400009F0FEFE002070BD00BF94F8660000F09D
:10305000040000BB7DB194F8660000F0020050B996
:1030600094F8660040F0020084F8660020460BF0F9
:103070005FFD01260FE075B994F8660000F00200CC
:1030800048B194F8660020F0020084F866002046FB
:103090000BF04EFD01263046D5E7000080320108D6
:1030A0002E2E5C30302D4755495F4C4942524152DB
:1030B000595C776964676574735C6775695F64728E
:1030C0006F70646F776E2E6300000000417373654C
:1030D000727420706172616D206661696C65642034
:1030E000696E2066696C6520257320616E64206CB2
:1030F000696E652025640D0A000000002DE9F04F7F
:1031000089B004468B4691469A4600BF1CB1684977
:103110002069884208D04F2266A171A009F090FE74
:10312000002009B0BDE8F08F00BFBBF1080F7DD0D3
:1031300006DCBBF1040F0AD0BBF1070F77D1A0E08A
:10314000BBF10B0F74D0BBF1110FF7D1A2E0CDF89A
:10315000209020460BF0D3FA054620460BF0F4FAF7
:10316000064620460BF042FC074620460BF012FBB9
:10317000804601203B4632462946CDE9008008982A
:10318000FFF784F8A06C10B1A06C006808E020691B
:10319000006918B120690069006801E04FF07F40C4
:1031A000A8F1040109B2CDE90010381F03B2B01C28
:1031B00002B2A81C01B20898FEF77FFE94F8300016
:1031C00000F01000D8B1A06C10B1A06C806808E0CD
:1031D0002069006918B120690069806801E04FF03A
:1031E0007F40A8F1060109B2CDE90010B81F03B273
:1031F000F01C02B2E81C01B20898FFF718F820464C
:103200000BF074FDD8B301A8FEF714FD681D00B2E1
:10321000ADF80400701D00B2ADF80600A7F10A0079
:1032200000B2ADF80800A8F10A0002E02BE03CE093
:103230002BE000B2ADF80A0011208DF80C00BDF8AB
:103240000800ADF81200A06C10B1A06C406808E056
:103250002069006918B120690069406801E04FF0F9
:103260007F4005909DF8100040F002008DF810009E
:1032700001ABD4E90D120898FFF700FA00BF012056
:103280004FE701204DE701204BE700208AF80000BE
:10329000012046E74D46294620460BF07CFD10B143
:1032A00000208AF8000001203BE7002039E70000F9
:1032B000803101082E2E5C30302D4755495F4C4936
:1032C00042524152595C776964676574735C6775F3
:1032D000695F65646974746578742E63000000002A
:1032E00041737365727420706172616D20666169EB
:1032F0006C656420696E2066696C652025732061A9
:103300006E64206C696E652025640D0A0000000063
:103310002DE9F04F87B004460D4616461F46DDE9FD
:1033200012ABDDE9108933462A46214604488DE870
:10333000800F0AF0DBFF0690069807B0BDE8F08F1B
:103340008031010870B504460D4600BF1CB10C4920
:103350002069884207D04FF4BB720AA113A009F07C
:103360006FFD002070BD00BF294604F150000AF037
:1033700064FB214628460AF060FB0120F2E70000CA
:10338000383101082E2E5C30302D4755495F4C49AD
:1033900042524152595C776964676574735C677522
:1033A000695F67726170682E630000004173736526
:1033B000727420706172616D206661696C65642051
:1033C000696E2066696C6520257320616E64206CCF
:1033D000696E652025640D0A000000002DE9FF4F8D
:1033E0002DED0A8B8BB0044616980B2875D006DCA1
:1033F00001280BD0042833D006286FD1F5E30C2820
:103400006DD00D286CD01028F7D1EFE30520A4F87B
:10341000580005215A2001535C2001535E200153BE
:10342000B2EE040A84ED1A0ABAEE040A84ED190A0F
:10343000B2EE040A84ED1C0ABBEE040A84ED1B0AFA
:1034400020460AF0D1F9082084F860000A2084F8A8
:10345000610001200BB0BDEC0A8B04B0BDE8F08F19
:10346000179DB4F958B0B4F95A000990B4F95C004A
:103470000890B4F95E7020460BF041F98046204672
:103480000BF062F9079020460BF0B0FA0690204648
:103490000BF080F98246A06C10B1A06C006808E0C7
:1034A0002069006918B120690069006801E04FF0E7
:1034B0007F403B46CDE900A041462846079AFEF7EB
:1034C000FCFCA06C10B1A06C00680CE020690069E5
:1034D00038B120690069006805E002E3F4E31CE309
:1034E000F3E34FF07F40CDE900B00698C21B099886
:1034F000101A03B208EB070001B22846079AFEF73C
:10350000DCFCA06C10B1A06C006808E020690069C8
:1035100018B120690069006801E04FF07F40089908
:10352000CDE900100698A0EB070C0998ACEB000061
:1035300003B2079800EB0A0CACEB010002B208EBF7
:10354000070001B22846FEF7B8FCA06C10B1A06CD1
:10355000006808E02069006918B120690069006806
:1035600001E04FF07F40CDE900A0069808EB000293
:103570000998101A01B22846099B079AFEF79DFC8C
:10358000A06C10B1A06C406808E02069006918B117
:1035900020690069406801E04FF07F40AAEB0B0210
:1035A0000899511A09B2CDE900100698A0EB070C52
:1035B0000998ACEB000003B20798584402B208EB3C
:1035C000070001B22846FEF778FCA06C10B1A06C91
:1035D000806808E02069006918B120690069806886
:1035E00001E04FF07F40CDE900A041462846DDE9EB
:1035F0000632FEF71CFE94F86000E0B3AAEB0B0164
:103600000898081A00EE100AF8EEC00A94F8600054
:1036100000EE100AB8EE400A80EE801AB0EE418A41
:103620000120059032E0A06C10B1A06CC06808E0E9
:103630002069006918B120690069C06801E04FF095
:103640007F4000900798584400EE100AF8EEC00A38
:103650009DED050AB8EE400A40EE080ABDEEE00A0C
:1036600010EE100A02B20698A0EB070C0998ACEB1A
:10367000000003B200E00FE008EB070001B22846AB
:10368000FEF7E6FC0598401CC0B2059094F8601067
:1036900005988142C7DC00BF94F86100F0B306983A
:1036A000C11B0998081A00EE100AF8EEC00A94F837
:1036B000610000EE100AB8EE400A80EE801AB0EE0B
:1036C000418A0120059031E0A06C10B1A06CC06867
:1036D00008E02069006918B120690069C06801E04C
:1036E0004FF07F40009008EB070000EE100AF8EE64
:1036F000C00A9DED050AB8EE400A40EE080ABDEE8C
:10370000E00A10EE100A01B2AAEB0B0C0898ACEB21
:10371000000003B20798584402B200E00CE02846CB
:10372000FEF768FF0598401CC0B2059094F8611040
:1037300005988142C8DC00BF206D002874D094ED4C
:103740001E0AD4ED1D0A30EE600AB0EE40CA94EDB8
:10375000200AD4ED1F0A30EE600AF0EE40CA069847
:10376000C11B0998081A00EE100AB8EEC00AC0EE94
:103770000C0AB0EE60AAAAEB0B010898081A00EE3A
:10378000100AB8EEC00AC0EE2C0AB0EE60BA079874
:1037900000EB0A010898081A401E00B208EE900AD1
:1037A00008EB070000B209EE900A286803906868E9
:1037B000049008EB0700B5F90010884203DD08EB20
:1037C000070000B22880069808EB00010998081A43
:1037D000B5F90410884206DA069808EB000109984A
:1037E000081A00B2A88007985844B5F90210884218
:1037F00003DD0798584400B26880079800EB0A017F
:103800000898091AB5F90600814206DA079800EB14
:103810000A010898081A00B2E880002104F150005B
:103820000AF078F90A9051E159E10A9810B10A9822
:10383000806800E000200646D6F8109030690290BB
:10384000307EE0BBD4ED1D0AB8EEE90A00EECA0AEC
:10385000B0EE408AB06830F9190000EE100AB8EEF8
:10386000C00AD4ED1F0A70EE600AB8EEE80A00EE56
:10387000CB0AF0EE40BA09F101008146F1688842B6
:1038800001D14FF00009B5F9040000EE100AB8EEBE
:10389000C00AB4EEC80AF1EE10FA14D396ED030A8A
:1038A000F8EE400AB0EE480A00EE8A0AB5F90000C8
:1038B00000EE900AF8EEE00AB4EEE00A00E07AE0EA
:1038C000F1EE10FA00D2FCE066E038EE0A0AB0EE43
:1038D000409AB06830F9190000EE100AB8EEC00A3C
:1038E000D4ED1F0A70EE600AB8EEE80A00EECB0ACB
:1038F000F0EE40AAB5F9000000EE100AB8EEC00ADA
:10390000B4EEC80AF1EE10FA0AD9B5F9000000EEDB
:10391000100AB8EEC00AB4EEC90AF1EE10FA2FD8B8
:10392000B5F9040000EE100AB8EEC00AB4EEC80AF9
:10393000F1EE10FA0ADCB5F9040000EE100AB8EE58
:10394000C00AB4EEC90AF1EE10FA19DDBDEEEA0ABA
:1039500010EE101A09B27069BDEEC90ACDE9001067
:1039600010EE100A03B2BDEEEB0A10EE100A02B21E
:10397000BDEEC80A10EE100A01B22846FEF7ACFBF5
:10398000B0EE498AF0EE6ABA09F101008146F168A9
:10399000884201D14FF00009029881450AD0B5F95B
:1039A000040000EE100AB8EEC00AB4EEC80AF1EE48
:1039B00010FA8ADA84E0307E01287DD14FEA49008E
:1039C000B16831F9100000EE100AB8EEC00AD4ED6B
:1039D0001D0A70EE600AB8EEE90A00EE8A0AB0EE3F
:1039E000408A4FEA4900401CB16831F9100000EEEE
:1039F000100AB8EEC00AD4ED1F0A70EE600AB8EEE5
:103A0000E80A00EECB0AF0EE40BA09F10100814667
:103A1000F168884201D14FF000094CE04FEA4900BB
:103A2000B16831F9100000EE100AB8EEC00AD4ED0A
:103A30001D0A70EE600AB8EEE90A00EE8A0AB0EEDE
:103A4000409A4FEA4900401CB16831F9100000EE7D
:103A5000100AB8EEC00AD4ED1F0A70EE600AB8EE84
:103A6000E80A00EECB0AF0EE40AABDEEEA0A10EE3C
:103A7000101A09B27069BDEEC90ACDE9001010EE46
:103A8000100A03B2BDEEEB0A10EE100A02B2BDEE50
:103A9000C80A10EE100A01B22846FEF71DFBB0EE70
:103AA000498AF0EE6ABA09F101008146F16888425C
:103AB00001D14FF0000900E002E002988145ADD14C
:103AC00000BF00200A990AF025F80A900A980028F9
:103AD0007FF4ABAE039828600498686000BF0120B3
:103AE000B8E4179A002100BF0FE002F1100030F88F
:103AF0001100894B23F8110002F1140030F8110075
:103B0000864B23F81100481CC1B210788842ECDCC7
:103B100000231898037001209CE4179D2878012841
:103B200065D1B5F91070B5F9148020460AF05EFF32
:103B3000B4F95E10411AB4F95A00081A00EE100ADE
:103B4000B8EEC00AD4ED1E0A94ED1D1A70EEC10A3B
:103B500080EE201AF0EE418A6F48B0F90000381A62
:103B600000EE100AB8EEC00AC0EE280AB0EE608A75
:103B700094ED1D0A30EE480A84ED1D0A94ED1E0AEC
:103B800030EE480A84ED1E0A20460AF003FEB4F91E
:103B90005810411AB4F95C00081A00EE100AB8EE89
:103BA000C00AD4ED200A94ED1F1A70EEC10A80EE0F
:103BB000201AF0EE418A5948B0F90000A8EB000045
:103BC00000EE100AB8EEC00AC0EE280AB0EE608A15
:103BD00094ED1F0A30EE080A84ED1F0A94ED200AC6
:103BE00030EE080A84ED200A54E079E070E028788D
:103BF00002284FD1B5F9160002EE100AB8EEC22A1B
:103C0000F0EE421AB5F9120002EE100AB8EEC22A1E
:103C1000B0EE421AB5F9140002EE100AB8EEC22A4C
:103C2000F0EE420AB5F9100002EE100AB8EEC22A10
:103C3000B0EE420A09A90AA801F03EFE95ED070A76
:103C4000D5ED080A80EE201AB0EE419A20460AF01F
:103C5000A1FD00EE100AB8EEC00ADDED090A80EE03
:103C6000801AF0EE419A20460AF0C0FE00EE100ADB
:103C7000B8EEC00ADDED0A0A80EE801AB0EE41AA65
:103C8000B0EE691AF0EE4A0AB0EE490A204609F091
:103C9000BCFD00BF00260FE005F1100030F8160053
:103CA0001D4921F8160005F1140030F816001B49D3
:103CB00021F81600701CC6B22878B042ECDC204611
:103CC0000AF036FF01200BE723E0FFE7012007E7BA
:103CD000204609F089FD20460AF02AFF0120FFE670
:103CE000002104F1500009F015FF05460DE00DB16B
:103CF000A86800E0002006462146304609F0B0FEE4
:103D00002946002009F006FF0546002DEFD10120CD
:103D1000E6E60020E4E600007E03002082030020A7
:103D20002DE9F04F87B004460D4616461F46DDE9E3
:103D300012ABDDE9108933462A46214604488DE856
:103D4000800F0AF0D3FA0690069807B0BDE8F08F0E
:103D50003831010870B504460E46154600BF3CB91F
:103D60004FF4017214A11EA009F06AF8002070BD82
:103D700000BF207E20B92169A06820F811500DE015
:103D8000207E01280AD120694000A16821F8106036
:103D900020694000401CA16821F810502069401C97
:103DA0002061D4E90310884201D30020206120461D
:103DB00006F013FD0120DAE72E2E5C30302D47553A
:103DC000495F4C4942524152595C77696467657456
:103DD000735C6775695F67726170682E63000000CD
:103DE00041737365727420706172616D20666169E0
:103DF0006C656420696E2066696C6520257320619E
:103E00006E64206C696E652025640D0A0000000058
:103E100070B506460D4601211C2009F0EBFF044653
:103E2000ACB12676E5602EB96800012109F0E2FF09
:103E3000A06004E0A800012109F0DCFFA060A068F8
:103E400028B900BF204609F0DDFF002400BF20464E
:103E500070BD000010B52DED028B0446B0EE408A17
:103E600000BF1CB10E492069884209D040F2AF1250
:103E70000CA116A008F0E4FF0020BDEC028B10BDE1
:103E800000BF94ED1A0AB4EE480AF1EE10FA04D01D
:103E900084ED1A8A20460AF04BFE0120EDE700006F
:103EA000383101082E2E5C30302D4755495F4C4982
:103EB00042524152595C776964676574735C6775F7
:103EC000695F67726170682E6300000041737365FB
:103ED000727420706172616D206661696C65642026
:103EE000696E2066696C6520257320616E64206CA4
:103EF000696E652025640D0A0000000010B52DEDE7
:103F0000028B0446B0EE408A00BF1CB10E49206906
:103F1000884209D040F2C9120CA116A008F090FF07
:103F20000020BDEC028B10BD00BF94ED1C0AB4EE66
:103F3000480AF1EE10FA04D084ED1C8A20460AF0FB
:103F4000F7FD0120EDE70000383101082E2E5C302E
:103F5000302D4755495F4C4942524152595C77696F
:103F600064676574735C6775695F67726170682EFA
:103F70006300000041737365727420706172616D3B
:103F8000206661696C656420696E2066696C6520D5
:103F9000257320616E64206C696E652025640D0AAE
:103FA0000000000010B52DED028B0446B0EE408AF3
:103FB00000BF1CB10E492069884209D04FF4D1726C
:103FC0000CA116A008F03CFF0020BDEC028B10BD38
:103FD00000BF94ED190AB4EE480AF1EE10FA04D0CD
:103FE00084ED198A20460AF0A3FD0120EDE70000C8
:103FF000383101082E2E5C30302D4755495F4C4931
:1040000042524152595C776964676574735C6775A5
:10401000695F67726170682E6300000041737365A9
:10402000727420706172616D206661696C656420D4
:10403000696E2066696C6520257320616E64206C52
:10404000696E652025640D0A0000000010B52DED95
:10405000028B0446B0EE408A00BF1CB10E492069B5
:10406000884209D04FF4DE720CA116A008F0E8FED9
:104070000020BDEC028B10BD00BF94ED1B0AB4EE16
:10408000480AF1EE10FA04D084ED1B8A20460AF0AB
:104090004FFD0120EDE70000383101082E2E5C3085
:1040A000302D4755495F4C4942524152595C77691E
:1040B00064676574735C6775695F67726170682EA9
:1040C0006300000041737365727420706172616DEA
:1040D000206661696C656420696E2066696C652084
:1040E000257320616E64206C696E652025640D0A5D
:1040F0000000000010B52DED048B0446B0EE408AA0
:10410000F0EE608AB0EE419A00BF1CB10C49206904
:10411000884209D040F2E1120AA114A008F090FEF2
:104120000020BDEC048B10BD00BFB0EE491AF0EECC
:10413000680AB0EE480A204609F067FB0120F0E764
:10414000383101082E2E5C30302D4755495F4C49DF
:1041500042524152595C776964676574735C677554
:10416000695F67726170682E630000004173736558
:10417000727420706172616D206661696C65642083
:10418000696E2066696C6520257320616E64206C01
:10419000696E652025640D0A0000000010B5044614
:1041A00000BF1CB10A492069884207D04FF4EB7266
:1041B00008A112A008F044FE002010BD00BF204658
:1041C00009F012FB20460AF0B3FC0120F5E70000DD
:1041D000383101082E2E5C30302D4755495F4C494F
:1041E00042524152595C776964676574735C6775C4
:1041F000695F67726170682E6300000041737365C8
:10420000727420706172616D206661696C656420F2
:10421000696E2066696C6520257320616E64206C70
:10422000696E652025640D0A0000000010B5044683
:1042300006480068A0600C2221460548FCF712FFE2
:1042400008B1012010BD0020FCE700001417002079
:10425000DC19002010B5044606480068E060102212
:1042600021460548FCF7FEFE08B1012010BD0020E4
:10427000FCE7000014170020201900207FB5EC2176
:104280003248FCF726F80120039003AB2F4A203276
:104290000021A2F11C0001F073FA2C48016A001DF4
:1042A00088472A484069002846D000241FE00021A2
:1042B00026488069C4EBC40200EB8200C182234817
:1042C0008069C4EBC40200EB820001831F4881882F
:1042D0008069C4EBC40200EB820041821B48C188A4
:1042E0008069C4EBC40200EB82008182641C174821
:1042F0004069A042DBD815488169C16081690161CC
:104300004FF0FF310022B0F90600CDE90121009005
:104310000E48B0F90430006942680C480169056B29
:10432000001DA84709484069012804D90748806949
:104330001C300649086102E0012004B070BD09F09C
:10434000DDFA0AF0EFFB0020F7E700001417002069
:104350000949097F01F0010169B100220649896913
:10436000C0EBC00301EB83010A720349C96921F064
:1043700001020149CA617047141700202DE9F04F6E
:1043800087B004468A46934600BF1CB1584920694D
:10439000884208D04A2257A15FA008F051FD0020B2
:1043A00007B0BDE8F08F00BFBAF1040F6FD1CDF8B0
:1043B00018B020460AF0A3F9074620460AF0C4F9CF
:1043C000804620460AF012FB054620460AF0E2F934
:1043D000064694F8510000F00100F0B1A06C10B155
:1043E000A06C006808E02069006918B120690069C4
:1043F000006801E04FF07F400590A06C10B1A06C08
:10440000806808E02069006918B120690069806847
:1044100001E04FF07F4004901DE0A06C10B1A06C53
:10442000406808E02069006918B1206900694068A7
:1044300001E04FF07F400590A06C10B1A06CC06807
:1044400008E02069006918B120690069C06801E0CE
:104450004FF07F40049094F85000C8B9B11E09B2E3
:104460000598CDE90010A81E03B208F1010002B2C0
:10447000781C01B20698FDF720FD04982B464246B1
:104480003946CDE900600698FDF7D1FE2BE02CE01F
:104490000598A946009005EBD970401003B206EBD1
:1044A000D67008EB600002B205EBD57007EB600038
:1044B00001B2CDE902560698FDF72AFC0498009057
:1044C00005EBD970401003B206EBD67008EB600024
:1044D00002B205EBD57007EB600001B2CDE90256E0
:1044E0000698FDF7DFFA01205AE7002058E70000A0
:1044F000A83101082E2E5C30302D4755495F4C49BC
:1045000042524152595C776964676574735C6775A0
:10451000695F6C65642E630041737365727420700B
:104520006172616D206661696C656420696E2066E8
:10453000696C6520257320616E64206C696E65204E
:1045400025640D0A000000002DE9F04F87B00446F5
:104550000D4616461F46DDE912ABDDE910893346EC
:104560002A46214604488DE8800F09F0BFFE0690D8
:10457000069807B0BDE8F08FA831010870B5044671
:104580000D4600BF1CB116492069884206D0BD22E5
:1045900014A11DA008F054FC002070BD00BF75B12F
:1045A00094F8510000F0010048B994F8510040F02F
:1045B000010084F8510020460AF0BAFA0EE06DB905
:1045C00094F8510000F0010040B194F8510020F03F
:1045D000010084F8510020460AF0AAFA0120DCE725
:1045E000A83101082E2E5C30302D4755495F4C49CB
:1045F00042524152595C776964676574735C6775B0
:10460000695F6C65642E630041737365727420701A
:104610006172616D206661696C656420696E2066F7
:10462000696C6520257320616E64206C696E65205D
:1046300025640D0A0000000070B504460D4600BF59
:104640001CB10B492069884206D08B2209A112A017
:1046500008F0F6FB002070BD00BF94F85000A8429F
:1046600004D084F8505020460AF022FB0120F2E7E3
:10467000A83101082E2E5C30302D4755495F4C493A
:1046800042524152595C776964676574735C67751F
:10469000695F6C65642E630041737365727420708A
:1046A0006172616D206661696C656420696E206667
:1046B000696C6520257320616E64206C696E6520CD
:1046C00025640D0A000000002DE9F04104460E4665
:1046D000002700BF1CB114492069884208D040F26D
:1046E000A11212A11BA008F0ABFB0020BDE8F081D5
:1046F00000BF01210C2009F07DFB054695B1AE609D
:10470000294604F1580009F03DF9B4F85000401C66
:1047100000B2A4F85000204608F096FC20460AF0AB
:1047200007FA01273846E1E7503201082E2E5C30A7
:10473000302D4755495F4C4942524152595C776987
:1047400064676574735C6775695F6C697374626FC5
:10475000782E630041737365727420706172616DAD
:10476000206661696C656420696E2066696C6520ED
:10477000257320616E64206C696E652025640D0AC6
:10478000000000002DE9FF4F8DB0044615460E983D
:104790000C287DD008DC01280DD004281AD006286A
:1047A00077D00B2876D17CE10E2874D0112873D0F5
:1047B0001528F7D10AE24FF0FF3024F8520F1E20DF
:1047C000E081207C40F002002074523C012011B0B6
:1047D000BDE8F08F2F46204609F091FF8146204624
:1047E00009F0B2FF804620460AF000F9064620464E
:1047F00009F0D0FF82460120334642464946CDE9C2
:1048000000A03846FDF742FDA06C10B1A06C006816
:1048100008E02069006918B120690069006801E0BA
:104820004FF07F40AAF1040109B2CDE90010301F1A
:1048300003B208F1020002B209F1020001B23846E7
:10484000FDF73BFB94F8620000F0010028B307A8D5
:10485000FDF79CFE5034208A301A06B209EB0600A0
:10486000401E00B2ADF81C0008F1010000B2ADF826
:104870001E00208AADF82000AAF1020000B2ADF8B7
:10488000220000208DF82400B4F904000C9005E00B
:1048900010E1F0E0A4E132E186E10BE034F95009E7
:1048A0000A9020460AF044FE0B9007A93846FDF70F
:1048B000E1FD01E0701E06B2606B002872D0A06DB1
:1048C0000028FBD000200490002120460AF0E2FDE1
:1048D000059006A8FDF7AEF909F1040000B2ADF8A5
:1048E000180008F1020000B2ADF81A00301F00B243
:1048F000ADF81C00059800B2ADF81E0011208DF82F
:104900002000BDF81C00ADF82600B7F906000390A2
:10491000B7F9061008EB0A00801E814204DD08EB9F
:104920000A00801E00B2F88000200490002104F1EB
:10493000580009F039F883468EE0B4F95410049811
:10494000814200DD7FE0B4F95210049881425CD1CD
:1049500094F8300000F0100070B1A06C10B1A06CA1
:10496000006917E02069006918B1206900690069D1
:1049700010E04FF07F400DE0A06C10B1A06C4069DA
:1049800008E02069006918B120690069406901E008
:104990004FF07F40BDF91E2005998A4203DABDF928
:1049A0001E1001E065E0059909B2CDE90010F01E86
:1049B00003B2BDF91A2009F1020001B23846FDF731
:1049C0007CFA94F8300000F0100070B1A06C10B1C7
:1049D000A06C806817E02069006918B1206900693F
:1049E000806810E04FF07F400DE0A06C10B1A06C2B
:1049F000C06808E02069006918B120690069C068D2
:104A000001E04FF07F400A900EE0A06C10B1A06C66
:104A1000406808E02069006918B1206900694068B1
:104A200001E04FF07F400A90DBF8082006AB3846E3
:104A3000616BFDF723FEBDF81A100598084400B21B
:104A4000ADF81A0000BF5946002008F0ADFF8346BC
:104A50000498401C80B20490BBF1000F06D0BDF951
:104A60001A00B7F9061088427FF767AF0398F880FD
:104A700000BF0120ABE605E000BF304609F0C2F9F7
:104A8000002600BF002104F1580008F08DFF074602
:104A9000394604F1580009F0A3F8061EECD10120B4
:104AA00095E62946888A4F4A1080002210980270A5
:104AB00001208CE62F46606BF8B1002120460AF0F9
:104AC000E9FC0FFA80F8B88A46490988081A06B244
:104AD000002E01DB304600E0704240450CDD002E28
:104AE00001DD012001E04FF0FF30014620460BF0D0
:104AF000B5F9B88A3B49088000BF012067E62E4619
:104B00004FF00008204609F071FF8146204609F069
:104B100041FE824694F8620000F0010008B3B6F945
:104B20001000B4F96010A9EB0101884219DDB6F953
:104B30001400B4F96010884205DA4FF0FF312046C6
:104B40000BF08CF90BE0B6F91400B4F96010AAEB85
:104B50000101884203DD012120460BF07FF94FF06F
:104B60000108B8F1000F1DD1606BD8B100212046BB
:104B70000AF090FC8346B6F9140090FBFBF087B274
:104B8000B4F954003844B4F95010884209DCB4F840
:104B90005400384401B220460BF0F1F8204609F0E9
:104BA000C7FF00BF012012E62E463078022804D14C
:104BB000012120460AF0C8FB06E03078012803D125
:104BC000811E20460AF0C0FB012000E6B5F9001066
:104BD00020460AF0B9FB0121109801700120F6E58A
:104BE0000020F4E5860300202DE9F04F87B004464D
:104BF0000D4616461F46DDE912ABDDE91089334646
:104C00002A46214604488DE8800F09F06FFB069084
:104C1000069807B0BDE8F08F5032010870B5044621
:104C20000D4600BF1CB117492069884207D04FF4D8
:104C3000F57215A11EA008F003F9002070BD00BF99
:104C400075B194F8620000F0020048B994F862006F
:104C500040F0020084F86200204609F069FF0EE08F
:104C60006DB994F8620000F0020040B194F862005F
:104C700020F0020084F86200204609F059FF01206C
:104C8000DCE70000503201082E2E5C30302D4755F5
:104C9000495F4C4942524152595C77696467657477
:104CA000735C6775695F6C697374626F782E6300FB
:104CB00041737365727420706172616D2066616901
:104CC0006C656420696E2066696C652025732061BF
:104CD0006E64206C696E652025640D0A000000007A
:104CE00070B504460D46002600BF1CB11A49206964
:104CF000884207D04FF4FE7218A122A008F0A0F855
:104D0000002070BD00BF94F8620000F0020000BBFC
:104D10007DB194F8620000F0010050B994F862008F
:104D200040F0010084F86200204609F001FF0126EE
:104D30000FE075B994F8620000F0010048B194F8F2
:104D4000620020F0010084F86200204609F0F0FEC5
:104D500001263046D5E70000503201082E2E5C3087
:104D6000302D4755495F4C4942524152595C776951
:104D700064676574735C6775695F6C697374626F8F
:104D8000782E630041737365727420706172616D77
:104D9000206661696C656420696E2066696C6520B7
:104DA000257320616E64206C696E652025640D0A90
:104DB000000000002DE9F04704460F4690464FF0F2
:104DC000000900BF1CB11B492069884208D040F28D
:104DD000F91219A123A008F033F80020BDE8F087EC
:104DE00000BFB4F85420921C9100206D09F010F817
:104DF0000646EEB126650121102008F0FBFF0546AE
:104E0000B5B15034A188481CA080206840F82150DA
:104E10000020A2882168503C41F82200EF60B8F1E0
:104E2000000F01DD404600E0642028814FF00109B9
:104E30004846D3E7E83201082E2E5C30302D475526
:104E4000495F4C4942524152595C776964676574C5
:104E5000735C6775695F6C697374766965772E63D7
:104E60000000000041737365727420706172616D9F
:104E7000206661696C656420696E2066696C6520D6
:104E8000257320616E64206C696E652025640D0AAF
:104E90000000000070B5044600BF1CB11149206934
:104EA000884207D040F221220FA11AA007F0C8FFC4
:104EB000002070BD00BF0121102008F09BFF0546B7
:104EC0006DB1294604F1580008F05CFDB4F86000AB
:104ED000401C00B2A4F86000204608F04BF92846B8
:104EE000E7E70000E83201082E2E5C30302D4755F0
:104EF000495F4C4942524152595C77696467657415
:104F0000735C6775695F6C697374766965772E6326
:104F10000000000041737365727420706172616DEE
:104F2000206661696C656420696E2066696C652025
:104F3000257320616E64206C696E652025640D0AFE
:104F4000000000002DE9FF4F91B00446164612986C
:104F50000C287CD008DC01280DD004281AD00628A3
:104F600076D00B2875D149E20E2873D0112872D063
:104F70001528F7D168E34FF0FF3024F8620F1E20A8
:104F8000A080A07940F00200A071623C012015B021
:104F9000BDE8F08F3746204609F0B1FB8046204639
:104FA00009F0D2FB8246204609F020FD81462046CA
:104FB00009F0F0FB1090204608F0DCF80121109871
:104FC0004B465246CDE9000141463846FDF75EF9B1
:104FD000A06C10B1A06C006808E02069006918B1ED
:104FE00020690069006801E04FF07F401099091FB7
:104FF00009B2CDE90010A9F1040003B20AF10200E0
:1050000002B208F1020001B23846FCF756FF94F8EC
:10501000680000F0010098B308A8FDF7B7FA603403
:10502000E088A9EB00000FFA80F908EB0900401EA8
:1050300000B2ADF820000AF1010000B2ADF8220084
:10504000E088ADF824001098801E00B204E0E1E191
:1050500089E103E35CE2DFE2ADF8260000208DF891
:105060002800B4F904000D9034F960090B90204633
:105070000AF093FA0C9008A93846FDF7FBF904E012
:10508000FFE7A9F101000FFA80F9002120460AF09C
:1050900035FA8346F848CDE900B0A9F1030003B220
:1050A0000AF1020002B208F1020001B23846FCF730
:1050B00004FF206D00287CD0206D00680028FAD005
:1050C00008F1020000B20D9006A8FCF7B3FDADF8A0
:1050D0001EB011208DF82000BDF81C00ADF8260090
:1050E000B7F904000590B7F9041008EB0900401E59
:1050F000814204DD08EB0900401E00B2B8800AF1CD
:10510000020000B2ADF81A0000252DE00020CDE924
:1051100000B0206D50F82500B0F90830BDF91A2014
:1051200038460D99FDF7B2F8206D50F8250000893A
:10513000801F00B2ADF81C000D98C01C00B2ADF885
:105140001800206D50F82500C26806AB3846616B28
:10515000FDF794FA206D50F8250001890D98084458
:1051600000B20D90681C85B2B4F85400A842CDDCA2
:10517000BDF81A00584400B2ADF81A00606B002860
:1051800071D0A06D0028FBD000200490B7F9060074
:105190000390B7F9061010985044801E814204DD38
:1051A00010985044801E00B2F88000200490002126
:1051B00000E0D6E004F1580008F0F6FB0F90C1E0E3
:1051C000B4F964100498814200DDB2E0B4F96210D1
:1051D000049881425BD194F8300000F0100070B167
:1051E000A06C10B1A06C006917E02069006918B1CB
:1051F00020690069006910E04FF07F400DE0A06C6D
:1052000010B1A06C406908E02069006918B12069FC
:105210000069406901E04FF07F40BDF91E1059451B
:1052200002DABDF91E1000E05946CDE90010A9F1DF
:10523000020003B2BDF91A2008F1020001B238469B
:10524000FCF73BFE94F8300000F0100078B1A06C41
:1052500010B1A06C806818E02069006920B1206955
:105260000069806811E079E04FF07F400DE0A06CAC
:1052700010B1A06CC06808E02069006918B120690D
:105280000069C06801E04FF07F400A900EE0A06C1A
:1052900010B1A06C406808E02069006918B120696D
:1052A0000069406801E04FF07F400A9008F1020079
:1052B00000B20D90002500210F98083008F074FB13
:1052C0000E9029E00E988068B8B1206D50F8250046
:1052D0000089801F00B2ADF81C0068488088ADF8D6
:1052E00026000D98C01C00B2ADF818000E98826818
:1052F00006AB3846616BFDF7C1F9206D50F825000B
:1053000001890D98084400B20D9000200E9908F014
:105310004BFB0E90681C85B20E9818B1B4F854007F
:10532000A842CFDCBDF81A00584400B2ADF81A000C
:1053300000BF00200F9908F037FB0F900498401C25
:1053400080B204900F9830B1BDF91A00B7F9061079
:1053500088427FF735AF0398F88000BF0598B88082
:1053600000BF012013E600251DE006E000BF404617
:1053700008F048FD4FF0000800BF002107F10800C9
:1053800008F012FB8146494607F1080008F028FCA6
:10539000B0F10008EAD100BF384608F033FD00271D
:1053A00000BF681C85B2002104F1580008F0FCFA27
:1053B0008146494604F1580008F012FC071ED4D17A
:1053C000206DC8B100250CE000BF216D51F825000B
:1053D00008F018FD0020216D41F8250000BF681C71
:1053E00085B2B4F85400A842EEDC00BF206D08F08E
:1053F00009FD0020206500BF0120C8E53146088A6C
:105400001F4A1080888A1F4A108000221498027058
:105410000120BCE5B046606BB0B3002120460AF025
:105420006DF88246B8F8140016490988081A07B2C0
:10543000002F01DB384600E0784250450DDD002F9B
:1054400001DD012001E04FF0FF30014620460AF067
:1054500075FDB8F814000B4908800A48B0F900003F
:10546000504552DA4FF00009B8F810000449098895
:10547000081A07B2002525E0C6C6C6FF141700208B
:10548000940300209603002040E0206D50F8250092
:10549000008948440FFA80F97148B0F90000B0EB78
:1054A000090005D46E48B0F90000A0EB090004E043
:1054B0006B48B0F90000A9EB00000A2800DA05E00B
:1054C000681C85B2B4F85400A842DEDC00BFB4F812
:1054D0005400A84218D0206D50F82500B0F90800FB
:1054E000C01B042809DB206D50F825000089C01B73
:1054F00000B2216D51F825100881B8F81000584904
:105500000880204609F014FB00BF00BF01203EE5E3
:1055100035464FF000080021204609F0EFFF87B222
:10552000204609F063FA8146204609F033F98246A5
:1055300094F8680000F0010008B3B5F91000B4F960
:105540006610A9EB0101884219DDB5F91400B4F920
:105550006610884205DA4FF0FF3120460AF0EEFC73
:105560000BE0B5F91400B4F96610AAEB010188420A
:1055700003DD012120460AF0E1FC4FF00108B8F1FB
:10558000000F1ED1B5F91400B84219DDB5F91400A9
:10559000C01B90FBF7F01FFA80FBB4F9640058447D
:1055A000B4F96010884209DCB4F86400584401B2D0
:1055B00020460AF018FC204609F0BAFA4FF001081C
:1055C00000BFB8F1000F25D1B5F91400B84221DAB7
:1055D0000021002016E0B5F910208A420ADD226D74
:1055E00052F82020B2F908200A44B5F910309A4246
:1055F00000DD0BE0226D52F8202012890A4411B21E
:10560000421C90B2B4F854208242E4DC00BF4FF058
:10561000010800BF0120BAE435462878022807D1E6
:105620000121204609F0FEFE00211498017009E0D6
:105630002878012806D1811E204609F0F3FE0021BA
:10564000149801700120A2E4B6F90010204609F078
:10565000E9FE012114980170012098E4002096E4ED
:10566000940300202DE9F04F87B004460D461646FE
:105670001F46DDE912ABDDE9108933462A46214693
:1056800004488DE8800F08F031FE0690069807B0B8
:10569000BDE8F08FE83201082DE9F04707460D46D6
:1056A000164698464FF00009002400BF27B11C4958
:1056B0003869884200D145B940F2332219A124A0AB
:1056C00007F0BEFB0020BDE8F08700BF002105F118
:1056D000080008F069F90446701C86B212E05CB953
:1056E00001210C2008F086FB044604B90FE0214696
:1056F00005F1080008F046F926B12146002008F01F
:1057000053F90446301EA6F101018EB2E7D100BF65
:105710001CB1C4F808804FF001094846D3E70000E7
:10572000E83201082E2E5C30302D4755495F4C4938
:1057300042524152595C776964676574735C67755E
:10574000695F6C697374766965772E630000000089
:1057500041737365727420706172616D2066616956
:105760006C656420696E2066696C65202573206114
:105770006E64206C696E652025640D0A00000000CF
:105780002DE9F0470546894690461F46B9F1000FBE
:1057900003D0B9F1010F69D15AE00026444606F062
:1057A000E7F900BF0221324800F0DDF800BF4FF4F6
:1057B000207028804FF4F0706880022028712861E2
:1057C0002C48686100BF14E0C6EBC600294901F807
:1057D0002060C6EB061000EB80004FF0404101EB6B
:1057E0004030C6EBC601234A02EB81014860701CC1
:1057F000C6B2022EE8DB204820602048E060204846
:10580000A06020486060204860612048E061204836
:10581000206220482061204860622048A061204822
:10582000A0622048E06220482063204860630FB1F6
:1058300000203870002204215A2003F0D8FE5A209C
:1058400003F0C8FE1A481B4948610120BDE8F087F3
:1058500098F800100120C1EBC1036A6902EB8302D2
:1058600010720FB1002038700120EFE70020EDE743
:10587000F030010800180020ADAD00080DAD0008A3
:10588000EDAD0008D9AD00080DA80008F5A9000885
:10589000E9AB000829AC0008C9AC0008A5A80008BD
:1058A00035AA0008D1AA00085DAB00084DA9000880
:1058B000B7C7000838180020024630EE012AF0EE83
:1058C000002A82EE223A82ED003A30EEA12AF0EE72
:1058D000002A82EE223A81ED003A0120704710B58D
:1058E0002DED048BB0EE409AB0EE608AF0EE419A56
:1058F000F0EE618A044679EE690A60EEA00A38EE9D
:10590000681A78EE681A41EE210AB0EE600A204665
:1059100000F003F8BDEC048B10BD10B52DED068B27
:10592000B0EE408A0446B5EEC08AF1EE10FA18DDFA
:1059300018EE100AFAF702FD41EC1A0BB0EE4A0A13
:10594000F0EE6A0A0AF00CFFB0EE409AF0EE609AB0
:1059500051EC190BFAF705FD20600120BDEC068B18
:1059600010BD0020FAE770B504460D4629462046D2
:105970000CF082F90646304670BD00002DE9FF4F5D
:105980008BB004468B4600BF1CB17B49206988421E
:1059900008D0542279A183A007F052FA00200FB05A
:1059A000BDE8F08F00BFBBF1010F06D0BBF1040FC3
:1059B0000BD0BBF10B0F7CD1D6E00020206564201A
:1059C00060653220A0650120E9E70D980A90204625
:1059D00008F095FE0646204608F0B6FE074620462B
:1059E00009F004F88046204608F0D4FE8146216D77
:1059F000A06D401AA8F104014843D4E91421891A82
:105A000090FBF1F005B2A06C10B1A06C006808E04A
:105A10002069006918B120690069006801E04FF051
:105A20007F40A9F1040109B2CDE90010A8EB0500FF
:105A3000001F03B27019801C01B2B81C02B20A9890
:105A4000FCF73BFAA06C10B1A06C406808E020693C
:105A5000006918B120690069406801E04FF07F409B
:105A6000A9F1040109B22B46CDE90010B81C02B21D
:105A7000B01C01B20A98FCF720FA012043463A46CE
:105A80003146CDE900900A98FCF700FC606B0028D5
:105A900069D04FF0000A94F85C0000F00100A0B15A
:105AA000216DA06D401A64214843D4E91421891A5C
:105AB00000E05EE090FBF1F0024646A1079008A8E6
:105AC00007F0CEF90DF1200A05E0204609F00EF9A5
:105AD00008B1D4F838A0BAF1000F43D001A8FCF700
