:020000040800F2
:10000000F0140220C9020008CFC80008D7BD0008BC
:10001000CBC80008ED050008EDED00080000000069
:100020000000000000000000000000000D020008B9
:1000300049070008000000006102000825CE000802
:10004000E3020008E3020008E3020008E3020008FC
:10005000E3020008E30200084D070008F507000866
:10006000110800082D08000849080008F1050008DB
:1000700001060008110600082106000831060008E4
:100080004106000851060008E3020008E3020008E8
:10009000E3020008E3020008E30200086508000824
:1000A000E3020008E3020008E3020008E30200089C
:1000B000E3020008E3020008E3020008E30200088C
:1000C000E3020008E3020008E3020008E30200087C
:1000D000E302000831ED00085DED00088DED000839
:1000E00069070008E3020008E3020008E3020008D1
:1000F000E3020008E3020008E302000861060008CA
:10010000E3020008E3020008E3020008E30200083B
:100110004DE700087DE70008E3020008E30200085D
:100120008106000891060008A1060008B106000833
:10013000C1060008E3020008E3020008E302000829
:10014000E3020008E3020008E3020008E3020008FB
:10015000D1060008E1060008F1060008BDED000820
:10016000E3020008E3020008E3020008E3020008DB
:10017000E3020008E3020008E302000800000000B8
:10018000E3020008E3020008A1E70008D1E7000845
:10019000E3020008E3020008E3020008E3020008AB
:1001A000A9C60008E302000871060008E30200087F
:1001B000E3020008E3020008E3020008E30200088B
:1001C000E3020008E3020008E3020008E30200087B
:1001D000E3020008E3020008E3020008E30200086B
:1001E000E3020008E3020008E3020008E30200085B
:1001F000E3020008E3020008DFF80CD000F0F6F894
:1002000000480047B55D0108F01402202B4B196827
:100210000868B0E8F04F80F30988BFF36F8F4FF0A4
:10022000000080F311887047000000000648006855
:10023000006880F3088862B661B6BFF34F8FBFF3E2
:100240006F8F00DF00BF00BF08ED00E0DFF80C009B
:10025000016841F470010160704700BF88ED00E063
:10026000EFF30980BFF36F8F144B1A681EF0100F65
:1002700008BF20ED108A20E9F04F106008B44FF05D
:10028000500072B680F31188BFF34F8FBFF36F8FAA
:1002900062B616F059F94FF0000080F3118808BCDF
:1002A00019680868B0E8F04F1EF0100F08BFB0ECF6
:1002B000108A80F30988BFF36F8F70477C03022098
:1002C000EFF3058070470000064880470648004766
:1002D000FEE7FEE7FEE7FEE7FEE7FEE7FEE7FEE7F6
:1002E000FEE7FEE72DCE0008F901000840EA010311
:1002F0009B0703D009E008C9121F08C0042AFAD2DC
:1003000003E011F8013B00F8013B521EF9D270479F
:10031000D2B201E000F8012B491EFBD27047002247
:10032000F6E710B513460A4604461946FFF7F0FFF4
:10033000204610BD10B5044604E00B7800F8013BE0
:1003400003B1491C521EF8D2204610BD421C10F8C1
:10035000011B0029FBD1801A704710B5002200E074
:10036000521C835C8C5CA34201D1002BF8D1D8B223
:10037000E1B2401A10BD034611F8012B00F8012B21
:10038000002AF9D1184670472DE9F05F0546002094
:1003900092469B4688460646814640241BE02846F6
:1003A00041464746224600F042F853465A46C01A94
:1003B000914110D311461846224600F029F82D1A13
:1003C00067EB01084F4622460120002100F020F88B
:1003D00017EB00094E41201EA4F10104DFDC484662
:1003E00031462A464346BDE8F09F0000064C074DC3
:1003F00006E0E06840F0010394E8070098471034F5
:10040000AC42F6D3FFF7FCFEB0A90808D0A9080853
:10041000202A04DB203A00FA02F1002070479140C4
:10042000C2F1200320FA03F3194390407047202AB9
:1004300004DB203A21FA02F00021704721FA02F38E
:10044000D040C2F12002914008431946704770B570
:100450008C1810F8015B15F0070301D110F8013B6F
:100460002A1106D110F8012B03E010F8016B01F8F6
:10047000016B5B1EF9D12B0705D40023521E0DD44E
:1004800001F8013BFAE710F8013BCB1A921C03E09C
:1004900013F8015B01F8015B521EF9D5A142D8D3D4
:1004A000002070BD08B500BF3548006840F080608E
:1004B000334908600846006800F08060009000BF83
:1004C00000BF2F482038006840F080602C49203958
:1004D00008600846006820F08060086000BF284877
:1004E0001438006840F400002549143908600846B3
:1004F000006800F40000009000BF00BF20483438BE
:10050000006840F400001E4934390860084600685D
:1005100020F40000086000BF1948006840F0006047
:10052000174908600846006800F00060009000BFAE
:1005300000BF13482038006840F00060104920399F
:1005400008600846006820F00060086000220F2163
:1005500058200AF04EFA58200AF03EFA00220F21E5
:100560005A200AF046FA5A200AF036FA00220F21E1
:1005700062200AF03EFA62200AF02EFA08BD00005E
:100580004438024000B587B000BF1648006840F408
:100590000070144908600846006800F4007001907B
:1005A00000BF00BF4FF40040029001200390049070
:1005B0000320059002A90C4809F0BAFB00224FF471
:1005C0000041094809F0C0FC142009F095FB012204
:1005D000D103054809F0B8FC0A2009F08DFB07B0EB
:1005E00000BD0000303802400024024000BFFEE79A
:1005F00010B502480CF05BFD10BD00001060024019
:1006000010B502480CF053FD10BD000028600240F8
:1006100010B502480CF04BFD10BD000040600240D8
:1006200010B502480CF043FD10BD000058600240B8
:1006300010B502480CF03BFD10BD00007060024098
:1006400010B502480CF033FD10BD00008860024078
:1006500010B502480CF02BFD10BD0000A060024058
:1006600010B502480CF023FD10BD0000B860024038
:1006700010B5024808F020FE10BD00005C0A022000
:1006800010B502480CF013FD10BD000010640240CC
:1006900010B502480CF00BFD10BD000028640240AC
:1006A00010B502480CF003FD10BD0000406402408C
:1006B00010B502480CF0FBFC10BD0000586402406D
:1006C00010B502480CF0F3FC10BD0000706402404D
:1006D00010B502480CF0EBFC10BD0000886402402D
:1006E00010B502480CF0E3FC10BD0000A06402400D
:1006F00010B502480CF0DBFC10BD0000B8640240ED
:1007000030B5039C42EA811545EA032545EA0445D4
:10071000C56630BD7CB505460C46012D08D860780D
:100720000090237815220021064809F08EFA08E08F
:10073000605D2B4639220021CDE90004014809F013
:1007400023FA7CBDA40702207047000010B50548BD
:10075000006800F0010020B10120024908600CF09F
:10076000E5FD10BD143C014010B52148006800F4BF
:10077000806028B14FF480601D4908600CF0D6FD00
:100780001B48006800F4006028B14FF4006018496D
:1007900008600CF0CBFD1648006800F4805028B1CA
:1007A0004FF48050124908600CF0C0FD10480068FA
:1007B00000F4005028B14FF400500D4908600CF0CF
:1007C000B5FD0B48006800F4804028B14FF480402C
:1007D000074908600CF0AAFD0548006800F40040D5
:1007E00028B14FF40040024908600CF09FFD10BD95
:1007F000143C014010B50548006800F0020020B12B
:100800000220024908600CF091FD10BD143C01402B
:1008100010B50548006800F0040020B1042002492A
:1008200008600CF083FD10BD143C014010B5054874
:10083000006800F0080020B10820024908600CF0B0
:1008400075FD10BD143C014010B50548006800F06E
:10085000100020B11020024908600CF067FD10BDA7
:10086000143C014010B51A48006800F0200020B187
:100870002020174908600CF059FD1548006800F069
:10088000400020B14020124908600CF04FFD104894
:10089000006800F0800020B180200D4908600CF055
:1008A00045FD0B48006800F4807028B14FF480705B
:1008B000074908600CF03AFD0548006800F4007034
:1008C00028B14FF40070024908600CF02FFD10BDF4
:1008D000143C014030B5024600230024086801287A
:1008E00016D013686FF30E03D1E901052843CD68D4
:1008F00028430D6928434D6928438D692843CD69F4
:1009000028430D6A28434D6A28430343136019E0C6
:10091000136823F4F843D1E9070528434D6A2843B7
:10092000034354686FF30E04D1E901052843CD68F1
:1009300028430D6928434D6928438D6928430443A2
:1009400013605460002030BD0246506940EA410007
:10095000506100207047F8B506460C461546002049
:1009600000900027D4E900010843A168491E40EA2D
:100970004110E16840EA412000900098306109F0A0
:10098000E9FA074609E0681C38B125B109F0E2FA36
:10099000C01BA84201D90320F8BDB06900F02000B7
:1009A0000028F0D100BFF7E770B5034615460022D6
:1009B0000024012D1FD09A6802F070420868401E82
:1009C0004E68761E40EA06168868401E46EA0026F3
:1009D000C868401E46EA0036088A401E46EA0046BD
:1009E000888A401E46EA0056087E401E46EA00609D
:1009F00002439A6022E09A6811480240C868401E8B
:100A00000603888A401E46EA00500243DC6804F070
:100A100070440868401E4E68761E40EA06168868D4
:100A2000401E46EA0026088A401E46EA0046087E26
:100A3000401E46EA006004439A60DC60002070BDFE
:100A4000FF0F0FFF01B500BF0098411E0091002865
:100A5000FAD108BD30B50146002409B9002030BDE7
:100A60004A688B689A4201D10C6806E0934201D92A
:100A70009C1A02E0D51A0868441B601EEFE730B5E7
:100A8000014609B9002030BD4A688B689A4201D1FD
:100A9000002406E09A4201D9D41A02E09D1A08689F
:100AA000441B2046EFE770B504460D4616460CB9C8
:100AB000012070BD18212046FFF731FC2560E6605B
:100AC0000A206074E06870B9284601210FF0FCFC30
:100AD000E060E06818B9002020600120E9E7207C90
:100AE00040F002002074207C40F0010020740020BF
:100AF000DFE72DE9F0470446894615464FF0000828
:100B0000CA4604B115B90020BDE8F0872168A06885
:100B1000884201D30020A0602046FFF7B0FF0746BF
:100B2000AF4203D20FB90020EEE73D46A16820682E
:100B3000461AAE4200D92E46D4E902208118324628
:100B40005046FFF7D3FBB044A0683044A060AD1B13
:100B500035B10AEB08002A46E168FFF7C7FBA5603C
:100B60002168A068884201D30020A06008EB05003E
:100B7000CAE72DE9F0470446894615464FF00008BC
:100B8000CA4604B115B90020BDE8F087D4E90010C9
:100B9000884201D3002060602046FFF75BFF0746D4
:100BA000AF4203D20FB90020EEE73D46D4E9000181
:100BB000461AAE4200D92E466268E168881832466D
:100BC0005146FFF793FBB044606830446060AD1B52
:100BD00035B10AEB08012A46E068FFF787FB65603C
:100BE000D4E90010884201D30020606008EB0500C2
:100BF000CAE700002DE9F04F8BB004468A4616463E
:100C00009B4600BF3CB196492069884203D1954874
:100C100090F8EC0040B9492293A19DA00EF074FA1F
:100C200000200BB0BDE8F08F00BFBAF1090F72D001
:100C300006DCBAF1010F0AD0BAF1040F6CD10CE056
:100C4000BAF10A0F69D0BAF1110FF7D1E4E001212E
:100C5000204611F015FA0120E3E70A96204610F02D
:100C6000EBF80746204610F085F98046204610F044
:100C700005FD8146204610F023FA054694F8380019
:100C800000F08000F0B1206D10B1206D006808E028
:100C90002069006918B120690069006801E04FF01F
:100CA0007F400990206D10B1206D406808E02069F8
:100CB000006918B120690069406801E04FF07F4089
:100CC000089044E094F8380000F00800F0B1206D7E
:100CD00010B1206D406808E02069006918B12069F2
:100CE0000069406801E04FF07F400990206D10B12D
:100CF000206D006808E02069006918B1206900696A
:100D0000006801E04FF07F40089020E0206D28B19E
:100D1000206D40680BE09BE0A0E09AE0206900694C
:100D200018B120690069406801E04FF07F400890E9
:100D3000206D10B1206D006808E02069006918B1CD
:100D400020690069006801E04FF07F40099094F845
:100D5000380000F08000E0B1291F09B20998CDE900
:100D60000010A9F1040003B208F1020002B2B81C9D
:100D700001B20A9800F061FF94F83800C0F3C00097
:100D80004B4642463946CDE900500A9801F03EF9FB
:100D900017E0B4F95A0009994B464246CDE9005094
:100DA000029139460A9800F05AFFB4F95A1008988F
:100DB0004B464246CDE90051029039460A9801F06F
:100DC00079F9204610F014FF20B301A800F0F2FDDD
:100DD000781C00B2ADF8040008F1010000B2ADF8D3
:100DE0000600A9F1020000B2ADF80800A81E00B28A
:100DF000ADF80A0012208DF80C00BDF80800ADF81F
:100E000012000898059001ABD4E90F120A9801F07E
:100E1000F5FA00BF012004E7354628780D2802D0F6
:100E200028780A2812D1606930B100231A460E21B1
:100E300020466769B84706E0206900231A460E215C
:100E4000C7682046B84700208BF800000120E8E67C
:100E500000BF204610F0BCFD0120E2E60020E0E6E5
:100E60001CB90608340902202E2E5C30302D47555F
:100E7000495F4C4942524152595C776964676574D5
:100E8000735C6775695F627574746F6E2E630000C2
:100E900041737365727420706172616D206661695F
:100EA0006C656420696E2066696C6520257320611D
:100EB0006E64206C696E652025640D0A00000000D8
:100EC0002DE9F04F87B004460D4616461F46DDE972
:100ED00012ABDDE9108933462A46214604488DE8E5
:100EE000800F0FF085FD0690069807B0BDE8F08FE3
:100EF0001CB906082DE9F04F8DB00446894692468C
:100F00009846B9F1040F06D0B9F10B0F7ED0B9F1B4
:100F10000E0F7CD178E1CDF830A020460FF08CFF89
:100F20000A90204610F026F88346204610F0A6FBD3
:100F30000990204610F0C4F8089014250A9E0899DC
:100F4000481B00EBD0710BEB61010FB294F8580015
:100F500000F0020078B1206D10B1206DC06808E08B
:100F60002069006918B120690069C06801E04FF08C
:100F70007F400B900EE0206D10B1206D006808E0FE
:100F80002069006918B120690069006801E04FF02C
:100F90007F400B90A91E09B20B98CDE90010A81E46
:100FA00003B2781C02B2701C01B20C9800F045FE2E
:100FB00001202B463A463146CDE900500C9801F00D
:100FC00025F894F8380000F01000D0B1206D10B171
:100FD000206D406808E02069006918B12069006947
:100FE000406801E04FF07F40291F09B2CDE90010B1
:100FF000281F03B2B81C02B2B01C01B20C9800F05A
:10100000D6FF94F8580000F0010001E0EEE006E1A0
:10101000002878D0206D10B1206D406808E020696C
:10102000006918B120690069406801E04FF07F4015
:101030007919491F09B2CDE900107019801F03B258
:10104000781D02B2301D01B20C9800F005FF206D32
:1010500010B1206D406808E02069006918B120696E
:101060000069406801E04FF07F407919491F09B2DB
:10107000CDE900107019401F03B2381D02B2301DB7
:1010800001B20C9800F0E8FE206D10B1206D4068B0
:1010900008E02069006918B120690069406801E032
:1010A0004FF07F407919891F09B2CDE900107019FE
:1010B000401F03B2381D02B2701D01B20C9800F03F
:1010C000CBFE206D10B1206D406808E020690069FA
:1010D00018B120690069406801E04FF07F40391D78
:1010E00009B2CDE900107019801F03B27819801F72
:1010F00002B2301D01B20C9800F0AEFE206D18B1A6
:10110000206D406809E034E02069006918B1206969
:101110000069406801E04FF07F40391D09B2CDE918
:1011200000107019401F03B27819401F02B2301D21
:1011300001B20C9800F090FE206D10B1206D406857
:1011400008E02069006918B120690069406801E081
:101150004FF07F40791D09B2CDE900107019401F92
:1011600003B27819401F02B2701D01B20C9800F052
:1011700073FE204610F03CFDA0B301A800F01AFC5D
:101180007019401D00B2ADF804000BF1010000B26F
:10119000ADF806000998401B401F00B2ADF80800EA
:1011A0000898801E00B2ADF80A0011208DF80C00DE
:1011B000BDF80800ADF81200206D10B1206D006977
:1011C00008E02069006918B120690069006901E040
:1011D0004FF07F40059001ABD4E90F120C9801F05D
:1011E0000DF900BF01200DB0BDE8F08F94F8580054
:1011F00000F0020018B1012088F8000002E0002091
:1012000088F800000120EEE794F8580000F0010093
:1012100080F00101204612F0DEFB0120E3E7002010
:10122000E1E700002DE9F04F87B004460D46164671
:101230001F46DDE912ABDDE9108933462A46214617
:1012400004488DE8800F0FF0D3FB0690069807B096
:10125000BDE8F08FB8B9060870B5044600BF3CB1D0
:101260000A492069884203D1094890F8EC0030B956
:10127000E42208A112A00DF047FF002070BD00BFBE
:1012800094F8580000F001052846F7E7B8B90608B9
:10129000340902202E2E5C30302D4755495F4C49D1
:1012A00042524152595C776964676574735C677533
:1012B000695F636865636B626F782E63000000008E
:1012C00041737365727420706172616D206661692B
:1012D0006C656420696E2066696C652025732061E9
:1012E0006E64206C696E652025640D0A00000000A4
:1012F00070B504460D4600BF3CB10B4920698842D9
:1013000003D10A4890F8EC0030B9D82208A113A004
:101310000DF0FAFE002070BD00BF2946204612F0F5
:101320005AFB06463046F6E7B8B9060834090220EB
:101330002E2E5C30302D4755495F4C494252415268
:10134000595C776964676574735C6775695F636826
:1013500065636B626F782E630000000041737365F4
:10136000727420706172616D206661696C656420C1
:10137000696E2066696C6520257320616E64206C3F
:10138000696E652025640D0A000000002DE9F0411A
:1013900004460D46164600BF3CB10C492069884200
:1013A00003D10B4890F8EC0038B9CC2209A114A065
:1013B0000DF0AAFE0020BDE8F08100BF32462946AC
:1013C000204610F0C1FE07463846F4E7B8B90608D3
:1013D000340902202E2E5C30302D4755495F4C4990
:1013E00042524152595C776964676574735C6775F2
:1013F000695F636865636B626F782E63000000004D
:1014000041737365727420706172616D20666169E9
:101410006C656420696E2066696C652025732061A7
:101420006E64206C696E652025640D0A0000000062
:1014300070B504460D4600BF3CB10B492069884297
:1014400003D10A4890F8EC0030B9F02208A113A0AB
:101450000DF05AFE002070BD00BF2946204612F054
:1014600081FB06463046F6E7B8B906083409022083
:101470002E2E5C30302D4755495F4C494252415227
:10148000595C776964676574735C6775695F6368E5
:1014900065636B626F782E630000000041737365B3
:1014A000727420706172616D206661696C65642080
:1014B000696E2066696C6520257320616E64206CFE
:1014C000696E652025640D0A000000002DE9FC5FAF
:1014D00004460D46164600BF3CB11F4920698842AC
:1014E00003D11E4890F8EC0038B946221CA127A071
:1014F0000DF00AFE0020BDE8FC9F00BF042D28D19E
:10150000374620460FF098FC814620460FF032FD0A
:101510008246204610F0B2F8834620460FF0D0FDF8
:101520008046206D10B1206D006808E020690069D8
:1015300018B120690069006801E04FF07F405B4608
:1015400052464946CDE90080384600F076FB01203E
:10155000D1E70020CFE70000F0BA060834090220E6
:101560002E2E5C30302D4755495F4C494252415236
:10157000595C776964676574735C6775695F636FED
:101580006E7461696E65722E63000000417373654D
:10159000727420706172616D206661696C6564208F
:1015A000696E2066696C6520257320616E64206C0D
:1015B000696E652025640D0A000000002DE9F04FDA
:1015C00087B004460D4616461F46DDE912ABDDE93D
:1015D000108933462A46214604488DE8800F0FF0D3
:1015E00007FA0690069807B0BDE8F08FF0BA060833
:1015F0002DE9F04104460D461746984600BF3CB120
:1016000010492069884203D10F4890F8EC0038B99E
:1016100069220EA117A00DF077FD0020BDE8F08132
:1016200000BF012D0BD1A66802E030460EF05EFB34
:1016300030460EF083FB0028F7D10120EEE70020B2
:10164000ECE7000078BA0608340902202E2E5C3040
:10165000302D4755495F4C4942524152595C776998
:1016600064676574735C6775695F6469616C6F67F3
:101670002E63000041737365727420706172616D36
:10168000206661696C656420696E2066696C6520FE
:10169000257320616E64206C696E652025640D0AD7
:1016A000000000002DE9F04F87B004460D461646B5
:1016B0001F46DDE912ABDDE910894BF0010033462E
:1016C0002A4621468DE88007049004480FF090F9DF
:1016D0000690069807B0BDE8F08F000078BA0608BB
:1016E0002DE9F04F85B004460D4616461F46DDE94C
:1016F000109ADDF83C804FF0FF3004900E983B4686
:10170000324629468DE801072046FFF7CBFF834686
:10171000BBF1000F14D002E020460EF0E7FA20469D
:101720000EF00CFB0028F7D100BF04F027FD204687
:101730000EF004FB0028F8D020460EF0D7FA0490F3
:10174000049805B0BDE8F08F2DE9F341044600266A
:1017500000BF3CB11A492069884203D1194890F86A
:10176000EC0038B99F2218A121A00DF0CDFC00207B
:10177000BDE8FC8100BF012110200EF0A5FE05464A
:10178000DDB1A068A8600198E860294624480EF001
:101790005DFC606930B1002301AA1621204667690B
:1017A000B84706E02069002301AA1621C768204631
:1017B000B847204610F004FC01263046D8E7000068
:1017C00078BA0608340902202E2E5C30302D475599
:1017D000495F4C4942524152595C7769646765746C
:1017E000735C6775695F6469616C6F672E63000085
:1017F00041737365727420706172616D20666169F6
:101800006C656420696E2066696C652025732061B3
:101810006E64206C696E652025640D0A000000006E
:10182000000402202DE9FC4107460D461646984665
:10183000089C0120434632462946CDE9000438463B
:1018400000F021F80220CDE90004681E01B24346F1
:101850003246384600F017F80820CDE90004701E23
:1018600002B243462946384600F00DF80420CDE97F
:101870000004701E02B2681E01B24346384600F0F2
:1018800002F8BDE8FC812DE9FC5F81460C46154657
:101890009846DDF830A0C8F101000FFA80FB012066
:1018A00001904FEA4800404200B2009000274646AF
:1018B000A4EB0800B9F90410884211DCA5EB08007C
:1018C000B9F9061088420BDCB9F9000004EB0801F5
:1018D000884205DCB9F9020005EB0801884201DD08
:1018E000BDE8FC9F62E0BBF1000F09DB701E06B291
:1018F0000098801C00B20090009858440FFA80FBBA
:10190000781C07B20198801C00B2019001985844DD
:101910000FFA80FB0AF0010078B1E81B02B2A01BAD
:1019200001B248460D9B00F0F9FCA81B02B2E01B77
:1019300001B248460D9B00F0F1FC0AF0020078B1BC
:10194000A81B02B2E01901B248460D9B00F0E6FC6C
:10195000E81B02B2A01901B248460D9B00F0DEFC64
:101960000AF0040078B1A81902B2E01901B24846A1
:101970000D9B00F0D3FCE81902B2A01901B2484651
:101980000D9B00F0CBFC0AF0080078B1A81902B258
:10199000E01B01B248460D9B00F0C0FCE81902B202
:1019A000A01B01B248460D9B00F0B8FCB7429ADB81
:1019B00000BF95E710B504461C212046FEF7AFFC9A
:1019C00010BD00002DE9FE4304460D4616461F4695
:1019D000DDE90A89B4F90400A8420EDBB4F9060077
:1019E000B0420ADBB4F90000E919884205DCB4F919
:1019F000020006EB0801884201DDBDE8FE83002FEE
:101A000002DDB8F1000F00DCF7E7B4F90000A842EE
:101A100005DD2088401B381A07B2B4F90050B4F92C
:101A20000200B04207DD6088801BA8EB00000FFABF
:101A300080F8B4F90260E819B4F90410884202DDB4
:101A4000A088401B07B206EB0800B4F906108842D4
:101A500003DDE088801B0FFA80F8002F14DDB8F159
:101A6000000F11DD09488DE880030069008B301AF2
:101A700003B206480069C08A281A02B20348016905
:101A8000D0F844C0001DE04700BFB6E7340902208B
:101A90002DE9FC4106460F4615469846089C012054
:101AA00043462A463946CDE90004304600F01FF887
:101AB000022043462A463946CDE90004304600F06C
:101AC00016F80820CDE90004681E02B243463946E4
:101AD000304600F00CF80420CDE90004681E02B284
:101AE00043463946304600F002F8BDE8FC812DE956
:101AF000FF5F8246894614461F46DDE90EB8C7F1EE
:101B0000010000B20390012002907800404200B230
:101B1000019000263D46BAF9000009EB0701884212
:101B20000FDCBAF90200E11988420ADCA9EB0700D0
:101B3000BAF90410884204DCE01BBAF906108842A6
:101B400001DDBDE8FF9F74E0039800280ADB681EF2
:101B500005B20198801C00B20190019903980844D5
:101B600000B20390701C06B20298801C00B2029072
:101B7000DDE90210084400B203900BF00100A8B1A7
:101B8000601B02B2A9EB060001B233465046CDF805
:101B9000008000F01DF9A01B02B2A9EB050001B204
:101BA0002B465046CDF8008000F012F90BF00200F1
:101BB00088B1601B02B2334649465046CDF80080DA
:101BC00000F006F9A01B02B22B4649465046CDF85C
:101BD000008000F0FDF80BF00800A8B1A01902B2D7
:101BE000A9EB050001B22B465046CDF8008000F06D
:101BF000EFF8601902B2A9EB060001B23346504675
:101C0000CDF8008000F0E4F80BF0040088B1A019D2
:101C100002B22B4649465046CDF8008000F0D8F875
:101C2000601902B2334649465046CDF8008000F0B4
:101C3000CFF8AE4288DB00BF83E72DE9FC470446BE
:101C40000D4616461F46DDE90A893B4632462946BF
:101C50002046CDE90089FFF7B5FEBDE8FC872DE9F8
:101C6000FC478246884691461E46DDE90B470A9DA1
:101C700005EBD571B4EB610F05DB284605EBD071A0
:101C80004910491E0CB206EBD671B4EB610F05DBAF
:101C9000304606EBD0714910491E0CB2002C75D0AD
:101CA000022000FB146000B200280CDD022000FBC3
:101CB000146003B208EB040001B24A465046CDE975
:101CC0000057FFF7BAFF022000FB145000B20028B3
:101CD0001EDD022000FB145000B2CDE9000709EB25
:101CE000040002B2234641465046FFF7A6FF0220F9
:101CF00000FB145000B2CDE9000709EB040002B26A
:101D000008EB0600001B01B223465046FFF795FF83
:101D10000120CDE9000709EB040002B208EB040042
:101D200001B223465046FFF7E2FE0220CDE900074C
:101D300009EB040002B208EB0600001B401E01B2D2
:101D400023465046FFF7D3FE0820CDE9000709EBF4
:101D50000500001B401E02B208EB040001B223463E
:101D60005046FFF7C4FE0420CDE9000709EB05004B
:101D7000001B401E02B208EB0600001B401E01B211
:101D800023465046FFF7B3FE08E0FFE733464A46D6
:101D900041465046CDE90057FFF74FFFBDE8FC87AD
:101DA0002DE9F04107460C46154608480069008BAE
:101DB000281A03B205480069C08A201A02B20348F3
:101DC0000169C66A001DB047BDE8F08134090220F0
:101DD0002DE9FC4104460D4617461E46DDF82080DD
:101DE000B4F90600B8420CDDB4F90200B84208DCD0
:101DF000B4F90400A84204DBA819B4F90010884221
:101E000001DABDE8FC81B4F90000A84205DD2088B4
:101E1000401B301A06B2B4F90050A819B4F90410E6
:101E2000884202DDA088401B06B20A48CDE900685E
:101E30000069008B381A03B206480069C08A281A64
:101E400002B204480169D0F83CC0001DE04700BF61
:101E5000D7E70000340902202DE9FF4F8BB00F4671
:101E600090469946DDF860A000240025A346002096
:101E70000A9009900890079006900026059004901B
:101E800003900290B9EB070002D4A9EB070001E030
:101E9000A7EB090004B2BAEB080002D4AAEB0800D1
:101EA00001E0A8EB0A0005B27CB919980090D04572
:101EB00001DA404600E0504602462B4639460B9870
:101EC00000F058FA0FB0BDE8F08F6DB91998009086
:101ED0004F4501DA384600E048460146234642466F
:101EE0000B98FFF775FFEDE7BB46CDF82880B945A5
:101EF00003DB01200990089003E04FF0FF300990C8
:101F00000890C24503DB01200790069003E04FF0E4
:101F1000FF3007900690AC420CDB00200990069041
:101F20002646204604EBD071491009B2059104956C
:101F300003940BE00020089007902E46284605EBFE
:101F4000D071491009B205910494039500200290C4
:101F500027E05946199BDDE90A2000F0DFF9DDE9A9
:101F60000410084400B205900598B0420CDB0598B7
:101F7000801B00B20590099858440FFA80FB07991E
:101F80000A98084400B20A90089858440FFA80FB57
:101F900006990A98084400B20A900298401C00B2C0
:101FA0000290DDE902018842D3DD00BF8AE72DE916
:101FB000F84381460F4690461D46DDE9086405B1A9
:101FC0000EB9BDE8F8832B46424639464846009490
:101FD000FFF7FEFE3346424639464846009400F07D
:101FE000C9F908EB0600401E02B22B4639464846A6
:101FF0000094FFF7EDFE7819401E01B233464246C9
:102000004846009400F0B6F900BFDAE72DE9FF4F2B
:1020100083B00C4615461E46DDE9107A4FF07F4B23
:10202000BAF1000F04D1DFF884804FEAF87903E0B9
:10203000DFF87C80DFF8749033462A462146CDE9EC
:10204000007B0398FFF7B3FFB01E03B2681C02B217
:10205000601C01B2CDF800800398FFF7B9FEF81EAE
:1020600003B2681C02B2601C01B2CDF80080039874
:1020700000F080F9B01E03B2E819801E02B2601CA5
:1020800001B2CDF800900398FFF7A2FE381F03B20B
:10209000A019801E01B2A81C02B2CDF800900398CE
:1020A00000F068F907B0BDE8F08F0000AAAAAAFF07
:1020B000555555FF2DE9FC478246884691461D46F9
:1020C000DDE90B470A9E06EBD671B4EB610F05DB29
:1020D000304606EBD0714910491E0CB205EBD571A4
:1020E000B4EB610F05DB284605EBD0714910491EA2
:1020F0000CB2002C73D0022000FB145003B208EB8A
:10210000040001B24A4650460097FFF761FE0220E4
:1021100000FB146003B209EB040002B208EB0500F7
:10212000401E01B25046009700F024F9022000FB47
:10213000145003B209EB0600401E02B208EB040083
:1021400001B250460097FFF743FE022000FB1460E7
:1021500003B209EB040002B241465046009700F07A
:1021600009F90120CDE9000709EB040002B208EBF0
:10217000040001B223465046FFF785FB0220CDE95B
:10218000000709EB040002B208EB0500001B401E2B
:1021900001B223465046FFF776FB0820CDE9000741
:1021A00009EB0600001B401E02B208EB040001B25E
:1021B00023465046FFF767FB0420CDE9000709EBF3
:1021C0000600001B401E02B208EB0500001B401E6B
:1021D00001B223465046FFF756FB08E0FFE72B46C7
:1021E0004A4641465046CDE90067FFF7E0FEBDE8AC
:1021F000FC8700002DE9FC4781460C464FF0000AA1
:10220000B4F90480B4F904004000032190FBF1F01C
:1022100005B20020CDE90050B4F90220B4F9001055
:1022200043464846FFF7F2FE3749281F00B2CDE982
:102230000001A8F1040003B26088801C02B220886B
:10224000801C01B24846FFF7F8FC0020CDE90050A1
:102250006088E3881844401B02B2B4F9001043467A
:102260004846FFF7D3FE2849281F00B2CDE90001F8
:102270006088B4F806C06044401B801C02B2A8F11C
:10228000040003B22088801C01B24846FFF7D5FC49
:10229000B4F90600022101FB150007B21A48CDE986
:1022A0000070B4F904306088284402B2B4F9001018
:1022B0004846FFF7C2FCD4E90310884213D22069D4
:1022C0007843E168B0FBF1F006B2062E00DA06268C
:1022D000B81B61694843D4E90312891AB0FBF1F0D5
:1022E0000FFA80FA00E03E460020CDE90060B4F924
:1022F000043060882844504402B2B4F900104846C3
:10230000FFF784FEBDE8FC87848484FF10B5044693
:1023100018212046FEF703F810BD0000F8B504466A
:102320000D4616461F46B4F90200B0420BDCB4F964
:102330000600B04207DDB4F90000A84203DCB4F99E
:102340000400A84200DCF8BD094800970069008B32
:10235000301A03B206480069C08A281A02B204483B
:102360000169D0F828C0001DE04700BFEBE700007E
:10237000340902202DE9FC4104460F4615461E464D
:10238000DDF82080B4F90400B8420CDDB4F9000097
:10239000B84208DCB4F90600A84204DBA819B4F975
:1023A0000210884201DABDE8FC81B4F90200A842BB
:1023B00005DD6088401B301A06B2B4F90250A81936
:1023C000B4F90610884202DDE088401B06B20A48D4
:1023D000CDE900680069008B281A03B2064800693D
:1023E000C08A381A02B204480169D0F840C0001D02
:1023F000E04700BFD7E70000340902202DE9F04F85
:102400008FB08146884692461C461C2106A8FDF7DF
:1024100086FF608910B998F804006081CDF830809B
:102420000B94207BC0F3C0000890514603A805F030
:10243000D7F8002203A906A811F0D4FEBDF91C00AC
:10244000B4F90410884211DD207B00F0020050B185
:10245000514603A805F0C4F8224603A9404611F0EE
:1024600088FE824602E0A088ADF81C00B4F9006046
:10247000B4F90250207A00F0100050B1B4F90610FF
:10248000BDF91E20881A00EBD07105EB61010DB279
:1024900009E0207A00F0200028B1E088BDF81E1085
:1024A000401A284405B2B4F90200A84201DDB4F98B
:1024B0000250208B281A05B2207B00F0040070B176
:1024C000089860B1BDF91E00B4F90610884206DD17
:1024D0006088E1880844BDF81E10401A05B25146D4
:1024E00003A805F07DF85DE0B4F90060207A00F003
:1024F000020050B1B4F90410BDF91C20881A00EB99
:10250000D07106EB61010EB209E0207A00F0040000
:1025100028B1A088BDF81C10401A304406B229E04A
:102520000A9800B926E00A98401E0A90B9F90400FA
:10253000B04200DA1EE00E980D2802D00E980A284C
:1025400001D1202000E00E980E9040460E9911F027
:10255000CFFD071E00D10DE03346224641464846D6
:10256000CDE900570DF0FEF8387839790844304449
:1025700006B200BFBBF10000ABF1010B06D00DAA03
:102580000EA903A804F064FF0028C9D1608928447B
:1025900005B2207B00F0040018B1B9F90600A8428A
:1025A00000DA07E0012203A906A811F01BFEB0F132
:1025B000000B99D100BF0FB0BDE8F08F2DE9F041BD
:1025C00004460E46002700BF3CB1164920698842E8
:1025D00003D1154890F8EC0040B940F2172213A13E
:1025E0001DA00CF091FD0020BDE8F08100BF01218D
:1025F0000C200DF069FF054695B1AE60294604F147
:1026000064000DF023FDB4F85C00401C00B2A4F897
:102610005C0020460CF049FF20460FF0D9F9012755
:102620003846E1E740BA0608340902202E2E5C3015
:10263000302D4755495F4C4942524152595C7769A8
:1026400064676574735C6775695F64726F70646FEB
:10265000776E2E6300000000417373657274207002
:102660006172616D206661696C656420696E2066C7
:10267000696C6520257320616E64206C696E65202D
:1026800025640D0A000000002DE9FF4F91B00446BB
:102690001646994612980B2870D008DC01280FD0F6
:1026A00004281CD006286AD0082869D18EE20C289C
:1026B00067D00E287ED011287DD01528F5D1A3E251
:1026C0004FF0FF3024F85E0F1E20E081207C40F0A8
:1026D000040020745E3C012015B0BDE8F08FB046C8
:1026E00020460EF0A9FB074620460EF043FC109052
:1026F00020460EF0C3FF054620460EF0E1FC0F9089
:1027000094F86E0000F00100002865D00DA80EAB13
:102710000FAA10A90090204610F0F9FA0120BDF987
:1027200034102B46CDE90010BDF940203946404613
:10273000FFF76CFC206D10B1206D006808E0206987
:10274000006918B120690069006801E04FF07F401E
:10275000BDF83410091F09B2CDE90010281F03B2DB
:10276000BDF83800801C02B2B81C01B24046FFF729
:1027700064FA206D30B1206D00680CE0E7E1D0E133
:102780004BE2EDE12069006918B120690069006839
:1027900001E04FF07F40BDF83C10091F09B2CDE9C0
:1027A0000010281F03B2BDF84000801C02B2B81C04
:1027B00001B201E0F9E10FE24046FFF73EFA0120E5
:1027C000BDF93C102B46CDE90010BDF9402039463B
:1027D0004046FFF71BFC30E0BDF940000E90BDF90C
:1027E0003C000D900020BDF93C102B46CDE90010B7
:1027F000BDF9402039464046FFF708FC206D10B176
:10280000206D006808E02069006918B1206900693E
:10281000006801E04FF07F40BDF83C10091F09B28D
:10282000CDE90010281F03B2BDF84000801C02B2A1
:10283000B81C01B24046FFF700FAB4F95E00002868
:102840004DDBE06BC0B306A8FFF7B4F8002104F13C
:1028500064000DF00DFC83464FF0000A08E0594675
:1028600000200DF005FC83460AF101000FFA80FA02
:10287000B4F95E005045F2DCF81C00B2ADF8180067
:10288000BDF83800C01C00B2ADF81A00A81F00B295
:10289000ADF81C00BDF83400801F00B2ADF81E007A
:1028A00011208DF82000BDF81C00ADF82600206D29
:1028B00018B1206D406809E011E02069006918B185
:1028C00020690069406801E04FF07F400A90DBF822
:1028D000082006AB4046E16BFFF790FD00BF94F87F
:1028E0006E0000F0010088B394F86E0000F0020062
:1028F00060B35C34208A281A05B207A8FFF706FDEA
:102900007819401E00B2ADF81C00BDF84000401C14
:1029100000B2ADF81E00208AADF82000BDF83C00E2
:10292000801E00B2ADF8220000208DF82400B4F91A
:1029300004000C9034F95C090A90204610F012FC57
:102940000B9007A94046FFF755FC02E0FFE7681E21
:1029500005B294F86E0000F00100002870D0E06B22
:102960000028FBD0606E0028F8D00020049005A954
:10297000204610F0B1FB834606A8FFF71BF8381D70
:1029800000B2ADF81800BDF84000801C00B2ADF8F0
:102990001A00A81F00B2ADF81C000FFA8BF0ADF8BA
:1029A0001E0011208DF82000BDF81C00ADF8260097
:1029B000B8F906000390B8F90600BDF94010BDF95A
:1029C0003C201144884207DDBDF84000BDF83C10B2
:1029D000084400B2A8F8060000200490002104F189
:1029E00064000DF045FB82468BE0B4F9601004985A
:1029F000814200DD7CE0B4F95E10049881425AD136
:102A000094F8380000F0100070B1206D10B1206D06
:102A1000006918E02069006918B12069006900693F
:102A200011E04FF07F400EE0206D10B1206D406945
:102A300009E02069006920B120690069406902E06D
:102A40006DE04FF07F40BDF91E10594502DABDF927
:102A50001E1000E0594609B2CDE90010E81E03B28D
:102A6000BDF91A20B81C01B24046FFF7E6F894F809
:102A7000380000F0100070B1206D10B1206D80683A
:102A800017E02069006918B120690069806810E0CA
:102A90004FF07F400DE0206D10B1206DC06808E060
:102AA0002069006918B120690069C06801E04FF031
:102AB0007F400A900EE0206D10B1206D406808E064
:102AC0002069006918B120690069406801E04FF091
:102AD0007F400A90DAF8082006AB4046E16BFFF72A
:102AE0008DFCBDF81A00584400B2ADF81A0000BFC2
:102AF000514600200DF0BCFA82460498401C80B27A
:102B00000490BAF1000F06D0BDF91A00B8F906100A
:102B100088427FF76AAF0398A8F8060000BF01203B
:102B2000DAE505E000BF28460DF0D6FC002500BF21
:102B3000002104F164000DF09BFA0746394604F1C8
:102B400064000DF0B7FB051EECD10120C4E5314651
:102B5000888A334A1080002089F800000120BBE5F4
:102B60003746E06BF8B10021204610F0B5FA0FFAB5
:102B700080F8B88A2A490988081A05B2002D01DBB5
:102B8000284600E0684240450CDD002D01DD0120B3
:102B900001E04FF0FF300146204611F039FAB88AC3
:102BA0001F49088000BF012096E5354694F86E0065
:102BB00000F0010020B90121204610F00AFB03E0DB
:102BC0002946204610F089FB012085E5002120469A
:102BD00010F0FFFA01207FE535462878022807D15A
:102BE0000121204610F017F9002089F8000009E0C3
:102BF0002878012806D1811E204610F00CF900200B
:102C000089F80000012067E5B6F90010204610F0B1
:102C100002F9012089F800005EE500205CE5000073
:102C2000FC0302202DE9F04F87B004460D461646FE
:102C30001F46DDE912ABDDE9108933462A462146FD
:102C400004488DE8800F0DF0D3FE0690069807B07B
:102C5000BDE8F08F40BA060870B504460D46002660
:102C600000BF3CB119492069884203D1184890F847
:102C7000EC0038B940F22D2216A121A00CF044FA44
:102C8000002070BD00BF94F86E0000F00100D8B9BC
:102C900094F86E0000F0080040B13DB994F86E0061
:102CA00000F0080084F86E0001260DE094F86E0034
:102CB00000F0080040B9012D06D194F86E0040F0F4
:102CC000080084F86E0001263046DAE740BA0608AC
:102CD000340902202E2E5C30302D4755495F4C4977
:102CE00042524152595C776964676574735C6775D9
:102CF000695F64726F70646F776E2E63000000000E
:102D000041737365727420706172616D20666169D0
:102D10006C656420696E2066696C6520257320618E
:102D20006E64206C696E652025640D0A0000000049
:102D300070B504460D4600BF3CB119492069884270
:102D400003D1184890F8EC0038B94FF41D7216A161
:102D500020A00CF0D9F9002070BD00BF75B194F827
:102D60006E0000F0040048B994F86E0040F00400D2
:102D700084F86E0020460EF02BFE0EE06DB994F83C
:102D80006E0000F0040040B194F86E0020F00400E2
:102D900084F86E0020460EF01BFE0120DCE70000E8
:102DA00040BA0608340902202E2E5C30302D4755DB
:102DB000495F4C4942524152595C77696467657476
:102DC000735C6775695F64726F70646F776E2E6392
:102DD0000000000041737365727420706172616D50
:102DE000206661696C656420696E2066696C652087
:102DF000257320616E64206C696E652025640D0A60
:102E00000000000070B504460D46002600BF3CB12E
:102E10001C492069884203D11B4890F8EC0038B95E
:102E200040F2862219A124A00CF06EF9002070BD9A
:102E300000BF94F86E0000F0040000BB7DB194F870
:102E40006E0000F0020050B994F86E0040F00200ED
:102E500084F86E0020460EF0BBFD01260FE075B928
:102E600094F86E0000F0020048B194F86E0020F073
:102E7000020084F86E0020460EF0AAFD01263046BE
:102E8000D5E7000040BA0608340902202E2E5C3037
:102E9000302D4755495F4C4942524152595C776940
:102EA00064676574735C6775695F64726F70646F83
:102EB000776E2E630000000041737365727420709A
:102EC0006172616D206661696C656420696E20665F
:102ED000696C6520257320616E64206C696E6520C5
:102EE00025640D0A000000002DE9F04F89B004466A
:102EF0008B4691469A4600BF3CB179492069884289
:102F000003D1784890F8EC0040B9532276A181A013
:102F10000CF0FAF8002009B0BDE8F08F00BFBBF15B
:102F2000080F7DD009DCBBF1010F0DD0BBF1040F00
:102F300011D0BBF1070F74D1B7E0BBF10B0F71D00B
:102F4000BBF1110FF7D1BEE0102084F85900012029
:102F500084F85A00DFE7CDF8209020460DF06CFF92
:102F6000054620460EF006F8064620460EF086FB83
:102F7000074620460EF0A4F8804601203B46324624
:102F80002946CDE900800898FFF740F8206D10B180
:102F9000206D006808E02069006918B120690069A7
:102FA000006801E04FF07F40A8F1040109B2CDE9CB
:102FB0000010381F03B2B01C02B2A81C01B208985E
:102FC000FEF73BFE94F8380000F01000D8B1206DF9
:102FD00010B1206D806808E02069006918B120698F
:102FE0000069806801E04FF07F40A8F1060109B256
:102FF000CDE90010B81F03B2F01C02B2E81C01B208
:103000000898FEF7D4FF20460EF0F2FD78B301A831
:10301000FEF7D0FC681D00B2ADF80400701D02E0A0
:1030200048E05BE04AE000B2ADF80600A7F10A0014
:1030300000B2ADF80800A8F10A0000B2ADF80A002D
:1030400094F85A0094F8591008438DF80C00BDF814
:103050000800ADF81200206D10B1206D406809E045
:103060002069006920B120690069406802E01AE027
:103070004FF07F4005909DF8100040F00A008DF859
:10308000100094F8580000F0010028B19DF81000DD
:1030900040F004008DF8100001ABD4E90F1208983D
:1030A000FFF7ACF900BF012035E720460CF078FFB0
:1030B000012030E70CF028FF01202CE700208AF8DF
:1030C0000000012027E74D46294620460EF06EFEFF
:1030D00010B100208AF8000001201CE700201AE748
:1030E00040B90608340902202E2E5C30302D475599
:1030F000495F4C4942524152595C77696467657433
:10310000735C6775695F65646974746578742E6350
:103110000000000041737365727420706172616D0C
:10312000206661696C656420696E2066696C652043
:10313000257320616E64206C696E652025640D0A1C
:10314000000000002DE9F04F87B004460D461646FA
:103150001F46DDE912ABDDE9108933462A462146D8
:1031600004488DE8800F0DF043FC0690069807B0E8
:10317000BDE8F08F40B9060870B504460D4601263B
:1031800000BF3CB115492069884203D1144890F82A
:10319000EC0030B9BE2213A11DA00BF0B5FF00203A
:1031A00070BD00BF5DB194F8580000F0010030B967
:1031B00094F8580040F0010084F858000BE055B92D
:1031C00094F8580000F0010028B194F8580020F05D
:1031D000010084F858003046E2E7000040B90608D4
:1031E000340902202E2E5C30302D4755495F4C4962
:1031F00042524152595C776964676574735C6775C4
:10320000695F65646974746578742E6300000000FA
:1032100041737365727420706172616D20666169BB
:103220006C656420696E2066696C65202573206179
:103230006E64206C696E652025640D0A0000000034
:1032400070B504460D4600BF3CB10D492069884267
:1032500003D10C4890F8EC0030B9CC220AA115A09B
:103260000BF052FF002070BD00BF94F85900A84237
:1032700004D084F8595020460EF012FC0120F2E7E9
:1032800040B90608340902202E2E5C30302D4755F7
:10329000495F4C4942524152595C77696467657491
:1032A000735C6775695F65646974746578742E63AF
:1032B0000000000041737365727420706172616D6B
:1032C000206661696C656420696E2066696C6520A2
:1032D000257320616E64206C696E652025640D0A7B
:1032E0000000000070B504460D4600BF3CB10E4919
:1032F0002069884203D10D4890F8EC0038B94FF4AA
:10330000BB720BA114A00BF0FFFE002070BD00BF2C
:10331000294604F158000CF0F4FE214628460CF032
:10332000F0FE0120F2E70000F8B806083409022098
:103330002E2E5C30302D4755495F4C494252415248
:10334000595C776964676574735C6775695F6772F8
:103350006170682E630000004173736572742070A1
:103360006172616D206661696C656420696E2066BA
:10337000696C6520257320616E64206C696E652020
:1033800025640D0A000000002DE9FF4F2DED0A8B8A
:103390008BB0044616980B2875D006DC01280BD09C
:1033A000042833D006286FD1F5E30C286DD00D2802
:1033B0006CD01028F7D1EFE30520A4F860000521B8
:1033C000622001536420015366200153B2EE040AC7
:1033D00084ED1C0ABAEE040A84ED1B0AB2EE040A5C
:1033E00084ED1E0ABBEE040A84ED1D0A20460CF093
:1033F000BDFC082084F868000A2084F869000120D8
:103400000BB0BDEC0A8B04B0BDE8F08F179DB4F98A
:1034100060B0B4F962000990B4F964000890B4F99E
:10342000667020460DF008FD804620460DF0A2FD96
:10343000079020460EF022F9069020460DF040FE3F
:103440008246206D10B1206D006808E02069006997
:1034500018B120690069006801E04FF07F403B46E9
:10346000CDE900A041462846079AFEF7E6FB206D0D
:1034700010B1206D00680CE02069006938B1206946
:103480000069006805E002E3F4E31CE3F3E34FF0B6
:103490007F40CDE900B00698C21B0998101A03B20C
:1034A00008EB070001B22846079AFEF7C6FB206D1D
:1034B00010B1206D006808E02069006918B120692A
:1034C0000069006801E04FF07F400899CDE90010E5
:1034D0000698A0EB070C0998ACEB000003B2079824
:1034E00000EB0A0CACEB010002B208EB070001B2E2
:1034F0002846FEF7A2FB206D10B1206D006808E0A1
:103500002069006918B120690069006801E04FF086
:103510007F40CDE900A0069808EB00020998101A38
:1035200001B22846099B079AFEF787FB206D10B170
:10353000206D406808E02069006918B120690069C1
:10354000406801E04FF07F40AAEB0B020899511A46
:1035500009B2CDE900100698A0EB070C0998ACEB76
:10356000000003B20798584402B208EB070001B20A
:103570002846FEF762FB206D10B1206D806808E0E0
:103580002069006918B120690069806801E04FF086
:103590007F40CDE900A041462846DDE90632FEF72E
:1035A00006FD94F86800E0B3AAEB0B010898081A2E
:1035B00000EE100AF8EEC00A94F8680000EE100A57
:1035C000B8EE400A80EE801AB0EE418A01200590E4
:1035D00032E0206D10B1206DC06808E020690069FC
:1035E00018B120690069C06801E04FF07F40009089
:1035F0000798584400EE100AF8EEC00A9DED050A3F
:10360000B8EE400A40EE080ABDEEE00A10EE100ADD
:1036100002B20698A0EB070C0998ACEB000003B2CD
:1036200000E00FE008EB070001B22846FEF7D0FBF0
:103630000598401CC0B2059094F868100598814226
:10364000C7DC00BF94F86900F0B30698C11B099865
:10365000081A00EE100AF8EEC00A94F8690000EEAD
:10366000100AB8EE400A80EE801AB0EE418A0120BE
:10367000059031E0206D10B1206DC06808E0206930
:10368000006918B120690069C06801E04FF07F400F
:10369000009008EB070000EE100AF8EEC00A9DED5E
:1036A000050AB8EE400A40EE080ABDEEE00A10EE48
:1036B000100A01B2AAEB0B0C0898ACEB000003B2A5
:1036C0000798584402B200E00CE02846FEF752FE8C
:1036D0000598401CC0B2059094F869100598814285
:1036E000C8DC00BFA06D002874D094ED200AD4ED92
:1036F0001F0A30EE600AB0EE40CA94ED220AD4ED03
:10370000210A30EE600AF0EE40CA0698C11B099803
:10371000081A00EE100AB8EEC00AC0EE0C0AB0EEAD
:1037200060AAAAEB0B010898081A00EE100AB8EE7E
:10373000C00AC0EE2C0AB0EE60BA079800EB0A018E
:103740000898081A401E00B208EE900A08EB07001D
:1037500000B209EE900A286803906868049008EBAC
:103760000700B5F90010884203DD08EB070000B23E
:103770002880069808EB00010998081AB5F904108A
:10378000884206DA069808EB00010998081A00B288
:10379000A88007985844B5F90210884203DD0798BD
:1037A000584400B26880079800EB0A010898091A8B
:1037B000B5F90600814206DA079800EB0A0108987D
:1037C000081A00B2E880002104F158000CF00CFD4A
:1037D0000A9051E159E10A9810B10A98806800E016
:1037E00000200646D6F8109030690290307EE0BB8B
:1037F000D4ED1F0AB8EEE90A00EECA0AB0EE408A1C
:10380000B06830F9190000EE100AB8EEC00AD4ED25
:10381000210A70EE600AB8EEE80A00EECB0AF0EE7C
:1038200040BA09F101008146F168884201D14FF0A8
:103830000009B5F9040000EE100AB8EEC00AB4EEB3
:10384000C80AF1EE10FA14D396ED030AF8EE400A16
:10385000B0EE480A00EE8A0AB5F9000000EE900AC0
:10386000F8EEE00AB4EEE00A00E07AE0F1EE10FAD9
:1038700000D2FCE066E038EE0A0AB0EE409AB0688A
:1038800030F9190000EE100AB8EEC00AD4ED210A92
:1038900070EE600AB8EEE80A00EECB0AF0EE40AA3D
:1038A000B5F9000000EE100AB8EEC00AB4EEC80A7E
:1038B000F1EE10FA0AD9B5F9000000EE100AB8EEE0
:1038C000C00AB4EEC90AF1EE10FA2FD8B5F9040017
:1038D00000EE100AB8EEC00AB4EEC80AF1EE10FA13
:1038E0000ADCB5F9040000EE100AB8EEC00AB4EE26
:1038F000C90AF1EE10FA19DDBDEEEA0A10EE101A4F
:1039000009B27069BDEEC90ACDE9001010EE100AC7
:1039100003B2BDEEEB0A10EE100A02B2BDEEC80A09
:1039200010EE100A01B22846FEF796FAB0EE498A68
:10393000F0EE6ABA09F101008146F168884201D1CE
:103940004FF00009029881450AD0B5F9040000EE55
:10395000100AB8EEC00AB4EEC80AF1EE10FA8ADA1C
:1039600084E0307E01287DD14FEA4900B16831F909
:10397000100000EE100AB8EEC00AD4ED1F0A70EE77
:10398000600AB8EEE90A00EE8A0AB0EE408A4FEA11
:103990004900401CB16831F9100000EE100AB8EE81
:1039A000C00AD4ED210A70EE600AB8EEE80A00EE13
:1039B000CB0AF0EE40BA09F101008146F168884275
:1039C00001D14FF000094CE04FEA4900B16831F9EC
:1039D000100000EE100AB8EEC00AD4ED1F0A70EE17
:1039E000600AB8EEE90A00EE8A0AB0EE409A4FEAA1
:1039F0004900401CB16831F9100000EE100AB8EE21
:103A0000C00AD4ED210A70EE600AB8EEE80A00EEB2
:103A1000CB0AF0EE40AABDEEEA0A10EE101A09B287
:103A20007069BDEEC90ACDE9001010EE100A03B2AC
:103A3000BDEEEB0A10EE100A02B2BDEEC80A10EE9F
:103A4000100A01B22846FEF707FAB0EE498AF0EEF6
:103A50006ABA09F101008146F168884201D14FF04C
:103A6000000900E002E002988145ADD100BF0020CE
:103A70000A990CF0B9FB0A900A9800287FF4ABAEC3
:103A8000039828600498686000BF0120B8E4179A82
:103A9000002100BF0FE002F1100030F81100894B47
:103AA00023F8110002F1140030F81100864B23F8BE
:103AB0001100481CC1B210788842ECDC0023189831
:103AC000037001209CE4179D2878012865D1B5F981
:103AD0001070B5F9148020460DF0D0FDB4F96610D1
:103AE000411AB4F96200081A00EE100AB8EEC00AD2
:103AF000D4ED200A94ED1F1A70EEC10A80EE201A50
:103B0000F0EE418A6F48B0F90000381A00EE100A52
:103B1000B8EEC00AC0EE280AB0EE608A94ED1F0A23
:103B200030EE480A84ED1F0A94ED200A30EE480A70
:103B300084ED200A20460DF0C3FAB4F96010411A52
:103B4000B4F96400081A00EE100AB8EEC00AD4ED09
:103B5000220A94ED211A70EEC10A80EE201AF0EECE
:103B6000418A5948B0F90000A8EB000000EE100AA5
:103B7000B8EEC00AC0EE280AB0EE608A94ED210AC1
:103B800030EE080A84ED210A94ED220A30EE080A8C
:103B900084ED220A54E079E070E0287802284FD1C1
:103BA000B5F9160002EE100AB8EEC22AF0EE421A7B
:103BB000B5F9120002EE100AB8EEC22AB0EE421AAF
:103BC000B5F9140002EE100AB8EEC22AF0EE420A6D
:103BD000B5F9100002EE100AB8EEC22AB0EE420AA1
:103BE00009A90AA801F0D6FF95ED070AD5ED080A44
:103BF00080EE201AB0EE419A20460DF061FA00EEF8
:103C0000100AB8EEC00ADDED090A80EE801AF0EE67
:103C1000419A20460DF032FD00EE100AB8EEC00ABF
:103C2000DDED0A0A80EE801AB0EE41AAB0EE691A04
:103C3000F0EE4A0AB0EE490A20460CF0A8F800BFA0
:103C400000260FE005F1100030F816001D4921F89C
:103C5000160005F1140030F816001B4921F8160073
:103C6000701CC6B22878B042ECDC20460DF0B0FEE5
:103C700001200BE723E0FFE7012007E720460CF0D7
:103C800075F820460DF0A4FE0120FFE6002104F1A6
:103C900058000CF0A9FA05460DE00DB1A86800E047
:103CA00000200646214630460CF03EFA2946002008
:103CB0000CF09AFA0546002DEFD10120E6E600202F
:103CC000E4E60000F2030220F60302202DE9F04FA3
:103CD00087B004460D4616461F46DDE912ABDDE906
:103CE000108933462A46214604488DE8800F0CF09F
:103CF0007FFE0690069807B0BDE8F08FF8B806087A
:103D000070B504460E46154600BF1CB1174890F822
:103D1000EC0038B94FF4017215A11FA00BF0F4F9B3
:103D2000002070BD00BF207E20B92169A06820F866
:103D300011500DE0207E01280AD120694000A168C1
:103D400021F8106020694000401CA16821F8105043
:103D50002069401C2061D4E90310884201D300206F
:103D60002061204608F078F90120DAE734090220C2
:103D70002E2E5C30302D4755495F4C4942524152FE
:103D8000595C776964676574735C6775695F6772AE
:103D90006170682E63000000417373657274207057
:103DA0006172616D206661696C656420696E206670
:103DB000696C6520257320616E64206C696E6520D6
:103DC00025640D0A0000000070B506460D4601216D
:103DD0001C200CF079FB0446ACB12676E5602EB9C8
:103DE000680001210CF070FBA06004E0A800012134
:103DF0000CF06AFBA060A06828B900BF20460CF058
:103E00006BFB002400BF204670BD000010B52DEDF7
:103E1000028B0446B0EE408A00BF3CB110492069D5
:103E2000884203D10F4890F8EC0048B940F2AF1235
:103E30000DA117A00BF068F90020BDEC028B10BD9E
:103E400000BF94ED1C0AB4EE480AF1EE10FA04D05B
:103E500084ED1C8A20460DF0BBFD0120EDE700003B
:103E6000F8B80608340902202E2E5C30302D475554
:103E7000495F4C4942524152595C776964676574A5
:103E8000735C6775695F67726170682E630000001C
:103E900041737365727420706172616D206661692F
:103EA0006C656420696E2066696C652025732061ED
:103EB0006E64206C696E652025640D0A00000000A8
:103EC00010B52DED028B0446B0EE408A00BF3CB128
:103ED00010492069884203D10F4890F8EC0048B996
:103EE00040F2C9120DA117A00BF00EF90020BDEC95
:103EF000028B10BD00BF94ED1E0AB4EE480AF1EE2D
:103F000010FA04D084ED1E8A20460DF061FD0120D8
:103F1000EDE70000F8B80608340902202E2E5C30C8
:103F2000302D4755495F4C4942524152595C77699F
:103F300064676574735C6775695F67726170682E2A
:103F40006300000041737365727420706172616D6B
:103F5000206661696C656420696E2066696C652005
:103F6000257320616E64206C696E652025640D0ADE
:103F70000000000010B52DED028B0446B0EE408A23
:103F800000BF3CB110492069884203D10F4890F826
:103F9000EC0048B94FF4D1720DA117A00BF0B4F8A2
:103FA0000020BDEC028B10BD00BF94ED1B0AB4EEE7
:103FB000480AF1EE10FA04D084ED1B8A20460DF079
:103FC00007FD0120EDE70000F8B8060834090220DB
:103FD0002E2E5C30302D4755495F4C49425241529C
:103FE000595C776964676574735C6775695F67724C
:103FF0006170682E630000004173736572742070F5
:104000006172616D206661696C656420696E20660D
:10401000696C6520257320616E64206C696E652073
:1040200025640D0A0000000010B52DED028B04463A
:10403000B0EE408A00BF3CB110492069884203D1EC
:104040000F4890F8EC0048B94FF4DE720DA117A0AC
:104050000BF05AF80020BDEC028B10BD00BF94EDB0
:104060001D0AB4EE480AF1EE10FA04D084ED1D8A60
:1040700020460DF0ADFC0120EDE70000F8B8060881
:10408000340902202E2E5C30302D4755495F4C49B3
:1040900042524152595C776964676574735C677515
:1040A000695F67726170682E630000004173736519
:1040B000727420706172616D206661696C65642044
:1040C000696E2066696C6520257320616E64206CC2
:1040D000696E652025640D0A0000000010B52DED05
:1040E000048B0446B0EE408BB0EE419A00BF3CB169
:1040F0000E492069884203D10D4890F8EC0048B978
:1041000040F2E1120BA115A00AF0FEFF0020BDEC69
:10411000048B10BD00BFB0EE491AF0EE680AB0EE95
:10412000480A20460BF033FE0120F0E7F8B80608F5
:10413000340902202E2E5C30302D4755495F4C4902
:1041400042524152595C776964676574735C677564
:10415000695F67726170682E630000004173736568
:10416000727420706172616D206661696C65642093
:10417000696E2066696C6520257320616E64206C11
:10418000696E652025640D0A0000000010B5044624
:1041900000BF3CB10C492069884203D10B4890F81C
:1041A000EC0038B94FF4EB7209A113A00AF0ACFF90
:1041B000002010BD00BF20460BF0D8FD20460DF0BA
:1041C00007FC0120F5E70000F8B8060834090220D2
:1041D0002E2E5C30302D4755495F4C49425241529A
:1041E000595C776964676574735C6775695F67724A
:1041F0006170682E630000004173736572742070F3
:104200006172616D206661696C656420696E20660B
:10421000696C6520257320616E64206C696E652071
:1042200025640D0A0000000010B5044600BF1CB153
:104230000C4890F8EC0030B958220BA113A00AF0FA
:1042400063FF002010BD00BF06480068A0600C227C
:1042500021461A48FCF78DFC08B10120F2E7002046
:10426000F0E70000340902202E2E5C30302D475537
:10427000495F4C4942524152595C696E7075745C99
:104280006775695F696E7075742E6300417373653D
:10429000727420706172616D206661696C65642062
:1042A000696E2066696C6520257320616E64206CE0
:1042B000696E652025640D0A00000000580C02207C
:1042C00010B5044600BF1CB10C4890F8EC0030B9A2
:1042D00044220BA113A00AF017FF002010BD00BF5D
:1042E00006480068E060102221461A48FCF741FCAD
:1042F00008B10120F2E70020F0E7000034090220B5
:104300002E2E5C30302D4755495F4C494252415268
:10431000595C696E7075745C6775695F696E7075FC
:10432000742E630041737365727420706172616DE5
:10433000206661696C656420696E2066696C652021
:10434000257320616E64206C696E652025640D0AFA
:10435000000000009C0B02207FB5F0213448FBF7E1
:10436000DEFF0120039003AB314A20320021A2F18D
:104370001C0001F073FB2E48016A001D88472C4881
:104380004069002846D000241FE0002128488069A9
:10439000C4EBC40200EB8200C18225488069C4EBF3
:1043A000C40200EB82000183214881888069C4EB4C
:1043B000C40200EB820041821D48C1888069C4EBC1
:1043C000C40200EB82008182641C19484069A0424B
:1043D000DBD817488169C160816901614FF0FF3105
:1043E0000022B0F90600CDE9012100901048B0F993
:1043F0000430006942680E480169056B001DA8473A
:104400000B484069012804D9094880691C300849D3
:10441000086102E0012004B070BD0BF031FD012005
:10442000034981F8EC000DF0CDFA0020F3E700001D
:10443000340902201FB50A48406868B901200949BB
:104440000022CDE900020346CDE902101146000327
:10445000FDF7B4F8024948600148406804B010BD57
:104460000C040220895801080949097F01F0010163
:1044700069B1002206498969C0EBC00301EB8301E1
:104480000A720349C96921F001020149CA617047F2
:10449000340902202DE9F04F87B004468A4693463E
:1044A00000BF3CB15A492069884203D1594890F86D
:1044B000EC0040B94A2258A160A00AF025FE002075
:1044C00007B0BDE8F08F00BFBAF1040F6FD1CDF88F
:1044D00018B020460CF0B0FC074620460CF04AFD10
:1044E000804620460DF0CAF8054620460CF0E8FD4F
:1044F000064694F8590000F00100F0B1206D10B1AB
:10450000206D006808E02069006918B12069006921
:10451000006801E04FF07F400590206D10B1206DE4
:10452000806808E02069006918B120690069806826
:1045300001E04FF07F4004901DE0206D10B1206D30
:10454000406808E02069006918B120690069406886
:1045500001E04FF07F400590206D10B1206DC068E4
:1045600008E02069006918B120690069C06801E0AD
:104570004FF07F40049094F85800C8B9B11E09B2BA
:104580000598CDE90010A81E03B208F1010002B29F
:10459000781C01B20698FDF750FB04982B46424662
:1045A0003946CDE900600698FDF701FD2BE02CE0CF
:1045B0000598A946009005EBD970401003B206EBB0
:1045C000D67008EB600002B205EBD57007EB600017
:1045D00001B2CDE902560698FDF75AFA0498009008
:1045E00005EBD970401003B206EBD67008EB600003
:1045F00002B205EBD57007EB600001B2CDE90256BF
:104600000698FDF70FF901205AE7002058E700004F
:1046100068B90608340902202E2E5C30302D47552B
:10462000495F4C4942524152595C776964676574ED
:10463000735C6775695F6C65642E630041737365B5
:10464000727420706172616D206661696C656420AE
:10465000696E2066696C6520257320616E64206C2C
:10466000696E652025640D0A000000002DE9F04FF9
:1046700087B004460D4616461F46DDE912ABDDE95C
:10468000108933462A46214604488DE8800F0CF0F5
:10469000AFF90690069807B0BDE8F08F68B9060834
:1046A00070B504460D4600BF3CB1184920698842E8
:1046B00003D1174890F8EC0030B9BD2215A11EA017
:1046C0000AF022FD002070BD00BF75B194F85900BA
:1046D00000F0010048B994F8590040F0010084F856
:1046E000590020460DF074F90EE06DB994F85900A8
:1046F00000F0010040B194F8590020F0010084F866
:10470000590020460DF064F90120DCE768B906087D
:10471000340902202E2E5C30302D4755495F4C491C
:1047200042524152595C776964676574735C67757E
:10473000695F6C65642E63004173736572742070E9
:104740006172616D206661696C656420696E2066C6
:10475000696C6520257320616E64206C696E65202C
:1047600025640D0A0000000070B504460D4600BF28
:104770003CB10D492069884203D10C4890F8EC0007
:1047800030B98B220AA113A00AF0BEFC002070BD34
:1047900000BF94F85800A84204D084F8585020462E
:1047A0000DF07EF90120F2E768B90608340902200D
:1047B0002E2E5C30302D4755495F4C4942524152B4
:1047C000595C776964676574735C6775695F6C656C
:1047D000642E630041737365727420706172616D41
:1047E000206661696C656420696E2066696C65206D
:1047F000257320616E64206C696E652025640D0A46
:104800000000000010B5044600BF3CB10D4920690E
:10481000884203D10C4890F8EC0030B9B2220BA1C9
:1048200013A00AF071FC002010BD00BF94F85900DD
:1048300080F0010084F8590020460DF0C9F80120ED
:10484000F2E7000068B90608340902202E2E5C3019
:10485000302D4755495F4C4942524152595C776966
:1048600064676574735C6775695F6C65642E63006B
:1048700041737365727420706172616D2066616945
:104880006C656420696E2066696C65202573206103
:104890006E64206C696E652025640D0A00000000BE
:1048A0002DE9F04104460E46002700BF3CB11649F1
:1048B0002069884203D1154890F8EC0040B940F2D5
:1048C000A11213A11CA00AF01FFC0020BDE8F0817A
:1048D00000BF01210C200BF0F7FD054695B1AE603D
:1048E000294604F160000BF0B1FBB4F85800401CFD
:1048F00000B2A4F8580020460AF08CFD20460DF0C6
:1049000067F801273846E1E710BA060834090220A3
:104910002E2E5C30302D4755495F4C494252415252
:10492000595C776964676574735C6775695F6C6906
:104930007374626F782E63004173736572742070B4
:104940006172616D206661696C656420696E2066C4
:10495000696C6520257320616E64206C696E65202A
:1049600025640D0A000000002DE9FF4F8DB00446BC
:1049700015460E980C287DD008DC01280DD004289F
:104980001AD0062877D00B2876D17CE10E2874D077
:10499000112873D01528F7D10AE24FF0FF3024F820
:1049A0005A0F1E20E081207C40F0020020745A3C07
:1049B000012011B0BDE8F08F2F4620460CF03CFAE4
:1049C000814620460CF0D6FA804620460CF056FE72
:1049D000064620460CF074FB8246012033464246D0
:1049E0004946CDE900A03846FDF710FB206D10B117
:1049F000206D006808E02069006918B1206900692D
:104A0000006801E04FF07F40AAF1040109B2CDE94E
:104A10000010301F03B208F1020002B209F10200D7
:104A200001B23846FDF709F994F86A0000F0010078
:104A300028B307A8FDF76AFC5834208A301A06B25A
:104A400009EB0600401E00B2ADF81C0008F10100A1
:104A500000B2ADF81E00208AADF82000AAF10200D5
:104A600000B2ADF8220000208DF82400B4F9040053
:104A70000C9005E010E1F0E0A4E132E186E10BE00A
:104A800034F958090A9020460EF05AFB0B9007A9FA
:104A90003846FDF7AFFB01E0701E06B2E06B002860
:104AA00072D0206E0028FBD0002004900021204608
:104AB0000EF0F8FA059006A8FCF77CFF09F1040057
:104AC00000B2ADF8180008F1020000B2ADF81A000B
:104AD000301F00B2ADF81C00059800B2ADF81E0002
:104AE00011208DF82000BDF81C00ADF82600B7F9A4
:104AF00006000390B7F9061008EB0A00801E8142F9
:104B000004DD08EB0A00801E00B2F880002004904B
:104B1000002104F160000BF0ABFA83468EE0B4F99B
:104B20005C100498814200DD7FE0B4F95A100498CB
:104B300081425CD194F8380000F0100070B1206D13
:104B400010B1206D006917E02069006918B1206973
:104B50000069006910E04FF07F400DE0206D10B15A
:104B6000206D406908E02069006918B1206900697A
:104B7000406901E04FF07F40BDF91E2005998A424F
:104B800003DABDF91E1001E065E0059909B2CDE92F
:104B90000010F01E03B2BDF91A2009F1020001B2A3
:104BA0003846FDF74AF894F8380000F0100070B16C
:104BB000206D10B1206D806817E02069006918B180
:104BC00020690069806810E04FF07F400DE0206DA3
:104BD00010B1206DC06808E02069006918B1206933
:104BE0000069C06801E04FF07F400A900EE0206D40
:104BF00010B1206D406808E02069006918B1206993
:104C00000069406801E04FF07F400A90DBF808201F
:104C100006AB3846E16BFDF7F1FBBDF81A100598BD
:104C2000084400B2ADF81A0000BF594600200BF04E
:104C30001FFA83460498401C80B20490BBF1000F19
:104C400006D0BDF91A00B7F9061088427FF767AFA2
:104C50000398F88000BF0120ABE605E000BF3046B6
:104C60000BF03AFC002600BF002104F160000BF0BD
:104C7000FFF90746394604F160000BF01BFB061EE6
:104C8000ECD1012095E62946888A4F4A10800022FF
:104C90001098027001208CE62F46E06BF8B10021DD
:104CA00020460EF0FFF90FFA80F8B88A46490988C5
:104CB000081A06B2002E01DB304600E07042404583
:104CC0000CDD002E01DD012001E04FF0FF30014638
:104CD00020460FF065F9B88A3B49088000BF0120E3
:104CE00067E62E464FF0000820460CF0C7FC8146D0
:104CF00020460CF0E5F9824694F86A0000F00100C5
:104D000008B3B6F91000B4F96810A9EB01018842A4
:104D100019DDB6F91400B4F96810884205DA4FF0CD
:104D2000FF3120460FF03CF90BE0B6F91400B4F95E
:104D30006810AAEB0101884203DD012120460FF033
:104D40002FF94FF00108B8F1000F1DD1E06BD8B179
:104D5000002120460EF0A6F98346B6F9140090FB18
:104D6000FBF087B2B4F95C003844B4F958108842BB
:104D700009DCB4F85C00384401B220460EF093FF21
:104D800020460CF025FE00BF012012E62E463078AA
:104D9000022804D1012120460EF006F806E0307802
:104DA000012803D1811E20460DF0FEFF012000E600
:104DB000B5F9001020460DF0F7FF012110980170A1
:104DC0000120F6E50020F4E5FA0302202DE9F04F7A
:104DD00087B004460D4616461F46DDE912ABDDE9F5
:104DE000108933462A46214604488DE8800F0BF08F
:104DF000FFFD0690069807B0BDE8F08F10BA0608D0
:104E000070B504460D4600BF3CB11949206988427F
:104E100003D1184890F8EC0038B94FF4F57216A198
:104E20001FA00AF071F9002070BD00BF75B194F8A1
:104E30006A0000F0020048B994F86A0040F00200ED
:104E400084F86A0020460CF0C3FD0EE06DB994F8BA
:104E50006A0000F0020040B194F86A0020F00200FD
:104E600084F86A0020460CF0B3FD0120DCE7000066
:104E700010BA0608340902202E2E5C30302D47551A
:104E8000495F4C4942524152595C77696467657485
:104E9000735C6775695F6C697374626F782E630009
:104EA00041737365727420706172616D206661690F
:104EB0006C656420696E2066696C652025732061CD
:104EC0006E64206C696E652025640D0A0000000088
:104ED00070B504460D46002600BF3CB11C49206950
:104EE000884203D11B4890F8EC0038B94FF4FE72A9
:104EF00019A123A00AF008F9002070BD00BF94F8A2
:104F00006A0000F0020000BB7DB194F86A0000F076
:104F1000010050B994F86A0040F0010084F86A007A
:104F200020460CF055FD01260FE075B994F86A0093
:104F300000F0010048B194F86A0020F0010084F804
:104F40006A0020460CF044FD01263046D5E70000FB
:104F500010BA0608340902202E2E5C30302D475539
:104F6000495F4C4942524152595C776964676574A4
:104F7000735C6775695F6C697374626F782E630028
:104F800041737365727420706172616D206661692E
:104F90006C656420696E2066696C652025732061EC
:104FA0006E64206C696E652025640D0A00000000A7
:104FB0002DE9F04704460F4690464FF0000900BF28
:104FC0003CB11D492069884203D11C4890F8EC008F
:104FD00040B940F207221AA124A00AF095F8002057
:104FE000BDE8F08700BFB4F85C20921C9100A06D72
:104FF0000BF078FA0646EEB1A665012110200BF001
:1050000063FA0546B5B15834A188481CA0802068D1
:1050100040F821500020A2882168583C41F8220025
:10502000EF60B8F1000F01DD404600E06420288108
:105030004FF001094846D3E7ACBA0608340902200C
:105040002E2E5C30302D4755495F4C49425241521B
:10505000595C776964676574735C6775695F6C69CF
:105060007374766965772E63000000004173736581
:10507000727420706172616D206661696C65642074
:10508000696E2066696C6520257320616E64206CF2
:10509000696E652025640D0A0000000070B50446A5
:1050A00000BF3CB113492069884203D1124890F8EF
:1050B000EC0038B940F22F2210A11BA00AF024F80E
:1050C000002070BD00BF012110200BF0FDF9054646
:1050D0006DB1294604F160000AF0B8FFB4F8680029
:1050E000401C00B2A4F8680020460AF029FA2846BD
:1050F000E7E70000ACBA0608340902202E2E5C3027
:10510000302D4755495F4C4942524152595C7769AD
:1051100064676574735C6775695F6C6973747669DD
:1051200065772E6300000000417373657274207010
:105130006172616D206661696C656420696E2066CC
:10514000696C6520257320616E64206C696E652032
:1051500025640D0A000000002DE9FF4F91B00446C0
:10516000164612980C2870D008DC01280DD00428AF
:105170001AD006286AD00B2869D1A3E20E2867D07E
:10518000112876D01528F7D1C4E34FF0FF3024F86A
:105190006A0F1E20A080A07940F00200A0716A3C36
:1051A000012015B0BDE8F08F374694F83800C0F301
:1051B000C0100F9020460BF03FFE804620460BF0BB
:1051C000D9FE824620460CF059FA814620460BF063
:1051D00077FF109020460AF0B3F90F9848B30121E9
:1051E00010984B465246CDE9000141463846FCF73F
:1051F0000DFF206D10B1206D006808E02069006986
:1052000018B120690069006801E04FF07F401099F3
:10521000091F09B2CDE90010A9F1040003B20AF197
:10522000020002B208F1020001B23846FCF705FDA7
:105230003AE0206D10B1206D80690CE020690069B2
:1052400038B120690069806905E047E2EFE16BE36E
:10525000C4E24FF07F4010994B465246CDE9001012
:1052600041463846FCF7A3FE206D18B1206D00685A
:1052700009E037E32069006918B120690069006816
:1052800001E04FF07F401099891E09B2CDE900106E
:10529000A9F1020003B20AF1010002B208F1010013
:1052A00001B23846FCF7C9FC94F8700000F0010028
:1052B00068B307A8FDF72AF86834E088A9EB000076
:1052C0000FFA80F908EB0900401E00B2ADF81C008F
:1052D0000AF1010000B2ADF81E00E088ADF8200030
:1052E0001098801E00B2ADF8220000208DF8240036
:1052F000B4F904000C9034F968090A9020460DF0C6
:1053000054FF0B9007A93846FCF774FF03E0A9F19E
:1053100001000FFA80F9002120460DF0F7FE8346C8
:10532000F748CDE900B0A9F1030003B20AF1020089
:1053300002B208F1020001B23846FCF77EFCA06D13
:1053400000287DD0A06D00680028FAD008F1020086
:1053500000B20C9005A8FCF72DFBADF81AB0112097
:105360008DF81C00BDF81800ADF82200B7F9040054
:105370000490B7F9041008EB0900401E814204DDD7
:1053800008EB0900401E00B2B8800AF1020000B22A
:10539000ADF8160000254BE00F98D8B10020CDE9FC
:1053A00000B0A06D50F82500B0F90830BDF9162006
:1053B00038460C99FCF72AFEA06D50F825000089AC
:1053C000001F00B2ADF818000C98801C00B2ADF8B8
:1053D00014001AE0CB48CDE900B0A06D50F82500CC
:1053E000B0F90830BDF9162038460C99FCF7DFFDFE
:1053F000A06D50F825000089801F00B2ADF818009C
:105400000C98C01C00B2ADF81400A06D50F8250037
:10541000C26805AB3846E16BFCF7F0FFA06D50F8B1
:10542000250001890C98084400B20C90681C85B2D4
:10543000B4F85C00A842AFDCBDF81600584400E0A8
:10544000F3E000B2ADF81600E06B00286FD0206EDC
:105450000028FBD000200390B7F906000290B7F9AE
:10546000061010985044801E814204DD109850446C
:10547000801E00B2F88000200390002104F160003B
:105480000AF0F6FD0E90C1E0B4F96C100398814269
:1054900000DDB2E0B4F96A10039881425BD194F860
:1054A000380000F0100070B1206D10B1206D00695F
:1054B00017E02069006918B120690069006910E0EF
:1054C0004FF07F400DE0206D10B1206D406908E085
:1054D0002069006918B120690069406901E04FF056
:1054E0007F40BDF91A10594502DABDF91A1000E0E3
:1054F0005946CDE90010A9F1020003B2BDF916200A
:1055000008F1020001B23846FCF797FB94F8380026
:1055100000F0100078B1206D10B1206D806818E0A7
:105520002069006920B120690069806811E079E094
:105530004FF07F400DE0206D10B1206DC06808E095
:105540002069006918B120690069C06801E04FF066
:105550007F4009900EE0206D10B1206D406808E09A
:105560002069006918B120690069406801E04FF0C6
:105570007F40099008F1020000B20C900025002144
:105580000E9808300AF074FD0D9029E00D9880689F
:10559000B8B1A06D50F825000089801F00B2ADF8A9
:1055A000180059488088ADF822000C98C01C00B241
:1055B000ADF814000D98826805AB3846E16BFCF736
:1055C0001DFFA06D50F8250001890C98084400B219
:1055D0000C9000200D990AF04BFD0D90681C85B2CF
:1055E0000D9818B1B4F85C00A842CFDCBDF81600E5
:1055F000584400B2ADF8160000BF00200E990AF022
:1056000037FD0E900398401C80B203900E9830B185
:10561000BDF91600B7F9061088427FF735AF02983A
:10562000F88000BF0498B88000BF0120B9E50025CC
:105630001DE006E000BF40460AF04EFF4FF00008B4
:1056400000BF002107F108000AF012FD814649461B
:1056500007F108000AF02EFEB0F10008EAD100BF01
:1056600038460AF039FF002700BF681C85B20021C8
:1056700004F160000AF0FCFC8146494604F1600038
:105680000AF018FE071ED4D1A06DC8B100250CE0A9
:1056900000BFA16D51F825000AF01EFF0020A16D8A
:1056A00041F8250000BF681C85B2B4F85C00A84230
:1056B000EEDC00BFA06D0AF00FFF0020A06500BF68
:1056C00001206EE53146088A104A1080888A104A07
:1056D0001080002214980270012062E5B046E06B51
:1056E000C0B3002120460DF011FD8246B8F8140029
:1056F00007490988081A07B2002F0BDB38460AE071
:10570000C6C6C6FF555555FF3409022008040220BD
:105710000A040220784250450DDD002F01DD0120F2
:1057200001E04FF0FF30014620460EF0A9FCB8F82A
:1057300014007E4908807D48B0F9000050454ADADF
:105740004FF00009B8F8100079490988081A07B223
:1057500000251DE040E0A06D50F825000089484478
:105760000FFA80F97248B0F90000B0EB090005D4D7
:105770006F48B0F90000A0EB090004E06C48B0F9F4
:105780000000A9EB00000A2800DA05E0681C85B2D9
:10579000B4F85C00A842DEDC00BFB4F85C00A842AC
:1057A00018D0A06D50F82500B0F90800C01B0428DF
:1057B00009DBA06D50F825000089C01B00B2A16D67
:1057C00051F825100881B8F8100059490880204682
:1057D0000CF0FEF800BF00BF0120E2E435464FF0B8
:1057E0000008002120460DF091FC87B220460BF006
:1057F00045FF814620460BF063FC824694F870001A
:1058000000F0010008B3B5F91000B4F96E10A9EB6F
:105810000101884219DDB5F91400B4F96E1088420F
:1058200005DA4FF0FF3120460EF02AFC0BE0B5F907
:105830001400B4F96E10AAEB0101884203DD0121C6
:1058400020460EF01DFC4FF00108B8F1000F1ED1EC
:10585000B5F91400B84219DDB5F91400C01B90FB6E
:10586000F7F01FFA80FBB4F96C005844B4F96810E3
:10587000884209DCB4F86C00584401B220460EF0AE
:1058800046FA20460CF0A4F84FF0010800BFB8F12A
:10589000000F25D1B5F91400B84221DA002100200B
:1058A00016E0B5F910208A420ADDA26D52F82020D8
:1058B000B2F908200A44B5F910309A4200DD0BE035
:1058C000A26D52F8202012890A4411B2421C90B2F3
:1058D000B4F85C208242E4DC00BF4FF0010800BF56
:1058E00001205EE435462878022807D101212046B0
:1058F0000DF0C8FA00211498017009E028780128F9
:1059000006D1811E20460DF0BDFA002114980170C9
:10591000012046E4B6F9001020460DF0B3FA01214B
:105920001498017001203CE400203AE40A040220AB
:10593000080402202DE9F04F87B004460D461646B4
:105940001F46DDE912ABDDE9108933462A462146C0
:1059500004488DE8800F0BF04BF80690069807B0CE
:10596000BDE8F08FACBA06082DE9F04707460D46B2
:10597000164698464FF00009002400BF47B11E4963
:105980003869884204D11DB11C4890F8EC0040B938
:1059900040F241221AA125A009F0B6FB0020BDE883
:1059A000F08700BF002105F108000AF061FB044602
:1059B000701C86B212E05CB901210C200AF084FD53
:1059C000044604B90FE0214605F108000AF03EFB49
:1059D00026B1214600200AF04BFB0446301EA6F1FA
:1059E00001018EB2E7D100BF1CB1C4F808804FF0AE
:1059F00001094846D3E70000ACBA06083409022082
:105A00002E2E5C30302D4755495F4C494252415251
:105A1000595C776964676574735C6775695F6C6905
:105A20007374766965772E630000000041737365B7
:105A3000727420706172616D206661696C656420AA
:105A4000696E2066696C6520257320616E64206C28
:105A5000696E652025640D0A000000002DE9F047FD
:105A60000546894690461F46B9F1000F03D0B9F1AB
:105A7000010F68D159E00026444608F057F800BFEE
:105A80000221324800F0D0F800BF4FF4487028805F
:105A90004FF4F07068800220287128612C486861FA
:105AA00000BF13E0C6EBC600294901F8206040F2B0
:105AB000771070434FF0404101EBC020C6EBC601A8
:105AC000234A02EB81014860701CC6B2022EE9DB5A
:105AD000204820602048E0602048A06020486060A6
