:020000040800F2
:1000000068790320C90200081B450008533A00081C
:1000100017450008ED050008F16D0008000000001C
:100020000000000000000000000000000D020008B9
:100030004907000800000000610200082D4E00087A
:10004000E3020008E3020008E3020008E3020008FC
:10005000E3020008E30200084D070008F507000866
:10006000110800082D08000849080008F1050008DB
:1000700001060008110600082106000831060008E4
:100080004106000851060008E3020008E3020008E8
:10009000E3020008E3020008E30200086508000824
:1000A000E3020008E3020008E3020008E30200089C
:1000B000E3020008E3020008E3020008E30200088C
:1000C000E3020008E3020008E3020008E30200087C
:1000D000E3020008356D0008616D0008916D0008AD
:1000E00069070008E3020008E3020008E3020008D1
:1000F000E3020008E3020008E302000861060008CA
:10010000E3020008714A0008E3020008E302000865
:100110005167000881670008E3020008E302000855
:100120008106000891060008A1060008B106000833
:10013000C1060008E3020008E3020008E302000829
:10014000E3020008E3020008E3020008E3020008FB
:10015000D1060008E1060008F1060008C16D00089C
:10016000E3020008E3020008E3020008E3020008DB
:10017000E3020008E3020008E302000800000000B8
:10018000E3020008E3020008A5670008D56700083D
:10019000E3020008E3020008E3020008E3020008AB
:1001A000F5420008E302000871060008E3020008B7
:1001B000E3020008E3020008E3020008E30200088B
:1001C000E3020008E3020008E3020008E30200087B
:1001D000E3020008E3020008E3020008E30200086B
:1001E000E3020008E3020008E3020008E30200085B
:1001F000E3020008E3020008DFF80CD000F014F975
:10020000004800479D650108687903202B4B196859
:100210000868B0E8F04F80F30988BFF36F8F4FF0A4
:10022000000080F311887047000000000648006855
:10023000006880F3088862B661B6BFF34F8FBFF3E2
:100240006F8F00DF00BF00BF08ED00E0DFF80C009B
:10025000016841F470010160704700BF88ED00E063
:10026000EFF30980BFF36F8F144B1A681EF0100F65
:1002700008BF20ED108A20E9F04F106008B44FF05D
:10028000500072B680F31188BFF34F8FBFF36F8FAA
:1002900062B619F083FA4FF0000080F3118808BCB1
:1002A00019680868B0E8F04F1EF0100F08BFB0ECF6
:1002B000108A80F30988BFF36F8F704754040220BF
:1002C000EFF3058070470000064880470648004766
:1002D000FEE7FEE7FEE7FEE7FEE7FEE7FEE7FEE7F6
:1002E000FEE7FEE7354E0008F90100082DE9F05F52
:1002F0000546002092469B46884606468146402495
:100300001BE0284641464746224600F07DF853460A
:100310005A46C01A914110D311461846224600F0A1
:1003200064F82D1A67EB01084F4622460120002190
:1003300000F05BF817EB00094E41201EA4F1010408
:10034000DFDC484631462A464346BDE8F09F40EA96
:1003500001039B0703D009E008C9121F08C0042A43
:10036000FAD203E011F8013B00F8013B521EF9D22A
:100370007047D2B201E000F8012B491EFBD2704752
:100380000022F6E710B513460A4604461946FFF761
:10039000F0FF204610BD10B5044604E00B7800F8CD
:1003A000013B03B1491C521EF8D2204610BD421C2D
:1003B00010F8011B0029FBD1801A704710B50022EC
:1003C00000E0521C835C8C5CA34201D1002BF8D16D
:1003D000D8B2E1B2401A10BD034611F8012B00F863
:1003E000012B002AF9D118467047202A04DB203A55
:1003F00000FA02F1002070479140C2F1200320FA78
:1004000003F3194390407047202A04DB203A21FA75
:1004100002F00021704721FA02F3D040C2F120021D
:100420009140084319467047064C074D06E0E068C6
:1004300040F0010394E8070098471034AC42F6D32B
:10044000FFF7DEFE94E90808B4E9080870B58C18D7
:1004500010F8015B15F0070301D110F8013B2A11D8
:1004600006D110F8012B03E010F8016B01F8016BC5
:100470005B1EF9D12B0705D40023521E0DD401F8C1
:10048000013BFAE710F8013BCB1A921C03E013F88A
:10049000015B01F8015B521EF9D5A142D8D30020BF
:1004A00070BD000008B500BF3548006840F08060AE
:1004B000334908600846006800F08060009000BF83
:1004C00000BF2F482038006840F080602C49203958
:1004D00008600846006820F08060086000BF284877
:1004E0001438006840F400002549143908600846B3
:1004F000006800F40000009000BF00BF20483438BE
:10050000006840F400001E4934390860084600685D
:1005100020F40000086000BF1948006840F0006047
:10052000174908600846006800F00060009000BFAE
:1005300000BF13482038006840F00060104920399F
:1005400008600846006820F00060086000220F2163
:10055000582001F076FF582001F066FF00220F219D
:100560005A2001F06EFF5A2001F05EFF00220F2199
:10057000622001F066FF622001F056FF08BD000016
:100580004438024000B587B000BF1648006840F408
:100590000070144908600846006800F4007001907B
:1005A00000BF00BF4FF40040029001200390049070
:1005B0000320059002A90C4801F0E2F800224FF454
:1005C0000041094801F0E8F9142001F0BDF80122CA
:1005D000D103054801F0E0F90A2001F0B5F807B0B1
:1005E00000BD0000303802400024024000BFFEE79A
:1005F00010B5024804F05DFD10BD0000106002401F
:1006000010B5024804F055FD10BD000028600240FE
:1006100010B5024804F04DFD10BD000040600240DE
:1006200010B5024804F045FD10BD000058600240BE
:1006300010B5024804F03DFD10BD0000706002409E
:1006400010B5024804F035FD10BD0000886002407E
:1006500010B5024804F02DFD10BD0000A06002405E
:1006600010B5024804F025FD10BD0000B86002403E
:1006700010B5024800F010FA10BD0000146D032000
:1006800010B5024804F015FD10BD000010640240D2
:1006900010B5024804F00DFD10BD000028640240B2
:1006A00010B5024804F005FD10BD00004064024092
:1006B00010B50249C86B00F0B7FA10BD646F032093
:1006C00010B5024804F0F5FC10BD00007064024053
:1006D00010B5024804F0EDFC10BD00008864024033
:1006E00010B50249086C00F09FFA10BD646F03203A
:1006F00010B5024804F0DDFC10BD0000B8640240F3
:1007000030B5039C42EA811545EA032545EA0445D4
:10071000C56630BD7CB505460C46012D08D860780D
:100720000090237815220021064800F0B6FF08E06B
:10073000605D2B4639220021CDE90004014800F01C
:100740004BFF7CBD006A03207047000010B50548D0
:10075000006800F0010020B101200249086004F0A7
:10076000E7FD10BD143C014010B52148006800F4BD
:10077000806028B14FF480601D49086004F0D8FD06
:100780001B48006800F4006028B14FF4006018496D
:10079000086004F0CDFD1648006800F4805028B1D0
:1007A0004FF480501249086004F0C2FD1048006800
:1007B00000F4005028B14FF400500D49086004F0D7
:1007C000B7FD0B48006800F4804028B14FF480402A
:1007D0000749086004F0ACFD0548006800F40040DB
:1007E00028B14FF400400249086004F0A1FD10BD9B
:1007F000143C014010B50548006800F0020020B12B
:1008000002200249086004F093FD10BD143C014031
:1008100010B50548006800F0040020B1042002492A
:10082000086004F085FD10BD143C014010B505487A
:10083000006800F0080020B108200249086004F0B8
:1008400077FD10BD143C014010B50548006800F06C
:10085000100020B110200249086004F069FD10BDAD
:10086000143C014010B51A48006800F0200020B187
:1008700020201749086004F05BFD1548006800F06F
:10088000400020B140201249086004F051FD10489A
:10089000006800F0800020B180200D49086004F05D
:1008A00047FD0B48006800F4807028B14FF4807059
:1008B0000749086004F03CFD0548006800F400703A
:1008C00028B14FF400700249086004F031FD10BDFA
:1008D000143C014010B51AF00BFD09490968884223
:1008E0000CD11AF021FD07490968401A0649086031
:1008F00006480068096808440449086010BD000003
:10090000C8040220D0040220D4040220D80402200B
:1009100030B50246002300240868012816D0136869
:100920006FF30E03D1E901052843CD6828430D6913
:1009300028434D6928438D692843CD6928430D6AB2
:1009400028434D6A28430343136019E0136823F4D6
:10095000F843D1E9070528434D6A28430343546807
:100960006FF30E04D1E901052843CD6828430D69D2
:1009700028434D6928438D6928430443136054601C
:10098000002030BD0246506940EA4100506100201D
:100990007047F8B506460C46154600200090002723
:1009A000D4E900010843A168491E40EA4110E1680A
:1009B00040EA412000900098306100F0F3FF0746C4
:1009C00009E0681C38B125B100F0ECFFC01BA8425B
:1009D00001D90320F8BDB06900F020000028F0D153
:1009E00000BFF7E770B50346154600220024012D2D
:1009F0001FD09A6802F070420868401E4E68761E4A
:100A000040EA06168868401E46EA0026C868401E6E
:100A100046EA0036088A401E46EA0046888A401E9A
:100A200046EA0056087E401E46EA006002439A608D
:100A300022E09A6811480240C868401E0603888A6E
:100A4000401E46EA00500243DC6804F07044086827
:100A5000401E4E68761E40EA06168868401E46EA2A
:100A60000026088A401E46EA0046087E401E46EAE6
:100A7000006004439A60DC60002070BDFF0F0FFF30
:100A800001B500BF0098411E00910028FAD108BDB1
:100A9000014602207047704770B5044620684568DB
:100AA0002068066805F00100E0B106F48070C8B166
:100AB0002068006820F4807021680860606D40F054
:100AC00001006065012021688860042084F85100DD
:100AD00000BF002084F8500000BFE06910B120463C
:100AE000E169884705F02000E0B106F40050C8B184
:100AF0002068006820F400502168086020202168E8
:100B00008860606D40F002006065042084F8510048
:100B100000BF002084F8500000BFE06910B12046FB
:100B2000E169884705F00800E0B106F40060C8B14B
:100B30002068006820F400602168086008202168AF
:100B40008860606D40F004006065042084F8510006
:100B500000BF002084F8500000BFE06910B12046BB
:100B6000E169884705F0040070B106F4806058B16F
:100B70002068006820F480602168086004202168F3
:100B80008860204600F03BF805F00200D0B106F482
:100B90000070B8B12068006820F400702168086017
:100BA000022021688860606D6065012084F8510032
:100BB00000BF002084F8500000BFA06910B120469B
:100BC000A169884705F01000C0B106F48050A8B1B3
:100BD0002068006820F48050216808601020216897
:100BE0008860606D6065012084F8510000BF0020BE
:100BF00084F8500000BF2046FFF74DFF70BD7047DE
:100C0000014691F83500022803D080204865012074
:100C10007047052081F835000868006820F0010061
:100C20000A6810600020F3E7F8B504460020009041
:100C30008D4800684FF41651B0FBF1F7A56D2E6892
:100C400094F85C1008208840304098B12068006813
:100C500000F0040070B12068006820F004002168F2
:100C6000086094F85C1008208840A860606D40F02F
:100C70000100606594F85C107C488840304068B1A1
:100C80002068406900F0800040B194F85C1077481B
:100C90008840A860606D40F00200606594F85C10C8
:100CA0007248C01C8840304070B12068006800F075
:100CB000020048B194F85C106C48C01C8840A860E1
:100CC000606D40F00400606594F85C10102088406E
:100CD000304078B32068006800F0080050B394F802
:100CE0005C1010208840A8602068006800F4802014
:100CF00080B12068006800F4002028B9206CC8B1D9
:100D00002046216C884715E0A06C98B12046A16C64
:100D100088470FE02068006800F4807028B92068D8
:100D2000006820F0080021680860206C10B120469F
:100D3000216C884794F85C102020884030400028BF
:100D400065D02068006800F0100000285FD094F89B
:100D50005C1020208840A86094F83500052828D130
:100D60002068006820F0160021680860206840694B
:100D700020F0800021684861206C08B9A06C28B17F
:100D80002068006820F008002168086094F85C1072
:100D90003F208840A86000BF002084F8340000BFD6
:100DA000012084F83500206D10B12046216D884760
:100DB000F8BD2068006800F4802080B120680068D9
:100DC00000F4002028B9606C10B12046616C88479F
:100DD0001DE0E06BD8B12046E16B884717E0206842
:100DE000006800F4807068B92068006820F0100086
:100DF0002168086000BF002084F8340000BF012093
:100E000084F83500E06B10B12046E16B8847606DD7
:100E100038B3606D00F00100F0B1052084F83500B2
:100E20002068006820F001002168086000BF009879
:100E3000401C0090B84200D905E02068006800F02E
:100E400001000028F3D100BF00BF002084F8340067
:100E500000BF012084F83500E06C10B12046E16C41
:100E6000884700BFA4E70000500402200100800072
:100E7000024600BF107C012801D1022070470120EA
:100E8000107400BF1068406B40F001001368586395
:100E90001068D0F8000420F001001368C3F80004C3
:100EA0001068D0F8000440F001001368C3F8000493
:100EB0001068C06820F003001368D8601068C0682C
:100EC0000B6818431368D8601068406920F0070069
:100ED00013685861D1E9063018434B691843136809
:100EE0005B691843136858611068006920F00F00AF
:100EF00013681861106800694B681843136818611B
:100F00001068D0F8000420F00E001368C3F8000445
:100F10001068D0F800044B6840EA43001368C3F837
:100F200000041068406E6FF30F0013685866106875
:100F3000406E8B681843136858661068D0F8000438
:100F400020F0F0001368C3F80004D1E9030318434C
:100F50004B6A18430B6A18431368D3F800341843DC
:100F60001368C3F800041068806E20F00100136855
:100F700098661068806E8B6A1843136898661068CC
:100F8000D0F8080440F001001368C3F808041068A2
:100F9000D0F8080440F002001368C3F8080400BF4A
:100FA0000020107400BF00BF68E70000024600BFC9
:100FB000107C012801D1022070470120107400BF6D
:100FC0001068806E184B184013689866D1E90003CA
:100FD00018438B681843CB6818430B6918434B6957
:100FE00018438B691843CB6918430B6A18434B6A43
:100FF00018438B6A1843CB6A184313689B6E1843D7
:10100000136898661068806E20F002001368986676
:101010001068806E0B6B18431368986600BF002041
:10102000107400BF00BFC7E7FF80F0FE024600BF9C
:10103000107C012801D1022070470120107400BFEC
:101040001068C06A20F01F001368D8621068C06A78
:1010500008431368D86200BF0020107400BF00BFAF
:10106000EAE710B5024600BF107C012801D102203A
:1010700010BD0120107400BFD1E90040A04201D989
:10108000486800E0086803461068D0F8980000F04F
:10109000FC201468C4F898001068D0F8980043EA5F
:1010A000034420431468C4F898001068D0F89C00EA
:1010B00000F400401468C4F89C008C89086940EA78
:1010C00004400C7A40EA04601468D4F89C40204341
:1010D0001468C4F89C001068D0F8A40020F47F4085
:1010E0001468C4F8A4001068D0F8A4004C6940EA61
:1010F00004201468C4F8A40000BF0020107400BFCE
:1011000000BFB5E7024600BF107C012801D10220D4
:1011100070470120107400BF4868032800D100BF49
:101120001068406B20F00100136858631068D0F815
:10113000000420F001001368C3F800041068806BFD
:1011400020F00300136898631068806BCB68184325
:10115000136898631068C06B6FF30D001368D86351
:101160001068C06B0B6918431368D8631068006C73
:101170006FF30C00136818641068006C4B69184317
:10118000136818641068406C6FF30C00136858649F
:101190001068406C8B691843136858641068C06805
:1011A00020F003001368D8601068C0680B6818430B
:1011B0001368D8601068406920F007001368586110
:1011C000D1E908301843CB69184313685B691843A9
:1011D000136858611068006920F00F0013681861E7
:1011E000106800694B681843136818611068D0F8DC
:1011F000000420F00E001368C3F800041068D0F853
:1012000000044B6840EA43001368C3F800044868D0
:1012100003280BD11068006920F4807013681861EE
:10122000106800698B681843136818611068806C37
:101230006FF30B00136898641068806C8B6A184316
:10124000136898641068C06C6FF30B001368D8645F
:101250001068C06CCB6A18431368D8641068006DBE
:101260006FF30E00136818651068006D0B6B184360
:10127000136818651068406D6FF3090013685865AE
:101280001068406D4B6B1843136858651068806D8B
:101290006FF30900136898651068806D8B6B1843B5
:1012A000136898651068C06D6FF309001368D865FE
:1012B0001068C06DCB6B18431368D8651068006E5A
:1012C0006FF30D00136818661068006E0B6C1843FE
:1012D000136818661068806B20F4004013689863E8
:1012E0001068806B4B6C18431368986310688069B2
:1012F00020F47F001368986110688069B1F8483065
:1013000040EA0340136898611068806920F0FF008C
:101310001368986110688069CB6C184313689861F2
:101320001068806B20F40050136898631068806B1D
:101330000B6D1843136898631068806B20F480501D
:10134000136898631068806B4B6D1843136898633B
:101350001068806B20F40060136898631068806BDD
:101360008B6D1843136898631068806B20F480605D
:10137000136898631068806BCB6D1843136898638B
:101380001068806B20F40070136898631068806B9D
:101390000B6E1843136898631068806B20F480709C
:1013A000136898631068806B4B6E184313689863DA
:1013B0001068806B20F48040136898631068806B1D
:1013C0008B6E18431368986300BF0020107400BF31
:1013D00000BF9DE610B504460CB9012010BD0320E6
:1013E00060742068D0F8040420F008002168C1F877
:1013F00004042068406820F00100216848602068EB
:10140000D0F8A00020F006002168C1F8A0002068F4
:10141000D0F8300420F001002168C1F830042068C1
:10142000D0F8300420F080702168C1F830042046E4
:1014300000F031F900206061607400BF207400BFCB
:1014400000BFCBE72DE9F04104460D4600260027FA
:10145000B04614B90120BDE8F081607C10B9204687
:1014600000F01AF9032060742068D0F8300440F0CE
:1014700080702168C1F8300400F094FA064607E055
:1014800000F090FA801BB0F57A7F01D90320E2E7E3
:101490002068D0F80C0400F480500028F0D02068B8
:1014A000D0F830044A4908402168C1F8300428685F
:1014B0008000696840EAC120298940EA014021682A
:1014C000D1F8301408432168C1F830042068D0F8FE
:1014D000300440F001002168C1F8300400F062FAE5
:1014E000064607E000F05EFA801BB0F57A7F01D96E
:1014F0000320B0E72068D0F80C0400F480700028C6
:10150000F0D02068D0F8A00040F006002168C1F8B3
:10151000A0002068D0F8940020F003002168C1F8F2
:1015200094002068D0F89400616841F001010843FC
:101530002168C1F894002068D0F8A40020F00300CE
:101540002168C1F8A4002068D0F8A400E16808432D
:101550002168C1F8A4002068806820F0FF0021689D
:10156000886020688068A16808432168886068688E
:1015700008B1686800E001208046164808FB00F0CA
:101580002A7A01219140484346F2A8122968514322
:10159000B0FBF1F72068D0F8180420F03F00216874
:1015A000C1F818042068D0F8180438432168C1F83D
:1015B000180400202168C1F8C40000212068C0F888
:1015C000C8100020A061606101206074002042E723
:1015D0000386FCFF00093D002DE9F84F05468846CB
:1015E00091461F46DDE90AA60024A34600BF287CD9
:1015F000012802D10220BDE8F88F0120287400BF25
:1016000000F0D0F983460CE000F0CCF9A0EB0B0021
:10161000B0F57A7F05D900BF0020287400BF0320F1
:10162000E9E72868406F00F001000028ECD01FE0D7
:1016300074B9305D4AEA00203119497840EA014026
:101640003119897840EA016029680867E41C0FE0D5
:10165000305D3119497840EA01203119897840EA32
:1016600001403119C97840EA016029680867241DE2
:10167000BC42DDD3781CC0F30720791CCBB20090AC
:101680004A4641462868FFF73BF800BF002028740F
:1016900000BF00BFAFE7704770472DE9F84304462D
:1016A0000D4616461F46DDF820804FF0000900BFAA
:1016B000207C012802D10220BDE8F883012020749B
:1016C00000BF00F06FF981460CE000F06BF9A0EB71
:1016D0000900B0F57A7F05D900BF0020207400BF53
:1016E0000320E9E72068406F00F001000028ECD0FB
:1016F000CDF800803B46324629462068FFF700F8C7
:1017000000BF0020207400BF00BFD5E7014600BF26
:10171000087C012801D1022070470120087400BF15
:101720000868406840F001000A6850600868D0F816
:10173000040440F008000A68C2F8040400BF002056
:10174000087400BF00BFE7E700B5014600BFEFF334
:10175000058048B900F026F9024600BF00F022F9E2
:10176000801A8842FAD309E006E04FF0E0200069D1
:1017700000F4803000B1491E0029F6D100BD000000
:10178000F8B502460B46002100250024002000BFCA
:10179000E4E0012606FA01F51E6806EA0504AC42FB
:1017A00071D15E68022E02D05E68122E13D1CF086E
:1017B00002F1200656F827004E07F70E0F26BE400E
:1017C000B0434F07FF0E1E69BE403043CF0802F101
:1017D000200646F8270010684F000326BE40B0439D
:1017E0001E7906F003064F00BE40304310605E686D
:1017F000012E08D05E68022E05D05E68112E02D040
:101800005E68122E13D190684F000326BE40B0438D
:101810004F00DE68BE4030439060506801268E4025
:10182000B0431E79C6F300168E4030435060D06836
:101830004F000326BE40B0434F009E68BE40304379
:10184000D0605E6806F08056B6F1805FA8D100BF18
:10185000444E366846F48046424F3E603E46366807
:1018600006F48046009600BF00BF3F4E8F0856F832
:1018700027008E07370F0F26BE40B0433B4EB242C3
:1018800002D100262EE068E0394EB24201D1012695
:1018900028E0384EB24201D1022623E0364EB24251
:1018A00001D103261EE0354EB24201D1042619E0D3
:1018B000334EB24201D1052614E0324EB24201D17C
:1018C00006260FE0304EB24201D107260AE02F4E25
:1018D000B24201D1082605E02D4EB24201D10926BF
:1018E00000E00A268F073F0FBE4030431E4E8F0890
:1018F00046F82700274E3068A0435E6806F480361D
:10190000B6F5803F00D12043224E3060361D30684E
:10191000A0435E6806F40036B6F5003F00D12043D0
:101920001C4E361D3060361D3068A0435E6806F4DC
:101930008016B6F5801F00D12043164E0836306061
:10194000361D3068A0435E6806F40016B6F5001F29
:1019500000D120430F4E0C363060491C1029FFF493
:1019600018AFF8BD4438024008380140000002407A
:101970000004024000080240000C02400010024037
:101980000014024000180240001C024000200240E7
:1019900000240240003C01400AB1816101E00B04D7
:1019A000836170470148006870470000040002200E
:1019B000024692F8410020282DD100BF92F8400045
:1019C000012801D102207047012082F8400000BFA9
:1019D000242082F841001068006820F0010013689C
:1019E00018601068006820F4805013681860106850
:1019F00000680843136818601068006840F0010030
:101A000013681860202082F8410000BF002082F88F
:101A1000400000BFD7E70220D5E70146486C704779
:101A200010B504460CB9012010BD94F8410028B946
:101A3000002084F84000204600F078FA242084F842
:101A400041002068006820F001002168086060689B
:101A500020F07060216808612068806820F40040F0
:101A600021688860E068012805D1A06840F4004042
:101A70002168886004E0A06840F404402168886020
:101A8000E068022802D1800221684860206840682E
:101A900013490843216848602068C06820F400406A
:101AA0002168C860D4E904010843A16940EA012023
:101AB0002168C860D4E907010843216808602068EC
:101AC000006840F001002168086000206064202068
:101AD00084F841000020206384F8420000BFA3E79F
:101AE000008000022DE9FC4104460F4690461D4649
:101AF00000260020019094F84100202870D1206831
:101B00008069C0F3C03010B10220BDE8FC8100BF85
:101B100094F84000012801D10220F6E7012084F862
:101B2000400000BF242084F841000020606400BF12
:101B3000E068012806D1C7F3090040F4005040F0E6
:101B4000007003E0C7F3090040F4205021684860AA
:101B5000FFF728FF064611E0681C78B125B1FFF7B2
:101B600021FF801BA84209D9202084F8410000BF32
:101B7000002084F8400000BF0320C6E72068806989
:101B8000C0F3401040B920688069C0F3001018B954
:101B900094F84100A028DFD120688069C0F30010CC
:101BA000A0B92B46002220212046009601F0C6FF56
:101BB00008B10320A9E720202168C86184F841000A
:101BC00000BF002084F8400000BF9EE72B460022A3
:101BD00020212046009601F0B1FF10B1032094E7C8
:101BE0002AE010202168C86120202168C86101987E
:101BF000411C0191404512D12068406840F480406A
:101C0000216848602B46002220212046009601F0E2
:101C100095FF08B1032078E720202168C86101986A
:101C2000404585D3202084F8410000BF002084F87F
:101C3000400000BF032068E7022066E72DE9F84373
:101C40000446894616461F46DDF82080002594F894
:101C5000410020287AD100BF94F84000012802D129
:101C60000220BDE8F883012084F8400000BFFFF7A0
:101C700099FE054619230122D1032046009501F063
:101C80005DFF08B10320ECE7222084F8410010201A
:101C900084F8420000206064666267856063608D3E
:101CA000FF280DD9FF2020854FF41050009094F8A4
:101CB00028204FF080734946204601F027FF0CE0B2
:101CC000608D20854FF41050009094F828204FF03C
:101CD00000734946204601F019FF44E02A46414678
:101CE000204601F057FF30B1606C042801D101207B
:101CF000B7E70320B5E72068406AC1B2626A501CAA
:101D000060621170208D401E2085608D401E6085B0
:101D1000208D40BB608D30B3434600228021204699
:101D2000009501F00BFF08B103209AE7608DFF28B2
:101D30000DD9FF2020850020009094F828204FF036
:101D400080734946204601F0E1FE0CE02FE0608DF3
:101D500020850020009094F828204FF00073494619
:101D6000204601F0D3FE608D0028B7D12A464146B7
:101D7000204601F057FF30B1606C042801D10120EA
:101D80006FE703206DE720202168C8612068406864
:101D90000849084021684860202084F8410000205C
:101DA00084F8420000BF84F8400000BF59E70220D9
:101DB00057E7000000E800FE2DE9F8430446894695
:101DC00016461F46DDF82080002594F841002028A3
:101DD00077D100BF94F84000012802D10220BDE86D
:101DE000F883012084F8400000BFFFF7DBFD0546C3
:101DF00019230122D1032046009501F09FFE08B16E
:101E00000320ECE7212084F84100102084F84200F0
:101E100000206064666267856063608DFF280CD96E
:101E2000FF2020854FF40050009094F82820C30232
:101E30004946204601F06AFE0BE0608D20854FF494
:101E40000050009094F8282003034946204601F0F2
:101E50005DFE43E02A464146204601F00EFF30B1C8
:101E6000606C042801D10120B9E70320B7E7616A5B
:101E7000481C6062087821688862608D401E608519
:101E8000208D401E2085208D40BB608D30B34346A1
:101E9000002280212046009501F050FE08B1032069
:101EA0009DE7608DFF280DD9FF2020850020009040
:101EB00094F828204FF080734946204601F026FE12
:101EC0000CE02FE0608D20850020009094F8282001
:101ED0004FF000734946204601F018FE608D00283F
:101EE000B8D12A464146204601F09CFE30B1606CD4
:101EF000042801D1012072E7032070E72020216827
:101F0000C86120684068084908402168486020206E
:101F100084F84100002084F8420000BF84F84000AB
:101F200000BF5CE702205AE700E800FE70470000AF
:101F300010B52E480068401C2C4908602C480068E9
:101F400020B12B480068401E29490860002444E065
:101F5000284850F8240000283DD0264850F8240096
:101F60000078C0F34000B0B3224850F824008068E5
:101F700040B1204850F824008068401E1D4951F8A7
:101F8000241088601B4850F82400806818BB194B47
:101F900053F824301969174B53F8240053F82430B0
:101FA000DA689047134850F824004168114850F807
:101FB000240081600F4850F82400007800F00100F0
:101FC00048B90C4850F82400007820F00201094874
:101FD00050F824000170601CC4B20648001F00784D
:101FE000A042B5DC02F0C6FF10BD000004000220D4
:101FF00000000220C405022010B50848006840F423
:10200000007006490860032000F05AFA0F2000F023
:1020100007F800F0ECF9002010BD0000003C024081
:1020200070B50446074800684FF47A71B0FBF1F5CB
:10203000284601F0B7FC00222146501E00F001FAAC
:10204000002070BD5004022070B504460E461546AF
:1020500000BF94F8A000012801D1022070BD01202A
:1020600084F8A00000BF022084F8A10005EB8501E0
:1020700001EBC50204F1380101EB82003422314644
:10208000FEF765F92A463146204602F03BF9012069
:102090002168486284F8A10000BF002084F8A000F5
:1020A00000BF00BFDAE7704710B504462068806BB8
:1020B00000F00400F0B12068806B00F00400C8B1AB
:1020C0002068406B20F004002168486304202168E8
:1020D000C863D4F8A40040F00100C4F8A4000420B0
:1020E00084F8A10000BF002084F8A00000BF2046B3
:1020F000FFF7D9FF2068806B00F00200F0B1206884
:10210000806B00F00200C8B12068406B20F0020034
:102110002168486302202168C863D4F8A40040F015
:102120000200C4F8A400042084F8A10000BF00202D
:1021300084F8A00000BF2046FFF7B5FF2068806B41
:1021400000F00100B8B12068806B00F0010090B190
:102150002068406B20F0010021684863012021685D
:10216000C86384F8A10000BF002084F8A00000BF6D
:10217000204600F0B3F82068806B00F00800C0B182
:102180002068806B00F0080098B12068406B20F058
:1021900008002168486308202168C863012084F88A
:1021A000A10000BF002084F8A00000BF204600F07E
:1021B000EDF810BD70B50446002500260CB90120CD
:1021C00070BD94F8A10028B9002084F8A000204632
:1021D00000F0B6F8022084F8A1002068806920F0A1
:1021E000704021688861D4E901010843E16808432F
:1021F000216908432168896908432168886120684A
:1022000080683549084021688860A08A05042068F4
:102210008068A16929430843216888602068C068F4
:102220002D4908402168C860A08B05042068C0685B
:10223000216A294308432168C8602068006926494B
:10224000084021680861A08C050420680069A16A23
:102250002943084321680861206840691E490840F5
:1022600021684861A08D050420684069216B2943DD
:1022700008432168486194F83500050294F8360057
:1022800006042068C06A00F07F402168C86246EA00
:10229000050094F8341008432168C96A084321688E
:1022A000C8622068406B40F00400216848632068E1
:1022B000406B40F00200216848632068806940F06C
:1022C0000100216888610020C4F8A400012084F87E
:1022D000A100002074E7000000F800F070B505468A
:1022E000002400BF22E0C4EBC400144901EB8000CD
:1022F000007AC8B10020C4EBC401104A02EB81018E
:102300000872C4EBC400114601EB800041682868E4
:10231000C0F8AC102868406A40F0010029684862A3
:1023200020460BF055FA03E0601CC4B2022CDADB45
:1023300000BF0021284600F005F870BDDC6C0320CA
:1023400070470000024600BF92F8A000012801D1AA
:1023500002207047012082F8A00000BF022082F80E
:10236000A1001068406B40F00100136858630648F4
:102370000160012082F8A10000BF002082F8A000C7
:1023800000BF00BFE5E7000040680140704702461B
:10239000486A08B9002301E04FF00053D360086A8F
:1023A00010B94FF0804300E000239360C86910B972
:1023B0004FF0004000E000205060486B401E9061EC
:1023C000D1E90D031844401E1062D1E90D031844F1
:1023D0000B6C1844401E9062D1E90D0318440B6C3D
:1023E0001844CB6B1844401E1063002070477047A0
:1023F00000BF00F01F0201219140034A430942F847
:10240000231000BF7047000080E200E000BF00F032
:102410001F0201219140034A430942F8231000BFE3
:102420007047000080E100E000BF00F01F020121C2
:1024300091404209920002F1E022C2F8001100BF6F
:1024400070472DE9F05F80460D461646002702F0E2
:1024500065F8074639462A46334601F00700C0F1C1
:10246000070ABAF1040F02D94FF0040A01E0C0F1E3
:10247000070AD14600F1040ABAF1070F02D24FF061
:10248000000A01E0A0F1030AD4464FF0010A0AFA5B
:1024900009FAAAF1010A0AEA020A0AFA0CFA4FF04A
:1024A000010B0BFA0CFBABF1010B0BEA030B4AEA35
:1024B0000B042146404602F039F8BDE8F09F0000C9
:1024C00000BF00F00702064B19684FF6FF031940E2
:1024D000044B0B4343EA0221014B196000BF7047D4
:1024E0000CED00E00000FA0538B5002400BF2048DC
:1024F000006840F080501E4908600846006800F0FF
:102500008050009000BF00BF1A48006840F480303F
:1025100018490860FFF746FA044607E0FFF742FA59
:10252000001BB0F57A7F01D9032038BD11484068FF
:1025300000F48030B0F5803FF0D10E48006840F4E0
:1025400000300C490860FFF72DFA044607E0FFF75A
:1025500029FA001BB0F57A7F01D90320E5E7054889
:10256000406800F40030B0F5003FF0D10020DCE717
:1025700040380240007000402DE9F8430446002630
:1025800000250027A846A946207800F0010088B160
:1025900000BFFE48006820F40000FC4908600846BF
:1025A0000068616B0843F949086000BF606B08B9B7
:1025B0004FF00108206800F40020B0F5002F13D17F
:1025C000F2488430006820F44010E16B0843EF4982
:1025D00084310860E06BB0F5801F01D14FF0010835
:1025E000E06B08B94FF00109206800F48010B0F5E5
:1025F000801F13D1E5488430006820F44000216C2E
:102600000843E24984310860206CB0F5800F01D1A5
:102610004FF00108206C08B94FF00109206800F064
:102620008070B0F1807F01D14FF00108207800F078
:102630002000202870D100BFD4483830006840F016
:102640008050D249383108600846006800F0805058
:10265000009000BF00BFCE48006840F48070CC49B5
:102660000860FFF79FF9064607E0FFF79BF9801B1C
:10267000642802D90320BDE8F883C548006800F447
:1026800080700028F1D0C1486830006800F44075BF
:1026900085B3208E00F44070A8422BD0BB48683030
:1026A000006820F44075B9486830006840F4803014
:1026B000B649683108600846006820F48030086038
:1026C00008460560006800F0010098B1FFF76AF95C
:1026D000064608E0FFF766F9801B41F28831884220
:1026E00001D90320C7E7A94868300068C0F340005B
:1026F0000028EFD000BF208E00F44070B0F5407F7E
:102700000BD1A248006820F4F810A24A216B1140B6
:1027100008439E49086006E010E09C48006820F4E9
:10272000F8109A490860994868300068218EC1F312
:102730000B01084395496831086000BF207800F01C
:102740001000102810D100BF90488430006820F09D
:1027500080708E498431086008460068A16B084388
:102760008A498431086000BF208800F48040B0F5B9
:10277000804F09D185488830006820F44030616E70
:102780000843824988310860208800F40040B0F591
:10279000004F09D17D488830006820F44020A16EA8
:1027A00008437A4988310860206800F48030B0F529
:1027B000803F09D175488830006820F44010E16EF0
:1027C0000843724988310860206800F40030B0F591
:1027D000003F09D16D488830006820F44000216F27
:1027E00008436A4988310860207800F0400040289A
:1027F00009D166488830006820F00300616C084306
:10280000624988310860207800F08000802809D172
:102810005E488830006820F00C00A16C08435B49DA
:1028200088310860208800F48070B0F5807F09D17D
:1028300056488830006820F03000E16C0843534966
:1028400088310860208800F40070B0F5007F09D15D
:102850004E488830006820F0C000216D08434B4985
:1028600088310860208800F48060B0F5806F09D15D
:1028700046488830006820F44070616D0843434941
:1028800088310860208800F40060B0F5006F09D13D
:102890003E488830006820F44060A16D08433B4901
:1028A00088310860208800F48050B0F5805F09D13D
:1028B00036488830006820F44050E16D08433349C1
:1028C00088310860208800F40050B0F5005F09D11D
:1028D0002E488830006820F44040216E08432B4980
:1028E00088310860206800F48000B0F5800F09D1BD
:1028F00026488830006820F08060A16F0843234993
:1029000088310860206800F40010B0F5001F0FD176
:102910001E488830006820F00060E16F08431B49C2
:1029200088310860E06FB0F1006F01D14FF001090C
:10293000207800F00800082801D14FF00109206834
:1029400000F48020B0F5802F09D11048883000684D
:1029500020F04070616F08430C498831086020689E
:1029600000F40000B0F5000F0AD108488830006874
:1029700020F08050D4F88010084304498831086062
:10298000206800F08060B0F1806F05E008380240F8
:1029900000700040FFFCFF0F08D1FE48006820F0E7
:1029A0000050D4F884100843FA490860206800F009
:1029B0000060B0F1006F0AD1F648001F006820F0F7
:1029C0000070D4F888100843F249091F0860206895
:1029D00000F08050B0F1805F0AD1EE48001F00681F
:1029E00020F08060D4F88C100843EA49091F086081
:1029F000B8F1010F03D02068B0F1007F7DD1E54828
:102A00009038006820F08060E24990390860FEF755
:102A1000C9FF064606E0FEF7C5FF801B642801D902
:102A2000032028E6DB4890380068C0F3C060002827
:102A3000F1D1207800F00100F0B3606BE0BBD54825
:102A40000C38006800F440304FF4403191FAA1F1A5
:102A5000B1FA81F120FA01F5CE480C38006800F097
:102A600070604FF0706191FAA1F1B1FA81F120FA32
:102A700001F747F6C07191FAA1F1B1FA81F16068EE
:102A800088404FF4403191FAA1F1B1FA81F105FA91
:102A900001F108434FF0706191FAA1F1B1FA81F1AF
:102AA00007FA01F108434FF0E04292FAA2F2B2FABB
:102AB00082F2A168914000E003E00843B5490C3977
:102AC0000860206800F40020B0F5002F03D1E06B0F
:102AD000B0F5801F09D0206800F48010B0F5801F89
:102AE00050D1206CB0F5800F4CD1AA480C3800684A
:102AF00000F440304FF4403100E0CFE091FAA1F112
:102B0000B1FA81F120FA01F5A2480C38006800F012
:102B1000E0404FF0E04191FAA1F1B1FA81F120FAE1
:102B200001F747F6C07191FAA1F1B1FA81F160683D
:102B300088404FF4403191FAA1F1B1FA81F105FAE0
:102B400001F108434FF0706292FAA2F2B2FA82F2F7
:102B5000E168914008434FF0E04191FAA1F1B1FAE8
:102B600081F107FA01F108438A490C390860894864
:102B7000001F006820F01F00616A491E0843854954
:102B8000091F0860206800F08070B0F1807F3FD19D
:102B900080480C38006800F070604FF0706191FA66
:102BA000A1F1B1FA81F120FA01F57A480C380068F8
:102BB00000F0E0404FF0E04191FAA1F1B1FA81F16B
:102BC00020FA01F747F6C07191FAA1F1B1FA81F14B
:102BD000606888404FF4403292FAA2F2B2FA82F270
:102BE0002169914008434FF0706191FAA1F1B1FA67
:102BF00081F105FA01F108434FF0E04191FAA1F1AA
:102C0000B1FA81F107FA01F1084362490C39086011
:102C1000206800F00070B0F1007F25D147F6C07148
:102C200091FAA1F1B1FA81F1606888404FF4403225
:102C300092FAA2F2B2FA82F22169914008434FF06F
:102C4000706292FAA2F2B2FA82F2E168914008430D
:102C50004FF0E04292FAA2F2B2FA82F2A1689140F9
:102C600008434C490C3908604A489038006840F0E5
:102C70008060484990390860FEF794FE064606E0F9
:102C8000FEF790FE801B642801D90320F3E441483D
:102C900090380068C0F3C0600028F1D0B9F1010F8E
:102CA00069D13C489038006820F08050394990390B
:102CB0000860FEF777FE064606E0FEF773FE801B0F
:102CC000642801D90320D6E4324890380068C0F364
:102CD00040700028F1D1206800F40020B0F5002FEA
:102CE00001D1E06B38B1206800F48010B0F5801F8E
:102CF0004FD1206CF0BB27480838006800F4403002
:102D00004FF4403191FAA1F1B1FA81F120FA01F5C5
:102D100020480838006800F0E0404FF0E04191FAA8
:102D2000A1F1B1FA81F120FA01F747F6C07191FAE9
:102D3000A1F1B1FA81F1606988404FF4403191FA14
:102D4000A1F1B1FA81F105FA01F108434FF0706287
:102D500092FAA2F2B2FA82F2A169914008434FF0CE
:102D6000E04191FAA1F1B1FA81F107FA01F10843CA
:102D7000084901E00DE0BBE008390860081D006863
:102D800020F4F851A06A401E41EA00200149091FC1
:102D9000086001E090380240206800F40010B0F5AF
:102DA000001F40D1E06FB0F1006F3CD15148006886
:102DB00000F070604FF0706191FAA1F1B1FA81F109
:102DC00020FA01F54B48006800F0E0404FF0E04188
:102DD00091FAA1F1B1FA81F120FA01F747F6C07139
:102DE00091FAA1F1B1FA81F1606988404FF4403263
:102DF00092FAA2F2B2FA82F2216A914008434FF0AD
:102E0000706191FAA1F1B1FA81F105FA01F108437B
:102E10004FF0E04191FAA1F1B1FA81F107FA01F125
:102E2000084334490860207800F00800082845D19C
:102E30003048006800F070604FF0706191FAA1F1C5
:102E4000B1FA81F120FA01F52A48006800F4403017
:102E50004FF4403191FAA1F1B1FA81F120FA01F772
:102E600047F6C07191FAA1F1B1FA81F16069884029
:102E70004FF4403191FAA1F1B1FA81F107FA01F171
:102E800008434FF0706191FAA1F1B1FA81F105FAAE
:102E900001F108434FF0E04292FAA2F2B2FA82F254
:102EA000E1699140084313490860081D006820F457
:102EB0004030E16A08430F49091D08600D48883811
:102EC000006840F080500B4988390860FEF76AFDC1
:102ED000064606E0FEF766FD801B642801D9032044
:102EE0009FE5044888380068C0F340700028F1D09E
:102EF000002096E58838024070B504460D4600264D
:102F00006648006800F00F00A8420ED263480068CF
:102F100020F00F002843614908600846006800F06F
:102F20000F00A84201D0012070BD207800F00200FF
:102F3000022807D15A48006820F0F000A168084331
:102F400057490860207800F00100002860D06068D0
:102F5000012807D1524808380068C0F34040A0B9A2
:102F60000120E1E76068022807D14D480838006871
:102F7000C0F3406048B90120D6E7494808380068E6
:102F8000C0F3400008B90120CEE74548006820F0B2
:102F900003006168084342490860FEF703FD0646E6
:102FA0006068012810D108E0FEF7FCFC801B41F2AC
:102FB0008831884201D90320B6E73948006800F01B
:102FC0000C000428F0D123E06068022810D108E04A
:102FD000FEF7E8FC801B41F28831884201D90320CA
:102FE000A2E72F48006800F00C000828F0D10FE09D
:102FF00008E0FEF7D7FC801B41F28831884201D9F6
:10300000032091E72648006800F00C000028F0D16A
:103010002248006800F00F00A8420ED91F4800683F
:1030200020F00F0028431D4908600846006800F0A2
:103030000F00A84201D0012076E7207800F00400BC
:10304000042807D11648006820F4E050E1680843DE
:1030500013490860207800F00800082808D11048BB
:10306000006820F46040216940EAC1000C49086012
:1030700000F05AF80A49096801F0F001F02292FACA
:10308000A2F2B2FA82F2D140064A515CC840064927
:1030900008600F20FEF7C4FF002045E7003C024017
:1030A00008380240D4F6060850040220014800689F
:1030B00070470000500402200CB50AA103C9CDE9F5
:1030C0000001FFF7F3FF0949096801F4E0514FF4EB
:1030D000E05292FAA2F2B2FA82F2D1401DF8011047
:1030E000C8400CBD00000000010203040838024083
:1030F0000CB50AA103C9CDE90001FFF7D7FF0949C3
:10310000096801F460414FF4604292FAA2F2B2FA07
:1031100082F2D1401DF80110C8400CBD0000000033
:10312000010203040838024070B500210022002388
:103130000020274C246804F00C0424B1042C04D093
:10314000082C41D103E0234840E023483EE0204CD6
:10315000241F246804F03F011D4C241F246804F43C
:10316000800484B11C4CB4FBF1F5194C241F246875
:1031700047F6C076344096FAA6F6B6FA86F6F440DC
:1031800005FB04F20FE0134CB4FBF1F5104C241FC7
:10319000246847F6C076344096FAA6F6B6FA86F664
:1031A000F44005FB04F20A4C241F246804F4403464
:1031B0004FF4403595FAA5F5B5FA85F5EC40641C59
:1031C0006300B2FBF3F001E0024800BF00BF70BD36
:1031D000083802400024F40040787D01F8B5044628
:1031E00000250026207800F00100002871D0FD485D
:1031F000006800F00C0004280DD0FA48006800F0C8
:103200000C00082813D1F748001F006800F4800064
:10321000B0F5800F0BD1F34808380068C0F3404088
:10322000002869D06068002866D10120F8BD00BF81
:103230006068B0F5803F08D1EA480838006840F47B
:103240008030E849083908602EE0606868B9E548D0
:103250000838006820F48030E249083908600846E0
:10326000006820F4802008601EE06068B0F5A02FA0
:103270000DD1DC480838006840F48020D94908396D
:1032800008600846006840F4803008600CE0D548CB
:103290000838006820F48030D249083908600846B0
:1032A000006820F48020086000BF606890B1FEF7DD
:1032B00079FB054606E0FEF775FB401B642801D943
:1032C0000320B3E7C74808380068C0F3404000282F
:1032D000F1D011E0FEF766FB054606E0FEF762FB63
:1032E000401B642801D90320A0E7BE4808380068C5
:1032F000C0F340400028F1D1207800F002000228FD
:1033000073D1B848006800F00C0058B1B5480068A7
:1033100000F00C00082821D1B248001F006800F41A
:103320008000D8B9AF4808380068C0F3400020B129
:10333000E068012801D0012078E7AA480838006831
:1033400020F0F800F82292FAA2F2B2FA82F2216991
:1033500091400843A3490839086046E0E06850B34B
:10336000A0480838006840F001009E49083908600C
:10337000FEF718FB054606E0FEF714FB401B02288B
:1033800001D9032052E7974808380068C0F340008D
:103390000028F1D093480838006820F0F800F8229F
:1033A00092FAA2F2B2FA82F22169914008438D4961
:1033B0000839086019E08B480838006820F00100DF
:1033C000884908390860FEF7EDFA054606E0FEF781
:1033D000E9FA401B022801D9032027E78148083871
:1033E0000068C0F340000028F1D1207800F0080008
:1033F000082836D16069D0B17A486C30006840F056
:10340000010078496C310860FEF7CCFA054606E009
:10341000FEF7C8FA401B022801D9032006E77148CD
:103420006C300068C0F340000028F1D019E06D480E
:103430006C30006820F001006A496C310860FEF7CA
:10344000B1FA054606E0FEF7ADFA401B022801D9A5
:103450000320EBE663486C300068C0F340000028AE
:10346000F1D1207800F00400042874D15D48383090
:10347000006800F0805080B900BF5A4838300068BA
:1034800040F080505749383108600846006800F025
:103490008050009000BF00BF01265348006800F430
:1034A0008070B0B95048006840F480704E490860A0
:1034B000FEF778FA054606E0FEF774FA401B64282A
:1034C00001D90320B2E64848006800F48070002863
:1034D000F2D000BFA068012808D1424868300068D7
:1034E00040F001003F49683108602DE0A06868B9EC
:1034F0003C486830006820F001003A4968310860B3
:103500000846006820F0040008601DE0A068052857
:103510000DD134486830006840F00400314968310A
:1035200008600846006840F0010008600CE02D4883
:103530006830006820F001002A49683108600846B8
:10354000006820F00400086000BFA068A8B1FEF782
:1035500029FA054609E02EE0FEF724FA401B41F265
:103560008831884201D9032060E61E48683000682F
:10357000C0F340000028EFD013E0FEF713FA054631
:1035800008E0FEF70FFA401B41F28831884201D96A
:1035900003204BE6134868300068C0F34000002861
:1035A000EFD1012E07D10F483830006820F080504D
:1035B0000C4938310860A069F0B30A48006800F08F
:1035C0000C0008287FD0A069022863D1054808387C
:1035D000006820F08070034908390860FEF7E2F9BE
:1035E00005460AE00838024000700040FEF7DAF9AC
:1035F000401B022801D9032018E635480068C0F3B3
:1036000040600028F2D1D4E90701084347F6C072B0
:1036100092FAA2F2B2FA82F2616A91400843012260
:10362000A16AC2EB51014FF4403292FAA2F2B2FA0F
:1036300082F29140084300E047E04FF0706292FA56
:10364000A2F2B2FA82F2E16A914008434FF0E042FE
:1036500092FAA2F2B2FA82F2216B914008431C491D
:10366000091D0860081F006840F08070091F08608D
:10367000FEF798F9054606E0FEF794F9401B02288C
:1036800001D90320D2E512480068C0F34060002849
:10369000F2D01AE00E48006820F080700C490860F3
:1036A000FEF780F9054607E00DE0FEF77BF9401BC9
:1036B000022801D90320B9E505480068C0F340603D
:1036C0000028F2D101E00120B0E50020AEE50000C5
:1036D0000038024070B504460D460CB9012070BD9B
:1036E00094F82C0028B9002084F82D00204600F022
:1036F00011F8022084F82C00211D2068FDF708F93C
:103700002946D4E90002FDF76DF9012084F82C0068
:103710000020E4E7704770B504460D4694F82C008D
:10372000022800D170BD022084F82C0029462068B0
:10373000FDF728F9012084F82C000020F2E770B58D
:1037400004460D46164694F82C00022800D170BDA0
:10375000022084F82C00324629462068FDF719F92A
:103760002868022803D1052084F82C0002E00120FB
:1037700084F82C000020EAE770477047F8B504464B
:1037800004260025002000906946204601F012FB27
:10379000054615B1A06B2843A0630098C0F34326EB
:1037A0003046F8BD70B5044600252068406BC0F374
:1037B0000020002862D04FF4807021688863206860
:1037C000C06B20F49D702168C863206B00F0080076
:1037D00048B3206B00F0020018B9206B00F0200005
:1037E00050B1206801F06AF905462DB1A06B28435D
:1037F000A0632046FFF7C1FF40F2FF5021688863B5
:10380000012084F83400206B00F0010018B9206B0F
:1038100000F0020018B1204600F0B8F8B1E02046F0
:1038200000F0BAF8ADE0206B00F080000028F5D081
:10383000206B00F0200050B1206801F03FF90546F0
:103840002DB1A06B2843A0632046FFF796FF206BA5
:1038500000F001000028E1D1206B00F002000028F8
:10386000DCD12068C06A20F008002168C86201200D
:1038700084F83400204600F08FF882E02068406B26
:10388000C0F3803038B14FF480402168886320460F
:1038900001F0A9FA75E02068406BC0F3C03038B180
:1038A0004FF4004021688863204601F070FA68E018
:1038B0002068406B00F03A0008B1012000E00020D1
:1038C00000285ED02068406BC0F3400018B1A06BA8
:1038D00040F00200A0632068406BC0F3C00018B144
:1038E000A06B40F00800A0632068406BC0F340105C
:1038F00018B1A06B40F02000A0632068406BC0F3BB
:10390000001018B1A06B40F01000A06340F2FF500F
:10391000216888632068C06B20F49D702168C863AB
:10392000206B00F0800010B3206C50B11548216C62
:103930000865206CFDF764F918B3206C01F001FAFA
:103940001FE0E06B50B11048E16B0865E06BFDF7DC
:1039500057F9B0B1E06B01F0CEF912E00020A0639E
:10396000012084F834002046FFF706FF09E0206BB1
:1039700000F0080028B1012084F834002046FFF749
:10398000FCFE70BD434D0008F74C00080121014AC0
:1039900011607047940502200121014A11607047AF
:1039A0009805022070B504462546681EB0F1807F58
:1039B00001D301200FE0681E4FF0E02148610F2184
:1039C0004FF0FF3000F0B2FD00204FF0E0218861A1
:1039D00007200861002070BD10B504460CB9012015
:1039E00010BDA06900B100E000BF94F8690028B9DB
:1039F000002084F86800204600F02AF8242084F88B
:103A000069002068006820F00100216808602046F5
:103A100002F094FF012800D1E2E7606A10B120466D
:103A200002F0F0FE2068406820F490402168486071
:103A30002068806820F02A0021688860206800687B
:103A400040F0010021680860204602F050FFC7E7FF
:103A5000704700BFFEE701688969C1F3400111B1F9
:103A60000021026891620168896901F0010129B9A8
:103A70000168896941F001010268916170470000A5
:103A800070B504460D46164620688069C0F30010E4
:103A9000002837D013E0681C88B125B1FDF782FFFC
:103AA000801BA8420BD9202084F84100002084F814
:103AB000420000BF84F8400000BF032070BD2068B2
:103AC0008069C0F340100028E5D010202168C8614B
:103AD00020202168C8612046FFF7BDFF20684068AC
:103AE000094908402168486004206064202084F867
:103AF0004100002084F8420000BF84F8400000BF6D
:103B00000120DBE70020D9E700E800FEF0B50C4615
:103B1000059D002106687168074E3140C4F309060F
:103B20004FF47F0707EA02473E431E432E433143CB
:103B300006687160F0BD0000009800FC2DE9F041BE
:103B400004460E4617461D46DDF8188015E0681C31
:103B500098B12DB1FDF726FFA0EB0800A8420CD9C3
:103B6000202084F84100002084F8420000BF84F83F
:103B7000400000BF0320BDE8F0812068806930402C
:103B8000B04201D1012000E00020B842DFD0002087
:103B9000F1E7000070B504460D46164637E03246A0
:103BA00029462046FFF76CFF08B1012070BD206850
:103BB0008069C0F34010B0B120202168C86120683E
:103BC0004068174908402168486000206064202050
:103BD00084F84100002084F8420000BF84F84000CF
:103BE00000BF0120E2E725B1FDF7DCFE801BA84203
:103BF0000DD9606C40F020006064202084F8410002
:103C000000BF002084F8400000BF0320CEE72068FA
:103C10008069C0F380000028C1D00020C6E7000002
:103C200000E800FE70B504460D4616461DE032461B
:103C300029462046FFF724FF08B1012070BD25B1B9
:103C4000FDF7B0FE801BA8420FD9606C40F0200049
:103C50006064202084F84100002084F8420000BF06
:103C600084F8400000BF0320E8E720688069C0F3C3
:103C700040100028DBD00020E0E770B504460D4678
:103C800016461FE0324629462046FFF7F9FE08B1E6
:103C9000012070BD681CA8B125B1FDF783FE801B13
:103CA000A8420FD9606C40F020006064202084F8A6
:103CB0004100002084F8420000BF84F8400000BFAB
:103CC0000320E6E720688069C0F340000028D9D0CF
:103CD0000020DEE72DE9F05F0E4617461C46DDE9C1
:103CE0000CBADDE90A893046FCF7D2FE0546B8F188
:103CF000000F02D0B9F1000F01D1BDE8F09F00BF65
:103D00001848006800F001000028F9D11548C76084
:103D10004461C463C0F810B0C0F818A0C0F840A057
:103D2000C56145624563484668F31F400D494864D4
:103D300000BFA8200C49088000200A4908600846F6
:103D4000006808600846006840F00100086000BF95
:103D50000448006800F001000028F9D100BF00BF4E
:103D6000CBE7000000B00240100502202DE9F05F13
:103D70000E4617461C46DDE90BABDDF82890DDF852
:103D80003C803046FCF784FE054600BF1F480068B3
:103D900000F001000028F9D11C48C7604461C463E9
:103DA0001A490E9808610846C0F81880C0F840808B
:103DB000C56145624563C0694FF4803141EA0961DC
:103DC00008431249C8610846406A40EA0A604862EE
:103DD0000D986BF31F40486400BFBF200C4908805A
:103DE0004FF400300949086008460068086008463A
:103DF000006840F00100086000BF0448006800F05F
:103E000001000028F9D100BFBDE8F09F00B00240DA
:103E1000100502202DE9F05F0D4616461C46DDE92F
:103E20000CB9DDE90A782846FCF732FE824617B164
:103E3000B8F1000F01D1BDE8F09F00BF1D48006838
:103E400000F001000028F9D11A48C6604461C4633B
:103E5000C0F810B0C0F81890C0F840900E9820F04C
:103E60007F40144908620920C8610846C0F824A0B0
:103E7000C0F834A0404667F31F40486400BF4FF4C9
:103E80008F700D4908804FF400300A4908600846D9
:103E9000006808600846006840F00100086000BF44
:103EA0000448006800F001000028F9D100BF00BFFD
:103EB000C1E7000000B00240100502202DE9FE4FCE
:103EC00005460C4616461F46DDE90C8A2979B4F9E9
:103ED000122002FB0762606801FB0209608AA0EB06
:103EE000080000B2012143464A46CDE9010A00918B
:103EF0002146284600F008F9BDE8FE8F2DE9F05F65
:103F00000C461D460AAE96E8C009DDF838902046FA
:103F1000FCF7BEFD824617B1B8F1000F01D1BDE834
:103F2000F09F00BF1C48006800F001000028F9D194
:103F30001948C5604661C663C0F810B0C0F8189053
:103F4000C0F8409002201449C8610846C0F824A077
:103F5000C0F834A0C06940F40010C861404667F35F
:103F60001F40486400BFD9200C4908804FF400303E
:103F7000094908600846006808600846006840F083
:103F80000100086000BF0448006800F0010000283C
:103F9000F9D100BF00BFC2E700B002401005022007
:103FA0002DE9F05F0C461D460AAE96E8400E0E9FC6
:103FB0002046FCF76DFD804600BF1C48006800F0FD
:103FC00001000028F9D11948C5604661C663C0F8F0
:103FD00010B08761076401201449C8610846C0F821
:103FE0002480C0F83480C06940F40010C861504695
:103FF00069F31F40486400BFF0200D4908804FF46A
:1040000000300A49086008460068086008460068F1
:1040100040F00100086000BF0448006800F00100A3
:104020000028F9D100BFBDE8F09F000000B00240B9
:10403000100502202DE9F05F0C461D460AAE96E8F9
:10404000400E0E9F2046FCF723FD804600BF1C4813
:10405000006800F001000028F9D11948C5604661E8
:10406000C663C0F810B08761076400201449C861B6
:104070000846C0F82480C0F83480C06940F440107D
:10408000C861504669F31F40486400BF40F2071002
:104090000C4908804FF40030094908600846006860
:1040A00008600846006840F00100086000BF04484E
:1040B000006800F001000028F9D100BFBDE8F09FC2
:1040C00000B00240100502202DE9FE4F05460C46C7
:1040D00016461F46DDE90C8A2979B4F9122002FB45
:1040E0000762606801FB0209608A401E00B201237A
:1040F0004A462146CDE9010ACDF80080284600F065
:1041000003F8BDE8FE8F00002DE9F84F0E46174674
:104110001D46DDE90A890C9CC4F3C44AC4F3852B0F
:10412000C4F3C4000090002040EACA2040EA4B10CB
:10413000009940EA010415B1B8F1000F01D1BDE8C2
:10414000F88F00BF1648006800F001000028F9D180
:1041500013488463C763C0F840903046FCF798FC6E
:104160000F494863404665F31F40486400BF9220F2
:104170000C4908804FF4403009490860084600683F
:1041800008600846006840F00100086000BF04486D
:10419000006800F001000028F9D100BF00BFCEE7A1
:1041A00000B00240100502202DE9FE4F05460C46E6
:1041B00016461F46DDE90D9ADDF830802979B4F9FD
:1041C000122002FB0762606801FB020B608AA0EB11
:1041D000080000B243465A462146CDE9010ACDF80F
:1041E00000902846FFF790FFBDE8FE8FF8B5074620
:1041F0000C4615461E4600BF2148006800F001002D
:104200000028F9D11F490979B4F9122002FB06529E
:10421000606801FB02001A49C860C1F83CD0002068
:10422000086108642046FCF733FC1549C86100208A
:1042300048634FF00110486400BF752012490880A0
:104240004FF480300E490860084600680860084650
:10425000006840F00100086000BF0948006800F0F5
:1042600001000028F9D100BF00BF0548006800F038
:1042700001000028F9D1009840F07F40F8BD00000F
:1042800000B00240906B03201005022010B50446D8
:1042900001F04EFC044805490860054805490860DE
:1042A00002F0A8FD10BD0000006801406C6D032005
:1042B00000B00240146D032001460348006800F07E
:1042C000010080F00100704700B002402DE9FC4180
:1042D00004460D4616461F46DDF8208001203B4669
:1042E00032462946CDE900082046FFF7E7FDBDE844
:1042F000FC81000010B50248FDF7D6FE10BD00009D
:104300006C6D0320F0B50023002400258E8807681B
:10431000FF68C7F30B473E443304066884368027A2
:1043200007FB0266766806F47047066884364FF02D
:10433000800C0CFB026677600E680768FF68C7F3A5
:104340000B473E44761C1E43076884370CFB0277FC
:104350007E608E890768FF68C7F30A073E4433040E
:1043600006688436802707FB0266B66806F4704745
:10437000066884360CFB0266B7608E680768FF68C3
:10438000C7F30A073E44761C1E43076884370CFBBC
:104390000277BE6006688436802707FB02663669AE
:1043A00026F00707066884360CFB026637610F6942
:1043B000066884360CFB026637613126765C330270
:1043C0003226765C34040E7E3506066884368027F5
:1043D00007FB0266B6690027066884360CFB026696
:1043E000B76191F830601E4326432E430768843737
:1043F0000CFB0277BE6106688436802707FB0266E5
:10440000766926F0FF07066884360CFB0266776142
:104410004F69066884360CFB02667761066884364D
:10442000802707FB0266F76940F20776B743066804
:1044300084360CFB0266F761D1E907673E430768E3
:1044400084370CFB0277FE6106688436802707FB01
:104450000266B66A0027066884360CFB0266B762FD
:104460004F6A066884360CFB0266B7620E690EB9A5
:10447000042313E00E69012E01D103230EE00E691F
:10448000042E08D00E69022E05D00E69032E02D02C
:104490000E69072E01D1022300E00123066884364D
:1044A000802707FB0266F66A06F0E0270668843676
:1044B0004FF0800C0CFB0266F762D1E90076F61B28
:1044C0005E43F71C0E8D5E4347EA06470668843656
:1044D0000CFB0266F76206688436802707FB0266DB
:1044E000366BF70AFF02066884360CFB02663763F8
:1044F000CF6A066884360CFB02663763066884362A
:10450000D701F65946F00107066884364FEAC21C07
:1045100046F80C70F0BD00BFFEE770470248006827
:10452000C0F30220704700000CED00E010B5002839
:1045300007DA0A07140E054A00F00F031B1FD454B4
:1045400003E00A07130E024A135410BD18ED00E0F1
:1045500000E400E070B505460C46D2490020FCF7A7
:10456000D9F8D1490320FCF7D5F8D0490020FCF751
:10457000D1F8CF490220FCF7CDF8CC490020FCF758
:10458000C9F8CC490020FCF7C5F80A20FDF7DCF893
:10459000C9490020FCF7BEF8C8490020FCF7BAF86A
:1045A0000A20FDF7D1F8C6490020FCF7B3F8C54949
:1045B0000020FCF7AFF8C4490020FCF7ABF8C34972
:1045C0000020FCF7A7F8C2490020FCF7A3F8C14976
:1045D0000020FCF79FF8B3490020FCF79BF8BE4988
:1045E0000020FCF797F8BD490020FCF793F8BC4980
:1045F0000020FCF78FF8BB490020FCF78BF8BA4984
:104600000020FCF787F8B9490020FCF783F8B84987
:104610000020FCF77FF8B7490020FCF77BF8AB4996
:104620000020FCF777F89F490020FCF773F8B249A7
:104630000220FCF76FF8B1490020FCF76BF8B04995
:104640000020FCF767F8AF490020FCF763F8AE499B
:104650000020FCF75FF8AD490020FCF75BF8AC499F
:104660000020FCF757F89D490020FCF753F8A949B2
:104670000020FCF74FF89B490020FCF74BF8A649B7
:104680000020FCF747F8A5490020FCF743F8A449AF
:104690000220FCF73FF885490020FCF73BF8A149D0
:1046A0000620FCF737F8A0490020FCF733F89F49B3
:1046B0000E20FCF72FF89E490020FCF72BF89D49AF
:1046C0000E20FCF727F89C490020FCF723F89B49B3
:1046D0000A20FCF71FF89A490020FCF71BF89949BB
:1046E0000020FCF717F871490020FCF713F89649F1
:1046F0000A20FCF70FF895490020FCF70BF89449C5
:104700000F20FCF707F888490020FCF703F89149CF
:104710000F20FBF7FFFF86490020FBF7FBFF8E49C8
:104720000A20FBF7F7FF84490020FBF7F3FF8B49D2
:104730000F20FBF7EFFF82490020FBF7EBFF8849D2
:104740000F20FBF7E7FF87490020FBF7E3FF8649CF
:104750000A20FBF7DFFF85490020FBF7DBFF8449D8
:104760000A20FBF7D7FF51490020FBF7D3FF81490F
:104770000A20FBF7CFFF75490020FBF7CBFF7E49EE
:104780000F20FBF7C7FF68490020FBF7C3FF7B49F9
:104790000F20FBF7BFFF66490020FBF7BBFF7849FE
:1047A0000A20FBF7B7FF64490020FBF7B3FF754908
:1047B0000F20FBF7AFFF62490020FBF7ABFF724908
:1047C0000F20FBF7A7FF45490020FBF7A3FF6F4928
:1047D0000020FBF79FFF6E490020FBF79BFF6D4910
:1047E0000020FBF797FF2F490020FBF793FF6A4952
:1047F0000320FBF78FFF2B490020FBF78BFF294994
:104800000020FBF787FF65491020FBF783FF254950
:104810000020FBF77FFF62491020FBF77BFF614917
:104820000020FBF777FF7820FCF78EFF35B1022DD3
:1048300009D15D490020FBF76DFF05E05B490020D1
:10484000FBF768FF00E000BF00BF012C0BD1584907
:104850000020FBF75FFF57490420FBF75BFF564939
:104860000420FBF757FF55490020FBF753FF54493D
:104870000020FBF74FFF53490020FBF74BFF524945
:104880000020FBF747FF51490020FBF743FF054994
:104890000020FBF73FFF4E490020FBF73BFF0020C5
:1048A00070BD00001BF80608ECF606081DF80608A7
:1048B000F0F606081FF8060821F8060823F806088F
:1048C00025F8060827F8060829F806082BF8060830
:1048D0002DF806082FF8060831F8060833F8060800
:1048E00035F8060837F8060839F806083BF80608D0
:1048F0003DF806083FF8060815F7060841F80608CF
:1049000043F8060845F8060847F8060849F8060877
:104910004BF806084DF806084FF8060851F8060847
:1049200018F706081BF7060853F8060822F70608CA
:1049300055F8060831F7060857F8060840F7060844
:1049400059F8060875F806084BF706085BF80608DC
:1049500056F7060866F7060876F7060881F7060890
:1049600091F706085DF80608A1F706085FF8060843
:10497000ACF70608B7F70608C2F70608D2F706082C
:10498000E2F70608EDF70608FDF7060877F80608CF
:1049900079F806087BF806080DF80608F3F606080D
:1049A00004F7060861F8060863F8060865F80608C3
:1049B00067F8060811F8060816F8060869F80608E8
:1049C0006BF806086DF806086FF8060871F8060817
:1049D00073F8060810B50023234C236000BF00BF06
:1049E00000BFBFF34F8F00BF00BF00BF231F186879
:1049F000C0F34E3100BFC0F3C90200BF43F6E073FD
:104A000003EA41134FF0404404EA82742343174CF5
:104A1000236000BF00BF131EA2F10102EED10B1EE6
:104A2000A1F10101E7D100BF00BF00BFBFF34F8F6D
:104A300000BF00BF00BF0C4B703B1B6843F48033CA
:104A4000094C703C236000BF00BF00BFBFF34F8F15
:104A500000BF00BF00BF00BF00BF00BFBFF36F8F2C
:104A600000BF00BF00BF10BD84ED00E060EF00E0BC
:104A700010B50248FEF796FE10BD0000646F0320DB
:104A800070B586B005460C46002601940D200290B4
:104A900040200390002004904FF48060059001A90D
:104AA000284600F00EF941F288320D21284600F028
:104AB00023F80646304606B070BD000030B585B01C
:104AC00004460025002000900C2001904020029018
:104AD000002003904FF4806004906946204600F067
:104AE000F0F8044A0C21204600F006F80546284656
:104AF00005B030BD00E1F5052DE9F04105460E4653
:104B0000174664480068C0084FF47A71B0FBF1F0B2
:104B100000FB07F800BFB8F10000A8F1010803D1BD
:104B20004FF00040BDE8F081686B00F045000028C0
:104B3000F1D0686B00F0040010B10420A863F1E725
:104B4000686B00F0010010B10120A863EAE7284675
:104B500000F0A4F8B04201D00120E3E740F2FF509A
:104B6000A8630021284600F09DF804464A482040EA
:104B700008B90020D6E704F00040B0F1004F02D1A0
:104B80004FF00070CEE704F08040B0F1804F01D1CB
:104B90004020C7E704F00050B0F1005F01D1802051
:104BA000C0E704F08050B0F1805F02D14FF4807014
:104BB000B8E704F00060B0F1006F02D14FF400706C
:104BC000B0E704F08060B0F1806F02D14FF48060F4
:104BD000A8E704F08070B0F1807F02D14FF400604C
:104BE000A0E704F40000B0F5000F02D14FF48050AC
:104BF00098E704F48000B0F5800F02D14FF4005024
:104C000090E704F40010B0F5001F02D14FF480408B
:104C100088E704F48010B0F5801F02D14FF4004003
:104C200080E704F48020B0F5802F02D14FF40030EB
:104C300078E704F40030B0F5003F02D14FF4802053
:104C400070E704F48030B0F5803F02D14FF40020CB
:104C500068E704F40040B0F5004F02D14FF4801033
:104C600060E704F48040B0F5804F02D14FF40010AB
:104C700058E704F40050B0F5005F02D14FF4800013
:104C800050E704F00800082801D100054AE74FF476
:104C9000803047E75004022008E0FFFD0146086924
:104CA000C0B2704708B502460020009002F114001F
:104CB000084400900098006808BD0146D1F88000C3
:104CC000704710B50246002308689060D1E90104DE
:104CD0002043CC6820430C6920430343D0686FF322
:104CE0000B001843D060002010BD02460868C2F8CF
:104CF00080000020704770B50646B46BE06B08B1C9
:104D00000020E063206CD8B92046FEF737FD054649
:104D10000020A063012084F83400062D01D0052D69
:104D20000ED12068FFF7CAFEA16B0843A063A06BF9
:104D300018B12046FEF720FD02E02046FEF71DFDDB
:104D400070BD70B50646B46B206C08B100202064BD
:104D5000E06BD8B92046FEF711FD05460020A063A0
:104D6000012084F83400062D01D0052D0ED12068D5
:104D7000FFF7A4FEA16B0843A063A06B18B1204607
:104D8000FEF7FAFC02E02046FEF7F7FC70BD70B5B6
:104D900004460025A66A00BF05E02068FFF78DFFE6
:104DA00046F825006D1C082DF7D3A06A2030A062BC
:104DB000002070BD70B504460D46002615B94FF0B1
:104DC000006070BD5022125B11042068FFF758FE8E
:104DD00006460EB13046F4E700212068FFF762FF77
:104DE00028600020EDE770B504460025266A00BF64
:104DF00005E006EB85012068FFF777FF6D1C082DA5
:104E0000F7D3206A20302062002070BD10B516F064
:104E10006FFA04490968884203D116F085FA0249FD
:104E2000086010BDC8040220D004022010B5FDF7B0
:104E30007FF810BD1448006840F470001249086003
:104E40001248006840F001001049086000200F4936
:104E5000083108600D4800680D4908400B4908609A
:104E60000C48091D0860081F006820F48020091FF5
:104E70000860002005490C3108604FF000600249CD
:104E8000803908607047000088ED00E0003802407B
:104E9000FFFFF6FE1030002430B5014609B90020AE
:104EA00030BD4A888B889A4201D1002406E09A429C
:104EB00001D9D41A02E008889D1A441BA0B2EFE77A
:104EC00030B5034600240BB9002030BD98881D88FA
:104ED000A84201DB0020988013E098885D88A842F2
:104EE00000D113E09D88681C98809868405D01F8A7
:104EF000010B601C84B298881D88A84201DB002049
:104F00009880101EA2F10105AAB2E6D100BF20468A
:104F1000DBE770B5034600240BB9002070BD58884C
:104F20001D88A84201DB002058801BE05D8898881E
:104F3000401E854206D0988828B95D881888401E92
:104F4000854200D113E011F8015B5E88701C588027
:104F500098688555601CC4B258881D88A84201DB3A
:104F600000205880101EA2F10105AAB2DED100BFB8
:104F70002046D3E710B511F00BFF10BD0F480068B5
:104F800020F080700D4A10601046006840F080707C
:104F900010600B48006820F00100094A10601046BC
:104FA000006840F001001060002050601046416829
:104FB00000BF00BF02484068401A7047FCED00E0A7
:104FC000001000E01CB50020022103460246CDE996
:104FD00000100121014800F08FFA1CBD00000240C2
:104FE0001CB5032000210B460122CDE9001042F23E
:104FF0002001044800F080FA034802491831086093
:105000001CBD0000002402400000202030B50246F4
:105010000B460E4CA24207D20D490D4C0834141B0E
:105020001825B4FBF5F006E008490839074C141BB5
:105030001825B4FBF5F0042801D3091D001F03F067
:105040003D04044D2D5CAC400C6030BD106402404A
:1050500008600240F8B601087047704770B5024614
:105060000C460021002300200E4DAA4207D20E4B11
:105070000D4D1035551B1826B5FBF6F106E0094B12
:10508000103B084D551B1826B5FBF6F1042901D33A
:105090001B1D091F1868054D6D5CE84000F03D00C0
:1050A00070BD00001064024000600240F8B60108C4
:1050B000704770B504463D212046FFF7CFFF85B20B
:1050C0003D212046FFF7A2FF05F0200030B1206807
:1050D00000F0100010B1204600F029F805F0100093
:1050E00030B1206800F0080010B12046FFF7E0FF63
:1050F00005F0080030B1206800F0040010B120462F
:1051000000F016F805F0040030B1206800F002004D
:1051100010B12046FFF7A0FF05F0010030B1606933
:1051200000F0800010B12046FFF797FF70BD704778
:10513000704700002DE9FC5F83460C46174614B10A
:10514000601E2040E0B14FF0000914E0012000FA99
:1051500009F0204058B1012000FA09F081B23A4626
:105160005846FFF7E7FF10B10120BDE8FC9F09F1A9
:10517000010000F0FF09B9F1100FE7DB0020F4E7B0
:1051800068480068204020B96648001D006820403B
:1051900008B10120E9E7B4F5807F38D012DC102C8B
:1051A00030D008DC012C25D0022C25D0042C25D0B1
:1051B000082C36D124E0202C26D0402C25D0802C61
:1051C0002FD123E0B4F5805F26D009DCB4F5007F51
:1051D0001ED0B4F5806F1DD0B4F5006F21D11AE058
:1051E000B4F5005F19D0B4F5804F17D0B4F5004F77
:1051F00017D114E0062616E0072614E0082612E070
:10520000092610E00A260EE000BF00BF00BF00BF65
:10521000172608E000BF00BF00BF00BF00BF282660
:1052200001E00120A1E700BF012F01D1B84605E050
:1052300017B94FF0020801E04FF0000800200346C4
:1052400002462146CDE90080584600F055F9204637
:1052500000F0DAF8C5B2584600F0DFF800F0FF0AB7
:105260003148006840F480402F4908602F48A91059
:1052700050F82100A9070A0F0F21914088432B49BC
:10528000AA1041F822000846A91050F82100A907E9
:10529000090F0AFA01F108432449AA1041F8220033
:1052A00020480068A0431F490860081D0068A0430B
:1052B000091D0860081F00682043091F086019487D
:1052C0000C300068A04317490C310860081F0068C3
:1052D000A043091F0860012F05D1081D0068204365
:1052E000091D086014E03FB90E48083000682043EB
:1052F0000C49083108600BE00A480C300068204374
:1053000008490C310860081F00682043091F086025
:105310002A4603213046FDF794F83046FDF784F81D
:10532000002022E7003C0140443802400838014098
:1053300010B50446B4F5005F02D112F049FD04E057
:10534000012C02D101200149086010BD0C0402208B
:1053500010B51648008838B9022000F02FF814491B
:10536000B0FBF1F0114908801248006820F080700D
:10537000104908600846006840F0807008600E48D8
:10538000006820F001000C4908600846006840F001
:1053900001000860002048600846446800BF00BF64
:1053A00005484068001BC0B210BD0000A8000220E4
:1053B00040420F00FCED00E0001000E070B5044634
:1053C0000025062C18D2DFE804F00305130B0F07A5
:1053D0000B4D12E00B4D10E0FDF768FE05460CE0AA
:1053E000FDF76AFE054608E0FDF782FE054604E08B
:1053F000FDF79AFE054600E000BF00BF284670BDDD
:105400000024F40040787D010146002002E0421CA7
:1054100090B249100129FADC704701464FF4003080
:10542000081AC0F38F20704700B502461046FFF7F8
:10543000F4FF012101FA00F002490968084301491B
:10544000086000BD303802402DE9F04304460E46A6
:105450001546DDE907892046FFF7DFFFC7B20022C6
:1054600043E001209040304000B93CE0214830F852
:1054700017000121914008431E4921F81700E068F8
:105480004FEA420C032101FA0CF18843510008FA5B
:1054900001F10843E06020684FEA420C032101FA61
:1054A0000CF18843510005FA01F108432060012DF9
:1054B00001D0022D16D161680120904080B221EA0E
:1054C000000003FA02F189B208436060A0684FEA65
:1054D000420C032101FA0CF18843510009FA01F151
:1054E0000843A06000BF501CC2B2102AB9DBBDE85F
:1054F000F0830000A40502202DE9FC4305460C467C
:1055000016461F46DDE909890CB9BDE8FC8328462B
:10551000FFF78AFF3B46324621462846CDE90089FF
:10552000FFF792FF00BFF0E72DE9FC4705460E4666
:1055300017469846DDE90A9A0EB9BDE8FC87284669
:10554000FFF772FF00241AE00120A040304000B9AC
:1055500014E0E10805F1200050F821006107CA0EAF
:105560000F21914088436107C90E0AFA01F10843EF
:10557000E20805F1200141F8220000BF641C102C54
:10558000E2D33B46022231462846CDE90089FFF7A7
:105590005BFF00BFD1E700001CB504464CB90420F6
:1055A00001210B460A46CDE90010C0211148FFF742
:1055B000BBFF012C0AD1042001210B460A46CDE98C
:1055C00000104FF440710B48FFF7AEFF022C0AD1D8
:1055D000042001210B460A46CDE900104FF410715A
:1055E0000448FFF7A1FF052C03D10421024800F075
:1055F00087F91CBD00040240005400401CB504465D
:1056000054B9042001210B460A46CDE900104FF49D
:1056100040611148FFF788FF012C09D104200121C6
:105620000B460A46CDE9001003210C48FFF77CFF2A
:10563000022C09D1042001210B460A46CDE90010B5
:1056400030210748FFF770FF052C03D104210548DE
:1056500000F056F91CBD0000000402400014024096
:10566000001C0240005800401CB504469CB90420B0
:1056700001210B460A46CDE9001081011048FFF7D1
:1056800053FF042001210B460A46CDE90010C10159
:105690000C48FFF749FF012C0AD1042001210B46D9
:1056A0000A46CDE900104FF4C0710748FFF73CFFF0
:1056B000052C03D10421054800F022F91CBD00008F
:1056C0000000024000080240001C0240005C004054
:1056D0001CB5044654B9042001210B460A46CDE905
:1056E00000104FF440512248FFF71EFF012C09D152
:1056F000042001210B460A46CDE9001003211D4874
:10570000FFF712FF022C0AD1042001210B460A46A2
:10571000CDE900104FF440411648FFF705FF032C78
:1057200009D1042001210B460A46CDE90010E1020F
:105730001148FFF7F9FE042C13D10B2001210B4671
:105740000A46CDE9001080210C48FFF7EDFE042049
:1057500001210B460A46CDE9001081020448FFF7FB
:10576000E3FE052C03D10421054800F0C9F81CBD57
:10577000000C024000140240001C024000040240E1
:10578000005C004010B50A460D4B9A4201D30D490A
:105790000AE00D4B9A4201D30A4905E00B4B9A42AD
:1057A00001D3084900E007490024446184600124D2
:1057B000C46000240461C4610462416010BD000043
:1057C00040E133003227914040420F00801A06002A
:1057D00001460B48814201D10A4870470A4881427C
:1057E00001D10A48F9E70A48814201D10948F4E7A2
:1057F0000948814201D10948EFE70020EDE70000A8
:1058000000540040AC00022000580040F800022084
:10581000005C004044010220006000409001022032
:10582000F8B504460D4616462046FFF7D1FF074659
:105830003C602E48844210D100BF2D48006840F4DF
:1058400000102B4908600846006800F40010009022
:1058500000BF00BF2846FFF79FFE2648844210D1B4
:1058600000BF2348006840F48000214908600846D2
:10587000006800F48000009000BF00BF2846FFF7DA
:10588000BDFE1D48844210D100BF1948006840F495
:105890000000174908600846006800F40000009006
:1058A00000BF00BF2846FFF7DFFE1448844210D136
:1058B00000BF0F48006840F080700D49086008463E
:1058C000006800F08070009000BF00BF2846FFF71E
:1058D000FFFE31463846FFF755FF3846FCF7A0F883
:1058E00000213846FCF764F80020F8BD0054004061
:1058F0004038024000580040005C0040006000401A
:10590000704770B504460D462046FFF761FF064616
:105910000523022229463046FCF7E4F808B10120AD
:1059200070BD0020FCE7FFB581B005460E461C4661
:105930002846FFF74DFF07464FF47A70012303AA6C
:10594000314600903846FCF737FA28B13846FCF764
:1059500064F8012005B0F0BD4FF47A7001232246AF
:10596000314600903846FCF769F920B13846FCF71B
:1059700054F80120EEE70020ECE72DE9FF4182B06A
:1059800005460E461C460C9F2846FFF721FF804621
:105990004FF47A70012304AA314600904046FCF788
:1059A0000BFA30B14046FCF738F8012006B0BDE8EC
:1059B000F0814FF47A703B462246314600904046D3
:1059C000FCF73CF920B14046FCF727F80120EDE751
:1059D0000020EBE72DE9FC4106460F4614461D4624
:1059E0003046FFF7F5FE80468DF804408DF80550EF
:1059F0004FF47A70022301AA394600904046FCF722
:105A0000DBF928B14046FCF708F80120BDE8FC812D
:105A10000020FBE700B593B000BF00BF00BF00BF90
:105A200000BFBFF34F8F00BF00BF00BF00BF00BF6C
:105A300000BFBFF36F8F00BF00BF00BF0020384919
:105A400008603848006840F400303649086000BFFC
:105A500000BF00BFBFF34F8F00BF00BF00BF00BF3C
:105A600000BF00BFBFF36F8F00BF00BF00BF00BF0C
:105A7000FEF7B0FF00BF2C48006840F080502A4974
:105A800008600846006800F08050009000BF00BF2A
:105A900000BF2648006840F440402449086008469A
:105AA000006800F44040009000BF00BF012001905A
:105AB00000040290002004904FF48001089102201D
:105AC00007901921099109010A9102210B910721DF
:105AD0000C9106210D9101A8FDF780FB10B101206A
