:020000040800F2
:1000000058240320C9020008FFB8000807AE000802
:10001000FBB80008ED0500085DDF000800000000E7
:100020000000000000000000000000000D020008B9
:1000300055080008000000006102000855BE0008D5
:10004000E3020008E3020008E3020008E3020008FC
:10005000E3020008E302000859080008010900084B
:100060001D09000839090008550900088D06000817
:100070009D060008AD060008BD060008CD06000874
:10008000DD060008ED060008E3020008E3020008B0
:10009000E3020008E3020008E30200087109000817
:1000A000E3020008E3020008E3020008E30200089C
:1000B000E3020008E3020008E3020008E30200088C
:1000C000E3020008E3020008E3020008E30200087C
:1000D000E3020008A1DE0008CDDE0008FDDE000816
:1000E00075080008E3020008E3020008E3020008C4
:1000F000E3020008E3020008E3020008FD0600082E
:10010000E3020008E3020008E3020008E30200083B
:10011000BDD80008EDD80008E3020008E30200089B
:100120008D0700089D070008AD070008BD070008FF
:10013000CD070008E3020008E3020008E30200081C
:10014000E3020008E3020008E3020008E3020008FB
:10015000DD070008ED070008FD0700082DDF000897
:10016000E3020008E3020008E3020008E3020008DB
:10017000E3020008E3020008E302000800000000B8
:10018000E3020008E302000811D9000841D9000881
:10019000E3020008E3020008E3020008E3020008AB
:1001A000D9B60008E30200080D070008E3020008C2
:1001B000E3020008E3020008E3020008E30200088B
:1001C000E3020008E3020008E3020008E30200087B
:1001D000E3020008E3020008E3020008E30200086B
:1001E000E3020008E3020008E3020008E30200085B
:1001F000E3020008E3020008DFF80CD000F0F6F894
:1002000000480047F1290108582403202B4B1968A6
:100210000868B0E8F04F80F30988BFF36F8F4FF0A4
:10022000000080F311887047000000000648006855
:10023000006880F3088862B661B6BFF34F8FBFF3E2
:100240006F8F00DF00BF00BF08ED00E0DFF80C009B
:10025000016841F470010160704700BF88ED00E063
:10026000EFF30980BFF36F8F144B1A681EF0100F65
:1002700008BF20ED108A20E9F04F106008B44FF05D
:10028000500080F31188BFF34F8FBFF36F8F12F0D0
:10029000B1FE4FF0000080F3118808BC19680868AF
:1002A000B0E8F04F1EF0100F08BFB0EC108A80F3DA
:1002B0000988BFF36F8F704700BF00BF480302205B
:1002C000EFF3058070470000064880470648004766
:1002D000FEE7FEE7FEE7FEE7FEE7FEE7FEE7FEE7F6
:1002E000FEE7FEE75DBE0008F901000840EA0103F1
:1002F0009B0703D009E008C9121F08C0042AFAD2DC
:1003000003E011F8013B00F8013B521EF9D270479F
:10031000D2B201E000F8012B491EFBD27047002247
:10032000F6E710B513460A4604461946FFF7F0FFF4
:10033000204610BD10B5044604E00B7800F8013BE0
:1003400003B1491C521EF8D2204610BD421C10F8C1
:10035000011B0029FBD1801A704710B5002200E074
:10036000521C835C8C5CA34201D1002BF8D1D8B223
:10037000E1B2401A10BD034611F8012B00F8012B21
:10038000002AF9D1184670472DE9F05F0546002094
:1003900092469B4688460646814640241BE02846F6
:1003A00041464746224600F042F853465A46C01A94
:1003B000914110D311461846224600F029F82D1A13
:1003C00067EB01084F4622460120002100F020F88B
:1003D00017EB00094E41201EA4F10104DFDC484662
:1003E00031462A464346BDE8F09F0000064C074DC3
:1003F00006E0E06840F0010394E8070098471034F5
:10040000AC42F6D3FFF7FCFEE03E0308003F0308D2
:10041000202A04DB203A00FA02F1002070479140C4
:10042000C2F1200320FA03F3194390407047202AB9
:1004300004DB203A21FA02F00021704721FA02F38E
:10044000D040C2F12002914008431946704770B570
:100450008C1810F8015B15F0070301D110F8013B6F
:100460002A1106D110F8012B03E010F8016B01F8F6
:10047000016B5B1EF9D12B0705D40023521E0DD44E
:1004800001F8013BFAE710F8013BCB1A921C03E09C
:1004900013F8015B01F8015B521EF9D5A142D8D3D4
:1004A000002070BD08B500BF3548006840F080608E
:1004B000334908600846006800F08060009000BF83
:1004C00000BF2F482038006840F080602C49203958
:1004D00008600846006820F08060086000BF284877
:1004E0001438006840F400002549143908600846B3
:1004F000006800F40000009000BF00BF20483438BE
:10050000006840F400001E4934390860084600685D
:1005100020F40000086000BF1948006840F0006047
:10052000174908600846006800F00060009000BFAE
:1005300000BF13482038006840F00060104920399F
:1005400008600846006820F00060086000220F2163
:10055000582009F066FA582009F056FA00220F21B7
:100560005A2009F05EFA5A2009F04EFA00220F21B3
:10057000622009F056FA622009F046FA08BD000030
:100580004438024000B587B000BF1648006840F408
:100590000070144908600846006800F4007001907B
:1005A00000BF00BF4FF40040029001200390049070
:1005B0000320059002A90C4808F0D2FB00224FF45A
:1005C0000041094808F0D8FC142008F0ADFB0122D6
:1005D000D103054808F0D0FC0A2008F0A5FB07B0BD
:1005E00000BD0000303802400024024000BFFEE79A
:1005F0002DE9F04320222023234E4FF48078B8FBCE
:10060000F2F7B8FBF3FC00213AE00FFA81F80FFA99
:1006100083F9B8EB090806D50FFA83F80FFA81F9C8
:10062000A8EB090805E00FFA81F80FFA83F9A8EBA7
:10063000090808FB0CF500201FE00FFA80F80FFAFC
:1006400082F9B8EB090806D50FFA82F80FFA80F99B
:10065000A8EB090805E00FFA80F80FFA82F9A8EB79
:1006600009084FEA880808FB07F404FB05F84FEA7D
:10067000182886F80080761C401C4028DDD3491CD1
:100680004029C2D3BDE8F0834206022010B50248DB
:100690000BF025FD10BD00001060024010B50248AF
:1006A0000BF01DFD10BD00002860024010B502488F
:1006B0000BF015FD10BD00004060024010B502486F
:1006C0000BF00DFD10BD00005860024010B502484F
:1006D0000BF005FD10BD00007060024010B502482F
:1006E0000BF0FDFC10BD00008860024010B5024810
:1006F0000BF0F5FC10BD0000A060024010B50248F0
:100700000BF0EDFC10BD0000B860024010B50248CF
:1007100007F0EAFD10BD0000081A02201649C9685A
:10072000486800BF1549096801F001010029F9D1A5
:100730004FF40031114A11601149D16011464861EE
:10074000C863002111610C49B1F90410803991612D
:100750000C4911620849B1F90410803911640A2169
:10076000D161022151625163074951641146096800
:1007700041F0010111607047E418022000B002400E
:10078000420602200000FF804000800010B50248B1
:100790000BF0A5FC10BD00001064024010B502482B
:1007A0000BF09DFC10BD00002864024010B502480B
:1007B0000BF095FC10BD00004064024010B50248EB
:1007C0000BF08DFC10BD00005864024010B50248CB
:1007D0000BF085FC10BD00007064024010B50248AB
:1007E0000BF07DFC10BD00008864024010B502488B
:1007F0000BF075FC10BD0000A064024010B502486B
:100800000BF06DFC10BD0000B864024030B5039CD5
:1008100042EA811545EA032545EA0445C56630BD2F
:100820007CB505460C46012D08D8607800902378E9
:1008300015220021064808F020FA08E0605D2B46EA
:1008400039220021CDE90004014808F0B5F97CBD4A
:10085000541702207047000010B50548006800F0EA
:10086000010020B10120024908600BF077FD10BDA6
:10087000143C014010B52148006800F4806028B1A4
:100880004FF480601D4908600BF068FD1B4800684C
:1008900000F4006028B14FF40060184908600BF0C4
:1008A0005DFD1648006800F4805028B14FF4805078
:1008B000124908600BF052FD1048006800F4005027
:1008C00028B14FF400500D4908600BF047FD0B486C
:1008D000006800F4804028B14FF480400749086068
:1008E0000BF03CFD0548006800F4004028B14FF4CF
:1008F0000040024908600BF031FD10BD143C01407E
:1009000010B50548006800F0020020B1022002493D
:1009100008600BF023FD10BD143C014010B50548E4
:10092000006800F0040020B10420024908600BF0C8
:1009300015FD10BD143C014010B50548006800F0DD
:10094000080020B10820024908600BF007FD10BD27
:10095000143C014010B50548006800F0100020B1BB
:100960001020024908600BF0F9FC10BD143C014056
:1009700010B51A48006800F0200020B12020174967
:1009800008600BF0EBFC1548006800F0400020B157
:100990004020124908600BF0E1FC1048006800F0AC
:1009A000800020B180200D4908600BF0D7FC0B4877
:1009B000006800F4807028B14FF480700749086027
:1009C0000BF0CCFC0548006800F4007028B14FF42F
:1009D0000070024908600BF0C1FC10BD143C0140DE
:1009E00030B50246002300240868012816D0136899
:1009F0006FF30E03D1E901052843CD6828430D6943
:100A000028434D6928438D692843CD6928430D6AE1
:100A100028434D6A28430343136019E0136823F405
:100A2000F843D1E9070528434D6A28430343546836
:100A30006FF30E04D1E901052843CD6828430D6901
:100A400028434D6928438D6928430443136054604B
:100A5000002030BD0246506940EA4100506100204C
:100A60007047F8B506460C46154600200090002752
:100A7000D4E900010843A168491E40EA4110E16839
:100A800040EA412000900098306108F07BFA074668
:100A900009E0681C38B125B108F074FAC01BA842FF
:100AA00001D90320F8BDB06900F020000028F0D182
:100AB00000BFF7E770B50346154600220024012D5C
:100AC0001FD09A6802F070420868401E4E68761E79
:100AD00040EA06168868401E46EA0026C868401E9E
:100AE00046EA0036088A401E46EA0046888A401ECA
:100AF00046EA0056087E401E46EA006002439A60BD
:100B000022E09A6811480240C868401E0603888A9D
:100B1000401E46EA00500243DC6804F07044086856
:100B2000401E4E68761E40EA06168868401E46EA59
:100B30000026088A401E46EA0046087E401E46EA15
:100B4000006004439A60DC60002070BDFF0F0FFF5F
:100B500001B500BF0098411E00910028FAD108BDE0
:100B600030B50146002409B9002030BD4A688B68C1
:100B70009A4201D10C6806E0934201D99C1A02E026
:100B8000D51A0868441B601EEFE730B5014609B965
:100B9000002030BD4A688B689A4201D1002406E0EB
:100BA0009A4201D9D41A02E09D1A0868441B2046D3
:100BB000EFE770B504460D4616460CB9012070BD2E
:100BC00018212046FFF7ABFB2560E6600A20607421
:100BD000E06868B9284612F035F8E060E06818B9B6
:100BE000002020600120EAE7207C40F00200207411
:100BF000207C40F0010020740020E0E72DE9F04760
:100C00000446894615464FF00008CA4604B115B996
:100C10000020BDE8F0872168A068884201D3002049
:100C2000A0602046FFF7B1FF0746AF4203D20FB9DD
:100C30000020EEE73D46A1682068461AAE4200D982
:100C40002E46D4E90220811832465046FFF74EFB6B
:100C5000B044A0683044A060AD1B35B10AEB080079
:100C60002A46E168FFF742FBA5602168A068884238
:100C700001D30020A06008EB0500CAE72DE9F0478A
:100C80000446894615464FF00008CA4604B115B916
:100C90000020BDE8F087D4E90010884201D300208D
:100CA00060602046FFF75CFF0746AF4203D20FB9F2
:100CB0000020EEE73D46D4E90001461AAE4200D9D5
:100CC0002E466268E168881832465146FFF70EFBEF
:100CD000B044606830446060AD1B35B10AEB080178
:100CE0002A46E068FFF702FB6560D4E900108842FD
:100CF00001D30020606008EB0500CAE72DE9F04F42
:100D00008BB004468A4616469B4600BF1CB18F49ED
:100D10002069884208D049228DA197A00DF0ACFA35
:100D200000200BB0BDE8F08F00BFBAF1040F09D06E
:100D3000BAF1090F73D0BAF10A0F71D0BAF1110FDD
:100D40006FD1DEE00A9620460EF0F7FE07462046F9
:100D50000EF018FF804620460FF066F881462046C8
:100D60000EF036FF054694F8300000F08000F0B138
:100D7000A06C10B1A06C006808E02069006918B18F
:100D800020690069006801E04FF07F400990A06C85
:100D900010B1A06C406808E02069006918B12069B2
:100DA0000069406801E04FF07F40089044E094F80B
:100DB000300000F00800F0B1A06C10B1A06C4068E9
:100DC00008E02069006918B120690069406801E005
:100DD0004FF07F400990A06C10B1A06C006808E053
:100DE0002069006918B120690069006801E04FF0CE
:100DF0007F40089020E0A06C10B1A06C406808E033
:100E00002069006918B120690069406801E04FF06D
:100E10007F400890A06C28B1A06C00680BE08CE0CB
:100E20008CE090E02069006918B1206900690068D1
:100E300001E04FF07F40099094F8300000F080000E
:100E4000E0B1291F09B20998CDE90010A9F1040009
:100E500003B208F1020002B2B81C01B20A9800F015
:100E600030FE94F83000C0F3C0004B46424639468D
:100E7000CDE900500A9801F00DF817E0B4F95210CE
:100E800009984B464246CDE90051029039460A98EE
:100E900000F029FEB4F9521008984B464246CDE9BD
:100EA0000051029039460A9801F048F820460FF0A8
:100EB0000BF920B301A800F0C1FC781C00B2ADF81A
:100EC000040008F1010000B2ADF80600A9F102002B
:100ED00000B2ADF80800A81E00B2ADF80A0012205A
:100EE0008DF80C00BDF80800ADF8120008980590C8
:100EF00001ABD4E90D120A9801F0C4F900BF01203A
:100F00000FE7354628780D2802D028780A2812D114
:100F1000606930B100231A460E2120466769B84740
:100F200006E0206900231A460E21C7682046B8470C
:100F300000208BF800000120F3E600BF20460FF0F0
:100F400015F80120EDE60020EBE60000384101082D
:100F50002E2E5C30302D4755495F4C49425241524C
:100F6000595C776964676574735C6775695F6275FE
:100F700074746F6E2E630000417373657274207019
:100F80006172616D206661696C656420696E2066BE
:100F9000696C6520257320616E64206C696E652024
:100FA00025640D0A000000002DE9F04F85B00446CD
:100FB0000D4616461F46DDE90FABDDF83890119857
:100FC00033462A4621468DE8800E049006480EF0EE
:100FD000ABFB8046B8F1000F02D040460EF0B0FCEB
:100FE000404605B0BDE8F08F384101082DE9F04FCB
:100FF0008DB00446894692469846B9F1040F06D052
:10100000B9F10B0F7ED0B9F10E0F7CD178E1CDF89C
:1010100030A020460EF091FD0A9020460EF0B2FD61
:10102000834620460EF000FF099020460EF0D0FDCA
:10103000089014250A9E0899481B00EBD0710BEB11
:1010400061010FB294F8500000F0020078B1A06C7A
:1010500010B1A06CC06808E02069006918B120696F
:101060000069C06801E04FF07F400B900EE0A06C7B
:1010700010B1A06C006808E02069006918B120690F
:101080000069006801E04FF07F400B90A91E09B293
:101090000B98CDE90010A81E03B2781C02B2701C98
:1010A00001B20C9800F00DFD01202B463A46314666
:1010B000CDE900500C9800F0EDFE94F8300000F0FF
:1010C0001000D0B1A06C10B1A06C406808E020699D
:1010D000006918B120690069406801E04FF07F4065
:1010E000291F09B2CDE90010281F03B2B81C02B2B3
:1010F000B01C01B20C9800F09EFE94F8500000F075
:10110000010001E0EEE006E1002878D0A06C10B10B
:10111000A06C406808E02069006918B12069006986
:10112000406801E04FF07F407919491F09B2CDE9CD
:1011300000107019801F03B2781D02B2301D01B279
:101140000C9800F0CDFDA06C10B1A06C406808E0D8
:101150002069006918B120690069406801E04FF01A
:101160007F407919491F09B2CDE900107019401F5D
:1011700003B2381D02B2301D01B20C9800F0B0FD70
:10118000A06C10B1A06C406808E02069006918B13B
:1011900020690069406801E04FF07F407919891F9C
:1011A00009B2CDE900107019401F03B2381D02B218
:1011B000701D01B20C9800F093FDA06C10B1A06CF2
:1011C000406808E02069006918B12069006940683A
:1011D00001E04FF07F40391D09B2CDE900107019D0
:1011E000801F03B27819801F02B2301D01B20C9823
:1011F00000F076FDA06C18B1A06C406809E034E006
:101200002069006918B120690069406801E04FF069
:101210007F40391D09B2CDE900107019401F03B29B
:101220007819401F02B2301D01B20C9800F058FD31
:10123000A06C10B1A06C406808E02069006918B18A
:1012400020690069406801E04FF07F40791D09B2D4
:10125000CDE900107019401F03B27819401F02B287
:10126000701D01B20C9800F03BFD20460EF02CFFE3
:10127000A0B301A800F0E2FA7019401D00B2ADF869
:1012800004000BF1010000B2ADF806000998401B04
:10129000401F00B2ADF808000898801E00B2ADF8FB
:1012A0000A0011208DF80C00BDF80800ADF81200FE
:1012B000A06C10B1A06C006908E02069006918B149
:1012C00020690069006901E04FF07F40059001ABA3
:1012D000D4E90D120C9800F0D5FF00BF01200DB02D
:1012E000BDE8F08F94F8500000F0020018B1012022
:1012F00088F8000002E0002088F800000120EEE7F6
:1013000094F8500000F0010080F0010120460FF039
:101310004DFE0120E3E70020E1E700002DE9F04F5A
:1013200087B004460D4616461F46DDE912ABDDE9DF
:10133000108933462A46214604488DE8800F0EF076
:10134000F3F90690069807B0BDE8F08FD441010884
:1013500070B5044600BF1CB108492069884206D018
:10136000E62207A111A00CF087FF002070BD00BF8E
:1013700094F8500000F001052846F7E7D441010831
:101380002E2E5C30302D4755495F4C494252415218
:10139000595C776964676574735C6775695F6368D6
:1013A00065636B626F782E630000000041737365A4
:1013B000727420706172616D206661696C65642071
:1013C000696E2066696C6520257320616E64206CEF
:1013D000696E652025640D0A0000000070B50446A2
:1013E0000D4600BF1CB109492069884206D0DA22A7
:1013F00007A112A00CF040FF002070BD00BF2946DD
:1014000020460FF0D3FD06463046F6E7D4410108EA
:101410002E2E5C30302D4755495F4C494252415287
:10142000595C776964676574735C6775695F636845
:1014300065636B626F782E63000000004173736513
:10144000727420706172616D206661696C656420E0
:10145000696E2066696C6520257320616E64206C5E
:10146000696E652025640D0A000000002DE9F04139
:1014700004460D46164600BF1CB10A492069884241
:1014800007D0CE2208A113A00CF0F6FE0020BDE884
:10149000F08100BF3246294620460EF087FF0746FE
:1014A0003846F4E7D44101082E2E5C30302D4755E4
:1014B000495F4C4942524152595C7769646765748F
:1014C000735C6775695F636865636B626F782E63D1
:1014D0000000000041737365727420706172616D69
:1014E000206661696C656420696E2066696C6520A0
:1014F000257320616E64206C696E652025640D0A79
:10150000000000002DE9F04104460D4616461F4636
:1015100000BF1CB107492069884207D04A2206A1B2
:101520000FA00CF0A9FE0020BDE8F08100BF00BFB5
:101530000020F9E7944201082E2E5C30302D4755EB
:10154000495F4C4942524152595C776964676574FE
:10155000735C6775695F6469616C6F672E63000017
:1015600041737365727420706172616D2066616988
:101570006C656420696E2066696C65202573206146
:101580006E64206C696E652025640D0A0000000001
:101590002DE9F04F87B004460D4616461F46DDE99B
:1015A00012ABDDE910894BF0010033462A46214693
:1015B0008DE88007049008480EF0B6F8069002E027
:1015C00020460DF0EDFA20460DF012FB0028F7D171
:1015D000069807B0BDE8F08F944201082DE9F34169
:1015E0000446002600BF1CB118492069884207D074
:1015F0009C2217A120A00CF03FFE0020BDE8FC813A
:1016000000BF012110200DF011FE0546DDB1A068DC
:10161000A8600198E860294623480DF0CFFB606977
:1016200030B1002301AA162120466769B84706E0B9
:101630002069002301AA1621C7682046B847204622
:101640000EF056FE01263046D8E70000944201080D
:101650002E2E5C30302D4755495F4C494252415245
:10166000595C776964676574735C6775695F646901
:10167000616C6F672E630000417373657274207034
:101680006172616D206661696C656420696E2066B7
:10169000696C6520257320616E64206C696E65201D
:1016A00025640D0A00000000C80302202DE9FC415A
:1016B00007460D4616469846089C0120434632468A
:1016C0002946CDE90004384600F021F80220CDE992
:1016D0000004681E01B243463246384600F017F84F
:1016E0000820CDE90004701E02B243462946384660
:1016F00000F00DF80420CDE90004701E02B2681E4F
:1017000001B24346384600F002F8BDE8FC812DE9FD
:10171000FC5F81460C4615469846DDF830A0C8F1BE
:1017200001000FFA80FB012001904FEA480040427F
:1017300000B2009000274646A4EB0800B9F9041057
:10174000884211DCA5EB0800B9F9061088420BDCD1
:10175000B9F9000004EB0801884205DCB9F9020080
:1017600005EB0801884201DDBDE8FC9F62E0BBF1AA
:10177000000F09DB701E06B20098801C00B20090BA
:10178000009858440FFA80FB781C07B20198801C1F
:1017900000B20190019858440FFA80FB0AF0010052
:1017A00078B1E81B02B2A01B01B248460D9B00F0C5
:1017B000F9FCA81B02B2E01B01B248460D9B00F0E9
:1017C000F1FC0AF0020078B1A81B02B2E01901B2E4
:1017D00048460D9B00F0E6FCE81B02B2A01901B2DE
:1017E00048460D9B00F0DEFC0AF0040078B1A81911
:1017F00002B2E01901B248460D9B00F0D3FCE81993
:1018000002B2A01901B248460D9B00F0CBFC0AF0D1
:10181000080078B1A81902B2E01B01B248460D9B3E
:1018200000F0C0FCE81902B2A01B01B248460D9BB3
:1018300000F0B8FCB7429ADB00BF95E710B504464C
:101840001C212046FEF76BFD10BD00002DE9FE4374
:1018500004460D4616461F46DDE90A89B4F9040020
:10186000A8420EDBB4F90600B0420ADBB4F900006E
:10187000E919884205DCB4F9020006EB0801884248
:1018800001DDBDE8FE83002F02DDB8F1000F00DCB2
:10189000F7E7B4F90000A84205DD2088401B381A9C
:1018A00007B2B4F90050B4F90200B04207DD608815
:1018B000801BA8EB00000FFA80F8B4F90260E81969
:1018C000B4F90410884202DDA088401B07B206EB81
:1018D0000800B4F90610884203DDE088801B0FFA87
:1018E00080F8002F14DDB8F1000F11DD09488DE8F4
:1018F00080030069008B301A03B206480069C08A71
:10190000281A02B203480169D0F844C0001DE0471C
:1019100000BFB6E7E41802202DE9FC4106460F4659
:1019200015469846089C012043462A463946CDE98B
:101930000004304600F01FF8022043462A4639468C
:10194000CDE90004304600F016F80820CDE9000487
:10195000681E02B243463946304600F00CF80420B7
:10196000CDE90004681E02B243463946304600F015
:1019700002F8BDE8FC812DE9FF5F824689461446E6
:101980001F46DDE90EB8C7F1010000B20390012047
:1019900002907800404200B2019000263D46BAF91C
:1019A000000009EB070188420FDCBAF90200E119D7
:1019B00088420ADCA9EB0700BAF90410884204DC6B
:1019C000E01BBAF90610884201DDBDE8FF9F74E014
:1019D000039800280ADB681E05B20198801C00B23B
:1019E000019001990398084400B20390701C06B25C
:1019F0000298801C00B20290DDE90210084400B297
:101A000003900BF00100A8B1601B02B2A9EB060025
:101A100001B233465046CDF8008000F01DF9A01BFE
:101A200002B2A9EB050001B22B465046CDF800806A
:101A300000F012F90BF0020088B1601B02B23346CD
:101A400049465046CDF8008000F006F9A01B02B2CE
:101A50002B4649465046CDF8008000F0FDF80BF0CB
:101A60000800A8B1A01902B2A9EB050001B22B46EB
:101A70005046CDF8008000F0EFF8601902B2A9EBF3
:101A8000060001B233465046CDF8008000F0E4F87D
:101A90000BF0040088B1A01902B22B46494650460B
:101AA000CDF8008000F0D8F8601902B233464946FC
:101AB0005046CDF8008000F0CFF8AE4288DB00BF82
:101AC00083E72DE9FC4704460D4616461F46DDE92F
:101AD0000A893B46324629462046CDE90089FFF770
:101AE000B5FEBDE8FC872DE9FC4782468846914655
:101AF0001E46DDE90B470A9D05EBD571B4EB610F7E
:101B000005DB284605EBD0714910491E0CB206EBE7
:101B1000D671B4EB610F05DB304606EBD07149108E
:101B2000491E0CB2002C75D0022000FB146000B2DC
:101B300000280CDD022000FB146003B208EB040057
:101B400001B24A465046CDE90057FFF7BAFF0220DE
:101B500000FB145000B200281EDD022000FB1450D0
:101B600000B2CDE9000709EB040002B2234641466A
:101B70005046FFF7A6FF022000FB145000B2CDE94B
:101B8000000709EB040002B208EB0600001B01B2DB
:101B900023465046FFF795FF0120CDE9000709EBEA
:101BA000040002B208EB040001B223465046FFF7DE
:101BB000E2FE0220CDE9000709EB040002B208EBC7
:101BC0000600001B401E01B223465046FFF7D3FE1D
:101BD0000820CDE9000709EB0500001B401E02B2FA
:101BE00008EB040001B223465046FFF7C4FE042070
:101BF000CDE9000709EB0500001B401E02B208EB0F
:101C00000600001B401E01B223465046FFF7B3FEFC
:101C100008E0FFE733464A4641465046CDE90057C3
:101C2000FFF74FFFBDE8FC872DE9F04107460C4662
:101C3000154608480069008B281A03B20548006958
:101C4000C08A201A02B203480169C66A001DB04763
:101C5000BDE8F081E41802202DE9FC4104460D4660
:101C600017461E46DDF82080B4F90600B8420CDDA8
:101C7000B4F90200B84208DCB4F90400A84204DB5D
:101C8000A819B4F90010884201DABDE8FC81B4F962
:101C90000000A84205DD2088401B301A06B2B4F9C6
:101CA0000050A819B4F90410884202DDA088401B36
:101CB00006B20A48CDE900680069008B381A03B201
:101CC00006480069C08A281A02B204480169D0F89F
:101CD0003CC0001DE04700BFD7E70000E418022029
:101CE0002DE9FF4F8BB00F4690469946DDF860A076
:101CF00000240025A34600200A9009900890079030
:101D0000069000260590049003900290B9EB07001E
:101D100002D4A9EB070001E0A7EB090004B2BAEB7B
:101D2000080002D4AAEB080001E0A8EB0A0005B203
:101D30007CB919980090D04501DA404600E0504641
:101D400002462B4639460B9800F058FA0FB0BDE812
:101D5000F08F6DB9199800904F4501DA384600E0D0
:101D600048460146234642460B98FFF775FFEDE7CC
:101D7000BB46CDF82880B94503DB012009900890C7
:101D800003E04FF0FF3009900890C24503DB0120CB
:101D90000790069003E04FF0FF3007900690AC42AA
:101DA0000CDB0020099006902646204604EBD071FB
:101DB000491009B20591049503940BE000200890A6
:101DC00007902E46284605EBD071491009B20591BF
:101DD000049403950020029027E05946199BDDE901
:101DE0000A2000F0DFF9DDE90410084400B2059094
:101DF0000598B0420CDB0598801B00B2059009984D
:101E000058440FFA80FB07990A98084400B20A90D8
:101E1000089858440FFA80FB06990A98084400B2C3
:101E20000A900298401C00B20290DDE9020188424B
:101E3000D3DD00BF8AE72DE9F84381460F4690467F
:101E40001D46DDE9086405B10EB9BDE8F8832B46EF
:101E50004246394648460094FFF7FEFE3346424666
:101E600039464846009400F0C9F908EB0600401EC8
:101E700002B22B46394648460094FFF7EDFE78192A
:101E8000401E01B2334642464846009400F0B6F97F
:101E900000BFDAE72DE9FF4F83B00C4615461E461A
:101EA000DDE9107A4FF07F4BBAF1000F04D1DFF873
:101EB00084804FEAF87903E0DFF87C80DFF87490E3
:101EC00033462A462146CDE9007B0398FFF7B3FF4E
:101ED000B01E03B2681C02B2601C01B2CDF80080D3
:101EE0000398FFF7B9FEF81E03B2681C02B2601C2B
:101EF00001B2CDF80080039800F080F9B01E03B263
:101F0000E819801E02B2601C01B2CDF8009003985F
:101F1000FFF7A2FE381F03B2A019801E01B2A81C51
:101F200002B2CDF80090039800F068F907B0BDE860
:101F3000F08F0000AAAAAAFF555555FF2DE9FC47CE
:101F40008246884691461D46DDE90B470A9E06EB10
:101F5000D671B4EB610F05DB304606EBD07149104A
:101F6000491E0CB205EBD571B4EB610F05DB2846B9
:101F700005EBD0714910491E0CB2002C73D0022021
:101F800000FB145003B208EB040001B24A4650466D
:101F90000097FFF761FE022000FB146003B209EB1B
:101FA000040002B208EB0500401E01B25046009743
:101FB00000F024F9022000FB145003B209EB0600E4
:101FC000401E02B208EB040001B250460097FFF732
:101FD00043FE022000FB146003B209EB040002B2CE
:101FE00041465046009700F009F90120CDE900076D
:101FF00009EB040002B208EB040001B2234650468C
:10200000FFF785FB0220CDE9000709EB040002B2CF
:1020100008EB0500001B401E01B223465046FFF7A7
:1020200076FB0820CDE9000709EB0600001B401EE7
:1020300002B208EB040001B223465046FFF767FBEB
:102040000420CDE9000709EB0600001B401E02B288
:1020500008EB0500001B401E01B223465046FFF767
:1020600056FB08E0FFE72B464A4641465046CDE97D
:102070000067FFF7E0FEBDE8FC8700002DE9FC47A4
:1020800081460C464FF0000AB4F90480B4F904000C
:102090004000032190FBF1F005B20020CDE9005093
:1020A000B4F90220B4F9001043464846FFF7F2FEA7
:1020B0003749281F00B2CDE90001A8F1040003B29E
:1020C0006088801C02B22088801C01B24846FFF75D
:1020D000F8FC0020CDE900506088E3881844401BDC
:1020E00002B2B4F9001043464846FFF7D3FE284930
:1020F000281F00B2CDE900016088B4F806C0604432
:10210000401B801C02B2A8F1040003B22088801C8E
:1021100001B24846FFF7D5FCB4F90600022101FBE5
:10212000150007B21A48CDE90070B4F90430608890
:10213000284402B2B4F900104846FFF7C2FCD4E9C3
:102140000310884213D220697843E168B0FBF1F0B4
:1021500006B2062E00DA0626B81B61694843D4E9A8
:102160000312891AB0FBF1F00FFA80FA00E03E4644
:102170000020CDE90060B4F9043060882844504460
:1021800002B2B4F900104846FFF784FEBDE8FC87B0
:10219000848484FF10B5044618212046FEF7BFF85A
:1021A00010BD0000F8B504460D4616461F46B4F9AA
:1021B0000200B0420BDCB4F90600B04207DDB4F90E
:1021C0000000A84203DCB4F90400A84200DCF8BD1A
:1021D000094800970069008B301A03B2064800696D
:1021E000C08A281A02B204480169D0F828C0001D2C
:1021F000E04700BFEBE70000E41802202DE9FC41B6
:1022000004460F4615461E46DDF82080B4F904004A
:10221000B8420CDDB4F90000B84208DCB4F906009D
:10222000A84204DBA819B4F90210884201DABDE81B
:10223000FC81B4F90200A84205DD6088401B301A19
:1022400006B2B4F90250A819B4F90610884202DDAA
:10225000E088401B06B20A48CDE900680069008B9F
:10226000281A03B206480069C08A381A02B2044824
:102270000169D0F840C0001DE04700BFD7E700006B
:10228000E41802202DE9FF4F87B0804689461C469E
:10229000608910B999F804006081002005A906AB97
:1022A0002246CDE90010484609990FF0CEF8B4F95E
:1022B0000400BDF9181088420CDA207B00F00200FF
:1022C00030B12246484609990FF081F8099001E0A3
:1022D000A0880690B4F90060B4F90250207A00F0AA
:1022E000100050B1B4F90610BDF91420881A00EBA3
:1022F000D07105EB61010DB209E0207A00F02000F9
:1023000028B1E088BDF81410401A284405B2B4F989
:102310000200A84201DDB4F90250208B281A05B250
:1023200060E0B4F90060207A00F0020050B1B4F926
:102330000410BDF91820881A00EBD07106EB61017A
:102340000EB209E0207A00F0040028B1A088BDF8A0
:102350001810401A304406B2B2462CE00498C0B2BD
:102360000D2803D00498C0B20A2805D1207B00F0C4
:10237000040000B156461EE0B8F90600A84200DA93
:1023800027E0B8F90400B04200DA14E048460499A6
:102390000EF0E4FF071E00D10DE033462246494609
:1023A0004046CDE900570CF04DF9387839790844AA
:1023B000304406B200BFBBF10000ABF101011FFACF
:1023C00081FB06D003AA04A909A804F0F7FA0028A3
:1023D000C4D100BF6089284405B2207B00F004000E
:1023E00000B90CE00120002106AB2246CDE9001027
:1023F000484609990FF029F8B0F1000B91DC00BFB5
:102400000BB0BDE8F08F00002DE9F04104460E4608
:10241000002700BF1CB114492069884208D040F24F
:10242000172212A11CA00BF027FF0020BDE8F081AD
:1024300000BF01210C200CF0F9FE054695B1AE60FD
:10244000294604F15C000CF0B9FCB4F85400401CBF
:1024500000B2A4F8540020460CF05DF820460DF0C0
:1024600085FD01273846E1E75C4201082E2E5C30ED
:10247000302D4755495F4C4942524152595C77696A
:1024800064676574735C6775695F64726F70646FAD
:10249000776E2E63000000004173736572742070C4
:1024A0006172616D206661696C656420696E206689
:1024B000696C6520257320616E64206C696E6520EF
:1024C00025640D0A000000002DE9FF4F91B004467D
:1024D0001646994612980C287ED008DC04280DD0A8
:1024E00006287AD0082879D00B2878D140E20E2827
:1024F00076D0112875D01528F7D196E2B04620463F
:102500000DF01BFB074620460DF03CFB10902046CB
:102510000DF08AFC054620460DF05AFB0F9094F80A
:10252000660000F00100002865D00DA80EAB0FAAD0
:1025300010A9009020460EF0A8F80120BDF9341033
:102540002B46CDE90010BDF9402039464046FFF743
:10255000A1FCA06C10B1A06C006808E020690069C3
:1025600018B120690069006801E04FF07F40BDF8B4
:102570003410091F09B2CDE90010281F03B2BDF8BD
:102580003800801C02B2B81C01B24046FFF799FA2D
:10259000A06C10B1A06C006808E02069006918B157
:1025A00020690069006801E04FF07F40BDF83C10F1
:1025B000091F09B2CDE90010281F03B2BDF8400081
:1025C000801C02B2B81C01B24046FFF77AFA012023
:1025D000BDF93C102B4605E0D3E1B3E107E22DE263
:1025E000F4E10AE2CDE90010BDF940203946404649
:1025F000FFF750FC30E0BDF940000E90BDF93C0003
:102600000D900020BDF93C102B46CDE90010BDF91E
:10261000402039464046FFF73DFCA06C10B1A06C4D
:10262000006808E02069006918B120690069006845
:1026300001E04FF07F40BDF83C10091F09B2CDE921
:102640000010281F03B2BDF84000801C02B2B81C65
:1026500001B24046FFF735FAB4F9560000284DDBC9
:10266000606BC0B306A8FFF7E9F8002104F15C0035
:102670000CF0B6FB83464FF0000A08E059460020F4
:102680000CF0AEFB83460AF101000FFA80FAB4F9B0
:1026900056005045F2DCF81C00B2ADF81800BDF849
:1026A0003800C01C00B2ADF81A00A81F00B2ADF887
:1026B0001C00BDF83400801F00B2ADF81E001120D0
:1026C0008DF82000BDF81C00ADF82600A06C18B1F4
:1026D000A06C406809E011E02069006918B1206928
:1026E0000069406801E04FF07F400A90DBF8082065
:1026F00006AB4046616BFFF7C5FD00BF94F866006E
:1027000000F0010088B394F8660000F0020060B3A6
:102710005434208A281A05B207A8FFF73BFD781920
:10272000401E00B2ADF81C00BDF84000401C00B2D5
:10273000ADF81E00208AADF82000BDF83C00801ED8
:1027400000B2ADF8220000208DF82400B4F9040096
:102750000C9034F954090A9020460EF0E9F80B90D9
:1027600007A94046FFF78AFC02E0FFE7681E05B2B2
:1027700094F8660000F00100002870D0606B00281B
:10278000FBD0E06D0028F8D00020049005A9204679
:102790000EF088F8834606A8FFF750F8381D00B2FF
:1027A000ADF81800BDF84000801C00B2ADF81A006A
:1027B000A81F00B2ADF81C000FFA8BF0ADF81E0098
:1027C00011208DF82000BDF81C00ADF82600B8F9E6
:1027D00006000390B8F90600BDF94010BDF93C2091
:1027E0001144884207DDBDF84000BDF83C100844A4
:1027F00000B2A8F8060000200490002104F15C005B
:102800000CF0EEFA82468BE0B4F95810049881423D
:1028100000DD7CE0B4F95610049881425AD194F856
:10282000300000F0100070B1A06C10B1A06C006915
:1028300018E02069006918B120690069006911E099
:102840004FF07F400EE0A06C10B1A06C406909E031
:102850002069006920B120690069406902E06DE0EB
:102860004FF07F40BDF91E10594502DABDF91E1028
:1028700000E0594609B2CDE90010E81E03B2BDF9E7
:102880001A20B81C01B24046FFF71BF994F830003B
:1028900000F0100070B1A06C10B1A06C806817E05F
:1028A0002069006918B120690069806810E04FF064
:1028B0007F400DE0A06C10B1A06CC06808E02069FA
:1028C000006918B120690069C06801E04FF07F40DD
:1028D0000A900EE0A06C10B1A06C406808E020697E
:1028E000006918B120690069406801E04FF07F403D
:1028F0000A90DAF8082006AB4046616BFFF7C2FC8D
:10290000BDF81A00584400B2ADF81A0000BF514695
:1029100000200CF065FA82460498401C80B20490B6
:10292000BAF1000F06D0BDF91A00B8F906108842B6
:102930007FF76AAF0398A8F8060000BF012015B022
:10294000BDE8F08F05E000BF28460CF077FC0025BD
:1029500000BF002104F15C000CF042FA0746394642
:1029600004F15C000CF058FB051EECD10120E6E7F9
:102970003146888A324A1080002089F80000012000
:10298000DDE73746606BF8B1002120460DF08AFF85
:102990000FFA80F8B88A2A490988081A05B2002D6A
:1029A00001DB284600E0684240450CDD002D01DDDA
:1029B000012001E04FF0FF30014620460EF05EFCA2
:1029C000B88A1F49088000BF0120B8E7354694F84F
:1029D000660000F0010020B9012120460DF0DFFF64
:1029E00003E0294620460EF043F80120A7E7002126
:1029F00020460DF0D4FF0120A1E7354628780228B3
:102A000007D1012120460DF0C4FE002089F8000006
:102A100009E02878012806D1811E20460DF0B9FE74
:102A2000002089F80000012089E7B6F9001020464F
:102A30000DF0AFFE012089F8000080E700207EE75E
:102A4000C40302202DE9F04F85B005460E46174617
:102A50009846DDE90FABDDF8389011983B463246D9
:102A600029468DE8000F049009480CF05DFE0446ED
:102A700054B14FF0FF3024F8560F1E20E081207C27
:102A800040F004002074563C204605B0BDE8F08FAD
:102A90005C42010870B504460D46002600BF1CB11B
:102AA00017492069884207D040F22D2215A120A0A5
:102AB0000BF0E2FB002070BD00BF94F8660000F050
:102AC0000100D8B994F8660000F0080040B13DB9A3
:102AD00094F8660000F0080084F8660001260DE016
:102AE00094F8660000F0080040B9012D06D194F872
:102AF000660040F0080084F8660001263046DAE7F8
:102B00005C4201082E2E5C30302D4755495F4C4900
:102B100042524152595C776964676574735C6775AA
:102B2000695F64726F70646F776E2E6300000000DF
:102B300041737365727420706172616D20666169A2
:102B40006C656420696E2066696C65202573206160
:102B50006E64206C696E652025640D0A000000001B
:102B600070B504460D4600BF1CB117492069884264
:102B700007D04FF41D7215A11FA00BF07DFB0020A4
:102B800070BD00BF75B194F8660000F0040048B94C
:102B900094F8660040F0040084F8660020460DF0CA
:102BA000E5F90EE06DB994F8660000F0040040B15C
:102BB00094F8660020F0040084F8660020460DF0CA
:102BC000D5F90120DCE700005C4201082E2E5C30C4
:102BD000302D4755495F4C4942524152595C776903
:102BE00064676574735C6775695F64726F70646F46
:102BF000776E2E630000000041737365727420705D
:102C00006172616D206661696C656420696E206621
:102C1000696C6520257320616E64206C696E652087
:102C200025640D0A0000000070B504460D4600261C
:102C300000BF1CB11A492069884207D040F28622A1
:102C400018A123A00BF018FB002070BD00BF94F862
:102C5000660000F0040000BB7DB194F8660000F04F
:102C6000020050B994F8660040F0020084F8660053
:102C700020460DF07BF901260FE075B994F8660047
:102C800000F0020048B194F8660020F0020084F8D9
:102C9000660020460DF06AF901263046D5E70000AF
:102CA0005C4201082E2E5C30302D4755495F4C495F
:102CB00042524152595C776964676574735C677509
:102CC000695F64726F70646F776E2E63000000003E
:102CD00041737365727420706172616D2066616901
:102CE0006C656420696E2066696C652025732061BF
:102CF0006E64206C696E652025640D0A000000007A
:102D00002DE9F04F89B004468B4691469A4600BFA4
:102D10001CB168492069884208D04F2266A171A081
:102D20000BF0AAFA002009B0BDE8F08F00BFBBF19C
:102D3000080F7DD006DCBBF1040F0AD0BBF1070FF2
:102D400077D1A0E0BBF10B0F74D0BBF1110FF7D11D
:102D5000A2E0CDF8209020460CF0EFFE054620467C
:102D60000CF010FF064620460DF05EF807462046A0
:102D70000CF02EFF804601203B4632462946CDE925
:102D800000800898FFF786F8A06C10B1A06C00686E
:102D900008E02069006918B120690069006801E055
:102DA0004FF07F40A8F1040109B2CDE90010381FAF
:102DB00003B2B01C02B2A81C01B20898FEF781FE53
:102DC00094F8300000F01000D8B1A06C10B1A06CE5
:102DD000806808E02069006918B12069006980688E
:102DE00001E04FF07F40A8F1060109B2CDE90010E3
:102DF000B81F03B2F01C02B2E81C01B20898FFF73A
:102E00001AF820460DF060F9D8B301A8FEF716FDB8
:102E1000681D00B2ADF80400701D00B2ADF80600E8
:102E2000A7F10A0000B2ADF80800A8F10A0002E01C
:102E30002BE03CE02BE000B2ADF80A0011208DF849
:102E40000C00BDF80800ADF81200A06C10B1A06C29
:102E5000406808E02069006918B12069006940688D
:102E600001E04FF07F4005909DF8100040F0020017
:102E70008DF8100001ABD4E90D120898FFF702FAA3
:102E800000BF01204FE701204DE701204BE7002064
:102E90008AF80000012046E74D46294620460DF0FD
:102EA00068F910B100208AF8000001203BE70020FB
:102EB00039E700005C4101082E2E5C30302D47556B
:102EC000495F4C4942524152595C77696467657465
:102ED000735C6775695F65646974746578742E6383
:102EE0000000000041737365727420706172616D3F
:102EF000206661696C656420696E2066696C652076
:102F0000257320616E64206C696E652025640D0A4E
:102F1000000000002DE9F04F87B004460D4616462C
:102F20001F46DDE912ABDDE9108933462A4621460A
:102F300004488DE8800F0CF0F7FB0690069807B068
:102F4000BDE8F08F5C41010870B504460D4600BF36
:102F50001CB10C492069884207D04FF4BB720AA10A
:102F600013A00BF089F9002070BD00BF294604F1C1
:102F700050000BF07EFF214628460BF07AFF01201F
:102F8000F2E70000144101082E2E5C30302D475529
:102F9000495F4C4942524152595C77696467657494
:102FA000735C6775695F67726170682E630000000B
:102FB00041737365727420706172616D206661691E
:102FC0006C656420696E2066696C652025732061DC
:102FD0006E64206C696E652025640D0A0000000097
:102FE0002DE9FF4F2DED0A8B8BB0044616980C2867
:102FF0007ED006DC042809D006287AD00B2879D1A7
:103000004CE30D2877D01028F9D1FCE3179DB4F9D3
:1030100058B0B4F95A000990B4F95C000890B4F9BA
:103020005E7020460CF089FD804620460CF0AAFD1B
:10303000079020460CF0F8FE069020460CF0C8FDE4
:103040008246A06C10B1A06C006808E0206900699D
:1030500018B120690069006801E04FF07F403B46ED
:10306000CDE900A041462846079AFEF72AFDA06C4C
:1030700010B1A06C006808E02069006918B12069EF
:103080000069006801E04FF07F40CDE900B006988C
:10309000C21B0998101A03B208EB070001B22846B8
:1030A000079AFEF70EFDA06C10B1A06C006808E056
:1030B0002069006918B120690069006801E04FF0DB
:1030C0007F400899CDE900100698A0EB070C0998FD
:1030D000ACEB000003B2079800EB0A0CACEB01006C
:1030E00002B208EB070001B22846FEF7EAFC03E053
:1030F000F0E2D0E3E8E3C4E3A06C10B1A06C006898
:1031000008E02069006918B120690069006801E0E1
:103110004FF07F40CDE900A0069808EB0002099827
:10312000101A01B22846099B079AFEF7CAFCA06C48
:1031300010B1A06C406808E02069006918B12069EE
:103140000069406801E04FF07F40AAEB0B0208994C
:10315000511A09B2CDE900100698A0EB070C0998A6
:10316000ACEB000003B20798584402B208EB07002A
:1031700001B22846FEF7A5FCA06C10B1A06C8068D7
:1031800008E02069006918B120690069806801E0E1
:103190004FF07F40CDE900A041462846DDE90632E8
:1031A000FEF749FE94F86000F0B3AAEB0B01089813
:1031B000081A00EE100AF8EEC00A94F8600000EE5B
:1031C000100AB8EE400A80EE801AB0EE418A012063
:1031D000059032E0A06C10B1A06CC06808E02069D6
:1031E000006918B120690069C06801E04FF07F40B4
:1031F00000900798584400EE100AF8EEC00A9DEDC2
:10320000050AB8EE400A40EE080ABDEEE00A10EEEC
:10321000100A02B20698A0EB070C0998ACEB00006C
:1032200003B208EB070000E00DE001B22846FEF70C
:1032300013FD0598401CC0B2059094F860100598E5
:103240008142C7DC00BF94F86100E8B30698C11B57
:103250000998081A00EE100AF8EEC00A94F8610006
:1032600000EE100AB8EE400A80EE801AB0EE418AF5
:103270000120059031E0A06C10B1A06CC06808E09E
:103280002069006918B120690069C06801E04FF049
:103290007F40009008EB070000EE100AF8EEC00A2D
:1032A0009DED050AB8EE400A40EE080ABDEEE00AC0
:1032B00010EE100A01B2AAEB0B0C0898ACEB000060
:1032C00003B20798584400E00DE002B22846FEF72A
:1032D00095FF0598401CC0B2059094F861100598C0
:1032E0008142C8DC00BF206D002875D094ED1E0A15
:1032F000D4ED1D0A30EE600AB0EE40CA94ED200A0B
:10330000D4ED1F0A30EE600AF0EE40CA0698C11BE9
:103310000998081A00EE100AB8EEC00AC0EE0C0AAE
:10332000B0EE60AAAAEB0B010898081A00EE100A8A
:10333000B8EEC00AC0EE2C0AB0EE60BA079800EBF7
:103340000A010898081A401E00B208EE900A08EB1D
:10335000070000B209EE900A28680390686804909C
:1033600008EB0700B5F90010884203DD08EB070001
:1033700000B22880069808EB00010998091AB5F9EF
:103380000400814206DA069808EB00010998081A41
:1033900000B2A880079800EB0B01B5F9020081424A
:1033A00003DD0798584400B26880079800EB0A01D3
:1033B0000898081AB5F90610884206DA079800EB53
:1033C0000A010898081A00B2E880002104F15000B0
:1033D0000BF0BCFD0A9051E159E10A9810B10A982E
:1033E000806800E000200646D6F810903069029010
:1033F000307EE0BBD4ED1D0AB8EEE90A00EECA0A41
:10340000B0EE408AB06830F9190000EE100AB8EE4C
:10341000C00AD4ED1F0A70EE600AB8EEE80A00EEAA
:10342000CB0AF0EE40BA09F101008146F16888420A
:1034300001D14FF00009B5F9040000EE100AB8EE12
:10344000C00AB4EEC80AF1EE10FA14D396ED030ADE
:10345000F8EE400AB0EE480A00EE8A0AB5F900001C
:1034600000EE900AF8EEE00AB4EEE00A00E07AE03E
:10347000F1EE10FA00D2FCE066E038EE0A0AB0EE97
:10348000409AB06830F9190000EE100AB8EEC00A90
:10349000D4ED1F0A70EE600AB8EEE80A00EECB0A1F
:1034A000F0EE40AAB5F9000000EE100AB8EEC00A2E
:1034B000B4EEC80AF1EE10FA0AD9B5F9000000EE30
:1034C000100AB8EEC00AB4EEC90AF1EE10FA2FD80D
:1034D000B5F9040000EE100AB8EEC00AB4EEC80A4E
:1034E000F1EE10FA0ADCB5F9040000EE100AB8EEAD
:1034F000C00AB4EEC90AF1EE10FA19DDBDEEEA0A0F
:1035000010EE101A09B27069BDEEC90ACDE90010BB
:1035100010EE100A03B2BDEEEB0A10EE100A02B272
:10352000BDEEC80A10EE100A01B22846FEF7D8FB1D
:10353000B0EE498AF0EE6ABA09F101008146F168FD
:10354000884201D14FF00009029881450AD0B5F9AF
:10355000040000EE100AB8EEC00AB4EEC80AF1EE9C
:1035600010FA8ADA84E0307E01287DD14FEA4900E2
:10357000B16831F9100000EE100AB8EEC00AD4EDBF
:103580001D0A70EE600AB8EEE90A00EE8A0AB0EE93
:10359000408A4FEA4900401CB16831F9100000EE42
:1035A000100AB8EEC00AD4ED1F0A70EE600AB8EE39
:1035B000E80A00EECB0AF0EE40BA09F101008146BC
:1035C000F168884201D14FF000094CE04FEA490010
:1035D000B16831F9100000EE100AB8EEC00AD4ED5F
:1035E0001D0A70EE600AB8EEE90A00EE8A0AB0EE33
:1035F000409A4FEA4900401CB16831F9100000EED2
:10360000100AB8EEC00AD4ED1F0A70EE600AB8EED8
:10361000E80A00EECB0AF0EE40AABDEEEA0A10EE90
:10362000101A09B27069BDEEC90ACDE9001010EE9A
:10363000100A03B2BDEEEB0A10EE100A02B2BDEEA4
:10364000C80A10EE100A01B22846FEF749FBB0EE98
:10365000498AF0EE6ABA09F101008146F1688842B0
:1036600001D14FF0000900E002E002988145ADD1A0
:1036700000BF00200A990BF069FC0A900A98002804
:103680007FF4ABAE039828600498686000BF012007
:103690000BB0BDEC0A8B04B0BDE8F08F179A002187
:1036A00000BF0FE002F1100030F81100874B23F843
:1036B000110002F1140030F81100854B23F81100BD
:1036C000481CC1B210788842ECDC002318980370C3
:1036D0000120DDE7179D2878012863D1B5F9107026
:1036E000B5F9148020460CF09FFBB4F95E10411A26
:1036F000B4F95A00081A00EE100AB8EEC00AD4ED68
:103700001E0A94ED1D1A70EEC10A80EE201AF0EE2A
:10371000418A6E48B0F90000381A00EE100AB8EE7F
:10372000C00AC0EE280AB0EE608A94ED1D0A30EEA1
:10373000480A84ED1D0A94ED1E0A30EE480A84ED15
:103740001E0A20460CF044FAB4F95810411AB4F994
:103750005C00081A00EE100AB8EEC00AD4ED200A88
:1037600094ED1F1A70EEC10A80EE201AF0EE418A25
:103770005748B0F90000A8EB000000EE100AB8EEC0
:10378000C00AC0EE280AB0EE608A94ED1F0A30EE3F
:10379000080A84ED1F0A94ED200A30EE080A84ED31
:1037A000200A54E02878022851D1B5F9160002EE1B
:1037B000100AB8EEC22AF0EE421AB5F9120002EE73
:1037C000100AB8EEC22AB0EE421AB5F9140002EEA1
:1037D000100AB8EEC22AF0EE420AB5F9100002EE65
:1037E000100AB8EEC22AB0EE420A09A90AA801F0EE
:1037F00093FD95ED070AD5ED080A80EE201AB0EE8C
:10380000419A204600E03EE00CF0E2F900EE100A9A
:10381000B8EEC00ADDED090A80EE801AF0EE419A9A
:1038200020460CF001FB00EE100AB8EEC00ADDEDF8
:103830000A0A80EE801AB0EE41AAB0EE691AF0EEE4
:103840004A0AB0EE490A20460BF0FBF900BF0026F9
:103850000FE005F1100030F816001C4921F81600A1
:1038600005F1140030F81600194921F81600701CF3
:10387000C6B22878B042ECDC20460CF077FB012081
:1038800006E7012004E720460BF0CAF920460CF0B9
:103890006DFB0120FCE6002104F150000BF056FB0B
:1038A00005460DE00DB1A86800E00020064621465F
:1038B00030460BF0F1FA294600200BF047FB054695
:1038C000002DEFD10120E3E60020E1E6BA0302205B
:1038D000BE0302202DE9F04F85B005460E4617467F
:1038E0009846DDE90FABDDF8389011983B4632463B
:1038F00029468DE8000F049015480BF015FF04468B
:1039000014B30520A4F8580005215A2001535C2067
:1039100001535E200153B2EE040A84ED1A0ABAEE96
:10392000040A84ED190AB2EE040A84ED1C0ABBEE07
:10393000040A84ED1B0A20460BF072F9082084F873
:1039400060000A2084F86100204605B0BDE8F08FD1
:103950001441010870B504460E46154600BF3CB937
:103960004FF4017214A11EA00AF086FC002070BD65
:1039700000BF207E20B92169A06820F811500DE019
:10398000207E01280AD120694000A16821F810603A
:1039900020694000401CA16821F810502069401C9B
:1039A0002061D4E90310884201D300202061204621
:1039B00007F06AFB0120DAE72E2E5C30302D4755E8
:1039C000495F4C4942524152595C7769646765745A
:1039D000735C6775695F67726170682E63000000D1
:1039E00041737365727420706172616D20666169E4
:1039F0006C656420696E2066696C652025732061A2
:103A00006E64206C696E652025640D0A000000005C
:103A100070B506460D4601211C200BF007FC04463C
:103A2000ACB12676E5602EB9680001210BF0FEFBF3
:103A3000A06004E0A80001210BF0F8FBA060A068E2
:103A400028B900BF20460BF0F9FB002400BF204638
:103A500070BD000010B52DED028B0446B0EE408A1B
:103A600000BF1CB10E492069884209D040F2AF1254
:103A70000CA116A00AF000FC0020BDEC028B10BDCA
:103A800000BF94ED1A0AB4EE480AF1EE10FA04D021
:103A900084ED1A8A20460CF069FA0120EDE7000057
:103AA000144101082E2E5C30302D4755495F4C499A
:103AB00042524152595C776964676574735C6775FB
:103AC000695F67726170682E6300000041737365FF
:103AD000727420706172616D206661696C6564202A
:103AE000696E2066696C6520257320616E64206CA8
:103AF000696E652025640D0A0000000010B52DEDEB
:103B0000028B0446B0EE408A00BF1CB10E4920690A
:103B1000884209D040F2C9120CA116A00AF0ACFBF1
:103B20000020BDEC028B10BD00BF94ED1C0AB4EE6A
:103B3000480AF1EE10FA04D084ED1C8A20460CF0FD
:103B400015FA0120EDE70000144101082E2E5C302B
:103B5000302D4755495F4C4942524152595C776973
:103B600064676574735C6775695F67726170682EFE
:103B70006300000041737365727420706172616D3F
:103B8000206661696C656420696E2066696C6520D9
:103B9000257320616E64206C696E652025640D0AB2
:103BA0000000000010B52DED028B0446B0EE408AF7
:103BB00000BF1CB10E492069884209D04FF4D17270
:103BC0000CA116A00AF058FB0020BDEC028B10BD22
:103BD00000BF94ED190AB4EE480AF1EE10FA04D0D1
:103BE00084ED198A20460CF0C1F90120EDE70000B0
:103BF000144101082E2E5C30302D4755495F4C4949
:103C000042524152595C776964676574735C6775A9
:103C1000695F67726170682E6300000041737365AD
:103C2000727420706172616D206661696C656420D8
:103C3000696E2066696C6520257320616E64206C56
:103C4000696E652025640D0A0000000010B52DED99
:103C5000028B0446B0EE408A00BF1CB10E492069B9
:103C6000884209D04FF4DE720CA116A00AF004FBC2
:103C70000020BDEC028B10BD00BF94ED1B0AB4EE1A
:103C8000480AF1EE10FA04D084ED1B8A20460CF0AD
:103C90006DF90120EDE70000144101082E2E5C3083
:103CA000302D4755495F4C4942524152595C776922
:103CB00064676574735C6775695F67726170682EAD
:103CC0006300000041737365727420706172616DEE
:103CD000206661696C656420696E2066696C652088
:103CE000257320616E64206C696E652025640D0A61
:103CF0000000000010B52DED048B0446B0EE408BA3
:103D0000B0EE419A00BF1CB10C492069884209D02D
:103D100040F2E1120AA114A00AF0AEFA0020BDECB4
:103D2000048B10BD00BFB0EE491AF0EE680AB0EE89
:103D3000480A20460AF085FF0120F0E714410108F7
:103D40002E2E5C30302D4755495F4C49425241522E
:103D5000595C776964676574735C6775695F6772DE
:103D60006170682E63000000417373657274207087
:103D70006172616D206661696C656420696E2066A0
:103D8000696C6520257320616E64206C696E652006
:103D900025640D0A0000000010B5044600BF1CB1E8
:103DA0000A492069884207D04FF4EB7208A112A09B
:103DB0000AF062FA002010BD00BF20460AF030FF72
:103DC00020460CF0D3F80120F5E70000144101086B
:103DD0002E2E5C30302D4755495F4C49425241529E
:103DE000595C776964676574735C6775695F67724E
:103DF0006170682E630000004173736572742070F7
:103E00006172616D206661696C656420696E20660F
:103E1000696C6520257320616E64206C696E652075
:103E200025640D0A0000000010B50446064800682D
:103E3000A0600C2221460548FCF720FF08B10120B4
:103E400010BD0020FCE70000E4180220C41B022083
:103E500010B5044606480068E06010222146054877
:103E6000FCF70CFF08B1012010BD0020FCE70000AA
:103E7000E4180220081B02207FB5EC213248FCF731
:103E80004EFA0120039003AB2F4A20320021A2F109
:103E90001C0001F0A5F92C48016A001D88472A483A
:103EA0004069002846D000241FE000212648806990
:103EB000C4EBC40200EB8200C18223488069C4EBDA
:103EC000C40200EB820001831F4881888069C4EB33
:103ED000C40200EB820041821B48C1888069C4EBA8
:103EE000C40200EB82008182641C17484069A04232
:103EF000DBD815488169C160816901614FF0FF31EC
:103F00000022B0F90600CDE9012100900E48B0F979
:103F10000430006942680C480169056B001DA84720
:103F200009484069012804D9074880691C300649BE
:103F3000086102E0012004B070BD0AF0FBFE0CF045
:103F40000FF80020F7E70000E41802200949097F74
:103F500001F0010169B1002206498969C0EBC00383
:103F600001EB83010A720349C96921F00102014989
:103F7000CA617047E41802202DE9F04F87B004466B
:103F80008A46934600BF1CB158492069884208D030
:103F90004A2257A15FA00AF06FF9002007B0BDE8E0
:103FA000F08F00BFBAF1040F6FD1CDF818B02046E2
:103FB0000BF0C3FD074620460BF0E4FD804620468B
:103FC0000BF032FF054620460BF002FE064694F841
:103FD000510000F00100F0B1A06C10B1A06C0068BD
:103FE00008E02069006918B120690069006801E0F3
:103FF0004FF07F400590A06C10B1A06C806808E085
:104000002069006918B120690069806801E04FF0FB
:104010007F4004901DE0A06C10B1A06C406808E0E7
:104020002069006918B120690069406801E04FF01B
:104030007F400590A06C10B1A06CC06808E02069BA
:10404000006918B120690069C06801E04FF07F4045
:10405000049094F85000C8B9B11E09B20598CDE992
:104060000010A81E03B208F1010002B2781C01B2D0
:104070000698FDF726FD04982B4642463946CDE9C1
:1040800000600698FDF7D7FE2BE02CE00598A946C6
:10409000009005EBD970401003B206EBD67008EB28
:1040A000600002B205EBD57007EB600001B2CDE90C
:1040B00002560698FDF730FC0498009005EBD97085
:1040C000401003B206EBD67008EB600002B205EBBD
:1040D000D57007EB600001B2CDE902560698FDF7F6
:1040E000E5FA01205AE7002058E700008441010862
:1040F0002E2E5C30302D4755495F4C49425241527B
:10410000595C776964676574735C6775695F6C6532
:10411000642E630041737365727420706172616D07
:10412000206661696C656420696E2066696C652033
:10413000257320616E64206C696E652025640D0A0C
:10414000000000002DE9F04F87B004460D461646EA
:104150001F46DDE912ABDDE9108933462A462146C8
:1041600004488DE8800F0BF0DFFA0690069807B040
:10417000BDE8F08F8441010870B504460D4600BFCC
:104180001CB116492069884206D0BF2214A11DA087
:104190000AF072F8002070BD00BF75B194F85100AC
:1041A00000F0010048B994F8510040F0010084F893
:1041B000510020460BF0DAFE0EE06DB994F8510084
:1041C00000F0010040B194F8510020F0010084F8A3
:1041D000510020460BF0CAFE0120DCE784410108B3
:1041E0002E2E5C30302D4755495F4C49425241528A
:1041F000595C776964676574735C6775695F6C6542
:10420000642E630041737365727420706172616D16
:10421000206661696C656420696E2066696C652042
:10422000257320616E64206C696E652025640D0A1B
:104230000000000070B504460D4600BF1CB10B49DC
:104240002069884206D08D2209A112A00AF014F834
:10425000002070BD00BF94F85000A84204D084F83C
:10426000505020460BF012FF0120F2E78441010874
:104270002E2E5C30302D4755495F4C4942524152F9
:10428000595C776964676574735C6775695F6C65B1
:10429000642E630041737365727420706172616D86
:1042A000206661696C656420696E2066696C6520B2
:1042B000257320616E64206C696E652025640D0A8B
:1042C000000000002DE9F04104460E46002700BF23
:1042D0001CB114492069884208D040F2A11212A1F1
:1042E0001BA009F0C9FF0020BDE8F08100BF01213B
:1042F0000C200AF09BFF054695B1AE60294604F1FB
:1043000058000AF05BFDB4F85000401C00B2A4F85D
:10431000500020460AF0B4F820460BF027FE012793
:104320003846E1E72C4201082E2E5C30302D4755EF
:10433000495F4C4942524152595C776964676574E0
:10434000735C6775695F6C697374626F782E630064
:1043500041737365727420706172616D206661696A
:104360006C656420696E2066696C65202573206128
:104370006E64206C696E652025640D0A00000000E3
:104380002DE9FF4F8DB0044615460E980C2877D0C6
:1043900006DC04280BD0062873D00B2872D16EE1FE
:1043A0000E2870D0112870D01528F7D1FCE12F46C7
:1043B00020460BF0C2FB814620460BF0E3FB804613
:1043C00020460BF031FD064620460BF001FC8246EC
:1043D0000120334642464946CDE900A03846FDF764
:1043E00059FDA06C10B1A06C006808E0206900695C
:1043F00018B120690069006801E04FF07F40AAF120
:10440000040109B2CDE90010301F03B208F1020027
:1044100002B209F1020001B23846FDF752FB94F8EE
:10442000620000F0010078B307A8FDF7B3FE503436
:10443000208A301A06B209EB0600401E00B2ADF821
:104440001C0008F1010000B2ADF81E00208AADF892
:104450002000AAF1020000B2ADF8220000208DF881
:104460002400B4F904000C9034F950090A90204655
:104470000CF04CFA0B9007A93846FDF7FFFD07E05A
:1044800006E1E6E09AE128E100E07BE1701E06B279
:10449000606B002872D0A06D0028FBD00020049033
:1044A000002120460CF0E4F9059006A8FDF7C6F9B6
:1044B00009F1040000B2ADF8180008F1020000B2E2
:1044C000ADF81A00301F00B2ADF81C00059800B21C
:1044D000ADF81E0011208DF82000BDF81C00ADF8CD
:1044E0002600B7F906000390B7F9061008EB0A009A
:1044F000801E814204DD08EB0A00801E00B2F880B5
:1045000000200490002104F158000AF069FC834661
:104510008EE0B4F954100498814200DD7FE0B4F9D4
:104520005210049881425CD194F8300000F01000E1
:1045300070B1A06C10B1A06C006917E0206900692F
:1045400018B120690069006910E04FF07F400DE06C
:10455000A06C10B1A06C406908E02069006918B136
:1045600020690069406901E04FF07F40BDF91E20DD
:1045700005998A4203DABDF91E1001E065E005994C
:1045800009B2CDE90010F01E03B2BDF91A2009F1FD
:10459000020001B23846FDF794FA94F8300000F0BA
:1045A000100070B1A06C10B1A06C806817E0206999
:1045B000006918B120690069806810E04FF07F4001
:1045C0000DE0A06C10B1A06CC06808E02069006923
:1045D00018B120690069C06801E04FF07F400A907F
:1045E0000EE0A06C10B1A06C406808E02069006982
:1045F00018B120690069406801E04FF07F400A90DF
:10460000DBF8082006AB3846616BFDF73BFEBDF8D2
:104610001A100598084400B2ADF81A0000BF5946B8
:1046200000200AF0DDFB83460498401C80B2049011
:10463000BBF1000F06D0BDF91A00B7F90610884289
:104640007FF767AF0398F88000BF012011B0BDE885
:10465000F08F05E000BF30460AF0F0FD002600BFF5
:10466000002104F158000AF0BBFB0746394604F16B
:1046700058000AF0D1FC061EECD10120E6E72946DD
:10468000888A4F4A10800022109802700120DDE7CE
:104690002F46606BF8B1002120460CF0E9F80FFAC4
:1046A00080F8B88A46490988081A06B2002E01DB4C
:1046B000304600E0704240450CDD002E01DD012057
:1046C00001E04FF0FF30014620460CF09FFDB88A14
:1046D0003B49088000BF0120B8E72E464FF0000894
:1046E00020460BF0A1FB814620460BF071FA824672
:1046F00094F8620000F0010008B3B6F91000B4F9B4
:104700006010A9EB0101884219DDB6F91400B4F973
:104710006010884205DA4FF0FF3120460CF076FD3C
:104720000BE0B6F91400B4F96010AAEB010188425D
:1047300003DD012120460CF069FD4FF00108B8F1BE
:10474000000F1DD1606BD8B1002120460CF090F80D
:104750008346B6F9140090FBFBF087B2B4F954001D
:104760003844B4F95010884209DCB4F85400384495
:1047700001B220460CF0DBFC20460BF0F7FB00BF3B
:10478000012063E72E463078022804D1012120461B
:104790000BF0C8FF06E03078012803D1811E2046C7
:1047A0000BF0C0FF012051E7B5F9001020460BF0D7
:1047B000B9FF012110980170012047E7002045E76B
:1047C000C20302202DE9F04F85B005460E4617467C
:1047D0009846DDE90FABDDF8389011983B4632463C
:1047E00029468DE8000F049009480AF09DFF044611
:1047F00054B14FF0FF3024F8520F1E20E081207C8E
:1048000040F002002074523C204605B0BDE8F08F15
:104810002C42010870B504460D4600BF1CB1174973
:104820002069884207D04FF4F57215A11EA009F047
:1048300023FD002070BD00BF75B194F8620000F048
:10484000020048B994F8620040F0020084F8620067
:1048500020460BF08BFB0EE06DB994F8620000F07F
:10486000020040B194F8620020F0020084F8620077
:1048700020460BF07BFB0120DCE700002C42010806
:104880002E2E5C30302D4755495F4C4942524152E3
:10489000595C776964676574735C6775695F6C6997
:1048A0007374626F782E6300417373657274207045
:1048B0006172616D206661696C656420696E206655
:1048C000696C6520257320616E64206C696E6520BB
:1048D00025640D0A0000000070B504460D46002650
:1048E00000BF1CB11A492069884207D04FF4FE72FC
:1048F00018A122A009F0C0FC002070BD00BF94F8F0
:10490000620000F0020000BB7DB194F8620000F08C
:10491000010050B994F8620040F0010084F8620090
:1049200020460BF023FB01260FE075B994F86200D6
:1049300000F0010048B194F8620020F0010084F812
:10494000620020460BF012FB01263046D5E700003E
:104950002C4201082E2E5C30302D4755495F4C49C2
:1049600042524152595C776964676574735C67753C
:10497000695F6C697374626F782E6300417373654D
:10498000727420706172616D206661696C6564206B
:10499000696E2066696C6520257320616E64206CE9
:1049A000696E652025640D0A000000002DE9F047BE
:1049B00004460F4690464FF0000900BF1CB11B494A
:1049C0002069884208D04FF4FD7219A123A009F094
:1049D00053FC0020BDE8F08700BFB4F85420921CBF
:1049E0009100206D0AF030FC0646EEB126650121EB
:1049F00010200AF01BFC0546B5B15034A188481CB4
:104A0000A080206840F821500020A2882168503CF6
:104A100041F82200EF60B8F1000F01DD404600E0F0
:104A2000642028814FF001094846D3E7C4420108B9
:104A30002E2E5C30302D4755495F4C494252415231
:104A4000595C776964676574735C6775695F6C69E5
:104A50007374766965772E63000000004173736597
:104A6000727420706172616D206661696C6564208A
:104A7000696E2066696C6520257320616E64206C08
:104A8000696E652025640D0A000000002DE9FF4FC6
:104A900091B00446164612980C287CD008DC0128F8
:104AA0000DD004281AD0062876D00B2875D149E2FB
:104AB0000E2873D0112872D01528F7D168E34FF073
:104AC000FF3024F8620F1E20A080A07940F0020081
:104AD000A071623C012015B0BDE8F08F374620463A
:104AE0000BF02BF8804620460BF04CF8824620460F
:104AF0000BF09AF9814620460BF06AF81090204698
:104B000009F054FD012110984B465246CDE90001B1
:104B100041463846FDF7BEF9A06C10B1A06C0068A4
:104B200008E02069006918B120690069006801E0A7
:104B30004FF07F401099091F09B2CDE90010A9F18B
:104B4000040003B20AF1020002B208F1020001B24D
:104B50003846FCF7B6FF94F8680000F0010098B3FF
:104B600008A8FDF717FB6034E088A9EB00000FFAF6
:104B700080F908EB0900401E00B2ADF820000AF1F0
:104B8000010000B2ADF82200E088ADF824001098D2
:104B9000801E00B204E0E1E189E103E35CE2DFE2D0
:104BA000ADF8260000208DF82800B4F904000D901F
:104BB00034F960090B9020460BF0DDFE0C9008A93B
:104BC0003846FDF75BFA04E0FFE7A9F101000FFAB0
:104BD00080F9002120460BF07FFE8346F848CDE99E
:104BE00000B0A9F1030003B20AF1020002B208F119
:104BF000020001B23846FCF764FF206D00287CD02B
:104C0000206D00680028FAD008F1020000B20D9073
:104C100006A8FCF713FEADF81EB011208DF8200099
:104C2000BDF81C00ADF82600B7F904000590B7F9EF
:104C3000041008EB0900401E814204DD08EB090066
:104C4000401E00B2B8800AF1020000B2ADF81A00AE
:104C500000252DE00020CDE900B0206D50F82500A2
:104C6000B0F90830BDF91A2038460D99FDF712F950
:104C7000206D50F825000089801F00B2ADF81C009F
:104C80000D98C01C00B2ADF81800206D50F825003A
:104C9000C26806AB3846616BFDF7F4FA206D50F838
:104CA000250001890D98084400B20D90681C85B25A
:104CB000B4F85400A842CDDCBDF81A00584400B244
:104CC000ADF81A00606B002871D0A06D0028FBD0F1
:104CD00000200490B7F906000390B7F90610109869
:104CE0005044801E814204DD10985044801E00B262
:104CF000F88000200490002100E0D6E004F1580084
:104D00000AF06EF80F90C1E0B4F964100498814283
:104D100000DDB2E0B4F96210049881425BD194F8EE
:104D2000300000F0100070B1A06C10B1A06C0069F0
:104D300017E02069006918B120690069006910E076
:104D40004FF07F400DE0A06C10B1A06C406908E00E
:104D50002069006918B120690069406901E04FF0DD
:104D60007F40BDF91E10594502DABDF91E1000E062
:104D70005946CDE90010A9F1020003B2BDF91A208D
:104D800008F1020001B23846FCF79BFE94F83000AF
:104D900000F0100078B1A06C10B1A06C806818E031
:104DA0002069006920B120690069806811E079E01C
:104DB0004FF07F400DE0A06C10B1A06CC06808E01F
:104DC0002069006918B120690069C06801E04FF0EE
:104DD0007F400A900EE0A06C10B1A06C406808E023
:104DE0002069006918B120690069406801E04FF04E
:104DF0007F400A9008F1020000B20D9000250021CA
:104E00000F98083009F0ECFF0E9029E00E988068AA
:104E1000B8B1206D50F825000089801F00B2ADF8B0
:104E20001C0068488088ADF826000D98C01C00B2B0
:104E3000ADF818000E98826806AB3846616BFDF736
:104E400021FA206D50F8250001890D98084400B220
:104E50000D9000200E9909F0C3FF0E90681C85B2DA
:104E60000E9818B1B4F85400A842CFDCBDF81A006F
:104E7000584400B2ADF81A0000BF00200F9909F0A5
:104E8000AFFF0F900498401C80B204900F9830B18F
:104E9000BDF91A00B7F9061088427FF735AF0398BD
:104EA000F88000BF0598B88000BF012013E60025F8
:104EB0001DE006E000BF40460AF0C0F94FF00008D0
:104EC00000BF002107F1080009F08AFF814649462A
:104ED00007F108000AF0A0F8B0F10008EAD100BF1D
:104EE00038460AF0ABF9002700BF681C85B20021E4
:104EF00004F1580009F074FF8146494604F1580056
:104F00000AF08AF8071ED4D1206DC8B100250CE044
:104F100000BF216D51F825000AF090F90020216DA5
:104F200041F8250000BF681C85B2B4F85400A842BF
:104F3000EEDC00BF206D0AF081F90020206500BF83
:104F40000120C8E53146088A1F4A1080888A1F4A16
:104F500010800022149802700120BCE5B046606BFE
:104F6000B0B3002120460BF0B7FC8246B8F814001D
:104F700016490988081A07B2002F01DB384600E0FD
:104F8000784250450DDD002F01DD012001E04FF09A
:104F9000FF30014620460CF0A9F9B8F814000B497F
:104FA00008800A48B0F90000504552DA4FF0000975
:104FB000B8F8100004490988081A07B2002525E04E
:104FC000C6C6C6FFE4180220D0030220D203022086
:104FD00040E0206D50F82500008948440FFA80F920
:104FE0007148B0F90000B0EB090005D46E48B0F983
:104FF0000000A0EB090004E06B48B0F90000A9EB49
:1050000000000A2800DA05E0681C85B2B4F85400F4
:10501000A842DEDC00BFB4F85400A84218D0206DCE
:1050200050F82500B0F90800C01B042809DB206DEA
:1050300050F825000089C01B00B2216D51F82510E1
:105040000881B8F810005849088020460AF08EFF01
:1050500000BF00BF01203EE535464FF000080021AB
:1050600020460BF039FC87B220460AF0DDFE81466F
:1050700020460AF0ADFD824694F8680000F0010079
:1050800008B3B5F91000B4F96610A9EB0101884224
:1050900019DDB5F91400B4F96610884205DA4FF04D
:1050A000FF3120460CF022F90BE0B5F91400B4F9F9
:1050B0006610AAEB0101884203DD012120460CF0B5
:1050C00015F94FF00108B8F1000F1ED1B5F9140021
:1050D000B84219DDB5F91400C01B90FBF7F01FFAB8
:1050E00080FBB4F964005844B4F96010884209DCCC
:1050F000B4F86400584401B220460CF04CF8204645
:105100000AF034FF4FF0010800BFB8F1000F25D1BD
:10511000B5F91400B84221DA0021002016E0B5F9F3
:1051200010208A420ADD226D52F82020B2F90820B0
:105130000A44B5F910309A4200DD0BE0226D52F8B6
:10514000202012890A4411B2421C90B2B4F85420B3
:105150008242E4DC00BF4FF0010800BF0120BAE446
:1051600035462878022807D1012120460BF048FB5C
:1051700000211498017009E02878012806D1811EC9
:1051800020460BF03DFB0021149801700120A2E4A1
:10519000B6F9001020460BF033FB01211498017082
:1051A000012098E4002096E4D00302202DE9F04F7E
:1051B00087B004460D4616461F46DDE912ABDDE911
:1051C000108933462A46214604488DE8800F0AF0AC
:1051D000ABFA0690069807B0BDE8F08FC44201080C
:1051E0002DE9F0470546894690461F46B9F1000F64
:1051F00003D0B9F1010F68D159E00026444607F009
:1052000051FD00BF0221324800F0D0F800BF4FF43A
:10521000487028804FF4F07068800220287128615F
:105220002C48686100BF13E0C6EBC600294901F8AD
:10523000206040F2771070434FF0404101EBC020F6
:10524000C6EBC601234A02EB81014860701CC6B25E
:10525000022EE9DB204820602048E0602048A06062
:1052600020486060204860612048E061204820625A
:1052700020482061204860622048A0612048A06248
:105280002048E06220482063204860630FB100207E
:105290003870002204215A2004F0C3FB5A2004F085
:1052A000B3FB1B481B49C8610120BDE8F08798F893
:1052B00000100120C1EBC1036A6902EB8302107286
:1052C0000FB1002038700120EFE70020EDE700006B
:1052D000CC400108D019022071B60008D1B50008F1
:1052E000B1B600089DB60008B9B00008A1B2000828
:1052F000ADB40008EDB400088DB5000851B1000848
:10530000E1B2000885B3000819B40008F9B100083B
:10531000B7D80008081A0220024630EE012AF0EE43
:10532000002A82EE223A82ED003A30EEA12AF0EE17
:10533000002A82EE223A81ED003A0120704710B532
:105340002DED048BB0EE409AB0EE608AF0EE419AFB
:10535000F0EE618A044679EE690A60EEA00A38EE42
:10536000681A78EE681A41EE210AB0EE600A20460B
:1053700000F003F8BDEC048B10BD10B52DED028BD1
:10538000B0EE408A0446B5EEC08AF1EE10FA0BDDAD
:10539000B7EEC80A0CF0A4FBB7EEC00B84ED000A10
:1053A0000120BDEC028B10BD0020FAE770B5044669
:1053B0000D46294620460DF0E5FC0646304670BDF8
:1053C0002DE9FF4F8BB004468B4600BF1CB17549D9
:1053D0002069884208D0542273A17DA008F04CFFB8
:1053E00000200FB0BDE8F08F00BFBBF1040F03D069
:1053F000BBF10B0F7ED1CDE00D980A9020460AF04C
:105400009CFB064620460AF0BDFB074620460AF0F4
:105410000BFD804620460AF0DBFB8146216DA06D26
:10542000401AA8F104014843D4E91421891A90FBD9
:10543000F1F005B2A06C10B1A06C006808E0206922
:10544000006918B120690069006801E04FF07F40F1
:10545000A9F1040109B2CDE90010A8EB0500001F75
:1054600003B27019801C01B2B81C02B20A98FCF792
:1054700028FBA06C10B1A06C406808E020690069AE
:1054800018B120690069406801E04FF07F40A9F140
:10549000040109B22B46CDE90010B81C02B2B01CC1
:1054A00001B20A98FCF70DFB012043463A4631460B
:1054B000CDE900900A98FCF7EDFC606B002868D0FD
:1054C0004FF0000A94F85C0000F0010098B1216DE3
:1054D000A06D401A64214843D4E91421891A90FB35
:1054E000F1F0024646A1079008A808F0D5FE0DF19C
:1054F000200A06E053E020460AF0E6FD08B1D4F8A1
:1055000038A0BAF1000F43D001A8FCF797F9B01CFE
:1055100000B2ADF80400B81C00B2ADF80600A8F166
:10552000040000B2ADF80800A9F1040000B2ADF823
:105530000A0012208DF80C000DB1681E00E000205A
:1055400000B2ADF81200A06C10B1A06C006808E0C9
:105550002069006918B120690069006801E04FF016
:105560007F400590A06C10B1A06C406808E02069F5
:10557000006918B120690069406801E04FF07F4080
:10558000069001AB5246616B0A98FCF77BFE00BFA8
:1055900000BF00BF01210E980170012021E700200B
:1055A0001FE70000A84101082E2E5C30302D475522
:1055B000495F4C4942524152595C7769646765744E
:1055C000735C6775695F70726F676261722E6300EA
:1055D00041737365727420706172616D20666169D8
:1055E0006C656420696E2066696C65202573206196
:1055F0006E64206C696E652025640D0A0000000051
:1056000025642525000000002DE9F04F85B00546F2
:105610000E4617469846DDE90FABDDF83890119835
:105620003B46324629468DE8000F049007480AF0B1
:105630007BF804462CB10020206564206065322090
:10564000A065204605B0BDE8F08F0000A841010824
:1056500010B5044600BF1CB10D492069884206D030
:10566000D9220CA115A008F007FE002010BD00BF34
:1056700094F85C0000F0010040B994F85C0040F040
:10568000010084F85C0020460AF070FC0120EDE780
:10569000A84101082E2E5C30302D4755495F4C49FA
:1056A00042524152595C776964676574735C6775EF
:1056B000695F70726F676261722E63004173736518
:1056C000727420706172616D206661696C6564201E
:1056D000696E2066696C6520257320616E64206C9C
:1056E000696E652025640D0A000000002DE9F04177
:1056F0008CB0002609F044FB002874D00BE1FE4872
:10570000D0F8E40018B3FC4890F8C600F8B1FA49A4
:10571000D1F8E4000AF05CFA0446F749D1F8E40055
:105720000AF082FB0546F449D1F8E4000AF02AFAAF
:105730000746F149D1F8E4000AF0FFF980462B460C
:105740003A464146EC48BC3000940BF09DFCEA48D8
:1057500090F8C600002865D0E74890F89E00002821
:1057600060D0E548D0F8E400002874D0E24890F812
:10577000BC00E14991F89410884235D1DE48D0F858
:10578000E400406958B1DC49D1F8E400D1F8E410F4
:105790000BABD94ABC324D690C21A8470BE0D64966
:1057A000D1F8E400D1F8E41009690BABD24ABC325D
:1057B000CD680C21A847044654B1CF48D0F8E40086
:1057C000006B40F40040CC49D1F8E410086309E0D4
:1057D000C948D0F8E400006B20F40040C649D1F875
:1057E000E410086337E09EE0C348D0F8E400406965
:1057F00058B1C149D1F8E400D1F8E4100BABBE4A6E
:10580000BC324C690B21A04725E0BB49D1F8E4002C
:10581000D1F8E41009690BABB74ABC32CC680B2154
:10582000A04718E0B44890F8C600A0B1B24890F87C
:105830009E0080B90021B048BC300BF07BF9AE4827
:10584000D0F8E400AC49D1F8E810884203D0002138
:10585000A948A0F8E010A848D0F8E40048B30AAB83
:105860000122A549943101F128000BF0B1FE9DF809
:105870002800F0B1A048D0F8E400406960B19E492A
:10588000D1F8E400D1F8E41000239B4ABC324C6903
:105890009DF82810A0470CE09749D1F8E400D1F812
:1058A000E41009690023944ABC32CC689DF82810A2
:1058B000A047914890F8C60030BB8F4890F89E00F2
:1058C00010B38D48D0F8E400F0B18B48D0F8E40074
:1058D000406958B18849D1F8E400D1F8E4100BAB25
:1058E000854ABC324C690D21A0470BE08249D1F8B2
:1058F000E400D1F8E41009690BAB7F4ABC32CC68F4
:105900000D21A04709F02EFE28227B49BC31A1F1D0
:105910002800FAF7EBFC7848BC3009F03DFA002883
:105920007FF4EDAE29E00AAB00227349943101F116
:1059300028000BF04DFE9DF82800F0B16E48D0F81D
:10594000E400406960B16C49D1F8E400D1F8E4109A
:105950000023694ABC324C699DF82810A0470CE02E
:105960006549D1F8E400D1F8E41009690023624ADE
:10597000BC32CC689DF82810A04754E05E48006F08
:10598000002850D0012006905B48006F406940B16C
:105990005949086F096F06AB07AA4C691121A04746
:1059A00008E05549086F096F096906AB07AACC687A
:1059B0001121A0479DF81800A8B39DF81C000928E4
:1059C00031D14D48016F002009F056FB044644B127
:1059D00094F8300000F0200010B994F82C0000B9C1
:1059E0000024C4B94449096F8869002109F044FBC7
:1059F00004460DE094F8300000F0200018B994F847
:105A00002C0000B106E02146002009F035FB0446D9
:105A1000002CEFD100BF2CB1204609F057FB2046E7
:105A200009F0F6FF00BF07A809F098F90028A5D1F2
:105A300009F086FC3048B0F8580000F4005008B176
:105A400009F08EFF2C48007F00F0010000287DD176
:105A5000294890F8580000F00100002876D0264828
:105A6000C568006905900120049005F10A042248E8
:105A7000806D20F001002049886520484768A08893
:105A80002188401A0599498A081A01B2A0882288FB
:105A9000801A6A8A101A02B2E0886388C01A00B2BB
:105AA000A388B4F800C0A3EB0C031BB2CDE900300F
:105AB000CDE90221B4F900006188DDF81480B8F85E
:105AC000128011FB08010598D0F804800A48007A7A
:105AD00000FB0183B4F900006188B5F8128011FB66
