:020000040800F2
:1000000030150220C902000817C80008BFBD00084B
:1000100013C80008ED050008C9ED00080000000045
:100020000000000000000000000000000D020008B9
:1000300049070008000000006102000801CE000826
:10004000E3020008E3020008E3020008E3020008FC
:10005000E3020008E30200084D070008F507000866
:10006000110800082D08000849080008F1050008DB
:1000700001060008110600082106000831060008E4
:100080004106000851060008E3020008E3020008E8
:10009000E3020008E3020008E30200086508000824
:1000A000E3020008E3020008E3020008E30200089C
:1000B000E3020008E3020008E3020008E30200088C
:1000C000E3020008E3020008E3020008E30200087C
:1000D000E30200080DED000839ED000869ED0008A5
:1000E00069070008E3020008E3020008E3020008D1
:1000F000E3020008E3020008E302000861060008CA
:10010000E3020008E3020008E3020008E30200083B
:1001100029E7000859E70008E3020008E3020008A5
:100120008106000891060008A1060008B106000833
:10013000C1060008E3020008E3020008E302000829
:10014000E3020008E3020008E3020008E3020008FB
:10015000D1060008E1060008F106000899ED000844
:10016000E3020008E3020008E3020008E3020008DB
:10017000E3020008E3020008E302000800000000B8
:10018000E3020008E30200087DE70008ADE700088D
:10019000E3020008E3020008E3020008E3020008AB
:1001A000F1C50008E302000871060008E302000838
:1001B000E3020008E3020008E3020008E30200088B
:1001C000E3020008E3020008E3020008E30200087B
:1001D000E3020008E3020008E3020008E30200086B
:1001E000E3020008E3020008E3020008E30200085B
:1001F000E3020008E3020008DFF80CD000F0F6F894
:10020000004800472D5E0108301502202B4B19686D
:100210000868B0E8F04F80F30988BFF36F8F4FF0A4
:10022000000080F311887047000000000648006855
:10023000006880F3088862B661B6BFF34F8FBFF3E2
:100240006F8F00DF00BF00BF08ED00E0DFF80C009B
:10025000016841F470010160704700BF88ED00E063
:10026000EFF30980BFF36F8F144B1A681EF0100F65
:1002700008BF20ED108A20E9F04F106008B44FF05D
:10028000500072B680F31188BFF34F8FBFF36F8FAA
:1002900062B616F0D9F94FF0000080F3118808BC5F
:1002A00019680868B0E8F04F1EF0100F08BFB0ECF6
:1002B000108A80F30988BFF36F8F7047B403022060
:1002C000EFF3058070470000064880470648004766
:1002D000FEE7FEE7FEE7FEE7FEE7FEE7FEE7FEE7F6
:1002E000FEE7FEE709CE0008F901000840EA010335
:1002F0009B0703D009E008C9121F08C0042AFAD2DC
:1003000003E011F8013B00F8013B521EF9D270479F
:10031000D2B201E000F8012B491EFBD27047002247
:10032000F6E710B513460A4604461946FFF7F0FFF4
:10033000204610BD10B5044604E00B7800F8013BE0
:1003400003B1491C521EF8D2204610BD421C10F8C1
:10035000011B0029FBD1801A704710B5002200E074
:10036000521C835C8C5CA34201D1002BF8D1D8B223
:10037000E1B2401A10BD034611F8012B00F8012B21
:10038000002AF9D1184670472DE9F05F0546002094
:1003900092469B4688460646814640241BE02846F6
:1003A00041464746224600F042F853465A46C01A94
:1003B000914110D311461846224600F029F82D1A13
:1003C00067EB01084F4622460120002100F020F88B
:1003D00017EB00094E41201EA4F10104DFDC484662
:1003E00031462A464346BDE8F09F0000064C074DC3
:1003F00006E0E06840F0010394E8070098471034F5
:10040000AC42F6D3FFF7FCFE04AB080824AB0808A7
:10041000202A04DB203A00FA02F1002070479140C4
:10042000C2F1200320FA03F3194390407047202AB9
:1004300004DB203A21FA02F00021704721FA02F38E
:10044000D040C2F12002914008431946704770B570
:100450008C1810F8015B15F0070301D110F8013B6F
:100460002A1106D110F8012B03E010F8016B01F8F6
:10047000016B5B1EF9D12B0705D40023521E0DD44E
:1004800001F8013BFAE710F8013BCB1A921C03E09C
:1004900013F8015B01F8015B521EF9D5A142D8D3D4
:1004A000002070BD08B500BF3548006840F080608E
:1004B000334908600846006800F08060009000BF83
:1004C00000BF2F482038006840F080602C49203958
:1004D00008600846006820F08060086000BF284877
:1004E0001438006840F400002549143908600846B3
:1004F000006800F40000009000BF00BF20483438BE
:10050000006840F400001E4934390860084600685D
:1005100020F40000086000BF1948006840F0006047
:10052000174908600846006800F00060009000BFAE
:1005300000BF13482038006840F00060104920399F
:1005400008600846006820F00060086000220F2163
:1005500058200AF042FA58200AF032FA00220F21FD
:100560005A200AF03AFA5A200AF02AFA00220F21F9
:1005700062200AF032FA62200AF022FA08BD000076
:100580004438024000B587B000BF1648006840F408
:100590000070144908600846006800F4007001907B
:1005A00000BF00BF4FF40040029001200390049070
:1005B0000320059002A90C4809F0AEFB00224FF47D
:1005C0000041094809F0B4FC142009F089FB01221C
:1005D000D103054809F0ACFC0A2009F081FB07B003
:1005E00000BD0000303802400024024000BFFEE79A
:1005F00010B502480CF049FD10BD0000106002402B
:1006000010B502480CF041FD10BD0000286002400A
:1006100010B502480CF039FD10BD000040600240EA
:1006200010B502480CF031FD10BD000058600240CA
:1006300010B502480CF029FD10BD000070600240AA
:1006400010B502480CF021FD10BD0000886002408A
:1006500010B502480CF019FD10BD0000A06002406A
:1006600010B502480CF011FD10BD0000B86002404A
:1006700010B5024808F014FE10BD00009C0A0220CC
:1006800010B502480CF001FD10BD000010640240DE
:1006900010B502480CF0F9FC10BD000028640240BF
:1006A00010B502480CF0F1FC10BD0000406402409F
:1006B00010B502480CF0E9FC10BD0000586402407F
:1006C00010B502480CF0E1FC10BD0000706402405F
:1006D00010B502480CF0D9FC10BD0000886402403F
:1006E00010B502480CF0D1FC10BD0000A06402401F
:1006F00010B502480CF0C9FC10BD0000B8640240FF
:1007000030B5039C42EA811545EA032545EA0445D4
:10071000C56630BD7CB505460C46012D08D860780D
:100720000090237815220021064809F082FA08E09B
:10073000605D2B4639220021CDE90004014809F013
:1007400017FA7CBDDC0702207047000010B5054891
:10075000006800F0010020B10120024908600CF09F
:10076000D3FD10BD143C014010B52148006800F4D1
:10077000806028B14FF480601D4908600CF0C4FD12
:100780001B48006800F4006028B14FF4006018496D
:1007900008600CF0B9FD1648006800F4805028B1DC
:1007A0004FF48050124908600CF0AEFD104800680C
:1007B00000F4005028B14FF400500D4908600CF0CF
:1007C000A3FD0B48006800F4804028B14FF480403E
:1007D000074908600CF098FD0548006800F40040E7
:1007E00028B14FF40040024908600CF08DFD10BDA7
:1007F000143C014010B50548006800F0020020B12B
:100800000220024908600CF07FFD10BD143C01403D
:1008100010B50548006800F0040020B1042002492A
:1008200008600CF071FD10BD143C014010B5054886
:10083000006800F0080020B10820024908600CF0B0
:1008400063FD10BD143C014010B50548006800F080
:10085000100020B11020024908600CF055FD10BDB9
:10086000143C014010B51A48006800F0200020B187
:100870002020174908600CF047FD1548006800F07B
:10088000400020B14020124908600CF03DFD1048A6
:10089000006800F0800020B180200D4908600CF055
:1008A00033FD0B48006800F4807028B14FF480706D
:1008B000074908600CF028FD0548006800F4007046
:1008C00028B14FF40070024908600CF01DFD10BD06
:1008D000143C014030B5024600230024086801287A
:1008E00016D013686FF30E03D1E901052843CD68D4
:1008F00028430D6928434D6928438D692843CD69F4
:1009000028430D6A28434D6A28430343136019E0C6
:10091000136823F4F843D1E9070528434D6A2843B7
:10092000034354686FF30E04D1E901052843CD68F1
:1009300028430D6928434D6928438D6928430443A2
:1009400013605460002030BD0246506940EA410007
:10095000506100207047F8B506460C461546002049
:1009600000900027D4E900010843A168491E40EA2D
:100970004110E16840EA412000900098306109F0A0
:10098000DDFA074609E0681C38B125B109F0D6FA4E
:10099000C01BA84201D90320F8BDB06900F02000B7
:1009A0000028F0D100BFF7E770B5034615460022D6
:1009B0000024012D1FD09A6802F070420868401E82
:1009C0004E68761E40EA06168868401E46EA0026F3
:1009D000C868401E46EA0036088A401E46EA0046BD
:1009E000888A401E46EA0056087E401E46EA00609D
:1009F00002439A6022E09A6811480240C868401E8B
:100A00000603888A401E46EA00500243DC6804F070
:100A100070440868401E4E68761E40EA06168868D4
:100A2000401E46EA0026088A401E46EA0046087E26
:100A3000401E46EA006004439A60DC60002070BDFE
:100A4000FF0F0FFF01B500BF0098411E0091002865
:100A5000FAD108BD30B50146002409B9002030BDE7
:100A60004A688B689A4201D10C6806E0934201D92A
:100A70009C1A02E0D51A0868441B601EEFE730B5E7
:100A8000014609B9002030BD4A688B689A4201D1FD
:100A9000002406E09A4201D9D41A02E09D1A08689F
:100AA000441B2046EFE770B504460D4616460CB9C8
:100AB000012070BD18212046FFF731FC2560E6605B
:100AC0000A206074E06870B9284601210FF09EFC8E
:100AD000E060E06818B9002020600120E9E7207C90
:100AE00040F002002074207C40F0010020740020BF
:100AF000DFE72DE9F0470446894615464FF0000828
:100B0000CA4604B115B90020BDE8F0872168A06885
:100B1000884201D30020A0602046FFF7B0FF0746BF
:100B2000AF4203D20FB90020EEE73D46A16820682E
:100B3000461AAE4200D92E46D4E902208118324628
:100B40005046FFF7D3FBB044A0683044A060AD1B13
:100B500035B10AEB08002A46E168FFF7C7FBA5603C
:100B60002168A068884201D30020A06008EB05003E
:100B7000CAE72DE9F0470446894615464FF00008BC
:100B8000CA4604B115B90020BDE8F087D4E90010C9
:100B9000884201D3002060602046FFF75BFF0746D4
:100BA000AF4203D20FB90020EEE73D46D4E9000181
:100BB000461AAE4200D92E466268E168881832466D
:100BC0005146FFF793FBB044606830446060AD1B52
:100BD00035B10AEB08012A46E068FFF787FB65603C
:100BE000D4E90010884201D30020606008EB0500C2
:100BF000CAE700002DE9F04F8DB004468A4616463C
:100C00009B4600BF3CB19A492069884203D199486C
:100C100090F8F40040B9492297A1A1A00EF062FA21
:100C200000200DB0BDE8F08F00BFBAF1090F72D0FF
:100C300006DCBAF1010F0AD0BAF1040F6CD10CE056
:100C4000BAF10A0F69D0BAF1110FF7D1ECE0012126
:100C5000204611F051FA0120E3E70C96204610F0EF
:100C60008DF80746204610F027F98046204610F000
:100C700041FD8146204610F00DFA054694F83800F3
:100C800000F08000F0B1206D10B1206D006808E028
:100C90002069006918B120690069006801E04FF01F
:100CA0007F400B90206D10B1206D406808E02069F6
:100CB000006918B120690069406801E04FF07F4089
:100CC0000A9044E094F8380000F00800F0B1206D7C
:100CD00010B1206D406808E02069006918B12069F2
:100CE0000069406801E04FF07F400B90206D10B12B
:100CF000206D006808E02069006918B1206900696A
:100D0000006801E04FF07F400A9020E0206D28B19C
:100D1000206D40680BE0A3E0A8E0A2E02069006934
:100D200018B120690069406801E04FF07F400A90E7
:100D3000206D10B1206D006808E02069006918B1CD
:100D400020690069006801E04FF07F400B9094F843
:100D5000380000F08000E0B1291F09B20B98CDE9FE
:100D60000010A9F1040003B208F1020002B2B81C9D
:100D700001B20C9800F071FF94F83800C0F3C00085
:100D80004B4642463946CDE900500C9801F04EF9E9
:100D900017E0B4F95A100B984B464246CDE9005182
:100DA000029039460C9800F06AFFB4F95A000A998B
:100DB0004B464246CDE90050029139460C9801F06D
:100DC00089F9204610F050FF60B303A800F002FE3E
:100DD000781C00B2ADF80C0008F1010000B2ADF8CB
:100DE0000E00A9F1020000B2ADF81000A81E00B27A
:100DF000ADF8120012208DF81400BDF81000ADF807
:100E00001A000A980790204610F0DAFB029020465C
:100E100010F0F8F803AB01900146029A0C9801F02B
:100E2000FDFA00BF0120FCE6354628780D2802D0E7
:100E300028780A2812D1606930B100231A460E21A1
:100E400020466769B84706E0206900231A460E214C
:100E5000C7682046B84700208BF800000120E0E674
:100E600000BF204610F0F0FD0120DAE60020D8E6B1
:100E70001CBA06086C0902202E2E5C30302D475516
:100E8000495F4C4942524152595C776964676574C5
:100E9000735C6775695F627574746F6E2E630000B2
:100EA00041737365727420706172616D206661694F
:100EB0006C656420696E2066696C6520257320610D
:100EC0006E64206C696E652025640D0A00000000C8
:100ED0002DE9F04F87B004460D4616461F46DDE962
:100EE00012ABDDE9108933462A46214604488DE8D5
:100EF000800F0FF01FFD0690069807B0BDE8F08F39
:100F00001CBA06082DE9F04F8FB004468946924678
:100F10009846B9F1040F06D0B9F10B0F7ED0B9F1A4
:100F20000E0F7CD180E1CDF838A020460FF026FFCF
:100F30000C9020460FF0C0FF8346204610F0DAFBED
:100F40000B90204610F0A6F80A9014250C9E0A99E2
:100F5000481B00EBD0710BEB61010FB294F8580005
:100F600000F0020078B1206D10B1206DC06808E07B
:100F70002069006918B120690069C06801E04FF07C
:100F80007F400D900EE0206D10B1206D006808E0EC
:100F90002069006918B120690069006801E04FF01C
:100FA0007F400D90A91E09B20D98CDE90010A81E32
:100FB00003B2781C02B2701C01B20E9800F04DFE14
:100FC00001202B463A463146CDE900500E9801F0FB
:100FD0002DF894F8380000F01000D0B1206D10B159
:100FE000206D406808E02069006918B12069006937
:100FF000406801E04FF07F40291F09B2CDE90010A1
:10100000281F03B2B81C02B2B01C01B20E9800F047
:10101000DEFF94F8580000F0010001E0F6E00EE178
:10102000002878D0206D10B1206D406808E020695C
:10103000006918B120690069406801E04FF07F4005
:101040007919491F09B2CDE900107019801F03B248
:10105000781D02B2301D01B20E9800F00DFF206D18
:1010600010B1206D406808E02069006918B120695E
:101070000069406801E04FF07F407919491F09B2CB
:10108000CDE900107019401F03B2381D02B2301DA7
:1010900001B20E9800F0F0FE206D10B1206D406896
:1010A00008E02069006918B120690069406801E022
:1010B0004FF07F407919891F09B2CDE900107019EE
:1010C000401F03B2381D02B2701D01B20E9800F02D
:1010D000D3FE206D10B1206D406808E020690069E2
:1010E00018B120690069406801E04FF07F40391D68
:1010F00009B2CDE900107019801F03B27819801F62
:1011000002B2301D01B20E9800F0B6FE206D18B18B
:10111000206D406809E034E02069006918B1206959
:101120000069406801E04FF07F40391D09B2CDE908
:1011300000107019401F03B27819401F02B2301D11
:1011400001B20E9800F098FE206D10B1206D40683D
:1011500008E02069006918B120690069406801E071
:101160004FF07F40791D09B2CDE900107019401F82
:1011700003B27819401F02B2701D01B20E9800F040
:101180007BFE204610F070FDE0B303A800F022FCC7
:101190007019401D00B2ADF80C000BF1010000B257
:1011A000ADF80E000B98401B401F00B2ADF81000C8
:1011B0000A98801E00B2ADF8120011208DF81400BC
:1011C000BDF81000ADF81A00206D10B1206D006957
:1011D00008E02069006918B120690069006901E030
:1011E0004FF07F400790204610F0EAF90290204629
:1011F0000FF008FF03AB01900146029A0E9801F030
:101200000DF900BF01200FB0BDE8F08F94F8580031
:1012100000F0020018B1012088F8000002E0002070
:1012200088F800000120EEE794F8580000F0010073
:1012300080F00101204612F00AFC0120E3E70020C3
:10124000E1E700002DE9F04F87B004460D46164651
:101250001F46DDE912ABDDE9108933462A462146F7
:1012600004488DE8800F0FF065FB0690069807B0E4
:10127000BDE8F08FB8BA060870B5044600BF3CB1AF
:101280000A492069884203D1094890F8F40030B92E
:10129000E42208A112A00DF025FF002070BD00BFC0
:1012A00094F8580000F001052846F7E7B8BA060898
:1012B0006C0902202E2E5C30302D4755495F4C4979
:1012C00042524152595C776964676574735C677513
:1012D000695F636865636B626F782E63000000006E
:1012E00041737365727420706172616D206661690B
:1012F0006C656420696E2066696C652025732061C9
:101300006E64206C696E652025640D0A0000000083
:1013100070B504460D4600BF3CB10B4920698842B8
:1013200003D10A4890F8F40030B9D82208A113A0DC
:101330000DF0D8FE002070BD00BF2946204612F0F7
:1013400086FB06463046F6E7B8BA06086C09022066
:101350002E2E5C30302D4755495F4C494252415248
:10136000595C776964676574735C6775695F636806
:1013700065636B626F782E630000000041737365D4
:10138000727420706172616D206661696C656420A1
:10139000696E2066696C6520257320616E64206C1F
:1013A000696E652025640D0A000000002DE9F041FA
:1013B00004460D46164600BF3CB10C4920698842E0
:1013C00003D10B4890F8F40038B9CC2209A114A03D
:1013D0000DF088FE0020BDE8F08100BF32462946AE
:1013E000204610F0EDFE07463846F4E7B8BA060886
:1013F0006C0902202E2E5C30302D4755495F4C4938
:1014000042524152595C776964676574735C6775D1
:10141000695F636865636B626F782E63000000002C
:1014200041737365727420706172616D20666169C9
:101430006C656420696E2066696C65202573206187
:101440006E64206C696E652025640D0A0000000042
:1014500070B504460D4600BF3CB10B492069884277
:1014600003D10A4890F8F40030B9F02208A113A083
:101470000DF038FE002070BD00BF2946204612F056
:10148000ADFB06463046F6E7B8BA06086C090220FE
:101490002E2E5C30302D4755495F4C494252415207
:1014A000595C776964676574735C6775695F6368C5
:1014B00065636B626F782E63000000004173736593
:1014C000727420706172616D206661696C65642060
:1014D000696E2066696C6520257320616E64206CDE
:1014E000696E652025640D0A000000002DE9FC5F8F
:1014F00004460D46164600BF3CB11F49206988428C
:1015000003D11E4890F8F40038B946221CA127A048
:101510000DF0E8FD0020BDE8FC9F00BF042D28D1A0
:10152000374620460FF02AFC814620460FF0C4FCC7
:101530008246204610F0DEF8834620460FF0AAFDD2
:101540008046206D10B1206D006808E020690069B8
:1015500018B120690069006801E04FF07F405B46E8
:1015600052464946CDE90080384600F076FB01201E
:10157000D1E70020CFE70000F0BB06086C0902208D
:101580002E2E5C30302D4755495F4C494252415216
:10159000595C776964676574735C6775695F636FCD
:1015A0006E7461696E65722E63000000417373652D
:1015B000727420706172616D206661696C6564206F
:1015C000696E2066696C6520257320616E64206CED
:1015D000696E652025640D0A000000002DE9F04FBA
:1015E00087B004460D4616461F46DDE912ABDDE91D
:1015F000108933462A46214604488DE8800F0FF0B3
:1016000099F90690069807B0BDE8F08FF0BB060880
:101610002DE9F04104460D461746984600BF3CB1FF
:1016200010492069884203D10F4890F8F40038B976
:1016300069220EA117A00DF055FD0020BDE8F08134
:1016400000BF012D0BD1A66802E030460EF03CFB36
:1016500030460EF061FB0028F7D10120EEE70020B4
:10166000ECE7000078BB06086C0902202E2E5C30E7
:10167000302D4755495F4C4942524152595C776978
:1016800064676574735C6775695F6469616C6F67D3
:101690002E63000041737365727420706172616D16
:1016A000206661696C656420696E2066696C6520DE
:1016B000257320616E64206C696E652025640D0AB7
:1016C000000000002DE9F04F87B004460D46164695
:1016D0001F46DDE912ABDDE910894BF0010033460E
:1016E0002A4621468DE88007049004480FF022F92D
:1016F0000690069807B0BDE8F08F000078BB06089A
:101700002DE9F04F85B004460D4616461F46DDE92B
:10171000109ADDF83C804FF0FF3004900E983B4665
:10172000324629468DE801072046FFF7CBFF834666
:10173000BBF1000F14D002E020460EF0C5FA20469F
:101740000EF0EAFA0028F7D100BF04F049FD204668
:101750000EF0E2FA0028F8D020460EF0B5FA049018
:10176000049805B0BDE8F08F2DE9F341044600264A
:1017700000BF3CB11A492069884203D1194890F84A
:10178000F40038B99F2218A121A00DF0ABFC002075
:10179000BDE8FC8100BF012110200EF037FE054698
:1017A000DDB1A068A8600198E860294624480EF0E1
:1017B0003BFC606930B1002301AA1621204667690D
:1017C000B84706E02069002301AA1621C768204611
:1017D000B847204610F030FC01263046D8E700001C
:1017E00078BB06086C0902202E2E5C30302D475540
:1017F000495F4C4942524152595C7769646765744C
:10180000735C6775695F6469616C6F672E63000064
:1018100041737365727420706172616D20666169D5
:101820006C656420696E2066696C65202573206193
:101830006E64206C696E652025640D0A000000004E
:10184000380402202DE9FC4107460D46164698460D
:10185000089C0120434632462946CDE9000438461B
:1018600000F021F80220CDE90004681E01B24346D1
:101870003246384600F017F80820CDE90004701E03
:1018800002B243462946384600F00DF80420CDE95F
:101890000004701E02B2681E01B24346384600F0D2
:1018A00002F8BDE8FC812DE9FC5F81460C46154637
:1018B0009846DDF830A0C8F101000FFA80FB012046
:1018C00001904FEA4800404200B20090002746468F
:1018D000A4EB0800B9F90410884211DCA5EB08005C
:1018E000B9F9061088420BDCB9F9000004EB0801D5
:1018F000884205DCB9F9020005EB0801884201DDE8
:10190000BDE8FC9F62E0BBF1000F09DB701E06B270
:101910000098801C00B20090009858440FFA80FB99
:10192000781C07B20198801C00B2019001985844BD
:101930000FFA80FB0AF0010078B1E81B02B2A01B8D
:1019400001B248460D9B00F0F9FCA81B02B2E01B57
:1019500001B248460D9B00F0F1FC0AF0020078B19C
:10196000A81B02B2E01901B248460D9B00F0E6FC4C
:10197000E81B02B2A01901B248460D9B00F0DEFC44
:101980000AF0040078B1A81902B2E01901B2484681
:101990000D9B00F0D3FCE81902B2A01901B2484631
:1019A0000D9B00F0CBFC0AF0080078B1A81902B238
:1019B000E01B01B248460D9B00F0C0FCE81902B2E2
:1019C000A01B01B248460D9B00F0B8FCB7429ADB61
:1019D00000BF95E710B504461C212046FEF79FFC8A
:1019E00010BD00002DE9FE4304460D4616461F4675
:1019F000DDE90A89B4F90400A8420EDBB4F9060057
:101A0000B0420ADBB4F90000E919884205DCB4F9F8
:101A1000020006EB0801884201DDBDE8FE83002FCD
:101A200002DDB8F1000F00DCF7E7B4F90000A842CE
:101A300005DD2088401B381A07B2B4F90050B4F90C
:101A40000200B04207DD6088801BA8EB00000FFA9F
:101A500080F8B4F90260E819B4F90410884202DD94
:101A6000A088401B07B206EB0800B4F906108842B4
:101A700003DDE088801B0FFA80F8002F14DDB8F139
:101A8000000F11DD09488DE880030069008B301AD2
:101A900003B206480069C08A281A02B203480169E5
:101AA000D0F844C0001DE04700BFB6E76C09022033
:101AB0002DE9FC4106460F4615469846089C012034
:101AC00043462A463946CDE90004304600F01FF867
:101AD000022043462A463946CDE90004304600F04C
:101AE00016F80820CDE90004681E02B243463946C4
:101AF000304600F00CF80420CDE90004681E02B264
:101B000043463946304600F002F8BDE8FC812DE935
:101B1000FF5F8246894614461F46DDE90EB8C7F1CD
:101B2000010000B20390012002907800404200B210
:101B3000019000263D46BAF9000009EB07018842F2
:101B40000FDCBAF90200E11988420ADCA9EB0700B0
:101B5000BAF90410884204DCE01BBAF90610884286
:101B600001DDBDE8FF9F74E0039800280ADB681ED2
:101B700005B20198801C00B20190019903980844B5
:101B800000B20390701C06B20298801C00B2029052
:101B9000DDE90210084400B203900BF00100A8B187
:101BA000601B02B2A9EB060001B233465046CDF8E5
:101BB000008000F01DF9A01B02B2A9EB050001B2E4
:101BC0002B465046CDF8008000F012F90BF00200D1
:101BD00088B1601B02B2334649465046CDF80080BA
:101BE00000F006F9A01B02B22B4649465046CDF83C
:101BF000008000F0FDF80BF00800A8B1A01902B2B7
:101C0000A9EB050001B22B465046CDF8008000F04C
:101C1000EFF8601902B2A9EB060001B23346504654
:101C2000CDF8008000F0E4F80BF0040088B1A019B2
:101C300002B22B4649465046CDF8008000F0D8F855
:101C4000601902B2334649465046CDF8008000F094
:101C5000CFF8AE4288DB00BF83E72DE9FC4704469E
:101C60000D4616461F46DDE90A893B46324629469F
:101C70002046CDE90089FFF7B5FEBDE8FC872DE9D8
:101C8000FC478246884691461E46DDE90B470A9D81
:101C900005EBD571B4EB610F05DB284605EBD07180
:101CA0004910491E0CB206EBD671B4EB610F05DB8F
:101CB000304606EBD0714910491E0CB2002C75D08D
:101CC000022000FB146000B200280CDD022000FBA3
:101CD000146003B208EB040001B24A465046CDE955
:101CE0000057FFF7BAFF022000FB145000B2002893
:101CF0001EDD022000FB145000B2CDE9000709EB05
:101D0000040002B2234641465046FFF7A6FF0220D8
:101D100000FB145000B2CDE9000709EB040002B249
:101D200008EB0600001B01B223465046FFF795FF63
:101D30000120CDE9000709EB040002B208EB040022
:101D400001B223465046FFF7E2FE0220CDE900072C
:101D500009EB040002B208EB0600001B401E01B2B2
:101D600023465046FFF7D3FE0820CDE9000709EBD4
:101D70000500001B401E02B208EB040001B223461E
:101D80005046FFF7C4FE0420CDE9000709EB05002B
:101D9000001B401E02B208EB0600001B401E01B2F1
:101DA00023465046FFF7B3FE08E0FFE733464A46B6
:101DB00041465046CDE90057FFF74FFFBDE8FC878D
:101DC0002DE9F04107460C46154608480069008B8E
:101DD000281A03B205480069C08A201A02B20348D3
:101DE0000169C66A001DB047BDE8F0816C09022098
:101DF0002DE9FC4104460D4617461E46DDF82080BD
:101E0000B4F90600B8420CDDB4F90200B84208DCAF
:101E1000B4F90400A84204DBA819B4F90010884200
:101E200001DABDE8FC81B4F90000A84205DD208894
:101E3000401B301A06B2B4F90050A819B4F90410C6
:101E4000884202DDA088401B06B20A48CDE900683E
:101E50000069008B381A03B206480069C08A281A44
:101E600002B204480169D0F83CC0001DE04700BF41
:101E7000D7E700006C0902202DE9FF4F8BB00F4619
:101E800090469946DDF860A000240025A346002076
:101E90000A900990089007900690002605900490FB
:101EA00003900290B9EB070002D4A9EB070001E010
:101EB000A7EB090004B2BAEB080002D4AAEB0800B1
:101EC00001E0A8EB0A0005B27CB919980090D04552
:101ED00001DA404600E0504602462B4639460B9850
:101EE00000F058FA0FB0BDE8F08F6DB91998009066
:101EF0004F4501DA384600E048460146234642464F
:101F00000B98FFF775FFEDE7BB46CDF82880B94584
:101F100003DB01200990089003E04FF0FF300990A7
:101F20000890C24503DB01200790069003E04FF0C4
:101F3000FF3007900690AC420CDB00200990069021
:101F40002646204604EBD071491009B2059104954C
:101F500003940BE00020089007902E46284605EBDE
:101F6000D071491009B205910494039500200290A4
:101F700027E05946199BDDE90A2000F0DFF9DDE989
:101F80000410084400B205900598B0420CDB059897
:101F9000801B00B20590099858440FFA80FB0799FE
:101FA0000A98084400B20A90089858440FFA80FB37
:101FB00006990A98084400B20A900298401C00B2A0
:101FC0000290DDE902018842D3DD00BF8AE72DE9F6
:101FD000F84381460F4690461D46DDE9086405B189
:101FE0000EB9BDE8F8832B46424639464846009470
:101FF000FFF7FEFE3346424639464846009400F05D
:10200000C9F908EB0600401E02B22B463946484685
:102010000094FFF7EDFE7819401E01B233464246A8
:102020004846009400F0B6F900BFDAE72DE9FF4F0B
:1020300083B00C4615461E46DDE9107A4FF07F4B03
:10204000BAF1000F04D1DFF884804FEAF87903E099
:10205000DFF87C80DFF8749033462A462146CDE9CC
:10206000007B0398FFF7B3FFB01E03B2681C02B2F7
:10207000601C01B2CDF800800398FFF7B9FEF81E8E
:1020800003B2681C02B2601C01B2CDF80080039854
:1020900000F080F9B01E03B2E819801E02B2601C85
:1020A00001B2CDF800900398FFF7A2FE381F03B2EB
:1020B000A019801E01B2A81C02B2CDF800900398AE
:1020C00000F068F907B0BDE8F08F0000AAAAAAFFE7
:1020D000555555FF2DE9FC478246884691461D46D9
:1020E000DDE90B470A9E06EBD671B4EB610F05DB09
:1020F000304606EBD0714910491E0CB205EBD57184
:10210000B4EB610F05DB284605EBD0714910491E81
:102110000CB2002C73D0022000FB145003B208EB69
:10212000040001B24A4650460097FFF761FE0220C4
:1021300000FB146003B209EB040002B208EB0500D7
:10214000401E01B25046009700F024F9022000FB27
:10215000145003B209EB0600401E02B208EB040063
:1021600001B250460097FFF743FE022000FB1460C7
:1021700003B209EB040002B241465046009700F05A
:1021800009F90120CDE9000709EB040002B208EBD0
:10219000040001B223465046FFF785FB0220CDE93B
:1021A000000709EB040002B208EB0500001B401E0B
:1021B00001B223465046FFF776FB0820CDE9000721
:1021C00009EB0600001B401E02B208EB040001B23E
:1021D00023465046FFF767FB0420CDE9000709EBD3
:1021E0000600001B401E02B208EB0500001B401E4B
:1021F00001B223465046FFF756FB08E0FFE72B46A7
:102200004A4641465046CDE90067FFF7E0FEBDE88B
:10221000FC8700002DE9FC4781460C464FF0000A80
:10222000B4F90480B4F904004000032190FBF1F0FC
:1022300005B20020CDE90050B4F90220B4F9001035
:1022400043464846FFF7F2FE3749281F00B2CDE962
:102250000001A8F1040003B26088801C02B220884B
:10226000801C01B24846FFF7F8FC0020CDE9005081
:102270006088E3881844401B02B2B4F9001043465A
:102280004846FFF7D3FE2849281F00B2CDE90001D8
:102290006088B4F806C06044401B801C02B2A8F1FC
:1022A000040003B22088801C01B24846FFF7D5FC29
:1022B000B4F90600022101FB150007B21A48CDE966
:1022C0000070B4F904306088284402B2B4F90010F8
:1022D0004846FFF7C2FCD4E90310884213D22069B4
:1022E0007843E168B0FBF1F006B2062E00DA06266C
:1022F000B81B61694843D4E90312891AB0FBF1F0B5
:102300000FFA80FA00E03E460020CDE90060B4F903
:10231000043060882844504402B2B4F900104846A2
:10232000FFF784FEBDE8FC87848484FF10B5044673
:1023300018212046FDF7F3FF10BD0000F8B5044654
:102340000D4616461F46B4F90200B0420BDCB4F944
:102350000600B04207DDB4F90000A84203DCB4F97E
:102360000400A84200DCF8BD094800970069008B12
:10237000301A03B206480069C08A281A02B204481B
:102380000169D0F828C0001DE04700BFEBE700005E
:102390006C0902202DE9FC4104460F4615461E46F5
:1023A000DDF82080B4F90400B8420CDDB4F9000077
:1023B000B84208DCB4F90600A84204DBA819B4F955
:1023C0000210884201DABDE8FC81B4F90200A8429B
:1023D00005DD6088401B301A06B2B4F90250A81916
:1023E000B4F90610884202DDE088401B06B20A48B4
:1023F000CDE900680069008B281A03B2064800691D
:10240000C08A381A02B204480169D0F840C0001DE1
:10241000E04700BFD7E700006C0902202DE9F04F2C
:102420008FB08146884692461C461C2106A8FDF7BF
:1024300076FF608910B998F804006081CDF830808B
:102440000B94207BC0F3C0000890514603A805F010
:1024500001F9002203A906A811F000FFBDF91C0034
:10246000B4F90410884211DD207B00F0020050B165
:10247000514603A805F0EEF8224603A9404611F0A4
:10248000B4FE824602E0A088ADF81C00B4F90060FA
:10249000B4F90250207A00F0100050B1B4F90610DF
:1024A000BDF91E20881A00EBD07105EB61010DB259
:1024B00009E0207A00F0200028B1E088BDF81E1065
:1024C000401A284405B2B4F90200A84201DDB4F96B
:1024D0000250208B281A05B2207B00F0040070B156
:1024E000089860B1BDF91E00B4F90610884206DDF7
:1024F0006088E1880844BDF81E10401A05B25146B4
:1025000003A805F0A7F85DE0B4F90060207A00F0B8
:10251000020050B1B4F90410BDF91C20881A00EB78
:10252000D07106EB61010EB209E0207A00F00400E0
:1025300028B1A088BDF81C10401A304406B229E02A
:102540000A9800B926E00A98401E0A90B9F90400DA
:10255000B04200DA1EE00E980D2802D00E980A282C
:1025600001D1202000E00E980E9040460E9911F007
:10257000FBFD071E00D10DE033462246414648468A
:10258000CDE900570DF0DCF838783979084430444B
:1025900006B200BFBBF10000ABF1010B06D00DAAE3
:1025A0000EA903A804F08EFF0028C9D16089284431
:1025B00005B2207B00F0040018B1B9F90600A8426A
:1025C00000DA07E0012203A906A811F047FEB0F1E6
:1025D000000B99D100BF0FB0BDE8F08F2DE9F0419D
:1025E00004460E46002700BF3CB1164920698842C8
:1025F00003D1154890F8F40040B940F2172213A116
:102600001DA00CF06FFD0020BDE8F08100BF01218E
:102610000C200DF0FBFE054695B1AE60294604F195
:1026200064000DF001FDB4F85C00401C00B2A4F899
:102630005C0020460CF027FF20460FF005FA01272A
:102640003846E1E740BB06086C0902202E2E5C30BC
:10265000302D4755495F4C4942524152595C776988
:1026600064676574735C6775695F64726F70646FCB
:10267000776E2E63000000004173736572742070E2
:102680006172616D206661696C656420696E2066A7
:10269000696C6520257320616E64206C696E65200D
:1026A00025640D0A000000002DE9FF4F91B004469B
:1026B0001646994612980B2870D008DC01280FD0D6
:1026C00004281CD006286AD0082869D196E20C2874
:1026D00067D00E287ED011287DD01528F5D1ABE229
:1026E0004FF0FF3024F85E0F1E20E081207C40F088
:1026F000040020745E3C012015B0BDE8F08FB046A8
:1027000020460EF03BFB074620460EF0D5FB10900E
:1027100020460EF0EFFF054620460EF0BBFC0F9062
:1027200094F86E0000F00100002865D00DA80EABF3
:102730000FAA10A90090204610F025FB0120BDF93A
:1027400034102B46CDE90010BDF9382039464046FB
:10275000FFF76CFC206D10B1206D006808E0206967
:10276000006918B120690069006801E04FF07F40FE
:10277000BDF83410091F09B2CDE90010281F03B2BB
:10278000BDF83800801C02B2B81C01B24046FFF709
:1027900064FA206D30B1206D00680CE0EFE1D8E103
:1027A00053E2F5E12069006918B120690069006809
:1027B00001E04FF07F40BDF83C10091F09B2CDE9A0
:1027C0000010281F03B2BDF84000801C02B2B81CE4
:1027D00001B201E001E217E24046FFF73EFA0120B4
:1027E000BDF93C102B46CDE90010BDF9402039461B
:1027F0004046FFF71BFC30E0BDF940000E90BDF9EC
:102800003C000D900020BDF93C102B46CDE9001096
:10281000BDF9402039464046FFF708FC206D10B155
:10282000206D006808E02069006918B1206900691E
:10283000006801E04FF07F40BDF83C10091F09B26D
:10284000CDE90010281F03B2BDF84000801C02B281
:10285000B81C01B24046FFF700FAB4F95E00002848
:1028600051DBE06BC0B306A8FFF7B4F8002104F118
:1028700064000DF0EBFB83464FF0000A08E0594678
:1028800000200DF0E3FB83460AF101000FFA80FA05
:10289000B4F95E005045F2DCF81C00B2ADF8180047
:1028A000BDF83800C01C00B2ADF81A00A81F00B275
:1028B000ADF81C00BDF83400801F00B2ADF81E005A
:1028C00011208DF82000BDF81C00ADF82600206D09
:1028D00018B1206D406809E015E02069006918B161
:1028E00020690069406801E04FF07F400A9020466F
:1028F0000EF088FB059006AB01464046DBF8082049
:10290000FFF78CFD00BF94F86E0000F0010088B363
:1029100094F86E0000F0020060B35C34208A281A3C
:1029200005B207A8FFF702FD7819401E00B2ADF806
:102930001C00BDF84000401C00B2ADF81E00208A0B
:10294000ADF82000BDF83C00801E00B2ADF82200BA
:1029500000208DF82400B4F904000C9034F95C09CF
:102960000A90204610F03AFC0B9007A94046FFF76A
:1029700051FC02E0FFE7681E05B294F86E0000F01B
:102980000100002870D0E06B0028FBD0606E0028AA
:10299000F8D00020049005A9204610F0D9FB83460A
:1029A00006A8FFF717F8381D00B2ADF81800BDF8FB
:1029B0004000801C00B2ADF81A00A81F00B2ADF8AC
:1029C0001C000FFA8BF0ADF81E0011208DF82000CE
:1029D000BDF81C00ADF82600B8F906000390B8F960
:1029E0000600BDF94010BDF93C201144884207DDC6
:1029F000BDF84000BDF83C10084400B2A8F806003D
:102A000000200490002104F164000DF01FFB8246B9
:102A10008FE0B4F960100498814200DD80E0B4F9E1
:102A20005E10049881425AD194F8380000F01000EA
:102A300070B1206D10B1206D006918E02069006947
:102A400018B120690069006911E04FF07F400EE085
:102A5000206D10B1206D406909E02069006920B146
:102A600020690069406902E071E04FF07F40BDF9E4
:102A70001E10594502DABDF91E1000E0594609B290
:102A8000CDE90010E81E03B2BDF91A20B81C01B24E
:102A90004046FFF7E2F894F8380000F0100070B1FB
:102AA000206D10B1206D806817E02069006918B1B1
:102AB00020690069806810E04FF07F400DE0206DD4
:102AC00010B1206DC06808E02069006918B1206964
:102AD0000069C06801E04FF07F400A900EE0206D71
:102AE00010B1206D406808E02069006918B12069C4
:102AF0000069406801E04FF07F400A9020460EF0E8
:102B000081FA029006AB01464046DAF80820FFF74A
:102B100085FCBDF81A00584400B2ADF81A0000BF99
:102B2000514600200DF092FA82460498401C80B273
:102B30000490BAF1000F06D0BDF91A00B8F90610DA
:102B400088427FF766AF0398A8F8060000BF01200F
:102B5000D2E505E000BF28460DF060FC002500BF6F
:102B6000002104F164000DF071FA0746394604F1C2
:102B700064000DF047FB051EECD10120BCE5314699
:102B8000888A334A1080002089F800000120B3E5CC
:102B90003746E06BF8B10021204610F0D9FA0FFA61
:102BA00080F8B88A2A490988081A05B2002D01DB85
:102BB000284600E0684240450CDD002D01DD012083
:102BC00001E04FF0FF300146204611F05DFAB88A6F
:102BD0001F49088000BF01208EE5354694F86E003D
:102BE00000F0010020B90121204610F02EFB03E087
:102BF0002946204610F0ADFB01207DE5002120464E
:102C000010F023FB012077E535462878022807D10C
:102C10000121204610F03BF9002089F8000009E06E
:102C20002878012806D1811E204610F030F90020B6
:102C300089F8000001205FE5B6F90010204610F089
:102C400026F9012089F8000056E5002054E500002F
:102C5000340402202DE9F04F87B004460D46164695
:102C60001F46DDE912ABDDE9108933462A462146CD
:102C700004488DE8800F0DF05DFE0690069807B0C1
:102C8000BDE8F08F40BB060870B504460D4600262F
:102C900000BF3CB119492069884203D1184890F817
:102CA000F40038B940F22D2216A121A00CF01AFA36
:102CB000002070BD00BF94F86E0000F00100D8B98C
:102CC00094F86E0000F0080040B13DB994F86E0031
:102CD00000F0080084F86E0001260DE094F86E0004
:102CE00000F0080040B9012D06D194F86E0040F0C4
:102CF000080084F86E0001263046DAE740BB06087B
:102D00006C0902202E2E5C30302D4755495F4C490E
:102D100042524152595C776964676574735C6775A8
:102D2000695F64726F70646F776E2E6300000000DD
:102D300041737365727420706172616D20666169A0
:102D40006C656420696E2066696C6520257320615E
:102D50006E64206C696E652025640D0A0000000019
:102D600070B504460D4600BF3CB119492069884240
:102D700003D1184890F8F40038B94FF41D7216A129
:102D800020A00CF0AFF9002070BD00BF75B194F821
:102D90006E0000F0040048B994F86E0040F00400A2
:102DA00084F86E0020460EF04FFE0EE06DB994F8E8
:102DB0006E0000F0040040B194F86E0020F00400B2
:102DC00084F86E0020460EF03FFE0120DCE7000094
:102DD00040BB06086C0902202E2E5C30302D475572
:102DE000495F4C4942524152595C77696467657446
:102DF000735C6775695F64726F70646F776E2E6362
:102E00000000000041737365727420706172616D1F
:102E1000206661696C656420696E2066696C652056
:102E2000257320616E64206C696E652025640D0A2F
:102E30000000000070B504460D46002600BF3CB1FE
:102E40001C492069884203D11B4890F8F40038B926
:102E500040F2862219A124A00CF044F9002070BD94
:102E600000BF94F86E0000F0040000BB7DB194F840
:102E70006E0000F0020050B994F86E0040F00200BD
:102E800084F86E0020460EF0DFFD01260FE075B9D4
:102E900094F86E0000F0020048B194F86E0020F043
:102EA000020084F86E0020460EF0CEFD012630466A
:102EB000D5E7000040BB06086C0902202E2E5C30CE
:102EC000302D4755495F4C4942524152595C776910
:102ED00064676574735C6775695F64726F70646F53
:102EE000776E2E630000000041737365727420706A
:102EF0006172616D206661696C656420696E20662F
:102F0000696C6520257320616E64206C696E652094
:102F100025640D0A000000002DE9F04F8BB0044637
:102F20008B4691469A4600BF3CB17D492069884254
:102F300003D17C4890F8F40040B953227AA185A0CF
:102F40000CF0D0F800200BB0BDE8F08F00BFBBF153
:102F5000080F7DD009DCBBF1010F0DD0BBF1040FD0
:102F600011D0BBF1070F74D1BFE0BBF10B0F71D0D3
:102F7000BBF1110FF7D1C6E0102084F859000120F1
:102F800084F85A00DFE7CDF8289020460DF0F6FED1
:102F9000054620460DF090FF064620460EF0AAFB9F
:102FA000074620460EF076F8804601203B46324622
:102FB0002946CDE900800A98FFF738F8206D10B156
:102FC000206D006808E02069006918B12069006977
:102FD000006801E04FF07F40A8F1040109B2CDE99B
:102FE0000010381F03B2B01C02B2A81C01B20A982C
:102FF000FEF733FE94F8380000F01000D8B1206DD1
:1030000010B1206D806808E02069006918B120695E
:103010000069806801E04FF07F40A8F1060109B225
:10302000CDE90010B81F03B2F01C02B2E81C01B2D7
:103030000A98FEF7CCFF20460EF016FE78B303A8E0
:10304000FEF7C8FC681D00B2ADF80C00701D02E070
:1030500050E063E052E000B2ADF80E00A7F10A00C4
:1030600000B2ADF81000A8F10A0000B2ADF81200ED
:1030700094F85A0094F8591008438DF81400BDF8DC
:103080001000ADF81A00206D10B1206D406809E005
:103090002069006920B120690069406802E022E0EF
:1030A0004FF07F4007909DF8180040F00A008DF81F
:1030B000180094F8580000F0010028B19DF818009D
:1030C00040F004008DF8180020460EF079FA0290C6
:1030D00020460DF097FF03AB01900146029A0A9833
:1030E000FFF79CF900BF01202DE720460CF046FFBA
:1030F000012028E70CF0F6FE012024E700208AF8E2
:10310000000001201FE74D46294620460EF08AFEAA
:1031100010B100208AF80000012014E7002012E717
:1031200040BA06086C0902202E2E5C30302D47551F
:10313000495F4C4942524152595C776964676574F2
:10314000735C6775695F65646974746578742E6310
:103150000000000041737365727420706172616DCC
:10316000206661696C656420696E2066696C652003
:10317000257320616E64206C696E652025640D0ADC
:10318000000000002DE9F04F87B004460D461646BA
:103190001F46DDE912ABDDE9108933462A46214698
:1031A00004488DE8800F0DF0C5FB0690069807B027
:1031B000BDE8F08F40BA060870B504460D460126FA
:1031C00000BF3CB115492069884203D1144890F8EA
:1031D000F40030B9BE2213A11DA00BF083FF002024
:1031E00070BD00BF5DB194F8580000F0010030B927
:1031F00094F8580040F0010084F858000BE055B9ED
:1032000094F8580000F0010028B194F8580020F01C
:10321000010084F858003046E2E7000040BA060892
:103220006C0902202E2E5C30302D4755495F4C49E9
:1032300042524152595C776964676574735C677583
:10324000695F65646974746578742E6300000000BA
:1032500041737365727420706172616D206661697B
:103260006C656420696E2066696C65202573206139
:103270006E64206C696E652025640D0A00000000F4
:1032800070B504460D4600BF3CB10D492069884227
:1032900003D10C4890F8F40030B9CC220AA115A053
:1032A0000BF020FF002070BD00BF94F85900A84229
:1032B00004D084F8595020460EF02EFC0120F2E78D
:1032C00040BA06086C0902202E2E5C30302D47557E
:1032D000495F4C4942524152595C77696467657451
:1032E000735C6775695F65646974746578742E636F
:1032F0000000000041737365727420706172616D2B
:10330000206661696C656420696E2066696C652061
:10331000257320616E64206C696E652025640D0A3A
:103320000000000070B504460D4600BF3CB10E49D8
:103330002069884203D10D4890F8F40038B94FF461
:10334000BB720BA114A00BF0CDFE002070BD00BF1E
:10335000294604F158000CF0C2FE214628460CF024
:10336000BEFE0120F2E70000F8B906086C09022051
:103370002E2E5C30302D4755495F4C494252415208
:10338000595C776964676574735C6775695F6772B8
:103390006170682E63000000417373657274207061
:1033A0006172616D206661696C656420696E20667A
:1033B000696C6520257320616E64206C696E6520E0
:1033C00025640D0A000000002DE9FF4F2DED0A8B4A
:1033D0008BB0044616980B2875D006DC01280BD05C
:1033E000042833D006286FD1F5E30C286DD00D28C2
:1033F0006CD01028F7D1EFE30520A4F86000052178
:10340000622001536420015366200153B2EE040A86
:1034100084ED1C0ABAEE040A84ED1B0AB2EE040A1B
:1034200084ED1E0ABBEE040A84ED1D0A20460CF052
:103430008BFC082084F868000A2084F869000120C9
:103440000BB0BDEC0A8B04B0BDE8F08F179DB4F94A
:1034500060B0B4F962000990B4F964000890B4F95E
:10346000667020460DF08AFC804620460DF024FD53
:10347000079020460EF03EF9069020460DF00AFE19
:103480008246206D10B1206D006808E02069006957
:1034900018B120690069006801E04FF07F403B46A9
:1034A000CDE900A041462846079AFEF7D6FB206DDD
:1034B00010B1206D00680CE02069006938B1206906
:1034C0000069006805E002E3F4E31CE3F3E34FF076
:1034D0007F40CDE900B00698C21B0998101A03B2CC
:1034E00008EB070001B22846079AFEF7B6FB206DED
:1034F00010B1206D006808E02069006918B12069EA
:103500000069006801E04FF07F400899CDE90010A4
:103510000698A0EB070C0998ACEB000003B20798E3
:1035200000EB0A0CACEB010002B208EB070001B2A1
:103530002846FEF792FB206D10B1206D006808E070
:103540002069006918B120690069006801E04FF046
:103550007F40CDE900A0069808EB00020998101AF8
:1035600001B22846099B079AFEF777FB206D10B140
:10357000206D406808E02069006918B12069006981
:10358000406801E04FF07F40AAEB0B020899511A06
:1035900009B2CDE900100698A0EB070C0998ACEB36
:1035A000000003B20798584402B208EB070001B2CA
:1035B0002846FEF752FB206D10B1206D806808E0B0
:1035C0002069006918B120690069806801E04FF046
:1035D0007F40CDE900A041462846DDE90632FEF7EE
:1035E000F6FC94F86800E0B3AAEB0B010898081AFF
:1035F00000EE100AF8EEC00A94F8680000EE100A17
:10360000B8EE400A80EE801AB0EE418A01200590A3
:1036100032E0206D10B1206DC06808E020690069BB
:1036200018B120690069C06801E04FF07F40009048
:103630000798584400EE100AF8EEC00A9DED050AFE
:10364000B8EE400A40EE080ABDEEE00A10EE100A9D
:1036500002B20698A0EB070C0998ACEB000003B28D
:1036600000E00FE008EB070001B22846FEF7C0FBC0
:103670000598401CC0B2059094F8681005988142E6
:10368000C7DC00BF94F86900F0B30698C11B099825
:10369000081A00EE100AF8EEC00A94F8690000EE6D
:1036A000100AB8EE400A80EE801AB0EE418A01207E
:1036B000059031E0206D10B1206DC06808E02069F0
:1036C000006918B120690069C06801E04FF07F40CF
:1036D000009008EB070000EE100AF8EEC00A9DED1E
:1036E000050AB8EE400A40EE080ABDEEE00A10EE08
:1036F000100A01B2AAEB0B0C0898ACEB000003B265
:103700000798584402B200E00CE02846FEF742FE5B
:103710000598401CC0B2059094F869100598814244
:10372000C8DC00BFA06D002874D094ED200AD4ED51
:103730001F0A30EE600AB0EE40CA94ED220AD4EDC2
:10374000210A30EE600AF0EE40CA0698C11B0998C3
:10375000081A00EE100AB8EEC00AC0EE0C0AB0EE6D
:1037600060AAAAEB0B010898081A00EE100AB8EE3E
:10377000C00AC0EE2C0AB0EE60BA079800EB0A014E
:103780000898081A401E00B208EE900A08EB0700DD
:1037900000B209EE900A286803906868049008EB6C
:1037A0000700B5F90010884203DD08EB070000B2FE
:1037B0002880069808EB00010998081AB5F904104A
:1037C000884206DA069808EB00010998081A00B248
:1037D000A88007985844B5F90210884203DD07987D
:1037E000584400B26880079800EB0A010898091A4B
:1037F000B5F90600814206DA079800EB0A0108983D
:10380000081A00B2E880002104F158000CF0DAFC3C
:103810000A9051E159E10A9810B10A98806800E0D5
:1038200000200646D6F8109030690290307EE0BB4A
:10383000D4ED1F0AB8EEE90A00EECA0AB0EE408ADB
:10384000B06830F9190000EE100AB8EEC00AD4EDE5
:10385000210A70EE600AB8EEE80A00EECB0AF0EE3C
:1038600040BA09F101008146F168884201D14FF068
:103870000009B5F9040000EE100AB8EEC00AB4EE73
:10388000C80AF1EE10FA14D396ED030AF8EE400AD6
:10389000B0EE480A00EE8A0AB5F9000000EE900A80
:1038A000F8EEE00AB4EEE00A00E07AE0F1EE10FA99
:1038B00000D2FCE066E038EE0A0AB0EE409AB0684A
:1038C00030F9190000EE100AB8EEC00AD4ED210A52
:1038D00070EE600AB8EEE80A00EECB0AF0EE40AAFD
:1038E000B5F9000000EE100AB8EEC00AB4EEC80A3E
:1038F000F1EE10FA0AD9B5F9000000EE100AB8EEA0
:10390000C00AB4EEC90AF1EE10FA2FD8B5F90400D6
:1039100000EE100AB8EEC00AB4EEC80AF1EE10FAD2
:103920000ADCB5F9040000EE100AB8EEC00AB4EEE5
:10393000C90AF1EE10FA19DDBDEEEA0A10EE101A0E
:1039400009B27069BDEEC90ACDE9001010EE100A87
:1039500003B2BDEEEB0A10EE100A02B2BDEEC80AC9
:1039600010EE100A01B22846FEF786FAB0EE498A38
:10397000F0EE6ABA09F101008146F168884201D18E
:103980004FF00009029881450AD0B5F9040000EE15
:10399000100AB8EEC00AB4EEC80AF1EE10FA8ADADC
:1039A00084E0307E01287DD14FEA4900B16831F9C9
:1039B000100000EE100AB8EEC00AD4ED1F0A70EE37
:1039C000600AB8EEE90A00EE8A0AB0EE408A4FEAD1
:1039D0004900401CB16831F9100000EE100AB8EE41
:1039E000C00AD4ED210A70EE600AB8EEE80A00EED3
:1039F000CB0AF0EE40BA09F101008146F168884235
:103A000001D14FF000094CE04FEA4900B16831F9AB
:103A1000100000EE100AB8EEC00AD4ED1F0A70EED6
:103A2000600AB8EEE90A00EE8A0AB0EE409A4FEA60
:103A30004900401CB16831F9100000EE100AB8EEE0
:103A4000C00AD4ED210A70EE600AB8EEE80A00EE72
:103A5000CB0AF0EE40AABDEEEA0A10EE101A09B247
:103A60007069BDEEC90ACDE9001010EE100A03B26C
:103A7000BDEEEB0A10EE100A02B2BDEEC80A10EE5F
:103A8000100A01B22846FEF7F7F9B0EE498AF0EEC7
:103A90006ABA09F101008146F168884201D14FF00C
:103AA000000900E002E002988145ADD100BF00208E
:103AB0000A990CF087FB0A900A9800287FF4ABAEB5
:103AC000039828600498686000BF0120B8E4179A42
:103AD000002100BF0FE002F1100030F81100894B07
:103AE00023F8110002F1140030F81100864B23F87E
:103AF0001100481CC1B210788842ECDC00231898F1
:103B0000037001209CE4179D2878012865D1B5F940
:103B10001070B5F9148020460DF0ECFDB4F9661074
:103B2000411AB4F96200081A00EE100AB8EEC00A91
:103B3000D4ED200A94ED1F1A70EEC10A80EE201A0F
:103B4000F0EE418A6F48B0F90000381A00EE100A12
:103B5000B8EEC00AC0EE280AB0EE608A94ED1F0AE3
:103B600030EE480A84ED1F0A94ED200A30EE480A30
:103B700084ED200A20460DF08DFAB4F96010411A48
:103B8000B4F96400081A00EE100AB8EEC00AD4EDC9
:103B9000220A94ED211A70EEC10A80EE201AF0EE8E
:103BA000418A5948B0F90000A8EB000000EE100A65
:103BB000B8EEC00AC0EE280AB0EE608A94ED210A81
:103BC00030EE080A84ED210A94ED220A30EE080A4C
:103BD00084ED220A54E079E070E0287802284FD181
:103BE000B5F9160002EE100AB8EEC22AF0EE421A3B
:103BF000B5F9120002EE100AB8EEC22AB0EE421A6F
:103C0000B5F9140002EE100AB8EEC22AF0EE420A2C
:103C1000B5F9100002EE100AB8EEC22AB0EE420A60
:103C200009A90AA801F0E2FF95ED070AD5ED080AF7
:103C300080EE201AB0EE419A20460DF02BFA00EEED
:103C4000100AB8EEC00ADDED090A80EE801AF0EE27
:103C5000419A20460DF04EFD00EE100AB8EEC00A63
:103C6000DDED0A0A80EE801AB0EE41AAB0EE691AC4
:103C7000F0EE4A0AB0EE490A20460CF076F800BF92
:103C800000260FE005F1100030F816001D4921F85C
:103C9000160005F1140030F816001B4921F8160033
:103CA000701CC6B22878B042ECDC20460DF0CCFE89
:103CB00001200BE723E0FFE7012007E720460CF097
:103CC00043F820460DF0C0FE0120FFE6002104F17C
:103CD00058000CF077FA05460DE00DB1A86800E039
:103CE00000200646214630460CF00CFA29460020FA
:103CF0000CF068FA0546002DEFD10120E6E6002021
:103D0000E4E600002A0402202E0402202DE9F04FF0
:103D100087B004460D4616461F46DDE912ABDDE9C5
:103D2000108933462A46214604488DE8800F0CF05E
:103D300001FE0690069807B0BDE8F08FF8B90608B6
:103D400070B504460E46154600BF1CB1174890F8E2
:103D5000F40038B94FF4017215A11FA00BF0C2F99D
:103D6000002070BD00BF207E20B92169A06820F826
:103D700011500DE0207E01280AD120694000A16881
:103D800021F8106020694000401CA16821F8105003
:103D90002069401C2061D4E90310884201D300202F
:103DA0002061204608F04CF90120DAE76C09022076
:103DB0002E2E5C30302D4755495F4C4942524152BE
:103DC000595C776964676574735C6775695F67726E
:103DD0006170682E63000000417373657274207017
:103DE0006172616D206661696C656420696E206630
:103DF000696C6520257320616E64206C696E652096
:103E000025640D0A0000000070B506460D4601212C
:103E10001C200CF0FBFA0446ACB12676E5602EB906
:103E2000680001210CF0F2FAA06004E0A800012172
:103E30000CF0ECFAA060A06828B900BF20460CF096
:103E4000EDFA002400BF204670BD000010B52DED36
:103E5000028B0446B0EE408A00BF3CB11049206995
:103E6000884203D10F4890F8F40048B940F2AF12ED
:103E70000DA117A00BF036F90020BDEC028B10BD90
:103E800000BF94ED1C0AB4EE480AF1EE10FA04D01B
:103E900084ED1C8A20460DF0D7FD0120EDE70000DF
:103EA000F8B906086C0902202E2E5C30302D4755DB
:103EB000495F4C4942524152595C77696467657465
:103EC000735C6775695F67726170682E63000000DC
:103ED00041737365727420706172616D20666169EF
:103EE0006C656420696E2066696C652025732061AD
:103EF0006E64206C696E652025640D0A0000000068
:103F000010B52DED028B0446B0EE408A00BF3CB1E7
:103F100010492069884203D10F4890F8F40048B94D
:103F200040F2C9120DA117A00BF0DCF80020BDEC87
:103F3000028B10BD00BF94ED1E0AB4EE480AF1EEEC
:103F400010FA04D084ED1E8A20460DF07DFD01207C
:103F5000EDE70000F8B906086C0902202E2E5C304F
:103F6000302D4755495F4C4942524152595C77695F
:103F700064676574735C6775695F67726170682EEA
:103F80006300000041737365727420706172616D2B
:103F9000206661696C656420696E2066696C6520C5
:103FA000257320616E64206C696E652025640D0A9E
:103FB0000000000010B52DED028B0446B0EE408AE3
:103FC00000BF3CB110492069884203D10F4890F8E6
:103FD000F40048B94FF4D1720DA117A00BF082F88C
:103FE0000020BDEC028B10BD00BF94ED1B0AB4EEA7
:103FF000480AF1EE10FA04D084ED1B8A20460DF039
:1040000023FD0120EDE70000F8B906086C09022045
:104010002E2E5C30302D4755495F4C49425241525B
:10402000595C776964676574735C6775695F67720B
:104030006170682E630000004173736572742070B4
:104040006172616D206661696C656420696E2066CD
:10405000696C6520257320616E64206C696E652033
:1040600025640D0A0000000010B52DED028B0446FA
:10407000B0EE408A00BF3CB110492069884203D1AC
:104080000F4890F8F40048B94FF4DE720DA117A064
:104090000BF028F80020BDEC028B10BD00BF94EDA2
:1040A0001D0AB4EE480AF1EE10FA04D084ED1D8A20
:1040B00020460DF0C9FC0120EDE70000F8B9060824
:1040C0006C0902202E2E5C30302D4755495F4C493B
:1040D00042524152595C776964676574735C6775D5
:1040E000695F67726170682E6300000041737365D9
:1040F000727420706172616D206661696C65642004
:10410000696E2066696C6520257320616E64206C81
:10411000696E652025640D0A0000000010B52DEDC4
:10412000048B0446B0EE408BB0EE419A00BF3CB128
:104130000E492069884203D10D4890F8F40048B92F
:1041400040F2E1120BA115A00AF0CCFF0020BDEC5B
:10415000048B10BD00BFB0EE491AF0EE680AB0EE55
:10416000480A20460BF001FE0120F0E7F8B90608E6
:104170006C0902202E2E5C30302D4755495F4C498A
:1041800042524152595C776964676574735C677524
:10419000695F67726170682E630000004173736528
:1041A000727420706172616D206661696C65642053
:1041B000696E2066696C6520257320616E64206CD1
:1041C000696E652025640D0A0000000010B50446E4
:1041D00000BF3CB10C492069884203D10B4890F8DC
:1041E000F40038B94FF4EB7209A113A00AF07AFF7A
:1041F000002010BD00BF20460BF0A6FD20460DF0AC
:1042000023FC0120F5E70000F8B906086C0902203C
:104210002E2E5C30302D4755495F4C494252415259
:10422000595C776964676574735C6775695F677209
:104230006170682E630000004173736572742070B2
:104240006172616D206661696C656420696E2066CB
:10425000696C6520257320616E64206C696E652031
:1042600025640D0A0000000010B5044600BF1CB113
:104270000C4890F8F40030B958220BA113A00AF0B2
:1042800031FF002010BD00BF06480068A0600C226E
:1042900021461A48FCF76DFC08B10120F2E7002026
:1042A000F0E700006C0902202E2E5C30302D4755BF
:1042B000495F4C4942524152595C696E7075745C59
:1042C0006775695F696E7075742E630041737365FD
:1042D000727420706172616D206661696C65642022
:1042E000696E2066696C6520257320616E64206CA0
:1042F000696E652025640D0A00000000980C0220FC
:1043000010B5044600BF1CB10C4890F8F40030B959
:1043100044220BA113A00AF0E5FE002010BD00BF4F
:1043200006480068E060102221461A48FCF721FC8C
:1043300008B10120F2E70020F0E700006C0902203C
:104340002E2E5C30302D4755495F4C494252415228
:10435000595C696E7075745C6775695F696E7075BC
:10436000742E630041737365727420706172616DA5
:10437000206661696C656420696E2066696C6520E1
:10438000257320616E64206C696E652025640D0ABA
:1043900000000000DC0B02207FB5F8213448FBF759
:1043A000BEFF0120039003AB314A20320021A2F16D
:1043B0001C0001F07FFB2E48016A001D88472C4835
:1043C0004069002846D000241FE000212848806969
:1043D000C4EBC40200EB8200C18225488069C4EBB3
:1043E000C40200EB82000183214881888069C4EB0C
:1043F000C40200EB820041821D48C1888069C4EB81
:10440000C40200EB82008182641C19484069A0420A
:10441000DBD817488169C160816901614FF0FF31C4
:104420000022B0F90600CDE9012100901048B0F952
:104430000430006942680E480169056B001DA847F9
:104440000B484069012804D9094880691C30084993
:10445000086102E0012004B070BD0BF0FFFC0120F8
:10446000034981F8F4000DF0E9FA0020F3E70000B9
:104470006C0902201FB50A48406868B90120094943
:104480000022CDE900020346CDE9021011460003E7
:10449000FDF7A4F8024948600148406804B010BD27
:1044A00044040220015901080949097F01F0010172
:1044B00069B1002206498969C0EBC00301EB8301A1
:1044C0000A720349C96921F001020149CA617047B2
:1044D0006C0902202DE9F04F87B004468A469346C6
:1044E00000BF3CB15A492069884203D1594890F82D
:1044F000F40040B94A2258A160A00AF0F3FD002060
:1045000007B0BDE8F08F00BFBAF1040F6FD1CDF84E
:1045100018B020460CF032FC074620460CF0CCFCCC
:10452000804620460DF0E6F8054620460CF0B2FD28
:10453000064694F8590000F00100F0B1206D10B16A
:10454000206D006808E02069006918B120690069E1
:10455000006801E04FF07F400590206D10B1206DA4
:10456000806808E02069006918B1206900698068E6
:1045700001E04FF07F4004901DE0206D10B1206DF0
:10458000406808E02069006918B120690069406846
:1045900001E04FF07F400590206D10B1206DC068A4
:1045A00008E02069006918B120690069C06801E06D
:1045B0004FF07F40049094F85800C8B9B11E09B27A
:1045C0000598CDE90010A81E03B208F1010002B25F
:1045D000781C01B20698FDF740FB04982B46424632
:1045E0003946CDE900600698FDF7F1FC2BE02CE0A0
:1045F0000598A946009005EBD970401003B206EB70
:10460000D67008EB600002B205EBD57007EB6000D6
:1046100001B2CDE902560698FDF74AFA04980090D7
:1046200005EBD970401003B206EBD67008EB6000C2
:1046300002B205EBD57007EB600001B2CDE902567E
:104640000698FDF7FFF801205AE7002058E7000020
:1046500068BA06086C0902202E2E5C30302D4755B2
:10466000495F4C4942524152595C776964676574AD
:10467000735C6775695F6C65642E63004173736575
:10468000727420706172616D206661696C6564206E
:10469000696E2066696C6520257320616E64206CEC
:1046A000696E652025640D0A000000002DE9F04FB9
:1046B00087B004460D4616461F46DDE912ABDDE91C
:1046C000108933462A46214604488DE8800F0CF0B5
:1046D00031F90690069807B0BDE8F08F68BA060871
:1046E00070B504460D4600BF3CB1184920698842A8
:1046F00003D1174890F8F40030B9BD2215A11EA0CF
:104700000AF0F0FC002070BD00BF75B194F85900AC
:1047100000F0010048B994F8590040F0010084F815
:10472000590020460DF090F90EE06DB994F859004B
:1047300000F0010040B194F8590020F0010084F825
:10474000590020460DF080F90120DCE768BA060820
:104750006C0902202E2E5C30302D4755495F4C49A4
:1047600042524152595C776964676574735C67753E
:10477000695F6C65642E63004173736572742070A9
:104780006172616D206661696C656420696E206686
:10479000696C6520257320616E64206C696E6520EC
:1047A00025640D0A0000000070B504460D4600BFE8
:1047B0003CB10D492069884203D10C4890F8F400BF
:1047C00030B98B220AA113A00AF08CFC002070BD26
:1047D00000BF94F85800A84204D084F858502046EE
:1047E0000DF09AF90120F2E768BA06086C09022078
:1047F0002E2E5C30302D4755495F4C494252415274
:10480000595C776964676574735C6775695F6C652B
:10481000642E630041737365727420706172616D00
:10482000206661696C656420696E2066696C65202C
:10483000257320616E64206C696E652025640D0A05
:104840000000000010B5044600BF3CB10D492069CE
:10485000884203D10C4890F8F40030B9B2220BA181
:1048600013A00AF03FFC002010BD00BF94F85900CF
:1048700080F0010084F8590020460DF0E5F8012091
:10488000F2E7000068BA06086C0902202E2E5C30A0
:10489000302D4755495F4C4942524152595C776926
:1048A00064676574735C6775695F6C65642E63002B
:1048B00041737365727420706172616D2066616905
:1048C0006C656420696E2066696C652025732061C3
:1048D0006E64206C696E652025640D0A000000007E
:1048E0002DE9F04104460E46002700BF3CB11649B1
:1048F0002069884203D1154890F8F40040B940F28D
:10490000A11213A11CA00AF0EDFB0020BDE8F0816C
:1049100000BF01210C200BF079FD054695B1AE607A
:10492000294604F160000BF07FFBB4F85800401CEE
:1049300000B2A4F8580020460AF05AFD20460DF0B7
:1049400083F801273846E1E710BB06086C0902200E
:104950002E2E5C30302D4755495F4C494252415212
:10496000595C776964676574735C6775695F6C69C6
:104970007374626F782E6300417373657274207074
:104980006172616D206661696C656420696E206684
:10499000696C6520257320616E64206C696E6520EA
:1049A00025640D0A000000002DE9FF4F8DB004467C
:1049B00015460E980C287DD008DC01280DD004285F
:1049C0001AD0062877D00B2876D180E10E2874D033
:1049D000112873D01528F7D10EE24FF0FF3024F8DC
:1049E0005A0F1E20E081207C40F0020020745A3CC7
:1049F000012011B0BDE8F08F2F4620460CF0BEF923
:104A0000814620460CF058FA804620460CF072FE93
:104A1000064620460CF03EFB8246012033464246C5
:104A20004946CDE900A03846FDF700FB206D10B1E6
:104A3000206D006808E02069006918B120690069EC
:104A4000006801E04FF07F40AAF1040109B2CDE90E
:104A50000010301F03B208F1020002B209F1020097
:104A600001B23846FDF7F9F894F86A0000F0010049
:104A700028B307A8FDF75AFC5834208A301A06B22A
:104A800009EB0600401E00B2ADF81C0008F1010061
:104A900000B2ADF81E00208AADF82000AAF1020095
:104AA00000B2ADF8220000208DF82400B4F9040013
:104AB0000C9005E014E1F4E0A8E136E18AE10BE0B6
:104AC00034F958090A9020460EF076FB0B9007A99E
:104AD0003846FDF79FFB01E0701E06B2E06B002830
:104AE00072D0206E0028FBD00020049000212046C8
:104AF0000EF014FB059006A8FCF76CFF09F104000A
:104B000000B2ADF8180008F1020000B2ADF81A00CA
:104B1000301F00B2ADF81C00059800B2ADF81E00C1
:104B200011208DF82000BDF81C00ADF82600B7F963
:104B300006000390B7F9061008EB0A00801E8142B8
:104B400004DD08EB0A00801E00B2F880002004900B
:104B5000002104F160000BF079FA834692E0B4F989
:104B60005C100498814200DD83E0B4F95A10049887
:104B700081425CD194F8380000F0100070B1206DD3
:104B800010B1206D006917E02069006918B1206933
:104B90000069006910E04FF07F400DE0206D10B11A
:104BA000206D406908E02069006918B1206900693A
:104BB000406901E04FF07F40BDF91E2005998A420F
:104BC00003DABDF91E1001E069E0059909B2CDE9EB
:104BD0000010F01E03B2BDF91A2009F1020001B263
:104BE0003846FDF73AF894F8380000F0100070B13C
:104BF000206D10B1206D806817E02069006918B140
:104C000020690069806810E04FF07F400DE0206D62
:104C100010B1206DC06808E02069006918B12069F2
:104C20000069C06801E04FF07F400A900EE0206DFF
:104C300010B1206D406808E02069006918B1206952
:104C40000069406801E04FF07F400A9020460CF078
:104C5000D9F9029006AB01463846DBF80820FDF78B
:104C6000DDFBBDF81A100598084400B2ADF81A0033
:104C700000BF594600200BF0E9F983460498401C18
:104C800080B20490BBF1000F06D0BDF91A00B7F94D
:104C9000061088427FF763AF0398F88000BF0120B9
:104CA000A7E605E000BF30460BF0B8FB002600BFCA
:104CB000002104F160000BF0C9F90746394604F100
:104CC00060000BF09FFA061EECD1012091E6294608
:104CD000888A4F4A1080002210980270012088E6CE
:104CE0002F46E06BF8B1002120460EF017FA0FFABC
:104CF00080F8B88A46490988081A06B2002E01DBF6
:104D0000304600E0704240450CDD002E01DD012000
:104D100001E04FF0FF30014620460FF07DF9B88AE0
:104D20003B49088000BF012063E62E464FF0000893
:104D300020460CF0DFFC814620460CF0ABF98246A1
:104D400094F86A0000F0010008B3B6F91000B4F955
:104D50006810A9EB0101884219DDB6F91400B4F915
:104D60006810884205DA4FF0FF3120460FF054F901
:104D70000BE0B6F91400B4F96810AAEB01018842FF
:104D800003DD012120460FF047F94FF00108B8F18B
:104D9000000F1DD1E06BD8B1002120460EF0BEF906
:104DA0008346B6F9140090FBFBF087B2B4F95C00BF
:104DB0003844B4F95810884209DCB4F85C0038442F
:104DC00001B220460EF0ABFF20460CF03DFE00BFC6
:104DD00001200EE62E463078022804D1012120461B
:104DE0000EF01EF806E03078012803D1811E20461F
:104DF0000EF016F80120FCE5B5F9001020460EF083
:104E00000FF80121109801700120F2E50020F0E573
:104E1000320402202DE9F04F87B004460D461646B5
:104E20001F46DDE912ABDDE9108933462A462146EB
:104E300004488DE8800F0BF07DFD0690069807B0C2
:104E4000BDE8F08F10BB060870B504460D4600BFE4
:104E50003CB119492069884203D1184890F8F40000
:104E600038B94FF4F57216A11FA00AF03BF90020E3
:104E700070BD00BF75B194F86A0000F0020048B937
:104E800094F86A0040F0020084F86A0020460CF0B2
:104E9000DBFD0EE06DB994F86A0000F0020040B14D
:104EA00094F86A0020F0020084F86A0020460CF0B2
:104EB000CBFD0120DCE7000010BB06086C090220D6
:104EC0002E2E5C30302D4755495F4C49425241529D
:104ED000595C776964676574735C6775695F6C6951
:104EE0007374626F782E63004173736572742070FF
:104EF0006172616D206661696C656420696E20660F
:104F0000696C6520257320616E64206C696E652074
:104F100025640D0A0000000070B504460D46002609
:104F200000BF3CB11C492069884203D11B4890F85E
:104F3000F40038B94FF4FE7219A123A00AF0D2F898
:104F4000002070BD00BF94F86A0000F0020000BBB2
:104F50007DB194F86A0000F0010050B994F86A003D
:104F600040F0010084F86A0020460CF06DFD012637
:104F70000FE075B994F86A0000F0010048B194F8A8
:104F80006A0020F0010084F86A0020460CF05CFD05
:104F900001263046D5E7000010BB06086C09022048
:104FA0002E2E5C30302D4755495F4C4942524152BC
:104FB000595C776964676574735C6775695F6C6970
:104FC0007374626F782E630041737365727420701E
:104FD0006172616D206661696C656420696E20662E
:104FE000696C6520257320616E64206C696E652094
:104FF00025640D0A000000002DE9F04704460F4625
:1050000090464FF0000900BF3CB11D49206988421D
:1050100003D11C4890F8F40040B940F207221AA1CD
:1050200024A00AF05FF80020BDE8F08700BFB4F8C4
:105030005C20921C9100A06D0BF0F6F90646EEB1D3
:10504000A665012110200BF0E1F90546B5B15834F1
:10505000A188481CA080206840F821500020A28828
:105060002168583C41F82200EF60B8F1000F01DDE3
:10507000404600E0642028814FF001094846D3E70C
:10508000ACBB06086C0902202E2E5C30302D475533
:10509000495F4C4942524152595C77696467657473
:1050A000735C6775695F6C697374766965772E6385
:1050B0000000000041737365727420706172616D4D
:1050C000206661696C656420696E2066696C652084
:1050D000257320616E64206C696E652025640D0A5D
:1050E0000000000070B5044600BF3CB113492069C0
:1050F000884203D1124890F8F40038B940F22F22C8
:1051000010A11BA009F0EEFF002070BD00BF01211F
:1051100010200BF07BF905466DB1294604F16000C3
:105120000AF082FFB4F86800401C00B2A4F86800DE
:1051300020460AF0F3F92846E7E70000ACBB060872
:105140006C0902202E2E5C30302D4755495F4C49AA
:1051500042524152595C776964676574735C677544
:10516000695F6C697374766965772E63000000006F
:1051700041737365727420706172616D206661693C
:105180006C656420696E2066696C652025732061FA
:105190006E64206C696E652025640D0A00000000B5
:1051A0002DE9FF4F91B00446164612980C2870D096
:1051B00008DC01280DD004281AD006286AD00B2854
:1051C00069D1ABE20E2867D0112876D01528F7D127
:1051D000CCE34FF0FF3024F86A0F1E20A080A079A6
:1051E00040F00200A0716A3C012015B0BDE8F08FCC
:1051F000374694F83800C0F3C0100F9020460BF0EB
:10520000BDFD804620460BF057FE824620460CF03E
:1052100071FA814620460BF03DFF109020460AF0BF
:105220007DF90F9848B3012110984B465246CDE9BD
:10523000000141463846FCF7F9FE206D10B1206DA3
:10524000006808E02069006918B1206900690068F9
:1052500001E04FF07F401099091F09B2CDE900101D
:10526000A9F1040003B20AF1020002B208F102003F
:1052700001B23846FCF7F1FC3AE0206D10B1206D28
:1052800080690CE02069006938B120690069806993
:1052900005E04FE2F7E173E3CCE24FF07F40109975
:1052A0004B465246CDE9001041463846FCF78FFE8A
:1052B000206D18B1206D006809E03FE320690069A6
:1052C00018B120690069006801E04FF07F40109933
:1052D000891E09B2CDE90010A9F1020003B20AF15A
:1052E000010002B208F1010001B23846FCF7B5FC3A
:1052F00094F8700000F0010068B307A8FDF716F8F5
:105300006834E088A9EB00000FFA80F908EB090087
:10531000401E00B2ADF81C000AF1010000B2ADF869
:105320001E00E088ADF820001098801E00B2ADF895
:10533000220000208DF82400B4F904000C9034F908
:1053400068090A9020460DF06CFF0B9007A93846BB
:10535000FCF760FF03E0A9F101000FFA80F90021DA
:1053600020460DF00FFF8346FB48CDE900B0A9F1C0
:10537000030003B20AF1020002B208F1020001B216
:105380003846FCF76AFCA06D00287DD0A06D00684F
:105390000028FAD008F1020000B20C9005A8FCF732
:1053A00019FBADF81AB011208DF81C00BDF81800DB
:1053B000ADF82200B7F904000490B7F9041008EB27
:1053C0000900401E814204DD08EB0900401E00B2C6
:1053D000B8800AF1020000B2ADF8160000254FE0D7
:1053E0000F98D8B10020CDE900B0A06D50F825008D
:1053F000B0F90830BDF9162038460C99FCF716FEB6
:10540000A06D50F825000089001F00B2ADF818000B
:105410000C98801C00B2ADF814001AE0CF48CDE91A
:1054200000B0A06D50F82500B0F90830BDF9162085
:1054300038460C99FCF7CBFDA06D50F8250000898B
:10544000801F00B2ADF818000C98C01C00B2ADF877
:10545000140020460BF0D6FD0390A06D50F82500F7
:1054600005ABC26838460399FCF7D8FFA06D50F829
:10547000250001890C98084400B20C90681C85B284
:10548000B4F85C00A84200E0FBE0A9DCBDF816001F
:10549000584400B2ADF81600E06B00286FD0206EC3
:1054A0000028FBD000200390B7F906000290B7F95E
:1054B000061010985044801E814204DD109850441C
:1054C000801E00B2F88000200390002104F16000EB
:1054D0000AF0BCFD0E90C5E0B4F96C10039881424F
:1054E00000DDB6E0B4F96A10039881425BD194F80C
:1054F000380000F0100070B1206D10B1206D00690F
:1055000017E02069006918B120690069006910E09E
:105510004FF07F400DE0206D10B1206D406908E034
:105520002069006918B120690069406901E04FF005
:105530007F40BDF91A10594502DABDF91A1000E092
:105540005946CDE90010A9F1020003B2BDF91620B9
:1055500008F1020001B23846FCF77FFB94F83800EE
:1055600000F0100078B1206D10B1206D806818E057
:105570002069006920B120690069806811E07DE040
:105580004FF07F400DE0206D10B1206DC06808E045
:105590002069006918B120690069C06801E04FF016
:1055A0007F4009900EE0206D10B1206D406808E04A
:1055B0002069006918B120690069406801E04FF076
:1055C0007F40099008F1020000B20C9000250021F4
:1055D0000E9808300AF03AFD0D902DE00D98806885
:1055E000D8B1A06D50F825000089801F00B2ADF839
:1055F00018005B488088ADF822000C98C01C00B2EF
:10560000ADF8140020460BF0FDFC01900D9805ABA1
:10561000826838460199FCF701FFA06D50F825001B
:1056200001890C98084400B20C9000200D990AF0F2
:105630000DFD0D90681C85B20D9818B1B4F85C0092
:10564000A842CBDCBDF81600584400B2ADF81600F5
:1056500000BF00200E990AF0F9FC0E900398401C40
:1056600080B203900E9830B1BDF91600B7F906105C
:1056700088427FF731AF0298F88000BF0498B88065
:1056800000BF0120B1E500251DE006E000BF404657
:105690000AF0C4FE4FF0000800BF002107F1080027
:1056A0000AF0D4FC8146494607F108000AF0AAFD39
:1056B000B0F10008EAD100BF38460AF0AFFE00277B
:1056C00000BF681C85B2002104F160000AF0BEFC36
:1056D0008146494604F160000AF094FD071ED4D1CA
:1056E000A06DC8B100250CE000BFA16D51F82500E8
:1056F0000AF094FE0020A16D41F8250000BF681C4F
:1057000085B2B4F85C00A842EEDC00BFA06D0AF0E0
:1057100085FE0020A06500BF012066E53146088AAD
:10572000104A1080888A104A108000221498027053
:1057300001205AE5B046E06BC0B3002120460DF0D1
:1057400021FD8246B8F8140007490988081A07B2F3
:10575000002F0BDB38460AE0C6C6C6FF555555FF7D
:105760006C09022040040220420402207842504585
:105770000DDD002F01DD012001E04FF0FF3001467B
:1057800020460EF0B9FCB8F814007E4908807D4828
:10579000B0F9000050454ADA4FF00009B8F810009F
:1057A00079490988081A07B200251DE040E0A06D7C
:1057B00050F82500008948440FFA80F97248B0F982
:1057C0000000B0EB090005D46F48B0F90000A0EB71
:1057D000090004E06C48B0F90000A9EB00000A28B9
:1057E00000DA05E0681C85B2B4F85C00A842DEDC93
:1057F00000BFB4F85C00A84218D0A06D50F8250096
:10580000B0F90800C01B042809DBA06D50F8250082
:105810000089C01B00B2A16D51F825100881B8F8AD
:1058200010005949088020460CF00EF900BF00BF57
:105830000120DAE435464FF00008002120460DF043
:10584000A1FC87B220460BF055FF814620460BF0A5
:1058500021FC824694F8700000F0010008B3B5F90D
:105860001000B4F96E10A9EB0101884219DDB5F9F9
:105870001400B4F96E10884205DA4FF0FF3120466B
:105880000EF03AFC0BE0B5F91400B4F96E10AAEB77
:105890000101884203DD012120460EF02DFC4FF06E
:1058A0000108B8F1000F1ED1B5F91400B84219DD96
:1058B000B5F91400C01B90FBF7F01FFA80FBB4F998
:1058C0006C005844B4F96810884209DCB4F86C00E4
:1058D000584401B220460EF056FA20460CF0B4F8B7
:1058E0004FF0010800BFB8F1000F25D1B5F9140041
:1058F000B84221DA0021002016E0B5F910208A42D2
:105900000ADDA26D52F82020B2F908200A44B5F948
:1059100010309A4200DD0BE0A26D52F8202012896F
:105920000A4411B2421C90B2B4F85C208242E4DC1A
:1059300000BF4FF0010800BF012056E4354628782B
:10594000022807D1012120460DF0D8FA0021149831
:10595000017009E02878012806D1811E20460DF04B
:10596000CDFA00211498017001203EE4B6F9001030
:1059700020460DF0C3FA012114980170012034E48F
:10598000002032E442040220400402202DE9F04FBE
:1059900087B004460D4616461F46DDE912ABDDE929
:1059A000108933462A46214604488DE8800F0AF0C4
:1059B000C1FF0690069807B0BDE8F08FACBB0608A3
:1059C0002DE9F04707460D46164698464FF0000968
:1059D000002400BF47B11E493869884204D11DB177
:1059E0001C4890F8F40040B940F241221AA125A0C9
:1059F00009F078FB0020BDE8F08700BF002105F129
:105A000008000AF023FB0446701C86B212E05CB961
:105A100001210C200AF0FAFC044604B90FE02146EB
:105A200005F108000AF000FB26B1214600200AF02B
:105A30000DFB0446301EA6F101018EB2E7D100BF76
:105A40001CB1C4F808804FF001094846D3E70000B4
:105A5000ACBB06086C0902202E2E5C30302D475559
:105A6000495F4C4942524152595C77696467657499
:105A7000735C6775695F6C697374766965772E63AB
:105A80000000000041737365727420706172616D73
:105A9000206661696C656420696E2066696C6520AA
:105AA000257320616E64206C696E652025640D0A83
:105AB000000000002DE9F0470546894690461F4644
:105AC000B9F1000F03D0B9F1010F69D15AE00026F6
:105AD000444608F019F800BF0221324800F0D0F81F
