:020000040800F2
:10000000705F0120990200082FC30008EFB80008B4
:100010002BC300084B0A000805E800080000000098
:10002000000000000000000000000000DD010008EA
:10003000610B0008000000003102000855C80008EC
:10004000B3020008B3020008B3020008B3020008BC
:10005000B3020008B3020008650B00080D0C00088D
:10006000290C0008450C0008610C0008510A000822
:10007000610A0008710A0008810A0008910A000854
:10008000A10A0008B10A0008B3020008B302000880
:10009000B3020008B3020008B30200087D0C000898
:1000A000B3020008B3020008B3020008B30200085C
:1000B000B3020008B3020008B3020008B30200084C
:1000C000B3020008B3020008B3020008B30200083C
:1000D000B302000851E700087DE70008ADE700081B
:1000E000810B0008B3020008B3020008B302000845
:1000F000B3020008B3020008B3020008C10A0008F6
:10010000B302000899C40008B3020008B302000853
:1001100065E1000895E10008B3020008B302000899
:10012000E10A0008F10A0008010B0008110B0008A1
:10013000210B0008B3020008B3020008B302000854
:10014000B3020008B3020008B3020008B3020008BB
:10015000310B0008410B0008510B0008DDE70008D7
:10016000B3020008B3020008B3020008B30200089B
:10017000B3020008B3020008B30200080000000048
:10018000B3020008B3020008C1E10008F1E1000871
:10019000B3020008B3020008B3020008B30200086B
:1001A00009C10008B3020008D10A0008B302000820
:1001B000B3020008B3020008B3020008B30200084B
:1001C000B3020008B3020008DFF80CD000F054FBC3
:1001D000004800473D620108705F01202B4B196801
:1001E0000868B0E8F04F80F30988BFF36F8F4FF0D5
:1001F000000080F311887047000000000648006886
:10020000006880F3088862B661B6BFF34F8FBFF312
:100210006F8F00DF00BF00BF08ED00E0DFF80C00CB
:10022000016841F470010160704700BF88ED00E093
:10023000EFF30980BFF36F8F144B1A681EF0100F95
:1002400008BF20ED108A20E9F04F106008B44FF08D
:10025000500072B680F31188BFF34F8FBFF36F8FDA
:1002600062B617F0DDFC4FF0000080F3118808BC87
:1002700019680868B0E8F04F1EF0100F08BFB0EC26
:10028000108A80F30988BFF36F8F70473404012010
:10029000EFF3058070470000064880470648004796
:1002A000FEE7FEE7FEE7FEE7FEE7FEE7FEE7FEE726
:1002B000FEE7FEE75DC80008C90100082DE9F05F10
:1002C0000546002092469B468846064681464024C5
:1002D0001BE0284641464746224600F0ACF853460C
:1002E0005A46C01A914110D311461846224600F0D2
:1002F00093F82D1A67EB01084F4622460120002192
:1003000000F08AF817EB00094E41201EA4F1010409
:10031000DFDC484631462A464346BDE8F09F40EAC6
:1003200001039B0703D009E008C9121F08C0042A73
:10033000FAD203E011F8013B00F8013B521EF9D25A
:100340007047D2B201E000F8012B491EFBD2704782
:100350000022F6E710B513460A4604461946FFF791
:10036000F0FF204610BD10B5044604E00B7800F8FD
:10037000013B03B1491C521EF8D2204610BD421C5D
:1003800010F8011B0029FBD1801A704710B500221C
:1003900000E0521C835C8C5CA34201D1002BF8D19D
:1003A000D8B2E1B2401A10BD034611F8012B00F893
:1003B000012B002AF9D11846704700F0004230F0B6
:1003C00000400AD0C10D01F56071C0F3160042EA89
:1003D0000151C20840071143704700200146704791
:1003E00001F0004330B421F0004150EA010206D090
:1003F0000A0DA2F56072C1F31301002A02DC30BCC1
:1004000000207047440F44EAC104C100E01830BC2A
:1004100000EBC25000F01FB8202A04DB203A00FA9B
:1004200002F1002070479140C2F1200320FA03F34B
:10043000194390407047202A04DB203A21FA02F049
:100440000021704721FA02F3D040C2F1200291400E
:100450000843194670470029A8BF7047401C49004F
:1004600008BF20F00100704710B4B0FA80FC00FA19
:100470000CF050EA010404BF10BC704749B1CCF144
:10048000200421FA04F411FA0CF118BF01212143D0
:100490000843A3EB0C01CB1D4FEA00614FEA10208B
:1004A00042BF002010BC704700EBC350104400292D
:1004B000A4BF10BC7047401C490008BF20F00100D9
:1004C00010BC70472DE9FE4F804681EA0300C00F43
:1004D0000C46009021F0004123F00045B8EB0200EB
:1004E000A94105D24046214690461C460B4602468D
:1004F00023F00040104347D0270DC7F30A00C3F391
:100500000A510290401A019040286BDAC3F313009D
:1005100040F4801B0098924620B10023D2EB030ADE
:1005200063EB0B0B01985946C0F140025046FFF7B0
:1005300073FF06460D4650465946019A00F0AEF943
:1005400010EB08006141002487EA115284EAE77346
:100550001A4340D0009A62B3019A012A4FEA075227
:1005600015DC001B61EB02014FF0004202EA07526A
:10057000CDE90042001C41F5801132462B4600F0C7
:10058000AEF903B0BDE8F08F40462146F9E7001B05
:1005900061EB0201001C41F5801300185B4120183B
:1005A000A2F5001747EB030140EAD570B6196D417B
:1005B00011E06D084FEA360645EAC0754FEA07526A
:1005C000001B61EB0201001C41F5801149084FEA54
:1005D00030000019514132462B4603B0BDE8F04FC0
:1005E00000F06EB90098012240000023D0EB020217
:1005F00063EBE073009821464FEAE074B8EB00002B
:1006000061EB0401E9E783F000435BE781F000411F
:1006100058E72DE9FE4F81EA030404F0004421F07D
:10062000004100944FF0000B23F0004350EA010416
:100630005ED052EA03045BD0C3F30A54C1F30A55F7
:100640002C44A4F2F3340194A0FB0254C1F313012F
:1006500041F48011C3F3130343F4801301FB0244FC
:1006600000FB034E840A970A44EA815447EA835701
:10067000A4FB076802958D0A05FB07854FEA932CBA
:1006800004FB0C542705029D4FEA065847EA16372B
:10069000B5EB08056EEB070C870E920E47EA811743
:1006A00042EA8312A7FB0201B6EB0B0164EB0004E4
:1006B0002B0D43EA0C335E1844EB1C50DA465146CE
:1006C000E7FB0201C5F313044FEA0B3343EA14536B
:1006D0004FEA0432019C43EA0603A4F10C0402949D
:1006E000009CCDE900B400F0FAF803B0BDE8F08F4B
:1006F00000200146F9E72DE9F04D81EA030404F0FA
:10070000004B21F0004514464FF0000A23F0004151
:1007100050EA050220D054EA01021DD0C5F30A5761
:100720000246C5F31303C1F31300C1F30A5640F4A4
:10073000801543F48013A7EB0608101BD64608F279
:10074000FD3873EB050002D308F1010801E09218AF
:100750005B41B8F1000F03DA00200146BDE8F08DDF
:1007600000204FF48011064684460EE0171B73EB01
:10077000050705D3121B63EB050306434CEA010C86
:1007800049084FEA300092185B4150EA0107EDD169
:1007900052EA030012D082EA040083EA050108430A
:1007A00005D0101BAB4106D20122002306E0002237
:1007B0004FF0004302E06FF0010253101AEB060005
:1007C0004CEB085110EB0A0041EB0B01BDE8F04D7A
:1007D00000F076B82DE9F04D00231A461B1A8A4125
:1007E00003DB00200146BDE8F08DC1F30A52C1F3DE
:1007F000130141F480154FF0000BD10702D100180E
:100800006D41521E0027044640F2FF11384601EBAD
:10081000620A3E468046024600204FF48011FFF7F0
:100820000AFEC2197141BB1846EB0100B4EB030C80
:1008300075EB000C04D3E41A65EB000517460E4671
:10084000241908F101006D4180463428E3DDF919CF
:1008500046EB0600091BA84103D24FF0FF321346B6
:1008600001E0002213461BEB070046EB0A51BDE8EE
:10087000F04D00F025B80000064C074D06E0E0689A
:1008800040F0010394E8070098471034AC42F6D3D7
:10089000FFF79EFCF8C9080818CA0808202A06DBDA
:1008A000CB17203A41FA02F043EAE07306E041FA3E
:1008B00002F3D040C2F1200291400843194670472C
:1008C00010B5141E73F1000408DA401C41F1000158
:1008D00092185B411A4301D120F0010010BD2DE9AF
:1008E000F04D92469B4611B1B1FA81F202E0B0FAA6
:1008F00080F220329046FFF78FFD04460F4640EA13
:100900000A0041EA0B0153465A46084313D01146E8
:1009100053EA010019D0C8F140025046FFF78BFDA1
:1009200005460E46504659464246FFF775FD0843B8
:1009300005D0012004E020463946BDE8F08D0020B6
:10094000054346EAE0762C4337430A986305E40AF8
:10095000A0EB08000022FD0A44EA47540A3002D501
:1009600000200146E9E7010510196941DDE9084564
:1009700000196941BDE8F04DA2E70EB5C10F80EA4C
:10098000E0700844CA07002140F233438DE80E00AE
:100990000A460B46FFF7A3FF03B000BD0EB540F2B9
:1009A000334102910021CDE900110A460B46FFF7C1
:1009B00096FF03B000BD70B5C1F30A5201F00045C7
:1009C0000024C1F3130140F2FF3341F480119A4235
:1009D00001DA002070BD40F233439A42A2F2334262
:1009E00003DC5242FFF727FD00E090402C43F1D09A
:1009F000404270BD70B58C1810F8015B15F007030C
:100A000001D110F8013B2A1106D110F8012B03E0A7
:100A100010F8016B01F8016B5B1EF9D12B0705D4AF
:100A20000023521E0DD401F8013BFAE710F8013BF8
:100A3000CB1A921C03E013F8015B01F8015B521E14
:100A4000F9D5A142D8D3002070BD00BFFEE7000059
:100A500010B502480CF03DF810BD000010600240D7
:100A600010B502480CF035F810BD000028600240B7
:100A700010B502480CF02DF810BD00004060024097
:100A800010B502480CF025F810BD00005860024077
:100A900010B502480CF01DF810BD00007060024057
:100AA00010B502480CF015F810BD00008860024037
:100AB00010B502480CF00DF810BD0000A060024017
:100AC00010B502480CF005F810BD0000B8600240F7
:100AD00010B5024808F0C0FC10BD0000F04A01202B
:100AE00010B502480BF0F5FF10BD00001064024085
:100AF00010B502480BF0EDFF10BD00002864024065
:100B000010B502480BF0E5FF10BD00004064024044
:100B100010B50249C86B08F067FD10BD684D012093
:100B200010B502480BF0D5FF10BD00007064024004
:100B300010B502480BF0CDFF10BD000088640240E4
:100B400010B50249086C08F04FFD10BD684D01203A
:100B500010B502480BF0BDFF10BD0000B8640240A4
:100B60007047000010B50548006800F0010020B192
:100B70000120024908600CF0EBF810BD143C014064
:100B800010B52148006800F4806028B14FF48060FF
:100B90001D4908600CF0DCF81B48006800F4006098
:100BA00028B14FF40060184908600CF0D1F81648DD
:100BB000006800F4805028B14FF48050124908605A
:100BC0000CF0C6F81048006800F4005028B14FF44B
:100BD00000500D4908600CF0BBF80B48006800F4A9
:100BE000804028B14FF48040074908600CF0B0F80D
:100BF0000548006800F4004028B14FF40040024965
:100C000008600CF0A5F810BD143C014010B5054873
:100C1000006800F0020020B10220024908600CF0D8
:100C200097F810BD143C014010B50548006800F06D
:100C3000040020B10420024908600CF089F810BDBE
:100C4000143C014010B50548006800F0080020B1D0
:100C50000820024908600CF07BF810BD143C0140EC
:100C600010B50548006800F0100020B110200249BE
:100C700008600CF06DF810BD143C014010B51A4826
:100C8000006800F0200020B12020174908600CF017
:100C90005FF81548006800F0400020B1402012497C
:100CA00008600CF055F81048006800F0800020B192
:100CB00080200D4908600CF04BF80B48006800F4E8
:100CC000807028B14FF48070074908600CF040F83C
:100CD0000548006800F4007028B14FF40070024924
:100CE00008600CF035F810BD143C014010B518F048
:100CF00007FC0949096888420CD118F01DFC074916
:100D00000968401A064908600648006809680844EE
:100D10000449086010BD0000A8040120B0040120AF
:100D2000B4040120B804012030B502460023002499
:100D30000868012816D013686FF30E03D1E9010586
:100D40002843CD6828430D6928434D6928438D69A0
:100D50002843CD6928430D6A28434D6A284303433D
:100D6000136019E0136823F4F843D1E90705284319
:100D70004D6A2843034354686FF30E04D1E901051B
:100D80002843CD6828430D6928434D6928438D6960
:100D90002843044313605460002030BD024650696C
:100DA00040EA4100506100207047F8B506460C4605
:100DB0001546002000900027D4E900010843A168EF
:100DC000491E40EA4110E16840EA41200090009845
:100DD000306108F049FD074609E0681C38B125B1CB
:100DE00008F042FDC01BA84201D90320F8BDB0693C
:100DF00000F020000028F0D100BFF7E770B50346EF
:100E0000154600220024012D1FD09A6802F070427E
:100E10000868401E4E68761E40EA06168868401E26
:100E200046EA0026C868401E46EA0036088A401E88
:100E300046EA0046888A401E46EA0056087E401E62
:100E400046EA006002439A6022E09A681148024034
:100E5000C868401E0603888A401E46EA00500243C6
:100E6000DC6804F070440868401E4E68761E40EA54
:100E700006168868401E46EA0026088A401E46EA92
:100E80000046087E401E46EA006004439A60DC602B
:100E9000002070BDFF0F0FFF01B500BF0098411E7D
:100EA00000910028FAD108BD30B50146002409B9E7
:100EB000002030BD4A688B689A4201D10C6806E078
:100EC000934201D99C1A02E0D51A0868441B601E9F
:100ED000EFE730B5014609B9002030BD4A688B689C
:100EE0009A4201D1002406E09A4201D9D41A02E0C4
:100EF0009D1A0868441B2046EFE770B504460D466E
:100F000016460CB9012070BD18212046FFF720FAC3
:100F10002560E6600A206074E06870B92846012107
:100F20000EF0E4FEE060E06818B9002020600120C7
:100F3000E9E7207C40F002002074207C40F00100B2
:100F400020740020DFE72DE9F04704468946154666
:100F50004FF00008CA4604B115B90020BDE8F0877B
:100F60002168A068884201D30020A0602046FFF7D6
:100F7000B0FF0746AF4203D20FB90020EEE73D466F
:100F8000A1682068461AAE4200D92E46D4E9022054
:100F9000811832465046FFF7C2F9B044A068304489
:100FA000A060AD1B35B10AEB08002A46E168FFF7E7
:100FB000B6F9A5602168A068884201D30020A0602E
:100FC00008EB0500CAE72DE9F047044689461546B7
:100FD0004FF00008CA4604B115B90020BDE8F087FB
:100FE000D4E90010884201D3002060602046FFF75A
:100FF0005BFF0746AF4203D20FB90020EEE73D4644
:10100000D4E90001461AAE4200D92E466268E16872
:10101000881832465146FFF782F9B0446068304480
:101020006060AD1B35B10AEB08012A46E068FFF7A6
:1010300076F96560D4E90010884201D30020606031
:1010400008EB0500CAE700002DE9F04F8DB004461B
:101050008A4616469B4600BF3CB19A4920698842A1
:1010600003D1994890F8F80040B9492297A1A1A06E
:101070000DF0D8FC00200DB0BDE8F08F00BFBAF134
:10108000090F72D006DCBAF1010F0AD0BAF1040FD1
:101090006CD10CE0BAF10A0F69D0BAF1110FF7D197
:1010A000ECE00121204610F047FF0120E3E70C9619
:1010B00020460FF077FD074620460FF011FE8046D0
:1010C000204610F02BFA814620460FF0F7FE054629
:1010D00094F8380000F08000F0B1206D10B1206D60
:1010E000006808E02069006918B12069006900689B
:1010F00001E04FF07F400B90206D10B1206D4068F3
:1011000008E02069006918B120690069406801E0C1
:101110004FF07F400A9044E094F8380000F0080057
:10112000F0B1206D10B1206D406808E020690069C1
:1011300018B120690069406801E04FF07F400B90D2
:10114000206D10B1206D006808E02069006918B1B9
:1011500020690069006801E04FF07F400A9020E0BC
:10116000206D28B1206D40680BE0A3E0A8E0A2E06C
:101170002069006918B120690069406801E04FF0FA
:101180007F400A90206D10B1206D006808E0206952
:10119000006918B120690069006801E04FF07F40E4
:1011A0000B9094F8380000F08000E0B1291F09B2DC
:1011B0000B98CDE90010A9F1040003B208F1020078
:1011C00002B2B81C01B20C9800F08DFF94F8380000
:1011D000C0F3C0004B4642463946CDE900500C985A
:1011E00001F068F917E0B4F95A100B984B464246E3
:1011F000CDE90051029039460C9800F086FFB4F911
:101200005A000A994B464246CDE9005002913946B0
:101210000C9801F0A3F9204610F040FC60B303A83D
:1012200000F01EFE781C00B2ADF80C0008F10100C1
:1012300000B2ADF80E00A9F1020000B2ADF8100046
:10124000A81E00B2ADF8120012208DF81400BDF8EF
:101250001000ADF81A000A980790204610F0C4F864
:10126000029020460FF0E2FD03AB01900146029A86
:101270000C9801F013FB00BF0120FCE635462878EE
:101280000D2802D028780A2812D1606930B10023D5
:101290001A460E2120466769B84706E020690023F8
:1012A0001A460E21C7682046B84700208BF8000078
:1012B0000120E0E600BF204610F0DAFA0120DAE66D
:1012C0000020D8E63CD90608BC4501202E2E5C3013
:1012D000302D4755495F4C4942524152595C77691C
:1012E00064676574735C6775695F627574746F6E4B
:1012F0002E63000041737365727420706172616DBA
:10130000206661696C656420696E2066696C652081
:10131000257320616E64206C696E652025640D0A5A
:10132000000000002DE9F04F87B004460D46164638
:101330001F46DDE912ABDDE9108933462A46214616
:1013400004488DE8800F0FF001FA0690069807B068
:10135000BDE8F08F3CD906082DE9F04F8FB0044668
:10136000894692469846B9F1040F06D0B9F10B0FA1
:101370007ED0B9F10E0F7CD180E1CDF838A02046A7
:101380000FF010FC0C9020460FF0AAFC834620467C
:1013900010F0C4F80B9020460FF090FD0A90142531
:1013A0000C9E0A99481B00EBD0710BEB61010FB248
:1013B00094F8580000F0020078B1206D10B1206D53
:1013C000C06808E02069006918B120690069C06838
:1013D00001E04FF07F400D900EE0206D10B1206DC8
:1013E000006808E02069006918B120690069006898
:1013F00001E04FF07F400D90A91E09B20D98CDE994
:101400000010A81E03B2781C02B2701C01B20E9824
:1014100000F069FE01202B463A463146CDE90050E6
:101420000E9801F047F894F8380000F01000D0B1A1
:10143000206D10B1206D406808E02069006918B186
:1014400020690069406801E04FF07F40291F09B220
:10145000CDE90010281F03B2B81C02B2B01C01B2C3
:101460000E9800F0F8FF94F8580000F0010001E039
:10147000F6E00EE1002878D0206D10B1206D4068B4
:1014800008E02069006918B120690069406801E03E
:101490004FF07F407919491F09B2CDE9001070194A
:1014A000801F03B2781D02B2301D01B20E9800F009
:1014B00027FF206D10B1206D406808E020690069A9
:1014C00018B120690069406801E04FF07F40791948
:1014D000491F09B2CDE900107019401F03B2381D31
:1014E00002B2301D01B20E9800F00AFF206D10B15B
:1014F000206D406808E02069006918B12069006922
:10150000406801E04FF07F407919891F09B2CDE9A9
:1015100000107019401F03B2381D02B2701D01B2D5
:101520000E9800F0EDFE206D10B1206D406808E0CF
:101530002069006918B120690069406801E04FF036
:101540007F40391D09B2CDE900107019801F03B228
:101550007819801F02B2301D01B20E9800F0D0FE43
:10156000206D18B1206D406809E034E02069006901
:1015700018B120690069406801E04FF07F40391DD3
:1015800009B2CDE900107019401F03B27819401F4D
:1015900002B2301D01B20E9800F0B2FE206D10B103
:1015A000206D406808E02069006918B12069006971
:1015B000406801E04FF07F40791D09B2CDE900108D
:1015C0007019401F03B27819401F02B2701D01B29A
:1015D0000E9800F095FE204610F060FAE0B303A8E4
:1015E00000F03EFC7019401D00B2ADF80C000BF18C
:1015F000010000B2ADF80E000B98401B401F00B276
:10160000ADF810000A98801E00B2ADF8120011204B
:101610008DF81400BDF81000ADF81A00206D10B15F
:10162000206D006908E02069006918B1206900692F
:10163000006901E04FF07F40079020460FF0D4FE94
:10164000029020460FF0F2FB03AB01900146029A94
:101650000E9801F023F900BF01200FB0BDE8F08F14
:1016600094F8580000F0020018B1012088F800003A
:1016700002E0002088F800000120EEE794F858000E
:1016800000F0010080F00101204612F049F901202C
:10169000E3E70020E1E700002DE9F04F87B00446C2
:1016A0000D4616461F46DDE912ABDDE910893346CB
:1016B0002A46214604488DE8800F0FF047F806902F
:1016C000069807B0BDE8F08FD8D9060870B5044673
:1016D00000BF3CB10A492069884203D1094890F80B
:1016E000F80030B9E42208A112A00DF09BF9002007
:1016F00070BD00BF94F8580000F001052846F7E7D8
:10170000D8D90608BC4501202E2E5C30302D475517
:10171000495F4C4942524152595C7769646765742C
:10172000735C6775695F636865636B626F782E636E
:101730000000000041737365727420706172616D06
:10174000206661696C656420696E2066696C65203D
:10175000257320616E64206C696E652025640D0A16
:101760000000000070B504460D4600BF3CB10B49B7
:101770002069884203D10A4890F8F80030B9D8228D
:1017800008A113A00DF04EF9002070BD00BF29463E
:10179000204612F0C5F806463046F6E7D8D90608C6
:1017A000BC4501202E2E5C30302D4755495F4C49F9
:1017B00042524152595C776964676574735C67751E
:1017C000695F636865636B626F782E630000000079
:1017D00041737365727420706172616D2066616916
:1017E0006C656420696E2066696C652025732061D4
:1017F0006E64206C696E652025640D0A000000008F
:101800002DE9F04104460D46164600BF3CB10C4997
:101810002069884203D10B4890F8F80038B9CC22EF
:1018200009A114A00DF0FEF80020BDE8F08100BF72
:1018300032462946204610F0E3FB07463846F4E7D7
:10184000D8D90608BC4501202E2E5C30302D4755D6
:10185000495F4C4942524152595C776964676574EB
:10186000735C6775695F636865636B626F782E632D
:101870000000000041737365727420706172616DC5
:10188000206661696C656420696E2066696C6520FC
:10189000257320616E64206C696E652025640D0AD5
:1018A0000000000070B504460D4600BF3CB10B4976
:1018B0002069884203D10A4890F8F80030B9F02234
:1018C00008A113A00DF0AEF8002070BD00BF29469E
:1018D000204612F0EDF806463046F6E7D8D906085D
:1018E000BC4501202E2E5C30302D4755495F4C49B8
:1018F00042524152595C776964676574735C6775DD
:10190000695F636865636B626F782E630000000037
:1019100041737365727420706172616D20666169D4
:101920006C656420696E2066696C65202573206192
:101930006E64206C696E652025640D0A000000004D
:101940002DE9FC5F04460D46164600BF3CB11F4919
:101950002069884203D11E4890F8F80038B9462221
:101960001CA127A00DF05EF80020BDE8FC9F00BF81
:10197000042D28D1374620460FF014F98146204621
:101980000FF0AEF9824620460FF0C8FD8346204690
:101990000FF094FA8046206D10B1206D006808E0C9
:1019A0002069006918B120690069006801E04FF002
:1019B0007F405B4652464946CDE90080384600F0FC
:1019C00092FB0120D1E70020CFE7000010DB0608E2
:1019D000BC4501202E2E5C30302D4755495F4C49C7
:1019E00042524152595C776964676574735C6775EC
:1019F000695F636F6E7461696E65722E63000000CB
:101A000041737365727420706172616D20666169E3
:101A10006C656420696E2066696C652025732061A1
:101A20006E64206C696E652025640D0A000000005C
:101A30002DE9F04F87B004460D4616461F46DDE9F6
:101A400012ABDDE9108933462A46214604488DE869
:101A5000800F0EF07BFE0690069807B0BDE8F08F71
:101A600010DB06082DE9F04104460D4616461F46D8
:101A700000BF3CB110492069884203D10F4890F85B
:101A8000F80038B978220EA117A00CF0CBFF002087
:101A9000BDE8F08100BF012D06D0062D02D0162D25
:101AA00007D103E00120F3E70120F1E731680120CD
:101AB000EEE70020ECE7000098DA0608BC450120BC
:101AC0002E2E5C30302D4755495F4C4942524152D1
:101AD000595C776964676574735C6775695F64698D
:101AE000616C6F672E6300004173736572742070C0
:101AF0006172616D206661696C656420696E206643
:101B0000696C6520257320616E64206C696E6520A8
:101B100025640D0A000000002DE9F04F85B0044651
:101B20000D4616461F46DDE90FABDDF838901198DB
:101B300040F0010033462A4621468DE8800E04908D
:101B400006480EF003FE8046B8F1000F02D0404672
:101B50000CF0A4FF404605B0BDE8F08F98DA060807
:101B60002DE9FF4F85B006460F46DDE914ABDDE9F0
:101B700012894FF0FF3004908DE8000F394630464F
:101B8000DDE90723FFF7C8FF05463DB3284611F0FE
:101B90001BF80446F4B101202076002104F1140062
:101BA00014F03CF890B9002104F1140014F068F826
:101BB00004F1140014F05AF804F1140014F045F87C
:101BC00020690490204611F0B5FD06E0284610F08B
:101BD0004DF902E0284610F049F900BF049809B019
:101BE000BDE8F08F2DE9F04105460E46002700BF05
:101BF0003DB11F492869884203D11E4890F8F8007A
:101C000038B9C3221CA126A00CF00CFF0020BDE8AF
:101C1000F08100BF284610F0D7FF044634B3266198
:101C2000686940B1002304F1100216212846D5F856
:101C300014C0E04708E02869002304F110021621CF
:101C4000D0F80CC02846E047207E48B104F11400CB
:101C500014F005F820B904F1140014F007F802E0BC
:101C6000204611F067FD284610F000F93846CEE70F
:101C700098DA0608BC4501202E2E5C30302D4755E1
:101C8000495F4C4942524152595C776964676574B7
:101C9000735C6775695F6469616C6F672E630000D0
:101CA00041737365727420706172616D2066616941
:101CB0006C656420696E2066696C652025732061FF
:101CC0006E64206C696E652025640D0A00000000BA
:101CD0002DE9FC4107460D4616469846089C012012
:101CE000434632462946CDE90004384600F021F843
:101CF0000220CDE90004681E01B243463246384650
:101D000000F017F80820CDE90004701E02B2434627
:101D10002946384600F00DF80420CDE90004701E75
:101D200002B2681E01B24346384600F002F8BDE830
:101D3000FC812DE9FC5F81460C4615469846DDF88E
:101D400030A0C8F101000FFA80FB012001904FEA9A
:101D50004800404200B2009000274646A4EB08002D
:101D6000B9F90410884211DCA5EB0800B9F9061096
:101D700088420BDCB9F9000004EB0801884205DC5D
:101D8000B9F9020005EB0801884201DDBDE8FC9FBE
:101D900062E0BBF1000F09DB701E06B20098801CE8
:101DA00000B20090009858440FFA80FB781C07B2EC
:101DB0000198801C00B20190019858440FFA80FBF2
:101DC0000AF0010078B1E81B02B2A01B01B248463C
:101DD0000D9B00F0F7FCA81B02B2E01B01B24846C5
:101DE0000D9B00F0EFFC0AF0020078B1A81B02B2D4
:101DF000E01901B248460D9B00F0E4FCE81B02B27A
:101E0000A01901B248460D9B00F0DCFC0AF004006A
:101E100078B1A81902B2E01901B248460D9B00F052
:101E2000D1FCE81902B2A01901B248460D9B00F09E
:101E3000C9FC0AF0080078B1A81902B2E01B01B28F
:101E400048460D9B00F0BEFCE81902B2A01B01B28F
:101E500048460D9B00F0B6FCB7429ADB00BF95E701
:101E600010B504461C212046FEF772FA10BD000092
:101E70002DE9FE4304460D4616461F46DDE90A8954
:101E8000B4F90400A8420EDBB4F90600B0420ADB44
:101E9000B4F90000E919884205DCB4F9020006EB48
:101EA0000801884201DDBDE8FE83002F02DDB8F1A4
:101EB000000F00DCF7E7B4F90000A84205DD208838
:101EC000401B381A07B2B4F90050B4F90200B0420E
:101ED00007DD6088801BA8EB00000FFA80F8B4F9DA
:101EE0000260E819B4F90410884202DDA088401BA2
:101EF00007B206EB0800B4F90610884203DDE0885B
:101F0000801B0FFA80F8002F13DDB8F1000F10DDF1
:101F100009488DE88003C068008B301A03B2064878
:101F2000C068C08A281A02B20348C168D0F840C00D
:101F3000E04700BFB7E70000BC4501202DE9FC41A8
:101F400006460F4615469846089C012043462A46F9
:101F50003946CDE90004304600F01FF80220434620
:101F60002A463946CDE90004304600F016F808202C
:101F7000CDE90004681E02B243463946304600F0FF
:101F80000CF80420CDE90004681E02B2434639462D
:101F9000304600F002F8BDE8FC812DE9FF5F824683
:101FA000894614461F46DDE90EB8C7F1010000B2AC
:101FB0000390012002907800404200B20190002678
:101FC0003D46BAF9000009EB070188420FDCBAF977
:101FD0000200E11988420ADCA9EB0700BAF90410F3
:101FE000884204DCE01BBAF90610884201DDBDE836
:101FF000FF9F74E0039800280ADB681E05B2019871
:10200000801C00B2019001990398084400B203902B
:10201000701C06B20298801C00B20290DDE902102A
:10202000084400B203900BF00100A8B1601B02B29B
:10203000A9EB060001B233465046CDF8008000F00F
:102040001DF9A01B02B2A9EB050001B22B465046B8
:10205000CDF8008000F012F90BF0020088B1601B8F
:1020600002B2334649465046CDF8008000F006F9EA
:10207000A01B02B22B4649465046CDF8008000F026
:10208000FDF80BF00800A8B1A01902B2A9EB0500F9
:1020900001B22B465046CDF8008000F0EFF86019F1
:1020A00002B2A9EB060001B233465046CDF80080DB
:1020B00000F0E4F80BF0040088B1A01902B22B463E
:1020C00049465046CDF8008000F0D8F8601902B2B9
:1020D000334649465046CDF8008000F0CFF8AE4276
:1020E00088DB00BF83E72DE9FC4704460D46164612
:1020F0001F46DDE90A893B46324629462046CDE99E
:102100000089FFF7B5FEBDE8FC872DE9FC47824654
:10211000884691461E46DDE90B470A9D05EBD571C1
:10212000B4EB610F05DB284605EBD0714910491E61
:102130000CB206EBD671B4EB610F05DB304606EB53
:10214000D0714910491E0CB2002C75D0022000FB42
:10215000146000B200280CDD022000FB146003B202
:1021600008EB040001B24A465046CDE90057FFF79C
:10217000BAFF022000FB145000B200281EDD02202E
:1021800000FB145000B2CDE9000709EB040002B2D5
:10219000234641465046FFF7A6FF022000FB14509D
:1021A00000B2CDE9000709EB040002B208EB06001B
:1021B000001B01B223465046FFF795FF0120CDE9F1
:1021C000000709EB040002B208EB040001B2234649
:1021D0005046FFF7E2FE0220CDE9000709EB0400BC
:1021E00002B208EB0600001B401E01B22346504617
:1021F000FFF7D3FE0820CDE9000709EB0500001B1F
:10220000401E02B208EB040001B223465046FFF71D
:10221000C4FE0420CDE9000709EB0500001B401EA9
:1022200002B208EB0600001B401E01B223465046D6
:10223000FFF7B3FE08E0FFE733464A464146504603
:10224000CDE90057FFF74FFFBDE8FC872DE9F041CE
:1022500007460C4615460848C068008B281A03B28A
:102260000548C068C08A201A02B20348C168866A5D
:10227000B047BDE8F0810000BC4501202DE9FC41DC
:1022800004460D4617461E46DDF82080B4F90600C8
:10229000B8420CDDB4F90200B84208DCB4F904001D
:1022A000A84204DBA819B4F90010884201DABDE89D
:1022B000FC81B4F90000A84205DD2088401B301ADB
:1022C00006B2B4F90050A819B4F90410884202DD2E
:1022D000A088401B06B20948CDE90068C068008BA1
:1022E000381A03B20548C068C08A281A02B20348E7
:1022F000C168D0F838C0E04700BFD8E7BC4501202E
:102300002DE9FF4F8BB00F4690469946DDF860A04F
:1023100000240025A34600200A9009900890079009
:10232000069000260590049003900290B9EB0700F8
:1023300002D4A9EB070001E0A7EB090004B2BAEB55
:10234000080002D4AAEB080001E0A8EB0A0005B2DD
:102350007CB919980090D04501DA404600E050461B
:1023600002462B4639460B9800F056FA0FB0BDE8EE
:10237000F08F6DB9199800904F4501DA384600E0AA
:1023800048460146234642460B98FFF777FFEDE7A4
:10239000BB46CDF82880B94503DB012009900890A1
:1023A00003E04FF0FF3009900890C24503DB0120A5
:1023B0000790069003E04FF0FF3007900690AC4284
:1023C0000CDB0020099006902646204604EBD071D5
:1023D000491009B20591049503940BE00020089080
:1023E00007902E46284605EBD071491009B2059199
:1023F000049403950020029027E05946199BDDE9DB
:102400000A2000F0DFF9DDE90410084400B205906D
:102410000598B0420CDB0598801B00B20590099826
:1024200058440FFA80FB07990A98084400B20A90B2
:10243000089858440FFA80FB06990A98084400B29D
:102440000A900298401C00B20290DDE90201884225
:10245000D3DD00BF8AE72DE9F84381460F46904659
:102460001D46DDE9086405B10EB9BDE8F8832B46C9
:102470004246394648460094FFF700FF334642463D
:1024800039464846009400F0C7F908EB0600401EA4
:1024900002B22B46394648460094FFF7EFFE781902
:1024A000401E01B2334642464846009400F0B4F95B
:1024B00000BFDAE72DE9FF4F83B00C4615461E46F4
:1024C000DDE9107A4FF07F4BBAF1000F04D1DFF84D
:1024D00084804FEAF87903E0DFF87C80DFF87490BD
:1024E00033462A462146CDE9007B0398FFF7B3FF28
:1024F000B01E03B2681C02B2601C01B2CDF80080AD
:102500000398FFF7BBFEF81E03B2681C02B2601C02
:1025100001B2CDF80080039800F07EF9B01E03B23E
:10252000E819801E02B2601C01B2CDF80090039839
:10253000FFF7A4FE381F03B2A019801E01B2A81C29
:1025400002B2CDF80090039800F066F907B0BDE83C
:10255000F08F0000AAAAAAFF555555FF2DE9FC47A8
:102560008246884691461D46DDE90B470A9E06EBEA
:10257000D671B4EB610F05DB304606EBD071491024
:10258000491E0CB205EBD571B4EB610F05DB284693
:1025900005EBD0714910491E0CB2002C73D00220FB
:1025A00000FB145003B208EB040001B24A46504647
:1025B0000097FFF763FE022000FB146003B209EBF3
:1025C000040002B208EB0500401E01B2504600971D
:1025D00000F022F9022000FB145003B209EB0600C0
:1025E000401E02B208EB040001B250460097FFF70C
:1025F00045FE022000FB146003B209EB040002B2A6
:1026000041465046009700F007F90120CDE9000748
:1026100009EB040002B208EB040001B22346504665
:10262000FFF787FB0220CDE9000709EB040002B2A7
:1026300008EB0500001B401E01B223465046FFF781
:1026400078FB0820CDE9000709EB0600001B401EBF
:1026500002B208EB040001B223465046FFF769FBC3
:102660000420CDE9000709EB0600001B401E02B262
:1026700008EB0500001B401E01B223465046FFF741
:1026800058FB08E0FFE72B464A4641465046CDE955
:102690000067FFF7E0FEBDE8FC8700002DE9FC477E
:1026A00081460C464FF0000AB4F90480B4F90400E6
:1026B0004000032190FBF1F005B20020CDE900506D
:1026C000B4F90220B4F9001043464846FFF7F2FE81
:1026D0003749281F00B2CDE90001A8F1040003B278
:1026E0006088801C02B22088801C01B24846FFF737
:1026F000FAFC0020CDE900506088E3881844401BB4
:1027000002B2B4F9001043464846FFF7D3FE284909
:10271000281F00B2CDE900016088B4F806C060440B
:10272000401B801C02B2A8F1040003B22088801C68
:1027300001B24846FFF7D7FCB4F90600022101FBBD
:10274000150007B21A48CDE90070B4F9043060886A
:10275000284402B2B4F900104846FFF7C4FCD4E99B
:102760000310884213D220697843E168B0FBF1F08E
:1027700006B2062E00DA0626B81B61694843D4E982
:102780000312891AB0FBF1F00FFA80FA00E03E461E
:102790000020CDE90060B4F904306088284450443A
:1027A00002B2B4F900104846FFF784FEBDE8FC878A
:1027B000848484FF10B5044618212046FDF7C8FD27
:1027C00010BD0000F8B504460D4616461F46B4F984
:1027D0000200B0420BDCB4F90600B04207DDB4F9E8
:1027E0000000A84203DCB4F90400A84200DCF8BDF4
:1027F00008480097C068008B301A03B20548C068CB
:10280000C08A281A02B20348C168D0F824C0E04741
:1028100000BFECE7BC4501202DE9FC4104460F4612
:1028200015461E46DDF82080B4F90400B8420CDDE0
:10283000B4F90000B84208DCB4F90600A84204DB91
:10284000A819B4F90210884201DABDE8FC81B4F994
:102850000200A84205DD6088401B301A06B2B4F9B8
:102860000250A819B4F90610884202DDE088401B26
:1028700006B20948CDE90068C068008B281A03B287
:102880000548C068C08A381A02B20348C168D0F847
:102890003CC0E04700BFD8E7BC4501202DE9F04F20
:1028A0008FB08146884692461C461C2106A8FDF73B
:1028B0004FFD608910B998F804006081CDF8308030
:1028C0000B94207BC0F3C0000890514603A804F08D
:1028D00017FF002203A906A811F02CFCBDF91C006B
:1028E000B4F90410884211DD207B00F0020050B1E1
:1028F000514603A804F004FF224603A9404611F004
:10290000E0FB824602E0A088ADF81C00B4F900604C
:10291000B4F90250207A00F0100050B1B4F906105A
:10292000BDF91E20881A00EBD07105EB61010DB2D4
:1029300009E0207A00F0200028B1E088BDF81E10E0
:10294000401A284405B2B4F90200A84201DDB4F9E6
:102950000250208B281A05B2207B00F0040070B1D1
:10296000089860B1BDF91E00B4F90610884206DD72
:102970006088E1880844BDF81E10401A05B251462F
:1029800003A804F0BDFE5DE0B4F90060207A00F019
:10299000020050B1B4F90410BDF91C20881A00EBF4
:1029A000D07106EB61010EB209E0207A00F004005C
:1029B00028B1A088BDF81C10401A304406B229E0A6
:1029C0000A9800B926E00A98401E0A90B9F9040056
:1029D000B04200DA1EE00E980D2802D00E980A28A8
:1029E00001D1202000E00E980E9040460E9911F083
:1029F00027FB071E00D10DE03346224641464846DC
:102A0000CDE900570CF050FB387839790844304450
:102A100006B200BFBBF10000ABF1010B06D00DAA5E
:102A20000EA903A804F0A4FD0028C9D16089284498
:102A300005B2207B00F0040018B1B9F90600A842E5
:102A400000DA07E0012203A906A811F073FBB0F138
:102A5000000B99D100BF0FB0BDE8F08F2DE9F04118
:102A600004460E46002700BF3CB116492069884243
:102A700003D1154890F8F80040B940F2172213A18D
:102A80001DA00BF0CFFF0020BDE8F08100BF0121A9
:102A90000C200DF02BF9054695B1AE60294604F1E6
:102AA00064000CF031FFB4F85C00401C00B2A4F8E4
:102AB0005C0020460CF09BF920460EF0D9FE012761
:102AC0003846E1E760DA0608BC4501202E2E5C306E
:102AD000302D4755495F4C4942524152595C776904
:102AE00064676574735C6775695F64726F70646F47
:102AF000776E2E630000000041737365727420705E
:102B00006172616D206661696C656420696E206622
:102B1000696C6520257320616E64206C696E652088
:102B200025640D0A000000002DE9FF4F91B0044616
:102B30001646994612980B2870D008DC01280FD051
:102B400004281CD006286AD0082869D196E20C28EF
:102B500067D00E287ED011287DD01528F5D1ABE2A4
:102B60004FF0FF3024F85E0F1E20E081207C40F003
:102B7000040020745E3C012015B0BDE8F08FB04623
:102B800020460EF00FF8074620460EF0A9F81090E8
:102B900020460EF0C3FC054620460EF08FF90F903C
:102BA00094F86E0000F00100002865D00DA80EAB6F
:102BB0000FAA10A90090204610F024F80120BDF9BA
:102BC00034102B46CDE90010BDF938203946404677
:102BD000FFF770FC206D10B1206D006808E02069DF
:102BE000006918B120690069006801E04FF07F407A
:102BF000BDF83410091F09B2CDE90010281F03B237
:102C0000BDF83800801C02B2B81C01B24046FFF784
:102C10006AFA206D30B1206D00680CE0EFE1D8E178
:102C200053E2F5E12069006918B120690069006884
:102C300001E04FF07F40BDF83C10091F09B2CDE91B
:102C40000010281F03B2BDF84000801C02B2B81C5F
:102C500001B201E001E217E24046FFF744FA012029
:102C6000BDF93C102B46CDE90010BDF94020394696
:102C70004046FFF71FFC30E0BDF940000E90BDF963
:102C80003C000D900020BDF93C102B46CDE9001012
:102C9000BDF9402039464046FFF70CFC206D10B1CD
:102CA000206D006808E02069006918B1206900699A
:102CB000006801E04FF07F40BDF83C10091F09B2E9
:102CC000CDE90010281F03B2BDF84000801C02B2FD
:102CD000B81C01B24046FFF706FAB4F95E000028BE
:102CE00051DBE06BC0B306A8FFF7BAF8002104F18E
:102CF00064000CF01BFE83464FF0000A08E05946C2
:102D000000200CF013FE83460AF101000FFA80FA4E
:102D1000B4F95E005045F2DCF81C00B2ADF81800C2
:102D2000BDF83800C01C00B2ADF81A00A81F00B2F0
:102D3000ADF81C00BDF83400801F00B2ADF81E00D5
:102D400011208DF82000BDF81C00ADF82600206D84
:102D500018B1206D406809E015E02069006918B1DC
:102D600020690069406801E04FF07F400A902046EA
:102D70000EF05CF8059006AB01464046DBF80820F3
:102D8000FFF78CFD00BF94F86E0000F0010088B3DF
:102D900094F86E0000F0020060B35C34208A281AB8
:102DA00005B207A8FFF706FD7819401E00B2ADF87E
:102DB0001C00BDF84000401C00B2ADF81E00208A87
:102DC000ADF82000BDF83C00801E00B2ADF8220036
:102DD00000208DF82400B4F904000C9034F95C094B
:102DE0000A90204610F038F90B9007A94046FFF7EB
:102DF00055FC02E0FFE7681E05B294F86E0000F093
:102E00000100002870D0E06B0028FBD0606E002825
:102E1000F8D00020049005A9204610F0D7F883468A
:102E200006A8FFF71DF8381D00B2ADF81800BDF870
:102E30004000801C00B2ADF81A00A81F00B2ADF827
:102E40001C000FFA8BF0ADF81E0011208DF8200049
:102E5000BDF81C00ADF82600B8F906000390B8F9DB
:102E60000600BDF94010BDF93C201144884207DD41
:102E7000BDF84000BDF83C10084400B2A8F80600B8
:102E800000200490002104F164000CF04FFD824604
:102E90008FE0B4F960100498814200DD80E0B4F95D
:102EA0005E10049881425AD194F8380000F0100066
:102EB00070B1206D10B1206D006918E020690069C3
:102EC00018B120690069006911E04FF07F400EE001
:102ED000206D10B1206D406909E02069006920B1C2
:102EE00020690069406902E071E04FF07F40BDF960
:102EF0001E10594502DABDF91E1000E0594609B20C
:102F0000CDE90010E81E03B2BDF91A20B81C01B2C9
:102F10004046FFF7E8F894F8380000F0100070B170
:102F2000206D10B1206D806817E02069006918B12C
:102F300020690069806810E04FF07F400DE0206D4F
:102F400010B1206DC06808E02069006918B12069DF
:102F50000069C06801E04FF07F400A900EE0206DEC
:102F600010B1206D406808E02069006918B120693F
:102F70000069406801E04FF07F400A9020460DF064
:102F800055FF029006AB01464046DAF80820FFF7ED
:102F900085FCBDF81A00584400B2ADF81A0000BF15
:102FA000514600200CF0C2FC82460498401C80B2BE
:102FB0000490BAF1000F06D0BDF91A00B8F9061056
:102FC00088427FF766AF0398A8F8060000BF01208B
:102FD000D2E505E000BF28460CF090FE002500BFBA
:102FE000002104F164000CF0A1FC0746394604F10D
:102FF00064000CF077FD051EECD10120BCE53146E4
:10300000888A334A1080002089F800000120B3E547
:103010003746E06BF8B1002120460FF0D7FF0FFADA
:1030200080F8B88A2A490988081A05B2002D01DB00
:10303000284600E0684240450CDD002D01DD0120FE
:1030400001E04FF0FF300146204610F089FFB88ABA
:103050001F49088000BF01208EE5354694F86E00B8
:1030600000F0010020B90121204610F02CF803E007
:103070002946204610F0ABF801207DE500212046CE
:1030800010F021F8012077E535462878022807D18D
:10309000012120460FF03AFE002089F8000009E0E7
:1030A0002878012806D1811E20460FF02FFE00202F
:1030B00089F8000001205FE5B6F9001020460FF006
:1030C00025FE012089F8000056E5002054E50000A7
:1030D0001C0501202DE9F04F87B004460D46164629
:1030E0001F46DDE912ABDDE9108933462A46214649
:1030F00004488DE8800F0DF029FB0690069807B074
:10310000BDE8F08F60DA060870B504460D4600266B
:1031100000BF3CB119492069884203D1184890F892
:10312000F80038B940F22D2216A121A00BF07AFC4C
:10313000002070BD00BF94F86E0000F00100D8B907
:1031400094F86E0000F0080040B13DB994F86E00AC
:1031500000F0080084F86E0001260DE094F86E007F
:1031600000F0080040B9012D06D194F86E0040F03F
:10317000080084F86E0001263046DAE760DA0608B7
:10318000BC4501202E2E5C30302D4755495F4C49FF
:1031900042524152595C776964676574735C677524
:1031A000695F64726F70646F776E2E630000000059
:1031B00041737365727420706172616D206661691C
:1031C0006C656420696E2066696C652025732061DA
:1031D0006E64206C696E652025640D0A0000000095
:1031E00070B504460D4600BF3CB1194920698842BC
:1031F00003D1184890F8F80038B94FF41D7216A1A1
:1032000020A00BF00FFC002070BD00BF75B194F83A
:103210006E0000F0040048B994F86E0040F004001D
:1032200084F86E0020460EF023FB0EE06DB994F892
:103230006E0000F0040040B194F86E0020F004002D
:1032400084F86E0020460EF013FB0120DCE700003E
:1032500060DA0608BC4501202E2E5C30302D475523
:10326000495F4C4942524152595C776964676574C1
:10327000735C6775695F64726F70646F776E2E63DD
:103280000000000041737365727420706172616D9B
:10329000206661696C656420696E2066696C6520D2
:1032A000257320616E64206C696E652025640D0AAB
:1032B0000000000070B504460D46002600BF3CB17A
:1032C0001C492069884203D11B4890F8F80038B99E
:1032D00040F2862219A124A00BF0A4FB002070BDAF
:1032E00000BF94F86E0000F0040000BB7DB194F8BC
:1032F0006E0000F0020050B994F86E0040F0020039
:1033000084F86E0020460EF0B3FA01260FE075B97E
:1033100094F86E0000F0020048B194F86E0020F0BE
:10332000020084F86E0020460EF0A2FA0126304614
:10333000D5E7000060DA0608BC4501202E2E5C307F
:10334000302D4755495F4C4942524152595C77698B
:1033500064676574735C6775695F64726F70646FCE
:10336000776E2E63000000004173736572742070E5
:103370006172616D206661696C656420696E2066AA
:10338000696C6520257320616E64206C696E652010
:1033900025640D0A000000002DE9F04F8BB00446B3
:1033A0008B4691469A4600BF3CB17D4920698842D0
:1033B00003D17C4890F8F80040B953227AA185A047
:1033C0000BF030FB00200BB0BDE8F08F00BFBBF16D
:1033D000080F7DD009DCBBF1010F0DD0BBF1040F4C
:1033E00011D0BBF1070F74D1BFE0BBF10B0F71D04F
:1033F000BBF1110FF7D1C6E0102084F8590001206D
:1034000084F85A00DFE7CDF8289020460DF0CAFB7B
:10341000054620460DF064FC064620460EF07EF878
:10342000074620460DF04AFD804601203B463246C5
:103430002946CDE900800A98FFF73CF8206D10B1CD
:10344000206D006808E02069006918B120690069F2
:10345000006801E04FF07F40A8F1040109B2CDE916
:103460000010381F03B2B01C02B2A81C01B20A98A7
:10347000FEF739FE94F8380000F01000D8B1206D46
:1034800010B1206D806808E02069006918B12069DA
:103490000069806801E04FF07F40A8F1060109B2A1
:1034A000CDE90010B81F03B2F01C02B2E81C01B253
:1034B0000A98FEF7D0FF20460EF0F0FA78B303A882
:1034C000FEF7CEFC681D00B2ADF80C00701D02E0E6
:1034D00050E063E052E000B2ADF80E00A7F10A0040
:1034E00000B2ADF81000A8F10A0000B2ADF8120069
:1034F00094F85A0094F8591008438DF81400BDF858
:103500001000ADF81A00206D10B1206D406809E080
:103510002069006920B120690069406802E022E06A
:103520004FF07F4007909DF8180040F00A008DF89A
:10353000180094F8580000F0010028B19DF8180018
:1035400040F004008DF8180020460DF04DFF029069
:1035500020460DF06BFC03AB01900146029A0A98DD
:10356000FFF79CF900BF01202DE720460CF076F90B
:10357000012028E70CF026F9012024E700208AF832
:10358000000001201FE74D46294620460EF064FB4F
:1035900010B100208AF80000012014E7002012E793
:1035A00060D90608BC4501202E2E5C30302D4755D1
:1035B000495F4C4942524152595C7769646765746E
:1035C000735C6775695F65646974746578742E638C
:1035D0000000000041737365727420706172616D48
:1035E000206661696C656420696E2066696C65207F
:1035F000257320616E64206C696E652025640D0A58
:10360000000000002DE9F04F87B004460D46164635
:103610001F46DDE912ABDDE9108933462A46214613
:1036200004488DE8800F0DF091F80690069807B0D9
:10363000BDE8F08F60D9060870B504460D46012636
:1036400000BF3CB115492069884203D1144890F865
:10365000F80030B9BE2213A11DA00BF0E3F9002041
:1036600070BD00BF5DB194F8580000F0010030B9A2
:1036700094F8580040F0010084F858000BE055B968
:1036800094F8580000F0010028B194F8580020F098
:10369000010084F858003046E2E7000060D90608CF
:1036A000BC4501202E2E5C30302D4755495F4C49DA
:1036B00042524152595C776964676574735C6775FF
:1036C000695F65646974746578742E630000000036
:1036D00041737365727420706172616D20666169F7
:1036E0006C656420696E2066696C652025732061B5
:1036F0006E64206C696E652025640D0A0000000070
:1037000070B504460D4600BF3CB10D4920698842A2
:1037100003D10C4890F8F80030B9CC220AA115A0CA
:103720000BF080F9002070BD00BF94F85900A8424A
:1037300004D084F8595020460EF008F90120F2E731
:1037400060D90608BC4501202E2E5C30302D47552F
:10375000495F4C4942524152595C776964676574CC
:10376000735C6775695F65646974746578742E63EA
:103770000000000041737365727420706172616DA6
:10378000206661696C656420696E2066696C6520DD
:10379000257320616E64206C696E652025640D0AB6
:1037A0000000000070B504460D4600BF3CB10E4954
:1037B0002069884203D10D4890F8F80038B94FF4D9
:1037C000BB720BA114A00BF02DF9002070BD00BF3F
:1037D000294604F158000CF0F2F8214628460CF076
:1037E000EEF80120F2E7000018D90608BC450120D8
:1037F0002E2E5C30302D4755495F4C494252415284
:10380000595C776964676574735C6775695F677233
:103810006170682E630000004173736572742070DC
:103820006172616D206661696C656420696E2066F5
:10383000696C6520257320616E64206C696E65205B
:1038400025640D0A000000002DE9FF4F2DED0A8BC5
:103850008BB0044616980B2875D006DC01280BD0D7
:10386000042833D006286FD1F5E30C286DD00D283D
:103870006CD01028F7D1EFE30520A4F860000521F3
:10388000622001536420015366200153B2EE040A02
:1038900084ED1C0ABAEE040A84ED1B0AB2EE040A97
:1038A00084ED1E0ABBEE040A84ED1D0A20460BF0CF
:1038B000BAFE082084F868000A2084F86900012014
:1038C0000BB0BDEC0A8B04B0BDE8F08F179DB4F9C6
:1038D00060B0B4F962000990B4F964000890B4F9DA
:1038E000667020460DF05EF9804620460DF0F8F92E
:1038F000079020460DF012FE069020460DF0DEFAED
:103900008246206D10B1206D006808E020690069D2
:1039100018B120690069006801E04FF07F403B4624
:10392000CDE900A041462846079AFEF7DCFB206D52
:1039300010B1206D00680CE02069006938B1206981
:103940000069006805E002E3F4E31CE3F3E34FF0F1
:103950007F40CDE900B00698C21B0998101A03B247
:1039600008EB070001B22846079AFEF7BCFB206D62
:1039700010B1206D006808E02069006918B1206965
:103980000069006801E04FF07F400899CDE9001020
:103990000698A0EB070C0998ACEB000003B207985F
:1039A00000EB0A0CACEB010002B208EB070001B21D
:1039B0002846FEF798FB206D10B1206D006808E0E6
:1039C0002069006918B120690069006801E04FF0C2
:1039D0007F40CDE900A0069808EB00020998101A74
:1039E00001B22846099B079AFEF77DFB206D10B1B6
:1039F000206D406808E02069006918B120690069FD
:103A0000406801E04FF07F40AAEB0B020899511A81
:103A100009B2CDE900100698A0EB070C0998ACEBB1
:103A2000000003B20798584402B208EB070001B245
:103A30002846FEF758FB206D10B1206D806808E025
:103A40002069006918B120690069806801E04FF0C1
:103A50007F40CDE900A041462846DDE90632FEF769
:103A6000FAFC94F86800E0B3AAEB0B010898081A76
:103A700000EE100AF8EEC00A94F8680000EE100A92
:103A8000B8EE400A80EE801AB0EE418A012005901F
:103A900032E0206D10B1206DC06808E02069006937
:103AA00018B120690069C06801E04FF07F400090C4
:103AB0000798584400EE100AF8EEC00A9DED050A7A
:103AC000B8EE400A40EE080ABDEEE00A10EE100A19
:103AD00002B20698A0EB070C0998ACEB000003B209
:103AE00000E00FE008EB070001B22846FEF7C6FB36
:103AF0000598401CC0B2059094F868100598814262
:103B0000C7DC00BF94F86900F0B30698C11B0998A0
:103B1000081A00EE100AF8EEC00A94F8690000EEE8
:103B2000100AB8EE400A80EE801AB0EE418A0120F9
:103B3000059031E0206D10B1206DC06808E020696B
:103B4000006918B120690069C06801E04FF07F404A
:103B5000009008EB070000EE100AF8EEC00A9DED99
:103B6000050AB8EE400A40EE080ABDEEE00A10EE83
:103B7000100A01B2AAEB0B0C0898ACEB000003B2E0
:103B80000798584402B200E00CE02846FEF744FED5
:103B90000598401CC0B2059094F8691005988142C0
:103BA000C8DC00BFA06D002874D094ED200AD4EDCD
:103BB0001F0A30EE600AB0EE40CA94ED220AD4ED3E
:103BC000210A30EE600AF0EE40CA0698C11B09983F
:103BD000081A00EE100AB8EEC00AC0EE0C0AB0EEE9
:103BE00060AAAAEB0B010898081A00EE100AB8EEBA
:103BF000C00AC0EE2C0AB0EE60BA079800EB0A01CA
:103C00000898081A401E00B208EE900A08EB070058
:103C100000B209EE900A286803906868049008EBE7
:103C20000700B5F90010884203DD08EB070000B279
:103C30002880069808EB00010998081AB5F90410C5
:103C4000884206DA069808EB00010998081A00B2C3
:103C5000A88007985844B5F90210884203DD0798F8
:103C6000584400B26880079800EB0A010898091AC6
:103C7000B5F90600814206DA079800EB0A010898B8
:103C8000081A00B2E880002104F158000BF00AFF86
:103C90000A9051E159E10A9810B10A98806800E051
:103CA00000200646D6F8109030690290307EE0BBC6
:103CB000D4ED1F0AB8EEE90A00EECA0AB0EE408A57
:103CC000B06830F9190000EE100AB8EEC00AD4ED61
:103CD000210A70EE600AB8EEE80A00EECB0AF0EEB8
:103CE00040BA09F101008146F168884201D14FF0E4
:103CF0000009B5F9040000EE100AB8EEC00AB4EEEF
:103D0000C80AF1EE10FA14D396ED030AF8EE400A51
:103D1000B0EE480A00EE8A0AB5F9000000EE900AFB
:103D2000F8EEE00AB4EEE00A00E07AE0F1EE10FA14
:103D300000D2FCE066E038EE0A0AB0EE409AB068C5
:103D400030F9190000EE100AB8EEC00AD4ED210ACD
:103D500070EE600AB8EEE80A00EECB0AF0EE40AA78
:103D6000B5F9000000EE100AB8EEC00AB4EEC80AB9
:103D7000F1EE10FA0AD9B5F9000000EE100AB8EE1B
:103D8000C00AB4EEC90AF1EE10FA2FD8B5F9040052
:103D900000EE100AB8EEC00AB4EEC80AF1EE10FA4E
:103DA0000ADCB5F9040000EE100AB8EEC00AB4EE61
:103DB000C90AF1EE10FA19DDBDEEEA0A10EE101A8A
:103DC00009B27069BDEEC90ACDE9001010EE100A03
:103DD00003B2BDEEEB0A10EE100A02B2BDEEC80A45
:103DE00010EE100A01B22846FEF78AFAB0EE498AB0
:103DF000F0EE6ABA09F101008146F168884201D10A
:103E00004FF00009029881450AD0B5F9040000EE90
:103E1000100AB8EEC00AB4EEC80AF1EE10FA8ADA57
:103E200084E0307E01287DD14FEA4900B16831F944
:103E3000100000EE100AB8EEC00AD4ED1F0A70EEB2
:103E4000600AB8EEE90A00EE8A0AB0EE408A4FEA4C
:103E50004900401CB16831F9100000EE100AB8EEBC
:103E6000C00AD4ED210A70EE600AB8EEE80A00EE4E
:103E7000CB0AF0EE40BA09F101008146F1688842B0
:103E800001D14FF000094CE04FEA4900B16831F927
:103E9000100000EE100AB8EEC00AD4ED1F0A70EE52
:103EA000600AB8EEE90A00EE8A0AB0EE409A4FEADC
:103EB0004900401CB16831F9100000EE100AB8EE5C
:103EC000C00AD4ED210A70EE600AB8EEE80A00EEEE
:103ED000CB0AF0EE40AABDEEEA0A10EE101A09B2C3
:103EE0007069BDEEC90ACDE9001010EE100A03B2E8
:103EF000BDEEEB0A10EE100A02B2BDEEC80A10EEDB
:103F0000100A01B22846FEF7FBF9B0EE498AF0EE3E
:103F10006ABA09F101008146F168884201D14FF087
:103F2000000900E002E002988145ADD100BF002009
:103F30000A990BF0B7FD0A900A9800287FF4ABAEFF
:103F4000039828600498686000BF0120B8E4179ABD
:103F5000002100BF0FE002F1100030F81100894B82
:103F600023F8110002F1140030F81100864B23F8F9
:103F70001100481CC1B210788842ECDC002318986C
:103F8000037001209CE4179D2878012865D1B5F9BC
:103F90001070B5F9148020460DF0C0FAB4F966101F
:103FA000411AB4F96200081A00EE100AB8EEC00A0D
:103FB000D4ED200A94ED1F1A70EEC10A80EE201A8B
:103FC000F0EE418A6F48B0F90000381A00EE100A8E
:103FD000B8EEC00AC0EE280AB0EE608A94ED1F0A5F
:103FE00030EE480A84ED1F0A94ED200A30EE480AAC
:103FF00084ED200A20460CF061FFB4F96010411AEC
:10400000B4F96400081A00EE100AB8EEC00AD4ED44
:10401000220A94ED211A70EEC10A80EE201AF0EE09
:10402000418A5948B0F90000A8EB000000EE100AE0
:10403000B8EEC00AC0EE280AB0EE608A94ED210AFC
:1040400030EE080A84ED210A94ED220A30EE080AC7
:1040500084ED220A54E079E070E0287802284FD1FC
:10406000B5F9160002EE100AB8EEC22AF0EE421AB6
:10407000B5F9120002EE100AB8EEC22AB0EE421AEA
:10408000B5F9140002EE100AB8EEC22AF0EE420AA8
:10409000B5F9100002EE100AB8EEC22AB0EE420ADC
:1040A00009A90AA802F010F895ED070AD5ED080A4B
:1040B00080EE201AB0EE419A20460CF0FFFE00EE92
:1040C000100AB8EEC00ADDED090A80EE801AF0EEA3
:1040D000419A20460DF022FA00EE100AB8EEC00A0E
:1040E000DDED0A0A80EE801AB0EE41AAB0EE691A40
:1040F000F0EE4A0AB0EE490A20460BF0A5FA00BFDE
:1041000000260FE005F1100030F816001D4921F8D7
:10411000160005F1140030F816001B4921F81600AE
:10412000701CC6B22878B042ECDC20460DF0A0FB33
:1041300001200BE723E0FFE7012007E720460BF013
:1041400072FA20460DF094FB0120FFE6002104F1F5
:1041500058000BF0A7FC05460DE00DB1A86800E083
:1041600000200646214630460BF03CFC2946002044
:104170000BF098FC0546002DEFD10120E6E600206B
:10418000E4E6000012050120160501202DE9F04F9C
:1041900087B004460D4616461F46DDE912ABDDE941
:1041A000108933462A46214604488DE8800F0CF0DA
:1041B000CDFA0690069807B0BDE8F08F18D906082A
:1041C00070B504460E46154600BF1CB1174890F85E
:1041D000F80038B94FF4017215A11FA00AF022FCB3
:1041E000002070BD00BF207E20B92169A06820F8A2
:1041F00011500DE0207E01280AD120694000A168FD
:1042000021F8106020694000401CA16821F810507E
:104210002069401C2061D4E90310884201D30020AA
:104220002061204607F0A4FC0120DAE7BC4501200C
:104230002E2E5C30302D4755495F4C494252415239
:10424000595C776964676574735C6775695F6772E9
:104250006170682E63000000417373657274207092
:104260006172616D206661696C656420696E2066AB
:10427000696C6520257320616E64206C696E652011
:1042800025640D0A0000000070B506460D460121A8
:104290001C200BF02BFD0446ACB12676E5602EB950
:1042A000680001210BF022FDA06004E0A8000121BC
:1042B0000BF01CFDA060A06828B900BF20460BF0E1
:1042C0001DFD002400BF204670BD000010B52DED7F
:1042D000028B0446B0EE408A00BF3CB11049206911
:1042E000884203D10F4890F8F80048B940F2AF1265
:1042F0000DA117A00AF096FB0020BDEC028B10BDAB
:1043000000BF94ED1C0AB4EE480AF1EE10FA04D096
:1043100084ED1C8A20460DF0ABFA0120EDE7000089
:1043200018D90608BC4501202E2E5C30302D47558B
:10433000495F4C4942524152595C776964676574E0
:10434000735C6775695F67726170682E6300000057
:1043500041737365727420706172616D206661696A
:104360006C656420696E2066696C65202573206128
:104370006E64206C696E652025640D0A00000000E3
:1043800010B52DED028B0446B0EE408A00BF3CB163
:1043900010492069884203D10F4890F8F80048B9C5
:1043A00040F2C9120DA117A00AF03CFB0020BDECA1
:1043B000028B10BD00BF94ED1E0AB4EE480AF1EE68
:1043C00010FA04D084ED1E8A20460DF051FA012027
:1043D000EDE7000018D90608BC4501202E2E5C3000
:1043E000302D4755495F4C4942524152595C7769DB
:1043F00064676574735C6775695F67726170682E66
:104400006300000041737365727420706172616DA6
:10441000206661696C656420696E2066696C652040
:10442000257320616E64206C696E652025640D0A19
:104430000000000010B52DED028B0446B0EE408A5E
:1044400000BF3CB110492069884203D10F4890F861
:10445000F80048B94FF4D1720DA117A00AF0E2FAA2
:104460000020BDEC028B10BD00BF94ED1B0AB4EE22
:10447000480AF1EE10FA04D084ED1B8A20460DF0B4
:10448000F7F90120EDE7000018D90608BC45012026
:104490002E2E5C30302D4755495F4C4942524152D7
:1044A000595C776964676574735C6775695F677287
:1044B0006170682E63000000417373657274207030
:1044C0006172616D206661696C656420696E206649
:1044D000696C6520257320616E64206C696E6520AF
:1044E00025640D0A0000000010B52DED028B044676
:1044F000B0EE408A00BF3CB110492069884203D128
:104500000F4890F8F80048B94FF4DE720DA117A0DB
:104510000AF088FA0020BDEC028B10BD00BF94EDBC
:104520001D0AB4EE480AF1EE10FA04D084ED1D8A9B
:1045300020460DF09DF90120EDE7000018D906088E
:10454000BC4501202E2E5C30302D4755495F4C492B
:1045500042524152595C776964676574735C677550
:10456000695F67726170682E630000004173736554
:10457000727420706172616D206661696C6564207F
:10458000696E2066696C6520257320616E64206CFD
:10459000696E652025640D0A0000000010B52DED40
:1045A000048B0446B0EE408AF0EE608AB0EE419A89
:1045B00000BF3CB10E492069884203D10D4890F8F4
:1045C000F80048B940F2E1120BA115A00AF02AFA4E
:1045D0000020BDEC048B10BD00BFB0EE491AF0EE18
:1045E000680AB0EE480A20460BF02EF80120F0E7EA
:1045F00018D90608BC4501202E2E5C30302D4755B9
:10460000495F4C4942524152595C7769646765740D
:10461000735C6775695F67726170682E6300000084
:1046200041737365727420706172616D2066616997
:104630006C656420696E2066696C65202573206155
:104640006E64206C696E652025640D0A0000000010
:1046500010B5044600BF3CB10C492069884203D123
:104660000B4890F8F80038B94FF4EB7209A113A089
:104670000AF0D8F9002010BD00BF20460AF0D3FF91
:1046800020460DF0F5F80120F5E7000018D90608DE
:10469000BC4501202E2E5C30302D4755495F4C49DA
:1046A00042524152595C776964676574735C6775FF
:1046B000695F67726170682E630000004173736503
:1046C000727420706172616D206661696C6564202E
:1046D000696E2066696C6520257320616E64206CAC
:1046E000696E652025640D0A0000000070B504465F
:1046F00000BF1CB10F4890F8F80030B961220EA13C
:1047000016A00AF08FF9002070BD00BF11F074FAF6
:10471000A0600C2221461D48FCF755FC08B1012081
:1047200000E0002005461A490248F43011F057FA1B
:104730002846E9E7BC4501202E2E5C30302D475538
:10474000495F4C4942524152595C696E7075745CC4
:104750006775695F696E7075742E63004173736568
:10476000727420706172616D206661696C6564208D
:10477000696E2066696C6520257320616E64206C0B
:10478000696E652025640D0A00000000D44C0120EC
:104790003005012070B5044600BF1CB10F4890F8E9
:1047A000F80030B946220EA116A00AF03BF900200D
:1047B00070BD00BF11F020FAE060102221461D48B4
:1047C000FCF701FC08B1012000E0002005461A4971
:1047D0000248F43011F003FA2846E9E7BC4501200D
:1047E0002E2E5C30302D4755495F4C494252415284
:1047F000595C696E7075745C6775695F696E707518
:10480000742E630041737365727420706172616D00
:10481000206661696C656420696E2066696C65203C
:10482000257320616E64206C696E652025640D0A15
:1048300000000000184C01202C0501207FB5FC2150
:104840003E48FBF785FD11F087F90A213B48F4301B
:1048500011F08EF900204FF40073024638490090A1
:1048600038A011F024FA3549C1F8F0000120039076
:1048700003AB01F11C020021304801F089FB2F48F5
:10488000C16988472D48006900284AD0002421E0EA
:1048900000202A494969C4EBC40201EB8201C882A5
:1048A00026494969C4EBC40201EB8201088323480D
:1048B000008822494969C4EBC40201EB82014882A5
:1048C0001E4840881D494969C4EBC40201EB8201BE
:1048D0008882641C19480069A042D9D817484069E9
:1048E0001649886008464069C8604FF0FF310022D1
:1048F0001248B0F90200CDE9012100900F48B0F94B
:104900000030C06842680D48C168C56AA8470B48B6
:104910000069012804D9094840691C300749C8606A
:1049200002E0012004B070BD0AF008FF0120034935
:1049300081F8F8000CF096FF0020F3E7BC45012059
:10494000F95C01086775695F7468726561640000ED
:104950001FB50A48406868B9012009490022CDE91D
:1049600000020346CDE9021011460003FDF760F88E
:10497000024948600148406804B010BD3405012078
:10498000115D01080949097E01F0010169B10021A9
:10499000064A5269C0EBC00302EB8302117203495D
:1049A000896921F00101014A91617047BC450120EC
:1049B0002DE9F04F87B004468A46934600BF3CB1CC
:1049C0005A492069884203D1594890F8F80040B903
:1049D0004A2258A160A00AF025F8002007B0BDE8DF
:1049E000F08F00BFBAF1040F6FD1CDF818B0204698
:1049F0000CF0D8F8074620460CF072F980462046A5
:104A00000CF08CFD054620460CF058FA064694F84A
:104A1000590000F00100F0B1206D10B1206D006868
:104A200008E02069006918B120690069006801E0A8
:104A30004FF07F400590206D10B1206D806808E038
:104A40002069006918B120690069806801E04FF0B1
:104A50007F4004901DE0206D10B1206D406808E09B
:104A60002069006918B120690069406801E04FF0D1
:104A70007F400590206D10B1206DC06808E020696E
:104A8000006918B120690069C06801E04FF07F40FB
:104A9000049094F85800C8B9B11E09B20598CDE940
:104AA0000010A81E03B208F1010002B2781C01B286
:104AB0000698FDF718FB04982B4642463946CDE987
:104AC00000600698FDF7C7FC2BE02CE00598A9468E
:104AD000009005EBD970401003B206EBD67008EBDE
:104AE000600002B205EBD57007EB600001B2CDE9C2
:104AF00002560698FDF722FA0498009005EBD9704B
:104B0000401003B206EBD67008EB600002B205EB72
:104B1000D57007EB600001B2CDE902560698FDF7AB
:104B2000D7F801205AE7002058E7000088D9060886
:104B3000BC4501202E2E5C30302D4755495F4C4935
:104B400042524152595C776964676574735C67755A
:104B5000695F6C65642E63004173736572742070C5
:104B60006172616D206661696C656420696E2066A2
:104B7000696C6520257320616E64206C696E652008
:104B800025640D0A000000002DE9F04F87B00446AF
:104B90000D4616461F46DDE912ABDDE910893346A6
:104BA0002A46214604488DE8800F0BF0CFFD069081
:104BB000069807B0BDE8F08F88D9060870B504469E
:104BC0000D4600BF3CB118492069884203D11748FF
:104BD00090F8F80030B9BD2215A11EA009F022FFFF
:104BE000002070BD00BF75B194F8590000F00100BD
:104BF00048B994F8590040F0010084F85900204663
:104C00000CF036FE0EE06DB994F8590000F001008A
:104C100040B194F8590020F0010084F85900204672
:104C20000CF026FE0120DCE788D90608BC450120EF
:104C30002E2E5C30302D4755495F4C49425241522F
:104C4000595C776964676574735C6775695F6C65E7
:104C5000642E630041737365727420706172616DBC
:104C6000206661696C656420696E2066696C6520E8
:104C7000257320616E64206C696E652025640D0AC1
:104C80000000000070B504460D4600BF3CB10D4960
:104C90002069884203D10C4890F8F80030B98B2283
:104CA0000AA113A009F0BEFE002070BD00BF94F859
:104CB0005800A84204D084F8585020460CF046FE14
:104CC0000120F2E788D90608BC4501202E2E5C3071
:104CD000302D4755495F4C4942524152595C7769E2
:104CE00064676574735C6775695F6C65642E6300E7
:104CF00041737365727420706172616D20666169C1
:104D00006C656420696E2066696C6520257320617E
:104D10006E64206C696E652025640D0A0000000039
:104D200010B5044600BF3CB10D492069884203D14B
:104D30000C4890F8F80030B9B2220BA113A009F08A
:104D400071FE002010BD00BF94F8590080F00100F2
:104D500084F8590020460CF08BFD0120F2E700009A
:104D600088D90608BC4501202E2E5C30302D4755D1
:104D7000495F4C4942524152595C77696467657496
:104D8000735C6775695F6C65642E6300417373655E
:104D9000727420706172616D206661696C65642057
:104DA000696E2066696C6520257320616E64206CD5
:104DB000696E652025640D0A000000002DE9F041B0
:104DC00004460E46002700BF3CB1164920698842C0
:104DD00003D1154890F8F80040B940F2A11213A190
:104DE0001CA009F01FFE0020BDE8F08100BF0121DA
:104DF0000C200AF07BFF054695B1AE60294604F110
:104E000060000AF081FDB4F85800401C00B2A4F81C
:104E10005800204609F0A0FF20460CF029FD01278C
:104E20003846E1E730DA0608BC4501202E2E5C301A
:104E3000302D4755495F4C4942524152595C776980
:104E400064676574735C6775695F6C697374626FBE
:104E5000782E630041737365727420706172616DA6
:104E6000206661696C656420696E2066696C6520E6
:104E7000257320616E64206C696E652025640D0ABF
:104E8000000000002DE9FF4F8DB0044615460E9836
:104E90000C287DD008DC01280DD004281AD0062863
:104EA00077D00B2876D180E10E2874D0112873D0EA
:104EB0001528F7D10EE24FF0FF3024F85A0F1E20CC
:104EC000E081207C40F0020020745A3C012011B0A7
:104ED000BDE8F08F2F4620460BF064FE8146204649
:104EE0000BF0FEFE804620460CF018FB06462046DE
:104EF0000BF0E4FF82460120334642464946CDE9A5
:104F000000A03846FDF7D6FA206D10B1206D00687C
:104F100008E02069006918B120690069006801E0B3
:104F20004FF07F40AAF1040109B2CDE90010301F13
:104F300003B208F1020002B209F1020001B23846E0
:104F4000FDF7D1F894F86A0000F0010028B307A833
:104F5000FDF730FC5834208A301A06B209EB0600FF
:104F6000401E00B2ADF81C0008F1010000B2ADF81F
:104F70001E00208AADF82000AAF1020000B2ADF8B0
:104F8000220000208DF82400B4F904000C9005E004
:104F900014E1F4E0A8E136E18AE10BE034F95809C4
:104FA0000A9020460EF046F80B9007A93846FDF708
:104FB00075FB01E0701E06B2E06B002872D0206E17
:104FC0000028FBD000200490002120460DF0E4FFD3
:104FD000059006A8FCF744FF09F1040000B2ADF803
:104FE000180008F1020000B2ADF81A00301F00B23C
:104FF000ADF81C00059800B2ADF81E0011208DF828
:105000002000BDF81C00ADF82600B7F9060003909B
:10501000B7F9061008EB0A00801E814204DD08EB98
:105020000A00801E00B2F88000200490002104F1E4
:1050300060000AF07BFC834692E0B4F95C100498AF
:10504000814200DD83E0B4F95A10049881425CD1BA
:1050500094F8380000F0100070B1206D10B1206D90
:10506000006917E02069006918B1206900690069CA
:1050700010E04FF07F400DE0206D10B1206D4069D1
:1050800008E02069006918B120690069406901E001
:105090004FF07F40BDF91E2005998A4203DABDF921
:1050A0001E1001E069E0059909B2CDE90010F01E7B
:1050B00003B2BDF91A2009F1020001B23846FDF72A
:1050C00012F894F8380000F0100070B1206D10B1A3
:1050D000206D806817E02069006918B120690069B7
:1050E000806810E04FF07F400DE0206D10B1206D22
:1050F000C06808E02069006918B120690069C068CB
:1051000001E04FF07F400A900EE0206D10B1206D5D
:10511000406808E02069006918B1206900694068AA
:1051200001E04FF07F400A9020460BF07FFE029096
:1051300006AB01463846DBF80820FDF7AFFBBDF8AB
:105140001A100598084400B2ADF81A0000BF59467D
:1051500000200AF0EBFB83460498401C80B20490C8
:10516000BBF1000F06D0BDF91A00B7F9061088424E
:105170007FF763AF0398F88000BF0120A7E605E042
:1051800000BF30460AF0BAFD002600BF002104F13E
:1051900060000AF0CBFB0746394604F160000AF0D4
:1051A000A1FC061EECD1012091E62946888A4F4ACF
:1051B0001080002210980270012088E62F46E06BD4
:1051C000F8B1002120460DF0E7FE0FFA80F8B88A0A
:1051D00046490988081A06B2002E01DB304600E075
:1051E000704240450CDD002E01DD012001E04FF052
:1051F000FF30014620460EF07BFEB88A3B4908800E
:1052000000BF012063E62E464FF0000820460CF058
:1052100085F9814620460BF051FE824694F86A00DB
:1052200000F0010008B3B6F91000B4F96810A9EB5A
:105230000101884219DDB6F91400B4F968108842FA
:1052400005DA4FF0FF3120460EF052FE0BE0B6F9C2
:105250001400B4F96810AAEB0101884203DD0121B2
:1052600020460EF045FE4FF00108B8F1000F1DD1A9
:10527000E06BD8B1002120460DF08EFE8346B6F9D2
:10528000140090FBFBF087B2B4F95C003844B4F929
:105290005810884209DCB4F85C00384401B220465A
:1052A0000EF0A7FC20460CF0E3FA00BF01200EE64A
:1052B0002E463078022804D1012120460DF0EFFC63
:1052C00006E03078012803D1811E20460DF0E7FC6E
:1052D0000120FCE5B5F9001020460DF0E0FC0121AD
:1052E000109801700120F2E50020F0E51A05012078
:1052F0002DE9F04F87B004460D4616461F46DDE9FE
:1053000012ABDDE9108933462A46214604488DE870
:10531000800F0BF01BFA0690069807B0BDE8F08FDF
:1053200030DA060870B504460D4600BF3CB1194995
:105330002069884203D1184890F8F80038B94FF432
:10534000F57216A11FA009F06DFB002070BD00BF13
:1053500075B194F86A0000F0020048B994F86A0048
:1053600040F0020084F86A0020460CF081FA0EE05A
:105370006DB994F86A0000F0020040B194F86A0038
:1053800020F0020084F86A0020460CF071FA012037
:10539000DCE7000030DA0608BC4501202E2E5C3028
:1053A000302D4755495F4C4942524152595C77690B
:1053B00064676574735C6775695F6C697374626F49
:1053C000782E630041737365727420706172616D31
:1053D000206661696C656420696E2066696C652071
:1053E000257320616E64206C696E652025640D0A4A
:1053F0000000000070B504460D46002600BF3CB119
:105400001C492069884203D11B4890F8F80038B93C
:105410004FF4FE7219A123A009F004FB002070BD17
:1054200000BF94F86A0000F0020000BB7DB194F860
:105430006A0000F0010050B994F86A0040F00100E1
:1054400084F86A0020460CF013FA01260FE075B9C3
:1054500094F86A0000F0010048B194F86A0020F066
:10546000010084F86A0020460CF002FA012630465A
:10547000D5E7000030DA0608BC4501202E2E5C304E
:10548000302D4755495F4C4942524152595C77692A
:1054900064676574735C6775695F6C697374626F68
:1054A000782E630041737365727420706172616D50
:1054B000206661696C656420696E2066696C652090
:1054C000257320616E64206C696E652025640D0A69
:1054D000000000002DE9F04704460F4690464FF0CB
:1054E000000900BF3CB11D492069884203D11C4816
:1054F00090F8F80040B940F207221AA124A009F060
:1055000091FA0020BDE8F08700BFB4F85C20921C3F
:105510009100A06D0AF0F8FB0646EEB1A6650121E8
:1055200010200AF0E3FB0546B5B15834A188481CA9
:10553000A080206840F821500020A2882168583CB3
:1055400041F82200EF60B8F1000F01DD404600E0B5
:10555000642028814FF001094846D3E7CCDA0608D9
:10556000BC4501202E2E5C30302D4755495F4C49FB
:1055700042524152595C776964676574735C677520
:10558000695F6C697374766965772E63000000004B
:1055900041737365727420706172616D2066616918
:1055A0006C656420696E2066696C652025732061D6
:1055B0006E64206C696E652025640D0A0000000091
:1055C00070B5044600BF3CB113492069884203D13D
:1055D000124890F8F80038B940F22F2210A11BA011
:1055E00009F020FA002070BD00BF012110200AF050
:1055F0007DFB05466DB1294604F160000AF084F98F
:10560000B4F86800401C00B2A4F86800204609F015
:1056100039FC2846E7E70000CCDA0608BC45012043
:105620002E2E5C30302D4755495F4C494252415235
:10563000595C776964676574735C6775695F6C69E9
:105640007374766965772E6300000000417373659B
:10565000727420706172616D206661696C6564208E
:10566000696E2066696C6520257320616E64206C0C
:10567000696E652025640D0A000000002DE9FF4FCA
:1056800091B00446164612980C2870D008DC012808
:105690000DD004281AD006286AD00B2869D1ABE2B5
:1056A0000E2867D0112876D01528F7D1CCE34FF01B
:1056B000FF3024F86A0F1E20A080A07940F002007D
:1056C000A0716A3C012015B0BDE8F08F374694F810
:1056D0003800C0F3C0100F9020460BF063FA8046EC
:1056E00020460BF0FDFA824620460BF017FF81465C
:1056F00020460BF0E3FB1090204609F0C3FB0F9807
:1057000048B3012110984B465246CDE9000141466D
:105710003846FCF7CFFE206D10B1206D006808E020
:105720002069006918B120690069006801E04FF044
:105730007F401099091F09B2CDE90010A9F10400BA
:1057400003B20AF1020002B208F1020001B23846C7
:10575000FCF7C9FC3AE0206D10B1206D80690CE0C7
:105760002069006938B120690069806905E04FE26D
:10577000F7E173E3CCE24FF07F4010994B4652467D
:10578000CDE9001041463846FCF765FE206D18B1A2
:10579000206D006809E03FE32069006918B12069C5
:1057A0000069006801E04FF07F401099891E09B23E
:1057B000CDE90010A9F1020003B20AF1010002B222
:1057C00008F1010001B23846FCF78DFC94F8700036
:1057D00000F0010068B307A8FCF7ECFF6834E0882C
:1057E000A9EB00000FFA80F908EB0900401E00B297
:1057F000ADF81C000AF1010000B2ADF81E00E0880F
:10580000ADF820001098801E00B2ADF822000020F4
:105810008DF82400B4F904000C9034F968090A905A
:1058200020460DF03CFC0B9007A93846FCF736FFEC
:1058300003E0A9F101000FFA80F9002120460DF0E4
:10584000DFFB8346FB48CDE900B0A9F1030003B2BA
:105850000AF1020002B208F1020001B23846FCF778
:1058600042FCA06D00287DD0A06D00680028FAD011
:1058700008F1020000B20C9005A8FCF7F1FAADF8AF
:105880001AB011208DF81C00BDF81800ADF82200E8
:10589000B7F904000490B7F9041008EB0900401EA2
:1058A000814204DD08EB0900401E00B2B8800AF115
:1058B000020000B2ADF8160000254FE00F98D8B1F5
:1058C0000020CDE900B0A06D50F82500B0F90830F7
:1058D000BDF9162038460C99FCF7ECFDA06D50F888
:1058E00025000089001F00B2ADF818000C98801C3C
:1058F00000B2ADF814001AE0CF48CDE900B0A06DB9
:1059000050F82500B0F90830BDF9162038460C993A
:10591000FCF7A1FDA06D50F825000089801F00B2A2
:10592000ADF818000C98C01C00B2ADF81400204669
:105930000BF07CFA0390A06D50F8250005ABC2680F
:1059400038460399FCF7AAFFA06D50F8250001899D
:105950000C98084400B20C90681C85B2B4F85C0046
:10596000A84200E0FBE0A9DCBDF81600584400B2F4
:10597000ADF81600E06B00286FD0206E0028FBD039
:1059800000200390B7F906000290B7F906101098AE
:105990005044801E814204DD10985044801E00B2A5
:1059A000F88000200390002104F1600009F0BEFFA0
:1059B0000E90C5E0B4F96C100398814200DDB6E0AA
:1059C000B4F96A10039881425BD194F8380000F072
:1059D000100070B1206D10B1206D006917E02069D2
:1059E000006918B120690069006910E04FF07F403C
:1059F0000DE0206D10B1206D406908E0206900695C
:105A000018B120690069406901E04FF07F40BDF99D
:105A10001A10594502DABDF91A1000E05946CDE9CD
:105A20000010A9F1020003B2BDF9162008F102002E
:105A300001B23846FCF757FB94F8380000F010002C
:105A400078B1206D10B1206D806818E02069006980
:105A500020B120690069806811E07DE04FF07F404F
:105A60000DE0206D10B1206DC06808E0206900696C
:105A700018B120690069C06801E04FF07F400990CB
:105A80000EE0206D10B1206D406808E020690069CB
:105A900018B120690069406801E04FF07F4009902B
:105AA00008F1020000B20C90002500210E98083089
:105AB00009F03CFF0D902DE00D988068D8B1A06DE5
:105AC00050F825000089801F00B2ADF818005B482F
:105AD0000088ADF822000C98C01C00B2ADF814008C
