:020000040800F2
:10000000E82203209902000877B300087FA80008BF
:1000100073B30008650A00083DD500080000000021
:10002000000000000000000000000000DD010008EA
:10003000910C000800000000310200084DB40008D7
:10004000B3020008B3020008B3020008B3020008BC
:10005000B3020008B3020008950C00083D0D00082B
:10006000590D0008750D0008910D0008050B0008DA
:10007000150B0008250B0008350B0008450B000880
:10008000550B0008650B0008B3020008B302000816
:10009000B3020008B3020008B3020008AD0D000867
:1000A000B3020008B3020008B3020008B30200085C
:1000B000B3020008B3020008B3020008B30200084C
:1000C000B3020008B3020008B3020008B30200083C
:1000D000B302000889D40008B5D40008E5D40008AC
:1000E000B10C0008B3020008B3020008B302000814
:1000F000B3020008B3020008B3020008750B000841
:10010000B3020008B3020008B3020008B3020008FB
:100110009DCE0008CDCE0008B3020008B30200084F
:10012000110C0008210C0008310C0008410C0008DB
:10013000510C0008B3020008B3020008B302000823
:10014000B3020008B3020008B3020008B3020008BB
:10015000610C0008710C0008810C000815D500081E
:10016000B3020008B3020008B3020008B30200089B
:10017000B3020008B3020008B30200080000000048
:10018000B3020008B3020008F9CE000829CF000826
:10019000B3020008B3020008B3020008B30200086B
:1001A00051B10008B3020008850B0008B302000833
:1001B000B3020008B3020008B3020008B30200084B
:1001C000B3020008B3020008DFF80CD000F042FBD5
:1001D00000480047A1200108E82203202B4B1968A2
:1001E0000868B0E8F04F80F30988BFF36F8F4FF0D5
:1001F000000080F311887047000000000648006886
:10020000006880F3088862B661B6BFF34F8FBFF312
:100210006F8F00DF00BF00BF08ED00E0DFF80C00CB
:10022000016841F470010160704700BF88ED00E093
:10023000EFF30980BFF36F8F144B1A681EF0100F95
:1002400008BF20ED108A20E9F04F106008B44FF08D
:10025000500080F31188BFF34F8FBFF36F8F12F000
:10026000FBF84FF0000080F3118808BC196808689B
:10027000B0E8F04F1EF0100F08BFB0EC108A80F30A
:100280000988BFF36F8F704700BF00BF380301209C
:10029000EFF3058070470000064880470648004796
:1002A000FEE7FEE7FEE7FEE7FEE7FEE7FEE7FEE726
:1002B000FEE7FEE755B40008C901000840EA010363
:1002C0009B0703D009E008C9121F08C0042AFAD20C
:1002D00003E011F8013B00F8013B521EF9D27047D0
:1002E000D2B201E000F8012B491EFBD27047002278
:1002F000F6E710B513460A4604461946FFF7F0FF25
:10030000204610BD10B5044604E00B7800F8013B10
:1003100003B1491C521EF8D2204610BD421C10F8F1
:10032000011B0029FBD1801A704710B5002200E0A4
:10033000521C835C8C5CA34201D1002BF8D1D8B253
:10034000E1B2401A10BD034611F8012B00F8012B51
:10035000002AF9D11846704710B54843044611F0F9
:10036000E3F9002805D00021002C02D0641E0155BD
:10037000FAE710BD00F0004230F000400AD0C10D95
:1003800001F56071C0F3160042EA0151C20840074E
:100390001143704700200146704701F0004330B41C
:1003A00021F0004150EA010206D00A0DA2F5607268
:1003B000C1F31301002A02DC30BC00207047440F57
:1003C00044EAC104C100E01830BC00EBC25000F0A8
:1003D00031B82DE9F05F0546002092469B468846DD
:1003E0000646814640241BE02846414647462246B1
:1003F00000F051FA53465A46C01A914110D31146A3
:100400001846224600F038FA2D1A67EB01084F46CD
:1004100022460120002100F02FFA17EB00094E417F
:10042000201EA4F10104DFDC484631462A4643463B
:10043000BDE8F09F0029A8BF7047401C490008BFD5
:1004400020F00100704710B4B0FA80FC00FA0CF004
:1004500050EA010404BF10BC704749B1CCF120043C
:1004600021FA04F411FA0CF118BF012121430843C9
:10047000A3EB0C01CB1D4FEA00614FEA102042BFF5
:10048000002010BC704700EBC35010440029A4BFEB
:1004900010BC7047401C490008BF20F0010010BC90
:1004A00070472DE9FE4F804681EA0300C00F0C46DD
:1004B000009021F0004123F00045B8EB0200A94173
:1004C00005D24046214690461C460B46024623F084
:1004D0000040104347D0270DC7F30A00C3F30A5169
:1004E0000290401A019040286BDAC3F3130040F4E5
:1004F000801B0098924620B10023D2EB030A63EBE5
:100500000B0B01985946C0F14002504600F0B4F977
:1005100006460D4650465946019A00F0CCF910EBBC
:1005200008006141002487EA115284EAE7731A4304
:1005300040D0009A62B3019A012A4FEA075215DCB3
:10054000001B61EB02014FF0004202EA0752CDE9C5
:100550000042001C41F5801132462B4600F0CCF9D8
:1005600003B0BDE8F08F40462146F9E7001B61EB80
:100570000201001C41F5801300185B412018A2F510
:10058000001747EB030140EAD570B6196D4111E041
:100590006D084FEA360645EAC0754FEA0752001B60
:1005A00061EB0201001C41F5801149084FEA30005F
:1005B0000019514132462B4603B0BDE8F04F00F020
:1005C0008CB90098012240000023D0EB020263EBBB
:1005D000E073009821464FEAE074B8EB000061EB4D
:1005E0000401E9E783F000435BE781F0004158E74D
:1005F0002DE9FE4F81EA030404F0004421F000419C
:1006000000944FF0000B23F0004350EA01045ED049
:1006100052EA03045BD0C3F30A54C1F30A552C44D5
:10062000A4F2F3340194A0FB0254C1F3130141F48A
:100630008011C3F3130343F4801301FB024400FB56
:10064000034E840A970A44EA815447EA8357A4FB7D
:10065000076802958D0A05FB07854FEA932C04FB7A
:100660000C542705029D4FEA065847EA1637B5EBAA
:1006700008056EEB070C870E920E47EA811742EAD7
:100680008312A7FB0201B6EB0B0164EB00042B0DF8
:1006900043EA0C335E1844EB1C50DA465146E7FB44
:1006A0000201C5F313044FEA0B3343EA14534FEA34
:1006B0000432019C43EA0603A4F10C040294009C5A
:1006C000CDE900B400F018F903B0BDE8F08F0020C8
:1006D0000146F9E72DE9F04D81EA030404F0004BEF
:1006E00021F0004514464FF0000A23F0004150EA83
:1006F000050220D054EA01021DD0C5F30A57024674
:10070000C5F31303C1F31300C1F30A5640F4801577
:1007100043F48013A7EB0608101BD64608F2FD38F9
:1007200073EB050002D308F1010801E092185B4168
:10073000B8F1000F03DA00200146BDE8F08D00207B
:100740004FF48011064684460EE0171B73EB050735
:1007500005D3121B63EB050306434CEA010C490861
:100760004FEA300092185B4150EA0107EDD152EA9E
:10077000030012D082EA040083EA0501084305D091
:10078000101BAB4106D20122002306E000224FF0ED
:10079000004302E06FF0010253101AEB06004CEB2D
:1007A000085110EB0A0041EB0B01BDE8F04D00F0E1
:1007B00094B82DE9F04D00231A461B1A8A4103DB39
:1007C00000200146BDE8F08DC1F30A52C1F31301C8
:1007D00041F480154FF0000BD10702D100186D4194
:1007E000521E0027044640F2FF11384601EB620A10
:1007F0003E468046024600204FF4801100F04BF840
:10080000C2197141BB1846EB0100B4EB030C75EB48
:10081000000C04D3E41A65EB000517460E462419B4
:1008200008F101006D4180463428E3DDF91946EBFB
:100830000600091BA84103D24FF0FF32134601E026
:10084000002213461BEB070046EB0A51BDE8F04DB2
:1008500000F043B8064C074D06E0E06840F00103A5
:1008600094E8070098471034AC42F6D3FFF7B0FC89
:100870006439030884390308202A04DB203A00FA8B
:1008800002F1002070479140C2F1200320FA03F3E7
:10089000194390407047202A04DB203A21FA02F0E5
:1008A0000021704721FA02F3D040C2F120029140AA
:1008B000084319467047202A06DBCB17203A41FA35
:1008C00002F043EAE07306E041FA02F3D040C2F1DD
:1008D0002002914008431946704710B5141E73F169
:1008E000000408DA401C41F1000192185B411A43F0
:1008F00001D120F0010010BD2DE9F04D92469B463C
:1009000011B1B1FA81F202E0B0FA80F220329046E1
:10091000FFF7B2FF04460F4640EA0A0041EA0B0126
:1009200053465A46084313D0114653EA010019D0E2
:10093000C8F140025046FFF7AEFF05460E4650464E
:1009400059464246FFF798FF084305D0012004E0CE
:1009500020463946BDE8F08D0020054346EAE076A2
:100960002C4337430A986305E40AA0EB08000022F1
:10097000FD0A44EA47540A3002D500200146E9E75F
:10098000010510196941DDE9084500196941BDE813
:10099000F04DA2E70EB5C10F80EAE0700844CA0727
:1009A000002140F233438DE80E000A460B46FFF764
:1009B000A3FF03B000BD0EB540F233410291002108
:1009C000CDE900110A460B46FFF796FF03B000BDC4
:1009D00070B5C1F30A5201F000450024C1F31301C0
:1009E00040F2FF3341F480119A4201DA002070BDD9
:1009F00040F233439A42A2F2334203DC5242FFF701
:100A00004AFF00E090402C43F1D0404270BD70B5E9
:100A10008C1810F8015B15F0070301D110F8013BA9
:100A20002A1106D110F8012B03E010F8016B01F830
:100A3000016B5B1EF9D12B0705D40023521E0DD488
:100A400001F8013BFAE710F8013BCB1A921C03E0D6
:100A500013F8015B01F8015B521EF9D5A142D8D30E
:100A6000002070BD00BFFEE72DE9F04320222023C7
:100A7000234E4FF48078B8FBF2F7B8FBF3FC00216B
:100A80003AE00FFA81F80FFA83F9B8EB090806D5B6
:100A90000FFA83F80FFA81F9A8EB090805E00FFABD
:100AA00081F80FFA83F9A8EB090808FB0CF5002080
:100AB0001FE00FFA80F80FFA82F9B8EB090806D5A3
:100AC0000FFA82F80FFA80F9A8EB090805E00FFA8F
:100AD00080F80FFA82F9A8EB09084FEA880808FBAA
:100AE00007F404FB05F84FEA182886F80080761C06
:100AF000401C4028DDD3491C4029C2D3BDE8F08307
:100B00001206012010B502480AF0E1FD10BD0000F8
:100B10001060024010B502480AF0D9FD10BD000077
:100B20002860024010B502480AF0D1FD10BD000057
:100B30004060024010B502480AF0C9FD10BD000037
:100B40005860024010B502480AF0C1FD10BD000017
:100B50007060024010B502480AF0B9FD10BD0000F7
:100B60008860024010B502480AF0B1FD10BD0000D7
:100B7000A060024010B502480AF0A9FD10BD0000B7
:100B8000B860024010B5024807F072FE10BD0000C8
:100B9000B01801201949CA68497A01EB810102EBBA
:100BA0008101486800BF1649096801F00101002968
:100BB000F9D14FF40031124A11601249D160114647
:100BC0004861C863002111610C49B1F904108039F2
:100BD00091610D4911620949B1F90410803911641C
:100BE0000A21D161022151625163084951641146C1
:100BF000096841F00101116070470000A817012049
:100C000000B00240120601200000FF80400080007A
:100C100010B502480AF05BFD10BD000010640240F0
:100C200010B502480AF053FD10BD000028640240D0
:100C300010B502480AF04BFD10BD000040640240B0
:100C400010B502480AF043FD10BD00005864024090
:100C500010B502480AF03BFD10BD00007064024070
:100C600010B502480AF033FD10BD00008864024050
:100C700010B502480AF02BFD10BD0000A064024030
:100C800010B502480AF023FD10BD0000B864024010
:100C90007047000010B50548006800F0010020B161
:100CA0000120024908600AF051FE10BD143C0140C9
:100CB00010B52148006800F4806028B14FF48060CE
:100CC0001D4908600AF042FE1B48006800F40060FD
:100CD00028B14FF40060184908600AF037FE164842
:100CE000006800F4805028B14FF480501249086029
:100CF0000AF02CFE1048006800F4005028B14FF4B0
:100D000000500D4908600AF021FE0B48006800F40D
:100D1000804028B14FF48040074908600AF016FE71
:100D20000548006800F4004028B14FF40040024933
:100D300008600AF00BFE10BD143C014010B50548D8
:100D4000006800F0020020B10220024908600AF0A9
:100D5000FDFD10BD143C014010B50548006800F0D1
:100D6000040020B10420024908600AF0EFFD10BD24
:100D7000143C014010B50548006800F0080020B19F
:100D80000820024908600AF0E1FD10BD143C014052
:100D900010B50548006800F0100020B1102002498D
:100DA00008600AF0D3FD10BD143C014010B51A488C
:100DB000006800F0200020B12020174908600AF0E8
:100DC000C5FD1548006800F0400020B140201249E0
:100DD00008600AF0BBFD1048006800F0800020B1F8
:100DE00080200D4908600AF0B1FD0B48006800F44E
:100DF000807028B14FF48070074908600AF0A6FDA2
:100E00000548006800F4007028B14FF400700249F2
:100E100008600AF09BFD10BD143C014030B502464D
:100E2000002300240868012816D013686FF30E030E
:100E3000D1E901052843CD6828430D6928434D6950
:100E400028438D692843CD6928430D6A28434D6A9C
:100E500028430343136019E0136823F4F843D1E9EE
:100E6000070528434D6A2843034354686FF30E0473
:100E7000D1E901052843CD6828430D6928434D6910
:100E800028438D692843044313605460002030BD1B
:100E90000246506940EA4100506100207047F8B5B1
:100EA00006460C461546002000900027D4E90001B4
:100EB0000843A168491E40EA4110E16840EA412028
:100EC00000900098306107F0A3FD074609E0681C18
:100ED00038B125B107F09CFDC01BA84201D9032001
:100EE000F8BDB06900F020000028F0D100BFF7E79E
:100EF00070B50346154600220024012D1FD09A68C4
:100F000002F070420868401E4E68761E40EA0616DF
:100F10008868401E46EA0026C868401E46EA003639
:100F2000088A401E46EA0046888A401E46EA005665
:100F3000087E401E46EA006002439A6022E09A68FA
:100F400011480240C868401E0603888A401E46EACF
:100F500000500243DC6804F070440868401E4E688C
:100F6000761E40EA06168868401E46EA0026088A71
:100F7000401E46EA0046087E401E46EA00600443E2
:100F80009A60DC60002070BDFF0F0FFF01B500BF4D
:100F90000098411E00910028FAD108BD30B50146E5
:100FA000002409B9002030BD4A688B689A4201D1FB
:100FB0000C6806E0934201D99C1A02E0D51A086831
:100FC000441B601EEFE730B5014609B9002030BD73
:100FD0004A688B689A4201D1002406E09A4201D9FE
:100FE000D41A02E09D1A0868441B2046EFE770B54A
:100FF00004460D4616460CB9012070BD1821204646
:10100000FFF775F92560E6600A206074E06868B94A
:10101000284610F089FBE060E06818B900202060E5
:101020000120EAE7207C40F002002074207C40F0A0
:10103000010020740020E0E72DE9F04704468946CE
:1010400015464FF00008CA4604B115B90020BDE8A6
:10105000F0872168A068884201D30020A060204664
:10106000FFF7B1FF0746AF4203D20FB90020EEE70A
:101070003D46A1682068461AAE4200D92E46D4E902
:101080000220811832465046FFF718F9B044A06894
:101090003044A060AD1B35B10AEB08002A46E16878
:1010A000FFF70CF9A5602168A068884201D30020F1
:1010B000A06008EB0500CAE72DE9F0470446894621
:1010C00015464FF00008CA4604B115B90020BDE826
:1010D000F087D4E90010884201D3002060602046E8
:1010E000FFF75CFF0746AF4203D20FB90020EEE7DF
:1010F0003D46D4E90001461AAE4200D92E46626848
:10110000E168881832465146FFF7D8F8B044606865
:1011100030446060AD1B35B10AEB08012A46E06837
:10112000FFF7CCF86560D4E90010884201D30020B5
:10113000606008EB0500CAE72DE9F04F8BB004466C
:101140008A4616469B4600BF1CB18F4920698842DB
:1011500008D049228DA197A00CF002FB00200BB013
:10116000BDE8F08F00BFBAF1040F09D0BAF1090F42
:1011700073D0BAF10A0F71D0BAF1110F6FD1DEE05E
:101180000A9620460DF035FF074620460DF056FF23
:10119000804620460EF0A4F8814620460DF074FFEC
:1011A000054694F8300000F08000F0B1A06C10B15A
:1011B000A06C006808E02069006918B12069006926
:1011C000006801E04FF07F400990A06C10B1A06C66
:1011D000406808E02069006918B12069006940682A
:1011E00001E04FF07F40089044E094F8300000F0B8
:1011F0000800F0B1A06C10B1A06C406808E0206954
:10120000006918B120690069406801E04FF07F4033
:101210000990A06C10B1A06C006808E0206900691A
:1012200018B120690069006801E04FF07F40089024
:1012300020E0A06C10B1A06C406808E02069006953
:1012400018B120690069406801E04FF07F400890C4
:10125000A06C28B1A06C00680BE08CE08CE090E002
:101260002069006918B120690069006801E04FF049
:101270007F40099094F8300000F08000E0B1291F11
:1012800009B20998CDE90010A9F1040003B208F1F0
:10129000020002B2B81C01B20A9800F028FE94F8CD
:1012A0003000C0F3C0004B4642463946CDE90050FD
:1012B0000A9800F0F5FF17E0B4F9521009984B4670
:1012C0004246CDE90051029039460A9800F021FECD
:1012D000B4F9521008984B464246CDE900510290AD
:1012E00039460A9801F030F820460EF045F920B34F
:1012F00001A800F0C1FC781C00B2ADF8040008F1B0
:10130000010000B2ADF80600A9F1020000B2ADF88C
:101310000800A81E00B2ADF80A0012208DF80C00DB
:10132000BDF80800ADF812000898059001ABD4E9AB
:101330000D120A9801F09CF900BF01200FE7354615
:1013400028780D2802D028780A2812D1606930B197
:1013500000231A460E2120466769B84706E0206937
:1013600000231A460E21C7682046B84700208BF894
:1013700000000120F3E600BF20460EF053F80120E4
:10138000EDE60020EBE60000EC3B01082E2E5C3081
:10139000302D4755495F4C4942524152595C77695B
:1013A00064676574735C6775695F627574746F6E8A
:1013B0002E63000041737365727420706172616DF9
:1013C000206661696C656420696E2066696C6520C1
:1013D000257320616E64206C696E652025640D0A9A
:1013E000000000002DE9F04F85B004460D4616467A
:1013F0001F46DDE90FABDDF83890119833462A46D9
:1014000021468DE8800E049006480DF0E9FB8046E9
:10141000B8F1000F02D040460DF0EEFC404605B09A
:10142000BDE8F08FEC3B01082DE9F04F8DB004468C
:10143000894692469846B9F1040F06D0B9F10B0FD0
:101440007ED0B9F10E0F7CD178E1CDF830A02046E6
:101450000DF0CFFD0A9020460DF0F0FD83462046AA
:101460000DF03EFF099020460DF00EFE0890142569
:101470000A9E0899481B00EBD0710BEB61010FB27B
:1014800094F8500000F0020078B1A06C10B1A06C8C
:10149000C06808E02069006918B120690069C06867
:1014A00001E04FF07F400B900EE0A06C10B1A06CFB
:1014B000006808E02069006918B1206900690068C7
:1014C00001E04FF07F400B90A91E09B20B98CDE9C7
:1014D0000010A81E03B2781C02B2701C01B20C9856
:1014E00000F005FD01202B463A463146CDE900507B
:1014F0000C9800F0D5FE94F8300000F01000D0B148
:10150000A06C10B1A06C406808E02069006918B1B7
:1015100020690069406801E04FF07F40291F09B24F
:10152000CDE90010281F03B2B81C02B2B01C01B2F2
:101530000C9800F086FE94F8500000F0010001E0E5
:10154000EEE006E1002878D0A06C10B1A06C4068F5
:1015500008E02069006918B120690069406801E06D
:101560004FF07F407919491F09B2CDE90010701979
:10157000801F03B2781D02B2301D01B20C9800F03A
:10158000B5FDA06C10B1A06C406808E0206900694E
:1015900018B120690069406801E04FF07F40791977
:1015A000491F09B2CDE900107019401F03B2381D60
:1015B00002B2301D01B20C9800F098FDA06C10B181
:1015C000A06C406808E02069006918B120690069D2
:1015D000406801E04FF07F407919891F09B2CDE9D9
:1015E00000107019401F03B2381D02B2701D01B205
:1015F0000C9800F07BFDA06C10B1A06C406808E076
:101600002069006918B120690069406801E04FF065
:101610007F40391D09B2CDE900107019801F03B257
:101620007819801F02B2301D01B20C9800F05EFDE7
:10163000A06C18B1A06C406809E034E02069006932
:1016400018B120690069406801E04FF07F40391D02
:1016500009B2CDE900107019401F03B27819401F7C
:1016600002B2301D01B20C9800F040FDA06C10B128
:10167000A06C406808E02069006918B12069006921
:10168000406801E04FF07F40791D09B2CDE90010BC
:101690007019401F03B27819401F02B2701D01B2C9
:1016A0000C9800F023FD20460DF066FFA0B301A8C2
:1016B00000F0E2FA7019401D00B2ADF804000BF121
:1016C000010000B2ADF806000998401B401F00B2AF
:1016D000ADF808000898801E00B2ADF80A0011208D
:1016E0008DF80C00BDF80800ADF81200A06C10B128
:1016F000A06C006908E02069006918B120690069E0
:10170000006901E04FF07F40059001ABD4E90D1274
:101710000C9800F0ADFF00BF01200DB0BDE8F08FC8
:1017200094F8500000F0020018B1012088F8000081
:1017300002E0002088F800000120EEE794F8500055
:1017400000F0010080F0010120460EF0E9FD0120CB
:10175000E3E70020E1E700002DE9F04F87B0044601
:101760000D4616461F46DDE912ABDDE9108933460A
:101770002A46214604488DE8800F0DF031FA069084
:10178000069807B0BDE8F08F883C010870B50446A4
:1017900000BF1CB108492069884206D0E62207A193
:1017A00011A00BF0DDFF002070BD00BF94F85000C9
:1017B00000F001052846F7E7883C01082E2E5C3032
:1017C000302D4755495F4C4942524152595C776927
:1017D00064676574735C6775695F636865636B6292
:1017E0006F782E630000000041737365727420707F
:1017F0006172616D206661696C656420696E206646
:10180000696C6520257320616E64206C696E6520AB
:1018100025640D0A0000000070B504460D4600BFA7
:101820001CB109492069884206D0DA2207A112A01A
:101830000BF096FF002070BD00BF294620460EF039
:101840006FFD06463046F6E7883C01082E2E5C30D8
:10185000302D4755495F4C4942524152595C776996
:1018600064676574735C6775695F636865636B6201
:101870006F782E63000000004173736572742070EE
:101880006172616D206661696C656420696E2066B5
:10189000696C6520257320616E64206C696E65201B
:1018A00025640D0A000000002DE9F04104460D46B4
:1018B000164600BF1CB10A492069884207D0CE22D3
:1018C00008A113A00BF04CFF0020BDE8F08100BF81
:1018D0003246294620460DF0C1FF07463846F4E758
:1018E000883C01082E2E5C30302D4755495F4C490D
:1018F00042524152595C776964676574735C6775DD
:10190000695F636865636B626F782E630000000037
:1019100041737365727420706172616D20666169D4
:101920006C656420696E2066696C65202573206192
:101930006E64206C696E652025640D0A000000004D
:101940002DE9F04104460D4616461F4600BF1CB166
:1019500007492069884207D04A2206A10FA00BF050
:10196000FFFE0020BDE8F08100BF00BF0020F9E7C6
:10197000483D01082E2E5C30302D4755495F4C49BB
:1019800042524152595C776964676574735C67754C
:10199000695F6469616C6F672E63000041737365F2
:1019A000727420706172616D206661696C6564207B
:1019B000696E2066696C6520257320616E64206CF9
:1019C000696E652025640D0A000000002DE9F04FC6
:1019D00087B004460D4616461F46DDE912ABDDE929
:1019E00010894BF0010033462A4621468DE88007D6
:1019F000049008480DF0F4F8069002E020460CF040
:101A00004BFB20460CF070FB0028F7D1069807B07E
:101A1000BDE8F08F483D01082DE9F341044600265A
:101A200000BF1CB118492069884207D09C2217A129
:101A300020A00BF095FE0020BDE8FC8100BF012135
:101A40001020FEF789FC0546DDB1A068A86001986A
:101A5000E860294623480CF02DFC606930B1002372
:101A600001AA162120466769B84706E020690023CD
:101A700001AA1621C7682046B84720460DF090FEFF
:101A800001263046D8E70000483D01082E2E5C3084
:101A9000302D4755495F4C4942524152595C776954
:101AA00064676574735C6775695F6469616C6F67AF
:101AB0002E63000041737365727420706172616DF2
:101AC000206661696C656420696E2066696C6520BA
:101AD000257320616E64206C696E652025640D0A93
:101AE00000000000B80301202DE9FC4107460D4627
:101AF00016469846089C0120434632462946CDE9C1
:101B00000004384600F021F80220CDE90004681EE8
:101B100001B243463246384600F017F80820CDE9B6
:101B20000004701E02B243462946384600F00DF804
:101B30000420CDE90004701E02B2681E01B24346C3
:101B4000384600F002F8BDE8FC812DE9FC5F8146D3
:101B50000C4615469846DDF830A0C8F101000FFA92
:101B600080FB012001904FEA4800404200B2009003
:101B700000274646A4EB0800B9F90410884211DC9E
:101B8000A5EB0800B9F9061088420BDCB9F9000092
:101B900004EB0801884205DCB9F9020005EB0801F5
:101BA000884201DDBDE8FC9F62E0BBF1000F09DB6C
:101BB000701E06B20098801C00B200900098584435
:101BC0000FFA80FB781C07B20198801C00B20190CC
:101BD000019858440FFA80FB0AF0010078B1E81B25
:101BE00002B2A01B01B248460D9B00F0E1FCA81B0D
:101BF00002B2E01B01B248460D9B00F0D9FC0AF08E
:101C0000020078B1A81B02B2E01901B248460D9B50
:101C100000F0CEFCE81B02B2A01901B248460D9BB1
:101C200000F0C6FC0AF0040078B1A81902B2E0196D
:101C300001B248460D9B00F0BBFCE81902B2A019A6
:101C400001B248460D9B00F0B3FC0AF0080078B1E1
:101C5000A81902B2E01B01B248460D9B00F0A8FC97
:101C6000E81902B2A01B01B248460D9B00F0A0FC8F
:101C7000B7429ADB00BF95E710B504461C21204609
:101C8000FEF735FB10BD00002DE9FE4304460D466E
:101C900016461F46DDE90A89B4F90400A8420EDBA6
:101CA000B4F90600B0420ADBB4F90000E919884231
:101CB00005DCB4F9020006EB0801884201DDBDE84D
:101CC000FE83002F02DDB8F1000F00DCF7E7B4F966
:101CD0000000A84205DD2088401B381A07B2B4F97D
:101CE0000050B4F90200B04207DD6088801BA8EB09
:101CF00000000FFA80F8B4F90260E819B4F9041092
:101D0000884202DDA088401B07B206EB0800B4F948
:101D10000610884203DDE088801B0FFA80F8002F50
:101D20000CDDB8F1000F09DD05488DE88003817AEC
:101D300033462A46D0F838C0001DE04700BFBEE752
:101D4000A81701202DE9FC4106460F461546984686
:101D5000089C012043462A463946CDE90004304616
:101D600000F01FF8022043462A463946CDE9000418
:101D7000304600F016F80820CDE90004681E02B2D3
:101D800043463946304600F00CF80420CDE9000403
:101D9000681E02B243463946304600F002F8BDE8FC
:101DA000FC812DE9FF5F8246894614461F46DDE926
:101DB0000EB8C7F1010000B2039001200290780034
:101DC000404200B2019000263D46BAF9000009EBFE
:101DD000070188420FDCBAF90200E11988420ADCE7
:101DE000A9EB0700BAF90410884204DCE01BBAF939
:101DF0000610884201DDBDE8FF9F74E003980028CB
:101E00000ADB681E05B20198801C00B2019001999E
:101E10000398084400B20390701C06B20298801C1C
:101E200000B20290DDE90210084400B203900BF00A
:101E30000100A8B1601B02B2A9EB060001B2334653
:101E40005046CDF8008000F015F9A01B02B2A9EBB6
:101E5000050001B22B465046CDF8008000F00AF98B
:101E60000BF0020088B1601B02B23346494650466F
:101E7000CDF8008000F0FEF8A01B02B22B464946C8
:101E80005046CDF8008000F0F5F80BF00800A8B13E
:101E9000A01902B2A9EB050001B22B465046CDF8BD
:101EA000008000F0E7F8601902B2A9EB060001B269
:101EB00033465046CDF8008000F0DCF80BF004000B
:101EC00088B1A01902B22B4649465046CDF8008091
:101ED00000F0D0F8601902B2334649465046CDF8BA
:101EE000008000F0C7F8AE4288DB00BF83E72DE931
:101EF000FC4704460D4616461F46DDE90A893B4667
:101F0000324629462046CDE90089FFF7BDFEBDE8EF
:101F1000FC872DE9FC478246884691461E46DDE94E
:101F20000B470A9D05EBD571B4EB610F05DB284625
:101F300005EBD0714910491E0CB206EBD671B4EB1B
:101F4000610F05DB304606EBD0714910491E0CB21B
:101F5000002C75D0022000FB146000B200280CDDBC
:101F6000022000FB146003B208EB040001B24A46F1
:101F70005046CDE90057FFF7BAFF022000FB14508E
:101F800000B200281EDD022000FB145000B2CDE993
:101F9000000709EB040002B2234641465046FFF712
:101FA000A6FF022000FB145000B2CDE9000709EBA8
:101FB000040002B208EB0600001B01B223465046A3
:101FC000FFF795FF0120CDE9000709EB040002B2FD
:101FD00008EB040001B223465046FFF7E2FE022060
:101FE000CDE9000709EB040002B208EB0600001B74
:101FF000401E01B223465046FFF7D3FE0820CDE92C
:10200000000709EB0500001B401E02B208EB0400AC
:1020100001B223465046FFF7C4FE0420CDE9000775
:1020200009EB0500001B401E02B208EB0600001B76
:10203000401E01B223465046FFF7B3FE08E0FFE71B
:1020400033464A4641465046CDE90057FFF74FFF19
:10205000BDE8FC872DE9F04107460C4615460448CB
:10206000817A2B462246066A001DB047BDE8F08102
:10207000A81701202DE9FC4104460D4617461E46CF
:10208000DDF82080B4F90600B8420CDDB4F9020096
:10209000B84208DCB4F90400A84204DBA819B4F97A
:1020A0000010884201DABDE8FC81B4F90000A842C2
:1020B00005DD2088401B301A06B2B4F90050A8197B
:1020C000B4F90410884202DDA088401B06B206481D
:1020D000CDE90068817A3B462A46D0F830C0001D21
:1020E000E04700BFDFE70000A81701202DE9FF4F00
:1020F0008BB00F4690469946DDF860A0002400257D
:10210000A34600200A9009900890079006900026A8
:102110000590049003900290B9EB070002D4A9EB5C
:10212000070001E0A7EB090004B2BAEB080002D4F3
:10213000AAEB080001E0A8EB0A0005B27CB91998E7
:102140000090D04501DA404600E0504602462B465A
:1021500039460B9800F050FA0FB0BDE8F08F6DB91A
:10216000199800904F4501DA384600E0484601468C
:10217000234642460B98FFF77DFFEDE7BB46CDF8BF
:102180002880B94503DB01200990089003E04FF057
:10219000FF3009900890C24503DB012007900690AC
:1021A00003E04FF0FF3007900690AC420CDB0020BC
:1021B000099006902646204604EBD071491009B2DA
:1021C0000591049503940BE00020089007902E469B
:1021D000284605EBD071491009B205910494039586
:1021E0000020029027E05946199BDDE90A2000F003
:1021F000DFF9DDE90410084400B205900598B0420B
:102200000CDB0598801B00B20590099858440FFA22
:1022100080FB07990A98084400B20A90089858442D
:102220000FFA80FB06990A98084400B20A900298B7
:10223000401C00B20290DDE902018842D3DD00BFFC
:102240008AE72DE9F84381460F4690461D46DDE9B1
:10225000086405B10EB9BDE8F8832B4642463946FD
:1022600048460094FFF706FF334642463946484643
:10227000009400F0C1F908EB0600401E02B22B46A4
:10228000394648460094FFF7F5FE7819401E01B222
:10229000334642464846009400F0AEF900BFDAE704
:1022A0002DE9FF4F83B00C4615461E46DDE9107A36
:1022B0004FF07F4BBAF1000F04D1DFF884804FEA72
:1022C000F87903E0DFF87C80DFF8749033462A4623
:1022D0002146CDE9007B0398FFF7B3FFB01E03B2A0
:1022E000681C02B2601C01B2CDF800800398FFF7B1
:1022F000C1FEF81E03B2681C02B2601C01B2CDF828
:102300000080039800F078F9B01E03B2E819801E2F
:1023100002B2601C01B2CDF800900398FFF7AAFE4C
:10232000381F03B2A019801E01B2A81C02B2CDF85A
:102330000090039800F060F907B0BDE8F08F00004E
:10234000AAAAAAFF555555FF2DE9FC4782468846A3
:1023500091461D46DDE90B470A9E06EBD671B4EBAC
:10236000610F05DB304606EBD0714910491E0CB2F7
:1023700005EBD571B4EB610F05DB284605EBD07199
:102380004910491E0CB2002C73D0022000FB1450DF
:1023900003B208EB040001B24A4650460097FFF72B
:1023A00069FE022000FB146003B209EB040002B2D4
:1023B00008EB0500401E01B25046009700F01CF9E2
:1023C000022000FB145003B209EB0600401E02B2CB
:1023D00008EB040001B250460097FFF74BFE0220C5
:1023E00000FB146003B209EB040002B24146504600
:1023F000009700F001F90120CDE9000709EB040086
:1024000002B208EB040001B223465046FFF79DFBE1
:102410000220CDE9000709EB040002B208EB050039
:10242000001B401E01B223465046FFF78EFB0820DA
:10243000CDE9000709EB0600001B401E02B208EBC5
:10244000040001B223465046FFF77FFB0420CDE98C
:10245000000709EB0600001B401E02B208EB050056
:10246000001B401E01B223465046FFF76EFB08E0FA
:10247000FFE72B464A4641465046CDE90067FFF745
:10248000E0FEBDE8FC8700002DE9FC4781460C46D4
:102490004FF0000AB4F90480B4F9040040000321AD
:1024A00090FBF1F005B20020CDE90050B4F9022014
:1024B000B4F9001043464846FFF7F2FE3749281F9B
:1024C00000B2CDE90001A8F1040003B26088801CCD
:1024D00002B22088801C01B24846FFF708FD0020A8
:1024E000CDE900506088E3881844401B02B2B4F97B
:1024F000001043464846FFF7D3FE2849281F00B284
:10250000CDE900016088B4F806C06044401B801C1F
:1025100002B2A8F1040003B22088801C01B2484630
:10252000FFF7E5FCB4F90600022101FB150007B234
:102530001A48CDE90070B4F904306088284402B22A
:10254000B4F900104846FFF7D2FCD4E903108842E2
:1025500013D220697843E168B0FBF1F006B2062E91
:1025600000DA0626B81B61694843D4E90312891AC8
:10257000B0FBF1F00FFA80FA00E03E460020CDE912
:102580000060B4F9043060882844504402B2B4F9C1
:1025900000104846FFF784FEBDE8FC87848484FF72
:1025A00010B5044618212046FDF7A1FE10BD00001D
:1025B000F8B504460D4616461F46B4F90200B0426F
:1025C0000BDCB4F90600B04207DDB4F90000A84204
:1025D00003DCB4F90400A84200DCF8BD054800970C
:1025E000817A33462A46D0F81CC0001DE04700BF60
:1025F000F3E70000A81701202DE9FC4104460F462F
:1026000015461E46DDF82080B4F90400B8420CDD02
:10261000B4F90000B84208DCB4F90600A84204DBB3
:10262000A819B4F90210884201DABDE8FC81B4F9B6
:102630000200A84205DD6088401B301A06B2B4F9DA
:102640000250A819B4F90610884202DDE088401B48
:1026500006B20648CDE90068817A2B463A46D0F8A2
:1026600034C0001DE04700BFDFE70000A8170120CD
:102670002DE9FF4F87B0804689461C46608910B916
:1026800099F804006081002005A906AB2246CDE937
:102690000010484609990EF092F8B4F90400BDF90B
:1026A000181088420CDA207B00F0020030B122467C
:1026B000484609990EF045F8099001E0A088069077
:1026C000B4F90060B4F90250207A00F0100050B163
:1026D000B4F90610BDF91420881A00EBD07105EB8F
:1026E00061010DB209E0207A00F0200028B1E088F5
:1026F000BDF81410401A284405B2B4F90200A842EB
:1027000001DDB4F90250208B281A05B260E0B4F95B
:102710000060207A00F0020050B1B4F90410BDF955
:102720001820881A00EBD07106EB61010EB209E0A7
:10273000207A00F0040028B1A088BDF81810401AD3
:10274000304406B2B2462CE00498C0B20D2803D043
:102750000498C0B20A2805D1207B00F0040000B123
:1027600056461EE0B8F90600A84200DA27E0B8F99C
:102770000400B04200DA14E0484604990DF0A8FFC6
:10278000071E00D10DE03346224649464046CDE9BA
:1027900000570BF0CBF9387839790844304406B249
:1027A00000BFBBF10000ABF101011FFA81FB06D0B5
:1027B00003AA04A909A804F00DFC0028C4D100BF95
:1027C0006089284405B2207B00F0040000B90CE0C9
:1027D0000120002106AB2246CDE9001048460999A8
:1027E0000DF0EDFFB0F1000B91DC00BF0BB0BDE8C8
:1027F000F08F00002DE9F04104460E46002700BF8F
:102800001CB114492069884208D040F2172212A155
:102810001CA00AF0A5FF0020BDE8F08100BF012147
:102820000C20FDF799FD054695B1AE60294604F1EF
:102830005C000BF03FFDB4F85400401C00B2A4F85B
:10284000540020460BF0DBF820460CF0EBFD01278E
:102850003846E1E7103D01082E2E5C30302D4755FB
:10286000495F4C4942524152595C776964676574CB
:10287000735C6775695F64726F70646F776E2E63E7
:102880000000000041737365727420706172616DA5
:10289000206661696C656420696E2066696C6520DC
:1028A000257320616E64206C696E652025640D0AB5
:1028B000000000002DE9FF4F91B0044616469946EE
:1028C00012980C287ED008DC04280DD006287AD077
:1028D000082879D00B2878D140E20E2876D011282C
:1028E00075D01528F7D196E2B04620460CF081FB52
:1028F000074620460CF0A2FB109020460CF0F0FC9E
:10290000054620460CF0C0FB0F9094F8660000F0DE
:102910000100002865D00DA80EAB0FAA10A90090E9
:1029200020460DF0FCF80120BDF934102B46CDE90E
:102930000010BDF9402039464046FFF7B1FCA06CBD
:1029400010B1A06C006808E02069006918B1206926
:102950000069006801E04FF07F40BDF83410091FA6
:1029600009B2CDE90010281F03B2BDF83800801C61
:1029700002B2B81C01B24046FFF7B9FAA06C10B120
:10298000A06C006808E02069006918B1206900693E
:10299000006801E04FF07F40BDF83C10091F09B20C
:1029A000CDE90010281F03B2BDF84000801C02B220
:1029B000B81C01B24046FFF79AFA0120BDF93C105D
:1029C0002B4605E0D3E1B3E107E22DE2F4E10AE2B0
:1029D000CDE90010BDF9402039464046FFF760FCC4
:1029E00030E0BDF940000E90BDF93C000D90002094
:1029F000BDF93C102B46CDE90010BDF94020394609
:102A00004046FFF74DFCA06C10B1A06C006808E0D8
:102A10002069006918B120690069006801E04FF081
:102A20007F40BDF83C10091F09B2CDE90010281FF6
:102A300003B2BDF84000801C02B2B81C01B240468F
:102A4000FFF755FAB4F9560000284DDB606BC0B3B0
:102A500006A8FFF711F9002104F15C000BF03CFC23
:102A600083464FF0000A08E0594600200BF034FC82
:102A700083460AF101000FFA80FAB4F95600504576
:102A8000F2DCF81C00B2ADF81800BDF83800C01C2C
:102A900000B2ADF81A00A81F00B2ADF81C00BDF8D6
:102AA0003400801F00B2ADF81E0011208DF8200008
:102AB000BDF81C00ADF82600A06C18B1A06C4068F1
:102AC00009E011E02069006918B1206900694068D7
:102AD00001E04FF07F400A90DBF8082006AB40464B
:102AE000616BFFF7C5FD00BF94F8660000F00100C0
:102AF00088B394F8660000F0020060B35434208A72
:102B0000281A05B207A8FFF74BFD7819401E00B23E
:102B1000ADF81C00BDF84000401C00B2ADF81E002E
:102B2000208AADF82000BDF83C00801E00B2ADF850
:102B3000220000208DF82400B4F904000C9034F930
:102B400054090A9020460DF03DF90B9007A9404624
:102B5000FFF79AFC02E0FFE7681E05B294F86600F2
:102B600000F00100002870D0606B0028FBD0E06D01
:102B70000028F8D00020049005A920460DF0DCF8CC
:102B8000834606A8FFF778F8381D00B2ADF81800A4
:102B9000BDF84000801C00B2ADF81A00A81F00B2BA
:102BA000ADF81C000FFA8BF0ADF81E0011208DF867
:102BB0002000BDF81C00ADF82600B8F9060003900F
:102BC000B8F90600BDF94010BDF93C201144884217
:102BD00007DDBDF84000BDF83C10084400B2A8F87D
:102BE000060000200490002104F15C000BF074FB4F
:102BF00082468BE0B4F958100498814200DD7CE0F5
:102C0000B4F95610049881425AD194F8300000F07B
:102C1000100070B1A06C10B1A06C006918E02069C0
:102C2000006918B120690069006911E04FF07F4028
:102C30000EE0A06C10B1A06C406909E02069006949
:102C400020B120690069406902E06DE04FF07F40EB
:102C5000BDF91E10594502DABDF91E1000E05946B3
:102C600009B2CDE90010E81E03B2BDF91A20B81C64
:102C700001B24046FFF73BF994F8300000F0100035
:102C800070B1A06C10B1A06C806817E02069006979
:102C900018B120690069806810E04FF07F400DE0B6
:102CA000A06C10B1A06CC06808E02069006918B180
:102CB00020690069C06801E04FF07F400A900EE093
:102CC000A06C10B1A06C406808E02069006918B1E0
:102CD00020690069406801E04FF07F400A90DAF80F
:102CE000082006AB4046616BFFF7C2FCBDF81A0036
:102CF000584400B2ADF81A0000BF514600200BF056
:102D0000EBFA82460498401C80B20490BAF1000F9E
:102D100006D0BDF91A00B8F9061088427FF76AAFED
:102D20000398A8F8060000BF012015B0BDE8F08F99
:102D300005E000BF28460DF0D7FF002500BF0021A9
:102D400004F15C000BF0C8FA0746394604F15C0058
:102D50000BF0DEFB051EECD10120E6E73146888A48
:102D6000324A1080002089F800000120DDE7374654
:102D7000606BF8B1002120460CF0DEFF0FFA80F8FE
:102D8000B88A2A490988081A05B2002D01DB2846AD
:102D900000E0684240450CDD002D01DD012001E02E
:102DA0004FF0FF30014620460DF022FCB88A1F4943
:102DB000088000BF0120B8E7354694F8660000F0AF
:102DC000010020B9012120460DF033F803E0294627
:102DD00020460DF097F80120A7E7002120460DF0CE
:102DE00028F80120A1E735462878022807D10121DB
:102DF00020460CF018FF002089F8000009E0287830
:102E0000012806D1811E20460CF00DFF002089F814
:102E10000000012089E7B6F9001020460CF003FFFE
:102E2000012089F8000080E700207EE7B40301203C
:102E30002DE9F04F85B005460E4617469846DDE968
:102E40000FABDDF8389011983B46324629468DE8A5
:102E5000000F049009480BF0C3FE044654B14FF034
:102E6000FF3024F8560F1E20E081207C40F0040043
:102E70002074563C204605B0BDE8F08F103D010897
:102E800070B504460D46002600BF1CB117492069E5
:102E9000884207D040F22D2215A120A00AF060FC44
:102EA000002070BD00BF94F8660000F00100D8B9A2
:102EB00094F8660000F0080040B13DB994F866004F
:102EC00000F0080084F8660001260DE094F8660022
:102ED00000F0080040B9012D06D194F8660040F0DA
:102EE000080084F8660001263046DAE7103D010844
:102EF0002E2E5C30302D4755495F4C49425241528D
:102F0000595C776964676574735C6775695F64723F
:102F10006F70646F776E2E630000000041737365FD
:102F2000727420706172616D206661696C656420E5
:102F3000696E2066696C6520257320616E64206C63
:102F4000696E652025640D0A0000000070B5044616
:102F50000D4600BF1CB117492069884207D04FF4C5
:102F60001D7215A11FA00AF0FBFB002070BD00BF61
:102F700075B194F8660000F0040048B994F8660052
:102F800040F0040084F8660020460CF04BFA0EE096
:102F90006DB994F8660000F0040040B194F8660042
:102FA00020F0040084F8660020460CF03BFA012073
:102FB000DCE70000103D01082E2E5C30302D475517
:102FC000495F4C4942524152595C77696467657464
:102FD000735C6775695F64726F70646F776E2E6380
:102FE0000000000041737365727420706172616D3E
:102FF000206661696C656420696E2066696C652075
:10300000257320616E64206C696E652025640D0A4D
:103010000000000070B504460D46002600BF1CB13C
:103020001A492069884207D040F2862218A123A0BD
:103030000AF096FB002070BD00BF94F8660000F017
:10304000040000BB7DB194F8660000F0020050B9A6
:1030500094F8660040F0020084F8660020460CF008
:10306000E1F901260FE075B994F8660000F002005E
:1030700048B194F8660020F0020084F8660020460B
:103080000CF0D0F901263046D5E70000103D0108CC
:103090002E2E5C30302D4755495F4C4942524152EB
:1030A000595C776964676574735C6775695F64729E
:1030B0006F70646F776E2E6300000000417373655C
:1030C000727420706172616D206661696C65642044
:1030D000696E2066696C6520257320616E64206CC2
:1030E000696E652025640D0A000000002DE9F04F8F
:1030F00089B004468B4691469A4600BF1CB1684988
:103100002069884208D04F2266A171A00AF028FBEE
:10311000002009B0BDE8F08F00BFBBF1080F7DD0E3
:1031200006DCBBF1040F0AD0BBF1070F77D1A0E09A
:10313000BBF10B0F74D0BBF1110FF7D1A2E0CDF8AA
:10314000209020460BF055FF054620460BF076FFF9
:10315000064620460CF0C4F8074620460BF094FFC4
:10316000804601203B4632462946CDE9008008983A
:10317000FFF796F8A06C10B1A06C006808E0206919
:10318000006918B120690069006801E04FF07F40D4
:10319000A8F1040109B2CDE90010381F03B2B01C38
:1031A00002B2A81C01B20898FEF7A1FE94F8300004
:1031B00000F01000D8B1A06C10B1A06C806808E0DD
:1031C0002069006918B120690069806801E04FF04A
:1031D0007F40A8F1060109B2CDE90010B81F03B283
:1031E000F01C02B2E81C01B20898FFF72AF820464A
:1031F0000CF0C2F9D8B301A8FEF73EFD681D00B27D
:10320000ADF80400701D00B2ADF80600A7F10A0089
:1032100000B2ADF80800A8F10A0002E02BE03CE0A3
:103220002BE000B2ADF80A0011208DF80C00BDF8BB
:103230000800ADF81200A06C10B1A06C406808E066
:103240002069006918B120690069406801E04FF009
:103250007F4005909DF8100040F002008DF81000AE
:1032600001ABD4E90D120898FFF702FA00BF012064
:103270004FE701204DE701204BE700208AF80000CE
:10328000012046E74D46294620460CF0CAF910B108
:1032900000208AF8000001203BE7002039E7000009
:1032A000103C01082E2E5C30302D4755495F4C49AB
:1032B00042524152595C776964676574735C677503
:1032C000695F65646974746578742E63000000003A
:1032D00041737365727420706172616D20666169FB
:1032E0006C656420696E2066696C652025732061B9
:1032F0006E64206C696E652025640D0A0000000074
:103300002DE9F04F87B004460D4616461F46DDE90D
:1033100012ABDDE9108933462A46214604488DE880
:10332000800F0BF05DFC0690069807B0BDE8F08FAB
:10333000103C010870B504460D4600BF1CB10C4995
:103340002069884207D04FF4BB720AA113A00AF08B
:1033500007FA002070BD00BF294604F150000BF0B1
:1033600004F8214628460BF000F80120F2E700009F
:10337000C83B01082E2E5C30302D4755495F4C4923
:1033800042524152595C776964676574735C677532
:10339000695F67726170682E630000004173736536
:1033A000727420706172616D206661696C65642061
:1033B000696E2066696C6520257320616E64206CDF
:1033C000696E652025640D0A000000002DE9FF4F9D
:1033D0002DED0A8B8BB0044616980C287ED006DCA7
:1033E000042809D006287AD00B2879D14CE30D287F
:1033F00077D01028F9D1FCE3179DB4F958B0B4F98F
:103400005A000990B4F95C000890B4F95E70204647
:103410000BF0EFFD804620460BF010FE0790204693
:103420000BF05EFF069020460BF02EFE8246A06C4D
:1034300010B1A06C006808E02069006918B120692B
:103440000069006801E04FF07F403B46CDE900A0F5
:1034500041462846079AFEF74AFDA06C10B1A06CC1
:10346000006808E02069006918B1206900690068F7
:1034700001E04FF07F40CDE900B00698C21B0998EB
:10348000101A03B208EB070001B22846079AFEF7AC
:103490002EFDA06C10B1A06C006808E020690069E6
:1034A00018B120690069006801E04FF07F40089979
:1034B000CDE900100698A0EB070C0998ACEB0000D2
:1034C00003B2079800EB0A0CACEB010002B208EB68
:1034D000070001B22846FEF70AFD03E0F0E2D0E360
:1034E000E8E3C4E3A06C10B1A06C006808E02069B8
:1034F000006918B120690069006801E04FF07F4061
:10350000CDE900A0069808EB00020998101A01B254
:103510002846099B079AFEF7EAFCA06C10B1A06C44
:10352000406808E02069006918B1206900694068B6
:1035300001E04FF07F40AAEB0B020899511A09B243
:10354000CDE900100698A0EB070C0998ACEB000041
:1035500003B20798584402B208EB070001B22846AC
:10356000FEF7C5FCA06C10B1A06C806808E0206973
:10357000006918B120690069806801E04FF07F4060
:10358000CDE900A041462846DDE90632FEF759FEA6
:1035900094F86000F0B3AAEB0B010898081A00EE4B
:1035A000100AF8EEC00A94F8600000EE100AB8EEB7
:1035B000400A80EE801AB0EE418A0120059032E088
:1035C000A06C10B1A06CC06808E02069006918B157
:1035D00020690069C06801E04FF07F4000900798C3
:1035E000584400EE100AF8EEC00A9DED050AB8EE48
:1035F000400A40EE080ABDEEE00A10EE100A02B2E0
:103600000698A0EB070C0998ACEB000003B208EB9E
:10361000070000E00DE001B22846FEF72BFD0598FB
:10362000401CC0B2059094F8601005988142C7DC38
:1036300000BF94F86100E8B30698C11B0998081A06
:1036400000EE100AF8EEC00A94F8610000EE100ACD
:10365000B8EE400A80EE801AB0EE418A0120059053
:1036600031E0A06C10B1A06CC06808E0206900696E
:1036700018B120690069C06801E04FF07F400090F8
:1036800008EB070000EE100AF8EEC00A9DED050AEF
:10369000B8EE400A40EE080ABDEEE00A10EE100A4D
:1036A00001B2AAEB0B0C0898ACEB000003B2079830
:1036B000584400E00DE002B22846FEF79DFF059851
:1036C000401CC0B2059094F8611005988142C8DC96
:1036D00000BF206D002875D094ED1E0AD4ED1D0AA0
:1036E00030EE600AB0EE40CA94ED200AD4ED1F0A15
:1036F00030EE600AF0EE40CA0698C11B0998081A1D
:1037000000EE100AB8EEC00AC0EE0C0AB0EE60AAD5
:10371000AAEB0B010898081A00EE100AB8EEC00ACE
:10372000C0EE2C0AB0EE60BA079800EB0A010898C8
:10373000081A401E00B208EE900A08EB070000B21B
:1037400009EE900A286803906868049008EB070067
:10375000B5F90010884203DD08EB070000B22880AD
:10376000069808EB00010998091AB5F9040081428E
:1037700006DA069808EB00010998081A00B2A8803A
:10378000079800EB0B01B5F90200814203DD0798B1
:10379000584400B26880079800EB0A010898081A9C
:1037A000B5F90610884206DA079800EB0A01089876
:1037B000081A00B2E880002104F150000AF042FE2D
:1037C0000A9051E159E10A9810B10A98806800E026
:1037D00000200646D6F8109030690290307EE0BB9B
:1037E000D4ED1D0AB8EEE90A00EECA0AB0EE408A2E
:1037F000B06830F9190000EE100AB8EEC00AD4ED36
:103800001F0A70EE600AB8EEE80A00EECB0AF0EE8E
:1038100040BA09F101008146F168884201D14FF0B8
:103820000009B5F9040000EE100AB8EEC00AB4EEC3
:10383000C80AF1EE10FA14D396ED030AF8EE400A26
:10384000B0EE480A00EE8A0AB5F9000000EE900AD0
:10385000F8EEE00AB4EEE00A00E07AE0F1EE10FAE9
:1038600000D2FCE066E038EE0A0AB0EE409AB0689A
:1038700030F9190000EE100AB8EEC00AD4ED1F0AA4
:1038800070EE600AB8EEE80A00EECB0AF0EE40AA4D
:10389000B5F9000000EE100AB8EEC00AB4EEC80A8E
:1038A000F1EE10FA0AD9B5F9000000EE100AB8EEF0
:1038B000C00AB4EEC90AF1EE10FA2FD8B5F9040027
:1038C00000EE100AB8EEC00AB4EEC80AF1EE10FA23
:1038D0000ADCB5F9040000EE100AB8EEC00AB4EE36
:1038E000C90AF1EE10FA19DDBDEEEA0A10EE101A5F
:1038F00009B27069BDEEC90ACDE9001010EE100AD8
:1039000003B2BDEEEB0A10EE100A02B2BDEEC80A19
:1039100010EE100A01B22846FEF7E8FBB0EE498A25
:10392000F0EE6ABA09F101008146F168884201D1DE
:103930004FF00009029881450AD0B5F9040000EE65
:10394000100AB8EEC00AB4EEC80AF1EE10FA8ADA2C
:1039500084E0307E01287DD14FEA4900B16831F919
:10396000100000EE100AB8EEC00AD4ED1D0A70EE89
:10397000600AB8EEE90A00EE8A0AB0EE408A4FEA21
:103980004900401CB16831F9100000EE100AB8EE91
:10399000C00AD4ED1F0A70EE600AB8EEE80A00EE25
:1039A000CB0AF0EE40BA09F101008146F168884285
:1039B00001D14FF000094CE04FEA4900B16831F9FC
:1039C000100000EE100AB8EEC00AD4ED1D0A70EE29
:1039D000600AB8EEE90A00EE8A0AB0EE409A4FEAB1
:1039E0004900401CB16831F9100000EE100AB8EE31
:1039F000C00AD4ED1F0A70EE600AB8EEE80A00EEC5
:103A0000CB0AF0EE40AABDEEEA0A10EE101A09B297
:103A10007069BDEEC90ACDE9001010EE100A03B2BC
:103A2000BDEEEB0A10EE100A02B2BDEEC80A10EEAF
:103A3000100A01B22846FEF759FBB0EE498AF0EEB3
:103A40006ABA09F101008146F168884201D14FF05C
:103A5000000900E002E002988145ADD100BF0020DE
:103A60000A990AF0EFFC0A900A9800287FF4ABAE9E
:103A7000039828600498686000BF01200BB0BDEC7B
:103A80000A8B04B0BDE8F08F179A002100BF0FE049
:103A900002F1100030F81100874B23F8110002F1F9
:103AA000140030F81100854B23F81100481CC1B2F6
:103AB00010788842ECDC0023189803700120DDE7C1
:103AC000179D2878012863D1B5F91070B5F91480D5
:103AD00020460BF005FCB4F95E10411AB4F95A0007
:103AE000081A00EE100AB8EEC00AD4ED1E0A94EDD2
:103AF0001D1A70EEC10A80EE201AF0EE418A6E485F
:103B0000B0F90000381A00EE100AB8EEC00AC0EE94
:103B1000280AB0EE608A94ED1D0A30EE480A84ED62
:103B20001D0A94ED1E0A30EE480A84ED1E0A204656
:103B30000BF0AAFAB4F95810411AB4F95C00081A4B
:103B400000EE100AB8EEC00AD4ED200A94ED1F1A58
:103B500070EEC10A80EE201AF0EE418A5748B0F9A3
:103B60000000A8EB000000EE100AB8EEC00AC0EE9C
:103B7000280AB0EE608A94ED1F0A30EE080A84ED40
:103B80001F0A94ED200A30EE080A84ED200A54E062
:103B90002878022851D1B5F9160002EE100AB8EEC5
:103BA000C22AF0EE421AB5F9120002EE100AB8EE7F
:103BB000C22AB0EE421AB5F9140002EE100AB8EEAD
:103BC000C22AF0EE420AB5F9100002EE100AB8EE71
:103BD000C22AB0EE420A09A90AA801F081FE95EDB9
:103BE000070AD5ED080A80EE201AB0EE419A204669
:103BF00000E03EE00BF048FA00EE100AB8EEC00A12
:103C0000DDED090A80EE801AF0EE419A20460BF0B5
:103C100067FB00EE100AB8EEC00ADDED0A0A80EE7E
:103C2000801AB0EE41AAB0EE691AF0EE4A0AB0EE80
:103C3000490A20460AF081FA00BF00260FE005F18C
:103C4000100030F816001C4921F8160005F1140088
:103C500030F81600194921F81600701CC6B22878F1
:103C6000B042ECDC20460BF0DDFB012006E7012032
:103C700004E720460AF050FA20460BF0D3FB01205F
:103C8000FCE6002104F150000AF0DCFB05460DE0E3
:103C90000DB1A86800E000200646214630460AF033
:103CA00077FB294600200AF0CDFB0546002DEFD119
:103CB0000120E3E60020E1E6AA030120AE03012093
:103CC0002DE9F04F85B005460E4617469846DDE9CA
:103CD0000FABDDF8389011983B46324629468DE807
:103CE000000F049015480AF07BFF044614B305202A
:103CF000A4F8580005215A2001535C2001535E208E
:103D00000153B2EE040A84ED1A0ABAEE040A84EDF5
:103D1000190AB2EE040A84ED1C0ABBEE040A84ED13
:103D20001B0A20460AF0F8F9082084F860000A20EF
:103D300084F86100204605B0BDE8F08FC83B01085B
:103D400070B504460E46154600BF3CB94FF40172EB
:103D500014A11EA009F004FD002070BD00BF207E4C
:103D600020B92169A06820F811500DE0207E0128BB
:103D70000AD120694000A16821F810602069400044
:103D8000401CA16821F810502069401C2061D4E932
:103D90000310884201D300202061204606F0B0FEC7
:103DA0000120DAE72E2E5C30302D4755495F4C4913
:103DB00042524152595C776964676574735C6775F8
:103DC000695F67726170682E6300000041737365FC
:103DD000727420706172616D206661696C65642027
:103DE000696E2066696C6520257320616E64206CA5
:103DF000696E652025640D0A0000000070B5064656
:103E00000D4601211C20FCF7A7FA0446ACB126762A
:103E1000E5602EB968000121FCF79EFAA06004E07D
:103E2000A8000121FCF798FAA060A06828B900BF9B
:103E300020460CF059FF002400BF204670BD000052
:103E400010B52DED028B0446B0EE408A00BF1CB1C8
:103E50000E492069884209D040F2AF120CA116A089
:103E600009F07EFC0020BDEC028B10BD00BF94ED7C
:103E70001A0AB4EE480AF1EE10FA04D084ED1A8A58
:103E800020460BF0CFFA0120EDE70000C83B010807
:103E90002E2E5C30302D4755495F4C4942524152DD
:103EA000595C776964676574735C6775695F67728D
:103EB0006170682E63000000417373657274207036
:103EC0006172616D206661696C656420696E20664F
:103ED000696C6520257320616E64206C696E6520B5
:103EE00025640D0A0000000010B52DED028B04467C
:103EF000B0EE408A00BF1CB10E492069884209D04B
:103F000040F2C9120CA116A009F02AFC0020BDEC59
:103F1000028B10BD00BF94ED1C0AB4EE480AF1EE0E
:103F200010FA04D084ED1C8A20460BF07BFA0120A5
:103F3000EDE70000C83B01082E2E5C30302D4755C0
:103F4000495F4C4942524152595C776964676574D4
:103F5000735C6775695F67726170682E630000004B
:103F600041737365727420706172616D206661695E
:103F70006C656420696E2066696C6520257320611C
:103F80006E64206C696E652025640D0A00000000D7
:103F900010B52DED028B0446B0EE408A00BF1CB177
:103FA0000E492069884209D04FF4D1720CA116A0A5
:103FB00009F0D6FB0020BDEC028B10BD00BF94EDD4
:103FC000190AB4EE480AF1EE10FA04D084ED198A09
:103FD00020460BF027FA0120EDE70000C83B01085E
:103FE0002E2E5C30302D4755495F4C49425241528C
:103FF000595C776964676574735C6775695F67723C
:104000006170682E630000004173736572742070E4
:104010006172616D206661696C656420696E2066FD
:10402000696C6520257320616E64206C696E652063
:1040300025640D0A0000000010B52DED028B04462A
:10404000B0EE408A00BF1CB10E492069884209D0F9
:104050004FF4DE720CA116A009F082FB0020BDEC2B
:10406000028B10BD00BF94ED1B0AB4EE480AF1EEBE
:1040700010FA04D084ED1B8A20460BF0D3F90120FE
:10408000EDE70000C83B01082E2E5C30302D47556F
:10409000495F4C4942524152595C77696467657483
:1040A000735C6775695F67726170682E63000000FA
:1040B00041737365727420706172616D206661690D
:1040C0006C656420696E2066696C652025732061CB
:1040D0006E64206C696E652025640D0A0000000086
:1040E00010B52DED048B0446B0EE408AF0EE608AE8
:1040F000B0EE419A00BF1CB10C492069884209D03A
:1041000040F2E1120AA114A009F02AFB0020BDEC44
:10411000048B10BD00BFB0EE491AF0EE680AB0EE95
:10412000480A20460AF009F80120F0E7C83B0108D8
:104130002E2E5C30302D4755495F4C49425241523A
:10414000595C776964676574735C6775695F6772EA
:104150006170682E63000000417373657274207093
:104160006172616D206661696C656420696E2066AC
:10417000696C6520257320616E64206C696E652012
:1041800025640D0A0000000010B5044600BF1CB1F4
:104190000A492069884207D04FF4EB7208A112A0A7
:1041A00009F0DEFA002010BD00BF204609F0B4FF80
:1041B00020460BF037F90120F5E70000C83B010865
:1041C0002E2E5C30302D4755495F4C4942524152AA
:1041D000595C776964676574735C6775695F67725A
:1041E0006170682E63000000417373657274207003
:1041F0006172616D206661696C656420696E20661C
:10420000696C6520257320616E64206C696E652081
:1042100025640D0A0000000010B504460648006839
:10422000A0600C2221460548FCF746FF08B101209A
:1042300010BD0020FCE70000A8170120541A01203F
:1042400010B5044606480068E06010222146054883
:10425000FCF732FF08B1012010BD0020FCE7000090
:10426000A8170120981901207FB5E0211F48FCF70D
:104270003EF80120039003AB1C4A14320021A2F146
:10428000100001F09DFA19484169001D8847174840
:10429000C07A012821DB0021144841728172491E35
:1042A0000022B0F90600CDE9012100900F48C56851
:1042B000807A00EB800005EB800042680B48B0F983
:1042C0000430817A446A001DA0470848C07A01285A
:1042D00006DD01210548817202E0012004B070BDB5
:1042E00009F0A4FF0BF098F80020F7E7A8170120C9
:1042F0000949097C01F0010169B100220649C96838
:1043000000EB800301EB83010A720349096921F084
:10431000010201490A617047A81701202DE9F04FF9
:1043200087B004468A46934600BF1CB158492069AD
:10433000884208D04A2257A15FA009F011FA002054
:1043400007B0BDE8F08F00BFBAF1040F6FD1CDF810
:1043500018B020460AF04DFE074620460AF06EFED1
:10436000804620460AF0BCFF054620460AF08CFE37
:10437000064694F8510000F00100F0B1A06C10B1B5
:10438000A06C006808E02069006918B12069006924
:10439000006801E04FF07F400590A06C10B1A06C68
:1043A000806808E02069006918B1206900698068A8
:1043B00001E04FF07F4004901DE0A06C10B1A06CB4
:1043C000406808E02069006918B120690069406808
:1043D00001E04FF07F400590A06C10B1A06CC06868
:1043E00008E02069006918B120690069C06801E02F
:1043F0004FF07F40049094F85000C8B9B11E09B244
:104400000598CDE90010A81E03B208F1010002B220
:10441000781C01B20698FDF76AFD04982B464246C7
:104420003946CDE900600698FDF70BFF2BE02CE044
:104430000598A946009005EBD970401003B206EB31
:10444000D67008EB600002B205EBD57007EB600098
:1044500001B2CDE902560698FDF774FC049800906D
:1044600005EBD970401003B206EBD67008EB600084
:1044700002B205EBD57007EB600001B2CDE9025640
:104480000698FDF731FB01205AE7002058E70000AD
:10449000383C01082E2E5C30302D4755495F4C4981
:1044A00042524152595C776964676574735C677501
:1044B000695F6C65642E630041737365727420706C
:1044C0006172616D206661696C656420696E206649
:1044D000696C6520257320616E64206C696E6520AF
:1044E00025640D0A000000002DE9F04F87B0044656
:1044F0000D4616461F46DDE912ABDDE9108933464D
:104500002A46214604488DE8800F0AF069FB069090
:10451000069807B0BDE8F08F383C010870B5044636
:104520000D4600BF1CB116492069884206D0BF2243
:1045300014A11DA009F014F9002070BD00BF75B1D1
:1045400094F8510000F0010048B994F8510040F08F
:10455000010084F8510020460AF064FF0EE06DB9B6
:1045600094F8510000F0010040B194F8510020F09F
:10457000010084F8510020460AF054FF0120DCE7D6
:10458000383C01082E2E5C30302D4755495F4C4990
:1045900042524152595C776964676574735C677510
:1045A000695F6C65642E630041737365727420707B
:1045B0006172616D206661696C656420696E206658
:1045C000696C6520257320616E64206C696E6520BE
:1045D00025640D0A0000000070B504460D4600BFBA
:1045E0001CB10B492069884206D08D2209A112A076
:1045F00009F0B6F8002070BD00BF94F85000A84242
:1046000004D084F8505020460AF098FF0120F2E7C9
:10461000383C01082E2E5C30302D4755495F4C49FF
:1046200042524152595C776964676574735C67757F
:10463000695F6C65642E63004173736572742070EA
:104640006172616D206661696C656420696E2066C7
:10465000696C6520257320616E64206C696E65202D
:1046600025640D0A000000002DE9F04104460E46C5
:10467000002700BF1CB114492069884208D040F2CD
:10468000A11212A11BA009F06BF80020BDE8F08177
:1046900000BF01210C20FBF75FFE054695B1AE601F
:1046A000294604F1580009F005FEB4F85000401CFA
:1046B00000B2A4F85000204609F056F920460AF04E
:1046C000B1FE01273846E1E7E03C01082E2E5C30C0
:1046D000302D4755495F4C4942524152595C7769E8
:1046E00064676574735C6775695F6C697374626F26
:1046F000782E630041737365727420706172616D0E
:10470000206661696C656420696E2066696C65204D
:10471000257320616E64206C696E652025640D0A26
:10472000000000002DE9FF4F8DB0044615460E989D
:104730000C2877D006DC04280BD0062873D00B2871
:1047400072D16EE10E2870D0112870D01528F7D1E3
:10475000FCE12F4620460AF04CFC814620460AF038
:104760006DFC804620460AF0BBFD064620460AF056
:104770008BFC82460120334642464946CDE900A0E3
:104780003846FDF78DFDA06C10B1A06C006808E004
:104790002069006918B120690069006801E04FF0E4
:1047A0007F40AAF1040109B2CDE90010301F03B225
:1047B00008F1020002B209F1020001B23846FDF729
:1047C00096FB94F8620000F0010078B307A8FDF7AB
:1047D000E7FE5034208A301A06B209EB0600401E6C
:1047E00000B2ADF81C0008F1010000B2ADF81E00E7
:1047F000208AADF82000AAF1020000B2ADF8220034
:1048000000208DF82400B4F904000C9034F950090C
:104810000A9020460BF0C4FA0B9007A93846FDF722
:1048200033FE07E006E1E6E09AE128E100E07BE103
:10483000701E06B2606B002872D0A06D0028FBD0FD
:1048400000200490002120460BF05CFA059006A899
:10485000FDF712FA09F1040000B2ADF8180008F1F2
:10486000020000B2ADF81A00301F00B2ADF81C0013
:10487000059800B2ADF81E0011208DF82000BDF89B
:104880001C00ADF82600B7F906000390B7F9061032
:1048900008EB0A00801E814204DD08EB0A00801E3E
:1048A00000B2F88000200490002104F1580009F0C3
:1048B00013FD83468EE0B4F954100498814200DD64
:1048C0007FE0B4F95210049881425CD194F8300032
:1048D00000F0100070B1A06C10B1A06C006917E07E
:1048E0002069006918B120690069006910E04FF083
:1048F0007F400DE0A06C10B1A06C406908E0206919
:10490000006918B120690069406901E04FF07F40FB
:10491000BDF91E2005998A4203DABDF91E1001E097
:1049200065E0059909B2CDE90010F01E03B2BDF9AA
:104930001A2009F1020001B23846FDF7D8FA94F8BE
:10494000300000F0100070B1A06C10B1A06C806855
:1049500017E02069006918B120690069806810E0DB
:104960004FF07F400DE0A06C10B1A06CC06808E073
:104970002069006918B120690069C06801E04FF042
:104980007F400A900EE0A06C10B1A06C406808E077
:104990002069006918B120690069406801E04FF0A2
:1049A0007F400A90DBF8082006AB3846616BFDF7C4
:1049B0005FFEBDF81A100598084400B2ADF81A0061
:1049C00000BF5946002009F087FC83460498401C2C
:1049D00080B20490BBF1000F06D0BDF91A00B7F900
:1049E000061088427FF767AF0398F88000BF012068
:1049F00011B0BDE8F08F05E000BF30460CF074F94F
:104A0000002600BF002104F1580009F065FC0746AC
:104A1000394604F1580009F07BFD061EECD1012057
:104A2000E6E72946888A4F4A1080002210980270D3
:104A30000120DDE72F46606BF8B1002120460BF026
:104A400061F90FFA80F8B88A46490988081A06B24F
:104A5000002E01DB304600E0704240450CDD002EA8
:104A600001DD012001E04FF0FF30014620460BF050
:104A700087FDB88A3B49088000BF0120B8E72E4671
:104A80004FF0000820460AF02BFC814620460AF031
:104A9000FBFA824694F8620000F0010008B3B6F910
:104AA0001000B4F96010A9EB0101884219DDB6F9D4
:104AB0001400B4F96010884205DA4FF0FF31204647
:104AC0000BF05EFD0BE0B6F91400B4F96010AAEB30
:104AD0000101884203DD012120460BF051FD4FF01A
:104AE0000108B8F1000F1DD1606BD8B1002120463C
:104AF0000BF008F98346B6F9140090FBFBF087B27F
:104B0000B4F954003844B4F95010884209DCB4F8C0
:104B10005400384401B220460BF0C3FC20460AF092
:104B200081FC00BF012063E72E463078022804D1C3
:104B3000012120460BF040F806E03078012803D12F
:104B4000811E20460BF038F8012051E7B5F900101E
:104B500020460BF031F8012110980170012047E741
:104B6000002045E7B20301202DE9F04F85B005464E
:104B70000E4617469846DDE90FABDDF838901198E0
:104B80003B46324629468DE8000F049009480AF05A
:104B900027F8044654B14FF0FF3024F8520F1E207E
:104BA000E081207C40F002002074523C204605B099
:104BB000BDE8F08FE03C010870B504460D4600BF2B
:104BC0001CB117492069884207D04FF4F57215A12E
:104BD0001EA008F0C5FD002070BD00BF75B194F89F
:104BE000620000F0020048B994F8620040F0020050
:104BF00084F8620020460AF015FC0EE06DB994F8C6
:104C0000620000F0020040B194F8620020F002005F
:104C100084F8620020460AF005FC0120DCE7000071
:104C2000E03C01082E2E5C30302D4755495F4C4941
:104C300042524152595C776964676574735C677569
:104C4000695F6C697374626F782E6300417373657A
:104C5000727420706172616D206661696C65642098
:104C6000696E2066696C6520257320616E64206C16
:104C7000696E652025640D0A0000000070B50446C9
:104C80000D46002600BF1CB11A492069884207D092
:104C90004FF4FE7218A122A008F062FD002070BD42
:104CA00000BF94F8620000F0020000BB7DB194F8F0
:104CB000620000F0010050B994F8620040F0010079
:104CC00084F8620020460AF0ADFB01260FE075B9BA
:104CD00094F8620000F0010048B194F8620020F0FE
:104CE000010084F8620020460AF09CFB0126304651
:104CF000D5E70000E03C01082E2E5C30302D4755F2
:104D0000495F4C4942524152595C77696467657406
:104D1000735C6775695F6C697374626F782E63008A
:104D200041737365727420706172616D2066616990
:104D30006C656420696E2066696C6520257320614E
:104D40006E64206C696E652025640D0A0000000009
:104D50002DE9F04104460F464FF0000800BF1CB19A
:104D600019492069884208D04FF4FC7217A122A08B
:104D700008F0F6FC0020BDE8F08100BFB4F8542034
:104D8000921C9100206D0DF0EDFA0646CEB126651D
:104D900001211020FBF7E0FA054695B15034A188B7
:104DA000481CA080206840F821500021A08822687B
:104DB000503C401C42F82010EF60642028814FF0E6
:104DC00001084046D7E70000783D01082E2E5C30F0
:104DD000302D4755495F4C4942524152595C7769E1
:104DE00064676574735C6775695F6C697374766911
:104DF00065772E6300000000417373657274207044
:104E00006172616D206661696C656420696E2066FF
:104E1000696C6520257320616E64206C696E652065
:104E200025640D0A0000000070B5044600BF1CB1E7
:104E300011492069884207D04FF408720FA11AA0C7
:104E400008F08EFC002070BD00BF01211020FBF790
:104E500083FA05466DB1294604F1580009F02AFA93
:104E6000B4F86000401C00B2A4F86000204608F0CE
:104E700011FE2846E7E70000783D01082E2E5C3041
:104E8000302D4755495F4C4942524152595C776930
:104E900064676574735C6775695F6C697374766960
:104EA00065772E6300000000417373657274207093
:104EB0006172616D206661696C656420696E20664F
:104EC000696C6520257320616E64206C696E6520B5
:104ED00025640D0A000000002DE9FF4F91B0044643
:104EE000164612980C287CD006DC04280BD0062825
:104EF00078D00B2877D139E20E2875D0112874D0DC
:104F00001528F7D158E3374620460AF072F8804654
:104F100020460AF093F8824620460AF0E1F98146DD
:104F200020460AF0B1F81090204608F0B3FD0121A8
:104F300010984B465246CDE9000141463846FDF7F0
:104F4000AFF9A06C10B1A06C006808E0206900699E
:104F500018B120690069006801E04FF07F401099A6
:104F6000091F09B2CDE90010A9F1040003B20AF14A
:104F7000020002B208F1020001B23846FCF7B7FFA6
:104F800094F8680000F0010080B308A8FDF708FB62
:104F90006034E088A9EB00000FFA80F908EB090003
:104FA000401E00B2ADF820000AF1010000B2ADF8D9
:104FB0002200E088ADF824001098801E00B2ADF801
:104FC000260000208DF82800B4F904000D9034F973
:104FD00060090B9020460AF018FF0C9008A938468B
:104FE00005E0CFE17AE1F1E24AE2CDE202E0FDF74D
:104FF0004BFA03E0A9F101000FFA80F900212046E5
:105000000AF0B4FE8346F848CDE900B0A9F10300E8
:1050100003B20AF1020002B208F1020001B23846FE
:10502000FCF765FF206D00287ED0206D0068002809
:10503000FAD008F1020000B20D9006A8FCF71CFEA1
:10504000ADF81EB011208DF82000BDF81C00ADF8A1
:105050002600B7F904000590B7F9041008EB090021
:10506000401E814204DD08EB0900401E00B2B880FA
:105070000AF1020000B2ADF81A0000252DE0002070
:10508000CDE900B0206D50F82500B0F90830BDF929
:105090001A2038460D99FDF703F9206D50F82500C8
:1050A0000089801F00B2ADF81C000D98C01C00B232
:1050B000ADF81800206D50F82500C26806AB3846E0
:1050C000616BFDF7D5FA206D50F8250001890D9828
:1050D000084400B20D90681C85B2B4F85400A84290
:1050E000CDDCBDF81A00584400B2ADF81A00606B70
:1050F000002871D0A06D0028FBD000200490B7F9E3
:1051000006000390B7F9061010985044801E8142A3
:1051100004DD10985044801E00B2F88000200490F6
:10512000002104F1580000E0D4E009F0D5F80F9018
:10513000C1E0B4F964100498814200DDB2E0B4F932
:105140006210049881425BD194F8300000F01000A6
:1051500070B1A06C10B1A06C006917E02069006903
:1051600018B120690069006910E04FF07F400DE040
:10517000A06C10B1A06C406908E02069006918B10A
:1051800020690069406901E04FF07F40BDF91E10C1
:10519000594502DABDF91E1000E05946CDE900106C
:1051A000A9F1020003B2BDF91A2008F1020001B210
:1051B0003846FCF79CFE94F8300000F0100078B1FF
:1051C000A06C10B1A06C806818E02069006920B163
:1051D00020690069806811E079E04FF07F400DE0C0
:1051E000A06C10B1A06CC06808E02069006918B11B
:1051F00020690069C06801E04FF07F400A900EE02E
:10520000A06C10B1A06C406808E02069006918B17A
:1052100020690069406801E04FF07F400A9008F182
:10522000020000B20D90002500210F98083009F00F
:1052300053F80E9029E00E988068B8B1206D50F8B0
:1052400025000089801F00B2ADF81C0067488088E7
:10525000ADF826000D98C01C00B2ADF818000E98ED
:10526000826806AB3846616BFDF702FA206D50F894
:10527000250001890D98084400B20D9000200E9978
:1052800009F02AF80E90681C85B20E9818B1B4F88F
:105290005400A842CFDCBDF81A00584400B2ADF863
:1052A0001A0000BF00200F9909F016F80F9004981B
:1052B000401C80B204900F9830B1BDF91A00B7F9C4
:1052C000061088427FF735AF0398F88000BF059835
:1052D000B88000BF012015B0BDE8F08F1BE006E0EC
:1052E00000BF40460BF000FD4FF0000800BF00215A
:1052F00007F1080008F0F0FF8146494607F1080071
:1053000009F006F9B0F10008EAD100BF38460BF009
:10531000EBFC002700BF002104F1580008F0DCFF7F
:105320008146494604F1580009F0F2F8071ED6D12B
:10533000206DC8B100250CE000BF216D51F825009B
:105340000BF0D2FC0020216D41F8250000BF681C45
:1053500085B2B4F85400A842EEDC00BF206D0BF01B
:10536000C3FC0020206500BF0120B4E73146088A55
:105370001F4A1080888A1F4A1080002214980270E9
:105380000120A8E7B046606BB0B3002120460AF0C8
:10539000EDFC8246B8F8140016490988081A07B2CD
:1053A000002F01DB384600E0784250450DDD002F2C
:1053B00001DD012001E04FF0FF30014620460BF0F7
:1053C0004FF9B8F814000B4908800A48B0F90000FA
:1053D000504552DA4FF00009B8F810000449098826
:1053E000081A07B2002525E0C6C6C6FFA817012087
:1053F000C0030120C203012040E0206D50F82500C9
:10540000008948440FFA80F97148B0F90000B0EB08
:10541000090005D46E48B0F90000A0EB090004E0D3
:105420006B48B0F90000A9EB00000A2800DA05E09B
:10543000681C85B2B4F85400A842DEDC00BFB4F8A2
:105440005400A84218D0206D50F82500B0F908008B
:10545000C01B042809DB206D50F825000089C01B03
:1054600000B2216D51F825100881B8F81000584994
:105470000880204609F0D6FF00BF00BF01202AE7C0
:1054800035464FF00008002120460AF06FFC87B235
:10549000204609F025FF8146204609F0F5FD8246A9
:1054A00094F8680000F0010008B3B5F91000B4F9F1
:1054B0006610A9EB0101884219DDB5F91400B4F9B1
:1054C0006610884205DA4FF0FF3120460BF0C8F82D
:1054D0000BE0B5F91400B4F96610AAEB010188429B
:1054E00003DD012120460BF0BBF84FF00108B8F1B5
:1054F000000F1ED1B5F91400B84219DDB5F914003A
:10550000C01B90FBF7F01FFA80FBB4F9640058440D
:10551000B4F96010884209DCB4F86400584401B260
:1055200020460AF0F2FF204609F07CFF4FF0010808
:1055300000BFB8F1000F25D1B5F91400B84221DA47
:105540000021002016E0B5F910208A420ADD226D04
:1055500052F82020B2F908200A44B5F910309A42D6
:1055600000DD0BE0226D52F8202012890A4411B2AE
:10557000421C90B2B4F854208242E4DC00BF4FF0E9
:10558000010800BF0120A6E635462878022807D189
:10559000012120460AF07EFB00211498017009E0E9
:1055A0002878012806D1811E20460AF073FB0021CD
:1055B0001498017001208EE6B6F9001020460AF01A
:1055C00069FB012114980170012084E6002082E625
:1055D000C00301202DE9F04F85B005460E46174661
:1055E0009846DDE90FABDDF8389011983B4632461E
:1055F00029468DE8000F0490094809F0F1FA0446A5
:1056000054B14FF0FF3024F8620F1E20A080A07923
:1056100040F00200A071623C204605B0BDE8F08F6A
:10562000783D01082DE9F04104460D461646002755
:1056300000BF1CB110492069884208D04FF40472A1
:105640000EA119A008F08CF80020BDE8F08100BF81
:10565000B4F85400A8420CDD042E01DD304600E011
:105660000420216D51F825100881204609F0DAFE4A
:1056700001273846E9E70000783D01082E2E5C300E
:10568000302D4755495F4C4942524152595C776928
:1056900064676574735C6775695F6C697374766958
:1056A00065772E630000000041737365727420708B
:1056B0006172616D206661696C656420696E206647
:1056C000696C6520257320616E64206C696E6520AD
:1056D00025640D0A000000002DE9F04707460D463D
:1056E000164698464FF00009002400BF27B11C4918
:1056F0003869884200D145B940F2322219A124A06C
:1057000008F02EF80020BDE8F08700BF002105F169
:10571000080008F0E1FD0446701C86B212E05CB996
:1057200001210C20FAF718FE044604B90FE02146C7
:1057300005F1080008F0BEFD26B12146002008F062
:10574000CBFD0446301EA6F101018EB2E7D100BFA9
:105750001CB1C4F808804FF001094846D3E70000A7
:10576000783D01082E2E5C30302D4755495F4C495D
:1057700042524152595C776964676574735C67751E
:10578000695F6C697374766965772E630000000049
:1057900041737365727420706172616D2066616916
:1057A0006C656420696E2066696C652025732061D4
:1057B0006E64206C696E652025640D0A000000008F
:1057C0002DE9F0470546894690461F46B9F1000F7E
:1057D00003D0B9F1010F5FD150E0002644464FF4E9
:1057E000F07028804FF48870688002202871E8717A
:1057F0002A48A86000BF12E006EB8600274901F89E
:105800002060C6EB06204FF0404101EB802006EB04
:105810008601224A02EB81014860701CC6B2022E4A
:10582000EADB1F4820601F48E0601F48A0601F4857
:1058300060601F4860611F48E0611F4820621F4888
:1058400020611F4860621F48A0611F48A0621F4876
:10585000E0621F4820631F4860630FB1002038706A
:10586000002204215A2003F054FE5A2003F044FE83
:1058700019481A4948610120BDE8F08798F80010DE
:10588000012001EB8103AA6802EB830210720FB1C1
:10589000002038700120EFE70020EDE78818012094
:1058A000E9B0000841B0000829B1000815B10008AE
:1058B00031AB0008FDAC000801AF00084DAF000897
:1058C000EDAF0008C9AB00084DAD0008E9AD000818
:1058D00075AE000855AC000897CE0008B01801203E
:1058E000024630EE012AF0EE002A82EE223A82EDE4
:1058F000003A30EEA12AF0EE002A82EE223A81ED43
:10590000003A0120704710B52DED048BB0EE409A9F
:10591000B0EE608AF0EE419AF0EE618A044679EECC
:10592000690A60EEA00A38EE681A78EE681A41EE4D
:10593000210AB0EE600A204600F003F8BDEC048BAB
:1059400010BD10B52DED068BB0EE408A0446B5EEC5
:10595000C08AF1EE10FA18DD18EE100AFAF70AFD07
:1059600041EC1A0BB0EE4A0AF0EE6A0A0BF0B4FAF8
:10597000B0EE409AF0EE609A51EC190BFAF70DFD7B
:1059800020600120BDEC068B10BD0020FAE700006E
:105990002DE9FF4F8BB004468B4600BF1CB1754903
:1059A0002069884208D0542273A17DA007F0D8FE58
:1059B00000200FB0BDE8F08F00BFBBF1040F03D093
:1059C000BBF10B0F7ED1CDE00D980A90204609F077
:1059D00010FB0646204609F031FB0746204609F039
:1059E0007FFC8046204609F04FFB8146216DA06D6B
:1059F000401AA8F104014843D4E91421891A90FB04
:105A0000F1F005B2A06C10B1A06C006808E020694C
:105A1000006918B120690069006801E04FF07F401B
:105A2000A9F1040109B2CDE90010A8EB0500001F9F
:105A300003B27019801C01B2B81C02B20A98FCF7BC
:105A400056FAA06C10B1A06C406808E020690069AB
:105A500018B120690069406801E04FF07F40A9F16A
:105A6000040109B22B46CDE90010B81C02B2B01CEB
:105A700001B20A98FCF73BFA012043463A46314608
:105A8000CDE900900A98FCF70BFC606B002868D009
:105A90004FF0000A94F85C0000F0010098B1216D0D
:105AA000A06D401A64214843D4E91421891A90FB5F
:105AB000F1F0024646A1079008A807F061FE0DF13B
:105AC000200A06E053E0204609F056FD08B1D4F85C
:105AD00038A0BAF1000F43D001A8FCF7CDF8B01CF4
