:020000040800F2
:10000000A02B012099020008F3BF0008B3B5000837
:10001000EFBF0008490A00087DE00008000000006A
:10002000000000000000000000000000DD010008EA
:10003000F90B00080000000031020008C9C00008E8
:10004000B3020008B3020008B3020008B3020008BC
:10005000B3020008B3020008FD0B0008A50C00085D
:10006000C10C0008DD0C0008F90C0008E90A0008C2
:10007000F90A0008090B0008190B0008290B0008F1
:10008000390B0008490B0008B3020008B30200084E
:10009000B3020008B3020008B3020008150D0008FF
:1000A000B3020008B3020008B3020008B30200085C
:1000B000B3020008B3020008B3020008B30200084C
:1000C000B3020008B3020008B3020008B30200083C
:1000D000B3020008C9DF0008F5DF000825E00008CA
:1000E000190C0008B3020008B3020008B3020008AC
:1000F000B3020008B3020008B3020008590B00085D
:10010000B3020008B3020008B3020008B3020008FB
:10011000DDD900080DDA0008B3020008B3020008B8
:10012000790B0008890B0008990B0008A90B00083F
:10013000B90B0008B3020008B3020008B3020008BC
:10014000B3020008B3020008B3020008B3020008BB
:10015000C90B0008D90B0008E90B000855E000089E
:10016000B3020008B3020008B3020008B30200089B
:10017000B3020008B3020008B30200080000000048
:10018000B3020008B302000839DA000869DA00088F
:10019000B3020008B3020008B3020008B30200086B
:1001A000CDBD0008B3020008690B0008B3020008C7
:1001B000B3020008B3020008B3020008B30200084B
:1001C000B3020008B3020008DFF80CD000F034FBE3
:1001D0000048004735380108A02B01202B4B196837
:1001E0000868B0E8F04F80F30988BFF36F8F4FF0D5
:1001F000000080F311887047000000000648006886
:10020000006880F3088862B661B6BFF34F8FBFF312
:100210006F8F00DF00BF00BF08ED00E0DFF80C00CB
:10022000016841F470010160704700BF88ED00E093
:10023000EFF30980BFF36F8F144B1A681EF0100F95
:1002400008BF20ED108A20E9F04F106008B44FF08D
:10025000500072B680F31188BFF34F8FBFF36F8FDA
:1002600062B613F089FE4FF0000080F3118808BCDD
:1002700019680868B0E8F04F1EF0100F08BFB0EC26
:10028000108A80F30988BFF36F8F70477C030120C9
:10029000EFF3058070470000064880470648004796
:1002A000FEE7FEE7FEE7FEE7FEE7FEE7FEE7FEE726
:1002B000FEE7FEE7D1C00008C901000840EA0103DB
:1002C0009B0703D009E008C9121F08C0042AFAD20C
:1002D00003E011F8013B00F8013B521EF9D27047D0
:1002E000D2B201E000F8012B491EFBD27047002278
:1002F000F6E710B513460A4604461946FFF7F0FF25
:10030000204610BD10B5044604E00B7800F8013B10
:1003100003B1491C521EF8D2204610BD421C10F8F1
:10032000011B0029FBD1801A704710B5002200E0A4
:10033000521C835C8C5CA34201D1002BF8D1D8B253
:10034000E1B2401A10BD034611F8012B00F8012B51
:10035000002AF9D11846704700F0004230F0004002
:100360000AD0C10D01F56071C0F3160042EA0151D7
:10037000C20840071143704700200146704701F052
:10038000004330B421F0004150EA010206D00A0DCA
:10039000A2F56072C1F31301002A02DC30BC002018
:1003A0007047440F44EAC104C100E01830BC00EBC0
:1003B000C25000F031B82DE9F05F054600209246AA
:1003C0009B4688460646814640241BE02846414617
:1003D0004746224600F051FA53465A46C01A914108
:1003E00010D311461846224600F038FA2D1A67EB52
:1003F00001084F4622460120002100F02FFA17EB9A
:1004000000094E41201EA4F10104DFDC48463146BC
:100410002A464346BDE8F09F0029A8BF7047401C0C
:10042000490008BF20F00100704710B4B0FA80FC0A
:1004300000FA0CF050EA010404BF10BC704749B147
:10044000CCF1200421FA04F411FA0CF118BF0121B7
:1004500021430843A3EB0C01CB1D4FEA00614FEA97
:10046000102042BF002010BC704700EBC350104466
:100470000029A4BF10BC7047401C490008BF20F0F1
:10048000010010BC70472DE9FE4F804681EA030051
:10049000C00F0C46009021F0004123F00045B8EB5E
:1004A0000200A94105D24046214690461C460B4613
:1004B000024623F00040104347D0270DC7F30A003F
:1004C000C3F30A510290401A019040286BDAC3F33B
:1004D000130040F4801B0098924620B10023D2EB19
:1004E000030A63EB0B0B01985946C0F140025046DA
:1004F00000F0B4F906460D4650465946019A00F000
:10050000CCF910EB08006141002487EA115284EA1B
:10051000E7731A4340D0009A62B3019A012A4FEA66
:10052000075215DC001B61EB02014FF0004202EAAA
:100530000752CDE90042001C41F5801132462B469E
:1005400000F0CCF903B0BDE8F08F40462146F9E752
:10055000001B61EB0201001C41F5801300185B4198
:100560002018A2F5001747EB030140EAD570B61931
:100570006D4111E06D084FEA360645EAC0754FEA55
:100580000752001B61EB0201001C41F58011490874
:100590004FEA30000019514132462B4603B0BDE806
:1005A000F04F00F08CB90098012240000023D0EBFE
:1005B000020263EBE073009821464FEAE074B8EB67
:1005C000000061EB0401E9E783F000435BE781F0A1
:1005D000004158E72DE9FE4F81EA030404F000448E
:1005E00021F0004100944FF0000B23F0004350EA4B
:1005F00001045ED052EA03045BD0C3F30A54C1F392
:100600000A552C44A4F2F3340194A0FB0254C1F324
:10061000130141F48011C3F3130343F4801301FB6E
:10062000024400FB034E840A970A44EA815447EAD5
:100630008357A4FB076802958D0A05FB07854FEADF
:10064000932C04FB0C542705029D4FEA065847EAF9
:100650001637B5EB08056EEB070C870E920E47EACE
:10066000811742EA8312A7FB0201B6EB0B0164EB90
:1006700000042B0D43EA0C335E1844EB1C50DA46A1
:100680005146E7FB0201C5F313044FEA0B3343EA7B
:1006900014534FEA0432019C43EA0603A4F10C040C
:1006A0000294009CCDE900B400F018F903B0BDE855
:1006B000F08F00200146F9E72DE9F04D81EA0304AF
:1006C00004F0004B21F0004514464FF0000A23F0DF
:1006D000004150EA050220D054EA01021DD0C5F3C2
:1006E0000A570246C5F31303C1F31300C1F30A56B8
:1006F00040F4801543F48013A7EB0608101BD64680
:1007000008F2FD3873EB050002D308F1010801E09F
:1007100092185B41B8F1000F03DA00200146BDE8F2
:10072000F08D00204FF48011064684460EE0171B22
:1007300073EB050705D3121B63EB050306434CEA75
:10074000010C49084FEA300092185B4150EA01075A
:10075000EDD152EA030012D082EA040083EA0501D7
:10076000084305D0101BAB4106D20122002306E04E
:1007700000224FF0004302E06FF0010253101AEB29
:1007800006004CEB085110EB0A0041EB0B01BDE8F1
:10079000F04D00F094B82DE9F04D00231A461B1AD5
:1007A0008A4103DB00200146BDE8F08DC1F30A5207
:1007B000C1F3130141F480154FF0000BD10702D1B2
:1007C00000186D41521E0027044640F2FF113846C2
:1007D00001EB620A3E468046024600204FF480113B
:1007E00000F04BF8C2197141BB1846EB0100B4EBA5
:1007F000030C75EB000C04D3E41A65EB00051746F7
:100800000E46241908F101006D4180463428E3DDCD
:10081000F91946EB0600091BA84103D24FF0FF323D
:10082000134601E0002213461BEB070046EB0A517A
:10083000BDE8F04D00F043B8064C074D06E0E06817
:1008400040F0010394E8070098471034AC42F6D317
:10085000FFF7BEFC4062010860620108202A04DB49
:10086000203A00FA02F1002070479140C2F12003C3
:1008700020FA03F3194390407047202A04DB203A02
:1008800021FA02F00021704721FA02F3D040C2F1B0
:1008900020029140084319467047202A06DBCB17F7
:1008A000203A41FA02F043EAE07306E041FA02F32B
:1008B000D040C2F12002914008431946704710B55C
:1008C000141E73F1000408DA401C41F10001921873
:1008D0005B411A4301D120F0010010BD2DE9F04D1C
:1008E00092469B4611B1B1FA81F202E0B0FA80F271
:1008F00020329046FFF7B2FF04460F4640EA0A0056
:1009000041EA0B0153465A46084313D0114653EAB5
:10091000010019D0C8F140025046FFF7AEFF05466E
:100920000E46504659464246FFF798FF084305D009
:10093000012004E020463946BDE8F08D0020054343
:1009400046EAE0762C4337430A986305E40AA0EBB5
:1009500008000022FD0A44EA47540A3002D500206C
:100960000146E9E7010510196941DDE9084500196B
:100970006941BDE8F04DA2E70EB5C10F80EAE07015
:100980000844CA07002140F233438DE80E000A46AE
:100990000B46FFF7A3FF03B000BD0EB540F2334195
:1009A00002910021CDE900110A460B46FFF796FFA0
:1009B00003B000BD70B5C1F30A5201F00045002438
:1009C000C1F3130140F2FF3341F480119A4201DA7E
:1009D000002070BD40F233439A42A2F2334203DC5E
:1009E0005242FFF74AFF00E090402C43F1D04042D2
:1009F00070BD70B58C1810F8015B15F0070301D1BC
:100A000010F8013B2A1106D110F8012B03E010F871
:100A1000016B01F8016B5B1EF9D12B0705D4002394
:100A2000521E0DD401F8013BFAE710F8013BCB1A36
:100A3000921C03E013F8015B01F8015B521EF9D52B
:100A4000A142D8D3002070BD00BFFEE72DE9F043DE
:100A500020222023234E4FF48078B8FBF2F7B8FB16
:100A6000F3FC00213AE00FFA81F80FFA83F9B8EBB2
:100A7000090806D50FFA83F80FFA81F9A8EB0908DF
:100A800005E00FFA81F80FFA83F9A8EB090808FBD3
:100A90000CF500201FE00FFA80F80FFA82F9B8EB8E
:100AA000090806D50FFA82F80FFA80F9A8EB0908B1
:100AB00005E00FFA80F80FFA82F9A8EB09084FEA6F
:100AC000880808FB07F404FB05F84FEA182886F8A5
:100AD0000080761C401C4028DDD3491C4029C2D32D
:100AE000BDE8F0836E06012010B502480BF02DFC26
:100AF00010BD00001060024010B502480BF025FC4C
:100B000010BD00002860024010B502480BF01DFC2B
:100B100010BD00004060024010B502480BF015FC0B
:100B200010BD00005860024010B502480BF00DFCEB
:100B300010BD00007060024010B502480BF005FCCB
:100B400010BD00008860024010B502480BF0FDFBAC
:100B500010BD0000A060024010B502480BF0F5FB8C
:100B600010BD0000B860024010B5024808F01AFD40
:100B700010BD00002C19012010B502480BF0E5FB58
:100B800010BD00001064024010B502480BF0DDFB00
:100B900010BD00002864024010B502480BF0D5FBE0
:100BA00010BD00004064024010B502480BF0CDFBC0
:100BB00010BD00005864024010B502480BF0C5FBA0
:100BC00010BD00007064024010B502480BF0BDFB80
:100BD00010BD00008864024010B502480BF0B5FB60
:100BE00010BD0000A064024010B502480BF0ADFB40
:100BF00010BD0000B86402407047000010B5054801
:100C0000006800F0010020B10120024908600BF0EB
:100C1000DBFC10BD143C014010B52148006800F415
:100C2000806028B14FF480601D4908600BF0CCFC57
:100C30001B48006800F4006028B14FF400601849B8
:100C400008600BF0C1FC1648006800F4805028B121
:100C50004FF48050124908600BF0B6FC1048006851
:100C600000F4005028B14FF400500D4908600BF01B
:100C7000ABFC0B48006800F4804028B14FF4804082
:100C8000074908600BF0A0FC0548006800F400402C
:100C900028B14FF40040024908600BF095FC10BDEC
:100CA000143C014010B50548006800F0020020B176
:100CB0000220024908600BF087FC10BD143C014083
:100CC00010B50548006800F0040020B10420024976
:100CD00008600BF079FC10BD143C014010B50548CC
:100CE000006800F0080020B10820024908600BF0FD
:100CF0006BFC10BD143C014010B50548006800F0C5
:100D0000100020B11020024908600BF05DFC10BDFE
:100D1000143C014010B51A48006800F0200020B1D2
:100D20002020174908600BF04FFC1548006800F0C0
:100D3000400020B14020124908600BF045FC1048EB
:100D4000006800F0800020B180200D4908600BF0A1
:100D50003BFC0B48006800F4807028B14FF48070B1
:100D6000074908600BF030FC0548006800F400708B
:100D700028B14FF40070024908600BF025FC10BD4B
:100D8000143C014030B502460023002408680128C5
:100D900016D013686FF30E03D1E901052843CD681F
:100DA00028430D6928434D6928438D692843CD693F
:100DB00028430D6A28434D6A28430343136019E012
:100DC000136823F4F843D1E9070528434D6A284303
:100DD000034354686FF30E04D1E901052843CD683D
:100DE00028430D6928434D6928438D6928430443EE
:100DF00013605460002030BD0246506940EA410053
:100E0000506100207047F8B506460C461546002094
:100E100000900027D4E900010843A168491E40EA78
:100E20004110E16840EA412000900098306108F0EC
:100E300089FC074609E0681C38B125B108F082FC3E
:100E4000C01BA84201D90320F8BDB06900F0200002
:100E50000028F0D100BFF7E770B503461546002221
:100E60000024012D1FD09A6802F070420868401ECD
:100E70004E68761E40EA06168868401E46EA00263E
:100E8000C868401E46EA0036088A401E46EA004608
:100E9000888A401E46EA0056087E401E46EA0060E8
:100EA00002439A6022E09A6811480240C868401ED6
:100EB0000603888A401E46EA00500243DC6804F0BC
:100EC00070440868401E4E68761E40EA0616886820
:100ED000401E46EA0026088A401E46EA0046087E72
:100EE000401E46EA006004439A60DC60002070BD4A
:100EF000FF0F0FFF01B500BF0098411E00910028B1
:100F0000FAD108BD30B50146002409B9002030BD32
:100F10004A688B689A4201D10C6806E0934201D975
:100F20009C1A02E0D51A0868441B601EEFE730B532
:100F3000014609B9002030BD4A688B689A4201D148
:100F4000002406E09A4201D9D41A02E09D1A0868EA
:100F5000441B2046EFE770B504460D4616460CB913
:100F6000012070BD18212046FFF7C1F92560E66019
:100F70000A206074E06870B9284601210EF08AFAF0
:100F8000E060E06818B9002020600120E9E7207CDB
:100F900040F002002074207C40F00100207400200A
:100FA000DFE72DE9F0470446894615464FF0000873
:100FB000CA4604B115B90020BDE8F0872168A068D1
:100FC000884201D30020A0602046FFF7B0FF07460B
:100FD000AF4203D20FB90020EEE73D46A16820687A
:100FE000461AAE4200D92E46D4E902208118324674
:100FF0005046FFF763F9B044A0683044A060AD1BD1
:1010000035B10AEB08002A46E168FFF757F9A560F9
:101010002168A068884201D30020A06008EB050089
:10102000CAE72DE9F0470446894615464FF0000807
:10103000CA4604B115B90020BDE8F087D4E9001014
:10104000884201D3002060602046FFF75BFF07461F
:10105000AF4203D20FB90020EEE73D46D4E90001CC
:10106000461AAE4200D92E466268E16888183246B8
:101070005146FFF723F9B044606830446060AD1B0F
:1010800035B10AEB08012A46E068FFF717F96560F9
:10109000D4E90010884201D30020606008EB05000D
:1010A000CAE700002DE9F04F8BB004468A46164689
:1010B0009B4600BF3CB196492069884203D19548C0
:1010C00090F8EC0040B9492293A19DA00DF0E6F8FC
:1010D00000200BB0BDE8F08F00BFBAF1090F72D04D
:1010E00006DCBAF1010F0AD0BAF1040F6CD10CE0A2
:1010F000BAF10A0F69D0BAF1110FF7D1E4E001217A
:1011000020460FF067FB0120E3E70A9620460EF029
:10111000F1FD074620460EF08BFE804620460FF07C
:10112000B9F8814620460EF021FF054694F83800B4
:1011300000F08000F0B1206D10B1206D006808E073
:101140002069006918B120690069006801E04FF06A
:101150007F400990206D10B1206D406808E0206943
:10116000006918B120690069406801E04FF07F40D4
:10117000089044E094F8380000F00800F0B1206DC9
:1011800010B1206D406808E02069006918B120693D
:101190000069406801E04FF07F400990206D10B178
:1011A000206D006808E02069006918B120690069B5
:1011B000006801E04FF07F40089020E0206D28B1EA
:1011C000206D40680BE09BE0A0E09AE02069006998
:1011D00018B120690069406801E04FF07F40089035
:1011E000206D10B1206D006808E02069006918B119
:1011F00020690069006801E04FF07F40099094F891
:10120000380000F08000E0B1291F09B20998CDE94B
:101210000010A9F1040003B208F1020002B2B81CE8
:1012200001B20A9800F0CFFE94F83800C0F3C00075
:101230004B4642463946CDE900500A9801F0ACF8D9
:1012400017E0B4F95A0009994B464246CDE90050DF
:10125000029139460A9800F0C8FEB4F95A1008986D
:101260004B464246CDE90051029039460A9801F0BA
:10127000E7F820460FF07AF920B301A800F060FDEE
:10128000781C00B2ADF8040008F1010000B2ADF81E
:101290000600A9F1020000B2ADF80800A81E00B2D5
:1012A000ADF80A0012208DF80C00BDF80800ADF86A
:1012B00012000898059001ABD4E90F120A9801F0CA
:1012C00063FA00BF012004E7354628780D2802D0D4
:1012D00028780A2812D1606930B100231A460E21FD
:1012E00020466769B84706E0206900231A460E21A8
:1012F000C7682046B84700208BF800000120E8E6C8
:1013000000BF20460FF0F0F80120E2E60020E0E602
:1013100014520108041801202E2E5C30302D475540
:10132000495F4C4942524152595C77696467657420
:10133000735C6775695F627574746F6E2E6300000D
:1013400041737365727420706172616D20666169AA
:101350006C656420696E2066696C65202573206168
:101360006E64206C696E652025640D0A0000000023
:101370002DE9F04F87B004460D4616461F46DDE9BD
:1013800012ABDDE9108933462A46214604488DE830
:10139000800F0EF0CDFA0690069807B0BDE8F08FEA
:1013A000145201082DE9F04F8DB00446894692464B
:1013B0009846B9F1040F06D0B9F10B0F7ED0B9F100
:1013C0000E0F7CD178E1CDF830A020460EF092FCD3
:1013D0000A9020460EF02CFD834620460EF05AFF60
:1013E000099020460EF0C2FD089014250A9E089927
:1013F000481B00EBD0710BEB61010FB294F8580061
:1014000000F0020078B1206D10B1206DC06808E0D6
:101410002069006918B120690069C06801E04FF0D7
:101420007F400B900EE0206D10B1206D006808E049
:101430002069006918B120690069006801E04FF077
:101440007F400B90A91E09B20B98CDE90010A81E91
:1014500003B2781C02B2701C01B20C9800F0B3FD0C
:1014600001202B463A463146CDE900500C9800F059
:1014700093FF94F8380000F01000D0B1206D10B147
:10148000206D406808E02069006918B12069006992
:10149000406801E04FF07F40291F09B2CDE90010FC
:1014A000281F03B2B81C02B2B01C01B20C9800F0A5
:1014B00044FF94F8580000F0010001E0EEE006E17E
:1014C000002878D0206D10B1206D406808E02069B8
:1014D000006918B120690069406801E04FF07F4061
:1014E0007919491F09B2CDE900107019801F03B2A4
:1014F000781D02B2301D01B20C9800F073FE206D11
:1015000010B1206D406808E02069006918B12069B9
:101510000069406801E04FF07F407919491F09B226
:10152000CDE900107019401F03B2381D02B2301D02
:1015300001B20C9800F056FE206D10B1206D40688D
:1015400008E02069006918B120690069406801E07D
:101550004FF07F407919891F09B2CDE90010701949
:10156000401F03B2381D02B2701D01B20C9800F08A
:1015700039FE206D10B1206D406808E020690069D7
:1015800018B120690069406801E04FF07F40391DC3
:1015900009B2CDE900107019801F03B27819801FBD
:1015A00002B2301D01B20C9800F01CFE206D18B183
:1015B000206D406809E034E02069006918B12069B5
:1015C0000069406801E04FF07F40391D09B2CDE964
:1015D00000107019401F03B27819401F02B2301D6D
:1015E00001B20C9800F0FEFD206D10B1206D406836
:1015F00008E02069006918B120690069406801E0CD
:101600004FF07F40791D09B2CDE900107019401FDD
:1016100003B27819401F02B2701D01B20C9800F09D
:10162000E1FD20460EF0A2FFA0B301A800F088FB68
:101630007019401D00B2ADF804000BF1010000B2BA
:10164000ADF806000998401B401F00B2ADF8080035
:101650000898801E00B2ADF80A0011208DF80C0029
:10166000BDF80800ADF81200206D10B1206D0069C2
:1016700008E02069006918B120690069006901E08B
:101680004FF07F40059001ABD4E90F120C9801F0A8
:101690007BF800BF01200DB0BDE8F08F94F8580032
:1016A00000F0020018B1012088F8000002E00020DC
:1016B00088F800000120EEE794F8580000F00100DF
:1016C00080F00101204610F070F80120E3E70020CF
:1016D000E1E700002DE9F04F87B004460D461646BD
:1016E0001F46DDE912ABDDE9108933462A46214663
:1016F00004488DE8800F0EF01BF90690069807B09D
:10170000BDE8F08FB052010870B5044600BF3CB18F
:101710000A492069884203D1094890F8EC0030B9A1
:10172000E42208A112A00CF0B9FD002070BD00BF9A
:1017300094F8580000F001052846F7E7B052010878
:10174000041801202E2E5C30302D4755495F4C493E
:1017500042524152595C776964676574735C67757E
:10176000695F636865636B626F782E6300000000D9
:1017700041737365727420706172616D2066616976
:101780006C656420696E2066696C65202573206134
:101790006E64206C696E652025640D0A00000000EF
:1017A00070B504460D4600BF3CB10B492069884224
:1017B00003D10A4890F8EC0030B9D82208A113A050
:1017C0000CF06CFD002070BD00BF294620460FF0D4
:1017D000ECFF06463046F6E7B05201080418012037
:1017E0002E2E5C30302D4755495F4C4942524152B4
:1017F000595C776964676574735C6775695F636872
:1018000065636B626F782E6300000000417373653F
:10181000727420706172616D206661696C6564200C
:10182000696E2066696C6520257320616E64206C8A
:10183000696E652025640D0A000000002DE9F04165
:1018400004460D46164600BF3CB10C49206988424B
:1018500003D10B4890F8EC0038B9CC2209A114A0B0
:101860000CF01CFD0020BDE8F08100BF3246294687
:1018700020460EF0CFFF07463846F4E7B052010885
:10188000041801202E2E5C30302D4755495F4C49FD
:1018900042524152595C776964676574735C67753D
:1018A000695F636865636B626F782E630000000098
:1018B00041737365727420706172616D2066616935
:1018C0006C656420696E2066696C652025732061F3
:1018D0006E64206C696E652025640D0A00000000AE
:1018E00070B504460D4600BF3CB10B4920698842E3
:1018F00003D10A4890F8EC0030B9F02208A113A0F7
:101900000CF0CCFC002070BD00BF294620460FF033
:10191000D3FF06463046F6E7B0520108041801200E
:101920002E2E5C30302D4755495F4C494252415272
:10193000595C776964676574735C6775695F636830
:1019400065636B626F782E630000000041737365FE
:10195000727420706172616D206661696C656420CB
:10196000696E2066696C6520257320616E64206C49
:10197000696E652025640D0A000000002DE9F04124
:1019800004460D461746984600BF3CB110492069F1
:10199000884203D10F4890F8EC0038B969220EA1B3
:1019A00017A00CF07BFC0020BDE8F08100BF012DEA
:1019B0000BD1A66802E030460DF020FA30460DF05B
:1019C00045FA0028F7D10120EEE70020ECE70000FF
:1019D00070530108041801202E2E5C30302D47551D
:1019E000495F4C4942524152595C7769646765745A
:1019F000735C6775695F6469616C6F672E63000073
:101A000041737365727420706172616D20666169E3
:101A10006C656420696E2066696C652025732061A1
:101A20006E64206C696E652025640D0A000000005C
:101A30002DE9F04F87B004460D4616461F46DDE9F6
:101A400012ABDDE910894BF0010033462A462146EE
:101A50008DE88007049004480DF06AFF0690069810
:101A600007B0BDE8F08F0000705301082DE9F04F7A
:101A700085B004460D4616461F46DDE9109ADDF88E
:101A80003C804FF0FF3004900E983B46324629468A
:101A90008DE801072046FFF7CBFF8346BBF1000F1F
:101AA00014D002E020460DF0A9F920460DF0CEF941
:101AB0000028F7D100BF04F011FD20460DF0C6F953
:101AC0000028F8D020460DF099F90490049805B04C
:101AD000BDE8F08F2DE9F3410446002600BF3CB17C
:101AE0001A492069884203D1194890F8EC0038B9A6
:101AF0009F2218A121A00CF0D1FB0020BDE8FC81A1
:101B000000BF012110200DF0C5FC0546DDB1A06825
:101B1000A8600198E860294624480DF07DFA6069C4
:101B200030B1002301AA162120466769B84706E0B4
:101B30002069002301AA1621C7682046B84720461D
:101B40000EF02AFE01263046D8E700007053010847
:101B5000041801202E2E5C30302D4755495F4C492A
:101B600042524152595C776964676574735C67756A
:101B7000695F6469616C6F672E6300004173736510
:101B8000727420706172616D206661696C65642099
:101B9000696E2066696C6520257320616E64206C17
:101BA000696E652025640D0A000000000004012014
:101BB0002DE9FC4107460D4616469846089C012033
:101BC000434632462946CDE90004384600F021F864
:101BD0000220CDE90004681E01B243463246384671
:101BE00000F017F80820CDE90004701E02B2434649
:101BF0002946384600F00DF80420CDE90004701E97
:101C000002B2681E01B24346384600F002F8BDE851
:101C1000FC812DE9FC5F81460C4615469846DDF8AF
:101C200030A0C8F101000FFA80FB012001904FEABB
:101C30004800404200B2009000274646A4EB08004E
:101C4000B9F90410884211DCA5EB0800B9F90610B7
:101C500088420BDCB9F9000004EB0801884205DC7E
:101C6000B9F9020005EB0801884201DDBDE8FC9FDF
:101C700062E0BBF1000F09DB701E06B20098801C09
:101C800000B20090009858440FFA80FB781C07B20D
:101C90000198801C00B20190019858440FFA80FB13
:101CA0000AF0010078B1E81B02B2A01B01B248465D
:101CB0000D9B00F0F9FCA81B02B2E01B01B24846E4
:101CC0000D9B00F0F1FC0AF0020078B1A81B02B2F3
:101CD000E01901B248460D9B00F0E6FCE81B02B299
:101CE000A01901B248460D9B00F0DEFC0AF004008A
:101CF00078B1A81902B2E01901B248460D9B00F074
:101D0000D3FCE81902B2A01901B248460D9B00F0BD
:101D1000CBFC0AF0080078B1A81902B2E01B01B2AE
:101D200048460D9B00F0C0FCE81902B2A01B01B2AE
:101D300048460D9B00F0B8FCB7429ADB00BF95E720
:101D400010B504461C212046FEF7D1FA10BD000054
:101D50002DE9FE4304460D4616461F46DDE90A8975
:101D6000B4F90400A8420EDBB4F90600B0420ADB65
:101D7000B4F90000E919884205DCB4F9020006EB69
:101D80000801884201DDBDE8FE83002F02DDB8F1C5
:101D9000000F00DCF7E7B4F90000A84205DD208859
:101DA000401B381A07B2B4F90050B4F90200B0422F
:101DB00007DD6088801BA8EB00000FFA80F8B4F9FB
:101DC0000260E819B4F90410884202DDA088401BC3
:101DD00007B206EB0800B4F90610884203DDE0887C
:101DE000801B0FFA80F8002F14DDB8F1000F11DD11
:101DF00009488DE880030069008B301A03B2064859
:101E00000069C08A281A02B203480169D0F844C0A8
:101E1000001DE04700BFB6E7041801202DE9FC4192
:101E200006460F4615469846089C012043462A461A
:101E30003946CDE90004304600F01FF80220434641
:101E40002A463946CDE90004304600F016F808204D
:101E5000CDE90004681E02B243463946304600F020
:101E60000CF80420CDE90004681E02B2434639464E
:101E7000304600F002F8BDE8FC812DE9FF5F8246A4
:101E8000894614461F46DDE90EB8C7F1010000B2CD
:101E90000390012002907800404200B20190002699
:101EA0003D46BAF9000009EB070188420FDCBAF998
:101EB0000200E11988420ADCA9EB0700BAF9041014
:101EC000884204DCE01BBAF90610884201DDBDE857
:101ED000FF9F74E0039800280ADB681E05B2019892
:101EE000801C00B2019001990398084400B203904D
:101EF000701C06B20298801C00B20290DDE902104C
:101F0000084400B203900BF00100A8B1601B02B2BC
:101F1000A9EB060001B233465046CDF8008000F030
:101F20001DF9A01B02B2A9EB050001B22B465046D9
:101F3000CDF8008000F012F90BF0020088B1601BB0
:101F400002B2334649465046CDF8008000F006F90B
:101F5000A01B02B22B4649465046CDF8008000F047
:101F6000FDF80BF00800A8B1A01902B2A9EB05001A
:101F700001B22B465046CDF8008000F0EFF8601912
:101F800002B2A9EB060001B233465046CDF80080FC
:101F900000F0E4F80BF0040088B1A01902B22B465F
:101FA00049465046CDF8008000F0D8F8601902B2DA
:101FB000334649465046CDF8008000F0CFF8AE4297
:101FC00088DB00BF83E72DE9FC4704460D46164633
:101FD0001F46DDE90A893B46324629462046CDE9BF
:101FE0000089FFF7B5FEBDE8FC872DE9FC47824676
:101FF000884691461E46DDE90B470A9D05EBD571E3
:10200000B4EB610F05DB284605EBD0714910491E82
:102010000CB206EBD671B4EB610F05DB304606EB74
:10202000D0714910491E0CB2002C75D0022000FB63
:10203000146000B200280CDD022000FB146003B223
:1020400008EB040001B24A465046CDE90057FFF7BD
:10205000BAFF022000FB145000B200281EDD02204F
:1020600000FB145000B2CDE9000709EB040002B2F6
:10207000234641465046FFF7A6FF022000FB1450BE
:1020800000B2CDE9000709EB040002B208EB06003C
:10209000001B01B223465046FFF795FF0120CDE912
:1020A000000709EB040002B208EB040001B223466A
:1020B0005046FFF7E2FE0220CDE9000709EB0400DD
:1020C00002B208EB0600001B401E01B22346504638
:1020D000FFF7D3FE0820CDE9000709EB0500001B40
:1020E000401E02B208EB040001B223465046FFF73F
:1020F000C4FE0420CDE9000709EB0500001B401ECB
:1021000002B208EB0600001B401E01B223465046F7
:10211000FFF7B3FE08E0FFE733464A464146504624
:10212000CDE90057FFF74FFFBDE8FC872DE9F041EF
:1021300007460C46154608480069008B281A03B26A
:1021400005480069C08A201A02B203480169C66ABC
:10215000001DB047BDE8F081041801202DE9FC41C5
:1021600004460D4617461E46DDF82080B4F90600E9
:10217000B8420CDDB4F90200B84208DCB4F904003E
:10218000A84204DBA819B4F90010884201DABDE8BE
:10219000FC81B4F90000A84205DD2088401B301AFC
:1021A00006B2B4F90050A819B4F90410884202DD4F
:1021B000A088401B06B20A48CDE900680069008B80
:1021C000381A03B206480069C08A281A02B20448C5
:1021D0000169D0F83CC0001DE04700BFD7E7000010
:1021E000041801202DE9FF4F8BB00F469046994609
:1021F000DDF860A000240025A34600200A90099085
:102200000890079006900026059004900390029095
:10221000B9EB070002D4A9EB070001E0A7EB090026
:1022200004B2BAEB080002D4AAEB080001E0A8EB64
:102230000A0005B27CB919980090D04501DA4046F1
:1022400000E0504602462B4639460B9800F058FAFB
:102250000FB0BDE8F08F6DB9199800904F4501DAC5
:10226000384600E048460146234642460B98FFF7B1
:1022700075FFEDE7BB46CDF82880B94503DB0120AB
:102280000990089003E04FF0FF3009900890C24594
:1022900003DB01200790069003E04FF0FF3007902A
:1022A0000690AC420CDB00200990069026462046A2
:1022B00004EBD071491009B20591049503940BE029
:1022C0000020089007902E46284605EBD071491053
:1022D00009B20591049403950020029027E0594625
:1022E000199BDDE90A2000F0DFF9DDE9041008445C
:1022F00000B205900598B0420CDB0598801B00B237
:102300000590099858440FFA80FB07990A980844E9
:1023100000B20A90089858440FFA80FB06990A9870
:10232000084400B20A900298401C00B20290DDE915
:1023300002018842D3DD00BF8AE72DE9F8438146D8
:102340000F4690461D46DDE9086405B10EB9BDE8AB
:10235000F8832B464246394648460094FFF7FEFE76
:102360003346424639464846009400F0C9F908EB26
:102370000600401E02B22B46394648460094FFF73D
:10238000EDFE7819401E01B233464246484600949D
:1023900000F0B6F900BFDAE72DE9FF4F83B00C4635
:1023A00015461E46DDE9107A4FF07F4BBAF1000F5B
:1023B00004D1DFF884804FEAF87903E0DFF87C800D
:1023C000DFF8749033462A462146CDE9007B039816
:1023D000FFF7B3FFB01E03B2681C02B2601C01B26B
:1023E000CDF800800398FFF7B9FEF81E03B2681C11
:1023F00002B2601C01B2CDF80080039800F080F9B1
:10240000B01E03B2E819801E02B2601C01B2CDF802
:1024100000900398FFF7A2FE381F03B2A019801E98
:1024200001B2A81C02B2CDF80090039800F068F940
:1024300007B0BDE8F08F0000AAAAAAFF555555FFC6
:102440002DE9FC478246884691461D46DDE90B474B
:102450000A9E06EBD671B4EB610F05DB304606EB46
:10246000D0714910491E0CB205EBD571B4EB610F68
:1024700005DB284605EBD0714910491E0CB2002C33
:1024800073D0022000FB145003B208EB040001B229
:102490004A4650460097FFF761FE022000FB146099
:1024A00003B209EB040002B208EB0500401E01B2C2
:1024B0005046009700F024F9022000FB145003B2AC
:1024C00009EB0600401E02B208EB040001B25046C0
:1024D0000097FFF743FE022000FB146003B209EBF4
:1024E000040002B241465046009700F009F901206D
:1024F000CDE9000709EB040002B208EB040001B2C9
:1025000023465046FFF785FB0220CDE9000709EB83
:10251000040002B208EB0500001B401E01B2234676
:102520005046FFF776FB0820CDE9000709EB0600CF
:10253000001B401E02B208EB040001B223465046C5
:10254000FFF767FB0420CDE9000709EB0600001B3D
:10255000401E02B208EB0500001B401E01B22346DC
:102560005046FFF756FB08E0FFE72B464A46414638
:102570005046CDE90067FFF7E0FEBDE8FC870000AC
:102580002DE9FC4781460C464FF0000AB4F904805F
:10259000B4F904004000032190FBF1F005B20020E3
:1025A000CDE90050B4F90220B4F900104346484682
:1025B000FFF7F2FE3749281F00B2CDE90001A8F16C
:1025C000040003B26088801C02B22088801C01B223
:1025D0004846FFF7F8FC0020CDE900506088E3880A
:1025E0001844401B02B2B4F9001043464846FFF7B6
:1025F000D3FE2849281F00B2CDE900016088B4F855
:1026000006C06044401B801C02B2A8F1040003B263
:102610002088801C01B24846FFF7D5FCB4F90600BB
:10262000022101FB150007B21A48CDE90070B4F988
:1026300004306088284402B2B4F900104846FFF71D
:10264000C2FCD4E90310884213D220697843E168C0
:10265000B0FBF1F006B2062E00DA0626B81B61695F
:102660004843D4E90312891AB0FBF1F00FFA80FA5B
:1026700000E03E460020CDE90060B4F904306088F7
:102680002844504402B2B4F900104846FFF784FED3
:10269000BDE8FC87848484FF10B5044618212046D9
:1026A000FDF725FE10BD0000F8B504460D461646A0
:1026B0001F46B4F90200B0420BDCB4F90600B04288
:1026C00007DDB4F90000A84203DCB4F90400A84215
:1026D00000DCF8BD094800970069008B301A03B28E
:1026E00006480069C08A281A02B204480169D0F875
:1026F00028C0001DE04700BFEBE7000004180120E0
:102700002DE9FC4104460F4615461E46DDF82080A3
:10271000B4F90400B8420CDDB4F90000B84208DC9A
:10272000B4F90600A84204DBA819B4F902108842E3
:1027300001DABDE8FC81B4F90200A84205DD608839
:10274000401B301A06B2B4F90250A819B4F90610A9
:10275000884202DDE088401B06B20A48CDE90068E5
:102760000069008B281A03B206480069C08A381A2B
:1027700002B204480169D0F840C0001DE04700BF24
:10278000D7E70000041801202DE9FF478CB08146EF
:1027900088461C461C2102A8FDF7A9FD608910B9D6
:1027A00098F804006081CDF820800794207BC0F366
:1027B000C00004900E980990002209A902A80FF009
:1027C00039FBBDF90C00B4F9041088420DDD207B03
:1027D00000F0020030B1224640460E990FF0ECFAAC
:1027E0000E9002E0A088ADF80C00B4F90060B4F9D6
:1027F0000250207A00F0100050B1B4F90610BDF973
:102800000E20881A00EBD07105EB61010DB209E0D2
:10281000207A00F0200028B1E088BDF80E10401AA0
:10282000284405B2B4F90200A84201DDB4F902500F
:10283000208B281A05B2207B00F0040070B10498A8
:1028400060B1BDF90E00B4F90610884206DD60885B
:10285000E1880844BDF80E10401A05B20E980990A0
:102860005DE0B4F90060207A00F0020050B1B4F9E4
:102870000410BDF90C20881A00EBD07106EB610141
:102880000EB209E0207A00F0040028B1A088BDF85B
:102890000C10401A304406B229E0069800B926E030
:1028A0000698401E0690B9F90400B04200DA1EE016
:1028B0000B980D2802D00B980A2801D1202000E0A7
:1028C0000B980B9040460B990FF035FA071E00D17C
:1028D0000DE03346224641464846CDE900570BF00D
:1028E000C9FF387839790844304406B200BFBAF1DC
:1028F0000000AAF1010A06D00AAA0BA90EA804F04A
:1029000057FF0028C9D16089284405B2207B00F018
:10291000040018B1B9F90600A84200DA07E0012264
:102920000EA902A80FF086FAB0F1000A99D100BFF3
:1029300010B0BDE8F08700002DE9F04104460E46D6
:10294000002700BF3CB116492069884203D11548D1
:1029500090F8EC0040B940F2172213A11DA00BF033
:102960009DFC0020BDE8F08100BF01210C200CF08F
:1029700091FD054695B1AE60294604F164000CF066
:102980004BFBB4F85C00401C00B2A4F85C0020468D
:102990000BF013FE20460DF0A7FD01273846E1E7B6
:1029A00038530108041801202E2E5C30302D475575
:1029B000495F4C4942524152595C7769646765747A
:1029C000735C6775695F64726F70646F776E2E6396
:1029D0000000000041737365727420706172616D54
:1029E000206661696C656420696E2066696C65208B
:1029F000257320616E64206C696E652025640D0A64
:102A0000000000002DE9FF4F91B00446164699469C
:102A100012980B2870D008DC01280FD004281CD095
:102A200006286AD0082869D18EE20C2867D00E28C3
:102A30007ED011287DD01528F5D1A3E24FF0FF30CC
:102A400024F85E0F1E20E081207C40F004002074FA
:102A50005E3C012015B0BDE8F08FB04620460DF079
:102A600049F9074620460DF0E3F9109020460DF095
:102A700011FC054620460DF079FA0F9094F86E008F
:102A800000F00100002865D00DA80EAB0FAA10A918
:102A9000009020460EF09FF80120BDF934102B461F
:102AA000CDE90010BDF9402039464046FFF774FCDF
:102AB000206D10B1206D006808E02069006918B130
:102AC00020690069006801E04FF07F40BDF83410D4
:102AD000091F09B2CDE90010281F03B2BDF8380064
:102AE000801C02B2B81C01B24046FFF76CFA206DA0
:102AF00030B1206D00680CE0E7E1D0E14BE2EDE1A0
:102B00002069006918B120690069006801E04FF090
:102B10007F40BDF83C10091F09B2CDE90010281F05
:102B200003B2BDF84000801C02B2B81C01B201E043
:102B3000F9E10FE24046FFF746FA0120BDF93C10EB
:102B40002B46CDE90010BDF9402039464046FFF73D
:102B500023FC30E0BDF940000E90BDF93C000D9023
:102B60000020BDF93C102B46CDE90010BDF94020F6
:102B700039464046FFF710FC206D10B1206D00680B
:102B800008E02069006918B120690069006801E067
:102B90004FF07F40BDF83C10091F09B2CDE900108D
:102BA000281F03B2BDF84000801C02B2B81C01B25D
:102BB0004046FFF708FAB4F95E0000284DDBE06BF1
:102BC000C0B306A8FFF7BCF8002104F164000CF0C4
:102BD00035FA83464FF0000A08E0594600200CF011
:102BE0002DFA83460AF101000FFA80FAB4F95E006B
:102BF0005045F2DCF81C00B2ADF81800BDF8380002
:102C0000C01C00B2ADF81A00A81F00B2ADF81C003D
:102C1000BDF83400801F00B2ADF81E0011208DF801
:102C20002000BDF81C00ADF82600206D18B1206D05
:102C3000406809E011E02069006918B12069006965
:102C4000406801E04FF07F400A90DBF8082006ABB7
:102C50004046E16BFFF798FD00BF94F86E0000F06E
:102C6000010088B394F86E0000F0020060B35C3499
:102C7000208A281A05B207A8FFF70EFD7819401E12
:102C800000B2ADF81C00BDF84000401C00B2ADF829
:102C90001E00208AADF82000BDF83C00801E00B266
:102CA000ADF8220000208DF82400B4F904000C9047
:102CB00034F95C090A9020460EF07CF90B9007A9C4
:102CC0004046FFF75DFC02E0FFE7681E05B294F89E
:102CD0006E0000F00100002870D0E06B0028FBD0EF
:102CE000606E0028F8D00020049005A920460EF060
:102CF0001BF9834606A8FFF723F8381D00B2ADF88C
:102D00001800BDF84000801C00B2ADF81A00A81FE2
:102D100000B2ADF81C000FFA8BF0ADF81E001120C8
:102D20008DF82000BDF81C00ADF82600B8F90600AB
:102D30000390B8F90600BDF94010BDF93C201144DC
:102D4000884207DDBDF84000BDF83C10084400B2E1
:102D5000A8F8060000200490002104F164000CF0A3
:102D60006DF982468BE0B4F960100498814200DD71
:102D70007CE0B4F95E10049881425AD194F838008E
:102D800000F0100070B1206D10B1206D006918E0E6
:102D90002069006918B120690069006911E04FF0ED
:102DA0007F400EE0206D10B1206D406909E0206980
:102DB000006920B120690069406902E06DE04FF0D0
:102DC0007F40BDF91E10594502DABDF91E1000E022
:102DD000594609B2CDE90010E81E03B2BDF91A2028
:102DE000B81C01B24046FFF7EEF894F8380000F046
:102DF000100070B1206D10B1206D806817E020695F
:102E0000006918B120690069806810E04FF07F40C8
:102E10000DE0206D10B1206DC06808E020690069E8
:102E200018B120690069C06801E04FF07F400A9046
:102E30000EE0206D10B1206D406808E02069006947
:102E400018B120690069406801E04FF07F400A90A6
:102E5000DAF8082006AB4046E16BFFF795FCBDF8B9
:102E60001A00584400B2ADF81A0000BF51460020C5
:102E70000CF0E4F882460498401C80B20490BAF149
:102E8000000F06D0BDF91A00B8F9061088427FF786
:102E90006AAF0398A8F8060000BF0120DAE505E054
:102EA00000BF28460CF0FEFA002500BF002104F107
:102EB00064000CF0C3F80746394604F164000CF0D6
:102EC000DFF9051EECD10120C4E53146888A334A7A
:102ED0001080002089F800000120BBE53746E06B38
:102EE000F8B1002120460EF01FF80FFA80F8B88ADA
:102EF0002A490988081A05B2002D01DB284600E09E
:102F0000684240450CDD002D01DD012001E04FF05D
:102F1000FF30014620460EF09EFEB88A1F49088009
:102F200000BF012096E5354694F86E0000F00100E0
:102F300020B9012120460EF074F803E0294620460E
:102F40000EF0F3F8012085E5002120460EF069F827
:102F500001207FE535462878022807D10121204647
:102F60000DF0BDFE002089F8000009E02878012856
:102F700006D1811E20460DF0B2FE002089F8000027
:102F8000012067E5B6F9001020460DF0A8FE0120EB
:102F900089F800005EE500205CE50000FC030120EC
:102FA0002DE9F04F87B004460D4616461F46DDE971
:102FB00012ABDDE9108933462A46214604488DE8E4
:102FC000800F0CF0B5FC0690069807B0BDE8F08FB6
:102FD0003853010870B504460D46002600BF3CB1C9
:102FE00019492069884203D1184890F8EC0038B993
:102FF00040F22D2216A121A00BF050F9002070BD47
:1030000000BF94F86E0000F00100D8B994F86E008B
:1030100000F0080040B13DB994F86E0000F00800DF
:1030200084F86E0001260DE094F86E0000F00800B0
:1030300040B9012D06D194F86E0040F0080084F8E4
:103040006E0001263046DAE73853010804180120E3
:103050002E2E5C30302D4755495F4C49425241522B
:10306000595C776964676574735C6775695F6472DE
:103070006F70646F776E2E6300000000417373659C
:10308000727420706172616D206661696C65642084
:10309000696E2066696C6520257320616E64206C02
:1030A000696E652025640D0A0000000070B50446B5
:1030B0000D4600BF3CB119492069884203D1184828
:1030C00090F8EC0038B94FF41D7216A120A00BF057
:1030D000E5F8002070BD00BF75B194F86E0000F0F7
:1030E000040048B994F86E0040F0040084F86E00C3
:1030F00020460DF0F9F90EE06DB994F86E0000F07D
:10310000040040B194F86E0020F0040084F86E00D2
:1031100020460DF0E9F90120DCE7000038530108F2
:10312000041801202E2E5C30302D4755495F4C4944
:1031300042524152595C776964676574735C677584
:10314000695F64726F70646F776E2E6300000000B9
:1031500041737365727420706172616D206661697C
:103160006C656420696E2066696C6520257320613A
:103170006E64206C696E652025640D0A00000000F5
:1031800070B504460D46002600BF3CB11C492069BD
:10319000884203D11B4890F8EC0038B940F28622EF
:1031A00019A124A00BF07AF8002070BD00BF94F89C
:1031B0006E0000F0040000BB7DB194F86E0000F0DA
:1031C000020050B994F86E0040F0020084F86E00DE
:1031D00020460DF089F901260FE075B994F86E00CC
:1031E00000F0020048B194F86E0020F0020084F86C
:1031F0006E0020460DF078F901263046D5E7000034
:1032000038530108041801202E2E5C30302D47550C
:10321000495F4C4942524152595C77696467657411
:10322000735C6775695F64726F70646F776E2E632D
:103230000000000041737365727420706172616DEB
:10324000206661696C656420696E2066696C652022
:10325000257320616E64206C696E652025640D0AFB
:10326000000000002DE9F04F89B004468B469146DE
:103270009A4600BF3CB177492069884203D176481D
:1032800090F8EC0040B9532274A17FA00BF006F82F
:10329000002009B0BDE8F08F00BFBBF1080F7DD062
:1032A00009DCBBF1010F0DD0BBF1040F11D0BBF154
:1032B000070F74D1B7E0BBF10B0F71D0BBF1110F49
:1032C000F7D1B9E0102084F85900012084F85A00A1
:1032D000DFE7CDF8209020460CF00CFD0546204697
:1032E0000CF0A6FD064620460CF0D4FF074620460B
:1032F0000CF03CFE804601203B4632462946CDE993
:1033000000800898FFF748F8206D10B1206D006824
:1033100008E02069006918B120690069006801E0CF
:103320004FF07F40A8F1040109B2CDE90010381F29
:1033300003B2B01C02B2A81C01B20898FEF743FE0B
:1033400094F8380000F01000D8B1206D10B1206D55
:10335000806808E02069006918B120690069806808
:1033600001E04FF07F40A8F1060109B2CDE900105D
:10337000B81F03B2F01C02B2E81C01B20898FEF7B5
:10338000DCFF20460DF0F2F878B301A8FEF7D8FC78
:10339000681D00B2ADF80400701D02E045E056E083
:1033A00045E000B2ADF80600A7F10A0000B2ADF8A2
:1033B0000800A8F10A0000B2ADF80A0094F85A001B
:1033C00094F8591008438DF80C00BDF80800ADF8CA
:1033D0001200206D10B1206D406809E0206900697D
:1033E00020B120690069406802E01AE04FF07F4098
:1033F00005909DF8100040F00A008DF8100094F838
:10340000580000F0010028B19DF8100040F00400C1
:103410008DF8100001ABD4E90F120898FFF7B4F94A
:1034200000BF012035E7012033E7012031E700200C
:103430008AF8000001202CE74D46294620460DF071
:10344000EEF810B100208AF80000012021E70020EA
:103450001FE7000038520108041801202E2E5C30AE
:10346000302D4755495F4C4942524152595C77696A
:1034700064676574735C6775695F656469747465B6
:1034800078742E63000000004173736572742070BD
:103490006172616D206661696C656420696E206689
:1034A000696C6520257320616E64206C696E6520EF
:1034B00025640D0A000000002DE9F04F87B0044696
:1034C0000D4616461F46DDE912ABDDE9108933468D
:1034D0002A46214604488DE8800F0CF029FA069010
:1034E000069807B0BDE8F08F3852010870B5044661
:1034F0000D46012600BF3CB115492069884203D121
:10350000144890F8EC0030B9BE2213A11DA00AF0B7
:10351000C5FE002070BD00BF5DB194F8580000F0FA
:10352000010030B994F8580040F0010084F85800C8
:103530000BE055B994F8580000F0010028B194F858
:10354000580020F0010084F858003046E2E70000FF
:1035500038520108041801202E2E5C30302D4755BA
:10356000495F4C4942524152595C776964676574BE
:10357000735C6775695F65646974746578742E63DC
:103580000000000041737365727420706172616D98
:10359000206661696C656420696E2066696C6520CF
:1035A000257320616E64206C696E652025640D0AA8
:1035B0000000000070B504460D4600BF3CB10D4947
:1035C0002069884203D10C4890F8EC0030B9CC2235
:1035D0000AA115A00AF062FE002070BD00BF94F899
:1035E0005900A84204D084F8595020460CF0A0FF9E
:1035F0000120F2E738520108041801202E2E5C3019
:10360000302D4755495F4C4942524152595C7769C8
:1036100064676574735C6775695F65646974746514
:1036200078742E630000000041737365727420701B
:103630006172616D206661696C656420696E2066E7
:10364000696C6520257320616E64206C696E65204D
:1036500025640D0A0000000070B504460D4600BF49
:103660003CB10E492069884203D10D4890F8EC0026
:1036700038B94FF4BB720BA114A00AF00FFE002062
:1036800070BD00BF294604F158000BF020FD214613
:1036900028460BF01CFD0120F2E70000F051010864
:1036A000041801202E2E5C30302D4755495F4C49BF
:1036B00042524152595C776964676574735C6775FF
:1036C000695F67726170682E630000004173736503
:1036D000727420706172616D206661696C6564202E
:1036E000696E2066696C6520257320616E64206CAC
:1036F000696E652025640D0A000000002DE9FF4F6A
:103700002DED0A8B8BB0044616980B2875D006DC7D
:1037100001280BD0042833D006286FD1F5E30C28FC
:103720006DD00D286CD01028F7D1EFE30520A4F858
:10373000600005216220015364200153662001537B
:10374000B2EE040A84ED1C0ABAEE040A84ED1B0AE8
:10375000B2EE040A84ED1E0ABBEE040A84ED1D0AD3
:1037600020460BF08BFB082084F868000A2084F8C0
:10377000690001200BB0BDEC0A8B04B0BDE8F08FEE
:10378000179DB4F960B0B4F962000990B4F964000F
:103790000890B4F9667020460CF0ACFA80462046DA
:1037A0000CF046FB079020460CF074FD0690204676
:1037B0000CF0DCFB8246206D10B1206D006808E043
:1037C0002069006918B120690069006801E04FF0C4
:1037D0007F403B46CDE900A041462846079AFEF7C8
:1037E000F2FB206D10B1206D00680CE020690069CB
:1037F00038B120690069006805E002E3F4E31CE3E6
:10380000F3E34FF07F40CDE900B00698C21B099862
:10381000101A03B208EB070001B22846079AFEF718
:10382000D2FB206D10B1206D006808E020690069AE
:1038300018B120690069006801E04FF07F400899E5
:10384000CDE900100698A0EB070C0998ACEB00003E
:1038500003B2079800EB0A0CACEB010002B208EBD4
:10386000070001B22846FEF7AEFB206D10B1206DB7
:10387000006808E02069006918B1206900690068E3
:1038800001E04FF07F40CDE900A0069808EB000270
:103890000998101A01B22846099B079AFEF793FB74
:1038A000206D10B1206D406808E02069006918B1F2
:1038B00020690069406801E04FF07F40AAEB0B02ED
:1038C0000899511A09B2CDE900100698A0EB070C2F
:1038D0000998ACEB000003B20798584402B208EB19
:1038E000070001B22846FEF76EFB206D10B1206D77
:1038F000806808E02069006918B120690069806863
:1039000001E04FF07F40CDE900A041462846DDE9C7
:103910000632FEF712FD94F86800E0B3AAEB0B0143
:103920000898081A00EE100AF8EEC00A94F8680029
:1039300000EE100AB8EE400A80EE801AB0EE418A1E
:103940000120059032E0206D10B1206DC06808E0C4
:103950002069006918B120690069C06801E04FF072
:103960007F4000900798584400EE100AF8EEC00A15
:103970009DED050AB8EE400A40EE080ABDEEE00AE9
:1039800010EE100A02B20698A0EB070C0998ACEBF7
:10399000000003B200E00FE008EB070001B2284688
:1039A000FEF7DCFB0598401CC0B2059094F8681047
:1039B00005988142C7DC00BF94F86900F0B306980F
:1039C000C11B0998081A00EE100AF8EEC00A94F814
:1039D000690000EE100AB8EE400A80EE801AB0EEE0
:1039E000418A0120059031E0206D10B1206DC06842
:1039F00008E02069006918B120690069C06801E029
:103A00004FF07F40009008EB070000EE100AF8EE40
:103A1000C00A9DED050AB8EE400A40EE080ABDEE68
:103A2000E00A10EE100A01B2AAEB0B0C0898ACEBFE
:103A3000000003B20798584402B200E00CE02846A8
:103A4000FEF75EFE0598401CC0B2059094F8691020
:103A500005988142C8DC00BFA06D002874D094EDA9
:103A6000200AD4ED1F0A30EE600AB0EE40CA94ED91
:103A7000220AD4ED210A30EE600AF0EE40CA069820
:103A8000C11B0998081A00EE100AB8EEC00AC0EE71
:103A90000C0AB0EE60AAAAEB0B010898081A00EE17
:103AA000100AB8EEC00AC0EE2C0AB0EE60BA079851
:103AB00000EB0A010898081A401E00B208EE900AAE
:103AC00008EB070000B209EE900A286803906868C6
:103AD000049008EB0700B5F90010884203DD08EBFD
:103AE000070000B22880069808EB00010998081A20
:103AF000B5F90410884206DA069808EB0001099827
:103B0000081A00B2A88007985844B5F902108842F4
:103B100003DD0798584400B26880079800EB0A015B
:103B20000898091AB5F90600814206DA079800EBF1
:103B30000A010898081A00B2E880002104F1580030
:103B40000BF038FB0A9051E159E10A9810B10A983C
:103B5000806800E000200646D6F810903069029098
:103B6000307EE0BBD4ED1F0AB8EEE90A00EECA0AC7
:103B7000B0EE408AB06830F9190000EE100AB8EED5
:103B8000C00AD4ED210A70EE600AB8EEE80A00EE31
:103B9000CB0AF0EE40BA09F101008146F168884293
:103BA00001D14FF00009B5F9040000EE100AB8EE9B
:103BB000C00AB4EEC80AF1EE10FA14D396ED030A67
:103BC000F8EE400AB0EE480A00EE8A0AB5F90000A5
:103BD00000EE900AF8EEE00AB4EEE00A00E07AE0C7
:103BE000F1EE10FA00D2FCE066E038EE0A0AB0EE20
:103BF000409AB06830F9190000EE100AB8EEC00A19
:103C0000D4ED210A70EE600AB8EEE80A00EECB0AA5
:103C1000F0EE40AAB5F9000000EE100AB8EEC00AB6
:103C2000B4EEC80AF1EE10FA0AD9B5F9000000EEB8
:103C3000100AB8EEC00AB4EEC90AF1EE10FA2FD895
:103C4000B5F9040000EE100AB8EEC00AB4EEC80AD6
:103C5000F1EE10FA0ADCB5F9040000EE100AB8EE35
:103C6000C00AB4EEC90AF1EE10FA19DDBDEEEA0A97
:103C700010EE101A09B27069BDEEC90ACDE9001044
:103C800010EE100A03B2BDEEEB0A10EE100A02B2FB
:103C9000BDEEC80A10EE100A01B22846FEF7A2FADD
:103CA000B0EE498AF0EE6ABA09F101008146F16886
:103CB000884201D14FF00009029881450AD0B5F938
:103CC000040000EE100AB8EEC00AB4EEC80AF1EE25
:103CD00010FA8ADA84E0307E01287DD14FEA49006B
:103CE000B16831F9100000EE100AB8EEC00AD4ED48
:103CF0001F0A70EE600AB8EEE90A00EE8A0AB0EE1A
:103D0000408A4FEA4900401CB16831F9100000EECA
:103D1000100AB8EEC00AD4ED210A70EE600AB8EEBF
:103D2000E80A00EECB0AF0EE40BA09F10100814644
:103D3000F168884201D14FF000094CE04FEA490098
:103D4000B16831F9100000EE100AB8EEC00AD4EDE7
:103D50001F0A70EE600AB8EEE90A00EE8A0AB0EEB9
:103D6000409A4FEA4900401CB16831F9100000EE5A
:103D7000100AB8EEC00AD4ED210A70EE600AB8EE5F
:103D8000E80A00EECB0AF0EE40AABDEEEA0A10EE19
:103D9000101A09B27069BDEEC90ACDE9001010EE23
:103DA000100A03B2BDEEEB0A10EE100A02B2BDEE2D
:103DB000C80A10EE100A01B22846FEF713FAB0EE58
:103DC000498AF0EE6ABA09F101008146F168884239
:103DD00001D14FF0000900E002E002988145ADD129
:103DE00000BF00200A990BF0E5F90A900A98002814
:103DF0007FF4ABAE039828600498686000BF012090
:103E0000B8E4179A002100BF0FE002F1100030F86B
:103E10001100894B23F8110002F1140030F8110051
:103E2000864B23F81100481CC1B210788842ECDCA4
:103E300000231898037001209CE4179D287801281E
:103E400065D1B5F91070B5F9148020460CF022FA4E
:103E5000B4F96610411AB4F96200081A00EE100AAB
:103E6000B8EEC00AD4ED200A94ED1F1A70EEC10A14
:103E700080EE201AF0EE418A6F48B0F90000381A3F
:103E800000EE100AB8EEC00AC0EE280AB0EE608A52
:103E900094ED1F0A30EE480A84ED1F0A94ED200AC3
:103EA00030EE480A84ED200A20460CF05FF8B4F9A1
:103EB0006010411AB4F96400081A00EE100AB8EE56
:103EC000C00AD4ED220A94ED211A70EEC10A80EEE8
:103ED000201AF0EE418A5948B0F90000A8EB000022
:103EE00000EE100AB8EEC00AC0EE280AB0EE608AF2
:103EF00094ED210A30EE080A84ED210A94ED220A9D
:103F000030EE080A84ED220A54E079E070E0287867
:103F100002284FD1B5F9160002EE100AB8EEC22AF7
:103F2000F0EE421AB5F9120002EE100AB8EEC22AFB
:103F3000B0EE421AB5F9140002EE100AB8EEC22A29
:103F4000F0EE420AB5F9100002EE100AB8EEC22AED
:103F5000B0EE420A09A90AA801F0BEFF95ED070AD2
:103F6000D5ED080A80EE201AB0EE419A20460BF0FB
:103F7000FDFF00EE100AB8EEC00ADDED090A80EE82
:103F8000801AF0EE419A20460CF084F900EE100AF7
:103F9000B8EEC00ADDED0A0A80EE801AB0EE41AA42
:103FA000B0EE691AF0EE4A0AB0EE490A20460AF06D
:103FB00076FF00BF00260FE005F1100030F8160074
:103FC0001D4921F8160005F1140030F816001B49B0
:103FD00021F81600701CC6B22878B042ECDC2046EE
:103FE0000CF082FA01200BE723E0FFE7012007E74E
:103FF00020460AF043FF20460CF076FA0120FFE647
:10400000002104F158000BF0D5F805460DE00DB184
:10401000A86800E000200646214630460BF06AF80A
:10402000294600200BF0C6F80546002DEFD10120EF
:10403000E6E60020E4E60000F2030120F60301209A
:104040002DE9F04F87B004460D4616461F46DDE9C0
:1040500012ABDDE9108933462A46214604488DE833
:10406000800F0BF065FC0690069807B0BDE8F08F56
:10407000F051010870B504460E46154600BF1CB14C
:10408000174890F8EC0038B94FF4017215A11FA041
:104090000AF004F9002070BD00BF207E20B921691C
:1040A000A06820F811500DE0207E01280AD1206977
:1040B0004000A16821F8106020694000401CA16800
:1040C00021F810502069401C2061D4E90310884277
:1040D00001D300202061204607F0ACFB0120DAE785
:1040E000041801202E2E5C30302D4755495F4C4975
:1040F00042524152595C776964676574735C6775B5
:10410000695F67726170682E6300000041737365B8
:10411000727420706172616D206661696C656420E3
:10412000696E2066696C6520257320616E64206C61
:10413000696E652025640D0A0000000070B5064612
:104140000D4601211C200BF0A5F90446ACB12676E2
:10415000E5602EB9680001210BF09CF9A06004E035
:10416000A80001210BF096F9A060A06828B900BF53
:1041700020460BF097F9002400BF204670BD0000D8
:1041800010B52DED028B0446B0EE408A00BF3CB165
:1041900010492069884203D10F4890F8EC0048B9D3
:1041A00040F2AF120DA117A00AF078F80020BDEC84
:1041B000028B10BD00BF94ED1C0AB4EE480AF1EE6C
:1041C00010FA04D084ED1C8A20460CF08DF90120F1
:1041D000EDE70000F0510108041801202E2E5C309C
:1041E000302D4755495F4C4942524152595C7769DD
:1041F00064676574735C6775695F67726170682E68
:104200006300000041737365727420706172616DA8
:10421000206661696C656420696E2066696C652042
:10422000257320616E64206C696E652025640D0A1B
:104230000000000010B52DED028B0446B0EE408A60
:1042400000BF3CB110492069884203D10F4890F863
:10425000EC0048B940F2C9120DA117A00AF01EF8EF
:104260000020BDEC028B10BD00BF94ED1E0AB4EE21
:10427000480AF1EE10FA04D084ED1E8A20460CF0B4
:1042800033F90120EDE70000F05101080418012086
:104290002E2E5C30302D4755495F4C4942524152D9
:1042A000595C776964676574735C6775695F677289
:1042B0006170682E63000000417373657274207032
:1042C0006172616D206661696C656420696E20664B
:1042D000696C6520257320616E64206C696E6520B1
:1042E00025640D0A0000000010B52DED028B044678
:1042F000B0EE408A00BF3CB110492069884203D12A
:104300000F4890F8EC0048B94FF4D1720DA117A0F6
:1043100009F0C4FF0020BDEC028B10BD00BF94ED7E
:104320001B0AB4EE480AF1EE10FA04D084ED1B8AA1
:1043300020460CF0D9F80120EDE70000F05101080B
:10434000041801202E2E5C30302D4755495F4C4912
:1043500042524152595C776964676574735C677552
:10436000695F67726170682E630000004173736556
:10437000727420706172616D206661696C65642081
:10438000696E2066696C6520257320616E64206CFF
:10439000696E652025640D0A0000000010B52DED42
:1043A000028B0446B0EE408A00BF3CB11049206940
:1043B000884203D10F4890F8EC0048B94FF4DE7200
:1043C0000DA117A009F06AFF0020BDEC028B10BD03
:1043D00000BF94ED1D0AB4EE480AF1EE10FA04D0C5
:1043E00084ED1D8A20460CF07FF80120EDE70000E7
:1043F000F0510108041801202E2E5C30302D475555
:10440000495F4C4942524152595C7769646765740F
:10441000735C6775695F67726170682E6300000086
:1044200041737365727420706172616D2066616999
:104430006C656420696E2066696C65202573206157
:104440006E64206C696E652025640D0A0000000012
:1044500010B52DED048B0446B0EE408AF0EE608A74
:10446000B0EE419A00BF3CB10E492069884203D1A9
:104470000D4890F8EC0048B940F2E1120BA115A0EC
:1044800009F00CFF0020BDEC048B10BD00BFB0EEA6
:10449000491AF0EE680AB0EE480A20460AF0FFFC1E
:1044A0000120F0E7F0510108041801202E2E5C30A5
:1044B000302D4755495F4C4942524152595C77690A
:1044C00064676574735C6775695F67726170682E95
:1044D0006300000041737365727420706172616DD6
:1044E000206661696C656420696E2066696C652070
:1044F000257320616E64206C696E652025640D0A49
:104500000000000010B5044600BF3CB10C49206912
:10451000884203D10B4890F8EC0038B94FF4EB72A5
:1045200009A113A009F0BAFE002010BD00BF20466B
:104530000AF0A4FC20460BF0D7FF0120F5E70000AD
:10454000F0510108041801202E2E5C30302D475503
:10455000495F4C4942524152595C776964676574BE
:10456000735C6775695F67726170682E6300000035
:1045700041737365727420706172616D2066616948
:104580006C656420696E2066696C65202573206106
:104590006E64206C696E652025640D0A00000000C1
:1045A00010B5044600BF1CB10C4890F8EC0030B9BF
:1045B00058220BA113A009F071FE002010BD00BF0E
:1045C00006480068A0600C2221461A48FCF729FD25
:1045D00008B10120F2E70020F0E7000004180120F4
:1045E0002E2E5C30302D4755495F4C494252415286
:1045F000595C696E7075745C6775695F696E70751A
:10460000742E630041737365727420706172616D02
:10461000206661696C656420696E2066696C65203E
:10462000257320616E64206C696E652025640D0A17
:1046300000000000081B012010B5044600BF1CB19B
:104640000C4890F8EC0030B944220BA113A009F0FB
:1046500025FE002010BD00BF06480068E060102263
:1046600021461A48FCF7DDFC08B10120F2E70020E2
:10467000F0E70000041801202E2E5C30302D475545
:10468000495F4C4942524152595C696E7075745C85
:104690006775695F696E7075742E63004173736529
:1046A000727420706172616D206661696C6564204E
:1046B000696E2066696C6520257320616E64206CCC
:1046C000696E652025640D0A000000004C1A012067
:1046D0007FB5F0213448FBF70AFE0120039003ABBD
:1046E000314A20320021A2F11C0001F059FB2E4872
:1046F000016A001D88472C484069002846D00024E4
:104700001FE0002128488069C4EBC40200EB82004E
:10471000C18225488069C4EBC40200EB820001839A
:10472000214881888069C4EBC40200EB8200418289
:104730001D48C1888069C4EBC40200EB82008182FD
:10474000641C19484069A042DBD817488169C160E0
:10475000816901614FF0FF310022B0F90600CDE917
:10476000012100901048B0F90430006942680E48F9
:104770000169056B001DA8470B484069012804D951
:10478000094880691C300849086102E0012004B032
:1047900070BD0AF0FDFB0120034981F8EC000BF02D
:1047A0009DFE0020F3E70000041801200949097F5D
:1047B00001F0010169B1002206498969C0EBC0031B
:1047C00001EB83010A720349C96921F00102014921
:1047D000CA617047041801202DE9F04F87B00446E4
:1047E0008A46934600BF3CB15A492069884203D1AA
:1047F000594890F8EC0040B94A2258A160A009F04D
:104800004DFD002007B0BDE8F08F00BFBAF1040FE6
:104810006FD1CDF818B020460BF06CFA0746204651
:104820000BF006FB804620460BF034FD0546204683
:104830000BF09CFB064694F8590000F00100F0B123
:10484000206D10B1206D006808E02069006918B182
:1048500020690069006801E04FF07F400590206DFD
:1048600010B1206D806808E02069006918B12069E6
:104870000069806801E04FF07F4004901DE0206DEA
:1048800010B1206D406808E02069006918B1206906
:104890000069406801E04FF07F400590206D10B145
:1048A000206DC06808E02069006918B120690069BE
:1048B000C06801E04FF07F40049094F85800C8B9F8
:1048C000B11E09B20598CDE90010A81E03B208F187
:1048D000010002B2781C01B20698FDF774FB04983F
:1048E0002B4642463946CDE900600698FDF725FD86
:1048F0002BE02CE00598A946009005EBD9704010FC
:1049000003B206EBD67008EB600002B205EBD5707F
:1049100007EB600001B2CDE902560698FDF77EFA7A
:104920000498009005EBD970401003B206EBD670E6
:1049300008EB600002B205EBD57007EB600001B236
:10494000CDE902560698FDF733F901205AE7002019
:1049500058E7000060520108041801202E2E5C3038
:10496000302D4755495F4C4942524152595C776955
:1049700064676574735C6775695F6C65642E63005A
:1049800041737365727420706172616D2066616934
:104990006C656420696E2066696C652025732061F2
:1049A0006E64206C696E652025640D0A00000000AD
:1049B0002DE9F04F87B004460D4616461F46DDE947
:1049C00012ABDDE9108933462A46214604488DE8BA
:1049D000800F0AF0ADFF0690069807B0BDE8F08F93
:1049E0006052010870B504460D4600BF3CB118493D
:1049F0002069884203D1174890F8EC0030B9BD22F5
:104A000015A11EA009F04AFC002070BD00BF75B1C1
:104A100094F8590000F0010048B994F8590040F0AA
:104A2000010084F8590020460BF05EFD0EE06DB9E0
:104A300094F8590000F0010040B194F8590020F0BA
:104A4000010084F8590020460BF04EFD0120DCE700
:104A500060520108041801202E2E5C30302D47557D
:104A6000495F4C4942524152595C776964676574A9
:104A7000735C6775695F6C65642E63004173736571
:104A8000727420706172616D206661696C6564206A
:104A9000696E2066696C6520257320616E64206CE8
:104AA000696E652025640D0A0000000070B504469B
:104AB0000D4600BF3CB10D492069884203D10C4826
:104AC00090F8EC0030B98B220AA113A009F0E6FBA4
:104AD000002070BD00BF94F85800A84204D084F8AC
:104AE000585020460BF024FD0120F2E760520108E7
:104AF000041801202E2E5C30302D4755495F4C495B
:104B000042524152595C776964676574735C67759A
:104B1000695F6C65642E6300417373657274207005
:104B20006172616D206661696C656420696E2066E2
:104B3000696C6520257320616E64206C696E652048
:104B400025640D0A0000000010B5044600BF3CB10A
:104B50000D492069884203D10C4890F8EC0030B927
:104B6000B2220BA113A009F099FB002010BD00BFD9
:104B700094F8590080F0010084F8590020460BF0A9
:104B8000B3FC0120F2E70000605201080418012084
:104B90002E2E5C30302D4755495F4C4942524152D0
:104BA000595C776964676574735C6775695F6C6588
:104BB000642E630041737365727420706172616D5D
:104BC000206661696C656420696E2066696C652089
:104BD000257320616E64206C696E652025640D0A62
:104BE000000000002DE9F04104460E46002700BFFA
:104BF0003CB116492069884203D1154890F8EC0071
:104C000040B940F2A11213A11CA009F047FB0020FB
:104C1000BDE8F08100BF01210C200AF03BFC0546F5
:104C200095B1AE60294604F160000AF0F5F9B4F8D8
:104C30005800401C00B2A4F85800204609F072FC4D
:104C400020460BF051FC01273846E1E708530108E4
:104C5000041801202E2E5C30302D4755495F4C49F9
:104C600042524152595C776964676574735C677539
:104C7000695F6C697374626F782E6300417373654A
:104C8000727420706172616D206661696C65642068
:104C9000696E2066696C6520257320616E64206CE6
:104CA000696E652025640D0A000000002DE9FF4FA4
:104CB0008DB0044615460E980C287DD008DC0128DE
:104CC0000DD004281AD0062877D00B2876D17CE1A5
:104CD0000E2874D0112873D01528F7D10AE24FF0AE
:104CE000FF3024F85A0F1E20E081207C40F00200A3
:104CF00020745A3C012011B0BDE8F08F2F462046A9
:104D00000AF0F8FF814620460BF092F880462046D4
:104D10000BF0C0FA064620460BF028F98246012027
:104D2000334642464946CDE900A03846FDF734FBFC
:104D3000206D10B1206D006808E02069006918B18D
:104D400020690069006801E04FF07F40AAF104018A
:104D500009B2CDE90010301F03B208F1020002B21F
:104D600009F1020001B23846FDF72DF994F86A0006
:104D700000F0010028B307A8FDF78EFC5834208A04
:104D8000301A06B209EB0600401E00B2ADF81C0056
:104D900008F1010000B2ADF81E00208AADF8200035
:104DA000AAF1020000B2ADF8220000208DF8240024
:104DB000B4F904000C9005E010E1F0E0A4E132E168
:104DC00086E10BE034F958090A9020460CF0E0F82F
:104DD0000B9007A93846FDF7D3FB01E0701E06B221
:104DE000E06B002872D0206E0028FBD000200490D9
:104DF000002120460CF07EF8059006A8FCF7A0FFE5
:104E000009F1040000B2ADF8180008F1020000B288
:104E1000ADF81A00301F00B2ADF81C00059800B2C2
:104E2000ADF81E0011208DF82000BDF81C00ADF873
:104E30002600B7F906000390B7F9061008EB0A0040
:104E4000801E814204DD08EB0A00801E00B2F8805B
:104E500000200490002104F160000AF0EFF883467E
:104E60008EE0B4F95C100498814200DD7FE0B4F973
:104E70005A10049881425CD194F8380000F0100078
:104E800070B1206D10B1206D006917E020690069D4
:104E900018B120690069006910E04FF07F400DE013
:104EA000206D10B1206D406908E02069006918B1DB
:104EB00020690069406901E04FF07F40BDF91E2084
:104EC00005998A4203DABDF91E1001E065E00599F3
:104ED00009B2CDE90010F01E03B2BDF91A2009F1A4
:104EE000020001B23846FDF76EF894F8380000F081
:104EF000100070B1206D10B1206D806817E020693E
:104F0000006918B120690069806810E04FF07F40A7
:104F10000DE0206D10B1206DC06808E020690069C7
:104F200018B120690069C06801E04FF07F400A9025
:104F30000EE0206D10B1206D406808E02069006926
:104F400018B120690069406801E04FF07F400A9085
:104F5000DBF8082006AB3846E16BFDF715FCBDF821
:104F60001A100598084400B2ADF81A0000BF59465F
:104F700000200AF063F883460498401C80B2049035
:104F8000BBF1000F06D0BDF91A00B7F90610884230
:104F90007FF767AF0398F88000BF0120ABE605E01C
:104FA00000BF30460AF07EFA002600BF002104F15F
:104FB00060000AF043F80746394604F160000AF041
:104FC0005FF9061EECD1012095E62946888A4F4AF2
:104FD000108000221098027001208CE62F46E06BB2
:104FE000F8B1002120460BF085FF0FFA80F8B88A4F
:104FF00046490988081A06B2002E01DB304600E057
:10500000704240450CDD002E01DD012001E04FF033
:10501000FF30014620460CF0E6FDB88A3B49088087
:1050200000BF012067E62E464FF0000820460BF037
:1050300031F9814620460AF099FF824694F86A00C9
:1050400000F0010008B3B6F91000B4F96810A9EB3C
:105050000101884219DDB6F91400B4F968108842DC
:1050600005DA4FF0FF3120460CF0BDFD0BE0B6F93C
:105070001400B4F96810AAEB0101884203DD012194
:1050800020460CF0B0FD4FF00108B8F1000F1DD123
:10509000E06BD8B1002120460BF02CFF8346B6F917
:1050A000140090FBFBF087B2B4F95C003844B4F90B
:1050B0005810884209DCB4F85C00384401B220463C
:1050C0000CF09BFC20460BF00FFA00BF012012E60B
:1050D0002E463078022804D1012120460BF0C8FD6D
:1050E00006E03078012803D1811E20460BF0C0FD78
:1050F000012000E6B5F9001020460BF0B9FD0121B2
:10510000109801700120F6E50020F4E5FA03012073
:105110002DE9F04F87B004460D4616461F46DDE9DF
:1051200012ABDDE9108933462A46214604488DE852
:10513000800F0AF0FDFB0690069807B0BDE8F08FDF
:105140000853010870B504460D4600BF3CB119492B
:105150002069884203D1184890F8EC0038B94FF420
:10516000F57216A11FA009F099F8002070BD00BFCC
:1051700075B194F86A0000F0020048B994F86A002A
:1051800040F0020084F86A0020460BF0ADF90EE012
:105190006DB994F86A0000F0020040B194F86A001A
:1051A00020F0020084F86A0020460BF09DF90120EF
:1051B000DCE7000008530108041801202E2E5C30A3
:1051C000302D4755495F4C4942524152595C7769ED
:1051D00064676574735C6775695F6C697374626F2B
:1051E000782E630041737365727420706172616D13
:1051F000206661696C656420696E2066696C652053
:10520000257320616E64206C696E652025640D0A2B
:105210000000000070B504460D46002600BF3CB1FA
:105220001C492069884203D11B4890F8EC0038B92A
:105230004FF4FE7219A123A009F030F8002070BDD0
:1052400000BF94F86A0000F0020000BB7DB194F842
:105250006A0000F0010050B994F86A0040F00100C3
:1052600084F86A0020460BF03FF901260FE075B97B
:1052700094F86A0000F0010048B194F86A0020F048
:10528000010084F86A0020460BF02EF90126304612
:10529000D5E7000008530108041801202E2E5C30C9
:1052A000302D4755495F4C4942524152595C77690C
:1052B00064676574735C6775695F6C697374626F4A
:1052C000782E630041737365727420706172616D32
:1052D000206661696C656420696E2066696C652072
:1052E000257320616E64206C696E652025640D0A4B
:1052F000000000002DE9F04704460F4690464FF0AD
:10530000000900BF3CB11D492069884203D11C48F7
:1053100090F8EC0040B940F207221AA124A008F04E
:10532000BDFF0020BDE8F08700BFB4F85C20921CF0
:105330009100A06D0AF0BCF80646EEB1A665012109
:1053400010200AF0A7F80546B5B15834A188481CCA
:10535000A080206840F821500020A2882168583C95
:1053600041F82200EF60B8F1000F01DD404600E097
:10537000642028814FF001094846D3E7A45301086F
:10538000041801202E2E5C30302D4755495F4C49C2
:1053900042524152595C776964676574735C677502
:1053A000695F6C697374766965772E63000000002D
:1053B00041737365727420706172616D20666169FA
:1053C0006C656420696E2066696C652025732061B8
:1053D0006E64206C696E652025640D0A0000000073
:1053E00070B5044600BF3CB113492069884203D11F
:1053F000124890F8EC0038B940F22F2210A11BA0FF
:1054000008F04CFF002070BD00BF012110200AF001
:1054100041F805466DB1294604F1600009F0FCFD34
:10542000B4F86800401C00B2A4F86800204609F0F7
:105430000FF92846E7E70000A453010804180120EB
:105440002E2E5C30302D4755495F4C494252415217
:10545000595C776964676574735C6775695F6C69CB
:105460007374766965772E6300000000417373657D
:10547000727420706172616D206661696C65642070
:10548000696E2066696C6520257320616E64206CEE
:10549000696E652025640D0A000000002DE9FF4FAC
:1054A00091B00446164612980C2870D008DC0128EA
:1054B0000DD004281AD006286AD00B2869D1A3E29F
:1054C0000E2867D0112876D01528F7D1C4E34FF005
:1054D000FF3024F86A0F1E20A080A07940F002005F
:1054E000A0716A3C012015B0BDE8F08F374694F8F2
:1054F0003800C0F3C0100F9020460AF0FBFB804636
:1055000020460AF095FC824620460AF0C3FE8146FA
:1055100020460AF02BFD1090204609F099F80F98CC
:1055200048B3012110984B465246CDE9000141464F
:105530003846FCF731FF206D10B1206D006808E09F
:105540002069006918B120690069006801E04FF026
:105550007F401099091F09B2CDE90010A9F104009C
:1055600003B20AF1020002B208F1020001B23846A9
:10557000FCF729FD3AE0206D10B1206D80690CE048
:105580002069006938B120690069806905E047E257
:10559000EFE16BE3C4E24FF07F4010994B46524677
:1055A000CDE9001041463846FCF7C7FE206D18B122
:1055B000206D006809E037E32069006918B12069AF
:1055C0000069006801E04FF07F401099891E09B220
:1055D000CDE90010A9F1020003B20AF1010002B204
:1055E00008F1010001B23846FCF7EDFC94F87000B8
:1055F00000F0010068B307A8FDF74EF86834E088B2
:10560000A9EB00000FFA80F908EB0900401E00B278
:10561000ADF81C000AF1010000B2ADF81E00E088F0
:10562000ADF820001098801E00B2ADF822000020D6
:105630008DF82400B4F904000C9034F968090A903C
:1056400020460BF0DAFC0B9007A93846FCF798FFD0
:1056500003E0A9F101000FFA80F9002120460BF0C8
:105660007DFC8346F748CDE900B0A9F1030003B201
:105670000AF1020002B208F1020001B23846FCF75A
:10568000A2FCA06D00287DD0A06D00680028FAD093
:1056900008F1020000B20C9005A8FCF751FBADF830
:1056A0001AB011208DF81C00BDF81800ADF82200CA
:1056B000B7F904000490B7F9041008EB0900401E84
:1056C000814204DD08EB0900401E00B2B8800AF1F7
:1056D000020000B2ADF8160000254BE00F98D8B1DB
:1056E0000020CDE900B0A06D50F82500B0F90830D9
:1056F000BDF9162038460C99FCF74EFEA06D50F807
:1057000025000089001F00B2ADF818000C98801C1D
:1057100000B2ADF814001AE0CB48CDE900B0A06D9E
:1057200050F82500B0F90830BDF9162038460C991C
:10573000FCF703FEA06D50F825000089801F00B221
:10574000ADF818000C98C01C00B2ADF81400A06DA4
:1057500050F82500C26805AB3846E16BFDF714F838
:10576000A06D50F8250001890C98084400B20C90F7
:10577000681C85B2B4F85C00A842AFDCBDF8160026
:10578000584400E0F3E000B2ADF81600E06B0028EA
:105790006FD0206E0028FBD000200390B7F90600E0
:1057A0000290B7F9061010985044801E814204DD23
:1057B00010985044801E00B2F88000200390002111
:1057C00004F1600009F03AFC0E90C1E0B4F96C10ED
:1057D0000398814200DDB2E0B4F96A100398814277
:1057E0005BD194F8380000F0100070B1206D10B15A
:1057F000206D006917E02069006918B1206900690F
:10580000006910E04FF07F400DE0206D10B1206D79
:10581000406908E02069006918B1206900694069A1
:1058200001E04FF07F40BDF91A10594502DABDF989
:105830001A1000E05946CDE90010A9F1020003B2A8
:10584000BDF9162008F1020001B23846FCF7BBFB97
:1058500094F8380000F0100078B1206D10B1206D80
:10586000806818E02069006920B1206900698068BB
:1058700011E079E04FF07F400DE0206D10B1206D18
:10588000C06808E02069006918B120690069C06833
:1058900001E04FF07F4009900EE0206D10B1206DC7
:1058A000406808E02069006918B120690069406813
:1058B00001E04FF07F40099008F1020000B20C9027
:1058C000002500210E98083009F0B8FB0D9029E062
:1058D0000D988068B8B1A06D50F825000089801F30
:1058E00000B2ADF8180059488088ADF822000C9835
:1058F000C01C00B2ADF814000D98826805AB3846A4
:10590000E16BFCF741FFA06D50F8250001890C9870
:10591000084400B20C9000200D9909F08FFB0D9007
:10592000681C85B20D9818B1B4F85C00A842CFDCB1
:10593000BDF81600584400B2ADF8160000BF0020B4
:105940000E9909F07BFB0E900398401C80B20390E7
:105950000E9830B1BDF91600B7F9061088427FF7EE
:1059600035AF0298F88000BF0498B88000BF0120CE
:10597000B9E500251DE006E000BF404609F092FDB4
:105980004FF0000800BF002107F1080009F056FBA6
:105990008146494607F1080009F072FCB0F10008A1
:1059A000EAD100BF384609F07DFD002700BF681C22
:1059B00085B2002104F1600009F040FB81464946B0
:1059C00004F1600009F05CFC071ED4D1A06DC8B1E1
:1059D00000250CE000BFA16D51F8250009F062FD23
:1059E0000020A16D41F8250000BF681C85B2B4F805
:1059F0005C00A842EEDC00BFA06D09F053FD002062
:105A0000A06500BF01206EE53146088A104A10806B
:105A1000888A104A1080002214980270012062E5E2
:105A2000B046E06BC0B3002120460BF097FA8246E7
:105A3000B8F8140007490988081A07B2002F0BDBD1
:105A400038460AE0C6C6C6FF555555FF0418012062
:105A5000080401200A040120784250450DDD002F82
:105A600001DD012001E04FF0FF30014620460CF03F
:105A70002AF9B8F814007E4908807D48B0F9000082
:105A800050454ADA4FF00009B8F810007949098802
:105A9000081A07B200251DE040E0A06D50F825006F
:105AA000008948440FFA80F97248B0F90000B0EB61
:105AB000090005D46F48B0F90000A0EB090004E02C
:105AC0006C48B0F90000A9EB00000A2800DA05E0F4
:105AD000681C85B2B4F85C00A842DEDC00BFB4F8F4
