:020000040800F2
:100000009829022099020008F78F00086B890008E0
:10001000F38F0008490A0008FDB100080000000045
:10002000000000000000000000000000DD010008EA
:100030004D0B00080000000031020008D5900008B8
:10004000B3020008B3020008B3020008B3020008BC
:10005000B3020008B3020008510B0008F90B0008B6
:10006000150C0008310C00084D0C00084D0A000862
:100070005D0A00086D0A00087D0A00088D0A000864
:100080009D0A0008AD0A0008B3020008B302000888
:10009000B3020008B3020008B3020008690C0008AC
:1000A000B3020008B3020008B3020008B30200085C
:1000B000B3020008B3020008B3020008B30200084C
:1000C000B3020008B3020008B3020008B30200083C
:1000D000B302000849B1000875B10008A5B10008D5
:1000E0006D0B0008B3020008B3020008B302000859
:1000F000B3020008B3020008B3020008BD0A0008FA
:10010000B3020008B3020008B3020008B3020008FB
:10011000F5AA000825AB0008B3020008B3020008E6
:10012000CD0A0008DD0A0008ED0A0008FD0A0008F3
:100130000D0B0008B3020008B3020008B302000868
:10014000B3020008B3020008B3020008B3020008BB
:100150001D0B00082D0B00083D0B0008D5B1000851
:10016000B3020008B3020008B3020008B30200089B
:10017000B3020008B3020008B30200080000000048
:10018000B3020008B302000851AB000881AB0008BD
:10019000B3020008B3020008B3020008B30200086B
:1001A000D18D0008B3020008B3020008B3020008B2
:1001B000B3020008B3020008B3020008B30200084B
:1001C000B3020008B3020008DFF80CD000F034FBE3
:1001D00000480047E5ED0008982902202B4B1968DC
:1001E0000868B0E8F04F80F30988BFF36F8F4FF0D5
:1001F000000080F311887047000000000648006886
:10020000006880F3088862B661B6BFF34F8FBFF312
:100210006F8F00DF00BF00BF08ED00E0DFF80C00CB
:10022000016841F470010160704700BF88ED00E093
:10023000EFF30980BFF36F8F144B1A681EF0100F95
:1002400008BF20ED108A20E9F04F106008B44FF08D
:10025000500080F31188BFF34F8FBFF36F8F0EF004
:1002600021FF4FF0000080F3118808BC196808686E
:10027000B0E8F04F1EF0100F08BFB0EC108A80F30A
:100280000988BFF36F8F704700BF00BFA002012035
:10029000EFF3058070470000064880470648004796
:1002A000FEE7FEE7FEE7FEE7FEE7FEE7FEE7FEE726
:1002B000FEE7FEE7DD900008C901000840EA0103FF
:1002C0009B0703D009E008C9121F08C0042AFAD20C
:1002D00003E011F8013B00F8013B521EF9D27047D0
:1002E000D2B201E000F8012B491EFBD27047002278
:1002F000F6E710B513460A4604461946FFF7F0FF25
:10030000204610BD10B5044604E00B7800F8013B10
:1003100003B1491C521EF8D2204610BD421C10F8F1
:10032000011B0029FBD1801A704710B5002200E0A4
:10033000521C835C8C5CA34201D1002BF8D1D8B253
:10034000E1B2401A10BD034611F8012B00F8012B51
:10035000002AF9D11846704700F0004230F0004002
:100360000AD0C10D01F56071C0F3160042EA0151D7
:10037000C20840071143704700200146704701F052
:10038000004330B421F0004150EA010206D00A0DCA
:10039000A2F56072C1F31301002A02DC30BC002018
:1003A0007047440F44EAC104C100E01830BC00EBC0
:1003B000C25000F031B82DE9F05F054600209246AA
:1003C0009B4688460646814640241BE02846414617
:1003D0004746224600F051FA53465A46C01A914108
:1003E00010D311461846224600F038FA2D1A67EB52
:1003F00001084F4622460120002100F02FFA17EB9A
:1004000000094E41201EA4F10104DFDC48463146BC
:100410002A464346BDE8F09F0029A8BF7047401C0C
:10042000490008BF20F00100704710B4B0FA80FC0A
:1004300000FA0CF050EA010404BF10BC704749B147
:10044000CCF1200421FA04F411FA0CF118BF0121B7
:1004500021430843A3EB0C01CB1D4FEA00614FEA97
:10046000102042BF002010BC704700EBC350104466
:100470000029A4BF10BC7047401C490008BF20F0F1
:10048000010010BC70472DE9FE4F804681EA030051
:10049000C00F0C46009021F0004123F00045B8EB5E
:1004A0000200A94105D24046214690461C460B4613
:1004B000024623F00040104347D0270DC7F30A003F
:1004C000C3F30A510290401A019040286BDAC3F33B
:1004D000130040F4801B0098924620B10023D2EB19
:1004E000030A63EB0B0B01985946C0F140025046DA
:1004F00000F0B4F906460D4650465946019A00F000
:10050000CCF910EB08006141002487EA115284EA1B
:10051000E7731A4340D0009A62B3019A012A4FEA66
:10052000075215DC001B61EB02014FF0004202EAAA
:100530000752CDE90042001C41F5801132462B469E
:1005400000F0CCF903B0BDE8F08F40462146F9E752
:10055000001B61EB0201001C41F5801300185B4198
:100560002018A2F5001747EB030140EAD570B61931
:100570006D4111E06D084FEA360645EAC0754FEA55
:100580000752001B61EB0201001C41F58011490874
:100590004FEA30000019514132462B4603B0BDE806
:1005A000F04F00F08CB90098012240000023D0EBFE
:1005B000020263EBE073009821464FEAE074B8EB67
:1005C000000061EB0401E9E783F000435BE781F0A1
:1005D000004158E72DE9FE4F81EA030404F000448E
:1005E00021F0004100944FF0000B23F0004350EA4B
:1005F00001045ED052EA03045BD0C3F30A54C1F392
:100600000A552C44A4F2F3340194A0FB0254C1F324
:10061000130141F48011C3F3130343F4801301FB6E
:10062000024400FB034E840A970A44EA815447EAD5
:100630008357A4FB076802958D0A05FB07854FEADF
:10064000932C04FB0C542705029D4FEA065847EAF9
:100650001637B5EB08056EEB070C870E920E47EACE
:10066000811742EA8312A7FB0201B6EB0B0164EB90
:1006700000042B0D43EA0C335E1844EB1C50DA46A1
:100680005146E7FB0201C5F313044FEA0B3343EA7B
:1006900014534FEA0432019C43EA0603A4F10C040C
:1006A0000294009CCDE900B400F018F903B0BDE855
:1006B000F08F00200146F9E72DE9F04D81EA0304AF
:1006C00004F0004B21F0004514464FF0000A23F0DF
:1006D000004150EA050220D054EA01021DD0C5F3C2
:1006E0000A570246C5F31303C1F31300C1F30A56B8
:1006F00040F4801543F48013A7EB0608101BD64680
:1007000008F2FD3873EB050002D308F1010801E09F
:1007100092185B41B8F1000F03DA00200146BDE8F2
:10072000F08D00204FF48011064684460EE0171B22
:1007300073EB050705D3121B63EB050306434CEA75
:10074000010C49084FEA300092185B4150EA01075A
:10075000EDD152EA030012D082EA040083EA0501D7
:10076000084305D0101BAB4106D20122002306E04E
:1007700000224FF0004302E06FF0010253101AEB29
:1007800006004CEB085110EB0A0041EB0B01BDE8F1
:10079000F04D00F094B82DE9F04D00231A461B1AD5
:1007A0008A4103DB00200146BDE8F08DC1F30A5207
:1007B000C1F3130141F480154FF0000BD10702D1B2
:1007C00000186D41521E0027044640F2FF113846C2
:1007D00001EB620A3E468046024600204FF480113B
:1007E00000F04BF8C2197141BB1846EB0100B4EBA5
:1007F000030C75EB000C04D3E41A65EB00051746F7
:100800000E46241908F101006D4180463428E3DDCD
:10081000F91946EB0600091BA84103D24FF0FF323D
:10082000134601E0002213461BEB070046EB0A517A
:10083000BDE8F04D00F043B8064C074D06E0E06817
:1008400040F0010394E8070098471034AC42F6D317
:10085000FFF7BEFCF434020814350208202A04DB3A
:10086000203A00FA02F1002070479140C2F12003C3
:1008700020FA03F3194390407047202A04DB203A02
:1008800021FA02F00021704721FA02F3D040C2F1B0
:1008900020029140084319467047202A06DBCB17F7
:1008A000203A41FA02F043EAE07306E041FA02F32B
:1008B000D040C2F12002914008431946704710B55C
:1008C000141E73F1000408DA401C41F10001921873
:1008D0005B411A4301D120F0010010BD2DE9F04D1C
:1008E00092469B4611B1B1FA81F202E0B0FA80F271
:1008F00020329046FFF7B2FF04460F4640EA0A0056
:1009000041EA0B0153465A46084313D0114653EAB5
:10091000010019D0C8F140025046FFF7AEFF05466E
:100920000E46504659464246FFF798FF084305D009
:10093000012004E020463946BDE8F08D0020054343
:1009400046EAE0762C4337430A986305E40AA0EBB5
:1009500008000022FD0A44EA47540A3002D500206C
:100960000146E9E7010510196941DDE9084500196B
:100970006941BDE8F04DA2E70EB5C10F80EAE07015
:100980000844CA07002140F233438DE80E000A46AE
:100990000B46FFF7A3FF03B000BD0EB540F2334195
:1009A00002910021CDE900110A460B46FFF796FFA0
:1009B00003B000BD70B5C1F30A5201F00045002438
:1009C000C1F3130140F2FF3341F480119A4201DA7E
:1009D000002070BD40F233439A42A2F2334203DC5E
:1009E0005242FFF74AFF00E090402C43F1D04042D2
:1009F00070BD70B58C1810F8015B15F0070301D1BC
:100A000010F8013B2A1106D110F8012B03E010F871
:100A1000016B01F8016B5B1EF9D12B0705D4002394
:100A2000521E0DD401F8013BFAE710F8013BCB1A36
:100A3000921C03E013F8015B01F8015B521EF9D52B
:100A4000A142D8D3002070BD00BFFEE710B5024818
:100A500008F081FC10BD00001060024010B5024893
:100A600008F079FC10BD00002860024010B5024873
:100A700008F071FC10BD00004060024010B5024853
:100A800008F069FC10BD00005860024010B5024833
:100A900008F061FC10BD00007060024010B5024813
:100AA00008F059FC10BD00008860024010B50248F3
:100AB00008F051FC10BD0000A060024010B50248D3
:100AC00008F049FC10BD0000B860024010B50248B3
:100AD00008F041FC10BD00001064024010B502484F
:100AE00008F039FC10BD00002864024010B502482F
:100AF00008F031FC10BD00004064024010B502480F
:100B000008F029FC10BD00005864024010B50248EE
:100B100008F021FC10BD00007064024010B50248CE
:100B200008F019FC10BD00008864024010B50248AE
:100B300008F011FC10BD0000A064024010B502488E
:100B400008F009FC10BD0000B864024070470000C6
:100B500010B50548006800F0010020B101200249ED
:100B6000086008F037FD10BD143C014010B5214865
:100B7000006800F4806028B14FF480601D4908606F
:100B800008F028FD1B48006800F4006028B14FF40D
:100B900000601849086008F01DFD1648006800F460
:100BA000805028B14FF480501249086008F012FDBF
:100BB0001048006800F4005028B14FF400500D496F
:100BC000086008F007FD0B48006800F4804028B179
:100BD0004FF480400749086008F0FCFC05480068B5
:100BE00000F4004028B14FF400400249086008F0CA
:100BF000F1FC10BD143C014010B50548006800F040
:100C0000020020B102200249086008F0E3FC10BD98
:100C1000143C014010B50548006800F0040020B104
:100C200004200249086008F0D5FC10BD143C0140C6
:100C300010B50548006800F0080020B108200249FE
:100C4000086008F0C7FC10BD143C014010B5054811
:100C5000006800F0100020B110200249086008F080
:100C6000B9FC10BD143C014010B51A48006800F0F2
:100C7000200020B120201749086008F0ABFC15487F
:100C8000006800F0400020B140201249086008F0E0
:100C9000A1FC1048006800F0800020B180200D49C0
:100CA000086008F097FC0B48006800F4807028B1D9
:100CB0004FF480700749086008F08CFC0548006814
:100CC00000F4007028B14FF400700249086008F089
:100CD00081FC10BD143C014030B5024600230024C5
:100CE0000868012816D013686FF30E03D1E90105D7
:100CF0002843CD6828430D6928434D6928438D69F1
:100D00002843CD6928430D6A28434D6A284303438D
:100D1000136019E013686FF30E03D1E90705284348
:100D20004D6A2843034354686FF30E04D1E901056B
:100D30002843CD6828430D6928434D6928438D69B0
:100D40002843044313605460002030BD02465069BC
:100D500040EA4100506100207047F8B506460C4655
:100D60001546002000900027D4E900010843A1683F
:100D7000491E40EA4110E16840EA41200090009895
:100D8000306105F06DFF07460BE0681C38B125B1F6
:100D900005F066FFC01BA84201D90320F8BD012061
:100DA000FCE7B06900F020000028EED100BFF5E7B5
:100DB00070B50346154600220024012D1FD09A6805
:100DC00002F070420868401E4E68761E40EA061621
:100DD0008868401E46EA0026C868401E46EA00367B
:100DE000088A401E46EA0046888A401E46EA0056A7
:100DF000087E401E46EA006002439A6022E0DA68FC
:100E000002F070420868401E4E68761E40EA0616E0
:100E10008868401E46EA0026088A401E46EA0046C8
:100E2000087E401E46EA006002439C6804F070445D
:100E3000C868401E0603888A401E46EA00500443E4
:100E4000DA609C60002070BD01B500BF0098411EB3
:100E500000910028FAD108BD30B50146002409B937
:100E6000002030BD4A688B689A4201D10C6806E0C8
:100E7000934201D99C1A02E0D51A0868441B601EEF
:100E8000EFE730B5014609B9002030BD4A688B68EC
:100E90009A4201D1002406E09A4201D9D41A02E014
:100EA0009D1A0868441B2046EFE770B504460D46BE
:100EB00016460CB9012070BD18212046FFF717FA1D
:100EC0002560E6600A206074E06868B928460EF084
:100ED00079F8E060E06818B9002020600120EAE7B6
:100EE000207C40F002002074207C40F0010020743F
:100EF0000020E0E72DE9F0470446894615464FF00B
:100F00000008CA4604B115B90020BDE8F087216881
:100F1000A068884201D30020A0602046FFF7B1FFFF
:100F20000746AF4203D20FB90020EEE73D46A16865
:100F30002068461AAE4200D92E46D4E90220811814
:100F400032465046FFF7BAF9B044A0683044A0607A
:100F5000AD1B35B10AEB08002A46E168FFF7AEF990
:100F6000A5602168A068884201D30020A06008EB3A
:100F70000500CAE72DE9F0470446894615464FF0BB
:100F80000008CA4604B115B90020BDE8F087D4E9CD
:100F90000010884201D3002060602046FFF75CFF0C
:100FA0000746AF4203D20FB90020EEE73D46D4E931
:100FB0000001461AAE4200D92E466268E1688818E0
:100FC00032465146FFF77AF9B044606830446060B9
:100FD000AD1B35B10AEB08012A46E068FFF76EF950
:100FE0006560D4E90010884201D30020606008EBFE
:100FF0000500CAE72DE9F04F8BB004468A469346B8
:101000001E4600BF1CB189492069884208D0492288
:1010100087A191A00AF00AFA00200BB0BDE8F08F7A
:1010200000BFAAF102000D2876D2DFE800F007FD2C
:10103000FDFDFDFDF9F5E5E9F1FDF300CDF828B082
:1010400020460BF0BAFA074620460BF0D8FA804645
:1010500020460BF083FB814620460BF0F3FA054651
:1010600094F8280000F08000F0B1206C10B1206CE2
:10107000006808E02069C06818B12069C06800688D
:1010800001E04FF07F400990206C10B1206C406867
:1010900008E02069C06818B12069C068406801E0B4
:1010A0004FF07F40089042E094F8280000F00800DC
:1010B000F0B1206C10B1206C406808E02069C06875
:1010C00018B12069C068406801E04FF07F40099086
:1010D000206C10B1206C006808E02069C06818B16D
:1010E0002069C068006801E04FF07F4008901EE072
:1010F000206C10B1206C406808E02069C06818B10D
:101100002069C068406801E04FF07F400890206C83
:1011100018B1206C006809E086E02069C06818B149
:101120002069C068006801E04FF07F40099094F8A2
:10113000280000F08000E0B1291F09B20998CDE92C
:101140000010A9F1040003B208F1020002B2B81CB9
:1011500001B20A9800F0D4FC94F82800C0F3C00053
:101160004B4642463946CDE900500A9800F0C0FE91
:1011700017E0B4F94A1009984B464246CDE90051B0
:10118000029039460A9800F0CDFCB4F94A1008984C
:101190004B464246CDE90051029039460A9800F08C
:1011A000FBFE20460BF05AFC20B301A800F062FBC6
:1011B000781C00B2ADF8040008F1010000B2ADF8EF
:1011C0000600A9F1020000B2ADF80800A81E00B2A6
:1011D000ADF80A0012208DF80C00BDF80800ADF83B
:1011E00012000898059001ABD4E90B120A9801F09F
:1011F00067F800BF012010E70020307001200CE7E5
:1012000000203070012008E704E001E004E007E07E
:10121000012002E7012000E720460BF03FFB00BF62
:1012200020460BF03BFB00BF0020F6E6ACFA0008BE
:101230002E2E5C30302D4755495F4C494252415269
:10124000595C776964676574735C6775695F62751B
:1012500074746F6E2E630000417373657274207036
:101260006172616D206661696C656420696E2066DB
:10127000696C6520257320616E64206C696E652041
:1012800025640D0A000000002DE9F04F85B00446EA
:101290000D4616461F46DDE90FABDDF83890119874
:1012A00033462A4621468DE8800E049006480AF00F
:1012B000F3FF8046B8F1000F02D040460BF0B6F8BD
:1012C000404605B0BDE8F08FACFA00082DE9F04FBC
:1012D0008DB00446894692469846B9F1020F06D071
:1012E000B9F10A0F7ED0B9F10E0F7CD177E1CDF8BC
:1012F00030A020460BF061F90A9020460BF07FF9F0
:10130000834620460BF02AFA099020460BF09AF902
:10131000089014250A9E0899481B00EBD0710BEB2E
:1013200061010FB294F8480000F0020078B1206C1F
:1013300010B1206CC06808E02069C06818B120694D
:10134000C068C06801E04FF07F400B900EE0206C59
:1013500010B1206C006808E02069C06818B12069ED
:10136000C068006801E04FF07F400B90A91E09B2F1
:101370000B98CDE90010A81E03B2781C02B2701CB5
:1013800001B20C9800F0BCFB01202B463A463146D6
:10139000CDE900500C9800F0ABFD9748C06CA0421E
:1013A0001AD1206C10B1206C406808E02069C06838
:1013B00018B12069C068406801E04FF07F40291FE4
:1013C00009B2CDE90010281F03B2B81C02B2B01C4C
:1013D00001B20C9800F05DFD94F8480000F00100A7
:1013E000002801E0EDE005E178D0206C10B1206C20
:1013F000406808E02069C06818B12069C06840688A
:1014000001E04FF07F407919491F09B2CDE9001082
:101410007019801F03B2781D02B2301D01B20C9802
:1014200000F060FC206C10B1206C406808E020697E
:10143000C06818B12069C068406801E04FF07F4083
:101440007919491F09B2CDE900107019401F03B284
:10145000381D02B2301D01B20C9800F043FC206C24
:1014600010B1206C406808E02069C06818B120699C
:10147000C068406801E04FF07F407919891F09B2C8
:10148000CDE900107019401F03B2381D02B2701D63
:1014900001B20C9800F026FC206C10B1206C406862
:1014A00008E02069C06818B12069C068406801E0A0
:1014B0004FF07F40391D09B2CDE900107019801F2F
:1014C00003B27819801F02B2301D01B20C9800F0EF
:1014D00009FC206C18B1206C406809E034E02069F8
:1014E000C06818B12069C068406801E04FF07F40D3
:1014F000391D09B2CDE900107019401F03B27819E7
:10150000401F02B2301D01B20C9800F0EBFB206CC2
:1015100010B1206C406808E02069C06818B12069EB
:10152000C068406801E04FF07F40791D09B2CDE905
:1015300000107019401F03B27819401F02B2701DCD
:1015400001B20C9800F0CEFB20460BF087FAA0B356
:1015500001A800F08FF97019401D00B2ADF8040029
:101560000BF1010000B2ADF806000998401B401FC6
:1015700000B2ADF808000898801E00B2ADF80A006D
:1015800011208DF80C00BDF80800ADF81200206C99
:1015900010B1206C406808E02069C06818B120696B
:1015A000C068406801E04FF07F40059001ABD4E98E
:1015B0000B120C9800F084FE00BF01200DB0BDE8B6
:1015C000F08F94F8480000F0020018B1012088F86C
:1015D000000002E0002088F800000120EEE794F807
:1015E000480000F0010080F0010120460CF064F892
:1015F0000120E3E70020E1E7780601202DE9F04F24
:1016000087B004460D4616461F46DDE912ABDDE9FC
:10161000108933462A46214604488DE8800F0AF097
:101620003BFE0690069807B0BDE8F08F34FB00083B
:1016300070B5044600BF1CB108492069884206D035
:10164000E52207A111A009F0F1FE002070BD00BF46
:1016500094F8480000F001052846F7E734FB00083D
:101660002E2E5C30302D4755495F4C494252415235
:10167000595C776964676574735C6775695F6368F3
:1016800065636B626F782E630000000041737365C1
:10169000727420706172616D206661696C6564208E
:1016A000696E2066696C6520257320616E64206C0C
:1016B000696E652025640D0A000000002DE9FC41DB
:1016C00007460D4616469846089C0120434632467A
:1016D0002946CDE90004384600F021F80220CDE982
:1016E0000004681E01B243463246384600F017F83F
:1016F0000820CDE90004701E02B243462946384650
:1017000000F00DF80420CDE90004701E02B2681E3E
:1017100001B24346384600F002F8BDE8FC812DE9ED
:10172000FC5F81460D4616461F46DDF830A0C7F126
:1017300001000FFA80FB012001907800404200B2C6
:1017400000904FF000083C46E81B022101FB070017
:10175000B9F90010884219DBB9F90400B9F9001091
:10176000401A0844E91B884210DBF01B022101FBF0
:101770000700B9F90210884208DBB9F90600B9F987
:101780000210401A0844F11B884201DABDE8FC9FB0
:101790006CE0BBF1000F09DB601E04B20098801CF6
:1017A00000B20090009858440FFA80FB08F1010045
:1017B0000FFA80F80198801C00B2019001985844FB
:1017C0000FFA80FB0AF0010088B1A6EB080002B214
:1017D000281B01B248460D9B00F012FD301B02B2DF
:1017E000A5EB080001B248460D9B00F009FD0AF088
:1017F000020088B1301B02B205EB080001B2484676
:101800000D9B00F0FDFCA6EB080002B2281901B206
:1018100048460D9B00F0F4FC0AF0040088B1301932
:1018200002B205EB080001B248460D9B00F0E8FC4F
:1018300006EB080002B2281901B248460D9B00F0E1
:10184000DFFC0AF0080088B1301902B2A5EB0800ED
:1018500001B248460D9B00F0D3FC06EB080002B233
:10186000281B01B248460D9B00F0CAFCA04590DB46
:1018700000BF8BE710B504461C212046FEF737FD5C
:1018800010BD00002DE9FE4304460D4616461F46D6
:10189000DDE90A89B4F90400A8420EDDB4F90600B6
:1018A000B0420ADDE819B4F90010884205DB06EB06
:1018B0000800B4F90210884201DABDE8FE83B4F9E9
:1018C0000000A84205DD2088401B381A07B2B4F991
:1018D0000050B4F90200B04207DD6088801BA8EB1D
:1018E00000000FFA80F8B4F90260E819B4F90410A6
:1018F000884202DDA088401B07B206EB0800B4F95D
:101900000610884203DDE088801B0FFA80F8064845
:101910008DE88003417A33462A46D0F830C0001D56
:10192000E04700BFC9E70000780601202DE9FC412F
:1019300006460F4615469846089C012043462A460F
:101940003946CDE90004304600F01FF80220434636
:101950002A463946CDE90004304600F016F8082042
:10196000CDE90004681E02B243463946304600F015
:101970000CF80420CDE90004681E02B24346394643
:10198000304600F002F8BDE8FC812DE9FF5F074614
:101990008A4614461E46DDE90EB9C6F1010000B2C2
:1019A0000390012002907000404200B201904FF07D
:1019B00000083546AAEB0600022101FB0600B7F934
:1019C000001088421ADBB7F90400B7F90010401A7A
:1019D0000844AAEB0601884210DBA01B022101FB90
:1019E0000600B7F90210884208DBB7F90600B7F91C
:1019F0000210401A0844A11B884201DABDE8FF9F8B
:101A00007AE0039800280ADB681E05B20198801C62
:101A100000B2019001990398084400B2039008F1C4
:101A200001000FFA80F80298801C00B20290DDE9F4
:101A30000210084400B203900BF00100B0B1601B2B
:101A400002B2AAEB080001B243463846CDF8009036
:101A500000F00CF9A4EB080002B2AAEB050001B2F9
:101A60002B463846CDF8009000F000F90BF002004C
:101A700090B1601B02B2434651463846CDF8009003
:101A800000F0F4F8A4EB080002B22B4651463846A9
:101A9000CDF8009000F0EAF80BF00800B0B104EBCC
:101AA000080002B2AAEB050001B22B463846CDF879
:101AB000009000F0DBF8601902B2AAEB080001B256
:101AC00043463846CDF8009000F0D0F80BF0040003
:101AD00090B104EB080002B22B4651463846CDF8CF
:101AE000009000F0C3F8601902B2434651463846F0
:101AF000CDF8009000F0BAF8A84582DB00BF7DE782
:101B00002DE9FC4704460D4616461F46DDE90A89C5
:101B10003B46324629462046CDE90089FFF7B2FE12
:101B2000BDE8FC872DE9FC478246884691461E4663
:101B3000DDE90B470A9D05EBD571B4EB610F05DBC1
:101B4000284605EBD0714910491E0CB206EBD67140
:101B5000B4EB610F05DB304606EBD0714910491E2E
:101B60000CB2002C68D0022000FB146003B208EB1A
:101B7000040001B24A465046CDE90057FFF7C0FFC6
:101B8000022000FB145000B2CDE9000709EB04006D
:101B900002B2234641465046FFF7B2FF022000FB47
:101BA000145000B2CDE9000709EB040002B208EBC3
:101BB0000600001B01B223465046FFF7A1FF01209B
:101BC000CDE9000709EB040002B208EB040001B202
:101BD00023465046FFF7D9FE0220CDE9000709EB66
:101BE000040002B208EB0600001B401E01B22346AF
:101BF0005046FFF7CAFE0820CDE9000709EB0500B3
:101C0000001B401E02B208EB040001B223465046FE
:101C1000FFF7BBFE0420CDE9000709EB0500001B20
:101C2000401E02B208EB0600001B401E01B2234614
:101C30005046FFF7AAFE07E033464A464146504663
:101C4000CDE90057FFF75CFFBDE8FC872DE9F041C7
:101C500007460C4615460448417A2B462246C6697B
:101C6000001DB047BDE8F081780601202DE9FC4158
:101C700004460D4617461E46DDF82080B4F90600DE
:101C8000B8420CDDB4F90200B84208DCB4F9040033
:101C9000A84204DBA819B4F90010884201DABDE8B3
:101CA000FC81B4F90000A84205DD2088401B301AF1
:101CB00006B2B4F90050A819B4F90410884202DD44
:101CC000A088401B06B20648CDE90068417A3B4631
:101CD0002A46D0F828C0001DE04700BFDFE700001B
:101CE000780601202DE9F04F8BB004460D461646CC
:101CF0001F46DDF850B04FF00008C14600200A90A2
:101D000009900890079006900590824604900390F1
:101D100002900190B4F90000A84203DDB4F900007C
:101D2000B84217DCB4F90400A84203DAB4F904009D
:101D3000B8420FDBB4F90200B04203DDB4F902008F
:101D4000584507DCB4F90600B04206DAB4F90600DB
:101D5000584502DA0BB0BDE8F08F781B01D4781B30
:101D600000E0E81B0FFA80F8BBEB060002D4ABEBF7
:101D7000060001E0A6EB0B000FFA80F9B8F1000FA6
:101D80000DD1159800905E4501DA304600E05846C6
:101D900002464B462946204600F056FADAE7B9F1EA
:101DA000000F0DD115980090BD4201DA284600E0E1
:101DB00038460146434632462046FFF757FFC9E7FB
:101DC0000A950996AF4203DB01200890079003E0D3
:101DD0004FF0FF3008900790B34503DB01200690D9
:101DE000059003E04FF0FF3006900590C8450EDBEC
:101DF000002008900590C246404608EBD07149107B
:101E000009B20491CDF80C90CDF808800DE00020C7
:101E100007900690CA46484609EBD071491009B2AE
:101E20000491CDF80C80CDF80890002001902AE0B4
:101E30002046159BDDE9092100F0E2F9DDE90310F8
:101E4000084400B20490049850450EDB0498A0EBBF
:101E50000A0000B2049008990A98084400B20A9057
:101E600006990998084400B2099007990A9808440D
:101E700000B20A9005990998084400B209900198A7
:101E8000401C00B20190DDE901018842D0DD00BFB5
:101E900060E72DE9F84381460F4690461D46DDE98F
:101EA000086405B10EB9BDE8F8832B4642463946B1
:101EB00048460094FFF7DAFE334642463946484624
:101EC000009400F0C1F908EB0600401E02B22B4658
:101ED000394648460094FFF7C9FE7819401E01B202
:101EE000334642464846009400F0AEF900BFDAE7B8
:101EF0002DE9FF4F83B00C4615461E46DDE9107AEA
:101F00004FF07F4BBAF1000F04D1DFF884804FEA25
:101F1000F87903E0DFF87C80DFF8749033462A46D6
:101F20002146CDE9007B0398FFF7B3FFB01E03B253
:101F3000681C02B2601C01B2CDF800800398FFF764
:101F400095FEB81E03B2681C02B2601C01B2CDF847
:101F50000080039800F078F9B01E03B2E819801EE3
:101F600002B2601C01B2CDF800900398FFF77EFE2C
:101F7000B81E03B2A019801E01B2681C02B2CDF8CF
:101F80000090039800F060F907B0BDE8F08F000002
:101F9000AAAAAAFF555555FF2DE9FC478246884657
:101FA00091461D46DDE90B470A9E06EBD671B4EB60
:101FB000610F05DB304606EBD0714910491E0CB2AB
:101FC00005EBD571B4EB610F05DB284605EBD0714D
:101FD0004910491E0CB2002C73D0022000FB145093
:101FE00003B208EB040001B24A4650460097FFF7DF
:101FF0003DFE022000FB146003B209EB040002B2B4
:1020000008EB0500401E01B25046009700F01CF995
:10201000022000FB145003B209EB0600401E02B27E
:1020200008EB040001B250460097FFF71FFE0220A4
:1020300000FB146003B209EB040002B241465046B3
:10204000009700F001F90120CDE9000709EB040039
:1020500002B208EB040001B223465046FFF75FFBD3
:102060000220CDE9000709EB040002B208EB0500ED
:10207000001B401E01B223465046FFF750FB0820CC
:10208000CDE9000709EB0600001B401E02B208EB79
:10209000040001B223465046FFF741FB0420CDE97E
:1020A000000709EB0600001B401E02B208EB05000A
:1020B000001B401E01B223465046FFF730FB08E0EC
:1020C000FFE72B464A4641465046CDE90067FFF7F9
:1020D000E0FEBDE8FC8700002DE9FC4781460C4688
:1020E0004FF0000AB4F90480B4F904004000032161
:1020F00090FBF1F005B20020CDE90050B4F90220C8
:10210000B4F9001043464846FFF7F2FE3749281F4E
:1021100000B2CDE90001A8F1040003B26088801C80
:1021200002B22088801C01B24846FFF7E9FC00207B
:10213000CDE900506088E3881844401B02B2B4F92E
:10214000001043464846FFF7D3FE2849281F00B237
:10215000CDE900016088B4F806C06044401B801CD3
:1021600002B2A8F1040003B22088801C01B24846E4
:10217000FFF7C6FCB4F90600022101FB150007B207
:102180001A48CDE90070B4F904306088284402B2DE
:10219000B4F900104846FFF7B3FCD4E903108842B5
:1021A00013D220697843E168B0FBF1F006B2062E45
:1021B00000DA0626B81B61694843D4E90312891A7C
:1021C000B0FBF1F00FFA80FA00E03E460020CDE9C6
:1021D0000060B4F9043060882844504402B2B4F975
:1021E00000104846FFF784FEBDE8FC87848484FF26
:1021F00010B5044618212046FEF779F810BD0000FE
:10220000F8B504460D4616461F46B4F90200B04222
:102210000BDCB4F90600B04207DDB4F90000A842B7
:1022200003DCB4F90400A84200DCF8BD05480097BF
:10223000417A33462A46D0F818C0001DE04700BF57
:10224000F3E70000780601202DE9FC4104460F4623
:1022500015461E46DDF82080B4F90400B8420CDDB6
:10226000B4F90000B84208DCB4F90600A84204DB67
:10227000A819B4F90210884201DABDE8FC81B4F96A
:102280000200A84205DD6088401B301A06B2B4F98E
:102290000250A819B4F90610884202DDE088401BFC
:1022A00006B20648CDE90068417A2B463A46D0F896
:1022B0002CC0001DE04700BFDFE7000078060120CA
:1022C0002DE9FF4F87B0804689461C46608910B9CA
:1022D00099F804006081002005A906AB2246CDE9EB
:1022E0000010484609990BF0BCFBB4F90400BDF995
:1022F000181088420CDA207B00F0020030B1224630
:10230000484609990BF06FFB099001E0A088069000
:10231000B4F90060B4F90250207A00F0100050B116
:10232000B4F90610BDF91420881A00EBD07105EB42
:1023300061010DB209E0207A00F0200028B1E088A8
:10234000BDF81410401A284405B2B4F90200A8429E
:1023500001DDB4F90250208B281A05B260E0B4F90F
:102360000060207A00F0020050B1B4F90410BDF909
:102370001820881A00EBD07106EB61010EB209E05B
:10238000207A00F0040028B1A088BDF81810401A87
:10239000304406B2B2462CE00498C0B20D2803D0F7
:1023A0000498C0B20A2805D1207B00F0040000B1D7
:1023B00056461EE0B8F90600A84200DA27E0B8F950
:1023C0000400B04200DA14E0484604990BF0D2FA57
:1023D000071E00D10DE03346224649464046CDE96E
:1023E000005709F0BFF9387839790844304406B20B
:1023F00000BFBBF10000ABF101011FFA81FB06D069
:1024000003AA04A909A803F035FA0028C4D100BF23
:102410006089284405B2207B00F0040000B90CE07C
:102420000120002106AB2246CDE90010484609995B
:102430000BF017FBB0F1000B91DC00BF0BB0BDE857
:10244000F08F00002DE9F04104460E46002700BF42
:102450001CB114492069884208D040F2112212A10F
:102460001CA008F0E3FF0020BDE8F08100BF0C20B5
:102470000CF0A8FD054695B1AE60294604F1540064
:1024800009F0B6FBB4F84C00401C00B2A4F84C00B4
:10249000204609F01CF920460AF000FA01273846C8
:1024A000E2E70000B0FB00082E2E5C30302D4755CF
:1024B000495F4C4942524152595C7769646765747F
:1024C000735C6775695F64726F70646F776E2E639B
:1024D0000000000041737365727420706172616D59
:1024E000206661696C656420696E2066696C652090
:1024F000257320616E64206C696E652025640D0A69
:10250000000000002DE9FF4F91B0044616469B469F
:1025100012980B287ED006DC02280BD007287AD030
:102520000A2879D135E20D2877D00E2876D01428E4
:10253000F7D185E2B04620460AF03FF8074620462C
:102540000AF05DF8109020460AF008F9054620468A
:102550000AF078F80F9094F85E0000F0010000286F
:1025600064D00DA80EAB0FAA10A9009020460AF067
:1025700006FD0120BDF934102B46CDE90010BDF950
:10258000402039464046FFF7B3FC206C10B1206C68
:10259000006808E02069C06818B12069C068006858
:1025A00001E04FF07F40BDF83410091F09B2CDE9BA
:1025B0000010281F03B2BDF83800801C02B2B81CFE
:1025C00001B24046FFF79CFA206C10B1206C006805
:1025D00008E02069C06818B12069C068006801E09F
:1025E0004FF07F40BDF83C10091F09B2CDE9001043
:1025F000281F03B2BDF84000801C02B2B81C01B213
:102600004046FFF77DFA0120BDF93C102B46CDE98D
:10261000001004E0C6E1FBE11BE2FFE1E7E1BDF9E8
:10262000402039464046FFF763FC30E0BDF94000EA
:102630000E90BDF93C000D900020BDF93C102B46DA
:10264000CDE90010BDF9402039464046FFF750FC67
:10265000206C10B1206C006808E02069C06818B1D7
:102660002069C068006801E04FF07F40BDF83C1071
:10267000091F09B2CDE90010281F03B2BDF84000C0
:10268000801C02B2B81C01B24046FFF739FAB4F917
:102690004E0000284DDBE06AC0B306A8FFF7EAF859
:1026A000002104F1540009F0B5FA82464FF0000908
:1026B00008E05146002009F0ADFA824609F1010018
:1026C0000FFA80F9B4F94E004845F2DCF81C00B26C
:1026D000ADF81800BDF83800C01C00B2ADF81A0003
:1026E000A81F00B2ADF81C00BDF83400801F00B276
:1026F000ADF81E0011208DF82000BDF81C00ADF8CB
:102700002600206C18B1206C406809E011E02069B7
:10271000C06818B12069C068406801E04FF07F4090
:102720000A90DAF8082006AB4046E16AFFF7C8FDD8
:1027300000BF94F85E0000F0010088B394F85E00DA
:1027400000F0020060B34C34208A281A05B207A8B2
:10275000FFF74EFD7819401E00B2ADF81C00BDF821
:102760004000401C00B2ADF81E00208AADF82000E9
:10277000BDF83C00801E00B2ADF8220000208DF8AC
:102780002400B4F904000C9034F94C090A90204656
:102790000AF0F6FC0B9007A94046FFF79DFC02E00B
:1027A000FFE7681E05B294F85E0000F00100002803
:1027B00070D0E06A0028FBD0606D0028F8D04FF0A0
:1027C000000A05A920460AF0AFFC049006A8FFF70E
:1027D00051F8381D00B2ADF81800BDF84000801C5B
:1027E00000B2ADF81A00A81F00B2ADF81C000498A2
:1027F00000B2ADF81E0011208DF82000BDF81C00BD
:10280000ADF82600002104F1540009F003FA8146D6
:1028100008E04946002009F0FDF981460AF101006F
:102820001FFA80FAB9F1000F03D0B4F950005045F7
:10283000EFDCB8F906000390B8F90600BDF94010C6
:10284000BDF93C201144884207DDBDF84000BDF8C9
:102850003C10084400B2A8F806008AE0B4F94E0023
:10286000504559D17C48C06CA0420ED1206C10B1AB
:10287000206C006918E02069C06818B12069C06840
:10288000006911E04FF07F400EE0206C18B1206C21
:10289000406909E079E02069C06818B12069C06822
:1028A000406901E04FF07F40BDF91E2004998A4243
:1028B00002DABDF91E1000E0049909B2CDE900105A
:1028C000E81E03B2BDF91A20B81C01B24046FFF75A
:1028D00017F96148C06CA0420ED1206C10B1206C79
:1028E000806817E02069C06818B12069C0688068F6
:1028F00010E04FF07F400DE0206C10B1206CC068FC
:1029000008E02069C06818B12069C068C06801E0AB
:102910004FF07F400A900EE0206C10B1206C4068B0
:1029200008E02069C06818B12069C068406801E00B
:102930004FF07F400A90D9F8082006AB4046E16A84
:10294000FFF7BEFCBDF81A100498084400B2ADF8B9
:102950001A00BDF91A00B8F90610884200DD0FE030
:102960004946002009F056F981460AF101001FFA94
:1029700080FABDF83C0018B1B9F1000F7FF46EAFDA
:1029800000BF0398A8F8060000BF012015B0BDE8FD
:10299000F08F3146888A314A108000208BF8000081
:1029A0000120F3E73746E06AF8B1002120460AF03B
:1029B000BBFB0FFA80F8B88A28490988081A05B2C3
:1029C000002D01DB284600E0684240450CDD002D6B
:1029D00001DD012001E04FF0FF30014620460AF002
:1029E00091FFB88A1D49088000BF0120CEE7354617
:1029F00094F85E0000F0010020B9012120460AF0A1
:102A0000E2FB03E0294620460AF046FC0120BDE730
:102A1000002120460AF0D7FB0120B7E73546287889
:102A2000022804D1012120460AF02DFB06E0287877
:102A3000012803D1811E20460AF025FB0120A5E7CD
:102A4000B6F9001020460AF01EFB01208BF80000AA
:102A50009CE700209AE70000780601201803012077
:102A60002DE9F04F85B005460E4617469846DDE93C
:102A70000FABDDF8389011983B46324629468DE879
:102A8000000F0490094809F007FC044654B14FF0C8
:102A9000FF3024F84E0F1E20E081207C40F004001F
:102AA00020744E3C204605B0BDE8F08FB0FB000816
:102AB00070B504460D46002600BF1CB117492069B9
:102AC000884207D040F2272215A120A008F0AEFCD2
:102AD000002070BD00BF94F85E0000F00100D8B97E
:102AE00094F85E0000F0080040B13DB994F85E0033
:102AF00000F0080084F85E0001260DE094F85E0006
:102B000000F0080040B9012D06D194F85E0040F0B5
:102B1000080084F85E0001263046DAE7B0FB0008C2
:102B20002E2E5C30302D4755495F4C494252415260
:102B3000595C776964676574735C6775695F647213
:102B40006F70646F776E2E630000000041737365D1
:102B5000727420706172616D206661696C656420B9
:102B6000696E2066696C6520257320616E64206C37
:102B7000696E652025640D0A0000000070B50446EA
:102B80000D4600BF1CB117492069884207D040F2AA
:102B90006E2215A11FA008F049FC002070BD00BFE7
:102BA00075B194F85E0000F0040048B994F85E0036
:102BB00040F0040084F85E00204609F06FFE0EE04D
:102BC0006DB994F85E0000F0040040B194F85E0026
:102BD00020F0040084F85E00204609F05FFE01202A
:102BE000DCE70000B0FB00082E2E5C30302D47558E
:102BF000495F4C4942524152595C77696467657438
:102C0000735C6775695F64726F70646F776E2E6353
:102C10000000000041737365727420706172616D11
:102C2000206661696C656420696E2066696C652048
:102C3000257320616E64206C696E652025640D0A21
:102C40000000000070B504460D46002600BF1CB110
:102C50001A492069884207D04FF4207218A123A096
:102C600008F0E4FB002070BD00BF94F85E0000F0A7
:102C7000040000BB7DB194F85E0000F0020050B982
:102C800094F85E0040F0020084F85E00204609F0EF
:102C900005FE01260FE075B994F85E0000F0020011
:102CA00048B194F85E0020F0020084F85E002046EF
:102CB00009F0F4FD01263046D5E70000B0FB00081E
:102CC0002E2E5C30302D4755495F4C4942524152BF
:102CD000595C776964676574735C6775695F647272
:102CE0006F70646F776E2E63000000004173736530
:102CF000727420706172616D206661696C65642018
:102D0000696E2066696C6520257320616E64206C95
:102D1000696E652025640D0A000000002DE9F04F62
:102D200089B004468A4691469B4600BF1CB165495E
:102D30002069884208D04F2263A16EA008F076FB7C
:102D4000002009B0BDE8F08F00BFBAF1070F7DD0B9
:102D500006DCBAF1020F0AD0BAF1060F77D19FE074
:102D6000BAF10A0F74D0BAF10D0FF7D1A1E0CDF886
:102D70002090204609F021FC0546204609F03FFC42
:102D80000646204609F0EAFC0746204609F05AFCB0
:102D9000804601203B4632462946CDE9008008980E
:102DA000FFF7A6F8206C10B1206C006808E02069DD
:102DB000C06818B12069C068006801E04FF07F402A
:102DC000A8F1040109B2CDE90010381F03B2B01C0C
:102DD00002B2A81C01B20898FEF792FE5148C06CDE
:102DE000A0421BD1206C10B1206C806808E02069E3
:102DF000C06818B12069C068806801E04FF07F406A
:102E0000A8F1060109B2CDE90010B81F03B2F01C09
:102E100002B2E81C01B20898FFF73BF8204609F01F
:102E20001DFED8B301A8FEF725FD681D00B2ADF860
:102E30000400701D00B2ADF80600A7F10A0000B250
:102E4000ADF80800A8F10A0000B202E02AE037E07D
:102E50002AE0ADF80A0011208DF80C00BDF808003A
:102E6000ADF81200206C10B1206C406808E02069B9
:102E7000C06818B12069C068406801E04FF07F4029
:102E800005909DF8100040F002008DF8100001AB95
:102E9000D4E90B120898FFF713FA00BF012050E79E
:102EA00001204EE701204CE700208BF800000120B4
:102EB00047E74D462946204609F039FE012040E704
:102EC00000203EE7CCFA00082E2E5C30302D47550E
:102ED000495F4C4942524152595C77696467657455
:102EE000735C6775695F65646974746578742E6373
:102EF0000000000041737365727420706172616D2F
:102F0000206661696C656420696E2066696C652065
:102F1000257320616E64206C696E652025640D0A3E
:102F200000000000780601202DE9F04F87B004462C
:102F30000D4616461F46DDE912ABDDE91089334622
:102F40002A46214604488DE8800F09F0A5F906902D
:102F5000069807B0BDE8F08FCCFA000870B50446BB
:102F60000D4600BF1CB10C492069884207D04FF4C0
:102F7000BB720AA113A008F059FA002070BD00BF6F
:102F8000294604F1480008F06EFE2146284608F064
:102F90006AFE0120F2E700008CFA00082E2E5C3059
:102FA000302D4755495F4C4942524152595C77692F
:102FB00064676574735C6775695F67726170682EBA
:102FC0006300000041737365727420706172616DFB
:102FD000206661696C656420696E2066696C652095
:102FE000257320616E64206C696E652025640D0A6E
:102FF000000000002DE9FF4F2DED0A8B8BB0044639
:1030000016980B287ED006DC022809D005287AD035
:103010000A2879D14CE30C2877D01028F9D1FCE3A9
:10302000179DB4F950B0B4F952000990B4F95400A6
:103030000890B4F95670204609F0BFFA8046204641
:1030400009F0DDFA0790204609F088FB069020463B
:1030500009F0F8FA8246206C10B1206C006808E094
:103060002069C06818B12069C068006801E04FF0AD
:103070007F403B46CDE900A041462846079AFEF72F
:103080003FFD206C10B1206C006808E02069C0682A
:1030900018B12069C068006801E04FF07F40CDE9B9
:1030A00000B00698C21B0998101A03B208EB07007B
:1030B00001B22846079AFEF723FD206C10B1206C60
:1030C000006808E02069C06818B12069C06800681D
:1030D00001E04FF07F400899CDE900100698A0EB81
:1030E000070C0998ACEB000003B2079800EB0A0C40
:1030F000ACEB010002B208EB070001B22846FEF774
:10310000FFFC03E0F0E2D0E3E8E3C4E3206C10B19D
:10311000206C006808E02069C06818B12069C068A8
:10312000006801E04FF07F40CDE900A0069808EB71
:1031300000020998101A01B22846099B079AFEF767
:10314000DFFC206C10B1206C406808E02069C0688A
:1031500018B12069C068406801E04FF07F40AAEBD9
:103160000B020899511A09B2CDE900100698A0EB9C
:10317000070C0998ACEB000003B20798584402B260
:1031800008EB070001B22846FEF7BAFC206C10B12C
:10319000206C806808E02069C06818B12069C068A8
:1031A000806801E04FF07F40CDE900A0414628460D
:1031B000DDE90632FEF76DFE94F85800F0B3AAEB95
:1031C0000B010898081A00EE100AF8EEC00A94F8ED
:1031D000580000EE100AB8EE400A80EE801AB0EEF9
:1031E000418A0120059032E0206C10B1206CC0684B
:1031F00008E02069C06818B12069C068C06801E0B3
:103200004FF07F4000900798584400EE100AF8EE07
:10321000C00A9DED050AB8EE400A40EE080ABDEE70
:10322000E00A10EE100A02B20698A0EB070C09980B
:10323000ACEB000003B208EB070000E00DE001B2C8
:103240002846FEF713FD0598401CC0B2059094F87F
:10325000581005988142C7DC00BF94F85900E8B3C4
:103260000698C11B0998081A00EE100AF8EEC00A69
:1032700094F8590000EE100AB8EE400A80EE801A69
:10328000B0EE418A0120059031E0206C10B1206C35
:10329000C06808E02069C06818B12069C068C068CB
:1032A00001E04FF07F40009008EB070000EE100AAD
:1032B000F8EEC00A9DED050AB8EE400A40EE080A95
:1032C000BDEEE00A10EE100A01B2AAEB0B0C089852
:1032D000ACEB000003B20798584400E00DE002B2E6
:1032E0002846FEF7B1FF0598401CC0B2059094F83F
:1032F000591005988142C8DC00BFA06C002875D029
:1033000094ED1C0AD4ED1B0A30EE600AB0EE40CA00
:1033100094ED1E0AD4ED1D0A30EE600AF0EE40CAAC
:103320000698C11B0998081A00EE100AB8EEC00AE8
:10333000C0EE0C0AB0EE60AAAAEB0B010898081ABE
:1033400000EE100AB8EEC00AC0EE2C0AB0EE60BA69
:10335000079800EB0A010898081A401E00B208EE10
:10336000900A08EB070000B209EE900A2868039063
:103370006868049008EB0700B5F90010884203DD87
:1033800008EB070000B22880069808EB00010998B6
:10339000091AB5F90400814206DA069808EB000123
:1033A0000998081A00B2A880079800EB0B01B5F93C
:1033B0000200814203DD0798584400B268800798F4
:1033C00000EB0A010898081AB5F90610884206DAD7
:1033D000079800EB0A010898081A00B2E88000215B
:1033E00004F1480008F0A8FC0A9051E159E10A985C
:1033F00010B10A98806800E000200646D6F81090C8
:1034000030690290307EE0BBD4ED1B0AB8EEE90AC9
:1034100000EECA0AB0EE408AB06830F9190000EE3A
:10342000100AB8EEC00AD4ED1D0A70EE600AB8EEBC
:10343000E80A00EECB0AF0EE40BA09F1010081463D
:10344000F168884201D14FF00009B5F9040000EE9F
:10345000100AB8EEC00AB4EEC80AF1EE10FA14D39E
:1034600096ED030AF8EE400AB0EE480A00EE8A0A2A
:10347000B5F9000000EE900AF8EEE00AB4EEE00ABA
:1034800000E07AE0F1EE10FA00D2FCE066E038EEFF
:103490000A0AB0EE409AB06830F9190000EE100A3E
:1034A000B8EEC00AD4ED1D0A70EE600AB8EEE80A64
:1034B00000EECB0AF0EE40AAB5F9000000EE100ACB
:1034C000B8EEC00AB4EEC80AF1EE10FA0AD9B5F99E
:1034D000000000EE100AB8EEC00AB4EEC90AF1EE20
:1034E00010FA2FD8B5F9040000EE100AB8EEC00AA1
:1034F000B4EEC80AF1EE10FA0ADCB5F9040000EEE9
:10350000100AB8EEC00AB4EEC90AF1EE10FA19DDDD
:10351000BDEEEA0A10EE101A09B27069BDEEC90AD2
:10352000CDE9001010EE100A03B2BDEEEB0A10EE6A
:10353000100A02B2BDEEC80A10EE100A01B2284607
:10354000FEF7D0FBB0EE498AF0EE6ABA09F101004D
:103550008146F168884201D14FF000090298814507
:103560000AD0B5F9040000EE100AB8EEC00AB4EEB5
:10357000C80AF1EE10FA8ADA84E0307E01287DD1A3
:103580004FEA4900B16831F9100000EE100AB8EEB8
:10359000C00AD4ED1B0A70EE600AB8EEE90A00EE2C
:1035A0008A0AB0EE408A4FEA4900401CB16831F9FE
:1035B000100000EE100AB8EEC00AD4ED1D0A70EE3D
:1035C000600AB8EEE80A00EECB0AF0EE40BA09F164
:1035D00001008146F168884201D14FF000094CE0BA
:1035E0004FEA4900B16831F9100000EE100AB8EE58
:1035F000C00AD4ED1B0A70EE600AB8EEE90A00EECC
:103600008A0AB0EE409A4FEA4900401CB16831F98D
:10361000100000EE100AB8EEC00AD4ED1D0A70EEDC
:10362000600AB8EEE80A00EECB0AF0EE40AABDEE62
:10363000EA0A10EE101A09B27069BDEEC90ACDE9A6
:10364000001010EE100A03B2BDEEEB0A10EE100AE5
:1036500002B2BDEEC80A10EE100A01B22846FEF70B
:1036600041FBB0EE498AF0EE6ABA09F101008146E9
:10367000F168884201D14FF0000900E002E00298B1
:103680008145ADD100BF00200A9908F055FB0A9092
:103690000A9800287FF4ABAE03982860049868600D
:1036A00000BF01200BB0BDEC0A8B04B0BDE8F08F69
:1036B000179A002100BF0FE002F1100030F811004E
:1036C000874B23F8110002F1140030F81100854BEC
:1036D00023F81100481CC1B210788842ECDC0023AA
:1036E000189803700120DDE7179D2878012863D121
:1036F000B5F91070B5F91480204609F02FF8B4F927
:103700005610411AB4F95200081A00EE100AB8EE29
:10371000C00AD4ED1C0A94ED1B1A70EEC10A80EEAB
:10372000201AF0EE418A6E48B0F90000381A00EE17
:10373000100AB8EEC00AC0EE280AB0EE608A94ED16
:103740001B0A30EE480A84ED1B0A94ED1C0A30EE89
:10375000480A84ED1C0A204608F074FFB4F95010A2
:10376000411AB4F95400081A00EE100AB8EEC00A63
:10377000D4ED1E0A94ED1D1A70EEC10A80EE201AD7
:10378000F0EE418A5748B0F90000A8EB000000EEC7
:10379000100AB8EEC00AC0EE280AB0EE608A94EDB6
:1037A0001D0A30EE080A84ED1D0A94ED1E0A30EE63
:1037B000080A84ED1E0A54E02878022851D1B5F990
:1037C000160002EE100AB8EEC22AF0EE421AB5F95F
:1037D000120002EE100AB8EEC22AB0EE421AB5F993
:1037E000140002EE100AB8EEC22AF0EE420AB5F951
:1037F000100002EE100AB8EEC22AB0EE420A09A981
:103800000AA801F031F995ED060AD5ED070A80EE18
:10381000201AB0EE419A204600E03EE008F012FF88
:1038200000EE100AB8EEC00ADDED090A80EE801A3B
:10383000F0EE419A204608F091FF00EE100AB8EE33
:10384000C00ADDED0A0A80EE801AB0EE41AAB0EEA1
:10385000691AF0EE4A0AB0EE490A204608F00AF961
:1038600000BF00260FE005F1100030F816001C49DB
:1038700021F8160005F1140030F81600194921F856
:103880001600701CC6B22878B042ECDC204609F065
:1038900005F8012006E7012004E7204608F0D9F8E2
:1038A000204608F0FBFF0120FCE6002104F148005F
:1038B00008F042FA05460DE00DB1A86800E00020CE
:1038C00006462146304608F0DFF92946002008F078
:1038D00033FA0546002DEFD10120E3E60020E1E6B2
:1038E0000E030120120301202DE9F04F85B005469B
:1038F0000E4617469846DDE90FABDDF83890119873
:103900003B46324629468DE8000F0490154808F0E2
:10391000C3FC044614B30520A4F85000052152202E
:1039200001535420015356200153B2EE040A84ED92
:10393000180ABAEE040A84ED170AB2EE040A84EDFE
:103940001A0ABBEE040A84ED190A204608F081F831
:10395000082084F858000A2084F85900204605B051
:10396000BDE8F08F8CFA000870B504460E46154687
:1039700000BF3CB94FF4037214A11EA007F056FD1E
:10398000002070BD00BF207E20B92169A06820F80A
:1039900011500DE0207E01280AD120694000A16865
:1039A00021F8106020694000401CA16821F81050E7
:1039B0002069401C2061D4E90310884201D3002013
:1039C0002061204605F0F1F80120DAE72E2E5C3068
:1039D000302D4755495F4C4942524152595C7769F5
:1039E00064676574735C6775695F67726170682E80
:1039F0006300000041737365727420706172616DC1
:103A0000206661696C656420696E2066696C65205A
:103A1000257320616E64206C696E652025640D0A33
:103A20000000000070B506460D461C200BF0CAFAD7
:103A300004461CB31C212046FCF759FC2676E560A1
:103A400056B968000BF0BEFAA060A06870B16900BA
:103A5000A068FCF74CFC09E0A8000BF0B3FAA060EA
:103A6000A06818B1A900A068FCF741FCA06828B9BB
:103A700000BF20460BF08EF9002400BF204670BD29
:103A800010B52DED028B0446B0EE408A00BF1CB18C
:103A90000E492069884209D040F2AF120CA116A04D
:103AA00007F0C4FC0020BDEC028B10BD00BF94EDFC
:103AB000180AB4EE480AF1EE10FA04D084ED188A20
:103AC000204608F0EBFE0120EDE700008CFA00082C
:103AD0002E2E5C30302D4755495F4C4942524152A1
:103AE000595C776964676574735C6775695F677251
:103AF0006170682E630000004173736572742070FA
:103B00006172616D206661696C656420696E206612
:103B1000696C6520257320616E64206C696E652078
:103B200025640D0A0000000010B52DED028B04463F
:103B3000B0EE408A00BF1CB10E492069884209D00E
:103B400040F2C9120CA116A007F070FC0020BDECD9
:103B5000028B10BD00BF94ED1A0AB4EE480AF1EED4
:103B600010FA04D084ED1A8A204608F097FE01204E
:103B7000EDE700008CFA00082E2E5C30302D475502
:103B8000495F4C4942524152595C77696467657498
:103B9000735C6775695F67726170682E630000000F
:103BA00041737365727420706172616D2066616922
:103BB0006C656420696E2066696C652025732061E0
:103BC0006E64206C696E652025640D0A000000009B
:103BD00010B52DED028B0446B0EE408A00BF1CB13B
:103BE0000E492069884209D04FF4D1720CA116A069
:103BF00007F01CFC0020BDEC028B10BD00BF94ED53
:103C0000170AB4EE480AF1EE10FA04D084ED178AD0
:103C1000204608F043FE0120EDE700008CFA000882
:103C20002E2E5C30302D4755495F4C49425241524F
:103C3000595C776964676574735C6775695F6772FF
:103C40006170682E630000004173736572742070A8
:103C50006172616D206661696C656420696E2066C1
:103C6000696C6520257320616E64206C696E652027
:103C700025640D0A0000000010B52DED028B0446EE
:103C8000B0EE408A00BF1CB10E492069884209D0BD
:103C90004FF4DE720CA116A007F0C8FB0020BDECAB
:103CA000028B10BD00BF94ED190AB4EE480AF1EE84
:103CB00010FA04D084ED198A204608F0EFFD0120A7
:103CC000EDE700008CFA00082E2E5C30302D4755B1
:103CD000495F4C4942524152595C77696467657447
:103CE000735C6775695F67726170682E63000000BE
:103CF00041737365727420706172616D20666169D1
:103D00006C656420696E2066696C6520257320618E
:103D10006E64206C696E652025640D0A0000000049
:103D200010B52DED048B0446B0EE408AF0EE608AAB
:103D3000B0EE419A00BF1CB10C492069884209D0FD
:103D400040F2E1120AA114A007F070FB0020BDECC4
:103D5000048B10BD00BFB0EE491AF0EE680AB0EE59
:103D6000480A204607F086FE0120F0E78CFA00089A
:103D70002E2E5C30302D4755495F4C4942524152FE
:103D8000595C776964676574735C6775695F6772AE
:103D90006170682E63000000417373657274207057
:103DA0006172616D206661696C656420696E206670
:103DB000696C6520257320616E64206C696E6520D6
:103DC00025640D0A0000000010B5044600BF1CB1B8
:103DD0000A492069884207D04FF4EB7208A112A06B
:103DE00007F024FB002010BD00BF204607F031FE85
:103DF000204608F053FD0120F5E700008CFA00088A
:103E00002E2E5C30302D4755495F4C49425241526D
:103E1000595C776964676574735C6775695F67721D
:103E20006170682E630000004173736572742070C6
:103E30006172616D206661696C656420696E2066DF
:103E4000696C6520257320616E64206C696E652045
:103E500025640D0A0000000010B5044606480068FD
:103E6000A0600C2221460548FDF784F808B1012026
:103E700010BD0020FCE700007806012004090120A5
:103E800010B5044606480068E06010222146054847
:103E9000FDF770F808B1012010BD0020FCE700001C
:103EA00078060120480801203EB5B8212A48FCF7D1
:103EB0001EFA29491431A1F1100000F08DFD2648A9
:103EC0004169001D88472448807A01281AD10021C1
:103ED000214801724172491E0022B0F90600CDE965
:103EE000012100901C48C568407A00EB400005EBBA
:103EF000800042681848B0F90430417A046A001D15
:103F0000A04723E01448807A01281DDD00211248D3
:103F100001724172491E0022B0F90600CDE901216B
:103F200000900D48C568407A00EB400005EB80002A
:103F300042680948B0F90430417A046A001DA0477C
:103F400001210548417201E001203EBD07F00CFE51
:103F500008F09EFC0020F8E7780601200949097C5A
:103F600001F0010169B100220649C96800EB400374
:103F700001EB83010A720349096921F00102014939
:103F80000A617047780601202DE9FF4F87B004468B
:103F90008A46934600BF1CB15C492069884208D01C
:103FA0004A225BA163A007F041FA00200BB0BDE8F4
:103FB000F08F00BFBAF1020F03D0BAF10A0F70D12F
:103FC0009CE0CDF818B0204608F0F7FA07462046E6
:103FD00008F015FB8046204608F0C0FB0546204649
:103FE00008F030FB064694F8490000F00100F0B1FB
:103FF000206C10B1206C006808E02069C06818B11E
:104000002069C068006801E04FF07F400590206C97
:1040100010B1206C806808E02069C06818B1206980
:10402000C068806801E04FF07F4004901DE0206C84
:1040300010B1206C406808E02069C06818B12069A0
:10404000C068406801E04FF07F400590206C10B1DF
:10405000206CC06808E02069C06818B12069C06899
:10406000C06801E04FF07F40049094F84800C8B960
:10407000B11E09B20598CDE90010A81E03B208F1DF
:10408000010002B2781C01B20698FDF739FD0498D0
:104090002B4642463946CDE900600698FDF7F9FE09
:1040A0002BE030E00598A946009005EBD970401050
:1040B00003B206EBD67008EB600002B205EBD570D8
:1040C00007EB600001B2CDE902560698FDF72EFC21
:1040D0000498009005EBD970401003B206EBD6703F
:1040E00008EB600002B205EBD57007EB600001B28F
:1040F000CDE902560698FDF7E1FA00BF01210A98C2
:104100000170012052E7002050E70000F0FA00089B
:104110002E2E5C30302D4755495F4C49425241525A
:10412000595C776964676574735C6775695F6C6512
:10413000642E630041737365727420706172616DE7
:10414000206661696C656420696E2066696C652013
:10415000257320616E64206C696E652025640D0AEC
:10416000000000002DE9F04F87B004460D461646CA
:104170001F46DDE912ABDDE9108933462A462146A8
:1041800004488DE8800F08F087F80690069807B07D
:10419000BDE8F08FF0FA000870B504460D4600BF88
:1041A0001CB116492069884206D0C52214A11DA061
:1041B00007F03CF9002070BD00BF75B194F84900CC
:1041C00000F0010048B994F8490040F0010084F87B
:1041D0004900204608F062FB0EE06DB994F84900F2
:1041E00000F0010040B194F8490020F0010084F88B
:1041F0004900204608F052FB0120DCE7F0FA0008F5
:104200002E2E5C30302D4755495F4C494252415269
:10421000595C776964676574735C6775695F6C6521
:10422000642E630041737365727420706172616DF6
:10423000206661696C656420696E2066696C652022
:10424000257320616E64206C696E652025640D0AFB
:104250000000000070B504460D4600BF1CB10B49BC
:104260002069884206D0932209A112A007F0DEF847
:10427000002070BD00BF94F84800A84204D084F824
:104280004850204608F0AAFB0120F2E7F0FA0008A7
:104290002E2E5C30302D4755495F4C4942524152D9
:1042A000595C776964676574735C6775695F6C6591
:1042B000642E630041737365727420706172616D66
:1042C000206661696C656420696E2066696C652092
:1042D000257320616E64206C696E652025640D0A6B
:1042E000000000002DE9F04104460E46002700BF03
:1042F0001CB114492069884208D04FF4CF7212A132
:104300001BA007F093F80020BDE8F08100BF0C204F
:104310000AF058FE054695B1AE60294604F15000FA
:1043200007F066FCB4F84800401C00B2A4F848004E
:10433000204607F081F9204608F0B0FA01273846F8
:10434000E2E7000084FB00082E2E5C30302D47553C
:10435000495F4C4942524152595C776964676574C0
:10436000735C6775695F6C697374626F782E630044
:1043700041737365727420706172616D206661694A
:104380006C656420696E2066696C65202573206108
:104390006E64206C696E652025640D0A00000000C3
:1043A0002DE9FF4F8DB0044615460E980D2875D0A7
:1043B00006DC022809D00A2871D00B2870D16AE1E6
:1043C0000E286FD01428F9D1F1E12F46204608F0CD
:1043D000F4F88346204608F012F98046204608F09B
:1043E000BDF90646204608F02DF9814601203346E6
:1043F00042465946CDE900903846FDF779FD206CDC
:1044000010B1206C006808E02069C06818B120690C
:10441000C068006801E04FF07F40A9F1040109B2D3
:10442000CDE90010301F03B208F1020002B20BF117
:10443000020001B23846FDF763FB94F85A0000F021
:10444000010070B307A8FDF7D3FE4834208A301A64
:1044500006B20BEB0600401E00B2ADF81C0008F1DE
:10446000010000B2ADF81E00208AADF82000A9F1CD
:10447000020000B2ADF8220000208DF82400B4F94B
:1044800004000C9034F948090A90204608F066FEB2
:104490000B9007A93846FDF71FFE06E075E1F1E035
:1044A0008FE100E01CE1701E06B2E06A002871D0C6
:1044B000206D0028FBD00020039005A9204608F0BD
:1044C00019FE049006A8FDF7D5F90BF1040000B21F
:1044D000ADF8180008F1020000B2ADF81A00301F64
:1044E00000B2ADF81C00049800B2ADF81E00112017
:1044F0008DF82000BDF81C00ADF82600B7F90600C5
:104500000290B7F9061008EB0900801E814204DD15
:1045100008EB0900801E00B2F880002104F1500071
:1045200007F078FB824608E05146002007F072FB56
:1045300082460398401C80B20390BAF1000F04D069
:10454000B4F94C1003988142EEDC8CE0B4F94A10C7
:10455000039881425AD19C48C06CA0420ED1206C75
:1045600010B1206C006918E02069C06818B120699A
:10457000C068006911E04FF07F400EE0206C10B180
:10458000206C406909E02069C06820B12069C068DA
:10459000406902E072E04FF07F40BDF91E200499AF
:1045A0008A4202DABDF91E1000E0049909B2CDE991
:1045B0000010F01E03B2BDF91A200BF1020001B287
:1045C0003846FDF79DFA8048C06CA0420ED1206CA1
:1045D00010B1206C806817E02069C06818B12069AC
:1045E000C068806810E04FF07F400DE0206C10B193
:1045F000206CC06808E02069C06818B12069C068F4
:10460000C06801E04FF07F400A900EE0206C10B1CE
:10461000206C406808E02069C06818B12069C06853
:10462000406801E04FF07F400A90DAF8082006ABBE
:104630003846E16AFDF744FEBDF81A1004980844B4
:1046400000B2ADF81A00BDF91A00B7F90610884299
:1046500000DD0FE05146002007F0DCFA82460398A7
:10466000401C80B20390B9F1000F03D0BAF1000FE3
:104670007FF46CAF00BF0298F88000BF012011B03A
:10468000BDE8F08F2946888A504A10800022109891
:1046900002700120F3E72F46E06AF8B100212046BE
:1046A00008F028FD0FFA80F8B88A48490988081AE6
:1046B00006B2002E01DB304600E0704240450CDDC2
:1046C000002E01DD012001E04FF0FF3001462046C1
:1046D00009F0E0F8B88A3D49088000BF0120CEE724
:1046E0002E464FF00008204608F038F88146204654
:1046F00007F0A8FF824694F85A0000F0010008B3C2
:10470000B6F91000B4F95810A9EB0101884219DD7F
:10471000B6F91400B4F95810884205DA4FF0FF31A9
:10472000204609F0B7F80BE0B6F91400B4F95810B8
:10473000AAEB0101884203DD0121204609F0AAF815
:104740004FF00108B8F1000F1DD1E06AD8B1002187
:10475000204608F0CFFC8346B6F9140090FBFBF02E
:1047600087B2B4F94C003844B4F94810884209DCE7
:10477000B4F84C00384401B2204609F057F82046FE
:1047800008F08CF800BF012079E72E463078022827
:1047900004D10121204608F03FFC06E030780128D2
:1047A00003D1811E204608F037FC012067E7B5F9E8
:1047B0000010204608F030FC012110980170012003
:1047C0005DE700205BE7000078060120160301206A
:1047D0002DE9F04F85B005460E4617469846DDE9AF
:1047E0000FABDDF8389011983B46324629468DE8EC
:1047F000000F0490094807F04FFD044654B14FF0F4
:10480000FF3024F84A0F1E20E081207C40F0020097
:1048100020744A3C204605B0BDE8F08F84FB0008B8
:1048200070B504460D4600BF1CB117492069884287
:1048300007D040F2E71215A11EA006F0F7FD0020F8
:1048400070BD00BF75B194F85A0000F0020048B97D
:1048500094F85A0040F0020084F85A00204608F00C
:104860001DF80EE06DB994F85A0000F0020040B156
:1048700094F85A0020F0020084F85A00204608F00C
:104880000DF80120DCE7000084FB00082E2E5C30D0
:10489000302D4755495F4C4942524152595C776926
:1048A00064676574735C6775695F6C697374626F64
:1048B000782E630041737365727420706172616D4C
:1048C000206661696C656420696E2066696C65208C
:1048D000257320616E64206C696E652025640D0A65
:1048E0000000000070B504460D46002600BF1CB154
:1048F0001A492069884207D040F2F91218A122A073
:1049000006F094FD002070BD00BF94F85A0000F03E
:10491000020000BB7DB194F85A0000F0010050B9CC
:1049200094F85A0040F0010084F85A00204607F03D
:10493000B5FF01260FE075B994F85A0000F00100A8
:1049400048B194F85A0020F0010084F85A0020463B
:1049500007F0A4FF01263046D5E7000084FB0008DD
:104960002E2E5C30302D4755495F4C494252415202
:10497000595C776964676574735C6775695F6C69B6
:104980007374626F782E6300417373657274207064
:104990006172616D206661696C656420696E206674
:1049A000696C6520257320616E64206C696E6520DA
:1049B00025640D0A0000000070B5034641B9107867
:1049C000012400EB40069D6805EB86052C7200E093
:1049D00000BF00BF002070BD30B5034600224FF479
:1049E000F07018804FF48870588004209871154832
:1049F000986000BF12E002EB4200124C04F8202045
:104A0000C2EB02204FF0404404EBC02002EB420412
:104A10000C4D05EB84046060501CC2B2042AEADB32
:104A200009480860094888600948486009480861E1
:104A300009484861094888610948C8600948C8614F
:104A4000002030BD180801209B8D00087D8D0008D6
:104A5000A98D0008DD8B0008458C0008918C0008AA
:104A6000DD8C0008298D0008024630EE012AF0EEA8
:104A7000002A82EE223A82ED003A30EEA12AF0EED0
:104A8000002A82EE223A81ED003A0120704710B5EB
:104A90002DED048BB0EE409AB0EE608AF0EE419AB4
:104AA000F0EE618A044679EE690A60EEA00A38EEFB
:104AB000681A78EE681A41EE210AB0EE600A2046C4
:104AC00000F003F8BDEC048B10BD10B52DED068B86
:104AD000B0EE408A0446B5EEC08AF1EE10FA18DD59
:104AE00018EE100AFBF738FC41EC1A0BB0EE4A0A3C
:104AF000F0EE6A0A09F0F8F9B0EE409AF0EE609A2A
:104B000051EC190BFBF73BFC20600120BDEC068B40
:104B100010BD0020FAE700002DE9FF4F8BB00446DE
:104B20008B4600BF1CB173492069884208D05422CB
:104B300071A17BA006F07AFC00200FB0BDE8F08FD9
:104B400000BFBBF1020F03D0BBF10A0F7ED1CAE058
:104B50000D980A90204607F030FD0646204607F0E3
:104B60004EFD0746204607F0F9FD8046204607F037
:104B700069FD8146A16C206D401AA8F102014843ED
:104B8000D4E91221891A90FBF1F005B2206C10B122
:104B9000206C006808E02069C06818B12069C0680E
:104BA000006801E04FF07F40A9F1040109B2CDE9AE
:104BB0000010A8EB0500001F03B27019801C01B2A1
:104BC000B81C02B20A98FCF79BFF206C10B1206C55
:104BD000406808E02069C06818B12069C068406872
:104BE00001E04FF07F40A9F1040109B22B46CDE965
:104BF0000010B81C02B2B01C01B20A98FCF780FF8A
:104C0000012043463A463146CDE900900A98FDF727
:104C10006FF9E06A002865D04FF0000A94F854005C
:104C200000F0010098B1A16C206D401A6421484346
:104C3000D4E91221891A90FBF1F0024644A10790B1
:104C400008A806F003FC0DF1200A06E050E020461B
:104C500007F004FF08B1D4F830A0BAF1000F40D03B
:104C600001A8FCF707FE701C00B2ADF80400781C28
:104C700000B2ADF80600ADF80880A9F1020000B25C
:104C8000ADF80A0012208DF80C000DB1681E00E08E
:104C9000002000B2ADF81200206C10B1206C00684A
:104CA00008E02069C06818B12069C068006801E0A8
:104CB0004FF07F400590206C10B1206C406808E0F8
:104CC0002069C06818B12069C068406801E04FF0F1
:104CD0007F40069001AB5246E16A0A98FDF7F0FA70
:104CE00000BF00BF00BF01210E980170012024E722
:104CF000002022E710FB00082E2E5C30302D475597
:104D0000495F4C4942524152595C77696467657406
:104D1000735C6775695F70726F676261722E6300A2
:104D200041737365727420706172616D2066616990
:104D30006C656420696E2066696C6520257320614E
:104D40006E64206C696E652025640D0A0000000009
:104D500025642525000000002DE9F04F85B00546AB
:104D60000E4617469846DDE90FABDDF838901198EE
:104D70003B46324629468DE8000F0490074807F06D
:104D80008BFA04462CB10020A0646420E064322039
:104D90002065204605B0BDE8F08F000010FB00083C
:104DA00010B5044600BF1CB10D492069884206D0E9
:104DB000D9220CA115A006F039FB002010BD00BFC0
:104DC00094F8540000F0010040B994F8540040F009
:104DD000010084F85400204607F060FD0120EDE753
:104DE00010FB00082E2E5C30302D4755495F4C4992
:104DF00042524152595C776964676574735C6775A8
:104E0000695F70726F676261722E630041737365D0
:104E1000727420706172616D206661696C656420D6
:104E2000696E2066696C6520257320616E64206C54
:104E3000696E652025640D0A00000000F0B58BB096
:104E4000002506F0B7FE00287ED0F2E0F24890F888
:104E5000960000285FD0F04890F8720000285AD0E1
:104E6000ED48D0F8B000002871D0EB49D1F8B0007F
:104E700007F0C5FB0446E849D1F8B00007F09DFBF8
:104E8000064622463146E4488C3008F083FCE2486E
:104E900090F88C00E04991F8681088421DD1DE48F6
:104EA000D0F8B000406958B1DB49D1F8B000D1F872
:104EB000B0100AABD84A8C324C690B21A04746E0AF
:104EC000D549D1F8B000D1F8B01009690AABD24A7F
:104ED0008C328C680B21A04739E0CF48D0F8B00065
:104EE000406958B1CC49D1F8B000D1F8B0100AAB44
:104EF000C94A8C324C690A21A04728E0C649D1F83A
:104F0000B000D1F8B01009690AABC34A8C328C6882
:104F10000A21A0471BE0C04890F89600B8B1BE48EF
:104F200090F8720098B90021BB488C3008F01CFA48
:104F300068B9B948D0F8B000B749D1F8B410884280
:104F400005D00021B44800E07BE0A0F8AC10B248E6
:104F5000D0F8B00048B309AB0122AF49683101F184
:104F6000240008F00BFE9DF82400F0B1AA48D0F808
:104F7000B000406960B1A849D1F8B000D1F8B010D4
:104F80000023A54A8C324C699DF82410A0470CE000
:104F9000A149D1F8B000D1F8B010096900239E4AA8
:104FA0008C328C689DF82410A0479B4890F896009E
:104FB000C0BB994890F87200A0B39748D0F8B000F1
:104FC00080B39549D1F8B00007F019FB0446924927
:104FD000D1F8B00007F0F1FA0646224631468E4875
:104FE0008C3008F0D7FB8C48D0F8B000406958B13D
:104FF0008949D1F8B000D1F8B0100AAB864A8C329A
:105000004C690C21A0470BE08349D1F8B000D1F8DE
:10501000B01009690AAB804A8C328C680C21A04719
:1050200007F05CF824227C498C31A1F12400FBF7C5
:1050300045F979488C3006F0C9FD00287FF406AFA9
:1050400029E009AB00227449683101F1240008F01D
:1050500095FD9DF82400F0B16F48D0F8B00040698C
:1050600060B16D49D1F8B000D1F8B01000236A4AA0
:105070008C324C699DF82410A0470CE06649D1F8A9
:10508000B000D1F8B01009690023634A8C328C68F3
:105090009DF82410A0474EE05F48C06C00284AD01D
:1050A000012005905C48C06C406940B15A49C86C09
:1050B000C96C05AB06AA4C690D21A04708E056490A
:1050C000C86CC96C096905AB06AA8C680D21A0479C
:1050D0009DF8140078B39DF8180009282BD14E488C
:1050E000C16C002006F0B0FE04462CB194F82800F4
:1050F00000F0200000B10024ACB94749C96C8869B0
:10510000002106F0A1FE04460AE094F8280000F011
:10511000200000B906E02146002006F095FE044676
:10512000002CF2D100BF2CB1204606F0B7FE20467D
:1051300007F0D2F900BF06A806F02AFD0028ABD17F
:1051400006F03AFF3448808E00F4005008B107F0B2
:105150007DF93148007C00F00100002859D107F0AA
:10516000DDFEE8B32C48047A407A04902B48466868
:1051700000222948B0F906002749B1F90410CDE909
:105180000102254803920091C0689DF8101001EBC0
:10519000410100EB810043681F48C06804EB4401F3
:1051A00000EB810042681C489DF81010476A001D02
:1051B000B847002008F060F9054618484068811B90
:1051C00017A006F033F947F6FF7013490887014628
:1051D00011484187491C8187C1870121C06800E0CF
:1051E00017E09DF8102002EB420200EB82000172F2
:1051F0000948006940F001010748016104AA002143
:10520000001DFFF7D9FB9DF810100348017244728E
:1052100000BF28460BB0F0BD78060120001000E06A
:10522000543A2025640D0A002DE9FF4F8DB0044645
:105230009B4600BF1CB19C492069884208D0772258
:105240009AA1A4A006F0F2F8002011B0BDE8F08FFA
:1052500000BF0E98022804D00A287CD00E287BD1EB
:1052600018E10F980C90204607F0A7F90A90204605
:1052700007F0C5F90990204607F070FA089020461B
:1052800007F0E0F907901425DDF828900799481BEE
:1052900000EBD0714A10099911440FFA81FA94F881
:1052A000540000F0020078B1206C10B1206CC0688E
:1052B00008E02069C06818B12069C068C06801E0D2
:1052C0004FF07F400B900EE0206C10B1206C006816
:1052D00008E02069C06818B12069C068006801E072
:1052E0004FF07F400B900B982E46009005EBD67048
:1052F000401003B22F4605EBD7700AEB600002B2F4
:10530000A84605EBD87009EB600001B20C98FCF7D9
:105310000DFB206C10B1206C806808E02069C0682B
:1053200018B12069C068806801E04FF07F402E46C8
:10533000009005EBD570401003B22F4605EBD570F9
:105340000AEB600002B2A84605EBD57009EB6000DD
:1053500001B20C9801E08FE0A3E0FCF7AFF96948D7
:10536000C06CA04223D1206C10B1206C406808E0D2
:105370002069C06818B12069C068406801E04FF03A
:105380007F402E46009005EBD5704010801E03B282
:105390002F4605EBD5700AEB600002B2A84605EB7C
:1053A000D57009EB600001B20C98FCF787F994F80E
:1053B000540000F0010018B3206C10B1206C40685C
:1053C00008E02069C06818B12069C068406801E041
:1053D0004FF07F402E46009005EBD5704010401FE7
:1053E00003B22F4605EBD5700AEB600002B2A84667
:1053F00005EBD57009EB600001B20C98FCF796FA4A
:10540000204607F02BFBA8B36846FCF733FA09EBFC
:105410000500401D00B2ADF800000998401C00B224
:10542000ADF802000898401B401F00B2ADF8040020
:105430000798801E00B2ADF8060011208DF8080014
:10544000BDF80400ADF80E00206C10B1206C40686F
:1054500008E02069C06818B12069C068406801E0B0
:105460004FF07F4004906B46D4E90B120C98FCF788
:1054700027FF00BF0120E8E694F8540000F0020086
:1054800018B101208BF8000002E000208BF800002A
:105490000120DAE6204606F039FD204607F0FEF945
:1054A00000BF0020D1E6000058FB00082E2E5C3023
:1054B000302D4755495F4C4942524152595C7769FA
:1054C00064676574735C6775695F726164696F2E88
:1054D0006300000041737365727420706172616DC6
:1054E000206661696C656420696E2066696C652060
:1054F000257320616E64206C696E652025640D0A39
:1055000000000000780601202DE9F04F87B0044626
:105510000D4616461F46DDE912ABDDE9108933461C
:105520002A46214604488DE8800F06F0B5FE069015
:10553000069807B0BDE8F08F58FB000870B5044628
:10554000002500BF1CB108492069884206D0FD2211
:1055500006A110A005F06AFF002070BD00BF94F8FE
:1055600048502846F9E7000058FB00082E2E5C3012
:10557000302D4755495F4C4942524152595C776939
:1055800064676574735C6775695F726164696F2EC7
:105590006300000041737365727420706172616D05
:1055A000206661696C656420696E2066696C65209F
:1055B000257320616E64206C696E652025640D0A78
:1055C0000000000070B5044600BF1CB10749206907
:1055D000884207D04FF48C7205A10FA005F026FF7A
:1055E000002070BD00BFE56C2846FAE758FB0008B4
:1055F0002E2E5C30302D4755495F4C494252415266
:10560000595C776964676574735C6775695F72611B
:1056100064696F2E630000004173736572742070BB
:105620006172616D206661696C656420696E2066D7
:10563000696C6520257320616E64206C696E65203D
:1056400025640D0A0000000070B504460D4600BF39
:105650001CB10A492069884207D04FF4987208A10A
:1056600011A005F0E3FE002070BD00BF29462046D2
:1056700008F069F806463046F6E7000058FB0008D7
:105680002E2E5C30302D4755495F4C4942524152D5
:10569000595C776964676574735C6775695F72618B
:1056A00064696F2E6300000041737365727420702B
:1056B0006172616D206661696C656420696E206647
:1056C000696C6520257320616E64206C696E6520AD
:1056D00025640D0A0000000070B504460E4600BFA8
:1056E0001CB119492069884206D0E02217A121A0E7
:1056F00005F09CFE002070BD00BF94F84800B04249
:1057000020D00021A06906F09FFB054611E0A542CC
:105710000AD00D492869884206D195F84800B04260
:1057200002D1286D206506E02946002006F08CFB9A
:105730000546002DEBD100BF84F84860204607F0F5
:10574000ADF800BF0120D6E758FB00082E2E5C30D4
:10575000302D4755495F4C4942524152595C776957
:1057600064676574735C6775695F726164696F2EE5
:105770006300000041737365727420706172616D23
:10578000206661696C656420696E2066696C6520BD
:10579000257320616E64206C696E652025640D0A96
:1057A0000000000070B504460D4600BF1CB10D4955
:1057B0002069884207D040F207120BA114A005F01F
:1057C00035FE002070BD00BFE06CA84208D0E56443
:1057D00094F8540000F0010010B1204606F096FB4A
:1057E0000120EFE758FB00082E2E5C30302D475586
:1057F000495F4C4942524152595C7769646765740C
:10580000735C6775695F726164696F2E6300000085
:1058100041737365727420706172616D2066616995
:105820006C656420696E2066696C65202573206153
:105830006E64206C696E652025640D0A000000000E
:1058400070B504460D4629462046FAF76EFD70BD38
:1058500070B504460D4629462046FAF774FD70BD22
:1058600070B504460D461646324629462046FAF7DC
:1058700049FD70BD2DE9FC410546884616462C6859
:10588000207810B90020BDE8FC81684600F000F9DE
:105890000EE0207808B90020F5E714F8011B6846EF
:1058A00000F0ADF807462868401C286007B902E000
:1058B00020780028EDD100BF0198C8F8000016B18B
:1058C0009DF8000030700120DDE730B503460C463E
:1058D0001868C11EC878802809DAC878206018685E
:1058E000401E1860002A6ED0012010706BE088788E
:1058F00000F0E000C02813D1C87800F0C000802874
:105900000ED1887800F01F05C87865F39F102060DD
:105910001868801E1860002A55D00220107052E0CE
:10592000487800F0F000E0281DD1887800F0C00031
:10593000802818D1C87800F0C000802813D148789A
:105940000007000C8D7805F03F0540EA8510CD7802
:1059500005F03F05284320601868C01E186072B328
:10596000032010702FE0087800F0F800F02827D10D
:10597000487800F0C000802822D1887800F0C0006C
:1059800080281DD1C87800F0C000802818D1087880
:105990004007C00A4D7805F03F0540EA05308D7894
:1059A00005F03F0540EA8510CD7805F03F05284316
:1059B00020601868001F18600AB10420107002E00F
:1059C0000020206030BD0120FCE77CB505460026A4
:1059D0002C46684600F05CF806E014F8011B6846A7
:1059E00000F00DF800B9761C20780028F5D130467B
:1059F0007CBD10B504462046FAF790FC10BD024667
:105A0000507870BB00201070802905DA516050700A
:105A1000012010700020704701F0E000C02805D17F
:105A200001F01F0050600120507015E001F0F000FF
:105A3000E02805D101F00F005060022050700BE00B
:105A400001F0F800F02805D101F0070050600320B4
:105A5000507001E00120DEE75078401C10700220F9
:105A6000D9E701F0C00080280DD15078401E507059
:105A70000846536863F39F105060507808B90020BF
:105A8000C9E70220C7E70020506050700120C2E73C
:105A900000210160416070472DE9F04F8BB0044652
:105AA000894692469B46B9F1020F09D0B9F10A0F17
:105AB00075D0B9F10D0F79D0B9F10E0F78D173E02F
:105AC000CDF828A0204606F0C9FF002860D0204667
:105AD00006F073FD0646204606F091FD0746204677
